:0400000094EF31F058
:100E000000524742433A2025692025692025692060
:100E100025692020202020524742435F72656C3AAA
:100E200020252E336620252E336620252E3366207E
:100E300020202020436F6C6F75723A2025730A0DB5
:100E400000524742433A2025692025692025692020
:100E5000256920202020205468726573686F6C64B7
:100E60003A2025692025692025690A0D006C6967EB
:100E7000687420626C756500756E6B6E6F776E00BE
:100E80006F72616E67650079656C6C6F770077686B
:100E900069746500677265656E0070696E6B004904
:100EA0004E46004E414E00696E66006E616E0072E5
:070EB0006564006C660000A0
:100EB800000E00017B6F000E7A6F3EC08CF03FC0C1
:100EC8008DF040C08EF041C08FF08FBF70EF07F0FB
:100ED8006EEF07F086EF07F0000E7B6F010E7A6F5A
:100EE8008CC001F08DC002F08EC003F08FC004F0FA
:100EF800EBEC31F001C08CF002C08DF003C08EF035
:100F080004C08FF0000E0001936F000E926F1EC197
:100F18007EF01FC17FF07A517B11D8A496EF07F0BD
:100F280098EF07F0A0EF07F0010122A59EEF07F068
:100F3800A0EF07F0BBEF07F000017A517B11D8A4AE
:100F4800A8EF07F0AAEF07F0B0EF07F0000E616F07
:100F58002B0E606FB4EF07F0000E616F2D0E606FFF
:100F680060C031F1924B932B7E07D8A07F078CC0CD
:100F780001F08DC002F08EC003F08FC004F0C7EC02
:100F880029F001040210D8A4CCEF07F0CEEF07F047
:100F980025EF08F0BF0E436EFF0E446E4250456EBB
:100FA800466A435045264450462246500AE11A0EE6
:100FB800455CD8A0E2EF07F0E5EF07F0010EE6EF99
:100FC80007F0000E0001626F636B62516311D8B4C1
:100FD800F0EF07F0F2EF07F000EF08F0310E92257E
:100FE800016E010E9321026E9F0E036E0E0E046EAB
:100FF8001EEC2FF00CEF08F0310E9225016E010E59
:101008009321026EA70E036E0E0E046E1EEC2FF0D7
:101018000001FD0E7E27FF0E7F233CC011F03DC06E
:1010280012F0310E136E010E146E7EC015F07FC0E3
:1010380016F070EC2CF011C03CF012C03DF092EFAD
:101048000DF08CC001F08DC002F08EC003F08FC08F
:1010580004F0C7EC29F001500210D8A436EF08F0CC
:1010680038EF08F078EF08F0BF0E436EFF0E446EBD
:101078004250456E466A43504526445046224650E3
:101088000AE11A0E455CD8A04CEF08F04FEF08F0C3
:10109800010E50EF08F0000E0001646F656B64519B
:1010A8006511D8B45AEF08F05CEF08F06AEF08F061
:1010B800310E9225016E010E9321026EA30E036E6E
:1010C8000E0E046E1EEC2FF00CEF08F0310E922578
:1010D800016E010E9321026EAB0E036E0E0E046EAE
:1010E8001EEC2FF00CEF08F0000E0001946F000EBC
:1010F800956F800E966F3F0E976F000E916F000EE2
:10110800906F8CC001F08DC002F08EC003F08FC0CC
:1011180004F0000E056E000E066E000E076E000E3F
:10112800086E8DEC2DF0D8B09CEF08F09EEF08F01B
:1011380021EF09F0BDEF08F094C001F095C002F06E
:1011480096C003F097C004F0000E056E000E066E00
:10115800200E076E410E086E59EC1CF001C094F089
:1011680002C095F003C096F004C097F00001904BC0
:10117800912B8CC01AF08DC01BF08EC01CF08FC054
:101188001DF0000E056E000E066E200E076E410E55
:10119800086E94C001F095C002F096C003F097C0A5
:1011A80004F059EC1CF001C01EF002C01FF003C08F
:1011B80020F004C021F045EC29F0D8B0E6EF08F0A3
:1011C800E8EF08F0A0EF08F008EF09F094C00FF07E
:1011D80095C010F096C011F097C012F0000E136E73
:1011E800000E146E200E156E410E166E6EEC1EF07B
:1011F8000FC094F010C095F011C096F012C097F08F
:1012080000019007D8A091078CC01AF08DC01BF080
:101218008EC01CF08FC01DF094C01EF095C01FF04A
:1012280096C020F097C021F045EC29F0D8A01FEF18
:1012380009F021EF09F0EAEF08F042C007F0086A68
:10124800EEEC2EF007500001816F81C080F0670E30
:101258008119D8A432EF09F034EF09F05CEF09F0F6
:10126800010120512111D8A43CEF09F03EEF09F00B
:1012780042EF09F0000E216F010E206F21BF4FEFE2
:1012880009F0215106E12005D8B04DEF09F04FEFE4
:1012980009F056EF09F0000E00017D6F060E7C6F15
:1012A80066EF09F020C17CF021C17DF066EF09F0FE
:1012B800010121BF62EF09F064EF09F04FEF09F077
:1012C80056EF09F0670E00018119D8A46EEF09F0F6
:1012D80070EF09F09FEF09F091AF7EEF09F0FC0E77
:1012E800905DFF0E9159D8A07CEF09F07EEF09F0D0
:1012F8009DEF09F0FF0E436EFF0E446E7CC045F073
:101308007DC046F043504526445046229051455CE6
:101318004650800A476E9151800A4758D8A097EFE7
:1013280009F099EF09F09DEF09F0660E806F9FEFC5
:1013380009F0650E806F7CC072F07DC073F0670E97
:101348008119D8A4AAEF09F0ACEF09F0BCEF09F0B5
:10135800660E8019D8A4B3EF09F0B5EF09F0BEEF17
:1013680009F091BFBCEF09F0BAEF09F0BEEF09F040
:10137800724B732B660E8019D8A4C5EF09F0C7EF1E
:1013880009F0E7EF09F091BFCEEF09F0CCEF09F0D3
:10139800DAEF09F0000E946F000E956F800E966FCD
:1013A8003F0E976F000E916F000E906F670E8119B8
:1013B800D8B4E1EF09F0E3EF09F0E7EF09F0905155
:1013C800722791517323000E8B6F000E8A6F8CC0A9
:1013D80082F08DC083F08EC084F08FC085F094C0F9
:1013E80074F095C075F096C076F097C077F078EFF6
:1013F8000AF082C00FF083C010F084C011F085C0DD
:1014080012F094C013F095C014F096C015F097C070
:1014180016F06EEC1EF00FC028F010C029F011C0B5
:101428002AF012C02BF0ACEC21F028C086F029C0BD
:1014380087F02AC088F02BC089F086C001F087C0E9
:1014480002F088C003F089C004F0C2EC28F001C0A3
:1014580078F002C079F082C01AF083C01BF084C013
:101468001CF085C01DF094C005F095C006F096C02C
:1014780007F097C008F086C001F087C002F088C066
:1014880003F089C004F059EC1CF001C01EF002C042
:101498001FF003C020F004C021F00EEC31F01AC098
:1014A80082F01BC083F01CC084F01DC085F094C07E
:1014B8000FF095C010F096C011F097C012F0000E12
:1014C800136E000E146E200E156E410E166E6EEC25
:1014D8001EF00FC094F010C095F011C096F012C025
:1014E80097F000018A4B8B2B72518A5D8B51800AD1
:1014F800436E7351800A4358D8A085EF0AF087EFEE
:101508000AF0FDEF09F094C001F095C002F096C012
:1015180003F097C004F0000E056E000E066EA00ED4
:10152800076E400E086E59EC1CF001C086F002C030
:1015380087F003C088F004C089F082C01AF083C025
:101548001BF084C01CF085C01DF086C01EF087C04B
:101558001FF088C020F089C021F045EC29F0D8B0F0
:10156800B8EF0AF0BAEF0AF0C5EF0AF0000E000172
:10157800866F000E876F000E886F000E896FEEEF82
:101588000AF082C001F083C002F084C003F085C075
:1015980004F086C005F087C006F088C007F089C04F
:1015A80008F08DEC2DF0D8A0DCEF0AF0DEEF0AF0A1
:1015B800EEEF0AF0000178B1E4EF0AF0E6EF0AF086
:1015C800EEEF0AF0000E866F000E876F000E886F30
:1015D800000E896F8CC001F08DC002F08EC003F040
:1015E8008FC004F086C005F087C006F088C007F0F9
:1015F80089C008F0F9EC19F001C082F002C083F04C
:1016080003C084F004C085F082C01AF083C01BF0C8
:1016180084C01CF085C01DF0000E056E000E066E1D
:10162800200E076E410E086E74C001F075C002F0FE
:1016380076C003F077C004F059EC1CF001C01EF02E
:1016480002C01FF003C020F004C021F045EC29F0CF
:10165800D8A031EF0BF033EF0BF05CEF0BF000018B
:10166800904B912B74C001F075C002F076C003F066
:1016780077C004F0000E056E000E066E200E076E91
:10168800410E086E59EC1CF001C074F002C075F0F0
:1016980003C076F004C077F0660E00018019D8A464
:1016A80058EF0BF05AEF0BF05CEF0BF0724B732B0B
:1016B80074C094F075C095F076C096F077C097F036
:1016C800650E00018019D8B46CEF0BF06EEF0BF0CB
:1016D80074EF0BF090C070F091C071F078EF0BF0E0
:1016E800000E716F000E706F000E6F6F000E6E6F40
:1016F800000E6D6F000E6C6F000E8B6F000E8A6F00
:1017080075EF0CF082C00FF083C010F084C011F0A8
:1017180085C012F094C013F095C014F096C015F06F
:1017280097C016F06EEC1EF00FC028F010C029F01C
:1017380011C02AF012C02BF0ACEC21F028C086F0C2
:1017480029C087F02AC088F02BC089F086C001F034
:1017580087C002F088C003F089C004F0C2EC28F00A
:1017680001C078F002C079F0010122B9BEEF0BF098
:10177800C0EF0BF0DEEF0BF0000178517911D8A41F
:10178800C8EF0BF0CAEF0BF0DEEF0BF0670E811914
:10179800D8A4D1EF0BF0D3EF0BF0DEEF0BF071BF55
:1017A800DAEF0BF0D8EF0BF0DEEF0BF06C4B6D2B94
:1017B80029EF0CF000016E516F11D8A4E6EF0BF081
:1017C800E8EF0BF012EF0CF071BFEFEF0BF0EDEF5D
:1017D8000BF012EF0CF0310E9225D96E010E932109
:1017E800DA6E2E0EDF6E924B932B7E07D8A07F0702
:1017F800000E6F6F010E6E6F12EF0CF0310E922516
:10180800D96E010E9321DA6E300EDF6E924B932B58
:101818007E07D8A07F076C07D8A06D076C516D11A3
:10182800D8A419EF0CF01BEF0CF002EF0CF0310EFE
:101838009225D96E010E9321DA6E7851300FDF6E42
:10184800924B932B7E07D8A07F0782C01AF083C0E3
:101858001BF084C01CF085C01DF094C005F095C035
:1018680006F096C007F097C008F086C001F087C060
:1018780002F088C003F089C004F059EC1CF001C0E4
:101888001EF002C01FF003C020F004C021F00EECCF
:1018980031F01AC082F01BC083F01CC084F01DC058
:1018A80085F094C00FF095C010F096C011F097C065
:1018B80012F0000E136E000E146E200E156E410EFF
:1018C800166E6EEC1EF00FC094F010C095F011C0AB
:1018D80096F012C097F000017007D8A071078A4BE4
:1018E8008B2B72518A5D8B51800A436E7351800A2B
:1018F8004358D8B082EF0CF084EF0CF092EF0CF064
:1019080093BF90EF0CF0935109E14B0E925DD8A074
:1019180090EF0CF092EF0CF086EF0BF06E516F1118
:10192800D8A499EF0CF09BEF0CF0AEEF0CF001018E
:1019380022A9A1EF0CF0A3EF0CF0AEEF0CF0310EE2
:1019480000019225D96E010E9321DA6E2E0EDF6EFC
:10195800924B932B310E00019225D96E010E9321E3
:10196800DA6E000EDF6E650E8019D8A4BEEF0CF09B
:10197800C0EF0CF011EF08F0000E8B6F4F0E8A6F5E
:10198800310E8A25D96E010E8B21DA6E000EDF6EBC
:10199800000E7B6F000E7A6F91BFD7EF0CF0D5EF7A
:1019A8000CF0DFEF0CF0000E7B6F010E7A6F906D7C
:1019B800911FD8B0912B000E7D6F020E7C6F10EF37
:1019C8000DF08A07D8A08B07310E8A25D96E010E33
:1019D8008B21DA6E90C001F091C002F0000E046E07
:1019E8000A0E036E35EC2DF00150300FDF6E90C0FB
:1019F80007F091C008F0000E0A6E0A0E096ED3ECCB
:101A08002CF007C090F008C091F000017C07D8A026
:101A18007D077E07D8A07F0790519111D8A417EFB2
:101A28000DF019EF0DF0E5EF0CF07DBF26EF0DF08E
:101A38007D5106E17C05D8B024EF0DF026EF0DF0BE
:101A4800E5EF0CF08A07D8A08B077A517B11D8A450
:101A580030EF0DF032EF0DF038EF0DF0000E676F3C
:101A68002B0E666F3CEF0DF0000E676F2D0E666F44
:101A7800310E8A25D96E010E8B21DA6E66C0DFFF22
:101A88007E07D8A07F078A07D8A08B07BF0E436EB2
:101A9800FF0E446E4250456E466A435045264450F8
:101AA800462246500AE11A0E455CD8A05EEF0DF0BA
:101AB80061EF0DF0010E62EF0DF0000E6A6F6B6BB7
:101AC8006A516B11D8A46BEF0DF06DEF0DF073EF49
:101AD8000DF0000E696F650E686F77EF0DF0000E60
:101AE800696F450E686F310E8A25D96E010E8B21FC
:101AF800DA6E68C0DFFF7E07D8A07F07310E922517
:101B0800016E010E9321026E310E8A25036E010EBD
:101B18008B21046E1EEC2FF011EF08F012008EA43A
:101B280098EF0DF09AEF0DF0A1EF0DF08EB69FEF44
:101B38000DF0A1EF0DF093EF0DF0F29E7C86010EF3
:101B480077EC32F0520E5B6E2B0E5A6E000EE82EBA
:101B5800FED75A2EFCD75B2EFAD700D08EA4B7EF4B
:101B68000DF0B9EF0DF0C0EF0DF08EB6BEEF0DF031
:101B7800C0EF0DF0B2EF0DF0E40E0C6E000E0D6E1E
:101B88004DEC2FF0E4C0ECF0E5C0EDF0E6C0EEF06F
:101B9800E7C0EFF0E8C0F0F0E9C0F1F0EAC0F2F019
:101BA800EBC0F3F0ECC001F0EDC002F0036A046A88
:101BB800000E9FEC23F001C00FF002C010F003C02C
:101BC80011F004C012F0F2C001F0F3C002F0036A91
:101BD800046A000E9FEC23F001C013F002C014F059
:101BE80003C015F004C016F06EEC1EF00FC0F4F040
:101BF80010C0F5F011C0F6F012C0F7F0EEC001F019
:101C0800EFC002F0036A046A000E9FEC23F001C0E3
:101C18000FF002C010F003C011F004C012F0F2C0BF
:101C280001F0F3C002F0036A046A000E9FEC23F08F
:101C380001C013F002C014F003C015F004C016F080
:101C48006EEC1EF00FC0F8F010C0F9F011C0FAF0F9
:101C580012C0FBF0F0C001F0F1C002F0036A046AA0
:101C6800000E9FEC23F001C00FF002C010F003C07B
:101C780011F004C012F0F2C001F0F3C002F0036AE0
:101C8800046A000E9FEC23F001C013F002C014F0A8
:101C980003C015F004C016F06EEC1EF00FC0FCF087
:101CA80010C0FDF011C0FEF012C0FFF0710E1A6EE8
:101CB8003D0E1B6E0A0E1C6E3F0E1D6EF4C01EF00C
:101CC800F5C01FF0F6C020F0F7C021F045EC29F070
:101CD800D8B071EF0EF073EF0EF0DEEF0EF0F8C033
:101CE8001AF0F9C01BF0FAC01CF0FBC01DF0480E3A
:101CF8001E6EE10E1F6E7A0E206E3E0E216E45ECB2
:101D080029F0D8B08AEF0EF08CEF0EF0DEEF0EF06F
:101D1800FCC01AF0FDC01BF0FEC01CF0FFC01DF097
:101D2800EC0E1E6E510E1F6E380E206E3E0E216E8A
:101D380045EC29F0D8B0A3EF0EF0A5EF0EF0DEEFDA
:101D48000EF0D00E0001AE6F000EAF6F010EB06F37
:101D58000E0EB16FECC0B2F0EDC0B3F0EEC0B4F04F
:101D6800EFC0B5F0F0C0B6F0F1C0B7F0F2C0B8F00F
:101D7800F3C0B9F0F4C0BAF0F5C0BBF0F6C0BCF0DF
:101D8800F7C0BDF0F8C0BEF0F9C0BFF0FAC0C0F0AF
:101D9800FBC0C1F0FCC0C2F0FDC0C3F0FEC0C4F07F
:101DA800FFC0C5F0AF0EC66F0E0EC76F7CEC2FF0EC
:101DB800B1EF12F0F4C01AF0F5C01BF0F6C01CF039
:101DC800F7C01DF0520E1E6EB80E1F6EDE0E206E8E
:101DD8003E0E216E45EC29F0D8B0F5EF0EF0F7EF86
:101DE8000EF062EF0FF0520E1A6EB80E1B6E9E0EBA
:101DF8001C6E3E0E1D6EF8C01EF0F9C01FF0FAC032
:101E080020F0FBC021F045EC29F0D8B00EEF0FF020
:101E180010EF0FF062EF0FF0140E1A6EAE0E1B6E7D
:101E2800470E1C6E3E0E1D6EFCC01EF0FDC01FF05E
:101E3800FEC020F0FFC021F045EC29F0D8B027EF14
:101E48000FF029EF0FF062EF0FF0D00E0001AE6F28
:101E5800000EAF6F010EB06F0E0EB16FECC0B2F096
:101E6800EDC0B3F0EEC0B4F0EFC0B5F0F0C0B6F01E
:101E7800F1C0B7F0F2C0B8F0F3C0B9F0F4C0BAF0EE
:101E8800F5C0BBF0F6C0BCF0F7C0BDF0F8C0BEF0BE
:101E9800F9C0BFF0FAC0C0F0FBC0C1F0FCC0C2F08E
:101EA800FDC0C3F0FEC0C4F0FFC0C5F0940EC66FFD
:101EB8000E0EC76F7CEC2FF0B1EF12F0F4C01AF0E1
:101EC800F5C01BF0F6C01CF0F7C01DF0F60E1E6E34
:101ED800280E1F6EDC0E206E3E0E216E45EC29F09A
:101EE800D8B079EF0FF07BEF0FF0E6EF0FF09A0E16
:101EF8001A6E990E1B6E990E1C6E3E0E1D6EF8C062
:101F08001EF0F9C01FF0FAC020F0FBC021F045EC2C
:101F180029F0D8B092EF0FF094EF0FF0E6EF0FF042
:101F28003D0E1A6E0A0E1B6E570E1C6E3E0E1D6E6F
:101F3800FCC01EF0FDC01FF0FEC020F0FFC021F065
:101F480045EC29F0D8B0ABEF0FF0ADEF0FF0E6EFAE
:101F58000FF0D00E0001AE6F000EAF6F010EB06F24
:101F68000E0EB16FECC0B2F0EDC0B3F0EEC0B4F03D
:101F7800EFC0B5F0F0C0B6F0F1C0B7F0F2C0B8F0FD
:101F8800F3C0B9F0F4C0BAF0F5C0BBF0F6C0BCF0CD
:101F9800F7C0BDF0F8C0BEF0F9C0BFF0FAC0C0F09D
:101FA800FBC0C1F0FCC0C2F0FDC0C3F0FEC0C4F06D
:101FB800FFC0C5F0730EC66F0E0EC76F7CEC2FF016
:101FC800B1EF12F0480E1A6EE10E1B6EFA0E1C6E7F
:101FD8003E0E1D6EF4C01EF0F5C01FF0F6C020F0D6
:101FE800F7C021F045EC29F0D8B0FDEF0FF0FFEF76
:101FF8000FF06AEF10F0850E1A6EEB0E1B6E910E45
:102008001C6E3E0E1D6EF8C01EF0F9C01FF0FAC01F
:1020180020F0FBC021F045EC29F0D8B016EF10F005
:1020280018EF10F06AEF10F0EC0E1A6E510E1B6EDE
:10203800380E1C6E3E0E1D6EFCC01EF0FDC01FF05B
:10204800FEC020F0FFC021F045EC29F0D8B02FEFFA
:1020580010F031EF10F06AEF10F0D00E0001AE6F03
:10206800000EAF6F010EB06F0E0EB16FECC0B2F084
:10207800EDC0B3F0EEC0B4F0EFC0B5F0F0C0B6F00C
:10208800F1C0B7F0F2C0B8F0F3C0B9F0F4C0BAF0DC
:10209800F5C0BBF0F6C0BCF0F7C0BDF0F8C0BEF0AC
:1020A800F9C0BFF0FAC0C0F0FBC0C1F0FCC0C2F07C
:1020B800FDC0C3F0FEC0C4F0FFC0C5F0870EC66FF8
:1020C8000E0EC76F7CEC2FF0B1EF12F0480E1A6EAF
:1020D800E10E1B6EFA0E1C6E3E0E1D6EF4C01EF055
:1020E800F5C01FF0F6C020F0F7C021F045EC29F04C
:1020F800D8B081EF10F083EF10F0EEEF10F0F8C0D9
:102108001AF0F9C01BF0FAC01CF0FBC01DF0CD0E90
:102118001E6ECC0E1F6E8C0E206E3E0E216E45EC90
:1021280029F0D8B09AEF10F09CEF10F0EEEF10F015
:10213800140E1A6EAE0E1B6E470E1C6E3E0E1D6EF2
:10214800FCC01EF0FDC01FF0FEC020F0FFC021F053
:1021580045EC29F0D8B0B3EF10F0B5EF10F0EEEF82
:1021680010F0D00E0001AE6F000EAF6F010EB06F11
:102178000E0EB16FECC0B2F0EDC0B3F0EEC0B4F02B
:10218800EFC0B5F0F0C0B6F0F1C0B7F0F2C0B8F0EB
:10219800F3C0B9F0F4C0BAF0F5C0BBF0F6C0BCF0BB
:1021A800F7C0BDF0F8C0BEF0F9C0BFF0FAC0C0F08B
:1021B800FBC0C1F0FCC0C2F0FDC0C3F0FEC0C4F05B
:1021C800FFC0C5F09A0EC66F0E0EC76F7CEC2FF0DD
:1021D800B1EF12F0710E1A6E3D0E1B6E0A0E1C6ED8
:1021E8003F0E1D6EF4C01EF0F5C01FF0F6C020F0C3
:1021F800F7C021F045EC29F0D8B005EF11F007EF52
:1022080011F072EF11F0F8C01AF0F9C01BF0FAC023
:102218001CF0FBC01DF08F0E1E6EC20E1F6E750ED9
:10222800206E3E0E216E45EC29F0D8B01EEF11F05D
:1022380020EF11F072EF11F0FCC01AF0FDC01BF096
:10224800FEC01CF0FFC01DF0EC0E1E6E510E1F6E7E
:10225800380E206E3E0E216E45EC29F0D8B037EFCF
:1022680011F039EF11F072EF11F0D00E0001AE6FDE
:10227800000EAF6F010EB06F0E0EB16FECC0B2F072
:10228800EDC0B3F0EEC0B4F0EFC0B5F0F0C0B6F0FA
:10229800F1C0B7F0F2C0B8F0F3C0B9F0F4C0BAF0CA
:1022A800F5C0BBF0F6C0BCF0F7C0BDF0F8C0BEF09A
:1022B800F9C0BFF0FAC0C0F0FBC0C1F0FCC0C2F06A
:1022C800FDC0C3F0FEC0C4F0FFC0C5F0800EC66FED
:1022D8000E0EC76F7CEC2FF0B1EF12F0F4C01AF0BD
:1022E800F5C01BF0F6C01CF0F7C01DF0AE0E1E6E58
:1022F800470E1F6EE10E206E3E0E216E45EC29F052
:10230800D8B089EF11F08BEF11F0F6EF11F0F60E5F
:102318001A6E280E1B6E9C0E1C6E3E0E1D6EF8C0AB
:102328001EF0F9C01FF0FAC020F0FBC021F045EC08
:1023380029F0D8B0A2EF11F0A4EF11F0F6EF11F0E8
:102348003D0E1A6E0A0E1B6E570E1C6E3E0E1D6E4B
:10235800FCC01EF0FDC01FF0FEC020F0FFC021F041
:1023680045EC29F0D8B0BBEF11F0BDEF11F0F6EF56
:1023780011F0D00E0001AE6F000EAF6F010EB06FFE
:102388000E0EB16FECC0B2F0EDC0B3F0EEC0B4F019
:10239800EFC0B5F0F0C0B6F0F1C0B7F0F2C0B8F0D9
:1023A800F3C0B9F0F4C0BAF0F5C0BBF0F6C0BCF0A9
:1023B800F7C0BDF0F8C0BEF0F9C0BFF0FAC0C0F079
:1023C800FBC0C1F0FCC0C2F0FDC0C3F0FEC0C4F049
:1023D800FFC0C5F06D0EC66F0E0EC76F7CEC2FF0F8
:1023E800B1EF12F0F4C01AF0F5C01BF0F6C01CF003
:1023F800F7C01DF01F0E1E6E850E1F6EEB0E206EB1
:102408003E0E216E45EC29F0D8B00DEF12F00FEF1B
:1024180012F07AEF12F03D0E1A6E0A0E1B6E970E2E
:102428001C6E3E0E1D6EF8C01EF0F9C01FF0FAC0FB
:1024380020F0FBC021F045EC29F0D8B026EF12F0CF
:1024480028EF12F07AEF12F03D0E1A6E0A0E1B6E8C
:10245800570E1C6E3E0E1D6EFCC01EF0FDC01FF018
:10246800FEC020F0FFC021F045EC29F0D8B03FEFC6
:1024780012F041EF12F07AEF12F0D00E0001AE6FB9
:10248800000EAF6F010EB06F0E0EB16FECC0B2F060
:10249800EDC0B3F0EEC0B4F0EFC0B5F0F0C0B6F0E8
:1024A800F1C0B7F0F2C0B8F0F3C0B9F0F4C0BAF0B8
:1024B800F5C0BBF0F6C0BCF0F7C0BDF0F8C0BEF088
:1024C800F9C0BFF0FAC0C0F0FBC0C1F0FCC0C2F058
:1024D800FDC0C3F0FEC0C4F0FFC0C5F08E0EC66FCD
:1024E8000E0EC76F7CEC2FF0B1EF12F0D00E00018A
:1024F800AE6F000EAF6F010EB06F0E0EB16FECC075
:10250800B2F0EDC0B3F0EEC0B4F0EFC0B5F0F0C07B
:10251800B6F0F1C0B7F0F2C0B8F0F3C0B9F0F4C04B
:10252800BAF0F5C0BBF0F6C0BCF0F7C0BDF0F8C01B
:10253800BEF0F9C0BFF0FAC0C0F0FBC0C1F0FCC0EB
:10254800C2F0FDC0C3F0FEC0C4F0FFC0C5F0780EF5
:10255800C66F0E0EC76F7CEC2FF0D00E026E000E09
:10256800036E23EC32F0290E5B6E960E5A6E7F0EC8
:10257800E82EFED75A2EFCD75B2EFAD700F0B2EF22
:102588000DF012000E01299328C00CF029C00DF09F
:102598004DEC2FF028C0D9FF29C0DAFFDECF2EF08E
:1025A800DDCF2FF02EC001F02FC002F0036A046ABD
:1025B800000E9FEC23F001C00FF002C010F003C022
:1025C80011F004C012F020EE06F02850D926295048
:1025D800DA22DECF30F0DDCF31F030C001F031C08B
:1025E80002F0036A046A000E9FEC23F001C013F0A6
:1025F80002C014F003C015F004C016F06EEC1EF013
:102608000FC032F010C033F011C034F012C035F0F2
:1026180020EE02F02850D9262950DA22DECF2EF0FB
:10262800DDCF2FF02EC001F02FC002F0036A046A3C
:10263800000E9FEC23F001C00FF002C010F003C0A1
:1026480011F004C012F020EE06F02850D9262950C7
:10265800DA22DECF30F0DDCF31F030C001F031C00A
:1026680002F0036A046A000E9FEC23F001C013F025
:1026780002C014F003C015F004C016F06EEC1EF092
:102688000FC036F010C037F011C038F012C039F062
:1026980020EE04F02850D9262950DA22DECF2EF079
:1026A800DDCF2FF02EC001F02FC002F0036A046ABC
:1026B800000E9FEC23F001C00FF002C010F003C021
:1026C80011F004C012F020EE06F02850D926295047
:1026D800DA22DECF30F0DDCF31F030C001F031C08A
:1026E80002F0036A046A000E9FEC23F001C013F0A5
:1026F80002C014F003C015F004C016F06EEC1EF012
:102708000FC03AF010C03BF011C03CF012C03DF0D1
:10271800710E1A6E3D0E1B6E0A0E1C6E3F0E1D6E5C
:1027280032C01EF033C01FF034C020F035C021F095
:1027380045EC29F0D8B0A3EF13F0A5EF13F0EAEFBA
:1027480013F036C01AF037C01BF038C01CF039C07F
:102758001DF0480E1E6EE10E1F6E7A0E206E3E0EA4
:10276800216E45EC29F0D8B0BCEF13F0BEEF13F0A2
:10277800EAEF13F03AC01AF03BC01BF03CC01CF063
:102788003DC01DF0EC0E1E6E510E1F6E380E206EF1
:102798003E0E216E45EC29F0D8B0D5EF13F0D7EFF7
:1027A80013F0EAEF13F02AC022F02BC023F02CC05C
:1027B80024F02DC025F0000E276E5A0E266EF6EC7A
:1027C8002FF0000E01012B6F00EF17F032C01AF046
:1027D80033C01BF034C01CF035C01DF0520E1E6E05
:1027E800B80E1F6EDE0E206E3E0E216E45EC29F0EF
:1027F800D8B001EF14F003EF14F045EF14F0520EC7
:102808001A6EB80E1B6E9E0E1C6E3E0E1D6E36C0E6
:102818001EF037C01FF038C020F039C021F045EC59
:1028280029F0D8B01AEF14F01CEF14F045EF14F0AB
:10283800140E1A6EAE0E1B6E470E1C6E3E0E1D6EEB
:102848003AC01EF03BC01FF03CC020F03DC021F054
:1028580045EC29F0D8B033EF14F035EF14F045EF1C
:1028680014F02AC022F02BC023F02CC024F02DC075
:1028780025F0000E276E5A0E266E1EEC30F0E5EF9E
:1028880013F032C01AF033C01BF034C01CF035C04E
:102898001DF0F60E1E6E280E1F6EDC0E206E3E0E0C
:1028A800216E45EC29F0D8B05CEF14F05EEF14F01F
:1028B800A0EF14F09A0E1A6E990E1B6E990E1C6EEC
:1028C8003E0E1D6E36C01EF037C01FF038C020F017
:1028D80039C021F045EC29F0D8B075EF14F077EF46
:1028E80014F0A0EF14F03D0E1A6E0A0E1B6E570E70
:1028F8001C6E3E0E1D6E3AC01EF03BC01FF03CC061
:1029080020F03DC021F045EC29F0D8B08EEF14F04E
:1029180090EF14F0A0EF14F02AC022F02BC023F09F
:102928002CC024F02DC025F0000E276EB40E266EA4
:10293800F6EC2FF0E5EF13F0480E1A6EE10E1B6E61
:10294800FA0E1C6E3E0E1D6E32C01EF033C01FF014
:1029580034C020F035C021F045EC29F0D8B0B7EFED
:1029680014F0B9EF14F00FEF15F0850E1A6EEB0E98
:102978001B6E910E1C6E3E0E1D6E36C01EF037C0CB
:102988001FF038C020F039C021F045EC29F0D8B04C
:10299800D0EF14F0D2EF14F00FEF15F0EC0E1A6E22
:1029A800510E1B6E380E1C6E3E0E1D6E3AC01EF088
:1029B8003BC01FF03CC020F03DC021F045EC29F0A1
:1029C800D8B0E9EF14F0EBEF14F00FEF15F02AC0D0
:1029D8001AF02BC01BF02CC01CF02DC01DF0E2EC2F
:1029E8002DF02AC01AF02BC01BF02CC01CF02DC0F3
:1029F8001DF07CEC2EF02AC022F02BC023F02CC056
:102A080024F02DC025F0000E276E5A0E266EF6EC27
:102A18002FF0E5EF13F0480E1A6EE10E1B6EFA0E5A
:102A28001C6E3E0E1D6E32C01EF033C01FF034C047
:102A380020F035C021F045EC29F0D8B026EF15F08C
:102A480028EF15F07EEF15F036C01AF037C01BF0EE
:102A580038C01CF039C01DF0CD0E1E6ECC0E1F6E96
:102A68008C0E206E3E0E216E45EC29F0D8B03FEF5B
:102A780015F041EF15F07EEF15F0140E1A6EAE0E3C
:102A88001B6E470E1C6E3E0E1D6E3AC01EF03BC0FC
:102A98001FF03CC020F03DC021F045EC29F0D8B033
:102AA80058EF15F05AEF15F07EEF15F02AC01AF01E
:102AB8002BC01BF02CC01CF02DC01DF0E2EC2DF03B
:102AC8002AC01AF02BC01BF02CC01CF02DC01DF022
:102AD8007CEC2EF02AC022F02BC023F02CC024F06E
:102AE8002DC025F0000E276E5A0E266E1EEC30F013
:102AF800E5EF13F0710E1A6E3D0E1B6E0A0E1C6E7A
:102B08003F0E1D6E32C01EF033C01FF034C020F0DF
:102B180035C021F045EC29F0D8B095EF15F097EFC6
:102B280015F0D9EF15F036C01AF037C01BF038C0D1
:102B38001CF039C01DF08F0E1E6EC20E1F6E750E72
:102B4800206E3E0E216E45EC29F0D8B0AEEF15F0A0
:102B5800B0EF15F0D9EF15F03AC01AF03BC01BF0F2
:102B68003CC01CF03DC01DF0EC0E1E6E510E1F6ED9
:102B7800380E206E3E0E216E45EC29F0D8B0C7EF16
:102B880015F0C9EF15F0D9EF15F02AC022F02BC0C7
:102B980023F02CC024F02DC025F0000E276E870EE0
:102BA800266EF6EC2FF0E5EF13F032C01AF033C0C2
:102BB8001BF034C01CF035C01DF0AE0E1E6E470E63
:102BC8001F6EE10E206E3E0E216E45EC29F0D8B046
:102BD800F0EF15F0F2EF15F034EF16F0F60E1A6E6E
:102BE800280E1B6E9C0E1C6E3E0E1D6E36C01EF00F
:102BF80037C01FF038C020F039C021F045EC29F06B
:102C0800D8B009EF16F00BEF16F034EF16F03D0EC2
:102C18001A6E0A0E1B6E570E1C6E3E0E1D6E3AC0C3
:102C28001EF03BC01FF03CC020F03DC021F045EC39
:102C380029F0D8B022EF16F024EF16F034EF16F092
:102C48002AC022F02BC023F02CC024F02DC025F080
:102C5800000E276E870E266E1EEC30F0E5EF13F09F
:102C680032C01AF033C01BF034C01CF035C01DF060
:102C78001F0E1E6E850E1F6EEB0E206E3E0E216E11
:102C880045EC29F0D8B04BEF16F04DEF16F094EF65
:102C980016F03D0E1A6E0A0E1B6E970E1C6E3E0E37
:102CA8001D6E36C01EF037C01FF038C020F039C086
:102CB80021F045EC29F0D8B064EF16F066EF16F075
:102CC80094EF16F03D0E1A6E0A0E1B6E570E1C6E10
:102CD8003E0E1D6E3AC01EF03BC01FF03CC020F0F7
:102CE8003DC021F045EC29F0D8B07DEF16F07FEF1C
:102CF80016F094EF16F02AC022F02BC023F02CC057
:102D080024F02DC025F0000E276EB40E266EF6ECCA
:102D18002FF0000E01012B6F010E2A6F00EF17F044
:102D2800520E2F6E2B0E2E6E000EE82EFED72E2E74
:102D3800FCD72F2EFAD700D028C00CF029C00DF0F0
:102D48004DEC2FF020EE06F02850D9262950DA2233
:102D580001012851DE5C2951DE58D8A0B6EF16F0E3
:102D6800B8EF16F0C9EF16F020EE06F02850D92675
:102D78002950DA22DE50D65DDE50D759D8B0C7EFD9
:102D880016F0C9EF16F0F4EF16F0030E2B61CFEF33
:102D980016F0D1EF16F0D7EF16F00E0133830101CC
:102DA8002B2B00EF17F080862AC022F02BC023F0CF
:102DB8002CC024F02DC025F0000E276EB40E266E10
:102DC800F6EC2FF001012A51D8B4EDEF16F0F0EF30
:102DD80016F0010EF1EF16F0000E2A6FE5EF13F072
:102DE8002AC01AF02BC01BF02CC01CF02DC01DF0FF
:102DF8002FEC2EF0E5EF13F0000E2C6F0E01298357
:102E080012004AC0D9FF4BC0DAFFDECFF6FFDDCF94
:102E1800F7FF000EF86E0800F550250AD8A417EF42
:102E280017F019EF17F0DBEF19F04AC0D9FF4BC0C4
:102E3800DAFFDE2A000EDD22000E01011F6F000EF0
:102E48001E6F1EC122F11FC123F1206921694AC0EA
:102E5800D9FF4BC0DAFFDECFF6FFDDCFF7FF000E5C
:102E6800F86E0800F5502E0AD8A43DEF17F03FEF92
:102E780017F0C1EF17F0000E216F000E206F4AC047
:102E8800D9FF4BC0DAFFDE2A000EDD224AC0D9FF87
:102E98004BC0DAFFDECFF6FFDDCFF7FF000EF86E8E
:102EA8000800F5502A0AD8A45CEF17F05EEF17F077
:102EB8007BEF17F04AC0D9FF4BC0DAFFDE2A000EBD
:102EC800DD224CC0D9FF4DC0DAFFDFCF4EF0020E35
:102ED800DE26DFCF4FF0000EDD224EC0D9FF4FC0F7
:102EE800DAFFDECF20F1DDCF21F1C1EF17F04AC0C4
:102EF800D9FF4BC0DAFFDECF08F0DDCF09F079EC5F
:102F080024F008C020F109C021F192EF17F04AC05F
:102F1800D9FF4BC0DAFFDE2A000EDD22D00E4E6E3E
:102F2800FF0E4F6E4AC0D9FF4BC0DAFFDECFF6FF67
:102F3800DDCFF7FF000EF86E0800F550506E516AAD
:102F48004E5050264F50512251500AE10A0E505C03
:102F5800D8A0B1EF17F0B4EF17F0010EB5EF17F0E6
:102F6800000E0001A26FA36BA251A311D8A4BFEF5A
:102F780017F0C1EF17F08BEF17F04AC0D9FF4BC01D
:102F8800DAFFDECFF6FFDDCFF7FF000EF86E0800A0
:102F9800F550076E086AEEEC2EF007500001AA6F94
:102FA800AA51D8B4DAEF17F0DCEF17F01AEF18F0DF
:102FB8004AC0D9FF4BC0DAFFDECF4EF0DDCF4FF06D
:102FC800010E4E26000E4F224EC0F6FF4FC0F7FFEF
:102FD800000EF86E0800F550076E086AEEEC2EF049
:102FE80007500001AB6FAB51D8B4FDEF17F0FFEFFE
:102FF80017F01AEF18F04AC0D9FF4BC0DAFFDECF3E
:103008004EF0DDCF4FF0020E4E26000E4F224EC07E
:10301800F6FF4FC0F7FF000EF86E0800F550076E78
:10302800086AEEEC2EF007500001AC6F4AC0D9FFD9
:103038004BC0DAFFDECFF6FFDDCFF7FF000EF86EEC
:103048000800F550640AD8B42CEF18F02EEF18F0E9
:1030580042EF18F04AC0D9FF4BC0DAFFDECFF6FFC7
:10306800DDCFF7FF000EF86E0800F550690AD8A406
:1030780040EF18F042EF18F082EF18F04AC0D9FF7D
:103088004BC0DAFFDE2A000EDD224CC0D9FF4DC04E
:10309800DAFFDFCF4EF0020EDE26DFCF4FF0000E54
:1030A800DD224EC0D9FF4FC0DAFFDECF98F0DDCF6A
:1030B80099F0000E99BFFF0E9A6F9B6F9C6F9D6FE2
:1030C8009E6F9F6F48C01CF049C01DF098C01EF04D
:1030D80099C01FF09AC020F09BC021F09CC022F03C
:1030E8009DC023F09EC024F09FC025F03BEC20F04B
:1030F8001CC048F01DC049F0F8EF19F0660EAA1977
:10310800D8A489EF18F08BEF18F0CDEF18F04AC06B
:10311800D9FF4BC0DAFFDECFF6FFDDCFF7FF000E99
:10312800F86E0800F5CFADF04AC0D9FF4BC0DAFF02
:10313800DE2A000EDD224CC0D9FF4DC0DAFFDFCFFA
:103148004EF0040EDE26DFCF4FF0000EDD224EC01B
:10315800D9FF4FC0DAFFDECFA6F0DECFA7F0DECF73
:10316800A8F0DECFA9F048C03CF049C03DF0A6C0A9
:103178003EF0A7C03FF0A8C040F0A9C041F0ADC0E4
:1031880042F05CEC07F03CC048F03DC049F0F8EF75
:1031980019F0AA0E016E000E026EB30E036E0E0E2B
:1031A800046E000E066E020E056E30EC2BF0015018
:1031B8000210D8A4E2EF18F0E4EF18F064EF19F069
:1031C8004AC0D9FF4BC0DAFFDECF4EF0DDCF4FF05B
:1031D800010E4E26000E4F224EC0F6FF4FC0F7FFDD
:1031E800000EF86E0800F5CFADF0BF0E4E6EFF0E64
:1031F8004F6E4AC0D9FF4BC0DAFFDECFF6FFDDCFF6
:10320800F7FF000EF86E0800F550506E516A4E50E8
:1032180050264F50512251500AE11A0E505CD8A046
:1032280018EF19F01BEF19F0010E1CEF19F0000E42
:103238000001A46FA56BA451A511D8B426EF19F00D
:1032480028EF19F042EF19F04CC0D9FF4DC0DAFF52
:10325800DFCF4EF0040EDE26DFCF4FF0000EDD226A
:103268004EC0D9FF4FC0DAFFDECFA6F0DECFA7F001
:10327800DECFA8F0DECFA9F05AEF19F04CC0D9FF85
:103288004DC0DAFFDFCF4EF0040EDE26DFCF4FF061
:10329800000EDD224EC0D9FF4FC0DAFFDECFA6F008
:1032A800DECFA7F0DECFA8F0DECFA9F0020E4AC02D
:1032B800D9FF4BC0DAFFDE26000EDD22B7EF18F08B
:1032C8004AC0D9FF4BC0DAFFDECFF6FFDDCFF7FFEC
:1032D800000EF86E0800F550730AD8A476EF19F0BE
:1032E80078EF19F0A3EF19F04AC0D9FF4BC0DAFF05
:1032F800DE2A000EDD224CC0D9FF4DC0DAFFDFCF39
:103308004EF0020EDE26DFCF4FF0000EDD224EC05B
:10331800D9FF4FC0DAFFDECFA0F0DDCFA1F048C063
:103328000AF049C00BF0A0C00CF0A1C00DF04BECA6
:1033380025F00AC048F00BC049F0F8EF19F04AC070
:10334800D9FF4BC0DAFFDECFF6FFDDCFF7FF000E67
:10335800F86E0800F550250AD8A4B5EF19F0B7EFB4
:1033680019F0CEEF19F04AC0D9FF4BC0DAFFDE2AB8
:10337800000EDD22000E026E250E016E48C003F01D
:1033880049C004F00BEC2CF0000E496E010E486E9B
:10339800F8EF19F04AC0D9FF4BC0DAFFDE2A000E59
:1033A800DD22000E496E000E486EF8EF19F04AC093
:1033B800D9FF4BC0DAFFDECFF6FFDDCFF7FF000EF7
:1033C800F86E0800F550016E026A48C003F049C063
:1033D80004F00BEC2CF04AC0D9FF4BC0DAFFDE2A10
:1033E800000EDD22C8EF19F012000450800B0D6E9C
:1033F800045004240F6E03AE04EF1AF006EF1AF01F
:1034080007EF1AF00F800F50D8B40DEF1AF00FEF36
:103418001AF024EF1AF00F28D8A415EF1AF017EFB6
:103428001AF01FEF1AF0000E016E000E026E000E69
:10343800036E000E046E038E000E046E2CEF1AF05D
:10344800000E016E000E026E000E036E000E046E7A
:103458000850800B0E6E0D500E18D8B436EF1AF0C7
:1034680038EF1AF039EF1AF00D8C085008240E6E58
:1034780007AE41EF1AF043EF1AF044EF1AF00E804E
:103488000E50D8B44AEF1AF04CEF1AF061EF1AF068
:103498000E28D8A452EF1AF054EF1AF05CEF1AF085
:1034A800000E056E000E066E000E076E000E086E0A
:1034B800078E000E086E69EF1AF0000E056E000EFA
:1034C800066E000E076E000E086E0F500E5CD8B028
:1034D80070EF1AF072EF1AF099EF1AF00DAC77EF5F
:1034E8001AF079EF1AF07BEF1AF0800E0D1A0FC060
:1034F80010F00EC00FF010C00EF001C010F005C0A3
:1035080001F010C005F002C010F006C002F010C0B3
:1035180006F003C010F007C003F010C007F004C0A5
:1035280010F008C004F010C008F0000E106E0F5024
:103538000EC009F00A6A095E000E0A5A0ABEAEEF0A
:103548001AF00A5009E11A0E095CD8A0AEEF1AF079
:10355800B0EF1AF0E7EF1AF0015002100310041050
:10356800D8A4B9EF1AF0BCEF1AF0010EBDEF1AF0AB
:10357800000E106E000E016E000E026E000E036E3D
:10358800000E046E0EC00FF0F0EF1AF010A0CFEF8F
:103598001AF0D1EF1AF0D7EF1AF0D89010300109CD
:1035A800106ED9EF1AF0D890103201A0DEEF1AF0A1
:1035B800E0EF1AF0E1EF1AF0108E0434043203320F
:1035C800023201320F2A0E500F5CD8A0EEEF1AF02B
:1035D800F0EF1AF0CAEF1AF00DBCF5EF1AF0F7EF9A
:1035E8001AF037EF1BF00F50D8A4FDEF1AF0FFEFD9
:1035F8001AF009EF1BF0000E016E000E026E000EAD
:10360800036E000E046E58EF1CF00550012606509C
:103618000222075003220850042204A016EF1BF0D0
:1036280018EF1BF0C4EF1BF010A01DEF1BF01FEFED
:103638001BF025EF1BF0D89010300109106E27EF12
:103648001BF0D890103201A02CEF1BF02EEF1BF0CE
:103658002FEF1BF0108E0434043203320232013291
:103668000F2AC4EF1BF00550015C065002580750A2
:1036780003580450800A096E0850800A0958D8B0C7
:1036880048EF1BF04AEF1BF075EF1BF00150055C8B
:10369800096E025006580A6E035007580B6E045004
:1036A80008580C6EFF0E0924016EFF0E0A20026EE8
:1036B800FF0E0B20036EFF0E0C20046E800E0D1AF9
:1036C800106C1050D8A46BEF1BF06DEF1BF07DEF62
:1036D8001BF0010E0126000E0222032204227DEFB8
:1036E8001BF00550015E0650025A0750035A085055
:1036F800045A0150021003100410D8A486EF1BF0DE
:1037080088EF1BF0BDEF1BF01050D8A48EEF1BF014
:1037180090EF1BF0BDEF1BF0000E016E000E026E65
:10372800000E036E000E046E58EF1CF0D8900136A0
:1037380002360336043610AEA4EF1BF0A6EF1BF0DA
:10374800A7EF1BF0018010A0ACEF1BF0AEEF1BF051
:10375800B2EF1BF0D8801036B4EF1BF0D8901036BB
:103768000F50D8B4BAEF1BF0BCEF1BF0BDEF1BF045
:103778000F0603AEC2EF1BF0C4EF1BF09AEF1BF06D
:10378800000E0E6E10AECBEF1BF0CDEF1BF0E5EF89
:103798001BF010C009F07F0E0916D8B4D6EF1BF045
:1037A800D8EF1BF0DCEF1BF0010E0E6EE5EF1BF0FF
:1037B80001A0E1EF1BF0E3EF1BF0E5EF1BF0D8EF02
:1037C8001BF00E50D8B4EBEF1BF0EDEF1BF018EF29
:1037D8001CF0010E0126000E02220322042204A07E
:1037E800F8EF1BF0FAEF1BF018EF1CF001C009F01E
:1037F80002C00AF003C00BF004C00CF00C340C3209
:103808000B320A32093209C001F00AC002F00BC0BB
:1038180003F00CC004F00F28D8B415EF1CF017EF14
:103828001CF018EF1CF00F2A0F28D8B41EEF1CF05C
:1038380020EF1CF028EF1CF00F50D8A426EF1CF046
:1038480028EF1CF03AEF1CF0000E016E000E026E1D
:10385800000E036E000E046E0F50D8A436EF1CF055
:1038680038EF1CF03AEF1CF0000E0D6E0FA03FEF82
:103878001CF041EF1CF044EF1CF0038E45EF1CF0E8
:10388800039ED8900F30046E0DAE4DEF1CF04FEF35
:103898001CF050EF1CF0048E01C001F002C002F0D1
:1038A80003C003F004C004F012000450800B0D6E36
:1038B80004500424136E03AE64EF1CF066EF1CF092
:1038C80067EF1CF013801350D8B46DEF1CF06FEF46
:1038D8001CF082EF1CF01328D8A475EF1CF077EFCA
:1038E8001CF07FEF1CF0000E016E000E026E000E41
:1038F800036E000E046E038E8AEF1CF0000E016E3C
:10390800000E026E000E036E000E046E0850800B4F
:103918000D1A08500824126E07AE95EF1CF097EFA9
:103928001CF098EF1CF012801250D8B49EEF1CF0D7
:10393800A0EF1CF0B3EF1CF01228D8A4A6EF1CF0DF
:10394800A8EF1CF0B0EF1CF0000E056E000E066E1E
:10395800000E076E000E086E078EBBEF1CF0000EFF
:10396800056E000E066E000E076E000E086E1250F1
:10397800D8B4C1EF1CF0C3EF1CF0CBEF1CF0135010
:10398800D8A4C9EF1CF0CBEF1CF0D5EF1CF0000E4B
:10399800016E000E026E000E036E000E046E6DEFD7
:1039A8001EF007500102F3CF18F0F4CF19F01850A9
:1039B8000E6E0F6A106A116A1950146E156A166A2B
:1039C800176A06500202F3CF18F0F4CF19F0185016
:1039D8000E26000E0F221022112219501426000E56
:1039E80015221622172205500302F3CF18F0F4CF40
:1039F80019F018500E26000E0F221022112219500D
:103A08001426000E15221622172210C011F00FC01E
:103A180010F00EC00FF00E6A05500202F3CF18F036
:103A2800F4CF19F018500E2619500F22000E10224C
:103A3800000E112206500102F3CF18F0F4CF19F04E
:103A480018500E2619500F22000E1022000E1122B7
:103A580010C011F00FC010F00EC00FF00E6A055024
:103A68000102F3CF18F0F4CF19F018500E261950B0
:103A78000F22000E1022000E112207500202F3CF6F
:103A880018F0F4CF19F01850142619501522000E0A
:103A98001622000E172206500302F3CF18F0F4CFB7
:103AA80019F01850142619501522000E1622000E6F
:103AB800172207500302F3CF18F0F4CF19F018506B
:103AC800096E19500A6E0B6A0C6A0BC00CF00AC01A
:103AD8000BF009C00AF0096A095014260A50152289
:103AE8000B5016220C5017220EC009F00FC00AF016
:103AF80010C00BF011C00CF0190E88EF1DF0D89013
:103B08000C320B320A320932E82E83EF1DF00950CD
:103B180014260A5015220B5016220C50172210C0DA
:103B280011F00FC010F00EC00FF00E6A125013C043
:103B380009F00A6A0926000E0A22820E0924186E64
:103B4800FF0E0A20196EBEEF1DF0D89014361536F8
:103B58001636173611AEB3EF1DF0B5EF1DF0B6EF00
:103B68001DF01480D8900E360F3610361136180610
:103B7800D8A0190616AEC3EF1DF0C5EF1DF0A9EFCA
:103B88001DF0000E126E11AECCEF1DF0CEEF1DF041
:103B9800F2EF1DF0FF0E0E14096EFF0E0F140A6EE1
:103BA800FF0E10140B6E7F0E11140C6E09500A10C4
:103BB8000B100C10D8B4E3EF1DF0E5EF1DF0E9EFA2
:103BC8001DF0010E126EF2EF1DF014A0EEEF1DF0C5
:103BD800F0EF1DF0F2EF1DF0E5EF1DF01250D8B434
:103BE800F8EF1DF0FAEF1DF01EEF1EF0010E14267F
:103BF800000E15221622172217A005EF1EF007EF58
:103C08001EF01EEF1EF014C009F015C00AF016C011
:103C18000BF017C00CF00C340C320B320A3209329C
:103C280009C014F00AC015F00BC016F00CC017F04C
:103C3800184A192A19BE29EF1EF0195008E1182848
:103C4800D8A029EF1EF02BEF1EF035EF1EF0000E66
:103C5800146E000E156E800E166E7F0E176E63EFD3
:103C68001EF019BE42EF1EF0195006E11804D8B034
:103C780040EF1EF042EF1EF04EEF1EF0000E146EE5
:103C8800000E156E000E166E000E176E000E0D6EED
:103C980063EF1EF018C013F0FF0E1416FF0E151672
:103CA8007F0E1616000E171613A05DEF1EF05FEFBD
:103CB8001EF060EF1EF0168ED8901330176E0D5060
:103CC800171214C001F015C002F016C003F017C097
:103CD80004F012001250800B1F6E12501224266E30
:103CE80011AE79EF1EF07BEF1EF07CEF1EF0268000
:103CF8002650D8B482EF1EF084EF1EF099EF1EF024
:103D08002628D8A48AEF1EF08CEF1EF094EF1EF040
:103D1800000E0F6E000E106E000E116E000E126E69
:103D2800118E000E126EA1EF1EF0000E0F6E000E27
:103D3800106E000E116E000E126E1650800B1F1AB8
:103D480016501624276E15AEACEF1EF0AEEF1EF01F
:103D5800AFEF1EF027802750D8B4B5EF1EF0B7EFAD
:103D68001EF0CCEF1EF02728D8A4BDEF1EF0BFEF41
:103D78001EF0C7EF1EF0000E136E000E146E000E3C
:103D8800156E000E166E158E000E166ED4EF1EF010
:103D9800000E136E000E146E000E156E000E166ED9
:103DA8001350141015101610D8A4DDEF1EF0DFEF15
:103DB8001EF0F7EF1EF0000E0F6E000E106E000ED4
:103DC800116E000E126E800E11127F0E12121F500D
:103DD80012120FC00FF010C010F011C011F012C075
:103DE80012F03AEF20F02650D8A4FDEF1EF0FFEFB6
:103DF8001EF009EF1FF0000E0F6E000E106E000E81
:103E0800116E000E126E3AEF20F0275026C017F000
:103E1800186A175E000E185A7F0E1724206E000EBF
:103E28001820216E0FC01BF010C01CF011C01DF02F
:103E380012C01EF0000E0F6E000E106E000E116EF6
:103E4800000E126E000E226E000E236E000E246EFF
:103E5800000E256E000E276E6AEF1FF02750D8B4AB
:103E680038EF1FF03AEF1FF051EF1FF0D8901B36D4
:103E78001C361D361E36D8900F36103611361236BF
:103E880025AE49EF1FF04BEF1FF04CEF1FF00F80EE
:103E9800D890223623362436253613501B5C14500E
:103EA8001C5815501D5816501E58D8A05EEF1FF00C
:103EB80060EF1FF069EF1FF0258C13501B5E145044
:103EC8001C5A15501D5A16501E5A272A190E2764B7
:103ED80070EF1FF072EF1FF032EF1FF01B501C1035
:103EE8001D101E10D8B47BEF1FF07DEF1FF095EF6B
:103EF8001FF0228095EF1FF0D8900F36103611363C
:103F0800123625AE8AEF1FF08CEF1FF08DEF1FF0F1
:103F18000F80D89022362336243625362006D8A09E
:103F2800210611AE9AEF1FF09CEF1FF080EF1FF0F3
:103F3800000E276E25AEA3EF1FF0A5EF1FF0C9EF07
:103F48001FF0FF0E2214176EFF0E2314186EFF0EBB
:103F58002414196E7F0E25141A6E17501810191094
:103F68001A10D8B4BAEF1FF0BCEF1FF0C0EF1FF063
:103F7800010E276EC9EF1FF00FA0C5EF1FF0C7EFA6
:103F88001FF0C9EF1FF0BCEF1FF02750D8B4CFEFD8
:103F98001FF0D1EF1FF0F5EF1FF0010E0F26000EF6
:103FA80010221122122212A0DCEF1FF0DEEF1FF008
:103FB800F5EF1FF00FC017F010C018F011C019F07E
:103FC80012C01AF01A341A3219321832173217C0BE
:103FD8000FF018C010F019C011F01AC012F0204AE2
:103FE800212A21BE00EF20F0215008E12028D8A086
:103FF80000EF20F002EF20F00DEF20F0000E216E10
:104008002068000E0F6E000E106E000E116E000E6E
:10401800126E21BE1AEF20F0215006E12004D8B01C
:1040280018EF20F01AEF20F028EF20F0000E216E94
:10403800000E206E000E0F6E000E106E000E116E38
:10404800000E126E000E1F6E20C026F026A02FEF65
:1040580020F031EF20F034EF20F0118E35EF20F012
:10406800119ED8902630126EEBEF1EF012001EC083
:1040780036F01FC037F020C038F021C039F022C018
:104088003AF023C03BF024C03CF025C03DF03DBED3
:1040980050EF20F053EF20F0010E54EF20F0000E07
:1040A800346E356A34503510D8B45DEF20F05FEFC8
:1040B80020F06FEF20F03D1E3C1E3B1E3A1E391EBD
:1040C800381E371E366C000E3722382239223A2223
:1040D8003B223C223D22010121BF75EF20F077EF02
:1040E80020F078EF20F0229321BF85EF20F02151B6
:1040F80006E12005D8B083EF20F085EF20F08BEFA4
:1041080020F0000E316E010E306E8FEF20F020C1CE
:1041180030F021C131F01EC132F01FC133F03450EC
:104128003510D8A49AEF20F09CEF20F0A3EF20F0F0
:1041380022A5A1EF20F0A3EF20F0A6EF20F0320691
:10414800D8A03306000E3F6E4F0E3E6E000E806FF5
:104158002AEF21F03E06D8A03F06310E3E24D96E44
:10416800010E3F20DA6E36C001F037C002F038C0C9
:1041780003F039C004F03AC005F03BC006F03CC07B
:1041880007F03DC008F00A0E096E000E0A6E000E18
:104198000B6E000E0C6E000E0D6E000E0E6E000EF5
:1041A8000F6E000E106EDEEC26F001C026F002C085
:1041B80027F003C028F004C029F005C02AF006C083
:1041C8002BF007C02CF008C02DF026C013F028C033
:1041D80014F074EC31F01350300FDF6E3006D8A0B5
:1041E80031063206D8A0330636C001F037C002F0D7
:1041F80038C003F039C004F03AC005F03BC006F0FF
:104208003CC007F03DC008F00A0E096E000E0A6EA9
:10421800000E0B6E000E0C6E000E0D6E000E0E6E74
:10422800000E0F6E000E106E1AEC26F001C036F06C
:1042380002C037F003C038F004C039F005C03AF0C6
:1042480006C03BF007C03CF008C03DF03FBE35EF6C
:1042580021F03F5008E13E04D8A035EF21F037EFB8
:1042680021F068EF21F036503710381039103A1025
:104278003B103C103D10D8A444EF21F046EF21F04C
:10428800AEEF20F031BE53EF21F0315006E130049B
:10429800D8B051EF21F053EF21F0AEEF20F033BE4C
:1042A8005EEF21F0335008E13204D8A05EEF21F030
:1042B80060EF21F068EF21F0010122B366EF21F0F1
:1042C80068EF21F0AEEF20F034503510D8A46FEF2E
:1042D80021F071EF21F079EF21F0010122A577EFAC
:1042E80021F079EF21F097EF21F03E06D8A03F06A4
:1042F80034503510D8A483EF21F085EF21F08BEFEF
:1043080021F0000E2F6E2B0E2E6E8FEF21F0000E77
:104318002F6E2D0E2E6E310E3E24D96E010E3F20CB
:10432800DA6E2EC0DFFF1CC011F01DC012F0310E76
:104338003E24136E010E3F20146E32C015F033C0B8
:1043480016F070EC2CF011C01CF012C01DF0120019
:1043580014C138F015C139F016C13AF017C13BF055
:1043680028C038F029C039F02AC03AF02BC03BF0F9
:10437800810E2C6EFF0E2D6E38C02EF039C02FF036
:104388003AC030F03BC031F0180ED0EF21F0D89091
:10439800313230322F322E32E82ECBEF21F02E5030
:1043A8002C24366E000E2D20376E37BEE5EF21F037
:1043B800375009E1170E365CD8A0E5EF21F0E7EF9A
:1043C80021F0F1EF21F028C028F029C029F02AC0F7
:1043D8002AF02BC02BF0B4EF22F037BEF6EF21F015
:1043E800F8EF21F068EF22F036C02CF0FF0E2D6EAA
:1043F800FF0E2E6E7F0E2F6E000E306E2C6607EFAE
:1044080022F00FEF22F0303430322F322E322D329C
:104418002C2E02EF22F02DC032F02EC033F02FC028
:1044280034F030C035F0325038142C6E3350391413
:104438002D6E34503A142E6E35503B142F6E2C507E
:104448002D102E102F10D8A42CEF22F02EEF22F0D2
:1044580030EF22F0E7EF21F038C02CF039C02DF012
:104468003AC02EF03BC02FF0200E40EF22F0D8903B
:104478002F322E322D322C32E82E3BEF22F02C50E8
:104488002D102E102F10D8B44CEF22F04EEF22F042
:1044980056EF22F0325038263350392234503A221F
:1044A80035503B22321C2C6E331C2D6E341C2E6E64
:1044B800351C2F6E2C5038162D5039162E503A16A2
:1044C8002F503B16ACEF22F038C02CF039C02DF03D
:1044D8003AC02EF03BC02FF0200E78EF22F0D89093
:1044E8002F322E322D322C32E82E73EF22F02C5040
:1044F8002D102E102F10D8A484EF22F086EF22F072
:1045080090EF22F0000E386E000E396E000E3A6EF3
:10451800000E3B6EACEF22F0D89038342C6E393454
:104528002D6E3A342E6E3B342F6E2C502D102E10DB
:104538002F10D8B4A2EF22F0A4EF22F0ACEF22F0B3
:10454800000E386E000E396E800E3A6EBF0E3B6E4E
:1045580038C028F039C029F03AC02AF03BC02BF007
:10456800120020EE01F00F50D9261050DA22DF5049
:10457800D8B4C1EF22F0C3EF22F0F4EF22F00FC05D
:10458800D9FF10C0DAFFDF50116E1150016E026AB8
:1045980020EE07F00F50D9261050DA22DECF03F0B4
:1045A800DDCF04F064EC32F001C007F002C008F07F
:1045B800000E0A6E640E096ED3EC2CF020EE07F0A4
:1045C8000F50D9261050DA22DECF12F0DDCF13F0CB
:1045D8000750125C186E08501358196E17EF23F025
:1045E8000FC0D9FF10C0DAFFDF50116E1150016EF5
:1045F800026A20EE07F00F50D9261050DA22DECFDB
:1046080003F0DDCF04F064EC32F001C007F002C023
:1046180008F0000E0A6E640E096ED3EC2CF007C089
:1046280018F008C019F020EE02F00F50D9261050EB
:10463800DA22DECF11F0DDCF12F011C0D9FF12C09F
:10464800DAFF18C0DFFF20EE01F00F50D926105016
:10465800DA22DF50D8B433EF23F035EF23F06AEFD6
:1046680023F020EE04F00F50D9261050DA22DECFC6
:1046780011F0DDCF12F011C0D9FF12C0DAFF10EE31
:1046880004F00F50E1261050E222E6CF13F0E5CFF8
:1046980014F013C0E1FF14C0E2FFE750156E10EEEE
:1046A80006F00F50E1261050E222E750166E010E78
:1046B800176E162A62EF23F0D8901736162E60EF81
:1046C80023F017501510DF6E9EEF23F020EE04F054
:1046D8000F50D9261050DA22DECF11F0DDCF12F0BC
:1046E80011C0D9FF12C0DAFF10EE04F00F50E12616
:1046F8001050E222E6CF13F0E5CF14F013C0E1FF2B
:1047080014C0E2FFE750156E10EE06F00F50E126D8
:104718001050E222E750166E010E176E162A97EF18
:1047280023F0D8901736162E95EF23F01750FF0A6E
:104738001514DF6E1200096E0950D8B4A6EF23F0E5
:10474800A8EF23F0CAEF23F004BEAFEF23F0ADEFDC
:1047580023F0CAEF23F001C005F002C006F003C041
:1047680007F004C008F0051E061E071E081E052ACD
:10477800000E06220722082205C00BF006C00CF026
:1047880007C00DF008C00EF0D2EF23F001C00BF007
:1047980002C00CF003C00DF004C00EF0015002106E
:1047A80003100410D8A4DBEF23F0DDEF23F0E7EFCC
:1047B80023F0000E016E000E026E000E036E000E56
:1047C800046E78EF24F0960E0A6EF1EF23F00A2AB1
:1047D800D8900E320D320C320B32000E0B14056ECF
:1047E800000E0C14066E000E0D14076EFE0E0E144D
:1047F800086E0550061007100810D8A406EF24F01C
:1048080008EF24F0EBEF23F016EF24F00A2A010E4C
:104818000B26000E0C220D220E22D8900E320D32DD
:104828000C320B32000E0B14056E000E0C14066EC3
:10483800000E0D14076EFF0E0E14086E05500610BC
:1048480007100810D8A42BEF24F02DEF24F00AEF5E
:1048580024F035EF24F00A06D8900B360C360D36C6
:104868000E360DBE3AEF24F03CEF24F044EF24F06E
:10487800020E0A6042EF24F044EF24F02FEF24F0F8
:104888000AB049EF24F04BEF24F04CEF24F00D9ED2
:10489800D8900A320AC005F0066A076A086A05C095
:1048A80008F0076A066A056A05500B1206500C12D2
:1048B80007500D1208500E120950D8B466EF24F0B4
:1048C80068EF24F070EF24F004BE6FEF24F06DEF72
:1048D80024F070EF24F00E8E0BC001F00CC002F033
:1048E8000DC003F00EC004F01200000E166E000E8C
:1048F800156E000E0F6E000E0E6E85EF24F0084A3E
:10490800092A010E146E08C0F6FF09C0F7FF000E51
:10491800F86E0800F550200AD8B495EF24F097EF08
:1049280024F0B6EF24F0F70E0A6EFF0E0B6E08C0E7
:10493800F6FF09C0F7FF000EF86E0800F5500C6E80
:104948000D6A0A500C260B500D220D5009E1050E78
:104958000C5CD8A0B2EF24F0B4EF24F0B6EF24F04A
:10496800000E146E14C010F0116A10501110D8A463
:10497800C0EF24F0C2EF24F083EF24F0CCEF24F052
:10498800000E0F6E010E0E6E084A092A05EF25F07B
:1049980008C0F6FF09C0F7FF000EF86E0800F550D2
:1049A8000A6E0B6A0B50000AD8B4DDEF24F005EF4D
:1049B80025F00A502B0AD8B4C8EF24F0060AD8B458
:1049C800C4EF24F005EF25F015C001F016C002F081
:1049D800000E046E0A0E036E64EC32F008C0F6FF97
:1049E80009C0F7FF000EF86E0800F550015E000ED2
:1049F800025A300E0124156E000E0220166EC8EF02
:104A080024F0D00E0A6EFF0E0B6E08C0F6FF09C028
:104A1800F7FF000EF86E0800F5500C6E0D6A0A508C
:104A28000C260B500D220D500AE10A0E0C5CD8A082
:104A380020EF25F023EF25F0010E24EF25F0000EDE
:104A4800126E136A12501310D8A42DEF25F02FEF11
:104A580025F0E8EF24F00E500F10D8A436EF25F01B
:104A680038EF25F046EF25F015C00AF016C00BF018
:104A78000A1E0B1E0A4A0B2A0AC008F00BC009F0CE
:104A88004AEF25F015C008F016C009F0120021EE13
:104A9800CFF010EE0FF0060EDBCFE3FFE806FCE2E6
:104AA8000CC01AF00DC01BF01A501B10D8A45FEFF1
:104AB80025F061EF25F065EF25F00F0E1A6E000E58
:104AC8001B6E1AC001F01BC002F0CEEC2FF001C023
:104AD8001EF002C01FF020C11CF021C11DF01DBE38
:104AE80078EF25F07AEF25F08FEF25F01E501C5C4B
:104AF8001D50800A0E6E1F50800A0E58D8A087EFEE
:104B080025F089EF25F08BEF25F08FEF25F01CC0FD
:104B18001EF01DC01FF01EC01CF01FC01DF01EC1DE
:104B280018F01FC119F0010122B19DEF25F09FEF88
:104B380025F0BCEF25F0ADEF25F0000E026E200E3B
:104B4800016E0AC003F00BC004F00BEC2CF01E4AF7
:104B58001F2A18501E5C1F50800A0E6E1950800ABA
:104B68000E58D8A0BAEF25F0BCEF25F0A1EF25F03C
:104B7800000E176E000E166EE1EF25F01AC0F6FF54
:104B88001BC0F7FF000EF86E0D0EF76403D0080087
:104B9800F55005D0F6CFE9FFF7CFEAFFEF500E6EDC
:104BA8000E50016E026A0AC003F00BC004F00BEC51
:104BB8002CF01A4A1B2A164A172A1C50165C175042
:104BC800800A0E6E1D50800A0E58D8A0EEEF25F010
:104BD800F0EF25F0C2EF25F0010122A1F6EF25F054
:104BE800F8EF25F015EF26F006EF26F0000E026E1E
:104BF800200E016E0AC003F00BC004F00BEC2CF081
:104C08001E4A1F2A18501E5C1F50800A0E6E19502B
:104C1800800A0E58D8A013EF26F015EF26F0FAEF09
:104C280025F01EC00AF01FC00BF01200000E126E15
:104C380010BE23EF26F021EF26F035EF26F0101EE8
:104C48000F1E0E1E0D1E0C1E0B1E0A1E096C000EDA
:104C58000A220B220C220D220E220F221022010EF4
:104C6800126E08BE3CEF26F03AEF26F04EEF26F023
:104C7800081E071E061E051E041E031E021E016CCA
:104C8800000E0222032204220522062207220822FD
:104C9800010E121A20EE13F0070EDE6AE806FDE296
:104CA80009500A100B100C100D100E100F101010D8
:104CB800D8B461EF26F063EF26F0B5EF26F0010EC9
:104CC800116E71EF26F0D89009360A360B360C367D
:104CD8000D360E360F361036112A10AE76EF26F046
:104CE80078EF26F067EF26F0D8901336143615368D
:104CF80016361736183619361A360950015C0A5016
:104D080002580B5003580C5004580D5005580E50BB
:104D180006580F50075810500858D8A096EF26F09C
:104D280098EF26F0A9EF26F00950015E0A50025AC2
:104D38000B50035A0C50045A0D50055A0E50065A7F
:104D48000F50075A1050085A1380D89010320F325B
:104D58000E320D320C320B320A320932112E78EF34
:104D680026F01250D8B4BBEF26F0BDEF26F0CDEFF9
:104D780026F01A1E191E181E171E161E151E141EA2
:104D8800136C000E1422152216221722182219223B
:104D98001A2213C001F014C002F015C003F016C0A7
:104DA80004F017C005F018C006F019C007F01AC0C3
:104DB80008F01200000E126E08BEE7EF26F0E5EFCD
:104DC80026F0F9EF26F0081E071E061E051E041E13
:104DD800031E021E016C000E022203220422052279
:104DE800062207220822010E126E10BE00EF27F0DD
:104DF800FEEF26F010EF27F0101E0F1E0E1E0D1EE0
:104E08000C1E0B1E0A1E096C000E0A220B220C2215
:104E18000D220E220F22102209500A100B100C101E
:104E28000D100E100F101010D8B41DEF27F01FEF43
:104E380027F067EF27F0010E116E2DEF27F0D890BD
:104E480009360A360B360C360D360E360F36103646
:104E5800112A10AE32EF27F034EF27F023EF27F0B6
:104E68000950015C0A5002580B5003580C50045862
:104E78000D5005580E5006580F5007581050085836
:104E8800D8A049EF27F04BEF27F05BEF27F0095048
:104E9800015E0A50025A0B50035A0C50045A0D5026
:104EA800055A0E50065A0F50075A1050085AD890F3
:104EB80010320F320E320D320C320B320A320932F6
:104EC800112E34EF27F01250D8B46DEF27F06FEFA2
:104ED80027F07FEF27F0081E071E061E051E041E7A
:104EE800031E021E016C000E022203220422052268
:104EF80006220722082201C001F002C002F003C006
:104F080003F004C004F005C005F006C006F007C0B1
:104F180007F008C008F012008EB495EF27F097EF5D
:104F280027F090EF27F07C86010E77EC32F07C8E2C
:104F3800520E0001D16F2B0ED06F000EE82EFED757
:104F4800D02FFCD7D12FFAD700F0D30E0C6E000E5D
:104F58000D6E4DEC2FF0520E0001D16F2B0ED06F5D
:104F6800000EE82EFED7D02FFCD7D12FFAD700F0AD
:104F78007C9E000E0001D26F8EB4C5EF27F0C7EFFC
:104F880027F0C0EF27F07C8EDB0E0C6E000E0D6E46
:104F98004DEC2FF00001D951E15DDA51E259D8B05A
:104FA800D8EF27F0DAEF27F0EEEF27F0E151010113
:104FB800285D0001E25101012959D8B0E6EF27F038
:104FC800E8EF27F0EEEF27F0E1C028F1E2C029F181
:104FD8000DEF28F00001E151D95DE251DA59D8B05E
:104FE800F8EF27F0FAEF27F00DEF28F00101D6517E
:104FF8000001E15D0101D7510001E259D8B007EF86
:1050080028F009EF28F00DEF28F0E1C0D6F1E2C052
:10501800D7F1D30E5A6E000E5B6EDB0E5C6E000E7F
:105028005D6EA1EC2BF0090E0001D16F1E0ED06F42
:10503800E40EE82EFED7D02FFCD7D12FFAD700F0F8
:105048007C9E0001D22B070ED2652DEF28F02FEFA2
:1050580028F0C0EF27F07C96000E77EC32F01200B3
:10506800000E0101D96F640ED86F000E296F000E73
:10507800286F7F0ED76FD669000E2C6F000E2B6F2E
:10508800000E2A6F000EBD6F010EBE6FA30EBF6F1C
:105098000F0EC06F7D0EC16F0F0EC26F040EC36F6F
:1050A800000EC56F630EC46F000EC66F010EC76F8A
:1050B800A00EC86F0F0EC96F7F0ECA6F0F0ECB6F91
:1050C800060ECC6F000ECE6F630ECD6FB8EC32F0CB
:1050D800B3EC31F0630EE6EC30F0A8EC32F098EC6B
:1050E80032F090EC27F093EC0DF098EC32F08EA4AF
:1050F80080EF28F082EF28F089EF28F08EB687EF4E
:1051080028F089EF28F07BEF28F07C86010E77ECF9
:1051180032F0520E0101B46F2B0EB36F000EE82E61
:10512800FED7B32FFCD7B42FFAD700F0BD0E1A6EF6
:10513800010E1B6EC60E1C6E010E1D6E2FEC2EF09E
:1051480001012C05D8A4ABEF28F0ADEF28F0A4EFAF
:1051580028F0B50E286E010E296EBD0E2A6E010EBE
:105168002B6EC60E2C6E010E2D6EC6EC12F0000EC4
:1051780001012C6FA4EF28F000EF00F00334043491
:105188000A6E0A50D8A4CBEF28F0CDEF28F0D7EF5D
:1051980028F0000E016E000E026E000E036E000E67
:1051A800046E44EF29F001C005F002C006F003C008
:1051B80007F004C008F0200EE7EF28F0D890083276
:1051C800073206320532E82EE2EF28F00550096E64
:1051D800038EFF0E0116FF0E0216FF0E0316000EB9
:1051E8000416960E0A5E0ABEFEEF28F0FCEF28F0C1
:1051F80014EF29F00A50800A970FD8B006EF29F06B
:1052080008EF29F00AEF29F0CDEF28F0D890043202
:105218000332023201320A3E0AEF29F02CEF29F05C
:105228001F0E0A641AEF29F01CEF29F024EF29F069
:10523800CDEF28F0D89001360236033604360A0638
:105248000A50D8A42AEF29F02CEF29F01EEF29F0F4
:105258000950D8B432EF29F034EF29F03CEF29F0A7
:10526800041E031E021E016C000E022203220422E9
:1052780001C001F002C002F003C003F004C004F052
:105288001200000E1A14226E000E1B14236E800EDC
:105298001C14246E7F0E1D14256E2250231024101A
:1052A8002510D8A45AEF29F05CEF29F064EF29F013
:1052B800000E1A6E000E1B6E000E1C6E000E1D6E88
:1052C800000E1E14226E000E1F14236E800E201472
:1052D800246E7F0E2114256E2250231024102510D1
:1052E800D8A479EF29F07BEF29F083EF29F0000E9D
:1052F8001E6E000E1F6E000E206E000E216E1DAE7B
:1053080088EF29F08AEF29F093EF29F01A6C1B1E19
:10531800D8B01B2A1C1ED8B01C2A800E1D5621AEE0
:1053280098EF29F09AEF29F0A3EF29F01E6C1F1EC1
:10533800D8B01F2A201ED8B0202A800E2156000E71
:105348001A1A000E1B1A000E1C1A800E1D1A000EC7
:105358001E1A000E1F1A000E201A800E211A1E5047
:105368001A5C1F501B5820501C5821501D58D8B08B
:10537800C0EF29F0C2EF29F0C5EF29F0D890C6EFA9
:1053880029F0D880120018C10BF019C10CF01AC10D
:105398000DF01BC10EF001C00BF002C00CF003C0F1
:1053A8000DF004C00EF00BC005F00CC006F00DC0E7
:1053B80007F00EC008F0180EE7EF29F0D890083271
:1053C800073206320532E82EE2EF29F00550096E61
:1053D8000A6A09500A10D8A4F4EF29F0F6EF29F068
:1053E80016EF2AF0D8900B34056E0C34066E0D3487
:1053F800076E0E34086E0550061007100810D8A462
:1054080008EF2AF00AEF2AF010EF2AF0000E026ED9
:10541800020E016E45EF2AF0000E026E030E016EB9
:1054280045EF2AF009280A10D8A41DEF2AF01FEF2B
:105438002AF041EF2AF00BC005F00CC006F00DC0B1
:1054480007F00EC008F0090ED89005360636073664
:105458000836E82E28EF2AF0055006100710081025
:10546800D8B439EF2AF03CEF2AF0010E3DEF2AF0CC
:10547800000E016E026A45EF2AF0000E026E040E5D
:10548800016E120020EE01F01A50D9261B50DA22C4
:10549800010EDF6E20EE01F01C50D9261D50DA22D5
:1054A800000EDF6EA1EF2AF080A05DEF2AF061EF19
:1054B8002AF0206A202A62EF2AF0206A80502018F9
:1054C800FE0B2018806E1AC0D9FF1BC0DAFF320EFF
:1054D800DF6071EF2AF073EF2AF078EF2AF01AC034
:1054E800D9FF1BC0DAFFDF2A1CC0D9FF1DC0DAFFB5
:1054F800320EDF6082EF2AF084EF2AF089EF2AF07B
:105508001CC0D9FF1DC0DAFFDF2A1AC00FF01BC06C
:1055180010F0B5EC22F01CC00FF01DC010F0B5EC77
:1055280022F0090E216E1E0E206EE40EE82EFED724
:10553800202EFCD7212EFAD700D01AC0D9FF1BC0C5
:10554800DAFF310EDF64ABEF2AF0ADEF2AF058EF47
:105558002AF01CC0D9FF1DC0DAFF310EDF64B7EF97
:105568002AF0B9EF2AF058EF2AF08090120020EEC6
:1055780001F01A50D9261B50DA22000EDF6E20EEF9
:1055880001F01C50D9261D50DA22010EDF6E16EFED
:105598002BF07EA0D2EF2AF0D6EF2AF0206A202A3C
:1055A800D7EF2AF0206A7E502018FE0B20187E6E56
:1055B8001AC0D9FF1BC0DAFF320EDF60E6EF2AF00F
:1055C800E8EF2AF0EDEF2AF01AC0D9FF1BC0DAFF86
:1055D800DF2A1CC0D9FF1DC0DAFF320EDF60F7EFEB
:1055E8002AF0F9EF2AF0FEEF2AF01CC0D9FF1DC0FF
:1055F800DAFFDF2A1AC00FF01BC010F0B5EC22F05A
:105608001CC00FF01DC010F0B5EC22F0090E216E81
:105618001E0E206EE40EE82EFED7202EFCD7212E7B
:10562800FAD700D01AC0D9FF1BC0DAFF310EDF64E9
:1056380020EF2BF022EF2BF0CDEF2AF01CC0D9FF82
:105648001DC0DAFF310EDF642CEF2BF02EEF2BF0AC
:10565800CDEF2AF07E90120001C008F002C009F0D8
:1056680003C00AF004C00BF00506D8A006060528FA
:1056780006E10628D8A443EF2BF045EF2BF052EFB4
:105688002BF0000E026E000E016EA0EF2BF0084A00
:10569800092A0A4A0B2A0506D8A0060608C0D9FF17
:1056A80009C0DAFFDF50D8B45CEF2BF05EEF2BF0C7
:1056B8008DEF2BF00AC0F6FF0BC0F7FF000EF86E57
:1056C8000800F5500009D8B46CEF2BF06EEF2BF002
:1056D8008DEF2BF005500610D8B475EF2BF077EF4F
:1056E8002BF08DEF2BF008C0D9FF09C0DAFFDF508F
:1056F800076E0AC0F6FF0BC0F7FF000EF86E080031
:10570800F5500718D8B48BEF2BF08DEF2BF04BEF3B
:105718002BF008C0D9FF09C0DAFFDF50076E0AC0B6
:10572800F6FF0BC0F7FF000EF86E0800F550075C97
:10573800016E026AD8A00206120020EE06F05A5046
:10574800D9265B50DA22DECFA9F1DDCFAAF15CC001
:10575800D9FF5DC0DAFFDECFABF1DDCFACF120EED3
:1057680002F05C50D9265D50DA22DECFADF1DDCFF4
:10577800AEF120EE04F05C50D9265D50DA22DECF7F
:10578800AFF1DDCFB0F120EE06F05C50D9265D50C8
:10579800DA22DECFB1F1DDCFB2F1810E0001AE6FBA
:1057A800010EAF6F410EB06F0E0EB16FABC1B2F00C
:1057B800ACC1B3F0ADC1B4F0AEC1B5F0AFC1B6F095
:1057C800B0C1B7F0B1C1B8F0B2C1B9F028C1BAF0F0
:1057D80029C1BBF0A9C1BCF0AAC1BDF0D6C1BEF0B9
:1057E800D7C1BFF07CEC2FF0810E026E010E036E64
:1057F80023EC32F0290E5F6E960E5E6E7F0EE82E59
:10580800FED75E2EFCD75F2EFAD700F012000350A9
:105818000410D8B412EF2CF014EF2CF01DEF2CF07C
:1058280003500410D8A41BEF2CF01DEF2CF022EF2E
:105838002CF0015013EC33F06FEF2CF020EE04F055
:105848000350D9260450DA22DE50DE10D8B42FEFE8
:105858002CF031EF2CF04CEF2CF020EE04F003503C
:10586800D9260450DA2210EE02F00350E126045043
:10587800E222DE50E65CE650800A096EDE50800ABD
:105888000958D8B04AEF2CF04CEF2CF06FEF2CF001
:1058980020EE02F00350D9260450DA22DECF05F0BC
:1058A800DDCF06F003C0D9FF04C0DAFFDECF07F072
:1058B800DDCF08F005500724D96E06500820DA6EAF
:1058C80001C0DFFF20EE02F00350D9260450DA228F
:1058D800DE2A000EDD221200010122A176EF2CF053
:1058E80078EF2CF082EF2CF013C00AF014C00BF004
:1058F80011C00CF012C00DF031EC31F016BE87EF7C
:105908002CF089EF2CF08FEF2CF015C01AF016C090
:105918001BF093EF2CF0000E1B6E000E1A6E000E9B
:10592800196E000E186EA5EF2CF0000E026E200EF8
:10593800016E11C003F012C004F00BEC2CF0184AF1
:10594800192A1A50185C1950800A176E1B50800AC1
:105958001758D8A0B2EF2CF0B4EF2CF099EF2CF038
:10596800010122B1BAEF2CF0BCEF2CF0C6EF2CF0FD
:1059780013C00AF014C00BF011C00CF012C00DF0E7
:1059880031EC31F013C001F014C002F0CEEC2FF06E
:105998001A500124116E1B500220126E1200000EC4
:1059A8000C6E0ABEDCEF2CF0DAEF2CF0E2EF2CF0F4
:1059B800096C0A1ED8B00A2A010E0C6E08BEE9EF5F
:1059C8002CF0E7EF2CF0EFEF2CF0076C081ED8B0A6
:1059D800082A010E0C1A000E0E6E000E0D6E0950EC
:1059E8000A10D8B4FAEF2CF0FCEF2CF024EF2DF0CD
:1059F800010E0B6E04EF2DF0D89009360A360B2AEB
:105A08000AAE09EF2DF00BEF2DF000EF2DF0D89036
:105A18000D360E360950075C0A500858D8A017EF03
:105A28002DF019EF2DF01EEF2DF00950075E0A50EA
:105A3800085A0D80D8900A3209320B2E0BEF2DF040
:105A48000C50D8B42AEF2DF02CEF2DF030EF2DF0BC
:105A58000D6C0E1ED8B00E2A0DC007F00EC008F04F
:105A68001200000E066E02BE3EEF2DF03CEF2DF048
:105A780044EF2DF0016C021ED8B0022A010E066E0A
:105A880004BE4BEF2DF049EF2DF04FEF2DF0036CD6
:105A9800041ED8B0042A03500410D8B456EF2DF0D1
:105AA80058EF2DF07CEF2DF0010E056E60EF2DF014
:105AB800D89003360436052A04AE65EF2DF067EF5B
:105AC8002DF05CEF2DF00350015C04500258D8A073
:105AD80070EF2DF072EF2DF076EF2DF00350015E90
:105AE8000450025AD89004320332052E67EF2DF085
:105AF8000650D8B482EF2DF084EF2DF088EF2DF00A
:105B0800016C021ED8B0022A01C001F002C002F0E6
:105B18001200000E0114096E000E02140A6E800EA7
:105B280003140B6E7F0E04140C6E09500A100B1030
:105B38000C10D8A4A2EF2DF0A4EF2DF0ACEF2DF0AF
:105B4800000E016E000E026E000E036E000E046E53
:105B5800000E0514096E000E06140A6E800E071456
:105B68000B6E7F0E08140C6E09500A100B100C10E7
:105B7800D8A4C1EF2DF0C3EF2DF0CBEF2DF0000E20
:105B8800056E000E066E000E076E000E086E0550BC
:105B980001180FE1065002180CE10750031809E13B
:105BA80008500418D8B4DBEF2DF0DDEF2DF0E0EF4E
:105BB8002DF0D890E1EF2DF0D880120020EE01F002
:105BC8001A50D9261B50DA22000EDF6E20EE01F0A3
:105BD8001C50D9261D50DA22000EDF6E16EF2EF06B
:105BE8001AC0D9FF1BC0DAFFDF2A1CC0D9FF1DC0AD
:105BF800DAFFDF2A1AC00FF01BC010F0B5EC22F054
:105C08001CC00FF01DC010F0B5EC22F0090E1F6E7D
:105C18001E0E1E6EE40EE82EFED71E2EFCD71F2E7B
:105C2800FAD700D01AC0D9FF1BC0DAFF640EDF60B4
:105C380020EF2EF022EF2EF02EEF2EF01CC0D9FF11
:105C48001DC0DAFF630EDF642CEF2EF02EEF2EF06E
:105C5800F4EF2DF0120020EE01F01A50D9261B5057
:105C6800DA22010EDF6E20EE01F01C50D9261D50FD
:105C7800DA22010EDF6E63EF2EF01AC0D9FF1BC0C7
:105C8800DAFFDF2A1CC0D9FF1DC0DAFFDF2A1AC0DD
:105C98000FF01BC010F0B5EC22F01CC00FF01DC0B7
:105CA80010F0B5EC22F0090E1F6E1E0E1E6EE40EEB
:105CB800E82EFED71E2EFCD71F2EFAD700D01AC00A
:105CC800D9FF1BC0DAFF640EDF606DEF2EF06FEFB7
:105CD8002EF07BEF2EF01CC0D9FF1DC0DAFF630E3B
:105CE800DF6479EF2EF07BEF2EF041EF2EF01200FB
:105CF8007C88A1EF2EF01AC0D9FF1BC0DAFFDF069F
:105D08001CC0D9FF1DC0DAFFDF061AC00FF01BC088
:105D180010F0B5EC22F01CC00FF01DC010F0B5EC6F
:105D280022F0090E1F6E1E0E1E6EE40EE82EFED720
:105D38001E2EFCD71F2EFAD700D01AC0D9FF1BC0C1
:105D4800DAFFDF50D8B4ABEF2EF0ADEF2EF0B9EF9D
:105D58002EF01CC0D9FF1DC0DAFFDF50D8A4B7EF62
:105D68002EF0B9EF2EF07FEF2EF07C98120054C081
:105D780058F055C059F0000E01011D6F000E1C6F40
:105D8800D9EF2EF052C048F053C049F0580E4A6E71
:105D9800000E4B6E56C04CF057C04DF005EC17F096
:105DA800485001011C2749501D2358C0F6FF59C00F
:105DB800F7FF000EF86E0800F5500009D8A4E7EFC9
:105DC8002EF0E9EF2EF0C6EF2EF01CC152F01DC1E7
:105DD80053F01200BF0E096EFF0E0A6E07C00BF0DB
:105DE80008C00CF009500B260A500C220C500AE18E
:105DF8001A0E0B5CD8A003EF2FF006EF2FF0010E60
:105E080007EF2FF0000E0D6E0E6A0D500E10D8B46D
:105E180010EF2FF012EF2FF019EF2FF0200E0710D0
:105E2800076E0850086E1DEF2FF007C007F008C076
:105E380008F0120003C007F004C008F001C009F020
:105E480002C00AF00750056E0850066E074A082A75
:105E580005C0F6FF06C0F7FF000EF86E09C0D9FFAF
:105E68000AC0DAFF094A0A2A0D0EF76403D00800AF
:105E7800F55005D0F6CFE9FFF7CFEAFFEF50DF6E18
:105E8800DF50D8A44AEF2FF04CEF2FF026EF2FF079
:105E9800120046EC30F00CC0D9FF0DC0DAFF05C087
:105EA800DEFF06C0DDFF6EEC30F020EE02F00C5095
:105EB800D9260D50DA2205C0DEFF06C0DDFFBEEC94
:105EC80030F020EE04F00C50D9260D50DA2205C02F
:105ED800DEFF06C0DDFF96EC30F020EE06F00C5039
:105EE800D9260D50DA2205C0DEFF06C0DDFF1200FC
:105EF800B20E0001C86F000EC96FAEC0CAF0AFC0C5
:105F0800CBF0000ECD6F000ECC6F000ECF6F000EE1
:105F1800CE6FCA0E526E000E536EB0C054F0B1C0B0
:105F280055F0C80E566E000E576EBBEC2EF00001F1
:105F3800CC51AE25D96ECD51AF21DA6E000EDF6E91
:105F48001200010E076E200E01180210D8B4AFEF30
:105F58002FF0B1EF2FF0CAEF2FF0F70E036EFF0E00
:105F6800046E01C005F002C006F003500526045077
:105F78000622065009E1050E055CD8A0C6EF2FF0F1
:105F8800C8EF2FF0CAEF2FF0000E076E07C001F020
:105F9800026A120001C003F002C004F0D6EF2FF02D
:105FA800014A022A01C0F6FF02C0F7FF000EF86E90
:105FB8000D0EF76403D00800F55005D0F6CFE9FFC1
:105FC800F7CFEAFFEF500009D8A4EDEF2FF0EFEF7D
:105FD8002FF0D4EF2FF00350015C016E04500258EB
:105FE800026E120001012A51D8A4FDEF2FF0FFEF35
:105FF8002FF00FEF30F022C01AF023C01BF024C09E
:106008001CF025C01DF026C01EF027C01FF046EC6E
:106018002AF01DEF30F022C01AF023C01BF024C074
:106028001CF025C01DF026C01EF027C01FF0BBECD9
:106038002AF0120001012A51D8A425EF30F027EFE9
:1060480030F037EF30F022C01AF023C01BF024C024
:106058001CF025C01DF026C01EF027C01FF0BBECA9
:106068002AF045EF30F022C01AF023C01BF024C0FC
:106078001CF025C01DF026C01EF027C01FF046ECFE
:106088002AF0120000EC33F0520EEFEC32F0B60EAC
:10609800EFEC32F005EC33F0530EEFEC32F0010E7A
:1060A80053EC31F0076E07500A6E0B6A000E53EC82
:1060B80031F0076E0750096E086A0A5008100A6E18
:1060C8000B5009100B6EFBEC32F00AC005F00BC048
:1060D80006F0120000EC33F0520EEFEC32F0B80E7E
:1060E800EFEC32F005EC33F0530EEFEC32F0010E2A
:1060F80053EC31F0076E07500A6E0B6A000E53EC32
:1061080031F0076E0750096E086A0A5008100A6EC7
:106118000B5009100B6EFBEC32F00AC005F00BC0F7
:1061280006F0120000EC33F0520EEFEC32F0B40E31
:10613800EFEC32F005EC33F0530EEFEC32F0010ED9
:1061480053EC31F0076E07500A6E0B6A000E53ECE1
:1061580031F0076E0750096E086A0A5008100A6E77
:106168000B5009100B6EFBEC32F00AC005F00BC0A7
:1061780006F0120000EC33F0520EEFEC32F0BA0EDB
:10618800EFEC32F005EC33F0530EEFEC32F0010E89
:1061980053EC31F0076E07500A6E0B6A000E53EC91
:1061A80031F0076E0750096E086A0A5008100A6E27
:1061B8000B5009100B6EFBEC32F00AC005F00BC057
:1061C80006F01200016EBD508F0B4009BD6EE00E47
:1061D800BE16BF50F00B0109BF6E01C0BCFFBD8EDB
:1061E80085948598839E879C7D947D987B9E7F9CD3
:1061F800000EA36E000EA06EA48EA18E0A0E0E01D4
:10620800746F0B0E696FF5EC32F00AEC33F0DDECCD
:1062180032F01200000E1E1A000E1F1A000E201A6D
:10622800800E211A1AC001F01BC002F01CC003F036
:106238001DC004F01EC005F01FC006F020C007F006
:1062480021C008F0F9EC19F001C01AF002C01BF0E7
:1062580003C01CF004C01DF01200000E106E000EEA
:106268000F6E42EF31F00EC001F0026A0CC003F06D
:106278000DC004F00BEC2CF00F4A102A0F500A2422
:10628800D96E10500B20DA6EDF500E6E0E50D8A467
:1062980050EF31F052EF31F037EF31F01200036E6A
:1062A80050EC32F00E01DA8750EC32F0D5CE04F023
:1062B80050EC32F00350D8B464EF31F068EF31F0AD
:1062C800026A022A69EF31F0026A023A02460E01B6
:1062D800DA510218DF0B0218DA6FDA89045012005B
:1062E80014BE81EF31F0145006E11304D8B07FEFEB
:1062F80031F081EF31F08FEF31F013C015F014C099
:1063080016F0151E161E154A162A15C013F016C0CB
:1063180014F093EF31F013C013F014C014F012000E
:106328001E0EF66E660EF76E000EF86E01EECFF0DA
:1063380010EE07F00900F5CFEEFFE550E150FAE165
:1063480002EE00F03C0EEE6AE806FDE101EE00F018
:10635800810EEE6AE806FDE1000134EF28F03BEC1F
:1063680032F0010E036E000E88EC32F03F0E056E1F
:10637800550EE82EFED7052EFCD700F0030E036E4F
:10638800000E88EC32F0D50E036E010E88EC32F068
:10639800E8EC32F01200BF0E036EFF0E046E01C06F
:1063A80005F002C006F003500526045006220650E8
:1063B8000AE11A0E055CD8A0E4EF31F0E7EF31F0FE
:1063C800010EE8EF31F0000E016E026A1200015072
:1063D800021003100410D8B4F4EF31F0F6EF31F0E6
:1063E800FEEF31F0000E011A000E021A000E031A19
:1063F800800E041A01C001F002C002F003C003F0CD
:1064080004C004F01200D00E036EFF0E046E01C02B
:1064180005F002C006F00350052604500622065077
:106428000AE10A0E055CD8A01CEF32F01FEF32F02B
:10643800010E20EF32F0000E016E026A12002EEFFC
:1064480032F002C0D9FF03C0DAFFDF50C5EC32F0EA
:10645800024A032A02C0D9FF03C0DAFFDF50D8A4DA
:1064680038EF32F03AEF32F025EF32F012000E0139
:10647800D951F00B0809D96FD98B9F0ED66F848A32
:10648800848CA79BA79D1D0E1D6F1E0E1C6F1C0ED6
:106498006F6F1B0E706F12000E01D8B556EF32F0F9
:1064A80058EF32F050EF32F0DACE01F01F0E01163D
:1064B800D8A461EF32F063EF32F050EF32F01200FF
:1064C80001500302F3CF05F0F4CF06F001500402A7
:1064D800F350062602500302F350062605C001F0C9
:1064E80006C002F01200016E01B002D07F9201D006
:1064F8007F8201B002D0799801D0798801B002D0AA
:106508007E9E01D07E8E1200046E00EC33F0520E97
:10651800EFEC32F004508009EFEC32F00350EFEC6E
:1065280032F0FBEC32F01200D1EC32F0026E960E33
:106538000260A1EF32F0A3EF32F0A6EF32F07C8ECA
:10654800A7EF32F07C9E1200120E0E01626F110E40
:10655800156F8382E997E895330EE56F000EE66FB5
:10656800E789E88BE78F1200868C0E01B48D0F0146
:106578005899FC0E58172E0E5F6F60946088608ED5
:106588001200016E0E0137A5CCEF32F0CEEF32F0DB
:10659800C6EF32F001C0E4FE1200608060B0D7EFB1
:1065A80032F0D9EF32F0D2EF32F064CF01F001507F
:1065B80012008892849684988690889080927C961F
:1065C8007C987E908090120087928198869E000E1B
:1065D80077EC32F01200026E50EC32F002C0D5FEB9
:1065E8001200868486860E01B495B497120050EC8A
:1065F80032F00E01DA85120050EC32F00E01DA8129
:10660800120050EC32F00E01DA831200849E889654
:0D6618007C9E80961200286E756C6C290027
:02662600120060
:020000040020DA
:10000000FF0FFF0FFF0FFF0FFF0FFF0FFF0FFF0F80
:020000040030CA
:0C000000AAFFFFFF9FFFFFFFFFFFFFFFB5
:00000001FF
