:04000000F2EF1AF011
:100E000000524742433A2025692025692025692060
:100E100025692020202020524742435F72656C3AAA
:100E200020252E336620252E336620252E3366207E
:100E300020202020436F6C6F75723A2025730A0DB5
:100E400000524742433A2025692025692025692020
:100E5000256920202020205468726573686F6C64B7
:100E60003A2025692025692025690A0D006C6967EB
:100E7000687420626C756500756E6B6E6F776E00BE
:100E80006F72616E67650079656C6C6F770077686B
:100E900069746500677265656E0070696E6B0072DB
:100EA000656400000E0129934BC00CF04CC00DF09E
:100EB00047EC19F04BC0D9FF4CC0DAFFDECF51F040
:100EC000DDCF52F051C001F052C002F0036A046A53
:100ED000000EB6EC14F001C00FF002C010F003C019
:100EE00011F004C012F020EE06F04B50D9264C5001
:100EF000DA22DECF53F0DDCF54F053C001F054C0FE
:100F000002F0036A046A000EB6EC14F001C013F09C
:100F100002C014F003C015F004C016F05DEC10F030
:100F20000FC0B5F010C0B6F011C0B7F012C0B8F0E5
:100F300020EE02F04B50D9264C50DA22DECF51F091
:100F4000DDCF52F051C001F052C002F0036A046AD2
:100F5000000EB6EC14F001C00FF002C010F003C098
:100F600011F004C012F020EE06F04B50D9264C5080
:100F7000DA22DECF53F0DDCF54F053C001F054C07D
:100F800002F0036A046A000EB6EC14F001C013F01C
:100F900002C014F003C015F004C016F05DEC10F0B0
:100FA0000FC0B9F010C0BAF011C0BBF012C0BCF055
:100FB00020EE04F04B50D9264C50DA22DECF51F00F
:100FC000DDCF52F051C001F052C002F0036A046A52
:100FD000000EB6EC14F001C00FF002C010F003C018
:100FE00011F004C012F020EE06F04B50D9264C5000
:100FF000DA22DECF53F0DDCF54F053C001F054C0FD
:1010000002F0036A046A000EB6EC14F001C013F09B
:1010100002C014F003C015F004C016F05DEC10F02F
:101020000FC0BDF010C0BEF011C0BFF012C0C0F0C4
:10103000710E0F6E3D0E106E0A0E116E3F0E126E87
:10104000B5C013F0B6C014F0B7C015F0B8C016F0B4
:101050009CEC17F0D8B02FEF08F031EF08F07FEFDD
:1010600008F0B9C00FF0BAC010F0BBC011F0BCC09E
:1010700012F0480E136EE10E146E7A0E156E3E0ECF
:10108000166E9CEC17F0D8B048EF08F04AEF08F065
:101090007FEF08F0BDC00FF0BEC010F0BFC011F070
:1010A000C0C012F0EC0E136E510E146E380E156E99
:1010B0003E0E166E9CEC17F0D8B061EF08F063EFAF
:1010C00008F07FEF08F04DC045F04EC046F04FC02D
:1010D00047F050C048F0000E4A6E5A0E496E3EEC82
:1010E0001AF04DC01AF04EC01BF04FC01CF050C09B
:1010F0001DF00EEC19F0000E5A6EE2EF0BF0B5C0C9
:101100000FF0B6C010F0B7C011F0B8C012F0520E18
:10111000136EB80E146EDE0E156E3E0E166E9CEC3F
:1011200017F0D8B096EF08F098EF08F0E4EF08F069
:10113000520E0F6EB80E106E9E0E116E3E0E126E97
:10114000B9C013F0BAC014F0BBC015F0BCC016F0A3
:101150009CEC17F0D8B0AFEF08F0B1EF08F0E4EF77
:1011600008F0140E0F6EAE0E106E470E116E3E0E8E
:10117000126EBDC013F0BEC014F0BFC015F0C0C0E9
:1011800016F09CEC17F0D8B0C8EF08F0CAEF08F0E2
:10119000E4EF08F04DC045F04EC046F04FC047F0B8
:1011A00050C048F0000E4A6E5A0E496E65EC1AF0B7
:1011B0004DC01AF04EC01BF04FC01CF050C01DF0C7
:1011C0000EEC19F07BEF08F0B5C00FF0B6C010F0D0
:1011D000B7C011F0B8C012F0F60E136E280E146EE0
:1011E000DC0E156E3E0E166E9CEC17F0D8B0FBEFC1
:1011F00008F0FDEF08F049EF09F09A0E0F6E990E16
:10120000106E990E116E3E0E126EB9C013F0BAC078
:1012100014F0BBC015F0BCC016F09CEC17F0D8B0B1
:1012200014EF09F016EF09F049EF09F03D0E0F6ECB
:101230000A0E106E570E116E3E0E126EBDC013F0E8
:10124000BEC014F0BFC015F0C0C016F09CEC17F083
:10125000D8B02DEF09F02FEF09F049EF09F04DC09C
:1012600045F04EC046F04FC047F050C048F0000E69
:101270004A6EB40E496E3EEC1AF04DC01AF04EC0E4
:101280001BF04FC01CF050C01DF00EEC19F07BEFAE
:1012900008F0480E0F6EE10E106EFA0E116E3E0E43
:1012A000126EB5C013F0B6C014F0B7C015F0B8C0D8
:1012B00016F09CEC17F0D8B060EF09F062EF09F07F
:1012C000C2EF09F0850E0F6EEB0E106E910E116ECF
:1012D0003E0E126EB9C013F0BAC014F0BBC015F0C8
:1012E000BCC016F09CEC17F0D8B079EF09F07BEF9A
:1012F00009F0C2EF09F0EC0E0F6E510E106E380EB1
:10130000116E3E0E126EBDC013F0BEC014F0BFC011
:1013100015F0C0C016F09CEC17F0D8B092EF09F0B1
:1013200094EF09F0C2EF09F04DC01AF04EC01BF067
:101330004FC01CF050C01DF080EC18F04DC01AF0EA
:101340004EC01BF04FC01CF050C01DF00EEC19F049
:101350004DC045F04EC046F04FC047F050C048F079
:10136000000E4A6E5A0E496E3EEC1AF04DC01AF04D
:101370004EC01BF04FC01CF050C01DF00EEC19F019
:101380007BEF08F0480E0F6EE10E106EFA0E116E34
:101390003E0E126EB5C013F0B6C014F0B7C015F013
:1013A000B8C016F09CEC17F0D8B0D9EF09F0DBEF1D
:1013B00009F03BEF0AF0B9C00FF0BAC010F0BBC0A3
:1013C00011F0BCC012F0CD0E136ECC0E146E8C0E4C
:1013D000156E3E0E166E9CEC17F0D8B0F2EF09F0C9
:1013E000F4EF09F03BEF0AF0140E0F6EAE0E106E24
:1013F000470E116E3E0E126EBDC013F0BEC014F04B
:10140000BFC015F0C0C016F09CEC17F0D8B00BEFC1
:101410000AF00DEF0AF03BEF0AF04DC01AF04EC093
:101420001BF04FC01CF050C01DF080EC18F04DC0F8
:101430001AF04EC01BF04FC01CF050C01DF00EEC57
:1014400019F04DC045F04EC046F04FC047F050C0B7
:1014500048F0000E4A6E5A0E496E65EC1AF04DC007
:101460001AF04EC01BF04FC01CF050C01DF00EEC27
:1014700019F07BEF08F0710E0F6E3D0E106E0A0E24
:10148000116E3F0E126EB5C013F0B6C014F0B7C0A7
:1014900015F0B8C016F09CEC17F0D8B052EF0AF077
:1014A00054EF0AF0A0EF0AF0B9C00FF0BAC010F084
:1014B000BBC011F0BCC012F08F0E136EC20E146EC2
:1014C000750E156E3E0E166E9CEC17F0D8B06BEFD5
:1014D0000AF06DEF0AF0A0EF0AF0BDC00FF0BEC039
:1014E00010F0BFC011F0C0C012F0EC0E136E510E20
:1014F000146E380E156E3E0E166E9CEC17F0D8B0BA
:1015000084EF0AF086EF0AF0A0EF0AF04DC045F034
:101510004EC046F04FC047F050C048F0000E4A6E33
:10152000870E496E3EEC1AF04DC01AF04EC01BF00B
:101530004FC01CF050C01DF00EEC19F07BEF08F00E
:10154000B5C00FF0B6C010F0B7C011F0B8C012F0BF
:10155000AE0E136E470E146EE10E156E3E0E166E35
:101560009CEC17F0D8B0B7EF0AF0B9EF0AF005EF2E
:101570000BF0F60E0F6E280E106E9C0E116E3E0EC6
:10158000126EB9C013F0BAC014F0BBC015F0BCC0E5
:1015900016F09CEC17F0D8B0D0EF0AF0D2EF0AF0BA
:1015A00005EF0BF03D0E0F6E0A0E106E570E116E0A
:1015B0003E0E126EBDC013F0BEC014F0BFC015F0D9
:1015C000C0C016F09CEC17F0D8B0E9EF0AF0EBEFD2
:1015D0000AF005EF0BF04DC045F04EC046F04FC08D
:1015E00047F050C048F0000E4A6E870E496E65EC19
:1015F0001AF04DC01AF04EC01BF04FC01CF050C086
:101600001DF00EEC19F07BEF08F0B5C00FF0B6C07E
:1016100010F0B7C011F0B8C012F01F0E136E850E97
:10162000146EEB0E156E3E0E166E9CEC17F0D8B0D5
:101630001CEF0BF01EEF0BF06EEF0BF03D0E0F6E7C
:101640000A0E106E970E116E3E0E126EB9C013F098
:10165000BAC014F0BBC015F0BCC016F09CEC17F07B
:10166000D8B035EF0BF037EF0BF06EEF0BF03D0E0F
:101670000F6E0A0E106E570E116E3E0E126EBDC02A
:1016800013F0BEC014F0BFC015F0C0C016F09CEC43
:1016900017F0D8B04EEF0BF050EF0BF06EEF0BF0F1
:1016A0004DC045F04EC046F04FC047F050C048F026
:1016B000000E4A6EB40E496E3EEC1AF04DC01AF0A0
:1016C0004EC01BF04FC01CF050C01DF00EEC19F0C6
:1016D000000E5A6E010E596EE2EF0BF0520E526E72
:1016E0002B0E516E000EE82EFED7512EFCD7522E37
:1016F000FAD700D04BC00CF04CC00DF047EC19F0FD
:1017000020EE06F04B50D9264C50DA225750DE5CC2
:101710005850DE58D8A08FEF0BF091EF0BF0A3EFED
:101720000BF020EE06F04B50D9264C50DA22DE505A
:101730000001DB5DDE50DC59D8B0A1EF0BF0A3EF68
:101740000BF0D6EF0BF0030E5A60A9EF0BF0ABEFE6
:101750000BF0B0EF0BF00E0133835A2AE2EF0BF0DF
:1017600080864DC045F04EC046F04FC047F050C097
:1017700048F0000E4A6EB40E496E3EEC1AF04DC0B1
:101780001AF04EC01BF04FC01CF050C01DF00EEC04
:1017900019F05950D8B4CFEF0BF0D2EF0BF0010E87
:1017A000D3EF0BF0000E596E7BEF08F04DC01AF02E
:1017B0004EC01BF04FC01CF050C01DF0C7EC18F01D
:1017C0007BEF08F0000E0001B46F0E0129831200B8
:1017D0002B50800B346E2B502B24366E2AAEF3EF39
:1017E0000BF0F5EF0BF0F6EF0BF036803650D8B477
:1017F000FCEF0BF0FEEF0BF013EF0CF03628D8A443
:1018000004EF0CF006EF0CF00EEF0CF0000E286E5B
:10181000000E296E000E2A6E000E2B6E2A8E000E10
:101820002B6E1BEF0CF0000E286E000E296E000EC2
:101830002A6E000E2B6E2F50800B356E34503518EB
:10184000D8B425EF0CF027EF0CF028EF0CF0348C17
:101850002F502F24356E2EAE30EF0CF032EF0CF0FF
:1018600033EF0CF035803550D8B439EF0CF03BEF46
:101870000CF050EF0CF03528D8A441EF0CF043EFFA
:101880000CF04BEF0CF0000E2C6E000E2D6E000EC7
:101890002E6E000E2F6E2E8E000E2F6E58EF0CF057
:1018A000000E2C6E000E2D6E000E2E6E000E2F6E92
:1018B0003650355CD8B05FEF0CF061EF0CF088EF7C
:1018C0000CF034AC66EF0CF068EF0CF06AEF0CF043
:1018D000800E341A36C037F035C036F037C035F0D8
:1018E00028C037F02CC028F037C02CF029C037F0C2
:1018F0002DC029F037C02DF02AC037F02EC02AF0B5
:1019000037C02EF02BC037F02FC02BF037C02FF090
:10191000000E376E365035C030F0316A305E000E42
:10192000315A31BE9DEF0CF0315009E11A0E305C96
:10193000D8A09DEF0CF09FEF0CF0D6EF0CF02850E4
:1019400029102A102B10D8A4A8EF0CF0ABEF0CF044
:10195000010EACEF0CF0000E376E000E286E000E7C
:10196000296E000E2A6E000E2B6E35C036F0DFEFAA
:101970000CF037A0BEEF0CF0C0EF0CF0C6EF0CF08F
:10198000D89037300109376EC8EF0CF0D890373255
:1019900028A0CDEF0CF0CFEF0CF0D0EF0CF0378E8D
:1019A0002B342B322A3229322832362A3550365CF3
:1019B000D8A0DDEF0CF0DFEF0CF0B9EF0CF034BC89
:1019C000E4EF0CF0E6EF0CF026EF0DF03650D8A463
:1019D000ECEF0CF0EEEF0CF0F8EF0CF0000E286ED0
:1019E000000E296E000E2A6E000E2B6E47EF0EF0D1
:1019F0002C5028262D5029222E502A222F502B22BF
:101A00002BA005EF0DF007EF0DF0B3EF0DF037A0B1
:101A10000CEF0DF00EEF0DF014EF0DF0D890373005
:101A20000109376E16EF0DF0D890373228A01BEF62
:101A30000DF01DEF0DF01EEF0DF0378E2B342B3215
:101A40002A3229322832362AB3EF0DF02C50285C86
:101A50002D5029582E502A582B50800A306E2F5066
:101A6000800A3058D8B037EF0DF039EF0DF064EF41
:101A70000DF028502C5C306E29502D58316E2A50B4
:101A80002E58326E2B502F58336EFF0E3024286E96
:101A9000FF0E3120296EFF0E32202A6EFF0E3320FA
:101AA0002B6E800E341A376C3750D8A45AEF0DF0D5
:101AB0005CEF0DF06CEF0DF0010E2826000E2922D0
:101AC0002A222B226CEF0DF02C50285E2D50295A23
:101AD0002E502A5A2F502B5A285029102A102B10DA
:101AE000D8A475EF0DF077EF0DF0ACEF0DF0375097
:101AF000D8A47DEF0DF07FEF0DF0ACEF0DF0000EF0
:101B0000286E000E296E000E2A6E000E2B6E47EF17
:101B10000EF0D890283629362A362B3637AE93EF7A
:101B20000DF095EF0DF096EF0DF0288037A09BEFAC
:101B30000DF09DEF0DF0A1EF0DF0D8803736A3EF3B
:101B40000DF0D89037363650D8B4A9EF0DF0ABEF82
:101B50000DF0ACEF0DF036062AAEB1EF0DF0B3EF9D
:101B60000DF089EF0DF0000E356E37AEBAEF0DF0C7
:101B7000BCEF0DF0D4EF0DF037C030F07F0E301613
:101B8000D8B4C5EF0DF0C7EF0DF0CBEF0DF0010E9F
:101B9000356ED4EF0DF028A0D0EF0DF0D2EF0DF0A0
:101BA000D4EF0DF0C7EF0DF03550D8B4DAEF0DF0EB
:101BB000DCEF0DF007EF0EF0010E2826000E2922B3
:101BC0002A222B222BA0E7EF0DF0E9EF0DF007EF13
:101BD0000EF028C030F029C031F02AC032F02BC0FE
:101BE00033F03334333232323132303230C028F0D5
:101BF00031C029F032C02AF033C02BF03628D8B4D7
:101C000004EF0EF006EF0EF007EF0EF0362A36283E
:101C1000D8B40DEF0EF00FEF0EF017EF0EF03650B8
:101C2000D8A415EF0EF017EF0EF029EF0EF0000E0E
:101C3000286E000E296E000E2A6E000E2B6E365096
:101C4000D8A425EF0EF027EF0EF029EF0EF0000ECE
:101C5000346E36A02EEF0EF030EF0EF033EF0EF0B4
:101C60002A8E34EF0EF02A9ED89036302B6E34AE8A
:101C70003CEF0EF03EEF0EF03FEF0EF02B8E28C043
:101C800028F029C029F02AC02AF02BC02BF012001E
:101C90001250800B1B6E12501224216E11AE53EFA6
:101CA0000EF055EF0EF056EF0EF021802150D8B413
:101CB0005CEF0EF05EEF0EF071EF0EF02128D8A46D
:101CC00064EF0EF066EF0EF06EEF0EF0000E0F6E8A
:101CD000000E106E000E116E000E126E118E79EF56
:101CE0000EF0000E0F6E000E106E000E116E000E44
:101CF000126E1650800B1B1A16501624206E15AE4D
:101D000084EF0EF086EF0EF087EF0EF0208020506B
:101D1000D8B48DEF0EF08FEF0EF0A2EF0EF020286A
:101D2000D8A495EF0EF097EF0EF09FEF0EF0000E97
:101D3000136E000E146E000E156E000E166E158ECC
:101D4000AAEF0EF0000E136E000E146E000E156E4C
:101D5000000E166E2050D8B4B0EF0EF0B2EF0EF0B9
:101D6000BAEF0EF02150D8A4B8EF0EF0BAEF0EF093
:101D7000C4EF0EF0000E0F6E000E106E000E116E0E
:101D8000000E126E5CEF10F015500F02F3CF26F02C
:101D9000F4CF27F026501C6E1D6A1E6A1F6A27505A
:101DA000226E236A246A256A14501002F3CF26F0AB
:101DB000F4CF27F026501C26000E1D221E221F22C3
:101DC00027502226000E23222422252213501102FE
:101DD000F3CF26F0F4CF27F026501C26000E1D224C
:101DE0001E221F2227502226000E232224222522D3
:101DF0001EC01FF01DC01EF01CC01DF01C6A135039
:101E00001002F3CF26F0F4CF27F026501C262750DF
:101E10001D22000E1E22000E1F2214500F02F3CFAF
:101E200026F0F4CF27F026501C2627501D22000E46
:101E30001E22000E1F221EC01FF01DC01EF01CC05F
:101E40001DF01C6A13500F02F3CF26F0F4CF27F0D9
:101E500026501C2627501D22000E1E22000E1F2277
:101E600015501002F3CF26F0F4CF27F0265022268B
:101E700027502322000E2422000E25221450110286
:101E8000F3CF26F0F4CF27F0265022262750232226
:101E9000000E2422000E252215501102F3CF26F049
:101EA000F4CF27F02650176E2750186E196A1A6A59
:101EB00019C01AF018C019F017C018F0176A175097
:101EC000222618502322195024221A5025221CC0E1
:101ED00017F01DC018F01EC019F01FC01AF0190E1F
:101EE00077EF0FF0D8901A32193218321732E82EE5
:101EF00072EF0FF017502226185023221950242277
:101F00001A5025221EC01FF01DC01EF01CC01DF05F
:101F10001C6A205021C017F0186A1726000E1822DC
:101F2000820E1724266EFF0E1820276EADEF0FF0DD
:101F3000D89022362336243625361FAEA2EF0FF076
:101F4000A4EF0FF0A5EF0FF02280D8901C361D36BD
:101F50001E361F362606D8A0270624AEB2EF0FF095
:101F6000B4EF0FF098EF0FF0000E206E1FAEBBEF36
:101F70000FF0BDEF0FF0E1EF0FF0FF0E1C14176E26
:101F8000FF0E1D14186EFF0E1E14196E7F0E1F1407
:101F90001A6E1750181019101A10D8B4D2EF0FF08B
:101FA000D4EF0FF0D8EF0FF0010E206EE1EF0FF03D
:101FB00022A0DDEF0FF0DFEF0FF0E1EF0FF0D4EF35
:101FC0000FF02050D8B4E7EF0FF0E9EF0FF00DEF6E
:101FD00010F0010E2226000E23222422252225A005
:101FE000F4EF0FF0F6EF0FF00DEF10F022C017F046
:101FF00023C018F024C019F025C01AF01A341A3280
:1020000019321832173217C022F018C023F019C045
:1020100024F01AC025F0264A272A27BE18EF10F010
:10202000275008E12628D8A018EF10F01AEF10F07A
:1020300024EF10F0000E226E000E236E800E246E30
:102040007F0E256E52EF10F027BE31EF10F02750B3
:1020500006E12604D8B02FEF10F031EF10F03DEF7D
:1020600010F0000E226E000E236E000E246E000E85
:10207000256E000E1B6E52EF10F026C021F0FF0EF1
:102080002216FF0E23167F0E2416000E251621A001
:102090004CEF10F04EEF10F04FEF10F0248ED89070
:1020A0002130256E1B50251222C00FF023C010F0E6
:1020B00024C011F025C012F012001250800B1F6EC8
:1020C00012501224266E11AE68EF10F06AEF10F075
:1020D0006BEF10F026802650D8B471EF10F073EF3C
:1020E00010F088EF10F02628D8A479EF10F07BEFDD
:1020F00010F083EF10F0000E0F6E000E106E000E49
:10210000116E000E126E118E000E126E90EF10F016
:10211000000E0F6E000E106E000E116E000E126E8D
:102120001650800B1F1A16501624276E15AE9BEF03
:1021300010F09DEF10F09EEF10F027802750D8B4DC
:10214000A4EF10F0A6EF10F0BBEF10F02728D8A4F2
:10215000ACEF10F0AEEF10F0B6EF10F0000E136E13
:10216000000E146E000E156E000E166E158E000E0B
:10217000166EC3EF10F0000E136E000E146E000EFC
:10218000156E000E166E1350141015101610D8A4EC
:10219000CCEF10F0CEEF10F0E6EF10F0000E0F6E67
:1021A000000E106E000E116E000E126E800E1112D7
:1021B0007F0E12121F5012120FC00FF010C010F03D
:1021C00011C011F012C012F029EF12F02650D8A45D
:1021D000ECEF10F0EEEF10F0F8EF10F0000E0F6ED5
:1021E000000E106E000E116E000E126E29EF12F02E
:1021F000275026C017F0186A175E000E185A7F0E77
:102200001724206E000E1820216E0FC01BF010C086
:102210001CF011C01DF012C01EF0000E0F6E000E5B
:10222000106E000E116E000E126E000E226E000E69
:10223000236E000E246E000E256E000E276E59EFE1
:1022400011F02750D8B427EF11F029EF11F040EF2B
:1022500011F0D8901B361C361D361E36D8900F361E
:1022600010361136123625AE38EF11F03AEF11F074
:102270003BEF11F00F80D8902236233624362536D6
:1022800013501B5C14501C5815501D5816501E58E6
:10229000D8A04DEF11F04FEF11F058EF11F0258C51
:1022A00013501B5E14501C5A15501D5A16501E5ABE
:1022B000272A190E27645FEF11F061EF11F021EF6B
:1022C00011F01B501C101D101E10D8B46AEF11F035
:1022D0006CEF11F084EF11F0228084EF11F0D890B0
:1022E0000F3610361136123625AE79EF11F07BEF2E
:1022F00011F07CEF11F00F80D8902236233624366F
:1023000025362006D8A0210611AE89EF11F08BEFFB
:1023100011F06FEF11F0000E276E25AE92EF11F065
:1023200094EF11F0B8EF11F0FF0E2214176EFF0EAC
:102330002314186EFF0E2414196E7F0E25141A6EC6
:102340001750181019101A10D8B4A9EF11F0ABEFEC
:1023500011F0AFEF11F0010E276EB8EF11F00FA0E2
:10236000B4EF11F0B6EF11F0B8EF11F0ABEF11F0E0
:102370002750D8B4BEEF11F0C0EF11F0E4EF11F028
:10238000010E0F26000E10221122122212A0CBEFF6
:1023900011F0CDEF11F0E4EF11F00FC017F010C005
:1023A00018F011C019F012C01AF01A341A3219328A
:1023B0001832173217C00FF018C010F019C011F002
:1023C0001AC012F0204A212A21BEEFEF11F021504D
:1023D00008E12028D8A0EFEF11F0F1EF11F0FCEFA9
:1023E00011F0000E216E2068000E0F6E000E106EB0
:1023F000000E116E000E126E21BE09EF12F0215078
:1024000006E12004D8B007EF12F009EF12F017EF41
:1024100012F0000E216E000E206E000E0F6E000EE8
:10242000106E000E116E000E126E000E1F6E20C098
:1024300026F026A01EEF12F020EF12F023EF12F08C
:10244000118E24EF12F0119ED8902630126EDAEF22
:1024500010F01200F29E8EA430EF12F032EF12F064
:1024600039EF12F08EB637EF12F039EF12F02BEF92
:1024700012F04BC01AF04CC01BF04DC01CF04EC007
:102480001DF0C7EC18F0520E506E2B0E4F6E000E62
:10249000E82EFED74F2EFCD7502EFAD700D04BC0D7
:1024A0001AF04CC01BF04DC01CF04EC01DF00EECDD
:1024B00019F0520E506E2B0E4F6E000EE82EFED706
:1024C0004F2EFCD7502EFAD700D08EA46AEF12F010
:1024D0006CEF12F073EF12F08EB671EF12F073EF33
:1024E00012F065EF12F04BC01AF04CC01BF04DC05B
:1024F0001CF04EC01DF080EC18F0A40E506EF60ECD
:102500004F6E980EE82EFED74F2EFCD7502EFAD7DE
:102510004BC01AF04CC01BF04DC01CF04EC01DF05B
:102520000EEC19F0520E506E2B0E4F6E000EE82E70
:10253000FED74F2EFCD7502EFAD700D08EA4A3EF93
:1025400012F0A5EF12F0ACEF12F08EB6AAEF12F077
:10255000ACEF12F09EEF12F04BC045F04CC046F0CD
:102560004DC047F04EC048F0000E4A6E5A0E496EFC
:102570003EEC1AF04BC01AF04CC01BF04DC01CF0E2
:102580004EC01DF00EEC19F0090E506E1E0E4F6E6F
:10259000E40EE82EFED74F2EFCD7502EFAD700D0EF
:1025A0008EA4D5EF12F0D7EF12F0DEEF12F08EB658
:1025B000DCEF12F0DEEF12F0D0EF12F04BC045F07E
:1025C0004CC046F04DC047F04EC048F0000E4A6E79
:1025D0005A0E496E65EC1AF04BC01AF04CC01BF055
:1025E0004DC01CF04EC01DF00EEC19F0090E506EDF
:1025F0001E0E4F6EE40EE82EFED74F2EFCD7502E47
:10260000FAD700D08EA407EF13F009EF13F010EF04
:1026100013F08EB60EEF13F010EF13F002EF13F07D
:102620004BC045F04CC046F04DC047F04EC048F09E
:10263000000E4A6EB40E496E3EEC1AF04BC01AF012
:102640004CC01BF04DC01CF04EC01DF00EEC19F03C
:10265000090E506E1E0E4F6EE40EE82EFED74F2E62
:10266000FCD7502EFAD700D08EA439EF13F03BEFF1
:1026700013F042EF13F08EB640EF13F042EF13F079
:1026800034EF13F04BC045F04CC046F04DC047F05E
:102690004EC048F0000E4A6EB40E496E65EC1AF05A
:1026A0004BC01AF04CC01BF04DC01CF04EC01DF0CA
:1026B0000EEC19F0090E506E1E0E4F6EE40EE82E51
:1026C000FED74F2EFCD7502EFAD700D08EA46BEF3A
:1026D00013F06DEF13F074EF13F08EB672EF13F08A
:1026E00074EF13F066EF13F04BC045F04CC046F0AA
:1026F0004DC047F04EC048F0000E4A6E870E496E3E
:102700003EEC1AF04BC01AF04CC01BF04DC01CF050
:102710004EC01DF00EEC19F0090E506E1E0E4F6EDD
:10272000E40EE82EFED74F2EFCD7502EFAD700D05D
:102730008EA49DEF13F09FEF13F0A6EF13F08EB66B
:10274000A4EF13F0A6EF13F098EF13F04BC045F091
:102750004CC046F04DC047F04EC048F0000E4A6EE7
:10276000870E496E65EC1AF04BC01AF04CC01BF096
:102770004DC01CF04EC01DF00EEC19F0090E506E4D
:102780001E0E4F6EE40EE82EFED74F2EFCD7502EB5
:10279000FAD700D0F28E120020EE01F00F50D926A9
:1027A0001050DA22DF50D8B4D8EF13F0DAEF13F07C
:1027B0000BEF14F00FC0D9FF10C0DAFFDF50116E1D
:1027C0001150016E026A20EE07F00F50D92610500A
:1027D000DA22DECF03F0DDCF04F005EC1BF001C000
:1027E00007F002C008F0000E0A6E640E096E1EECBF
:1027F00018F020EE07F00F50D9261050DA22DECF65
:1028000012F0DDCF13F00750125C186E0850135809
:10281000196E2EEF14F00FC0D9FF10C0DAFFDF5091
:10282000116E1150016E026A20EE07F00F50D9268A
:102830001050DA22DECF03F0DDCF04F005EC1BF000
:1028400001C007F002C008F0000E0A6E640E096EA7
:102850001EEC18F007C018F008C019F020EE02F0C6
:102860000F50D9261050DA22DECF11F0DDCF12F052
:1028700011C0D9FF12C0DAFF18C0DFFF20EE01F04F
:102880000F50D9261050DA22DF50D8B44AEF14F096
:102890004CEF14F081EF14F020EE04F00F50D92625
:1028A0001050DA22DECF11F0DDCF12F011C0D9FFC7
:1028B00012C0DAFF10EE04F00F50E1261050E222B1
:1028C000E6CF13F0E5CF14F013C0E1FF14C0E2FF30
:1028D000E750156E10EE06F00F50E1261050E22280
:1028E000E750166E010E176E162A79EF14F0D89085
:1028F0001736162E77EF14F017501510DF6EB5EF60
:1029000014F020EE04F00F50D9261050DA22DECF5A
:1029100011F0DDCF12F011C0D9FF12C0DAFF10EEB6
:1029200004F00F50E1261050E222E6CF13F0E5CF7D
:1029300014F013C0E1FF14C0E2FFE750156E10EE73
:1029400006F00F50E1261050E222E750166E010EFD
:10295000176E162AAEEF14F0D8901736162EACEF7D
:1029600014F01750FF0A1514DF6E1200096E09509B
:10297000D8B4BDEF14F0BFEF14F0E1EF14F004BED3
:10298000C6EF14F0C4EF14F0E1EF14F001C005F04D
:1029900002C006F003C007F004C008F0051E061EC2
:1029A000071E081E052A000E06220722082205C05F
:1029B0000BF006C00CF007C00DF008C00EF0E9EFF8
:1029C00014F001C00BF002C00CF003C00DF004C005
:1029D0000EF00150021003100410D8A4F2EF14F00E
:1029E000F4EF14F0FEEF14F0000E016E000E026E14
:1029F000000E036E000E046E8FEF15F0960E0A6E39
:102A000008EF15F00A2AD8900E320D320C320B3234
:102A1000000E0B14056E000E0C14066E000E0D1445
:102A2000076EFE0E0E14086E0550061007100810F3
:102A3000D8A41DEF15F01FEF15F002EF15F02DEFE4
:102A400015F00A2A010E0B26000E0C220D220E2272
:102A5000D8900E320D320C320B32000E0B14056E74
:102A6000000E0C14066E000E0D14076EFF0E0E14F1
:102A7000086E0550061007100810D8A442EF15F094
:102A800044EF15F021EF15F04CEF15F00A06D89041
:102A90000B360C360D360E360DBE51EF15F053EFDA
:102AA00015F05BEF15F0020E0A6059EF15F05BEFC1
:102AB00015F046EF15F00AB060EF15F062EF15F073
:102AC00063EF15F00D9ED8900A320AC005F0066A31
:102AD000076A086A05C008F0076A066A056A0550B1
:102AE0000B1206500C1207500D1208500E1209500E
:102AF000D8B47DEF15F07FEF15F087EF15F004BE29
:102B000086EF15F084EF15F087EF15F00E8E0BC0F1
:102B100001F00CC002F00DC003F00EC004F0120072
:102B2000000E136E000E146E480E156E410E166EDA
:102B30003CC001F03DC002F0036A046A000EB6EC2E
:102B400014F001C00FF002C010F003C011F004C077
:102B500012F048EC0EF00FC028F010C029F011C0A0
:102B60002AF012C02BF0000E2C6E000E2D6E070EF8
:102B70002E6EC30E2F6EE8EC0BF028C03FF029C07C
:102B800040F02AC041F02BC042F020EE01F0385056
:102B9000D9263950DA22000EDF6E20EE01F03A50CD
:102BA000D9263B50DA22010EDF6E1AEF16F07EA016
:102BB000DCEF15F0E0EF15F03E6A3E2AE1EF15F08C
:102BC0003E6A7E503E18FE0B3E187E6E38C0D9FF1E
:102BD00039C0DAFF280EDF60F0EF15F0F2EF15F0E4
:102BE000F8EF15F038C0D9FF39C0DAFF0A0EDF263A
:102BF0003AC0D9FF3BC0DAFF280EDF6002EF16F0C3
:102C000004EF16F00AEF16F03AC0D9FF3BC0DAFF26
:102C10000A0EDF2638C00FF039C010F0CCEC13F0EC
:102C20003AC00FF03BC010F0CCEC13F0A00E00D077
:102C3000E82EFDD738C0D9FF39C0DAFF270EDF6490
:102C400024EF16F026EF16F0D7EF15F03AC0D9FFB3
:102C50003BC0DAFF270EDF6430EF16F032EF16F0DC
:102C6000D7EF15F0000E446E000E436E42EF16F0E3
:102C7000150E3E6EC60EE82EFED73E2EFCD700D0B7
:102C8000434A442A43C001F044C002F0036A046A84
:102C9000000EB6EC14F001C00FF002C010F003C03B
:102CA00011F004C012F03FC013F040C014F041C056
:102CB00015F042C016F09CEC17F0D8A062EF16F0A9
:102CC00064EF16F038EF16F07E9012001EC020F070
:102CD0001FC021F0D89020362136D89020362136DA
:102CE000D89020362136B40E2024226E000E2120EA
:102CF000236E20EE01F01A50D9261B50DA22010E65
:102D0000DF6E20EE01F01C50D9261D50DA22000E95
:102D1000DF6ECEEF16F080A090EF16F094EF16F075
:102D2000206A202A95EF16F0206A80502018FE0BAA
:102D30002018806E1AC0D9FF1BC0DAFF280EDF6092
:102D4000A4EF16F0A6EF16F0ACEF16F01AC0D9FFFC
:102D50001BC0DAFF0A0EDF261CC0D9FF1DC0DAFF38
:102D6000280EDF60B6EF16F0B8EF16F0BEEF16F0E3
:102D70001CC0D9FF1DC0DAFF0A0EDF261AC00FF0F3
:102D80001BC010F0CCEC13F01CC00FF01DC010F0F5
:102D9000CCEC13F0A00E00D0E82EFDD71AC0D9FF5E
:102DA0001BC0DAFF270EDF64D8EF16F0DAEF16F05B
:102DB0008BEF16F01CC0D9FF1DC0DAFF270EDF64B1
:102DC000E4EF16F0E6EF16F08BEF16F0000E256E2E
:102DD000000E246EF6EF16F0150E206EC60EE82ECD
:102DE000FED7202EFCD700D0244A252A2250245C6E
:102DF00023502558D8A0FFEF16F001EF17F0ECEFA5
:102E000016F0150E206EC60EE82EFED7202EFCD72B
:102E100000D080901200000E0001DE6F640EDD6FA6
:102E2000000E586E000E576E7F0EDC6FDB69000ED1
:102E3000B46F000E5A6E000E596E000EC96F010E6F
:102E4000CA6FA30ECB6F0F0ECC6F7D0ECD6F0F0E22
:102E5000CE6F040ECF6F000ED16F630ED06F000ED9
:102E6000D26F010ED36FA00ED46F0F0ED56F7F0EF1
:102E7000D66F0F0ED76F060ED86F000EDA6F630E87
:102E8000D96F59EC1BF0ADEC1AF0630E16EC1AF08A
:102E900049EC1BF039EC1BF0C90E4B6E000E4C6E6A
:102EA000D20E4D6E000E4E6E2AEC12F08EA45BEF29
:102EB00017F05DEF17F064EF17F08EB662EF17F0C2
:102EC00064EF17F056EF17F07C86010E18EC1BF03C
:102ED000520E566E2B0E556E000EE82EFED7552E56
:102EE000FCD7562EFAD700D0C90E1A6E000E1B6EF4
:102EF000D20E1C6E000E1D6EC7EC18F00001B4055A
:102F0000D8A485EF17F087EF17F07EEF17F0C10E0A
:102F10004B6E000E4C6EC90E4D6E000E4E6ED20EF4
:102F20004F6E000E506E52EC07F0000E0001B46FB1
:102F30007EEF17F000EF00F0000E0F14176E000E7A
:102F40001014186E800E1114196E7F0E12141A6E62
:102F50001750181019101A10D8A4B1EF17F0B3EFCA
:102F600017F0BBEF17F0000E0F6E000E106E000E84
:102F7000116E000E126E000E1314176E000E141454
:102F8000186E800E1514196E7F0E16141A6E1750D7
:102F9000181019101A10D8A4D0EF17F0D2EF17F0AC
:102FA000DAEF17F0000E136E000E146E000E156EA1
:102FB000000E166E12AEDFEF17F0E1EF17F0EAEF3A
:102FC00017F00F6C101ED8B0102A111ED8B0112A9D
:102FD000800E125616AEEFEF17F0F1EF17F0FAEF82
:102FE00017F0136C141ED8B0142A151ED8B0152A69
:102FF000800E1656000E0F1A000E101A000E111A2F
:10300000800E121A000E131A000E141A000E151A52
:10301000800E161A13500F5C14501058155011588A
:1030200016501258D8B017EF18F019EF18F01CEF1F
:1030300018F0D8901DEF18F0D8801200000E0C6E1A
:103040000ABE27EF18F025EF18F02DEF18F0096CE5
:103050000A1ED8B00A2A010E0C6E08BE34EF18F012
:1030600032EF18F03AEF18F0076C081ED8B0082AB3
:10307000010E0C1A000E0E6E000E0D6E09500A1095
:10308000D8B445EF18F047EF18F06FEF18F0010EC5
:103090000B6E4FEF18F0D89009360A360B2A0AAE9D
:1030A00054EF18F056EF18F04BEF18F0D8900D369B
:1030B0000E360950075C0A500858D8A062EF18F085
:1030C00064EF18F069EF18F00950075E0A50085ACB
:1030D0000D80D8900A3209320B2E56EF18F00C50A2
:1030E000D8B475EF18F077EF18F07BEF18F00D6C8F
:1030F0000E1ED8B00E2A0DC007F00EC008F0120048
:1031000020EE01F01A50D9261B50DA22000EDF6E95
:1031100020EE01F01C50D9261D50DA22000EDF6E81
:10312000AEEF18F01AC0D9FF1BC0DAFF0A0EDF2677
:103130001CC0D9FF1DC0DAFF0A0EDF261AC00FF02F
:103140001BC010F0CCEC13F01CC00FF01DC010F031
:10315000CCEC13F0A00E00D0E82EFDD71AC0D9FF9A
:103160001BC0DAFF280EDF60B8EF18F0BAEF18F0D6
:10317000C6EF18F01CC0D9FF1DC0DAFF270EDF64B0
:10318000C4EF18F0C6EF18F092EF18F0120020EE1E
:1031900001F01A50D9261B50DA22010EDF6E20EE04
:1031A00001F01C50D9261D50DA22010EDF6EF5EF1A
:1031B00018F01AC0D9FF1BC0DAFF0A0EDF261CC0A8
:1031C000D9FF1DC0DAFF0A0EDF261AC00FF01BC0A0
:1031D00010F0CCEC13F01CC00FF01DC010F0CCECC4
:1031E00013F0A00E00D0E82EFDD71AC0D9FF1BC0E7
:1031F000DAFF140EDF60FFEF18F001EF19F00DEFAA
:1032000019F01CC0D9FF1DC0DAFF130EDF640BEFED
:1032100019F00DEF19F0D9EF18F012007C882DEF9E
:1032200019F01AC0D9FF1BC0DAFF0A0EDF5E1CC0FE
:10323000D9FF1DC0DAFF0A0EDF5E1AC00FF01BC0F7
:1032400010F0CCEC13F01CC00FF01DC010F0CCEC53
:1032500013F0A00E00D0E82EFDD71AC0D9FF1BC076
:10326000DAFFDF50D8B437EF19F039EF19F045EF36
:1032700019F01CC0D9FF1DC0DAFFDF50D8A443EFFE
:1032800019F045EF19F011EF19F07C98120076EC67
:1032900019F00CC0D9FF0DC0DAFF05C0DEFF06C073
:1032A000DDFF9EEC19F020EE02F00C50D9260D50F7
:1032B000DA2205C0DEFF06C0DDFFEEEC19F020EEDD
:1032C00004F00C50D9260D50DA2205C0DEFF06C0EE
:1032D000DDFFC6EC19F020EE06F00C50D9260D509B
:1032E000DA2205C0DEFF06C0DDFF120095EC1BF000
:1032F000520E84EC1BF0B60E84EC1BF09AEC1BF023
:10330000530E84EC1BF0010E8CEC1AF0076E075084
:103310000A6E0B6A000E8CEC1AF0076E0750096EED
:10332000086A0A5008100A6E0B5009100B6E90ECD8
:103330001BF00AC005F00BC006F0120095EC1BF064
:10334000520E84EC1BF0B80E84EC1BF09AEC1BF0D0
:10335000530E84EC1BF0010E8CEC1AF0076E075034
:103360000A6E0B6A000E8CEC1AF0076E0750096E9D
:10337000086A0A5008100A6E0B5009100B6E90EC88
:103380001BF00AC005F00BC006F0120095EC1BF014
:10339000520E84EC1BF0B40E84EC1BF09AEC1BF084
:1033A000530E84EC1BF0010E8CEC1AF0076E0750E4
:1033B0000A6E0B6A000E8CEC1AF0076E0750096E4D
:1033C000086A0A5008100A6E0B5009100B6E90EC38
:1033D0001BF00AC005F00BC006F0120095EC1BF0C4
:1033E000520E84EC1BF0BA0E84EC1BF09AEC1BF02E
:1033F000530E84EC1BF0010E8CEC1AF0076E075094
:103400000A6E0B6A000E8CEC1AF0076E0750096EFC
:10341000086A0A5008100A6E0B5009100B6E90ECE7
:103420001BF00AC005F00BC006F01200016EBD5083
:103430008F0B4009BD6EE00EBE16BF50F00B0109A8
:10344000BF6E01C0BCFFBD8E85948598839E879C0E
:103450007D947D987B9E7F9C000EA36E000EA06ED7
:10346000A48EA18E0A0E0E01746F0B0E696F8AEC8A
:103470001BF09FEC1BF072EC1BF012005950D8A40B
:1034800044EF1AF046EF1AF056EF1AF045C01AF062
:1034900046C01BF047C01CF048C01DF049C01EF0DC
:1034A0004AC01FF066EC16F064EF1AF045C038F021
:1034B00046C039F047C03AF048C03BF049C03CF044
:1034C0004AC03DF090EC15F012005950D8A46BEFB3
:1034D0001AF06DEF1AF07DEF1AF045C038F046C0D3
:1034E00039F047C03AF048C03BF049C03CF04AC010
:1034F0003DF090EC15F08BEF1AF045C01AF046C085
:103500001BF047C01CF048C01DF049C01EF04AC067
:103510001FF066EC16F01200036EDEEC1AF00E01DE
:10352000DA87DEEC1AF0D5CE04F0DEEC1AF00350A8
:10353000D8B49DEF1AF0A1EF1AF0026A022AA2EFA6
:103540001AF0026A023A02460E01DA510218DF0B43
:103550000218DA6FDA8904501200C9EC1AF0010E71
:10356000036E000E29EC1BF03F0E056E550EE82E83
:10357000FED7052EFCD700F0030E036E000E29ECDB
:103580001BF0D50E036E010E29EC1BF07DEC1BF039
:1035900012000E01D951F00B0809D96FD98B9F0E7B
:1035A000D66F848A848CA79BA79D1D0E1D6F1E0E4F
:1035B0001C6F1C0E6F6F1B0E706F12000E01D8B5C2
:1035C000E4EF1AF0E6EF1AF0DEEF1AF0DACE01F0CF
:1035D0001F0E0116D8A4EFEF1AF0F1EF1AF0DEEF8C
:1035E0001AF0120000EE60F0550EEE6AE806FDE1FA
:1035F00000EE57F0080EEE6AE806FDE1000EF86EE8
:103600000E0EF76E00010BEF17F001500302F3CF1F
:1036100005F0F4CF06F001500402F35006260250E4
:103620000302F350062605C001F006C002F01200A6
:10363000016E01B002D07F9201D07F8201B002D032
:10364000799801D0798801B002D07E9E01D07E8E1B
:103650001200046E95EC1BF0520E84EC1BF004502B
:10366000800984EC1BF0035084EC1BF090EC1BF001
:10367000120066EC1BF0026EC80E026042EF1BF0F7
:1036800044EF1BF047EF1BF07C8E48EF1BF07C9E55
:103690001200120E0E01626F110E156F8382E997F0
:1036A000E895330EE56F000EE66FE789E88BE78F4C
:1036B0001200868C0E01B48D0F015899FC0E58171C
:1036C0002E0E5F6F60946088608E1200608060B024
:1036D0006CEF1BF06EEF1BF067EF1BF064CF01F097
:1036E00001501200889284968498869088908092E7
:1036F0007C967C987E908090120087928198869E1E
:10370000000E18EC1BF01200026EDEEC1AF002C084
:10371000D5FE1200868486860E01B495B4971200F9
:10372000DEEC1AF00E01DA851200DEEC1AF00E0162
:10373000DA811200DEEC1AF00E01DA831200849EA8
:0837400088967C9E8096120021
:020000040020DA
:10000000FF0FFF0FFF0FFF0FFF0FFF0FFF0FFF0F80
:020000040030CA
:0C000000AAFFFFFF9FFFFFFFFFFFFFFFB5
:00000001FF
