:0400000013EF00F00A
:060008005882CCEF0CF061
:100018005880E0CF04F004C0E0FF589010007FEF54
:100028000DF02DC005F02EC006F033C007F034C027
:1000380008F072EC0BF005C09EF006C09FF02FC0D0
:1000480005F030C006F033C007F034C008F072EC99
:100058000BF005C0A0F006C0A1F031C005F032C019
:1000680006F033C007F034C008F072EC0BF005C09E
:10007800A2F006C0A3F0710E136E3D0E146E0A0EA8
:10008800156E3F0E166E9EC005F09FC006F0076AFB
:10009800086A000ECFEC08F005C017F006C018F08B
:1000A80007C019F008C01AF0A9EC09F0D8B05FEF42
:1000B80000F061EF00F0BDEF00F0A0C005F0A1C0B6
:1000C80006F0076A086A000ECFEC08F005C013F0C6
:1000D80006C014F007C015F008C016F0480E176ED9
:1000E800E10E186E7A0E196E3E0E1A6EA9EC09F022
:1000F800D8B081EF00F083EF00F0BDEF00F0A2C0B0
:1001080005F0A3C006F0076A086A000ECFEC08F0F5
:1001180005C013F006C014F007C015F008C016F0AB
:10012800EC0E176E510E186E380E196E3E0E1A6EC2
:10013800A9EC09F0D8B0A3EF00F0A5EF00F0BDEFEF
:1001480000F035C01EF036C01FF037C020F038C0B0
:1001580021F05A0E226EFFEC05F035C01EF036C0B5
:100168001FF037C020F038C021F027EC0BF045EF26
:1001780004F09EC005F09FC006F0076A086A000EEA
:10018800CFEC08F005C013F006C014F007C015F056
:1001980008C016F0520E176EB80E186EDE0E196EE5
:1001A8003E0E1A6EA9EC09F0D8B0DDEF00F0DFEFD3
:1001B80000F03BEF01F0520E136EB80E146E9E0E57
:1001C800156E3E0E166EA0C005F0A1C006F0076AB7
:1001D800086A000ECFEC08F005C017F006C018F04A
:1001E80007C019F008C01AF0A9EC09F0D8B0FFEF61
:1001F80000F001EF01F03BEF01F0140E136EAE0EAC
:10020800146E470E156E3E0E166EA2C005F0A3C002
:1002180006F0076A086A000ECFEC08F005C017F070
:1002280006C018F007C019F008C01AF0A9EC09F0C8
:10023800D8B021EF01F023EF01F03BEF01F035C01A
:100248001EF036C01FF037C020F038C021F05A0E1B
:10025800226EF2EC06F035C01EF036C01FF037C033
:1002680020F038C021F027EC0BF045EF04F09EC0D9
:1002780005F09FC006F0076A086A000ECFEC08F088
:1002880005C013F006C014F007C015F008C016F03A
:10029800F60E176E280E186EDC0E196E3E0E1A6ECC
:1002A800A9EC09F0D8B05BEF01F05DEF01F0B9EF10
:1002B80001F09A0E136E990E146E990E156E3E0E7D
:1002C800166EA0C005F0A1C006F0076A086A000E05
:1002D800CFEC08F005C017F006C018F007C019F0F9
:1002E80008C01AF0A9EC09F0D8B07DEF01F07FEF53
:1002F80001F0B9EF01F03D0E136E0A0E146E570EA1
:10030800156E3E0E166EA2C005F0A3C006F0076A71
:10031800086A000ECFEC08F005C017F006C018F008
:1003280007C019F008C01AF0A9EC09F0D8B09FEF7F
:1003380001F0A1EF01F0B9EF01F035C01EF036C0B1
:100348001FF037C020F038C021F0B40E226EFFEC49
:1003580005F035C01EF036C01FF037C020F038C099
:1003680021F027EC0BF045EF04F0480E136EE10E78
:10037800146EFA0E156E3E0E166E9EC005F09FC0E6
:1003880006F0076A086A000ECFEC08F005C017F0FF
:1003980006C018F007C019F008C01AF0A9EC09F057
:1003A800D8B0D9EF01F0DBEF01F041EF02F0850E94
:1003B800136EEB0E146E910E156E3E0E166EA0C0E7
:1003C80005F0A1C006F0076A086A000ECFEC08F035
:1003D80005C017F006C018F007C019F008C01AF0D9
:1003E800A9EC09F0D8B0FBEF01F0FDEF01F041EF07
:1003F80002F0EC0E136E510E146E380E156E3E0E92
:10040800166EA2C005F0A3C006F0076A086A000EBF
:10041800CFEC08F005C017F006C018F007C019F0B7
:1004280008C01AF0A9EC09F0D8B01DEF02F01FEFD0
:1004380002F041EF02F035C01EF036C01FF037C0A1
:1004480020F038C021F08DEC0AF035C01EF036C01F
:100458001FF037C020F038C021F05A0E226EFFEC92
:1004680005F035C01EF036C01FF037C020F038C088
:1004780021F027EC0BF045EF04F0480E136EE10E67
:10048800146EFA0E156E3E0E166E9EC005F09FC0D5
:1004980006F0076A086A000ECFEC08F005C017F0EE
:1004A80006C018F007C019F008C01AF0A9EC09F046
:1004B800D8B061EF02F063EF02F0C9EF02F0A0C01C
:1004C80005F0A1C006F0076A086A000ECFEC08F034
:1004D80005C013F006C014F007C015F008C016F0E8
:1004E800CD0E176ECC0E186E8C0E196E3E0E1A6E4F
:1004F800A9EC09F0D8B083EF02F085EF02F0C9EF5C
:1005080002F0140E136EAE0E146E470E156E3E0EEC
:10051800166EA2C005F0A3C006F0076A086A000EAE
:10052800CFEC08F005C017F006C018F007C019F0A6
:1005380008C01AF0A9EC09F0D8B0A5EF02F0A7EFAF
:1005480002F0C9EF02F035C01EF036C01FF037C008
:1005580020F038C021F08DEC0AF035C01EF036C00E
:100568001FF037C020F038C021F05A0E226EF2EC8E
:1005780006F035C01EF036C01FF037C020F038C076
:1005880021F027EC0BF045EF04F0710E136E3D0ED1
:10059800146E0A0E156E3F0E166E9EC005F09FC0B3
:1005A80006F0076A086A000ECFEC08F005C017F0DD
:1005B80006C018F007C019F008C01AF0A9EC09F035
:1005C800D8B0E9EF02F0EBEF02F047EF03F0A0C07C
:1005D80005F0A1C006F0076A086A000ECFEC08F023
:1005E80005C013F006C014F007C015F008C016F0D7
:1005F8008F0E176EC20E186E750E196E3E0E1A6E9D
:10060800A9EC09F0D8B00BEF03F00DEF03F047EFBA
:1006180003F0A2C005F0A3C006F0076A086A000E3E
:10062800CFEC08F005C013F006C014F007C015F0B1
:1006380008C016F0EC0E176E510E186E380E196EB3
:100648003E0E1A6EA9EC09F0D8B02DEF03F02FEF8B
:1006580003F047EF03F035C01EF036C01FF037C077
:1006680020F038C021F0870E226EFFEC05F035C06F
:100678001EF036C01FF037C020F038C021F027EC3C
:100688000BF045EF04F09EC005F09FC006F0076A26
:10069800086A000ECFEC08F005C013F006C014F08D
:1006A80007C015F008C016F0AE0E176E470E186E8C
:1006B800E10E196E3E0E1A6EA9EC09F0D8B067EF7C
:1006C80003F069EF03F0C5EF03F0F60E136E280E82
:1006D800146E9C0E156E3E0E166EA0C005F0A1C0DD
:1006E80006F0076A086A000ECFEC08F005C017F09C
:1006F80006C018F007C019F008C01AF0A9EC09F0F4
:10070800D8B089EF03F08BEF03F0C5EF03F03D0E8F
:10071800136E0A0E146E570E156E3E0E166EA2C09C
:1007280005F0A3C006F0076A086A000ECFEC08F0CF
:1007380005C017F006C018F007C019F008C01AF075
:10074800A9EC09F0D8B0ABEF03F0ADEF03F0C5EFBB
:1007580003F035C01EF036C01FF037C020F038C097
:1007680021F0870E226EF2EC06F035C01EF036C07E
:100778001FF037C020F038C021F027EC0BF045EF10
:1007880004F09EC005F09FC006F0076A086A000ED4
:10079800CFEC08F005C013F006C014F007C015F040
:1007A80008C016F01F0E176E850E186EEB0E196E28
:1007B8003E0E1A6EA9EC09F0D8B0E5EF03F0E7EFAA
:1007C80003F02DEF04F03D0E136E0A0E146E970E13
:1007D800156E3E0E166EA0C005F0A1C006F0076AA1
:1007E800086A000ECFEC08F005C017F006C018F034
:1007F80007C019F008C01AF0A9EC09F0D8B007EF43
:1008080004F009EF04F02DEF04F03D0E136E0A0E0C
:10081800146E570E156E3E0E166EA2C005F0A3C0DC
:1008280006F0076A086A000ECFEC08F005C017F05A
:1008380006C018F007C019F008C01AF0A9EC09F0B2
:10084800D8B029EF04F02BEF04F02DEF04F0A1EF5E
:1008580001F0010E576E35C01EF036C01FF037C0CC
:1008680020F038C021F0B40E226EFFEC05F035C040
:100878001EF036C01FF037C020F038C021F027EC3A
:100888000BF01200000E00019D6F000E9C6F000E11
:10089800576EC1EC0DF00FEC0DF0ACEC0BF0630EE5
:1008A80082EC0CF0B1EC0DF0000E0001B46F010EFB
:1008B800B56FA30EB66F0F0EB76F7D0EB86F0F0E24
:1008C800B96F040EBA6F000EBC6F630EBB6F000EDB
:1008D800BD6F010EBE6FA00EBF6F0F0EC06F7F0EF3
:1008E800C16F0F0EC26F060EC36F000EC56F630E89
:1008F800C46F8EA482EF04F084EF04F08BEF04F051
:100908008EB689EF04F08BEF04F07DEF04F07C8E57
:10091800808620EEA4F000EE10F0070EDBCFEBFF90
:10092800E806FCE2AAEC0CF020EEA4F0070EEBCFF0
:10093800DBFFE806FCE2090E3A6E1E0E396EE40E85
:10094800E82EFED7392EFCD73A2EFAD700D07C9E57
:1009580080968EA4B2EF04F0B4EF04F0BBEF04F07D
:100968008EB6B9EF04F0BBEF04F0ADEF04F0B40EAF
:100978001E6E000E1F6EBD0E206E000E216E680EDC
:10098800226EFFEC05F0000E0001B46F000EBD6F83
:100998008EA4D1EF04F0D3EF04F0DAEF04F08EB6B2
:1009A800D8EF04F0DAEF04F0CCEF04F08EA4DFEF18
:1009B80004F0E1EF04F0F1EF04F07C8E090E3A6EDA
:1009C8001E0E396EE40EE82EFED7392EFCD73A2ECD
:1009D800FAD700D07C9E06EF05F08EA6F6EF04F05D
:1009E800F8EF04F006EF05F08086090E3A6E1E0E49
:1009F800396EE40EE82EFED7392EFCD73A2EFAD7F8
:100A080000D080968EA40BEF05F00DEF05F014EFE3
:100A180005F08EB612EF05F014EF05F006EF05F0BD
:100A2800B40E1E6E000E1F6EBD0E206E000E216EDF
:100A3800680E226EF2EC06F0000E0001B46F000E94
:100A4800BD6F8EA42AEF05F02CEF05F033EF05F00B
:100A58008EB631EF05F033EF05F025EF05F08EA4E3
:100A680038EF05F03AEF05F04AEF05F07C8E090EF5
:100A78003A6E1E0E396EE40EE82EFED7392EFCD7DC
:100A88003A2EFAD700D07C9E5FEF05F08EA64FEF86
:100A980005F051EF05F05FEF05F08086090E3A6E1C
:100AA8001E0E396EE40EE82EFED7392EFCD73A2EEC
:100AB800FAD700D080968EA464EF05F066EF05F0B3
:100AC8006DEF05F08EB66BEF05F06DEF05F05FEF9B
:100AD80005F07C86010E90EC0DF0520E3A6E2B0E4E
:100AE800396E000EE82EFED7392EFCD73A2EFAD7EB
:100AF80000D0B40E1E6E000E1F6EBD0E206E000ECE
:100B0800216EDAEC0AF020EEACF000EE10F0070EE1
:100B1800DBCFEBFFE806FCE2AAEC0CF020EEACF031
:100B2800070EEBCFDBFFE806FCE220EEA4F000EEB8
:100B380025F0070EDBCFEBFFE806FCE220EEACF079
:100B480000EE2DF0070EDBCFEBFFE806FCE2B40E5B
:100B5800356E000E366EBD0E376E000E386E15EC13
:100B680000F000019D05D8A4BCEF05F0BEEF05F02C
:100B7800EFEF05F020EEACF000EE10F0070EDBCF43
:100B8800EBFFE806FCE2AAEC0CF020EEACF0070E56
:100B9800EBCFDBFFE806FCE220EEA4F000EE25F048
:100BA800070EDBCFEBFFE806FCE220EEACF000EE30
:100BB8002DF0070EDBCFEBFFE806FCE2B40E356E36
:100BC800000E366EBD0E376E000E386E15EC00F056
:100BD800000E00019D6F9C05D8A4F5EF05F0F7EF16
:100BE80005F087EF05F07C8E8086000E9C6F87EFFE
:100BF80005F013EF00F05750D8A405EF06F007EF03
:100C080006F07DEF06F020EE01F01E50D9261F50A9
:100C1800DA22010EDF6E20EE01F02050D926215095
:100C2800DA22000EDF6E62EF06F080A01EEF06F0FB
:100C380022EF06F0236A232A23EF06F0236A805066
:100C48002318FE0B2318806E1EC0D9FF1FC0DAFFC1
:100C5800320EDF6032EF06F034EF06F039EF06F0BF
:100C68001EC0D9FF1FC0DAFFDF2A20C0D9FF21C06C
:100C7800DAFF320EDF6043EF06F045EF06F04AEF89
:100C880006F020C0D9FF21C0DAFFDF2A1EC013F00A
:100C98001FC014F0E5EC07F020C013F021C014F0D9
:100CA800E5EC07F0090E246E1E0E236EE40EE82E06
:100CB800FED7232EFCD7242EFAD700D01EC0D9FF8A
:100CC8001FC0DAFF310EDF646CEF06F06EEF06F03E
:100CD80019EF06F020C0D9FF21C0DAFF310EDF641A
:100CE80078EF06F07AEF06F019EF06F08090F1EF52
:100CF80006F020EE01F01E50D9261F50DA22000E11
:100D0800DF6E20EE01F02050D9262150DA22010EA4
:100D1800DF6ED8EF06F07EA094EF06F098EF06F0AD
:100D2800236A232A99EF06F0236A7E502318FE0BC4
:100D380023187E6E1EC0D9FF1FC0DAFF320EDF6097
:100D4800A8EF06F0AAEF06F0AFEF06F01EC0D9FF35
:100D58001FC0DAFFDF2A20C0D9FF21C0DAFF320E18
:100D6800DF60B9EF06F0BBEF06F0C0EF06F020C079
:100D7800D9FF21C0DAFFDF2A1EC013F01FC014F00C
:100D8800E5EC07F020C013F021C014F0E5EC07F003
:100D9800090E246E1E0E236EE40EE82EFED7232EB7
:100DA800FCD7242EFAD700D01EC0D9FF1FC0DAFF07
:100DB800310EDF64E2EF06F0E4EF06F08FEF06F0A5
:100DC80020C0D9FF21C0DAFF310EDF64EEEF06F054
:100DD800F0EF06F08FEF06F07E9012005750D8A47F
:100DE800F8EF06F0FAEF06F070EF07F020EE01F0EA
:100DF8001E50D9261F50DA22000EDF6E20EE01F0B9
:100E08002050D9262150DA22010EDF6E55EF07F067
:100E18007EA011EF07F015EF07F0236A232A16EFDB
:100E280007F0236A7E502318FE0B23187E6E1EC01F
:100E3800D9FF1FC0DAFF320EDF6025EF07F027EF7A
:100E480007F02CEF07F01EC0D9FF1FC0DAFFDF2A1A
:100E580020C0D9FF21C0DAFF320EDF6036EF07F07D
:100E680038EF07F03DEF07F020C0D9FF21C0DAFFC7
:100E7800DF2A1EC013F01FC014F0E5EC07F020C0F5
:100E880013F021C014F0E5EC07F0090E246E1E0ED5
:100E9800236EE40EE82EFED7232EFCD7242EFAD795
:100EA80000D01EC0D9FF1FC0DAFF310EDF645FEF2C
:100EB80007F061EF07F00CEF07F020C0D9FF21C061
:100EC800DAFF310EDF646BEF07F06DEF07F00CEF20
:100ED80007F07E90E4EF07F020EE01F01E50D926CF
:100EE8001F50DA22010EDF6E20EE01F02050D926C5
:100EF8002150DA22000EDF6ECBEF07F080A087EFDB
:100F080007F08BEF07F0236A232A8CEF07F0236A98
:100F180080502318FE0B2318806E1EC0D9FF1FC0F7
:100F2800DAFF320EDF609BEF07F09DEF07F0A2EFCC
:100F380007F01EC0D9FF1FC0DAFFDF2A20C0D9FF83
:100F480021C0DAFF320EDF60ACEF07F0AEEF07F03A
:100F5800B3EF07F020C0D9FF21C0DAFFDF2A1EC097
:100F680013F01FC014F0E5EC07F020C013F021C007
:100F780014F0E5EC07F0090E246E1E0E236EE40E45
:100F8800E82EFED7232EFCD7242EFAD700D01EC079
:100F9800D9FF1FC0DAFF310EDF64D5EF07F0D7EFB6
:100FA80007F082EF07F020C0D9FF21C0DAFF310E29
:100FB800DF64E1EF07F0E3EF07F082EF07F08090DE
:100FC800120020EE01F01350D9261450DA22DF5017
:100FD800D8B4F1EF07F0F3EF07F024EF08F013C0EF
:100FE800D9FF14C0DAFFDF50156E1550056E066A7A
:100FF80020EE07F01350D9261450DA22DECF07F07E
:10100800DDCF08F06CEC0DF005C00BF006C00CF05D
:10101800000E0E6E640E0D6E2BEC0AF020EE07F03B
:101028001350D9261450DA22DECF16F0DDCF17F090
:101038000B50165C1C6E0C5017581D6E47EF08F0CD
:1010480013C0D9FF14C0DAFFDF50156E1550056EB6
:10105800066A20EE07F01350D9261450DA22DECFA4
:1010680007F0DDCF08F06CEC0DF005C00BF006C002
:101078000CF0000E0E6E640E0D6E2BEC0AF00BC019
:101088001CF00CC01DF020EE02F01350D9261450AD
:10109800DA22DECF15F0DDCF16F015C0D9FF16C065
:1010A800DAFF1CC0DFFF20EE01F01350D9261450E0
:1010B800DA22DF50D8B463EF08F065EF08F09AEF52
:1010C80008F020EE04F01350D9261450DA22DECFAF
:1010D80015F0DDCF16F015C0D9FF16C0DAFF10EEF7
:1010E80004F01350E1261450E222E6CF17F0E5CFC2
:1010F80018F017C0E1FF18C0E2FFE750196E10EEB4
:1011080006F01350E1261450E222E7501A6E010E41
:101118001B6E1A2A92EF08F0D8901B361A2E90EF01
:1011280008F01B501910DF6ECEEF08F020EE04F027
:101138001350D9261450DA22DECF15F0DDCF16F081
:1011480015C0D9FF16C0DAFF10EE04F01350E126DF
:101158001450E222E6CF17F0E5CF18F017C0E1FFF0
:1011680018C0E2FFE750196E10EE06F01350E126A2
:101178001450E222E7501A6E010E1B6E1A2AC7EFAE
:1011880008F0D8901B361A2EC5EF08F01B50FF0A3E
:101198001914DF6E12000D6E0D50D8B4D6EF08F09A
:1011A800D8EF08F0FAEF08F008BEDFEF08F0DDEF3F
:1011B80008F0FAEF08F005C009F006C00AF007C009
:1011C8000BF008C00CF0091E0A1E0B1E0C1E092A83
:1011D800000E0A220B220C2209C00FF00AC010F0E0
:1011E8000BC011F00CC012F002EF09F005C00FF0AF
:1011F80006C010F007C011F008C012F00550061024
:1012080007100810D8A40BEF09F00DEF09F017EF3D
:1012180009F0000E056E000E066E000E076E000E39
:10122800086EA8EF09F0960E0E6E21EF09F00E2A4F
:10123800D8901232113210320F32000E0F14096E8C
:10124800000E10140A6E000E11140B6EFE0E12140E
:101258000C6E09500A100B100C10D8A436EF09F0C8
:1012680038EF09F01BEF09F046EF09F00E2A010EDE
:101278000F26000E102211221222D890123211329B
:1012880010320F32000E0F14096E000E10140A6E81
:10129800000E11140B6EFF0E12140C6E09500A107A
:1012A8000B100C10D8A45BEF09F05DEF09F03AEFD2
:1012B80009F065EF09F00E06D8900F361036113692
:1012C800123611BE6AEF09F06CEF09F074EF09F0FD
:1012D800020E0E6072EF09F074EF09F05FEF09F08B
:1012E8000EB079EF09F07BEF09F07CEF09F0119E61
:1012F800D8900E320EC009F00A6A0B6A0C6A09C04F
:101308000CF00B6A0A6A096A09500F120A50101287
:101318000B5011120C5012120D50D8B496EF09F060
:1013280098EF09F0A0EF09F008BE9FEF09F09DEFD4
:1013380009F0A0EF09F0128E0FC005F010C006F0FA
:1013480011C007F012C008F01200000E13141B6E33
:10135800000E14141C6E800E15141D6E7F0E1614CC
:101368001E6E1B501C101D101E10D8A4BEEF09F0D5
:10137800C0EF09F0C8EF09F0000E136E000E146EEE
:10138800000E156E000E166E000E17141B6E000E62
:1013980018141C6E800E19141D6E7F0E1A141E6E02
:1013A8001B501C101D101E10D8A4DDEF09F0DFEF34
:1013B80009F0E7EF09F0000E176E000E186E000E28
:1013C800196E000E1A6E16AEECEF09F0EEEF09F08A
:1013D800F7EF09F0136C141ED8B0142A151ED8B0F4
:1013E800152A800E16561AAEFCEF09F0FEEF09F02A
:1013F80007EF0AF0176C181ED8B0182A191ED8B0B3
:10140800192A800E1A56000E131A000E141A000E0E
:10141800151A800E161A000E171A000E181A000E4A
:10142800191A800E1A1A1750135C185014581950AC
:1014380015581A501658D8B024EF0AF026EF0AF0BB
:1014480029EF0AF0D8902AEF0AF0D8801200000E8F
:10145800106E0EBE34EF0AF032EF0AF03AEF0AF0DF
:101468000D6C0E1ED8B00E2A010E106E0CBE41EF88
:101478000AF03FEF0AF047EF0AF00B6C0C1ED8B0E9
:101488000C2A010E101A000E126E000E116E0D506D
:101498000E10D8B452EF0AF054EF0AF07CEF0AF0BD
:1014A800010E0F6E5CEF0AF0D8900D360E360F2A3B
:1014B8000EAE61EF0AF063EF0AF058EF0AF0D89029
:1014C800113612360D500B5C0E500C58D8A06FEF29
:1014D8000AF071EF0AF076EF0AF00D500B5E0E502D
:1014E8000C5A1180D8900E320D320F2E63EF0AF08D
:1014F8001050D8B482EF0AF084EF0AF088EF0AF0AF
:10150800116C121ED8B0122A11C00BF012C00CF0C8
:10151800120020EE01F01E50D9261F50DA22000ECC
:10152800DF6E20EE01F02050D9262150DA22000E7D
:10153800DF6EC1EF0AF01EC0D9FF1FC0DAFFDF2A35
:1015480020C0D9FF21C0DAFFDF2A1EC013F01FC058
:1015580014F0E5EC07F020C013F021C014F0E5EC1E
:1015680007F0090E236E1E0E226EE40EE82EFED73B
:10157800222EFCD7232EFAD700D01EC0D9FF1FC0B9
:10158800DAFF640EDF60CBEF0AF0CDEF0AF0D9EF97
:101598000AF020C0D9FF21C0DAFF630EDF64D7EF5D
:1015A8000AF0D9EF0AF09FEF0AF0120020EE01F0DE
:1015B8001E50D9261F50DA22010EDF6E20EE01F0F0
:1015C8002050D9262150DA22010EDF6E0EEF0BF0E3
:1015D8001EC0D9FF1FC0DAFFDF2A20C0D9FF21C0F3
:1015E800DAFFDF2A1EC013F01FC014F0E5EC07F085
:1015F80020C013F021C014F0E5EC07F0090E236EAB
:101608001E0E226EE40EE82EFED7222EFCD7232EC5
:10161800FAD700D01EC0D9FF1FC0DAFF640EDF6002
:1016280018EF0BF01AEF0BF026EF0BF020C0D9FFE4
:1016380021C0DAFF630EDF6424EF0BF026EF0BF016
:10164800ECEF0AF012007C8858EF0BF01EC0D9FFAF
:101658001FC0DAFFDF50F60F1EC0D9FF1FC0DAFF28
:10166800DF6E20C0D9FF21C0DAFFDF50F60F20C09F
:10167800D9FF21C0DAFFDF6E1EC013F01FC014F0BF
:10168800E5EC07F020C013F021C014F0E5EC07F0FA
:10169800090E236E1E0E226EE40EE82EFED7222EB1
:1016A800FCD7232EFAD700D01EC0D9FF1FC0DAFFFF
:1016B800DF50D8B462EF0BF064EF0BF070EF0BF073
:1016C80020C0D9FF21C0DAFFDF50D8A46EEF0BF09D
:1016D80070EF0BF02AEF0BF07C981200000E0B6EE7
:1016E800000E0A6E07500810D8B47DEF0BF07FEF9C
:1016F8000BF0A7EF0BF0010E096E87EF0BF0D890F7
:1017080007360836092A08AE8CEF0BF08EEF0BF07F
:1017180083EF0BF0D8900A360B360750055C08505B
:101728000658D8A09AEF0BF09CEF0BF0A1EF0BF046
:101738000750055E0850065A0A80D89008320732CA
:10174800092E8EEF0BF00AC005F00BC006F0120050
:1017580082820E019A93090E0D01F16F0E01298301
:101768001F83CEEC0DF0130E076E000EA1EC0DF0EA
:101778003F0E096E550EE82EFED7092EFCD700F055
:10178800040E076E0C0EA1EC0DF0140E076E040E7D
:10179800A1EC0DF0050E076E050EA1EC0DF06C0E18
:1017A800076E060EA1EC0DF0070E076E070EA1ECF2
:1017B8000DF0F28AF292F28CF28E12000BEC0EF01F
:1017C800520EEFEC0DF0B60EEFEC0DF001EC0EF052
:1017D800530EEFEC0DF0010EEEEC0CF00B6E0B500F
:1017E8000E6E0F6A000EEEEC0CF00B6E0B500D6EC9
:1017F8000C6A0E500C100E6E0F500D100F6E06EC8A
:101808000EF00EC009F00FC00AF012000BEC0EF03B
:10181800520EEFEC0DF0B80EEFEC0DF001EC0EF0FF
:10182800530EEFEC0DF0010EEEEC0CF00B6E0B50BE
:101838000E6E0F6A000EEEEC0CF00B6E0B500D6E78
:101848000C6A0E500C100E6E0F500D100F6E06EC39
:101858000EF00EC009F00FC00AF012000BEC0EF0EB
:10186800520EEFEC0DF0B40EEFEC0DF001EC0EF0B3
:10187800530EEFEC0DF0010EEEEC0CF00B6E0B506E
:101888000E6E0F6A000EEEEC0CF00B6E0B500D6E28
:101898000C6A0E500C100E6E0F500D100F6E06ECE9
:1018A8000EF00EC009F00FC00AF012000BEC0EF09B
:1018B800520EEFEC0DF0BA0EEFEC0DF001EC0EF05D
:1018C800530EEFEC0DF0010EEEEC0CF00B6E0B501E
:1018D8000E6E0F6A000EEEEC0CF00B6E0B500D6ED8
:1018E8000C6A0E500C100E6E0F500D100F6E06EC99
:1018F8000EF00EC009F00FC00AF01200056EBD50C0
:101908008F0B4009BD6EE00EBE16BF50F00B0109EB
:10191800BF6E05C0BCFFBD8E85948598839E879C4D
:101928007D947D987B9E7F9C000EA36E000EA06E1A
:10193800A48EA18E0A0E0E01746F0B0E696FF5EC62
:101948000DF010EC0EF0D9EC0DF01200E2EC0BF0FB
:1019580009C010F00AC011F00AEC0CF009C012F02E
:101968000AC013F05AEC0CF009C014F00AC015F0C4
:1019780032EC0CF009C016F00AC017F020EE10F097
:1019880000EE10F0070EDBCFEBFFE806FCE21200DA
:101998000E0133A3D2EF0CF0D4EF0CF0ECEF0CF007
:1019A800010E00019D6F7CAEDCEF0CF0E0EF0CF057
:1019B800036A032AE1EF0CF0036A033203327C5016
:1019C80003187F0B03187C6EE4EC0DF00E013393C3
:1019D80058921100076E44EC0DF00E01DA8744ECC2
:1019E8000DF0D5CE08F044EC0DF00750D8B4FFEF59
:1019F8000CF003EF0DF0066A062A04EF0DF0066AF4
:101A0800063A06460E01DA510618DF0B0618DA6F99
:101A1800DA89085012002FEC0DF0010E076E000E47
:101A2800A1EC0DF03F0E096E550EE82EFED7092EDB
:101A3800FCD700F0030E076E000EA1EC0DF0D50EDA
:101A4800076E010EA1EC0DF087928198869E000E1C
:101A580090EC0DF012000E01D951F00B0809D96F66
:101A6800D98B9F0ED66F848A848CA79BA79D1D0E49
:101A78001D6F1E0E1C6F1C0E6F6F1B0E706F1200F9
:101A88000E01D8B54AEF0DF04CEF0DF044EF0DF014
:101A9800DACE05F01F0E0516D8A455EF0DF057EF56
:101AA8000DF044EF0DF012000E01D8B55EEF0DF009
:101AB80060EF0DF058EF0DF0DACE01F01F0E0116B1
:101AC800D8A469EF0DF06BEF0DF058EF0DF0120090
:101AD80005500702F3CF09F0F4CF0AF005500802C9
:101AE800F3500A2606500702F3500A2609C005F0EB
:101AF8000AC006F0120000EE60F03E0EEE6AE8063C
:101B0800FDE100EE3BF01D0EEE6AE806FDE158909F
:101B18005892000146EF04F0056E05B002D07F929E
:101B280001D07F8205B002D07E9E01D07E8E05B0A6
:101B380002D0799801D079881200086E0BEC0EF06B
:101B4800520EEFEC0DF008508009EFEC0DF0075045
:101B5800EFEC0DF006EC0EF01200120E0E01626FA3
:101B6800110E156F8382E997E895330EE56F000E25
:101B7800E66FE789E88BE78F1200868C0E01B48D3B
:101B88000F015899FC0E58172E0E5F6F60946088ED
:101B9800608E12000BEC0EF0520EEFEC0DF0E60E1C
:101BA800EFEC0DF006EC0EF0120088928496849803
:101BB8008690889080927C967C987E908090120087
:101BC8001AEC0EF0520EFBEC0DF0E60EFBEC0DF0ED
:101BD80015EC0EF01200066E44EC0DF006C0D5FEB2
:101BE8001200868486860E01B495B4971200026EA0
:101BF80058EC0DF002C0D5FE120044EC0DF00E01B9
:101C0800DA83120044EC0DF00E01DA85120044EC80
:101C18000DF00E01DA811200849E88967C9E8096D3
:101C2800120058EC0DF00E01DA85120058EC0DF098
:061C38000E01DA8112002A
:020000040020DA
:10000000FF0FFF0FFF0FFF0FFF0FFF0FFF0FFF0F80
:020000040030CA
:0C000000AAFFFFFF9FFFFFFFFFFFFFFFB5
:00000001FF
