:0400000013EF00F00A
:060008005782ECEF0DF041
:100018005780E0CF07F007C0E0FF5790100028EFA7
:020028000EF0D8
:0F0E00000025692025692025692025690A000041
:100E100025C03DF026C03EF027C03FF028C040F07E
:100E200029C041F02AC042F02BC043F02CC044F04E
:100E300044BE1DEF07F020EF07F0010E21EF07F091
:100E4000000E3B6E3C6A3B503C10D8B42AEF07F0D2
:100E50002CEF07F03CEF07F0441E431E421E411EDC
:100E6000401E3F1E3E1E3D6C000E3E223F22402291
:100E7000412242224322442250BE41EF07F043EF79
:100E800007F044EF07F0519250BE51EF07F0505079
:100E900006E14F04D8B04FEF07F051EF07F057EFDE
:100EA00007F0000E386E010E376E5BEF07F04FC093
:100EB00037F050C038F0DCC039F0DDC03AF03B50BC
:100EC0003C10D8A466EF07F068EF07F06FEF07F06B
:100ED00051A46DEF07F06FEF07F072EF07F03906DE
:100EE000D8A03A06000E466E1F0E456E000E000199
:100EF000FF6FF7EF07F04506D8A04606E00E452441
:100F0000D96E000E4620DA6E3DC008F03EC009F0F2
:100F10003FC00AF040C00BF041C00CF042C00DF0E1
:100F200043C00EF044C00FF00A0E106E000E116E9A
:100F3000000E126E000E136E000E146E000E156E73
:100F4000000E166E000E176E15EC0AF008C02DF09C
:100F500009C02EF00AC02FF00BC030F00CC031F0E9
:100F60000DC032F00EC033F00FC034F02DC01AF0B7
:100F70002FC01BF0ACEC0DF01A50300FDF6E3706AF
:100F8000D8A038063906D8A03A063DC008F03EC0C1
:100F900009F03FC00AF040C00BF041C00CF042C065
:100FA0000DF043C00EF044C00FF00A0E106E000E9C
:100FB000116E000E126E000E136E000E146E000EF7
:100FC000156E000E166E000E176E51EC09F008C07B
:100FD0003DF009C03EF00AC03FF00BC040F00CC02D
:100FE00041F00DC042F00EC043F00FC044F046BEC9
:100FF00002EF08F0465008E14504D8A002EF08F0DF
:1010000004EF08F034EF08F03D503E103F10401060
:101010004110421043104410D8A411EF08F013EF10
:1010200008F07BEF07F038BE20EF08F0385006E1FB
:101030003704D8B01EEF08F020EF08F07BEF07F080
:101040003ABE2BEF08F03A5008E13904D8A02BEF54
:1010500008F02DEF08F034EF08F051B232EF08F04D
:1010600034EF08F07BEF07F03B503C10D8A43BEF87
:1010700008F03DEF08F044EF08F051A442EF08F00B
:1010800044EF08F062EF08F04506D8A046063B5052
:101090003C10D8A44EEF08F050EF08F056EF08F0DF
:1010A000000E366E2B0E356E5AEF08F0000E366EBF
:1010B0002D0E356EE00E4524D96E000E4620DA6EF8
:1010C00035C0DFFF23C018F024C019F0E00E45241E
:1010D0001A6E000E46201B6E39C01CF03AC01DF07F
:1010E0009EEC0BF018C023F019C024F0120049C088
:1010F000D9FF4AC0DAFFDECFF6FFDDCFF7FF0800E9
:10110000F550250AD8A487EF08F089EF08F035EFED
:1011100009F049C0D9FF4AC0DAFFDE2A000EDD22FD
:10112000000E0001DD6F000EDC6FDCC051F0DDC091
:1011300052F04F68506849C0D9FF4AC0DAFFDECF8D
:10114000F6FFDDCFF7FF0800F550640AD8B4ABEF27
:1011500008F0ADEF08F0BFEF08F049C0D9FF4AC072
:10116000DAFFDECFF6FFDDCFF7FF0800F550690AA2
:10117000D8A4BDEF08F0BFEF08F0FFEF08F049C0BA
:10118000D9FF4AC0DAFFDE2A000EDD224BC0D9FFAC
:101190004CC0DAFFDFCF4DF0020EDE26DFCF4EF07F
:1011A000000EDD224DC0D9FF4EC0DAFFDECF60F069
:1011B000DDCF61F0000E61BFFF0E626F636F646F81
:1011C000656F666F676F47C023F048C024F060C04A
:1011D00025F061C026F062C027F063C028F064C02B
:1011E00029F065C02AF066C02BF067C02CF008EC2F
:1011F00007F023C047F024C048F050EF09F049C081
:10120000D9FF4AC0DAFFDECFF6FFDDCFF7FF0800D7
:10121000F550250AD8A40FEF09F011EF09F028EFD7
:1012200009F049C0D9FF4AC0DAFFDE2A000EDD22EC
:10123000000E096E250E086E47C00AF048C00BF07C
:1012400039EC0BF0000E486E010E476E50EF09F0BE
:1012500049C0D9FF4AC0DAFFDE2A000EDD22000EA7
:10126000486E000E476E50EF09F049C0D9FF4AC0E2
:10127000DAFFDECFF6FFDDCFF7FF0800F550086E8E
:10128000096A47C00AF048C00BF039EC0BF049C0BE
:10129000D9FF4AC0DAFFDE2A000EDD2222EF09F074
:1012A0001200000E196E17BE5AEF09F058EF09F040
:1012B0006CEF09F0171E161E151E141E131E121EAB
:1012C000111E106C000E112212221322142215225C
:1012D00016221722010E196E0FBE73EF09F071EF7F
:1012E00009F085EF09F00F1E0E1E0D1E0C1E0B1EC1
:1012F0000A1E091E086C000E09220A220B220C226B
:101300000D220E220F22010E191A20EE1AF0070EDE
:10131000DE6AE806FDE210501110121013101410CE
:10132000151016101710D8B498EF09F09AEF09F0BD
:10133000ECEF09F0010E186EA8EF09F0D890103606
:101340001136123613361436153616361736182A55
:1013500017AEADEF09F0AFEF09F09EEF09F0D890AE
:101360001A361B361C361D361E361F3620362136E1
:101370001050085C1150095812500A5813500B585D
:1013800014500C5815500D5816500E5817500F5831
:10139000D8A0CDEF09F0CFEF09F0E0EF09F0105041
:1013A000085E1150095A12500A5A13500B5A145021
:1013B0000C5A15500D5A16500E5A17500F5A1A80C3
:1013C000D8901732163215321432133212321132CB
:1013D0001032182EAFEF09F01950D8B4F2EF09F01F
:1013E000F4EF09F004EF0AF0211E201E1F1E1E1E3E
:1013F0001D1E1C1E1B1E1A6C000E1B221C221D22F1
:101400001E221F22202221221AC008F01BC009F030
:101410001CC00AF01DC00BF01EC00CF01FC00DF068
:1014200020C00EF021C00FF01200000E196E0FBE8A
:101430001EEF0AF01CEF0AF030EF0AF00F1E0E1E2E
:101440000D1E0C1E0B1E0A1E091E086C000E092222
:101450000A220B220C220D220E220F22010E196EDF
:1014600017BE37EF0AF035EF0AF047EF0AF0171E04
:10147000161E151E141E131E121E111E106C000EB9
:101480001122122213221422152216221722105082
:101490001110121013101410151016101710D8B4C4
:1014A00054EF0AF056EF0AF09EEF0AF0010E186EA4
:1014B00064EF0AF0D890103611361236133614360F
:1014C000153616361736182A17AE69EF0AF06BEF85
:1014D0000AF05AEF0AF01050085C115009581250E7
:1014E0000A5813500B5814500C5815500D581650DC
:1014F0000E5817500F58D8A080EF0AF082EF0AF06C
:1015000092EF0AF01050085E1150095A12500A5A10
:1015100013500B5A14500C5A15500D5A16500E5A9F
:1015200017500F5AD8901732163215321432133220
:10153000123211321032182E6BEF0AF01950D8B453
:10154000A4EF0AF0A6EF0AF0B6EF0AF00F1E0E1E87
:101550000D1E0C1E0B1E0A1E091E086C000E092211
:101560000A220B220C220D220E220F2208C008F0A4
:1015700009C009F00AC00AF00BC00BF00CC00CF057
:101580000DC00DF00EC00EF00FC00FF01200F9EC00
:101590000EF0CCEC0DF0ACEC0EF0CCEC0EF088962E
:1015A000809620EEAEF000EE13F0070EDBCFEBFFDF
:1015B000E806FCE269EC0DF020EEAEF0070EEBCF92
:1015C000DBFFE806FCE2010E9BEC0EF020EEBEF025
:1015D00000EE13F0070EDBCFEBFFE806FCE269EC50
:1015E0000DF020EEBEF0070EEBCFDBFFE806FCE2CD
:1015F000BEC0B6F0BFC0B7F0C0C0B8F0C1C0B9F04F
:10160000C2C0BAF0C3C0BBF0C4C0BCF0C5C0BDF01E
:10161000860E0001706F000E716F010E726F0E0E5C
:10162000736FB6C074F0B7C075F0B8C076F0B9C0CB
:1016300077F0BAC078F0BBC079F0BCC07AF0BDC01A
:101640007BF030EC0CF0860E0A6E000E0B6E0CEC8C
:101650000EF0290E0001856F960E846F7F0EE82E26
:10166000FED7842FFCD7852FFAD7E6EF0AF013EFC9
:1016700000F00A500B10D8B440EF0BF042EF0BF023
:101680004BEF0BF00A500B10D8A449EF0BF04BEFC7
:101690000BF050EF0BF0085043EC0FF09DEF0BF008
:1016A00020EE04F00A50D9260B50DA22DE50DE106C
:1016B000D8B45DEF0BF05FEF0BF07AEF0BF020EE9C
:1016C00004F00A50D9260B50DA2210EE02F00A502C
:1016D000E1260B50E222DE50E65CE650800A106EF6
:1016E000DE50800A1058D8B078EF0BF07AEF0BF08C
:1016F0009DEF0BF020EE02F00A50D9260B50DA22B3
:10170000DECF0CF0DDCF0DF00AC0D9FF0BC0DAFF41
:10171000DECF0EF0DDCF0FF00C500E24D96E0D5041
:101720000F20DA6E08C0DFFF20EE02F00A50D92643
:101730000B50DA22DE2A000EDD22120051A0A3EFA8
:101740000BF0A5EF0BF0AFEF0BF01AC011F01BC0C0
:1017500012F018C013F019C014F047EC0DF01DBEC4
:10176000B4EF0BF0B6EF0BF0BCEF0BF01CC021F0A8
:101770001DC022F0C0EF0BF0000E226E000E216E95
:10178000000E206E000E1F6ED2EF0BF0000E096EE1
:10179000200E086E18C00AF019C00BF039EC0BF0DF
:1017A0001F4A202A21501F5C2050800A1E6E2250A2
:1017B000800A1E58D8A0DFEF0BF0E1EF0BF0C6EF68
:1017C0000BF051B0E6EF0BF0E8EF0BF0F2EF0BF09F
:1017D0001AC011F01BC012F018C013F019C014F099
:1017E00047EC0DF01AC008F01BC009F043EC0EF0F6
:1017F00021500824186E22500920196E12006AC068
:101800006EF06BC06FF0000E0001DB6F000EDA6F40
:101810001DEF0CF068C047F069C048F06E0E496ECD
:10182000000E4A6E6CC04BF06DC04CF077EC08F0C7
:1018300047500001DA274850DB236EC0F6FF6FC027
:10184000F7FF0800F5500009D8A429EF0CF02BEFA2
:101850000CF00AEF0CF0DAC068F0DBC069F012009F
:10186000740E00017C6F000E7D6F70C07EF071C041
:101870007FF0000E816F000E806F000E836F000EF0
:10188000826F7E0E686F000E696F72C06AF073C05F
:101890006BF07C0E6C6F000E6D6FFFEC0BF00001B7
:1018A00080517025D96E81517121DA6E000EDF6E84
:1018B000120034EC0FF0520E1EEC0FF0B60E1EECC0
:1018C0000FF02AEC0FF0530E1EEC0FF0010E8BEC14
:1018D0000DF00E6E0E50116E126A000E8BEC0DF0B4
:1018E0000E6E0E50106E0F6A11500F10116E1250C6
:1018F0001010126E2FEC0FF011C00CF012C00DF092
:10190000120034EC0FF0520E1EEC0FF0B80E1EEC6D
:101910000FF02AEC0FF0530E1EEC0FF0010E8BECC3
:101920000DF00E6E0E50116E126A000E8BEC0DF063
:101930000E6E0E50106E0F6A11500F10116E125075
:101940001010126E2FEC0FF011C00CF012C00DF041
:10195000120034EC0FF0520E1EEC0FF0B40E1EEC21
:101960000FF02AEC0FF0530E1EEC0FF0010E8BEC73
:101970000DF00E6E0E50116E126A000E8BEC0DF013
:101980000E6E0E50106E0F6A11500F10116E125025
:101990001010126E2FEC0FF011C00CF012C00DF0F1
:1019A000120034EC0FF0520E1EEC0FF0BA0E1EECCB
:1019B0000FF02AEC0FF0530E1EEC0FF0010E8BEC23
:1019C0000DF00E6E0E50116E126A000E8BEC0DF0C3
:1019D0000E6E0E50106E0F6A11500F10116E1250D5
:1019E0001010126E2FEC0FF011C00CF012C00DF0A1
:1019F0001200130E0A6E000EBCEC0EF03F0E0C6EC1
:101A0000550EE82EFED70C2EFCD700F0040E0A6E01
:101A10000C0EBCEC0EF0140E0A6E040EBCEC0EF0B4
:101A2000050E0A6E050EBCEC0EF06C0E0A6E060E6C
:101A3000BCEC0EF0070E0A6E070EBCEC0EF01200A6
:101A4000130E036E000EDCEC0EF03F0E056E550E0D
:101A5000E82EFED7052EFCD700F0040E036E0C0E08
:101A6000DCEC0EF0140E036E040EDCEC0EF0050E32
:101A7000036E050EDCEC0EF06C0E036E060EDCEC55
:101A80000EF0070E036E070EDCEC0EF01200000ED7
:101A9000176E000E166E58EF0DF015C008F0096AAB
:101AA00013C00AF014C00BF039EC0BF0164A172AD9
:101AB00016501124D96E17501220DA6EDF50156EB1
:101AC0001550D8A466EF0DF068EF0DF04DEF0DF056
:101AD000120059EC0CF00CC013F00DC014F081ECA6
:101AE0000CF00CC015F00DC016F0D1EC0CF00CC0D1
:101AF00017F00DC018F0A9EC0CF00CC019F00DC0D7
:101B00001AF020EE13F000EE13F0070EDBCFEBFF20
:101B1000E806FCE212000A6E73EC0EF00E01DA87A2
:101B200073EC0EF0D5CE0BF073EC0EF00A50D8B477
:101B30009CEF0DF0A0EF0DF0096A092AA1EF0DF05E
:101B4000096A093A09460E01DA510918DF0B09182A
:101B5000DA6FDA890B5012001BBEB9EF0DF01B5083
:101B600006E11A04D8B0B7EF0DF0B9EF0DF0C7EFEA
:101B70000DF01AC01CF01BC01DF01C1E1D1E1C4ABF
:101B80001D2A1CC01AF01DC01BF0CBEF0DF01AC0AF
:101B90001AF01BC01BF012005EEC0EF0010E0A6E74
:101BA000000EBCEC0EF03F0E0C6E550EE82EFED76C
:101BB0000C2EFCD700F0030E0A6E000EBCEC0EF0EB
:101BC000D50E0A6E010EBCEC0EF087928198869EAF
:101BD000010E9BEC0EF012000E0133A3F2EF0DF09C
:101BE000F4EF0DF00AEF0EF080A6F9EF0DF0FDEF27
:101BF0000DF0066A062AFEEF0DF0066A0646064656
:101C0000064680500618F70B0618806E06EC0FF09B
:101C10000E013393579211001BEF0EF00AC0D9FF4B
:101C20000BC0DAFFDF500C6E0C50086E096A13EC23
:101C30000FF00A4A0B2A0AC0D9FF0BC0DAFFDF50A7
:101C4000D8A425EF0EF027EF0EF00EEF0EF01200E5
:101C500001EE00F03C0EEE6AE806FDE100EEC6F093
:101C60003A0EEE6AE806FDE100EE4FF0080EEE6A6D
:101C7000E806FDE157905792000EF86E0E0EF76ED3
:101C80000001C7EF0AF008C00AF009C00BF04BEFE3
:101C90000EF0084A092A08C0D9FF09C0DAFFDF5050
:101CA000D8A455EF0EF057EF0EF049EF0EF00A50A2
:101CB000085C086E0B500958096E12000E01D951CC
:101CC000F00B0809D96FD98B9F0ED66F848A848C4C
:101CD000A79BA79D1D0E1D6F1E0E1C6F1C0E6F6F08
:101CE0001B0E706F12000E01D8B579EF0EF07BEF6E
:101CF0000EF073EF0EF0DACE08F01F0E0816D8A41F
:101D000084EF0EF086EF0EF073EF0EF012000E016E
:101D1000D8B58DEF0EF08FEF0EF087EF0EF0DACE24
:101D200001F01F0E0116D8A498EF0EF09AEF0EF0F6
:101D300087EF0EF01200086E08B002D07F9201D03B
:101D40007F8208B002D07E9E01D07E8E08B002D085
:101D5000799801D07988120082820E019A93090E37
:101D60000D01F16F0E0129831F83ECEC0EF0F28A56
:101D7000F292F28CF28E12000B6E34EC0FF0520ED7
:101D80001EEC0FF00B5080091EEC0FF00A501EECF9
:101D90000FF02FEC0FF01200120E0E01626F110EF9
:101DA000156F8382E997E895330EE56F000EE66FB5
:101DB000E789E88BE78F1200046E3EEC0FF0520EBD
:101DC00024EC0FF00450800924EC0FF0035024ECB5
:101DD0000FF039EC0FF0120034EC0FF0520E1EEC45
:101DE0000FF0E60E1EEC0FF02FEC0FF0F9EC0CF0FC
:101DF0001200868C0E01B48D0F015899FC0E5817F5
:101E00002E0E5F6F60946088608E12003EEC0FF0C3
:101E1000520E24EC0FF0E60E24EC0FF039EC0FF02C
:101E200020EC0DF012000E0137A519EF0FF01BEF9B
:101E30000FF013EF0FF008C0E4FE1200096E73EC10
:101E40000EF009C0D5FE1200026E87EC0EF002C043
:101E5000D5FE120073EC0EF00E01DA83120073EC63
:101E60000EF00E01DA85120073EC0EF00E01DA812D
:101E7000120087EC0EF00E01DA85120087EC0EF0EE
:081E80000E01DA8112001200CC
:020000040020DA
:10000000FF0FFF0FFF0FFF0FFF0FFF0FFF0FFF0F80
:020000040030CA
:0C000000AAFFFFFF9FFFFFFFFFFFFFFFB5
:00000001FF
