:040000002CEF00F0F1
:06000800578215EF1FF006
:100018005780D8CF06F0E8CF07F0E0CF08F00E0100
:1000280033AB19EF00F01BEF00F024EF00F00001F4
:10003800DB4BDC2B3C0ED46EAF0ED36E0E01339B24
:1000480008C0E0FF07C0E8FF06C0D8FF57901000BF
:0400580089EF1EF01E
:100E000000524742433A2025692025692025692060
:100E100025692020202020524742435F72656C3AAA
:100E200020252E336620252E336620252E3366207E
:100E300020202020436F6C6F75723A2025730A0DB5
:100E400000524742433A2025692025692025692020
:100E5000256920202020205468726573686F6C64B7
:100E60003A2025692025692025690A0D006C6967EB
:100E7000687420626C756500756E6B6E6F776E00BE
:100E80006F72616E67650079656C6C6F770077686B
:100E900069746500677265656E0070696E6B0072DB
:100EA000656400000E01299382C014F083C015F020
:100EB00007EC1DF082C06DF083C06EF08A0E000159
:100EC0006F6F000E706F3BEC18F0710E176E3D0ED9
:100ED000186E0A0E196E3F0E1A6E8AC01BF08BC078
:100EE0001CF08CC01DF08DC01EF0A4EC19F0D8B021
:100EF0007CEF07F07EEF07F0FAEF07F08EC017F0F7
:100F00008FC018F090C019F091C01AF0480E1B6EF7
:100F1000E10E1C6E7A0E1D6E3E0E1E6EA4EC19F0D4
:100F2000D8B095EF07F097EF07F0FAEF07F092C00F
:100F300017F093C018F094C019F095C01AF0EC0E99
:100F40001B6E510E1C6E380E1D6E3E0E1E6EA4ECF6
:100F500019F0D8B0AEEF07F0B0EF07F0FAEF07F0F6
:100F600082C016F083C017F0030E186EF9EC18F06B
:100F700082C06DF083C06EF08A0E00016F6F000EAC
:100F8000706F3BEC18F08EC017F08FC018F090C057
:100F900019F091C01AF0A40E1B6E700E1C6E3D0E5F
:100FA0001D6E3E0E1E6EA4EC19F0D8B0DAEF07F0FD
:100FB000DCEF07F0EBEF07F084C07DF085C07EF03A
:100FC00086C07FF087C080F0010E0001816F7DEC4C
:100FD00010F037EF0AF084C07DF085C07EF086C047
:100FE0007FF087C080F0060E0001816F7DEC10F06D
:100FF00037EF0AF08AC017F08BC018F08CC019F0D8
:101000008DC01AF0AE0E1B6E470E1C6EE10E1D6EEB
:101010003E0E1E6EA4EC19F0D8B011EF08F013EFDD
:1010200008F0CAEF08F09A0E176E990E186E990E16
:10103000196E3E0E1A6E8EC01BF08FC01CF090C051
:101040001DF091C01EF0A4EC19F0D8B02AEF08F002
:101050002CEF08F0CAEF08F0140E176EAE0E186EE3
:10106000470E196E3E0E1A6E92C01BF093C01CF014
:1010700094C01DF095C01EF0A4EC19F0D8B043EF59
:1010800008F045EF08F0CAEF08F082C016F083C000
:1010900017F0010E186EF9EC18F082C06DF083C0E5
:1010A0006EF08A0E00016F6F000E706F3BEC18F04F
:1010B00092C017F093C018F094C019F095C01AF0C0
:1010C000000E1B6E000E1C6E000E1D6E3E0E1E6E80
:1010D000A4EC19F0D8B06FEF08F071EF08F080EFD2
:1010E00008F084C07DF085C07EF086C07FF087C0A8
:1010F00080F0020E0001816F7DEC10F037EF0AF0F6
:1011000082C016F083C017F0020E186EF9EC18F0CA
:1011100082C06DF083C06EF08A0E00016F6F000E0A
:10112000706F3BEC18F08AC017F08BC018F08CC0C1
:1011300019F08DC01AF01F0E1B6E850E1C6EEB0E83
:101140001D6E3D0E1E6EA4EC19F0D8B0AAEF08F08B
:10115000ACEF08F0BBEF08F084C07DF085C07EF0F6
:1011600086C07FF087C080F0030E0001816F7DECA8
:1011700010F037EF0AF084C07DF085C07EF086C0A5
:101180007FF087C080F0070E0001816F7DEC10F0CA
:1011900037EF0AF0480E176EE10E186EFA0E196E50
:1011A0003E0E1A6E8AC01BF08BC01CF08CC01DF066
:1011B0008DC01EF0A4EC19F0D8B0E1EF08F0E3EF19
:1011C00008F024EF09F0850E176EEB0E186E910EE5
:1011D000196E3E0E1A6E8EC01BF08FC01CF090C0B0
:1011E0001DF091C01EF0A4EC19F0D8B0FAEF08F091
:1011F000FCEF08F024EF09F0EC0E176E510E186E9C
:10120000380E196E3E0E1A6E92C01BF093C01CF081
:1012100094C01DF095C01EF0A4EC19F0D8B013EFE7
:1012200009F015EF09F024EF09F084C07DF085C0C6
:101230007EF086C07FF087C080F0040E0001816FD1
:101240007DEC10F037EF0AF0480E176EE10E186EC5
:10125000FA0E196E3E0E1A6E8AC01BF08BC01CF07F
:101260008CC01DF08DC01EF0A4EC19F0D8B03BEF7F
:1012700009F03DEF09F07EEF09F08EC017F08FC046
:1012800018F090C019F091C01AF0CD0E1B6ECC0E64
:101290001C6E8C0E1D6E3E0E1E6EA4EC19F0D8B0A6
:1012A00054EF09F056EF09F07EEF09F0140E176EB7
:1012B000AE0E186E470E196E3E0E1A6E92C01BF0DF
:1012C00093C01CF094C01DF095C01EF0A4EC19F062
:1012D000D8B06DEF09F06FEF09F07EEF09F084C030
:1012E0007DF085C07EF086C07FF087C080F0050E5F
:1012F0000001816F7DEC10F037EF0AF08AC017F023
:101300008BC018F08CC019F08DC01AF0D70E1B6E70
:10131000A30E1C6EF00E1D6E3E0E1E6EA4EC19F098
:10132000D8B095EF09F097EF09F0D0EF09F03D0E36
:10133000176E0A0E186E970E196E3E0E1A6E8EC03C
:101340001BF08FC01CF090C01DF091C01EF0A4ECEB
:1013500019F0D8B0AEEF09F0B0EF09F0D0EF09F016
:101360003D0E176E0A0E186E570E196E3E0E1A6E4F
:1013700092C01BF093C01CF094C01DF095C01EF0ED
:10138000A4EC19F0D8B0C7EF09F0C9EF09F0D0EF1D
:1013900009F0000E0001DE6F010EDD6F37EF0AF07D
:1013A000520E0001896F2B0E886F000EE82EFED7BB
:1013B000882FFCD7892FFAD700F084C022F085C08F
:1013C00023F086C024F087C025F04CEC1CF0D00E32
:1013D0000001886FC90EE82EFED7882FFCD700D0F9
:1013E00084C022F085C023F086C024F087C025F099
:1013F00093EC1CF082C014F083C015F007EC1DF0D4
:10140000000120EE06F08251D9268351DA22555090
:10141000DE5C5650DE58D8A010EF0AF012EF0AF04A
:1014200023EF0AF020EE06F08251D9268351DA220A
:10143000DE50535CDE505458D8B021EF0AF023EF51
:101440000AF035EF0AF0030EDE6129EF0AF02BEF08
:101450000AF030EF0AF0DE2B0E01338337EF0AF08B
:101460008086010EDD6F37EF0AF0000EDE6F0E0191
:10147000298312003350800B3C6E335033243E6E70
:1014800032AE45EF0AF047EF0AF048EF0AF03E802F
:101490003E50D8B44EEF0AF050EF0AF065EF0AF074
:1014A0003E28D8A456EF0AF058EF0AF060EF0AF091
:1014B000000E306E000E316E000E326E000E336E76
:1014C000328E000E336E6DEF0AF0000E306E000E9D
:1014D000316E000E326E000E336E3750800B3D6E53
:1014E0003C503D18D8B477EF0AF079EF0AF07AEF64
:1014F0000AF03C8C375037243D6E36AE82EF0AF04E
:1015000084EF0AF085EF0AF03D803D50D8B48BEFB0
:101510000AF08DEF0AF0A2EF0AF03D28D8A493EF6D
:101520000AF095EF0AF09DEF0AF0000E346E000EFF
:10153000356E000E366E000E376E368E000E376E2C
:10154000AAEF0AF0000E346E000E356E000E366EF5
:10155000000E376E3E503D5CD8B0B1EF0AF0B3EFED
:101560000AF0DAEF0AF03CACB8EF0AF0BAEF0AF092
:10157000BCEF0AF0800E3C1A3EC03FF03DC03EF08A
:101580003FC03DF030C03FF034C030F03FC034F0D9
:1015900031C03FF035C031F03FC035F032C03FF0D0
:1015A00036C032F03FC036F033C03FF037C033F0C2
:1015B0003FC037F0000E3F6E3E503DC038F0396AF4
:1015C000385E000E395A39BEEFEF0AF0395009E1A2
:1015D0001A0E385CD8A0EFEF0AF0F1EF0AF028EF0E
:1015E0000BF03050311032103310D8A4FAEF0AF05B
:1015F000FDEF0AF0010EFEEF0AF0000E3F6E000E46
:10160000306E000E316E000E326E000E336E3DC035
:101610003EF031EF0BF03FA010EF0BF012EF0BF0AC
:1016200018EF0BF0D8903F3001093F6E1AEF0BF026
:10163000D8903F3230A01FEF0BF021EF0BF022EFDC
:101640000BF03F8E333433323232313230323E2A75
:101650003D503E5CD8A02FEF0BF031EF0BF00BEFBD
:101660000BF03CBC36EF0BF038EF0BF078EF0BF0E3
:101670003E50D8A43EEF0BF040EF0BF04AEF0BF0DA
:10168000000E306E000E316E000E326E000E336EA4
:1016900099EF0CF03450302635503122365032223A
:1016A0003750332233A057EF0BF059EF0BF005EF13
:1016B0000CF03FA05EEF0BF060EF0BF066EF0BF06D
:1016C000D8903F3001093F6E68EF0BF0D8903F3261
:1016D00030A06DEF0BF06FEF0BF070EF0BF03F8E63
:1016E000333433323232313230323E2A05EF0CF0AD
:1016F0003450305C35503158365032583350800AAF
:10170000386E3750800A3858D8B089EF0BF08BEF1D
:101710000BF0B6EF0BF03050345C386E315035586A
:10172000396E325036583A6E335037583B6EFF0E92
:101730003824306EFF0E3920316EFF0E3A20326EA3
:10174000FF0E3B20336E800E3C1A3F6C3F50D8A4F6
:10175000ACEF0BF0AEEF0BF0BEEF0BF0010E30264E
:10176000000E312232223322BEEF0BF03450305EB5
:101770003550315A3650325A3750335A3050311072
:1017800032103310D8A4C7EF0BF0C9EF0BF0FEEF07
:101790000BF03F50D8A4CFEF0BF0D1EF0BF0FEEFE2
:1017A0000BF0000E306E000E316E000E326E000E29
:1017B000336E99EF0CF0D8903036313632363336FE
:1017C0003FAEE5EF0BF0E7EF0BF0E8EF0BF030800A
:1017D0003FA0EDEF0BF0EFEF0BF0F3EF0BF0D88045
:1017E0003F36F5EF0BF0D8903F363E50D8B4FBEFC4
:1017F0000BF0FDEF0BF0FEEF0BF03E0632AE03EF09
:101800000CF005EF0CF0DBEF0BF0000E3D6E3FAE81
:101810000CEF0CF00EEF0CF026EF0CF03FC038F0A0
:101820007F0E3816D8B417EF0CF019EF0CF01DEF3F
:101830000CF0010E3D6E26EF0CF030A022EF0CF004
:1018400024EF0CF026EF0CF019EF0CF03D50D8B45B
:101850002CEF0CF02EEF0CF059EF0CF0010E3026AF
:10186000000E31223222332233A039EF0CF03BEF4D
:101870000CF059EF0CF030C038F031C039F032C004
:101880003AF033C03BF03B343B323A3239323832F3
:1018900038C030F039C031F03AC032F03BC033F0DC
:1018A0003E28D8B456EF0CF058EF0CF059EF0CF07E
:1018B0003E2A3E28D8B45FEF0CF061EF0CF069EFE0
:1018C0000CF03E50D8A467EF0CF069EF0CF07BEF02
:1018D0000CF0000E306E000E316E000E326E000EF7
:1018E000336E3E50D8A477EF0CF079EF0CF07BEF1D
:1018F0000CF0000E3C6E3EA080EF0CF082EF0CF07E
:1019000085EF0CF0328E86EF0CF0329ED8903E3090
:10191000336E3CAE8EEF0CF090EF0CF091EF0CF0CC
:10192000338E30C030F031C031F032C032F033C0CD
:1019300033F012001A50800B236E1A501A24296EAD
:1019400019AEA5EF0CF0A7EF0CF0A8EF0CF0298072
:101950002950D8B4AEEF0CF0B0EF0CF0C3EF0CF0A0
:101960002928D8A4B6EF0CF0B8EF0CF0C0EF0CF0BB
:10197000000E176E000E186E000E196E000E1A6E15
:10198000198ECBEF0CF0000E176E000E186E000EC5
:10199000196E000E1A6E1E50800B231A1E501E2444
:1019A000286E1DAED6EF0CF0D8EF0CF0D9EF0CF08E
:1019B00028802850D8B4DFEF0CF0E1EF0CF0F4EF02
:1019C0000CF02828D8A4E7EF0CF0E9EF0CF0F1EFC9
:1019D0000CF0000E1B6E000E1C6E000E1D6E000E35
:1019E0001E6E1D8EFCEF0CF0000E1B6E000E1C6EAA
:1019F000000E1D6E000E1E6E2850D8B402EF0DF0C2
:101A000004EF0DF00CEF0DF02950D8A40AEF0DF003
:101A10000CEF0DF016EF0DF0000E176E000E186EA5
:101A2000000E196E000E1A6EAEEF0EF01D5017026A
:101A3000F3CF2EF0F4CF2FF02E50246E256A266AB5
:101A4000276A2F502A6E2B6A2C6A2D6A1C501802A6
:101A5000F3CF2EF0F4CF2FF02E502426000E2522A7
:101A6000262227222F502A26000E2B222C222D221E
:101A70001B501902F3CF2EF0F4CF2FF02E50242656
:101A8000000E2522262227222F502A26000E2B2246
:101A90002C222D2226C027F025C026F024C025F0B8
:101AA000246A1B501802F3CF2EF0F4CF2FF02E50E3
:101AB00024262F502522000E2622000E27221C50FD
:101AC0001702F3CF2EF0F4CF2FF02E5024262F50F4
:101AD0002522000E2622000E272226C027F025C030
:101AE00026F024C025F0246A1B501702F3CF2EF0F5
:101AF000F4CF2FF02E5024262F502522000E262220
:101B0000000E27221D501802F3CF2EF0F4CF2FF035
:101B10002E502A262F502B22000E2C22000E2D2272
:101B20001C501902F3CF2EF0F4CF2FF02E502A269E
:101B30002F502B22000E2C22000E2D221D50190298
:101B4000F3CF2EF0F4CF2FF02E501F6E2F50206EBB
:101B5000216A226A21C022F020C021F01FC020F09B
:101B60001F6A1F502A2620502B2221502C2222503F
:101B70002D2224C01FF025C020F026C021F027C050
:101B800022F0190EC9EF0DF0D89022322132203206
:101B90001F32E82EC4EF0DF01F502A2620502B22B2
:101BA00021502C2222502D2226C027F025C026F0BD
:101BB00024C025F0246A285029C01FF0206A1F265F
:101BC000000E2022820E1F242E6EFF0E20202F6E6C
:101BD000FFEF0DF0D8902A362B362C362D3627AE57
:101BE000F4EF0DF0F6EF0DF0F7EF0DF02A80D8903E
:101BF00024362536263627362E06D8A02F062CAEBC
:101C000004EF0EF006EF0EF0EAEF0DF0000E286E76
:101C100027AE0DEF0EF00FEF0EF033EF0EF0FF0ECC
:101C200024141F6EFF0E2514206EFF0E2614216E45
:101C30007F0E2714226E1F50201021102210D8B4BE
:101C400024EF0EF026EF0EF02AEF0EF0010E286EB4
:101C500033EF0EF02AA02FEF0EF031EF0EF033EF3E
:101C60000EF026EF0EF02850D8B439EF0EF03BEF0F
:101C70000EF05FEF0EF0010E2A26000E2B222C2212
:101C80002D222DA046EF0EF048EF0EF05FEF0EF084
:101C90002AC01FF02BC020F02CC021F02DC022F054
:101CA00022342232213220321F321FC02AF020C0BB
:101CB0002BF021C02CF022C02DF02E4A2F2A2FBE4F
:101CC0006AEF0EF02F5008E12E28D8A06AEF0EF030
:101CD0006CEF0EF076EF0EF0000E2A6E000E2B6EFB
:101CE000800E2C6E7F0E2D6EA4EF0EF02FBE83EFB4
:101CF0000EF02F5006E12E04D8B081EF0EF083EFE6
:101D00000EF08FEF0EF0000E2A6E000E2B6E000EFE
:101D10002C6E000E2D6E000E236EA4EF0EF02EC062
:101D200029F0FF0E2A16FF0E2B167F0E2C16000E22
:101D30002D1629A09EEF0EF0A0EF0EF0A1EF0EF0F1
:101D40002C8ED89029302D6E23502D122AC017F0DA
:101D50002BC018F02CC019F02DC01AF012004350FF
:101D6000800B0001646F435043246B6F42AEBBEFA6
:101D70000EF0BDEF0EF0BEEF0EF06B816B51D8B4DC
:101D8000C4EF0EF0C6EF0EF0DBEF0EF06B29D8A417
:101D9000CCEF0EF0CEEF0EF0D6EF0EF0000E406E50
:101DA000000E416E000E426E000E436E428E000E1B
:101DB000436EE3EF0EF0000E406E000E416E000E1B
:101DC000426E000E436E4750800B641B4750472401
:101DD0006C6F46AEEEEF0EF0F0EF0EF0F1EF0EF09E
:101DE0006C816C51D8B4F7EF0EF0F9EF0EF00EEFF6
:101DF0000FF06C29D8A4FFEF0EF001EF0FF009EF00
:101E00000FF0000E446E000E456E000E466E000E82
:101E1000476E468E000E476E16EF0FF0000E446EB2
:101E2000000E456E000E466E000E476E4450451083
:101E300046104710D8A41FEF0FF021EF0FF039EF35
:101E40000FF0000E406E000E416E000E426E000E4E
:101E5000436E800E42127F0E43126451431240C003
:101E600040F041C041F042C042F043C043F07CEF3B
:101E700010F06B51D8A43FEF0FF041EF0FF04BEF94
:101E80000FF0000E406E000E416E000E426E000E0E
:101E9000436E7CEF10F06C516BC048F0496A485EAD
:101EA000000E495A7F0E4824656F000E4920666F68
:101EB00040C060F041C061F042C062F043C063F0D6
:101EC000000E406E000E416E000E426E000E436E1C
:101ED000000E676F000E686F000E696F000E6A6F6C
:101EE000000E6C6FACEF0FF06C51D8B47AEF0FF0BE
:101EF0007CEF0FF093EF0FF0D890603761376237C7
:101F00006337D89040364136423643366AAF8BEF5E
:101F10000FF08DEF0FF08EEF0FF04080D890673705
:101F2000683769376A374450605D4550615946509B
:101F3000625947506359D8A0A0EF0FF0A2EF0FF0FD
:101F4000ABEF0FF06A8D4450605F4550615B4650C7
:101F5000625B4750635B6C2B190E6C65B2EF0FF040
:101F6000B4EF0FF074EF0FF0605161116211631163
:101F7000D8B4BDEF0FF0BFEF0FF0D7EF0FF06781D0
:101F8000D7EF0FF0D89040364136423643366AAF2D
:101F9000CCEF0FF0CEEF0FF0CFEF0FF04080D890E6
:101FA0006737683769376A376507D8A0660742AE72
:101FB000DCEF0FF0DEEF0FF0C2EF0FF0000E6C6FF2
:101FC0006AAFE5EF0FF0E7EF0FF00BEF10F0FF0E49
:101FD0006715486EFF0E6815496EFF0E69154A6E4B
:101FE0007F0E6A154B6E485049104A104B10D8B4FA
:101FF000FCEF0FF0FEEF0FF002EF10F0010E6C6F30
:102000000BEF10F040A007EF10F009EF10F00BEF0E
:1020100010F0FEEF0FF06C51D8B411EF10F013EF89
:1020200010F037EF10F0010E4026000E4122422240
:10203000432243A01EEF10F020EF10F037EF10F016
:1020400040C048F041C049F042C04AF043C04BF0A4
:102050004B344B324A324932483248C040F049C0D2
:1020600041F04AC042F04BC043F0654B662B66BF5F
:1020700042EF10F0665108E16529D8A042EF10F058
:1020800044EF10F04FEF10F0000E666F6569000E20
:10209000406E000E416E000E426E000E436E66BF33
:1020A0005CEF10F0665106E16505D8B05AEF10F00C
:1020B0005CEF10F06AEF10F0000E666F000E656FB7
:1020C000000E406E000E416E000E426E000E436E1A
:1020D000000E646F65C06BF06BA171EF10F073EFD1
:1020E00010F076EF10F0428E77EF10F0429ED8900D
:1020F0006B31436E2DEF0FF012000001DD51D8A4BB
:1021000084EF10F086EF10F0A3EF10F07DC028F000
:102110007EC029F07FC02AF080C02BF0D8EC1CF0E4
:10212000000E0001DE6F81514D6E4E6AE151020DCD
:10213000B30EF324D96E000EF420DA6E4DC0DEFF2C
:102140004EC0DDFFE12B8105D8A4A9EF10F0ABEF65
:1021500010F0C5EF10F07DC06DF07EC06EF07FC056
:102160006FF080C070F0000E726F5A0E716F71ECDC
:1021700014F07DC022F07EC023F07FC024F080C028
:1021800025F093EC1CF0E7EF11F0020E8119D8A4B2
:10219000CCEF10F0CEEF10F0E8EF10F07DC06DF056
:1021A0007EC06EF07FC06FF080C070F0000E726F66
:1021B0005A0E716F74EC15F07DC022F07EC023F0D2
:1021C0007FC024F080C025F093EC1CF0E7EF11F005
:1021D000030E8119D8A4EFEF10F0F1EF10F00BEF20
:1021E00011F07DC06DF07EC06EF07FC06FF080C0DA
:1021F00070F0000E726FB40E716F71EC14F07DC050
:1022000022F07EC023F07FC024F080C025F093EC44
:102210001CF0E7EF11F0040E8119D8A412EF11F0B1
:1022200014EF11F05BEF11F07DC022F07EC023F0BF
:102230007FC024F080C025F005EC1CF0720E4E6EBD
:10224000A30E4D6E9B0EE82EFED74D2EFCD74E2EC4
:10225000FAD700F07DC022F07EC023F07FC024F0CA
:1022600080C025F093EC1CF0090E4E6E1E0E4D6ED4
:10227000E40EE82EFED74D2EFCD74E2EFAD700D016
:102280007DC06DF07EC06EF07FC06FF080C070F0DA
:10229000000E0001726F5A0E716F71EC14F07DC068
:1022A00022F07EC023F07FC024F080C025F093ECA4
:1022B0001CF0E7EF11F0050E8119D8A462EF11F0C0
:1022C00064EF11F0A1EF11F07DC022F07EC023F089
:1022D0007FC024F080C025F005EC1CF0720E4E6E1D
:1022E000A30E4D6E9B0EE82EFED74D2EFCD74E2E24
:1022F000FAD700F07DC022F07EC023F07FC024F02A
:1023000080C025F093EC1CF0090E4E6E1E0E4D6E33
:10231000E40EE82EFED74D2EFCD74E2EFAD700D075
:102320007DC06DF07EC06EF07FC06FF080C070F039
:10233000000E0001726F5A0E716F74EC15F04FEFC2
:1023400011F0060E8119D8A4A8EF11F0AAEF11F030
:10235000C4EF11F07DC06DF07EC06EF07FC06FF0F5
:1023600080C070F0000E726F870E716F71EC14F008
:102370007DC022F07EC023F07FC024F080C025F015
:1023800093EC1CF0E7EF11F0070E8119D8A4CBEF06
:1023900011F0CDEF11F0E7EF11F07DC06DF07EC0D0
:1023A0006EF07FC06FF080C070F0000E726F870E0D
:1023B000716F74EC15F07DC022F07EC023F07FC0F9
:1023C00024F080C025F093EC1CF0E7EF11F0120030
:1023D0000001E151020DB30EF324D96E000EF4207A
:1023E000DA6EDE04DE10D8A4F8EF11F0FAEF11F087
:1023F00008EF12F082C07DF083C07EF084C07FF0D1
:1024000085C080F0020E816F7DEC10F034EF13F088
:10241000E151020DB30EF324D96E000EF420DA6EF2
:10242000020EDE18DE10D8A418EF12F01AEF12F028
:1024300028EF12F082C07DF083C07EF084C07FF070
:1024400085C080F0010E816F7DEC10F034EF13F049
:10245000E151020DB30EF324D96E000EF420DA6EB2
:10246000030EDE18DE10D8A438EF12F03AEF12F0A7
:1024700048EF12F082C07DF083C07EF084C07FF010
:1024800085C080F0030E816F7DEC10F034EF13F007
:10249000E151020DB30EF324D96E000EF420DA6E72
:1024A000040EDE18DE10D8A458EF12F05AEF12F026
:1024B00099EF12F0CB0E0001876FEC0E866F840E41
:1024C000E82EFED7862FFCD7872FFAD700F082C0E0
:1024D00022F083C023F084C024F085C025F093EC63
:1024E0001CF0090E0001876F1E0E866FE40EE82EA9
:1024F000FED7862FFCD7872FFAD700F082C06DF069
:1025000083C06EF084C06FF085C070F0000E0001D3
:10251000726F5A0E716F74EC15F082C022F083C096
:1025200023F084C024F085C025F093EC1CF034EF38
:1025300013F0E151020DB30EF324D96E000EF42016
:10254000DA6E050EDE18DE10D8A4A9EF12F0ABEF9C
:1025500012F0F4EF12F082C022F083C023F084C0A6
:1025600024F085C025F04CEC1CF0CB0E0001876FE9
:10257000EC0E866F840EE82EFED7862FFCD7872FB1
:10258000FAD700F082C022F083C023F084C024F088
:1025900085C025F093EC1CF0090E0001876F1E0E1C
:1025A000866FE40EE82EFED7862FFCD7872FFAD74A
:1025B00000F082C06DF083C06EF084C06FF085C003
:1025C00070F0000E0001726F5A0E716F71EC14F012
:1025D00082C022F083C023F084C024F085C025F09F
:1025E00093EC1CF034EF13F0E151020DB30EF32421
:1025F000D96E000EF420DA6E060EDE18DE10D8A4B6
:1026000004EF13F006EF13F014EF13F082C07DF027
:1026100083C07EF084C07FF085C080F0070E816F9C
:102620007DEC10F034EF13F0E151020DB30EF32402
:10263000D96E000EF420DA6E070EDE18DE10D8A474
:1026400024EF13F026EF13F034EF13F082C07DF087
:1026500083C07EF084C07FF085C080F0060E816F5D
:102660007DEC10F034EF13F01200000E0001986FB3
:10267000000EDC6F000EDB6F000EE16F000EE06FEE
:10268000010E526E680E516E010E506E680E4F6E46
:10269000000E566E000E556E000E546E000E536EF8
:1026A000000EDF6F000EDE6F000EDD6F000EA16FFB
:1026B000010EA26FA30EA36F0F0EA46F7D0EA56F68
:1026C0000F0EA66F040EA76F000EA96F630EA86F02
:1026D000000EAA6F010EAB6FA00EAC6F0F0EAD6FA8
:1026E0007F0EAE6F0F0EAF6F060EB06F000EB26FA3
:1026F000630EB16F73EC1FF06DEC1EF0630ED6EC41
:102700001DF046EC1FF026EC1AF063EC1BF08EA4D3
:102710008CEF13F08EEF13F095EF13F08EB693EF6E
:1027200013F095EF13F087EF13F07C86010E04ECA5
:102730001FF0520E0001976F2B0E966F000EE82EC1
:10274000FED7962FFCD7972FFAD700F0F2EC1EF0A9
:1027500026EC1FF026EC1AF000019851D8A4B3EF34
:1027600013F0B5EF13F0C3EF13F0DF05D8A4BBEF00
:1027700013F0BDEF13F0C3EF13F0000EDF6F010E87
:10278000986FAAEF13F09851D8B4C9EF13F0CBEFBC
:1027900013F042EF14F0DF05D8A4D1EF13F0D3EF1C
:1027A00013F042EF14F0A10E226E000E236EAA0E5B
:1027B000246E000E256E93EC1CF07C8E8086A10E9C
:1027C000226E000E236EAA0E246E000E256E05ECFE
:1027D0001CF0090E0001976F1E0E966FE40EE82E96
:1027E000FED7962FFCD7972FFAD700F0A10E226EB6
:1027F000000E236EAA0E246E000E256E93EC1CF0C4
:102800007C9E8096520E0001976F2B0E966F000EE5
:10281000E82EFED7962FFCD7972FFAD700F0990E07
:102820000001826F000E836FA10E846F000E856F12
:10283000AA0E866F000E876F52EC07F0520E000151
:10284000976F2B0E966F000EE82EFED7962FFCD7B3
:10285000972FFAD700F0990E146E000E156E07EC44
:102860001DF06A0E00019F25556EFF0EA021566EC9
:10287000640E9F25536E000EA021546E000EDF6F74
:10288000AAEF13F0DD05D8A448EF14F04AEF14F0D6
:1028900059EF14F0A10E886F000E896FAA0E8A6F8F
:1028A000000E8B6F03EC1BF0020E0001DD6FAAEF30
:1028B00013F0DD51D8A45FEF14F061EF14F06DEF69
:1028C00014F0A10E226E000E236EAA0E246E000ECE
:1028D000256E4CEC1CF0AAEF13F0AAEF13F02CEFCE
:1028E00000F0000120EE01F06D51D9266E51DA2280
:1028F000010EDF6E20EE01F06F51D9267051DA2201
:10290000000EDF6E8080230E346EDB0E356E7B0E84
:10291000366E420E376E6F0E1B6EF00E1C6E010E81
:102920001D6E400E1E6E71C009F072C00AF00B6A77
:102930000C6A000E61EC17F009C017F00AC018F01D
:102940000BC019F00CC01AF09AEC0CF017C030F064
:1029500018C031F019C032F01AC033F03AEC0AF066
:1029600030C077F031C078F032C079F033C07AF0FF
:10297000000E1B6E000E1C6EB40E1D6E430E1E6EFE
:1029800077C017F078C018F079C019F07AC01AF043
:102990009AEC0CF017C040F018C041F019C042F09A
:1029A0001AC043F04FC009F050C00AF0000E0ABE32
:1029B000FF0E0B6E0C6E010E61EC17F009C044F0B7
:1029C0000AC045F00BC046F00CC047F0AFEC0EF06B
:1029D00040C073F041C074F042C075F043C076F05F
:1029E00026EF15F06DC0D9FF6EC0DAFF460EDF602E
:1029F000FCEF14F0FEEF14F004EF15F06DC0D9FFFA
:102A00006EC0DAFF0A0EDF266FC0D9FF70C0DAFF92
:102A1000460EDF600EEF15F010EF15F016EF15F013
:102A20006FC0D9FF70C0DAFF0A0EDF266DC017F045
:102A30006EC018F077EC16F06FC017F070C018F089
:102A400077EC16F0A00E00D0E82EFDD76DC0D9FFB0
:102A50006EC0DAFF450EDF6430EF15F032EF15F08F
:102A6000F2EF14F06FC0D9FF70C0DAFF450EDF64DB
:102A70003CEF15F03EEF15F0F2EF14F0000E000100
:102A80007C6F000E7B6F50EF15F0150E4C6EC60E6E
:102A9000E82EFED74C2EFCD700D000017B4B7C2BC0
:102AA0007BC009F07CC00AF00B6A0C6A000E61EC76
:102AB00017F009C017F00AC018F00BC019F00CC0CD
:102AC0001AF073C01BF074C01CF075C01DF076C006
:102AD0001EF0A4EC19F0D8A070EF15F072EF15F00D
:102AE00045EF15F080901200000120EE01F06D51CD
:102AF000D9266E51DA22000EDF6E20EE01F06F5102
:102B0000D9267051DA22010EDF6E7E804A0E346EB5
:102B10000C0E356EFC0E366E410E376E7D0E1B6E42
:102B20003F0E1C6E150E1D6E400E1E6E71C009F01C
:102B300072C00AF00B6A0C6A000E61EC17F009C053
:102B400017F00AC018F00BC019F00CC01AF09AEC7C
:102B50000CF017C030F018C031F019C032F01AC0B4
:102B600033F03AEC0AF030C077F031C078F032C080
:102B700079F033C07AF0000E1B6E000E1C6EB40E9E
:102B80001D6E430E1E6E77C017F078C018F079C026
:102B900019F07AC01AF09AEC0CF017C040F018C087
:102BA00041F019C042F01AC043F051C009F052C0C0
:102BB0000AF0000E0ABEFF0E0B6E0C6E010E61ECE9
:102BC00017F009C044F00AC045F00BC046F00CC035
:102BD00047F0AFEC0EF040C073F041C074F042C05B
:102BE00075F043C076F029EF16F06DC0D9FF6EC0C6
:102BF000DAFF460EDF60FFEF15F001EF16F007EF8A
:102C000016F06DC0D9FF6EC0DAFF0A0EDF266FC066
:102C1000D9FF70C0DAFF460EDF6011EF16F013EF38
:102C200016F019EF16F06FC0D9FF70C0DAFF0A0E68
:102C3000DF266DC017F06EC018F077EC16F06FC08D
:102C400017F070C018F077EC16F0A00E00D0E82E48
:102C5000FDD76DC0D9FF6EC0DAFF450EDF6433EFDC
:102C600016F035EF16F0F5EF15F06FC0D9FF70C014
:102C7000DAFF450EDF643FEF16F041EF16F0F5EF97
:102C800015F0000E00017C6F000E7B6F53EF16F005
:102C9000150E4C6EC60EE82EFED74C2EFCD700D07B
:102CA00000017B4B7C2B7BC009F07CC00AF00B6AD7
:102CB0000C6A000E61EC17F009C017F00AC018F09A
:102CC0000BC019F00CC01AF073C01BF074C01CF0DC
:102CD00075C01DF076C01EF0A4EC19F0D8A073EFFB
:102CE00016F075EF16F048EF16F07E90120020EE09
:102CF00001F01750D9261850DA22DF50D8B483EFEC
:102D000016F085EF16F0B6EF16F017C0D9FF18C011
:102D1000DAFFDF50196E1950096E0A6A20EE07F0CB
:102D20001750D9261850DA22DECF0BF0DDCF0CF089
:102D3000DFEC1EF009C00FF00AC010F0000E126E9A
:102D4000640E116EA1EC1AF020EE07F01750D92690
:102D50001850DA22DECF1AF0DDCF1BF00F501A5CCC
:102D6000206E10501B58216ED9EF16F017C0D9FFF6
:102D700018C0DAFFDF50196E1950096E0A6A20EE8A
:102D800007F01750D9261850DA22DECF0BF0DDCF2E
:102D90000CF0DFEC1EF009C00FF00AC010F0000EBE
:102DA000126E640E116EA1EC1AF00FC020F010C06C
:102DB00021F020EE02F01750D9261850DA22DECF8B
:102DC00019F0DDCF1AF019C0D9FF1AC0DAFF20C000
:102DD000DFFF20EE01F01750D9261850DA22DF501D
:102DE000D8B4F5EF16F0F7EF16F02CEF17F020EE51
:102DF00004F01750D9261850DA22DECF19F0DDCFB3
:102E00001AF019C0D9FF1AC0DAFF10EE04F01750FB
:102E1000E1261850E222E6CF1BF0E5CF1CF01BC0E4
:102E2000E1FF1CC0E2FFE7501D6E10EE06F01750E8
:102E3000E1261850E222E7501E6E010E1F6E1E2A78
:102E400024EF17F0D8901F361E2E22EF17F01F50D8
:102E50001D10DF6E60EF17F020EE04F01750D9263A
:102E60001850DA22DECF19F0DDCF1AF019C0D9FFE1
:102E70001AC0DAFF10EE04F01750E1261850E222D3
:102E8000E6CF1BF0E5CF1CF01BC0E1FF1CC0E2FF4A
:102E9000E7501D6E10EE06F01750E1261850E222A2
:102EA000E7501E6E010E1F6E1E2A59EF17F0D890C4
:102EB0001F361E2E57EF17F01F50FF0A1D14DF6E2E
:102EC0001200116E1150D8B468EF17F06AEF17F0C6
:102ED0008CEF17F00CBE71EF17F06FEF17F08CEF5F
:102EE00017F009C00DF00AC00EF00BC00FF00CC0B7
:102EF00010F00D1E0E1E0F1E101E0D2A000E0E22AB
:102F00000F2210220DC013F00EC014F00FC015F0E8
:102F100010C016F094EF17F009C013F00AC014F0B7
:102F20000BC015F00CC016F009500A100B100C1055
:102F3000D8A49DEF17F09FEF17F0A9EF17F0000E40
:102F4000096E000E0A6E000E0B6E000E0C6E3AEF4C
:102F500018F0960E126EB3EF17F0122AD8901632B0
:102F6000153214321332000E13140D6E000E1414A9
:102F70000E6E000E15140F6EFE0E1614106E0D5010
:102F80000E100F101010D8A4C8EF17F0CAEF17F0EA
:102F9000ADEF17F0D8EF17F0122A010E1326000E2E
:102FA000142215221622D8901632153214321332FA
:102FB000000E13140D6E000E14140E6E000E151478
:102FC0000F6EFF0E1614106E0D500E100F10101015
:102FD000D8A4EDEF17F0EFEF17F0CCEF17F0F7EF05
:102FE00017F01206D890133614361536163615BE5D
:102FF000FCEF17F0FEEF17F006EF18F0020E12606C
:1030000004EF18F006EF18F0F1EF17F012B00BEF25
:1030100018F00DEF18F00EEF18F0159ED890123240
:1030200012C00DF00E6A0F6A106A0DC010F00F6A20
:103030000E6A0D6A0D5013120E5014120F50151215
:10304000105016121150D8B428EF18F02AEF18F0CB
:1030500032EF18F00CBE31EF18F02FEF18F032EF0E
:1030600018F0168E13C009F014C00AF015C00BF04A
:1030700016C00CF012006DC0D9FF6EC0DAFFDECFB3
:1030800071F0DDCF72F0000120EE02F06D51D92613
:103090006E51DA22DECF73F0DDCF74F020EE04F053
:1030A0006D51D9266E51DA22DECF75F0DDCF76F084
:1030B00020EE06F06D51D9266E51DA22DECF77F080
:1030C000DDCF78F071C009F072C00AF00B6A0C6AAB
:1030D000000E61EC17F009C040F00AC041F00BC0CF
:1030E00042F00CC043F077C009F078C00AF00B6AD8
:1030F0000C6A000E61EC17F009C044F00AC045F0FC
:103100000BC046F00CC047F0AFEC0EF06FC0D9FF1B
:1031100070C0DAFF40C0DEFF41C0DEFF42C0DEFF0C
:1031200043C0DEFF73C009F074C00AF00B6A0C6A7A
:10313000000E61EC17F009C040F00AC041F00BC06E
:1031400042F00CC043F077C009F078C00AF00B6A77
:103150000C6A000E61EC17F009C044F00AC045F09B
:103160000BC046F00CC047F0AFEC0EF0000120EEB3
:1031700004F06F51D9267051DA2240C0DEFF41C001
:10318000DEFF42C0DEFF43C0DEFF75C009F076C03F
:103190000AF00B6A0C6A000E61EC17F009C040F0EF
:1031A0000AC041F00BC042F00CC043F077C009F0F8
:1031B00078C00AF00B6A0C6A000E61EC17F009C0C7
:1031C00044F00AC045F00BC046F00CC047F0AFEC2D
:1031D0000EF0000120EE08F06F51D9267051DA226E
:1031E00040C0DEFF41C0DEFF42C0DEFF43C0DEFF65
:1031F0001200000E04EC1FF0090E1A6E1E0E196E5E
:10320000E40EE82EFED7192EFCD71A2EFAD700D0DE
:103210001804D8A40EEF19F010EF19F03EEF19F0D2
:103220007F82520E1A6E2B0E196E000EE82EFED7FC
:10323000192EFCD71A2EFAD700D016C014F017C0DA
:1032400015F007EC1DF0520E1A6E2B0E196E000EC3
:10325000E82EFED7192EFCD71A2EFAD700D07F926F
:10326000020E1A6EA00E196E920EE82EFED7192EBF
:10327000FCD71A2EFAD700D094EF19F0020E1818C6
:10328000D8A445EF19F047EF19F069EF19F07988E4
:10329000520E1A6E2B0E196E000EE82EFED7192E46
:1032A000FCD71A2EFAD700D016C014F017C015F0AC
:1032B00007EC1DF0520E1A6E2B0E196E000EE82E42
:1032C000FED7192EFCD71A2EFAD700D0799830EFF6
:1032D00019F0030E1818D8A470EF19F072EF19F056
:1032E00094EF19F07E8E520E1A6E2B0E196E000E90
:1032F000E82EFED7192EFCD71A2EFAD700D016C00A
:1033000014F017C015F007EC1DF0520E1A6E2B0EBC
:10331000196E000EE82EFED7192EFCD71A2EFAD7FA
:1033200000D07E9E30EF19F0010E04EC1FF0090E64
:103330001A6E1E0E196EE40EE82EFED7192EFCD75B
:103340001A2EFAD700D01200000E17141F6E000EAE
:103350001814206E800E1914216E7F0E1A14226E1E
:103360001F50201021102210D8A4B9EF19F0BBEF84
:1033700019F0C3EF19F0000E176E000E186E000E54
:10338000196E000E1A6E000E1B141F6E000E1C1418
:10339000206E800E1D14216E7F0E1E14226E1F5093
:1033A000201021102210D8A4D8EF19F0DAEF19F06C
:1033B000E2EF19F0000E1B6E000E1C6E000E1D6E6B
:1033C000000E1E6E1AAEE7EF19F0E9EF19F0F2EFFA
:1033D00019F0176C181ED8B0182A191ED8B0192A5F
:1033E000800E1A561EAEF7EF19F0F9EF19F002EF42
:1033F0001AF01B6C1C1ED8B01C2A1D1ED8B01D2A2A
:10340000800E1E56000E171A000E181A000E191AFA
:10341000800E1A1A000E1B1A000E1C1A000E1D1A1E
:10342000800E1E1A1B50175C1C5018581D5019583E
:103430001E501A58D8B01FEF1AF021EF1AF024EFDF
:103440001AF0D89025EF1AF0D88012008DEC1FF0FA
:103450000C6EC80E0C602FEF1AF031EF1AF0A0EFCF
:103460001AF07CAE36EF1AF03AEF1AF00B6A0B2A1C
:103470003BEF1AF00B6A0B320B327C500B187F0BB0
:103480000B187C6E80A647EF1AF04BEF1AF00B6A10
:103490000B2A4CEF1AF00B6A0B460B460B4680507A
:1034A0000B18F70B0B18806E7CA659EF1AF05DEF26
:1034B0001AF00B6A0B2A5EEF1AF00B6A0B460B46EA
:1034C0000B467C500B18F70B0B187C6E7CA86BEF2F
:1034D0001AF06FEF1AF00B6A0B2A70EF1AF00B6AF2
:1034E0000B3A7C500B18EF0B0B187C6E7EA07BEF19
:1034F0001AF07FEF1AF00B6A0B2A80EF1AF00B6AB2
:103500007E500B18FE0B0B187E6E80A08AEF1AF00F
:103510008EEF1AF00B6A0B2A8FEF1AF00B6A8050AD
:103520000B18FE0B0B18806EB6EC1BF0680E0B6EC2
:10353000E40EE82EFED70B2EFCD700D031EF1AF0A8
:103540001200000E146E12BEAAEF1AF0A8EF1AF0C5
:10355000B0EF1AF0116C121ED8B0122A010E146EC0
:1035600010BEB7EF1AF0B5EF1AF0BDEF1AF00F6CFE
:10357000101ED8B0102A010E141A000E166E000E7E
:10358000156E11501210D8B4C8EF1AF0CAEF1AF025
:10359000F2EF1AF0010E136ED2EF1AF0D890113636
:1035A0001236132A12AED7EF1AF0D9EF1AF0CEEF77
:1035B0001AF0D8901536163611500F5C125010586C
:1035C000D8A0E5EF1AF0E7EF1AF0ECEF1AF011507F
:1035D0000F5E1250105A1580D89012321132132EED
:1035E000D9EF1AF01450D8B4F8EF1AF0FAEF1AF035
:1035F000FEEF1AF0156C161ED8B0162A15C00FF083
:1036000016C010F01200F28EE1C08EF0000E000124
:103610008F6F39EF1BF088C022F089C023F08AC079
:1036200024F08BC025F005EC1CF0F40E00018D6F2A
:10363000820E8C6F050EE82EFED78C2FFCD78D2FB7
:10364000FAD788C022F089C023F08AC024F08BC04A
:1036500025F093EC1CF088C082F089C083F08AC00A
:1036600084F08BC085F0E8EC11F00001E007E10781
:103670008F2B8F518E5DD8B040EF1BF042EF1BF0C7
:103680000BEF1BF088C022F089C023F08AC024F021
:103690008BC025F005EC1CF0F40E00018D6F820E3E
:1036A0008C6F050EE82EFED78C2FFCD78D2FFAD706
:1036B00088C022F089C023F08AC024F08BC025F096
:1036C00093EC1CF012008EA468EF1BF06AEF1BF065
:1036D00071EF1BF08EB66FEF1BF071EF1BF063EF15
:1036E0001BF08EB476EF1BF078EF1BF079EF1BF038
:1036F0007C8E8EB67EEF1BF080EF1BF081EF1BF00F
:1037000080867C86010E04EC1FF0520E176E2B0E85
:10371000166E000EE82EFED7162EFCD7172EFAD7FF
:1037200000D0180E146E000E156E07EC1DF0520E30
:10373000176E2B0E166E000EE82EFED7162EFCD737
:10374000172EFAD700D07C96000E04EC1FF07C9E5A
:1037500080966A0E1E24556EFF0E1F20566E640E54
:103760001E24536E000E1F20546E12007F82020E24
:103770000A6EA00E096E920EE82EFED7092EFCD717
:103780000A2EFAD700D07F92020E0A6EA00E096EA2
:10379000920EE82EFED7092EFCD70A2EFAD700D0BB
:1037A0007988020E0A6EA00E096E920EE82EFED7E0
:1037B000092EFCD70A2EFAD700D07998020E0A6E8D
:1037C000A00E096E920EE82EFED7092EFCD70A2E07
:1037D000FAD700D07E8E020E0A6EA00E096E920EEF
:1037E000E82EFED7092EFCD70A2EFAD700D07E9EEF
:1037F000020E0A6EA00E096E920EE82EFED7092E5A
:10380000FCD70A2EFAD700D0120020EE01F0225089
:10381000D9262350DA22000EDF6E20EE01F024506C
:10382000D9262550DA22000EDF6E33EF1CF022C0BD
:10383000D9FF23C0DAFF0A0EDF2624C0D9FF25C036
:10384000DAFF0A0EDF2622C017F023C018F077EC4B
:1038500016F024C017F025C018F077EC16F0A00E73
:1038600000D0E82EFDD722C0D9FF23C0DAFF320EE8
:10387000DF603DEF1CF03FEF1CF04BEF1CF024C06D
:10388000D9FF25C0DAFF310EDF6449EF1CF04BEFA2
:103890001CF017EF1CF0120020EE01F02250D92688
:1038A0002350DA22010EDF6E20EE01F02450D926DB
:1038B0002550DA22010EDF6E7AEF1CF022C0D9FF0C
:1038C00023C0DAFF0A0EDF2624C0D9FF25C0DAFFA5
:1038D0000A0EDF2622C017F023C018F077EC16F08E
:1038E00024C017F025C018F077EC16F0A00E00D019
:1038F000E82EFDD722C0D9FF23C0DAFF140EDF6007
:1039000084EF1CF086EF1CF092EF1CF024C0D9FF6E
:1039100025C0DAFF130EDF6490EF1CF092EF1CF06D
:103920005EEF1CF012007C88B2EF1CF022C0D9FFC1
:1039300023C0DAFF0A0EDF5E24C0D9FF25C0DAFFFC
:103940000A0EDF5E22C017F023C018F077EC16F0E5
:1039500024C017F025C018F077EC16F0A00E00D0A8
:10396000E82EFDD722C0D9FF23C0DAFFDF50D8B43C
:10397000BCEF1CF0BEEF1CF0CAEF1CF024C0D9FF56
:1039800025C0DAFFDF50D8A4C8EF1CF0CAEF1CF046
:1039900096EF1CF0290E276E960E266E7F0EE82EEF
:1039A000FED7262EFCD7272EFAD700F07C981200DF
:1039B0007C9628C022F029C023F02AC024F02BC016
:1039C00025F005EC1CF01D0E2D6E690E2C6EA50E5B
:1039D000E82EFED72C2EFCD72D2EFAD700F028C0CB
:1039E00022F029C023F02AC024F02BC025F093EC4C
:1039F0001CF0520E2D6E2B0E2C6E000EE82EFED7F4
:103A00002C2EFCD72D2EFAD700D07C96120036EC47
:103A10001DF014C0D9FF15C0DAFF0DC0DEFF0EC0C7
:103A2000DDFF5EEC1DF020EE02F01450D92615509B
:103A3000DA220DC0DEFF0EC0DDFFAEEC1DF020EE81
:103A400004F01450D9261550DA220DC0DEFF0EC046
:103A5000DDFF86EC1DF020EE06F01450D92615503F
:103A6000DA220DC0DEFF0EC0DDFF1200C2EC1FF037
:103A7000520EABEC1FF0B60EABEC1FF0C7EC1FF014
:103A8000530EABEC1FF0010E4CEC1EF00F6E0F50FE
:103A9000126E136A000E4CEC1EF00F6E0F50116E7A
:103AA000106A12501010126E13501110136EBDECEC
:103AB0001FF012C00DF013C00EF01200C2EC1FF088
:103AC000520EABEC1FF0B80EABEC1FF0C7EC1FF0C2
:103AD000530EABEC1FF0010E4CEC1EF00F6E0F50AE
:103AE000126E136A000E4CEC1EF00F6E0F50116E2A
:103AF000106A12501010126E13501110136EBDEC9C
:103B00001FF012C00DF013C00EF01200C2EC1FF037
:103B1000520EABEC1FF0B40EABEC1FF0C7EC1FF075
:103B2000530EABEC1FF0010E4CEC1EF00F6E0F505D
:103B3000126E136A000E4CEC1EF00F6E0F50116ED9
:103B4000106A12501010126E13501110136EBDEC4B
:103B50001FF012C00DF013C00EF01200C2EC1FF0E7
:103B6000520EABEC1FF0BA0EABEC1FF0C7EC1FF01F
:103B7000530EABEC1FF0010E4CEC1EF00F6E0F500D
:103B8000126E136A000E4CEC1EF00F6E0F50116E89
:103B9000106A12501010126E13501110136EBDECFB
:103BA0001FF012C00DF013C00EF01200096EBD50D0
:103BB0008F0B4009BD6EE00EBE16BF50F00B010921
:103BC000BF6E09C0BCFFBD8E85948598839E879C7F
:103BD0007D947D987B9E7F9C000EA36E000EA06E50
:103BE000A48EA18E0A0E0E01746F0B0E696FB1ECDC
:103BF0001FF0CCEC1FF099EC1FF01200130E0B6EAF
:103C0000000E36EC1FF03F0E0D6E550EE82EFED75F
:103C10000D2EFCD700F0040E0B6E0C0E36EC1FF0D0
:103C200055C00BF0040E36EC1FF056500B6E050E0F
:103C300036EC1FF053C00BF0060E36EC1FF054505C
:103C40000B6E070E36EC1FF01200130E036E000E03
:103C500056EC1FF03F0E056E550EE82EFED7052ED2
:103C6000FCD700F0040E036E0C0E56EC1FF055C08E
:103C700003F0040E56EC1FF05650036E050E56EC82
:103C80001FF053C003F0060E56EC1FF05450036EA5
:103C9000070E56EC1FF012000B6EB7EC1EF00E0173
:103CA000DA87B7EC1EF0D5CE0CF0B7EC1EF00B5057
:103CB000D8B45DEF1EF061EF1EF00A6A0A2A62EFC7
:103CC0001EF00A6A0A3A0A460E01DA510A18DF0B98
:103CD0000A18DA6FDA890C501200A2EC1EF0010EFD
:103CE0000B6E000E36EC1FF03F0E0D6E550EE82EDB
:103CF000FED70D2EFCD700F0030E0B6E000E36EC37
:103D00001FF0D50E0B6E010E36EC1FF0A4EC1FF069
:103D1000120001EE00F0280EEE6AE806FDE100EE6A
:103D2000B3F02F0EEE6AE806FDE1566A556A546A52
:103D3000536A57905792000EF86E0E0EF76E000100
:103D400035EF13F00E01D951F00B0809D96FD98B5B
:103D50009F0ED66F848A848CA79BA79D1D0E1D6F16
:103D60001E0E1C6F1C0E6F6F1B0E706F12000E016B
:103D7000D8B5BDEF1EF0BFEF1EF0B7EF1EF0DACEE4
:103D800009F01F0E0916D8A4C8EF1EF0CAEF1EF0E6
:103D9000B7EF1EF012000E01D8B5D1EF1EF0D3EF31
:103DA0001EF0CBEF1EF0DACE01F01F0E0116D8A4E4
:103DB000DCEF1EF0DEEF1EF0CBEF1EF0120009501C
:103DC0000B02F3CF0DF0F4CF0EF009500C02F350BC
:103DD0000E260A500B02F3500E260DC009F00EC03D
:103DE0000AF0120082820E019A93090E0D01F16F02
:103DF0000E012983298B1F831F9B66EC1FF0F29213
:103E0000F28AF28CF28E1200096E09B002D07F9213
:103E100001D07F8209B002D0799801D0798809B0A9
:103E200002D07E9E01D07E8E12000E0133A31BEFC6
:103E30001FF01DEF1FF024EF1FF0010E0001DF6FD8
:103E400080EC1FF00E01339357921100D6501F0BD8
:103E50004009D66ED688D650F00B0509D66ED588A7
:103E60003C0ED46EAF0ED36ED58E12000C6EC2EC2B
:103E70001FF0520EABEC1FF00C508009ABEC1FF0A2
:103E80000B50ABEC1FF0BDEC1FF01200120E0E0138
:103E9000626F110E156F8382E997E895330EE56F17
:103EA000000EE66FE789E88BE78F1200046ED6EC10
:103EB0001FF0520EB7EC1FF004508009B7EC1FF052
:103EC0000350B7EC1FF0D1EC1FF01200C2EC1FF052
:103ED000520EABEC1FF0E60EABEC1FF0BDEC1FF08A
:103EE000FEEC1DF01200868C0E01B48D0F01589966
:103EF000FC0E58172E0E5F6F60946088608E120063
:103F0000D6EC1FF0520EB7EC1FF0E60EB7EC1FF028
:103F1000D1EC1FF025EC1EF01200608060B093EF32
:103F20001FF095EF1FF08EEF1FF064CF09F00950DE
:103F3000120080927C967C987E90809088928496E5
:103F40008498869088901200000E04EC1FF08792EF
:103F50008198869E12000A6EB7EC1EF00AC0D5FE4C
:103F60001200868486860E01B495B4971200026E04
:103F7000CBEC1EF002C0D5FE1200B7EC1EF00E0115
:103F8000DA851200B7EC1EF00E01DA811200B7ECF0
:103F90001EF00E01DA8312007C9E8096849E889625
:103FA0001200CBEC1EF00E01DA851200CBEC1EF0F5
:063FB0000E01DA8112008F
:020000040020DA
:10000000FF0FFF0FFF0FFF0FFF0FFF0FFF0FFF0F80
:020000040030CA
:0C000000AAFFFFFF9FFFFFFFFFFFFFFFB5
:00000001FF
