:0400000013EF00F00A
:06000800588214EF0CF019
:100018005880E0CF04F004C0E0FF58901000C7EF0C
:100028000CF02DC005F02EC006F033C007F034C028
:1000380008F0BAEC0AF005C09EF006C09FF02FC089
:1000480005F030C006F033C007F034C008F0BAEC51
:100058000AF005C0A0F006C0A1F031C005F032C01A
:1000680006F033C007F034C008F0BAEC0AF005C057
:10007800A2F006C0A3F0710E136E3D0E146E0A0EA8
:10008800156E3F0E166E9EC005F09FC006F0076AFB
:10009800086A000E17EC08F005C017F006C018F043
:1000A80007C019F008C01AF0F1EC08F0D8B05FEFFB
:1000B80000F061EF00F0BDEF00F0A0C005F0A1C0B6
:1000C80006F0076A086A000E17EC08F005C013F07E
:1000D80006C014F007C015F008C016F0480E176ED9
:1000E800E10E186E7A0E196E3E0E1A6EF1EC08F0DB
:1000F800D8B081EF00F083EF00F0BDEF00F0A2C0B0
:1001080005F0A3C006F0076A086A000E17EC08F0AD
:1001180005C013F006C014F007C015F008C016F0AB
:10012800EC0E176E510E186E380E196E3E0E1A6EC2
:10013800F1EC08F0D8B0A3EF00F0A5EF00F0BDEFA8
:1001480000F035C01EF036C01FF037C020F038C0B0
:1001580021F05A0E226E47EC05F035C01EF036C06D
:100168001FF037C020F038C021F06FEC0AF045EFDF
:1001780004F09EC005F09FC006F0076A086A000EEA
:1001880017EC08F005C013F006C014F007C015F00E
:1001980008C016F0520E176EB80E186EDE0E196EE5
:1001A8003E0E1A6EF1EC08F0D8B0DDEF00F0DFEF8C
:1001B80000F03BEF01F0520E136EB80E146E9E0E57
:1001C800156E3E0E166EA0C005F0A1C006F0076AB7
:1001D800086A000E17EC08F005C017F006C018F002
:1001E80007C019F008C01AF0F1EC08F0D8B0FFEF1A
:1001F80000F001EF01F03BEF01F0140E136EAE0EAC
:10020800146E470E156E3E0E166EA2C005F0A3C002
:1002180006F0076A086A000E17EC08F005C017F028
:1002280006C018F007C019F008C01AF0F1EC08F081
:10023800D8B021EF01F023EF01F03BEF01F035C01A
:100248001EF036C01FF037C020F038C021F05A0E1B
:10025800226E3AEC06F035C01EF036C01FF037C0EB
:1002680020F038C021F06FEC0AF045EF04F09EC092
:1002780005F09FC006F0076A086A000E17EC08F040
:1002880005C013F006C014F007C015F008C016F03A
:10029800F60E176E280E186EDC0E196E3E0E1A6ECC
:1002A800F1EC08F0D8B05BEF01F05DEF01F0B9EFC9
:1002B80001F09A0E136E990E146E990E156E3E0E7D
:1002C800166EA0C005F0A1C006F0076A086A000E05
:1002D80017EC08F005C017F006C018F007C019F0B1
:1002E80008C01AF0F1EC08F0D8B07DEF01F07FEF0C
:1002F80001F0B9EF01F03D0E136E0A0E146E570EA1
:10030800156E3E0E166EA2C005F0A3C006F0076A71
:10031800086A000E17EC08F005C017F006C018F0C0
:1003280007C019F008C01AF0F1EC08F0D8B09FEF38
:1003380001F0A1EF01F0B9EF01F035C01EF036C0B1
:100348001FF037C020F038C021F0B40E226E47EC01
:1003580005F035C01EF036C01FF037C020F038C099
:1003680021F06FEC0AF045EF04F0480E136EE10E31
:10037800146EFA0E156E3E0E166E9EC005F09FC0E6
:1003880006F0076A086A000E17EC08F005C017F0B7
:1003980006C018F007C019F008C01AF0F1EC08F010
:1003A800D8B0D9EF01F0DBEF01F041EF02F0850E94
:1003B800136EEB0E146E910E156E3E0E166EA0C0E7
:1003C80005F0A1C006F0076A086A000E17EC08F0ED
:1003D80005C017F006C018F007C019F008C01AF0D9
:1003E800F1EC08F0D8B0FBEF01F0FDEF01F041EFC0
:1003F80002F0EC0E136E510E146E380E156E3E0E92
:10040800166EA2C005F0A3C006F0076A086A000EBF
:1004180017EC08F005C017F006C018F007C019F06F
:1004280008C01AF0F1EC08F0D8B01DEF02F01FEF89
:1004380002F041EF02F035C01EF036C01FF037C0A1
:1004480020F038C021F0D5EC09F035C01EF036C0D8
:100458001FF037C020F038C021F05A0E226E47EC4A
:1004680005F035C01EF036C01FF037C020F038C088
:1004780021F06FEC0AF045EF04F0480E136EE10E20
:10048800146EFA0E156E3E0E166E9EC005F09FC0D5
:1004980006F0076A086A000E17EC08F005C017F0A6
:1004A80006C018F007C019F008C01AF0F1EC08F0FF
:1004B800D8B061EF02F063EF02F0C9EF02F0A0C01C
:1004C80005F0A1C006F0076A086A000E17EC08F0EC
:1004D80005C013F006C014F007C015F008C016F0E8
:1004E800CD0E176ECC0E186E8C0E196E3E0E1A6E4F
:1004F800F1EC08F0D8B083EF02F085EF02F0C9EF15
:1005080002F0140E136EAE0E146E470E156E3E0EEC
:10051800166EA2C005F0A3C006F0076A086A000EAE
:1005280017EC08F005C017F006C018F007C019F05E
:1005380008C01AF0F1EC08F0D8B0A5EF02F0A7EF68
:1005480002F0C9EF02F035C01EF036C01FF037C008
:1005580020F038C021F0D5EC09F035C01EF036C0C7
:100568001FF037C020F038C021F05A0E226E3AEC46
:1005780006F035C01EF036C01FF037C020F038C076
:1005880021F06FEC0AF045EF04F0710E136E3D0E8A
:10059800146E0A0E156E3F0E166E9EC005F09FC0B3
:1005A80006F0076A086A000E17EC08F005C017F095
:1005B80006C018F007C019F008C01AF0F1EC08F0EE
:1005C800D8B0E9EF02F0EBEF02F047EF03F0A0C07C
:1005D80005F0A1C006F0076A086A000E17EC08F0DB
:1005E80005C013F006C014F007C015F008C016F0D7
:1005F8008F0E176EC20E186E750E196E3E0E1A6E9D
:10060800F1EC08F0D8B00BEF03F00DEF03F047EF73
:1006180003F0A2C005F0A3C006F0076A086A000E3E
:1006280017EC08F005C013F006C014F007C015F069
:1006380008C016F0EC0E176E510E186E380E196EB3
:100648003E0E1A6EF1EC08F0D8B02DEF03F02FEF44
:1006580003F047EF03F035C01EF036C01FF037C077
:1006680020F038C021F0870E226E47EC05F035C027
:100678001EF036C01FF037C020F038C021F06FECF4
:100688000AF045EF04F09EC005F09FC006F0076A27
:10069800086A000E17EC08F005C013F006C014F045
:1006A80007C015F008C016F0AE0E176E470E186E8C
:1006B800E10E196E3E0E1A6EF1EC08F0D8B067EF35
:1006C80003F069EF03F0C5EF03F0F60E136E280E82
:1006D800146E9C0E156E3E0E166EA0C005F0A1C0DD
:1006E80006F0076A086A000E17EC08F005C017F054
:1006F80006C018F007C019F008C01AF0F1EC08F0AD
:10070800D8B089EF03F08BEF03F0C5EF03F03D0E8F
:10071800136E0A0E146E570E156E3E0E166EA2C09C
:1007280005F0A3C006F0076A086A000E17EC08F087
:1007380005C017F006C018F007C019F008C01AF075
:10074800F1EC08F0D8B0ABEF03F0ADEF03F0C5EF74
:1007580003F035C01EF036C01FF037C020F038C097
:1007680021F0870E226E3AEC06F035C01EF036C036
:100778001FF037C020F038C021F06FEC0AF045EFC9
:1007880004F09EC005F09FC006F0076A086A000ED4
:1007980017EC08F005C013F006C014F007C015F0F8
:1007A80008C016F01F0E176E850E186EEB0E196E28
:1007B8003E0E1A6EF1EC08F0D8B0E5EF03F0E7EF63
:1007C80003F02DEF04F03D0E136E0A0E146E970E13
:1007D800156E3E0E166EA0C005F0A1C006F0076AA1
:1007E800086A000E17EC08F005C017F006C018F0EC
:1007F80007C019F008C01AF0F1EC08F0D8B007EFFC
:1008080004F009EF04F02DEF04F03D0E136E0A0E0C
:10081800146E570E156E3E0E166EA2C005F0A3C0DC
:1008280006F0076A086A000E17EC08F005C017F012
:1008380006C018F007C019F008C01AF0F1EC08F06B
:10084800D8B029EF04F02BEF04F02DEF04F0A1EF5E
:1008580001F0010E576E35C01EF036C01FF037C0CC
:1008680020F038C021F0B40E226E47EC05F035C0F8
:100878001EF036C01FF037C020F038C021F06FECF2
:100888000AF01200000E00019D6F000E9C6F000E12
:10089800576E09EC0DF057EC0CF0F4EC0AF0630E0F
:1008A800CAEC0BF0F9EC0CF0000E0001B56F010E6C
:1008B800B66FA30EB76F0F0EB86F7D0EB96F0F0E20
:1008C800BA6F040EBB6F000EBD6F630EBC6F000ED7
:1008D800BE6F010EBF6FA00EC06F0F0EC16F7F0EEF
:1008E800C26F0F0EC36F060EC46F000EC66F630E85
:1008F800C56F20EEA5F000EE10F0070EDBCFEBFF82
:10090800E806FCE2F2EC0BF020EEA5F0070EEBCFC8
:10091800DBFFE806FCE2090E3A6E1E0E396EE40EA5
:10092800E82EFED7392EFCD73A2EFAD700D016EC8F
:100938000DF00001A46F640EA461A5EF04F0A7EF09
:1009480004F0ABEF04F07C8E8086B9EF04F0C80E9B
:10095800A461B1EF04F0B3EF04F0B7EF04F07C8EBC
:100968008096B9EF04F07C9E8096520E3A6E2B0E5C
:10097800396E000EE82EFED7392EFCD73A2EFAD75C
:1009880000D0B50E1E6E000E1F6EBE0E206E000E3D
:10099800216E22EC0AF020EEADF000EE10F0070E0A
:1009A800DBCFEBFFE806FCE2F2EC0BF020EEADF05B
:1009B800070EEBCFDBFFE806FCE220EEA5F000EE29
:1009C80025F0070EDBCFEBFFE806FCE220EEADF0EA
:1009D80000EE2DF0070EDBCFEBFFE806FCE2B50ECC
:1009E800356E000E366EBE0E376E000E386E15EC84
:1009F80000F000019D05D8A404EF05F006EF05F00E
:100A080037EF05F020EEADF000EE10F0070EDBCF6B
:100A1800EBFFE806FCE2F2EC0BF020EEADF0070E7F
:100A2800EBCFDBFFE806FCE220EEA5F000EE25F0B8
:100A3800070EDBCFEBFFE806FCE220EEADF000EEA0
:100A48002DF0070EDBCFEBFFE806FCE2B50E356EA6
:100A5800000E366EBE0E376E000E386E15EC00F0C6
:100A6800000E00019D6F9C05D8A43DEF05F03FEFF7
:100A780005F0CFEF04F07C8E8086000E9C6FCFEFE0
:100A880004F013EF00F05750D8A44DEF05F04FEFE6
:100A980005F0C5EF05F020EE01F01E50D9261F50D5
:100AA800DA22010EDF6E20EE01F02050D926215007
:100AB800DA22000EDF6EAAEF05F080A066EF05F0DF
:100AC8006AEF05F0236A232A6BEF05F0236A80504A
:100AD8002318FE0B2318806E1EC0D9FF1FC0DAFF33
:100AE800320EDF607AEF05F07CEF05F081EF05F05C
:100AF8001EC0D9FF1FC0DAFFDF2A20C0D9FF21C0DE
:100B0800DAFF320EDF608BEF05F08DEF05F092EF24
:100B180005F020C0D9FF21C0DAFFDF2A1EC013F07C
:100B28001FC014F02DEC07F020C013F021C014F002
:100B38002DEC07F0090E246E1E0E236EE40EE82E2F
:100B4800FED7232EFCD7242EFAD700D01EC0D9FFFB
:100B58001FC0DAFF310EDF64B4EF05F0B6EF05F021
:100B680061EF05F020C0D9FF21C0DAFF310EDF6444
:100B7800C0EF05F0C2EF05F061EF05F0809039EFA6
:100B880006F020EE01F01E50D9261F50DA22000E82
:100B9800DF6E20EE01F02050D9262150DA22010E16
:100BA800DF6E20EF06F07EA0DCEF05F0E0EF05F049
:100BB800236A232AE1EF05F0236A7E502318FE0BEF
:100BC80023187E6E1EC0D9FF1FC0DAFF320EDF6009
:100BD800F0EF05F0F2EF05F0F7EF05F01EC0D9FFD2
:100BE8001FC0DAFFDF2A20C0D9FF21C0DAFF320E8A
:100BF800DF6001EF06F003EF06F008EF06F020C013
:100C0800D9FF21C0DAFFDF2A1EC013F01FC014F07D
:100C18002DEC07F020C013F021C014F02DEC07F0E4
:100C2800090E246E1E0E236EE40EE82EFED7232E28
:100C3800FCD7242EFAD700D01EC0D9FF1FC0DAFF78
:100C4800310EDF642AEF06F02CEF06F0D7EF05F03F
:100C580020C0D9FF21C0DAFF310EDF6436EF06F07D
:100C680038EF06F0D7EF05F07E9012005750D8A461
:100C780040EF06F042EF06F0B8EF06F020EE01F084
:100C88001E50D9261F50DA22000EDF6E20EE01F02A
:100C98002050D9262150DA22010EDF6E9DEF06F092
:100CA8007EA059EF06F05DEF06F0236A232A5EEF77
:100CB80006F0236A7E502318FE0B23187E6E1EC092
:100CC800D9FF1FC0DAFF320EDF606DEF06F06FEF5D
:100CD80006F074EF06F01EC0D9FF1FC0DAFFDF2A46
:100CE80020C0D9FF21C0DAFF320EDF607EEF06F0A8
:100CF80080EF06F085EF06F020C0D9FF21C0DAFFAB
:100D0800DF2A1EC013F01FC014F02DEC07F020C01E
:100D180013F021C014F02DEC07F0090E246E1E0EFE
:100D2800236EE40EE82EFED7232EFCD7242EFAD706
:100D380000D01EC0D9FF1FC0DAFF310EDF64A7EF55
:100D480006F0A9EF06F054EF06F020C0D9FF21C045
:100D5800DAFF310EDF64B3EF06F0B5EF06F054EFBB
:100D680006F07E902CEF07F020EE01F01E50D926F9
:100D78001F50DA22010EDF6E20EE01F02050D92636
:100D88002150DA22000EDF6E13EF07F080A0CFEFBC
:100D980006F0D3EF06F0236A232AD4EF06F0236A7D
:100DA80080502318FE0B2318806E1EC0D9FF1FC069
:100DB800DAFF320EDF60E3EF06F0E5EF06F0EAEF68
:100DC80006F01EC0D9FF1FC0DAFFDF2A20C0D9FFF6
:100DD80021C0DAFF320EDF60F4EF06F0F6EF06F01E
:100DE800FBEF06F020C0D9FF21C0DAFFDF2A1EC0C2
:100DF80013F01FC014F02DEC07F020C013F021C031
:100E080014F02DEC07F0090E246E1E0E236EE40E6E
:100E1800E82EFED7232EFCD7242EFAD700D01EC0EA
:100E2800D9FF1FC0DAFF310EDF641DEF07F01FEF97
:100E380007F0CAEF06F020C0D9FF21C0DAFF310E53
:100E4800DF6429EF07F02BEF07F0CAEF06F0809078
:100E5800120020EE01F01350D9261450DA22DF5088
:100E6800D8B439EF07F03BEF07F06CEF07F013C089
:100E7800D9FF14C0DAFFDF50156E1550056E066AEB
:100E880020EE07F01350D9261450DA22DECF07F0EF
:100E9800DDCF08F0B4EC0CF005C00BF006C00CF088
:100EA800000E0E6E640E0D6E73EC09F020EE07F066
:100EB8001350D9261450DA22DECF16F0DDCF17F002
:100EC8000B50165C1C6E0C5017581D6E8FEF07F0F8
:100ED80013C0D9FF14C0DAFFDF50156E1550056E28
:100EE800066A20EE07F01350D9261450DA22DECF16
:100EF80007F0DDCF08F0B4EC0CF005C00BF006C02D
:100F08000CF0000E0E6E640E0D6E73EC09F00BC043
:100F18001CF00CC01DF020EE02F01350D92614501E
:100F2800DA22DECF15F0DDCF16F015C0D9FF16C0D6
:100F3800DAFF1CC0DFFF20EE01F01350D926145051
:100F4800DA22DF50D8B4ABEF07F0ADEF07F0E2EFED
:100F580007F020EE04F01350D9261450DA22DECF21
:100F680015F0DDCF16F015C0D9FF16C0DAFF10EE68
:100F780004F01350E1261450E222E6CF17F0E5CF33
:100F880018F017C0E1FF18C0E2FFE750196E10EE25
:100F980006F01350E1261450E222E7501A6E010EB3
:100FA8001B6E1A2ADAEF07F0D8901B361A2ED8EFE4
:100FB80007F01B501910DF6E16EF08F020EE04F052
:100FC8001350D9261450DA22DECF15F0DDCF16F0F3
:100FD80015C0D9FF16C0DAFF10EE04F01350E12651
:100FE8001450E222E6CF17F0E5CF18F017C0E1FF62
:100FF80018C0E2FFE750196E10EE06F01350E12614
:101008001450E222E7501A6E010E1B6E1A2A0FEFD7
:1010180008F0D8901B361A2E0DEF08F01B50FF0A67
:101028001914DF6E12000D6E0D50D8B41EEF08F0C3
:1010380020EF08F042EF08F008BE27EF08F025EF90
:1010480008F042EF08F005C009F006C00AF007C032
:101058000BF008C00CF0091E0A1E0B1E0C1E092AF4
:10106800000E0A220B220C2209C00FF00AC010F051
:101078000BC011F00CC012F04AEF08F005C00FF0D9
:1010880006C010F007C011F008C012F00550061095
:1010980007100810D8A453EF08F055EF08F05FEFD9
:1010A80008F0000E056E000E066E000E076E000EAC
:1010B800086EF0EF08F0960E0E6E69EF08F00E2A33
:1010C800D8901232113210320F32000E0F14096EFE
:1010D800000E10140A6E000E11140B6EFE0E121480
:1010E8000C6E09500A100B100C10D8A47EEF08F0F3
:1010F80080EF08F063EF08F08EEF08F00E2A010E7B
:101108000F26000E102211221222D890123211320C
:1011180010320F32000E0F14096E000E10140A6EF2
:10112800000E11140B6EFF0E12140C6E09500A10EB
:101138000B100C10D8A4A3EF08F0A5EF08F082EF6D
:1011480008F0ADEF08F00E06D8900F3610361136BD
:10115800123611BEB2EF08F0B4EF08F0BCEF08F099
:10116800020E0E60BAEF08F0BCEF08F0A7EF08F027
:101178000EB0C1EF08F0C3EF08F0C4EF08F0119EFD
:10118800D8900E320EC009F00A6A0B6A0C6A09C0C0
:101198000CF00B6A0A6A096A09500F120A501012F9
:1011A8000B5011120C5012120D50D8B4DEEF08F08B
:1011B800E0EF08F0E8EF08F008BEE7EF08F0E5EF29
:1011C80008F0E8EF08F0128E0FC005F010C006F026
:1011D80011C007F012C008F01200000E13141B6EA5
:1011E800000E14141C6E800E15141D6E7F0E16143E
:1011F8001E6E1B501C101D101E10D8A406EF09F0FF
:1012080008EF09F010EF09F0000E136E000E146ECF
:10121800000E156E000E166E000E17141B6E000ED3
:1012280018141C6E800E19141D6E7F0E1A141E6E73
:101238001B501C101D101E10D8A425EF09F027EF15
:1012480009F02FEF09F0000E176E000E186E000E51
:10125800196E000E1A6E16AE34EF09F036EF09F06B
:101268003FEF09F0136C141ED8B0142A151ED8B01D
:10127800152A800E16561AAE44EF09F046EF09F00B
:101288004FEF09F0176C181ED8B0182A191ED8B0DD
:10129800192A800E1A56000E131A000E141A000E80
:1012A800151A800E161A000E171A000E181A000EBC
:1012B800191A800E1A1A1750135C1850145819501E
:1012C80015581A501658D8B06CEF09F06EEF09F09F
:1012D80071EF09F0D89072EF09F0D8801200000E73
:1012E800106E0EBE7CEF09F07AEF09F082EF09F07C
:1012F8000D6C0E1ED8B00E2A010E106E0CBE89EFB2
:1013080009F087EF09F08FEF09F00B6C0C1ED8B0CD
:101318000C2A010E101A000E126E000E116E0D50DE
:101328000E10D8B49AEF09F09CEF09F0C4EF09F059
:10133800010E0F6EA4EF09F0D8900D360E360F2A65
:101348000EAEA9EF09F0ABEF09F0A0EF09F0D890C5
:10135800113612360D500B5C0E500C58D8A0B7EF52
:1013680009F0B9EF09F0BEEF09F00D500B5E0E5011
:101378000C5A1180D8900E320D320F2EABEF09F0B7
:101388001050D8B4CAEF09F0CCEF09F0D0EF09F04B
:10139800116C121ED8B0122A11C00BF012C00CF03A
:1013A800120020EE01F01E50D9261F50DA22000E3E
:1013B800DF6E20EE01F02050D9262150DA22000EEF
:1013C800DF6E09EF0AF01EC0D9FF1FC0DAFFDF2A5F
:1013D80020C0D9FF21C0DAFFDF2A1EC013F01FC0CA
:1013E80014F02DEC07F020C013F021C014F02DEC00
:1013F80007F0090E236E1E0E226EE40EE82EFED7AD
:10140800222EFCD7232EFAD700D01EC0D9FF1FC02A
:10141800DAFF640EDF6013EF0AF015EF0AF021EF30
:101428000AF020C0D9FF21C0DAFF630EDF641FEF86
:101438000AF021EF0AF0E7EF09F0120020EE01F0C0
:101448001E50D9261F50DA22010EDF6E20EE01F061
:101458002050D9262150DA22010EDF6E56EF0AF00D
:101468001EC0D9FF1FC0DAFFDF2A20C0D9FF21C064
:10147800DAFFDF2A1EC013F01FC014F02DEC07F0AE
:1014880020C013F021C014F02DEC07F0090E236ED4
:101498001E0E226EE40EE82EFED7222EFCD7232E37
:1014A800FAD700D01EC0D9FF1FC0DAFF640EDF6074
:1014B80060EF0AF062EF0AF06EEF0AF020C0D9FF81
:1014C80021C0DAFF630EDF646CEF0AF06EEF0AF0FA
:1014D80034EF0AF012007C88A0EF0AF01EC0D9FF92
:1014E8001FC0DAFFDF50F60F1EC0D9FF1FC0DAFF9A
:1014F800DF6E20C0D9FF21C0DAFFDF50F60F20C011
:10150800D9FF21C0DAFFDF6E1EC013F01FC014F030
:101518002DEC07F020C013F021C014F02DEC07F0DB
:10152800090E236E1E0E226EE40EE82EFED7222E22
:10153800FCD7232EFAD700D01EC0D9FF1FC0DAFF70
:10154800DF50D8B4AAEF0AF0ACEF0AF0B8EF0AF00F
:1015580020C0D9FF21C0DAFFDF50D8A4B6EF0AF0C7
:10156800B8EF0AF072EF0AF07C981200000E0B6ECA
:10157800000E0A6E07500810D8B4C5EF0AF0C7EF7E
:101588000AF0EFEF0AF0010E096ECFEF0AF0D890DB
:1015980007360836092A08AED4EF0AF0D6EF0AF063
:1015A800CBEF0AF0D8900A360B360750055C085086
:1015B8000658D8A0E2EF0AF0E4EF0AF0E9EF0AF0E3
:1015C8000750055E0850065A0A80D890083207323C
:1015D800092ED6EF0AF00AC005F00BC006F012007B
:1015E80082820E019A93090E0D01F16F0E01298373
:1015F8001F8322EC0DF0130E076E000EE9EC0CF0C1
:101608003F0E096E550EE82EFED7092EFCD700F0C6
:10161800040E076E0C0EE9EC0CF0140E076E040EA7
:10162800E9EC0CF0050E076E050EE9EC0CF06C0EFB
:10163800076E060EE9EC0CF0070E076E070EE9ECD4
:101648000CF0F28AF292F28CF28E12005FEC0DF03E
:10165800520E43EC0DF0B60E43EC0DF055EC0DF0C8
:10166800530E43EC0DF0010E36EC0CF00B6E0B50E4
:101678000E6E0F6A000E36EC0CF00B6E0B500D6EF2
:101688000C6A0E500C100E6E0F500D100F6E5AECA7
:101698000DF00EC009F00FC00AF012005FEC0DF05B
:1016A800520E43EC0DF0B80E43EC0DF055EC0DF076
:1016B800530E43EC0DF0010E36EC0CF00B6E0B5094
:1016C8000E6E0F6A000E36EC0CF00B6E0B500D6EA2
:1016D8000C6A0E500C100E6E0F500D100F6E5AEC57
:1016E8000DF00EC009F00FC00AF012005FEC0DF00B
:1016F800520E43EC0DF0B40E43EC0DF055EC0DF02A
:10170800530E43EC0DF0010E36EC0CF00B6E0B5043
:101718000E6E0F6A000E36EC0CF00B6E0B500D6E51
:101728000C6A0E500C100E6E0F500D100F6E5AEC06
:101738000DF00EC009F00FC00AF012005FEC0DF0BA
:10174800520E43EC0DF0BA0E43EC0DF055EC0DF0D3
:10175800530E43EC0DF0010E36EC0CF00B6E0B50F3
:101768000E6E0F6A000E36EC0CF00B6E0B500D6E01
:101778000C6A0E500C100E6E0F500D100F6E5AECB6
:101788000DF00EC009F00FC00AF01200056EBD5032
:101798008F0B4009BD6EE00EBE16BF50F00B01095D
:1017A800BF6E05C0BCFFBD8E85948598839E879CBF
:1017B8007D947D987B9E7F9C000EA36E000EA06E8C
:1017C800A48EA18E0A0E0E01746F0B0E696F49EC80
:1017D8000DF064EC0DF02DEC0DF012002AEC0BF07E
:1017E80009C010F00AC011F052EC0BF009C012F059
:1017F8000AC013F0A2EC0BF009C014F00AC015F0EF
:101808007AEC0BF009C016F00AC017F020EE10F0C1
:1018180000EE10F0070EDBCFEBFFE806FCE212004B
:101828000E0133A31AEF0CF01CEF0CF034EF0CF0A0
:10183800010E00019D6F7CAE24EF0CF028EF0CF038
:10184800036A032A29EF0CF0036A033203327C503F
:1018580003187F0B03187C6E38EC0DF00E013393E0
:1018680058921100076E8CEC0CF00E01DA878CECA4
:101878000CF0D5CE08F08CEC0CF00750D8B447EF3C
:101888000CF04BEF0CF0066A062A4CEF0CF0066AD7
:10189800063A06460E01DA510618DF0B0618DA6F0B
:1018A800DA890850120077EC0CF0010E076E000E72
:1018B800E9EC0CF03F0E096E550EE82EFED7092E06
:1018C800FCD700F0030E076E000EE9EC0CF0D50E05
:1018D800076E010EE9EC0CF087928198869E000E47
:1018E800D8EC0CF012000E01D951F00B0809D96F91
:1018F800D98B9F0ED66F848A848CA79BA79D1D0EBB
:101908001D6F1E0E1C6F1C0E6F6F1B0E706F12006A
:101918000E01D8B592EF0CF094EF0CF08CEF0CF0B0
:10192800DACE05F01F0E0516D8A49DEF0CF09FEF38
:101938000CF08CEF0CF012000E01D8B5A6EF0CF0ED
:10194800A8EF0CF0A0EF0CF0DACE01F01F0E011694
:10195800D8A4B1EF0CF0B3EF0CF0A0EF0CF012002C
:1019680005500702F3CF09F0F4CF0AF0055008023A
:10197800F3500A2606500702F3500A2609C005F05C
:101988000AC006F0120000EE60F03E0EEE6AE806AD
:10199800FDE100EE3BF01D0EEE6AE806FDE1589011
:1019A8005892000146EF04F0056E05B002D07F9210
:1019B80001D07F8205B002D07E9E01D07E8E05B018
:1019C80002D0799801D079881200086E5FEC0DF08A
:1019D800520E43EC0DF00850800943EC0DF007500F
:1019E80043EC0DF05AEC0DF01200120E0E01626F6E
:1019F800110E156F8382E997E895330EE56F000E97
:101A0800E66FE789E88BE78F1200868C0E01B48DAC
:101A18000F015899FC0E58172E0E5F6F609460885E
:101A2800608E1200608060B01CEF0DF01EEF0DF0AC
:101A380017EF0DF064CF05F0055012005FEC0DF0C4
:101A4800520E43EC0DF0E60E43EC0DF05AEC0DF09F
:101A580012008892849684988690889080927C96CA
:101A68007C987E90809012006EEC0DF0520E4FEC38
:101A78000DF0E60E4FEC0DF069EC0DF01200066E5D
:101A88008CEC0CF006C0D5FE1200868486860E010A
:101A9800B495B4971200026EA0EC0CF002C0D5FE0B
:101AA80012008CEC0CF00E01DA8312008CEC0CF0B6
:101AB8000E01DA8512008CEC0CF00E01DA811200AE
:101AC800849E88967C9E80961200A0EC0CF00E01F5
:0E1AD800DA851200A0EC0CF00E01DA8112008B
:020000040020DA
:10000000FF0FFF0FFF0FFF0FFF0FFF0FFF0FFF0F80
:020000040030CA
:0C000000AAFFFFFF9FFFFFFFFFFFFFFFB5
:00000001FF
