:04000000E5EF14F024
:100E000000524742433A2025692025692025692060
:100E100025692020202020524742435F72656C3AAA
:100E200020252E336620252E336620252E3366207E
:100E300020202020436F6C6F75723A2025730A0DB5
:100E400000524742433A2025692025692025692020
:100E5000256920202020205468726573686F6C64B7
:100E60003A2025692025692025690A0D006C6967EB
:100E7000687420626C756500756E6B6E6F776E00BE
:100E80006F72616E67650079656C6C6F770077686B
:100E900069746500677265656E0070696E6B0072DB
:100EA000656400000E01299334C00CF035C00DF0CC
:100EB0003AEC13F0000E286E000E296E3C0E2A6EDE
:100EC000000E2B6EACEC0EF0710E016E3D0E026E3C
:100ED0000A0E036E3F0E046E3CC005F03DC006F0E6
:100EE0003EC007F03FC008F012EC10F0D8B07BEF26
:100EF00007F07DEF07F010EF08F040C001F041C0AF
:100F000002F042C003F043C004F0480E056EE10E4B
:100F1000066E7A0E076E3E0E086E12EC10F0D8B018
:100F200094EF07F096EF07F010EF08F044C001F0DF
:100F300045C002F046C003F047C004F0EC0E056E59
:100F4000510E066E380E076E3E0E086E12EC10F053
:100F5000D8B0ADEF07F0AFEF07F010EF08F0000EDC
:100F60000E6E000E0F6E030E106E67EC0FF0000E8B
:100F7000286E000E296E3C0E2A6E000E2B6EACEC15
:100F80000EF044C001F045C002F046C003F047C077
:100F900004F0290E056E5C0E066E0F0E076E3F0EF6
:100FA000086E12EC10F0D8B0D8EF07F0DAEF07F0C7
:100FB000F6EF07F036C022F037C023F038C024F037
:100FC00039C025F0000E276E870E266E31EC14F026
:100FD00036C01AF037C01BF038C01CF039C01DF005
:100FE000FBEC12F0000E516E16EF0BF036C022F043
:100FF00037C023F038C024F039C025F0000E276E2A
:101000005A0E266E31EC14F036C01AF037C01BF0C1
:1010100038C01CF039C01DF0FBEC12F0F2EF07F005
:101020003CC001F03DC002F03EC003F03FC004F000
:10103000AE0E056E470E066EE10E076E3E0E086E92
:1010400012EC10F0D8B027EF08F029EF08F01FEFEE
:1010500009F09A0E016E990E026E990E036E3E0E05
:10106000046E40C005F041C006F042C007F043C026
:1010700008F012EC10F0D8B040EF08F042EF08F0A2
:101080001FEF09F0140E016EAE0E026E470E036ED6
:101090003E0E046E44C005F045C006F046C007F0A1
:1010A00047C008F012EC10F0D8B059EF08F05BEF31
:1010B00008F01FEF09F0000E0E6E000E0F6E030E0B
:1010C000106E67EC0FF0000E286E000E296E3C0EBD
:1010D0002A6E000E2B6EACEC0EF03CC001F03DC051
:1010E00002F03EC003F03FC004F0660E056E660ECF
:1010F000066E260E076E3F0E086E12EC10F0D8B08A
:1011000084EF08F086EF08F0B9EF08F01F0E016ECB
:10111000850E026E2B0E036E3F0E046E44C005F06A
:1011200045C006F046C007F047C008F012EC10F0CA
:10113000D8B09DEF08F09FEF08F0B9EF08F036C087
:1011400022F037C023F038C024F039C025F0000E5B
:10115000276EB40E266E31EC14F036C01AF037C08C
:101160001BF038C01CF039C01DF0FBEC12F0F2EFA0
:1011700007F03CC001F03DC002F03EC003F03FC0AC
:1011800004F0EC0E056E510E066EB80E076E3D0EA5
:10119000086E12EC10F0D8B0D0EF08F0D2EF08F0E3
:1011A00005EF09F0520E016EB80E026E1E0E036EB0
:1011B0003F0E046E44C005F045C006F046C007F07F
:1011C00047C008F012EC10F0D8B0E9EF08F0EBEFF0
:1011D00008F005EF09F036C022F037C023F038C020
:1011E00024F039C025F0000E276E5A0E266E58ECFA
:1011F00014F036C01AF037C01BF038C01CF039C0EC
:101200001DF0FBEC12F0F2EF07F036C022F037C011
:1012100023F038C024F039C025F0000E276E870E69
:10122000266E58EC14F036C01AF037C01BF038C0E8
:101230001CF039C01DF0FBEC12F0F2EF07F0480E85
:10124000016EE10E026EFA0E036E3E0E046E3CC09D
:1012500005F03DC006F03EC007F03FC008F012ECBC
:1012600010F0D8B036EF09F038EF09F0A4EF09F02C
:10127000850E016EEB0E026E910E036E3E0E046E35
:1012800040C005F041C006F042C007F043C008F07E
:1012900012EC10F0D8B04FEF09F051EF09F0A4EFC5
:1012A00009F0EC0E016E510E026E380E036E3E0E0A
:1012B000046E44C005F045C006F046C007F047C0C4
:1012C00008F012EC10F0D8B068EF09F06AEF09F0FE
:1012D000A4EF09F036C01AF037C01BF038C01CF07C
:1012E00039C01DF061EC12F036C01AF037C01BF0A7
:1012F00038C01CF039C01DF0FBEC12F0090E3B6E3B
:101300001E0E3A6EE40EE82EFED73A2EFCD73B2E88
:10131000FAD700D036C022F037C023F038C024F00E
:1013200039C025F0000E276E5A0E266E31EC14F0EF
:1013300036C01AF037C01BF038C01CF039C01DF0A1
:10134000FBEC12F0F2EF07F0480E016EE10E026EB8
:10135000FA0E036E3E0E046E3CC005F03DC006F072
:101360003EC007F03FC008F012EC10F0D8B0BBEF61
:1013700009F0BDEF09F01FEF0AF040C001F041C0D5
:1013800002F042C003F043C004F0CD0E056ECC0E57
:10139000066E8C0E076E3E0E086E12EC10F0D8B082
:1013A000D4EF09F0D6EF09F01FEF0AF0140E016E2A
:1013B000AE0E026E470E036E3E0E046E44C005F084
:1013C00045C006F046C007F047C008F012EC10F028
:1013D000D8B0EDEF09F0EFEF09F01FEF0AF036C0DB
:1013E0001AF037C01BF038C01CF039C01DF061EC9A
:1013F00012F036C01AF037C01BF038C01CF039C0EC
:101400001DF0FBEC12F0090E3B6E1E0E3A6EE40E60
:10141000E82EFED73A2EFCD73B2EFAD700D036C0A6
:1014200022F037C023F038C024F039C025F0000E78
:10143000276E5A0E266E58EC14F098EF09F03CC057
:1014400001F03DC002F03EC003F03FC004F01F0EAB
:10145000056E850E066EEB0E076E3E0E086E12ECE4
:1014600010F0D8B036EF0AF038EF0AF088EF0AF043
:101470003D0E016E0A0E026E970E036E3E0E046E56
:1014800040C005F041C006F042C007F043C008F07C
:1014900012EC10F0D8B04FEF0AF051EF0AF088EFDD
:1014A0000AF03D0E016E0A0E026E570E036E3E0EDE
:1014B000046E44C005F045C006F046C007F047C0C2
:1014C00008F012EC10F0D8B068EF0AF06AEF0AF0FA
:1014D00088EF0AF036C022F037C023F038C024F07D
:1014E00039C025F0000E276EB40E266E31EC14F0D4
:1014F00036C01AF037C01BF038C01CF039C01DF0E0
:10150000FBEC12F0000E516E010E506E16EF0BF058
:10151000520E3B6E2B0E3A6E000EE82EFED73A2E80
:10152000FCD73B2EFAD700D036C01AF037C01BF0DC
:1015300038C01CF039C01DF0AEEC12F0D00E3A6E7F
:10154000CA0EE82EFED73A2EFCD736C01AF037C0A6
:101550001BF038C01CF039C01DF0FBEC12F034C099
:101560000CF035C00DF03AEC13F020EE06F03450DC
:10157000D9263550DA224E50DE5C4F50DE58D8A0C6
:10158000C4EF0AF0C6EF0AF0D7EF0AF020EE06F03B
:101590003450D9263550DA22DE50575CDE50585888
:1015A000D8B0D5EF0AF0D7EF0AF00AEF0BF0030E30
:1015B0005160DDEF0AF0DFEF0AF0E4EF0AF00E0110
:1015C0003383512A16EF0BF0808636C022F037C0E5
:1015D00023F038C024F039C025F0000E276EB40E79
:1015E000266E31EC14F036C01AF037C01BF038C04C
:1015F0001CF039C01DF0FBEC12F05050D8B403EFD2
:101600000BF006EF0BF0010E07EF0BF0000E506E23
:10161000F2EF07F036C01AF037C01BF038C01CF0EC
:1016200039C01DF0AEEC12F0F2EF07F0000E526E72
:101630000E01298312001250800B1F6E12501224CB
:10164000266E11AE26EF0BF028EF0BF029EF0BF012
:1016500026802650D8B42FEF0BF031EF0BF046EF79
:101660000BF02628D8A437EF0BF039EF0BF041EF41
:101670000BF0000E0F6E000E106E000E116E000EBD
:10168000126E118E000E126E4EEF0BF0000E0F6EEA
:10169000000E106E000E116E000E126E1650800BB2
:1016A0001F1A16501624276E15AE59EF0BF05BEF7C
:1016B0000BF05CEF0BF027802750D8B462EF0BF0F3
:1016C00064EF0BF079EF0BF02728D8A46AEF0BF04A
:1016D0006CEF0BF074EF0BF0000E136E000E146E37
:1016E000000E156E000E166E158E000E166E81EF32
:1016F0000BF0000E136E000E146E000E156E000E31
:10170000166E1350141015101610D8A48AEF0BF093
:101710008CEF0BF0A4EF0BF0000E0F6E000E106EAE
:10172000000E116E000E126E800E11127F0E12123C
:101730001F5012120FC00FF010C010F011C011F0A6
:1017400012C012F0E7EF0CF02650D8A4AAEF0BF06D
:10175000ACEF0BF0B6EF0BF0000E0F6E000E106E3C
:10176000000E116E000E126EE7EF0CF0275026C02F
:1017700017F0186A175E000E185A7F0E1724206E95
:10178000000E1820216E0FC01BF010C01CF011C0FD
:101790001DF012C01EF0000E0F6E000E106E000E37
:1017A000116E000E126E000E226E000E236E000EE1
:1017B000246E000E256E000E276E17EF0CF02750DA
:1017C000D8B4E5EF0BF0E7EF0BF0FEEF0BF0D8909D
:1017D0001B361C361D361E36D8900F361036113685
:1017E000123625AEF6EF0BF0F8EF0BF0F9EF0BF039
:1017F0000F80D890223623362436253613501B5CB2
:1018000014501C5815501D5816501E58D8A00BEFD8
:101810000CF00DEF0CF016EF0CF0258C13501B5E46
:1018200014501C5A15501D5A16501E5A272A190EAC
:1018300027641DEF0CF01FEF0CF0DFEF0BF01B50D7
:101840001C101D101E10D8B428EF0CF02AEF0CF05D
:1018500042EF0CF0228042EF0CF0D8900F36103699
:101860001136123625AE37EF0CF039EF0CF03AEFA7
:101870000CF00F80D89022362336243625362006E9
:10188000D8A0210611AE47EF0CF049EF0CF02DEF78
:101890000CF0000E276E25AE50EF0CF052EF0CF05E
:1018A00076EF0CF0FF0E2214176EFF0E2314186E45
:1018B000FF0E2414196E7F0E25141A6E175018107F
:1018C00019101A10D8B467EF0CF069EF0CF06DEF37
:1018D0000CF0010E276E76EF0CF00FA072EF0CF0FB
:1018E00074EF0CF076EF0CF069EF0CF02750D8B4E1
:1018F0007CEF0CF07EEF0CF0A2EF0CF0010E0F2647
:10190000000E10221122122212A089EF0CF08BEF90
:101910000CF0A2EF0CF00FC017F010C018F011C0BF
:1019200019F012C01AF01A341A321932183217325A
:1019300017C00FF018C010F019C011F01AC012F043
:10194000204A212A21BEADEF0CF0215008E12028C9
:10195000D8A0ADEF0CF0AFEF0CF0BAEF0CF0000E2A
:10196000216E2068000E0F6E000E106E000E116EBC
:10197000000E126E21BEC7EF0CF0215006E12004CC
:10198000D8B0C5EF0CF0C7EF0CF0D5EF0CF0000E9F
:10199000216E000E206E000E0F6E000E106E000EF7
:1019A000116E000E126E000E1F6E20C026F026A0D3
:1019B000DCEF0CF0DEEF0CF0E1EF0CF0118EE2EF5B
:1019C0000CF0119ED8902630126E98EF0BF012009A
:1019D00020EE01F00F50D9261050DA22DF50D8B493
:1019E000F4EF0CF0F6EF0CF027EF0DF00FC0D9FF7D
:1019F00010C0DAFFDF50116E1150016E026A20EE46
:101A000007F00F50D9261050DA22DECF03F0DDCFD9
:101A100004F0F8EC14F001C007F002C008F0000E6A
:101A20000A6E640E096EFFEC11F020EE07F00F5005
:101A3000D9261050DA22DECF12F0DDCF13F0075096
:101A4000125C186E08501358196E4AEF0DF00FC053
:101A5000D9FF10C0DAFFDF50116E1150016E026A1B
:101A600020EE07F00F50D9261050DA22DECF03F017
:101A7000DDCF04F0F8EC14F001C007F002C008F06C
:101A8000000E0A6E640E096EFFEC11F007C018F02C
:101A900008C019F020EE02F00F50D9261050DA22BB
:101AA000DECF11F0DDCF12F011C0D9FF12C0DAFF86
:101AB00018C0DFFF20EE01F00F50D9261050DA22B7
:101AC000DF50D8B466EF0DF068EF0DF09DEF0DF02C
:101AD00020EE04F00F50D9261050DA22DECF11F09C
:101AE000DDCF12F011C0D9FF12C0DAFF10EE04F002
:101AF0000F50E1261050E222E6CF13F0E5CF14F0AC
:101B000013C0E1FF14C0E2FFE750156E10EE06F0BF
:101B10000F50E1261050E222E750166E010E176EAC
:101B2000162A95EF0DF0D8901736162E93EF0DF07C
:101B300017501510DF6ED1EF0DF020EE04F00F50AE
:101B4000D9261050DA22DECF11F0DDCF12F011C00D
:101B5000D9FF12C0DAFF10EE04F00F50E12610504A
:101B6000E222E6CF13F0E5CF14F013C0E1FF14C07A
:101B7000E2FFE750156E10EE06F00F50E126105010
:101B8000E222E750166E010E176E162ACAEF0DF00C
:101B9000D8901736162EC8EF0DF01750FF0A1514FF
:101BA000DF6E1200096E0950D8B4D9EF0DF0DBEFEB
:101BB0000DF0FDEF0DF004BEE2EF0DF0E0EF0DF0E3
:101BC000FDEF0DF001C005F002C006F003C007F004
:101BD00004C008F0051E061E071E081E052A000E7A
:101BE00006220722082205C00BF006C00CF007C031
:101BF0000DF008C00EF005EF0EF001C00BF002C0B2
:101C00000CF003C00DF004C00EF0015002100310E0
:101C10000410D8A40EEF0EF010EF0EF01AEF0EF035
:101C2000000E016E000E026E000E036E000E046EBA
:101C3000ABEF0EF0960E0A6E24EF0EF00A2AD89043
:101C40000E320D320C320B32000E0B14056E000EEC
:101C50000C14066E000E0D14076EFE0E0E14086EA8
:101C60000550061007100810D8A439EF0EF03BEF0E
:101C70000EF01EEF0EF049EF0EF00A2A010E0B26B1
:101C8000000E0C220D220E22D8900E320D320C3294
:101C90000B32000E0B14056E000E0C14066E000EB7
:101CA0000D14076EFF0E0E14086E05500610071077
:101CB0000810D8A45EEF0EF060EF0EF03DEF0EF0CE
:101CC00068EF0EF00A06D8900B360C360D360E363D
:101CD0000DBE6DEF0EF06FEF0EF077EF0EF0020E0F
:101CE0000A6075EF0EF077EF0EF062EF0EF00AB0BB
:101CF0007CEF0EF07EEF0EF07FEF0EF00D9ED89091
:101D00000A320AC005F0066A076A086A05C008F0C8
:101D1000076A066A056A05500B1206500C12075036
:101D20000D1208500E120950D8B499EF0EF09BEF27
:101D30000EF0A3EF0EF004BEA2EF0EF0A0EF0EF037
:101D4000A3EF0EF00E8E0BC001F00CC002F00DC020
:101D500003F00EC004F0120028C0D9FF29C0DAFF3A
:101D6000DECF2CF0DDCF2DF020EE02F02850D9266A
:101D70002950DA22DECF2EF0DDCF2FF020EE04F056
:101D80002850D9262950DA22DECF30F0DDCF31F0CD
:101D900020EE06F02850D9262950DA22DECF32F084
:101DA000DDCF33F02CC001F02DC002F0036A046ACD
:101DB000000ED2EC0DF001C00FF002C010F003C015
:101DC00011F004C012F032C001F033C002F0036A17
:101DD000046A000ED2EC0DF001C013F002C014F042
:101DE00003C015F004C016F01BEC0BF02AC0D9FF9D
:101DF0002BC0DAFF0FC0DEFF10C0DEFF11C0DEFF18
:101E000012C0DEFF2EC001F02FC002F0036A046A88
:101E1000000ED2EC0DF001C00FF002C010F003C0B4
:101E200011F004C012F032C001F033C002F0036AB6
:101E3000046A000ED2EC0DF001C013F002C014F0E1
:101E400003C015F004C016F01BEC0BF020EE04F0FC
:101E50002A50D9262B50DA220FC0DEFF10C0DEFF39
:101E600011C0DEFF12C0DEFF30C001F031C002F051
:101E7000036A046A000ED2EC0DF001C00FF002C03C
:101E800010F003C011F004C012F032C001F033C0F2
:101E900002F0036A046A000ED2EC0DF001C013F0E8
:101EA00002C014F003C015F004C016F01BEC0BF0D8
:101EB00020EE08F02A50D9262B50DA220FC0DEFF80
:101EC00010C0DEFF11C0DEFF12C0DEFF1200000EE8
:101ED0000BEC15F0090E126E1E0E116EE40EE82EBC
:101EE000FED7112EFCD7122EFAD700D01004D8A49A
:101EF0007CEF0FF07EEF0FF0ACEF0FF07F82520E11
:101F0000126E2B0E116E000EE82EFED7112EFCD78E
:101F1000122EFAD700D00EC00CF00FC00DF03AEC24
:101F200013F0520E126E2B0E116E000EE82EFED71D
:101F3000112EFCD7122EFAD700D07F92020E126E0D
:101F4000A00E116E920EE82EFED7112EFCD7122E87
:101F5000FAD700D002EF10F0020E1018D8A4B3EF99
:101F60000FF0B5EF0FF0D7EF0FF07988520E126E29
:101F70002B0E116E000EE82EFED7112EFCD7122E5E
:101F8000FAD700D00EC00CF00FC00DF03AEC13F0F1
:101F9000520E126E2B0E116E000EE82EFED7112E71
:101FA000FCD7122EFAD700D079989EEF0FF0030ECF
:101FB0001018D8A4DEEF0FF0E0EF0FF002EF10F0F2
:101FC0007E8E520E126E2B0E116E000EE82EFED774
:101FD000112EFCD7122EFAD700D00EC00CF00FC075
:101FE0000DF03AEC13F0520E126E2B0E116E000E25
:101FF000E82EFED7112EFCD7122EFAD700D07E9EE7
:102000009EEF0FF0010E0BEC15F0090E126E1E0E76
:10201000116EE40EE82EFED7112EFCD7122EFAD741
:1020200000D01200000E0114096E000E02140A6E98
:10203000800E03140B6E7F0E04140C6E09500A10F0
:102040000B100C10D8A427EF10F029EF10F031EF8F
:1020500010F0000E016E000E026E000E036E000EF8
:10206000046E000E0514096E000E06140A6E800E32
:1020700007140B6E7F0E08140C6E09500A100B101B
:102080000C10D8A446EF10F048EF10F050EF10F00D
:10209000000E056E000E066E000E076E000E086E36
:1020A00004AE55EF10F057EF10F060EF10F0016C38
:1020B000021ED8B0022A031ED8B0032A800E04568E
:1020C00008AE65EF10F067EF10F070EF10F0056CE0
:1020D000061ED8B0062A071ED8B0072A800E08565A
:1020E000000E011A000E021A000E031A800E041AC6
:1020F000000E051A000E061A000E071A800E081AA6
:102100000550015C06500258075003580850045807
:10211000D8B08DEF10F08FEF10F092EF10F0D89054
:1021200093EF10F0D8801200000E0001CB6F640E08
:10213000CA6F000E4F6E000E4E6E7F0E586E5768BF
:10214000000E526E000E516E000E506E000EB86FF3
:10215000010EB96FA30EBA6F0F0EBB6F7D0EBC6F71
:102160000F0EBD6F040EBE6F000EC06F630EBF6F0B
:10217000000EC16F010EC26FA00EC36F0F0EC46FB1
:102180007F0EC56F0F0EC66F060EC76F000EC96FAC
:10219000630EC86F4CEC15F0A0EC14F0630E09EC64
:1021A00014F03CEC15F02CEC15F02CEC15F08EA492
:1021B000DCEF10F0DEEF10F0E5EF10F08EB6E3EF9D
:1021C00010F0E5EF10F0D7EF10F07C86010E0BEC6D
:1021D00015F0520E496E2B0E486E000EE82EFED7FB
:1021E000482EFCD7492EFAD700D08EA4FAEF10F073
:1021F000FCEF10F003EF11F08EB601EF11F003EFDA
:1022000011F0F5EF10F0B00E346E000E356EB80E12
:10221000366E000E376EC10E386E000E396E52ECFF
:1022200007F0F5EF10F000EF00F020EE01F01A508B
:10223000D9261B50DA22010EDF6E20EE01F01C5071
:10224000D9261D50DA22000EDF6E70EF11F080A04B
:102250002CEF11F030EF11F0206A202A31EF11F04D
:10226000206A80502018FE0B2018806E1AC0D9FFFB
:102270001BC0DAFF320EDF6040EF11F042EF11F0C9
:1022800047EF11F01AC0D9FF1BC0DAFFDF2A1CC0CC
:10229000D9FF1DC0DAFF320EDF6051EF11F053EFAE
:1022A00011F058EF11F01CC0D9FF1DC0DAFFDF2A72
:1022B0001AC00FF01BC010F0E8EC0CF01CC00FF0BF
:1022C0001DC010F0E8EC0CF0090E216E1E0E206E01
:1022D000E40EE82EFED7202EFCD7212EFAD700D010
:1022E0001AC0D9FF1BC0DAFF310EDF647AEF11F09C
:1022F0007CEF11F027EF11F01CC0D9FF1DC0DAFFF1
:10230000310EDF6486EF11F088EF11F027EF11F046
:102310008090120020EE01F01A50D9261B50DA22CC
:10232000000EDF6E20EE01F01C50D9261D50DA227F
:10233000010EDF6EE5EF11F07EA0A1EF11F0A5EF29
:1023400011F0206A202AA6EF11F0206A7E50201892
:10235000FE0B20187E6E1AC0D9FF1BC0DAFF320EAA
:10236000DF60B5EF11F0B7EF11F0BCEF11F01AC05C
:10237000D9FF1BC0DAFFDF2A1CC0D9FF1DC0DAFF5E
:10238000320EDF60C6EF11F0C8EF11F0CDEF11F0A3
:102390001CC0D9FF1DC0DAFFDF2A1AC00FF01BC016
:1023A00010F0E8EC0CF01CC00FF01DC010F0E8ECD1
:1023B0000CF0090E216E1E0E206EE40EE82EFED7E4
:1023C000202EFCD7212EFAD700D01AC0D9FF1BC06F
:1023D000DAFF310EDF64EFEF11F0F1EF11F09CEF57
:1023E00011F01CC0D9FF1DC0DAFF310EDF64FBEF16
:1023F00011F0FDEF11F09CEF11F07E901200000E35
:102400000C6E0ABE08EF12F006EF12F00EEF12F09B
:10241000096C0A1ED8B00A2A010E0C6E08BE15EF10
:1024200012F013EF12F01BEF12F0076C081ED8B079
:10243000082A010E0C1A000E0E6E000E0D6E0950C9
:102440000A10D8B426EF12F028EF12F050EF12F075
:10245000010E0B6E30EF12F0D89009360A360B2AB7
:102460000AAE35EF12F037EF12F02CEF12F0D890E1
:102470000D360E360950075C0A500858D8A043EFB5
:1024800012F045EF12F04AEF12F00950075E0A50C1
:10249000085A0D80D8900A3209320B2E37EF12F00D
:1024A0000C50D8B456EF12F058EF12F05CEF12F067
:1024B0000D6C0E1ED8B00E2A0DC007F00EC008F02D
:1024C000120020EE01F01A50D9261B50DA22000E1D
:1024D000DF6E20EE01F01C50D9261D50DA22000ECE
:1024E000DF6E95EF12F01AC0D9FF1BC0DAFFDF2AAA
:1024F0001CC0D9FF1DC0DAFFDF2A1AC00FF01BC0B5
:1025000010F0E8EC0CF01CC00FF01DC010F0E8EC6F
:102510000CF0090E1F6E1E0E1E6EE40EE82EFED786
:102520001E2EFCD71F2EFAD700D01AC0D9FF1BC011
:10253000DAFF640EDF609FEF12F0A1EF12F0ADEF53
:1025400012F01CC0D9FF1DC0DAFF630EDF64ABEFD1
:1025500012F0ADEF12F073EF12F0120020EE01F066
:102560001A50D9261B50DA22010EDF6E20EE01F040
:102570001C50D9261D50DA22010EDF6EE2EF12F058
:102580001AC0D9FF1BC0DAFFDF2A1CC0D9FF1DC04B
:10259000DAFFDF2A1AC00FF01BC010F0E8EC0CF0D5
:1025A0001CC00FF01DC010F0E8EC0CF0090E1F6EFF
:1025B0001E0E1E6EE40EE82EFED71E2EFCD71F2E1A
:1025C000FAD700D01AC0D9FF1BC0DAFF640EDF6053
:1025D000ECEF12F0EEEF12F0FAEF12F01CC0D9FFA0
:1025E0001DC0DAFF630EDF64F8EF12F0FAEF12F0AD
:1025F000C0EF12F012007C8820EF13F01AC0D9FF50
:102600001BC0DAFFDF061CC0D9FF1DC0DAFFDF06E2
:102610001AC00FF01BC010F0E8EC0CF01CC00FF05B
:102620001DC010F0E8EC0CF0090E1F6E1E0E1E6EA1
:10263000E40EE82EFED71E2EFCD71F2EFAD700D0B0
:102640001AC0D9FF1BC0DAFFDF50D8B42AEF13F04D
:102650002CEF13F038EF13F01CC0D9FF1DC0DAFFC8
:10266000DF50D8A436EF13F038EF13F0FEEF12F07E
:102670007C98120069EC13F00CC0D9FF0DC0DAFF92
:1026800005C0DEFF06C0DDFF91EC13F020EE02F086
:102690000C50D9260D50DA2205C0DEFF06C0DDFF42
:1026A000E1EC13F020EE04F00C50D9260D50DA22A4
:1026B00005C0DEFF06C0DDFFB9EC13F020EE06F02A
:1026C0000C50D9260D50DA2205C0DEFF06C0DDFF12
:1026D000120088EC15F0520E77EC15F0B60E77EC80
:1026E00015F08DEC15F0530E77EC15F0010E7FEC24
:1026F00014F0076E07500A6E0B6A000E7FEC14F0A0
:10270000076E0750096E086A0A5008100A6E0B50CF
:1027100009100B6E83EC15F00AC005F00BC006F033
:10272000120088EC15F0520E77EC15F0B80E77EC2D
:1027300015F08DEC15F0530E77EC15F0010E7FECD3
:1027400014F0076E07500A6E0B6A000E7FEC14F04F
:10275000076E0750096E086A0A5008100A6E0B507F
:1027600009100B6E83EC15F00AC005F00BC006F0E3
:10277000120088EC15F0520E77EC15F0B40E77ECE1
:1027800015F08DEC15F0530E77EC15F0010E7FEC83
:1027900014F0076E07500A6E0B6A000E7FEC14F0FF
:1027A000076E0750096E086A0A5008100A6E0B502F
:1027B00009100B6E83EC15F00AC005F00BC006F093
:1027C000120088EC15F0520E77EC15F0BA0E77EC8B
:1027D00015F08DEC15F0530E77EC15F0010E7FEC33
:1027E00014F0076E07500A6E0B6A000E7FEC14F0AF
:1027F000076E0750096E086A0A5008100A6E0B50DF
:1028000009100B6E83EC15F00AC005F00BC006F042
:102810001200016EBD508F0B4009BD6EE00EBE165A
:10282000BF50F00B0109BF6E01C0BCFFBD8E859487
:102830008598839E879C7D947D987B9E7F9C000ECF
:10284000A36E000EA06EA48EA18E0A0E0E01746FF0
:102850000B0E696F7DEC15F092EC15F065EC15F040
:1028600012005050D8A437EF14F039EF14F049EFAC
:1028700014F022C01AF023C01BF024C01CF025C0A5
:102880001DF026C01EF027C01FF015EC11F057EF09
:1028900014F022C01AF023C01BF024C01CF025C085
:1028A0001DF026C01EF027C01FF08AEC11F01200A8
:1028B0005050D8A45EEF14F060EF14F070EF14F0F5
:1028C00022C01AF023C01BF024C01CF025C01DF04C
:1028D00026C01EF027C01FF08AEC11F07EEF14F026
:1028E00022C01AF023C01BF024C01CF025C01DF02C
:1028F00026C01EF027C01FF015EC11F01200036E69
:10290000D1EC14F00E01DA87D1EC14F0D5CE04F03E
:10291000D1EC14F00350D8B490EF14F094EF14F00D
:10292000026A022A95EF14F0026A023A02460E0188
:10293000DA510218DF0B0218DA6FDA89045012003C
:10294000BCEC14F0010E036E000E1CEC15F03F0EF3
:10295000056E550EE82EFED7052EFCD700F0030EAF
:10296000036E000E1CEC15F0D50E036E010E1CEC70
:1029700015F070EC15F012000E01D951F00B08099A
:10298000D96FD98B9F0ED66F848A848CA79BA79D05
:102990001D0E1D6F1E0E1C6F1C0E6F6F1B0E706FB9
:1029A00012000E01D8B5D7EF14F0D9EF14F0D1EF23
:1029B00014F0DACE01F01F0E0116D8A4E2EF14F0E5
:1029C000E4EF14F0D1EF14F0120000EE60F0500EBE
:1029D000EE6AE806FDE100EE4AF00D0EEE6AE8064A
:1029E000FDE1000EF86E0E0EF76E000194EF10F090
:1029F00001500302F3CF05F0F4CF06F001500402BA
:102A0000F350062602500302F350062605C001F0DB
:102A100006C002F01200016E01B002D07F9201D018
:102A20007F8201B002D0799801D0798801B002D0BC
:102A30007E9E01D07E8E1200046E88EC15F0520E40
:102A400077EC15F00450800977EC15F0035077EC23
:102A500015F083EC15F0120059EC15F0026E960E8D
:102A6000026035EF15F037EF15F03AEF15F07C8E78
:102A70003BEF15F07C9E1200120E0E01626F110EDC
:102A8000156F8382E997E895330EE56F000EE66FC8
:102A9000E789E88BE78F1200868C0E01B48D0F0159
:102AA0005899FC0E58172E0E5F6F60946088608EE8
:102AB0001200608060B05FEF15F061EF15F05AEF23
:102AC00015F064CF01F0015012008892849684982A
:102AD0008690889080927C967C987E908090120060
:102AE00087928198869E000E0BEC15F01200026E04
:102AF000D1EC14F002C0D5FE1200868486860E0149
:102B0000B495B4971200D1EC14F00E01DA851200DE
:102B1000D1EC14F00E01DA811200D1EC14F00E01A8
:0E2B2000DA831200849E88967C9E80961200B6
:020000040020DA
:10000000FF0FFF0FFF0FFF0FFF0FFF0FFF0FFF0F80
:020000040030CA
:0C000000AAFFFFFF9FFFFFFFFFFFFFFFB5
:00000001FF
