:0400000013EF00F00A
:06000800598206EF11F021
:100018005980E0CF06F006C0E0FF599010006FEF5E
:0200280010F0D6
:0F0E00000025692025692025692025690A000041
:100E100024C03CF025C03DF026C03EF027C03FF086
:100E200028C040F029C041F02AC042F02BC043F056
:100E300043BE1DEF07F020EF07F0010E21EF07F092
:100E4000000E3A6E3B6A3A503B10D8B42AEF07F0D6
:100E50002CEF07F03CEF07F0431E421E411E401EE0
:100E60003F1E3E1E3D1E3C6C000E3D223E223F2298
:100E700040224122422243220001EEBF42EF07F00E
:100E800044EF07F045EF07F05292EEBF52EF07F044
:100E9000EE5106E1ED05D8B050EF07F052EF07F044
:100EA00058EF07F0000E376E010E366E5CEF07F05C
:100EB000EDC036F0EEC037F0EBC038F0ECC039F0E2
:100EC0003A503B10D8A467EF07F069EF07F070EFD6
:100ED00007F052A46EEF07F070EF07F073EF07F022
:100EE0003806D8A03906000E456E1F0E446E000E5F
:100EF00001015B6FF8EF07F04406D8A045063C0EF1
:100F00004424D96E010E4520DA6E3CC007F03DC086
:100F100008F03EC009F03FC00AF040C00BF041C0ED
:100F20000CF042C00DF043C00EF00A0E0F6E000E22
:100F3000106E000E116E000E126E000E136E000E7B
:100F4000146E000E156E000E166E11EC0CF007C03C
:100F50002CF008C02DF009C02EF00AC02FF00BC0F5
:100F600030F00CC031F00DC032F00EC033F02CC0A8
:100F700019F02EC01AF013EC10F01950300FDF6E7C
:100F80003606D8A037063806D8A039063CC007F088
:100F90003DC008F03EC009F03FC00AF040C00BF071
:100FA00041C00CF042C00DF043C00EF00A0E0F6EAF
:100FB000000E106E000E116E000E126E000E136EFB
:100FC000000E146E000E156E000E166E4DEC0BF03A
:100FD00007C03CF008C03DF009C03EF00AC03FF039
:100FE0000BC040F00CC041F00DC042F00EC043F009
:100FF00045BE03EF08F0455008E14404D8A003EFD4
:1010000008F005EF08F035EF08F03C503D103E10B9
:101010003F104010411042104310D8A412EF08F0C6
:1010200014EF08F07CEF07F037BE21EF08F03750DF
:1010300006E13604D8B01FEF08F021EF08F07CEF8E
:1010400007F039BE2CEF08F0395008E13804D8A079
:101050002CEF08F02EEF08F035EF08F052B233EF26
:1010600008F035EF08F07CEF07F03A503B10D8A4B9
:101070003CEF08F03EEF08F045EF08F052A443EFD4
:1010800008F045EF08F063EF08F04406D8A04506E5
:101090003A503B10D8A44FEF08F051EF08F057EF4B
:1010A00008F0000E356E2B0E346E5BEF08F0000E6C
:1010B000356E2D0E346E3C0E4424D96E010E452043
:1010C000DA6E34C0DFFF22C017F023C018F03C0EE8
:1010D0004424196E010E45201A6E38C01BF039C029
:1010E0001CF08AEC0DF017C022F018C023F012009B
:1010F00064EC11F033EC10F017EC11F037EC11F058
:1011000089EC11F0000E086E630E076E86EC0FF08E
:10111000000E0001C36F010EC46FA30EC56F0F0E4A
:10112000C66F7D0EC76F0F0EC86F040EC96F000E1D
:10113000CB6F630ECA6F000ECC6F010ECD6FA00E89
:10114000CE6F0F0ECF6F7F0ED06F0F0ED16F060ECA
:10115000D26F000ED46F630ED36F88968096010E07
:10116000F5EC10F07C86290E516E960E506E7F0EB7
:10117000E82EFED7502EFCD7512EFAD700F020EEE5
:10118000B3F000EE12F0070EDBCFEBFFE806FCE257
:10119000D0EC0FF020EEB3F0070EEBCFDBFFE8064C
:1011A000FCE29C0E0001B925F16FFF0EBA21F26F2F
:1011B0002C0EB925EF6F010EBA21F06F000EB26F41
:1011C00020EEBBF000EE12F0070EDBCFEBFFE806DF
:1011D000FCE2D0EC0FF020EEBBF0070EEBCFDBFF14
:1011E000E806FCE2BBC0AAF0BCC0ABF0BDC0ACF0EE
:1011F000BEC0ADF0BFC0AEF0C0C0AFF0C1C0B0F077
:10120000C2C0B1F0820E00016E6F000E6F6F010E52
:10121000706F0E0E716FAAC072F0ABC073F0ACC0ED
:1012200074F0ADC075F0AEC076F0AFC077F0B0C06E
:1012300078F0B1C079F06BEC0EF0820E096E000E02
:101240000A6E53EC10F0290E516E960E506E7F0E02
:10125000E82EFED7502EFCD7512EFAD700F0820E82
:1012600000016E6F000E6F6F010E706F0E0E716FCA
:10127000EFC072F0F0C073F0F1C074F0F2C075F01E
:10128000F3C076F0776BB9C078F0BAC079F06BEC48
:101290000EF0820E096E000E0A6E53EC10F0290E4D
:1012A000516E960E506E7F0EE82EFED7502EFCD754
:1012B000512EFAD700F00001B251D8A462EF09F024
:1012C00064EF09F070EF09F0F351D8B46AEF09F058
:1012D0006CEF09F070EF09F0000EF36F010EB26FC2
:1012E000F3B102D0809601D080860001B2B102D065
:1012F0007C9E01D07C8EC30E206E000E216ECC0E23
:10130000226E000E236EEBEC0DF0E0EF08F013EF11
:1013100000F020EE01F01550D9261650DA22DF50E9
:10132000D8B495EF09F097EF09F0C8EF09F015C0B0
:10133000D9FF16C0DAFFDF50176E1750076E086A24
:1013400020EE07F01550D9261650DA22DECF09F02C
:10135000DDCF0AF0E2EC10F007C00DF008C00EF08F
:10136000000E106E640E0F6E28EC0DF020EE07F0EC
:101370001550D9261650DA22DECF18F0DDCF19F03D
:101380000D50185C1E6E0E5019581F6EEBEF09F0D1
:1013900015C0D9FF16C0DAFFDF50176E1750076E61
:1013A000086A20EE07F01550D9261650DA22DECF53
:1013B00009F0DDCF0AF0E2EC10F007C00DF008C034
:1013C0000EF0000E106E640E0F6E28EC0DF00DC0C6
:1013D0001EF00EC01FF020EE02F01550D926165058
:1013E000DA22DECF17F0DDCF18F017C0D9FF18C012
:1013F000DAFF1EC0DFFF20EE01F01550D92616508F
:10140000DA22DF50D8B407EF0AF009EF0AF03EEF16
:101410000AF020EE04F01550D9261650DA22DECF5D
:1014200017F0DDCF18F017C0D9FF18C0DAFF10EEA3
:1014300004F01550E1261650E222E6CF19F0E5CF70
:101440001AF019C0E1FF1AC0E2FFE7501B6E10EE60
:1014500006F01550E1261650E222E7501C6E010EF0
:101460001D6E1C2A36EF0AF0D8901D361C2E34EF64
:101470000AF01D501B10DF6E72EF0AF020EE04F030
:101480001550D9261650DA22DECF17F0DDCF18F02E
:1014900017C0D9FF18C0DAFF10EE04F01550E1268E
:1014A0001650E222E6CF19F0E5CF1AF019C0E1FF9D
:1014B0001AC0E2FFE7501B6E10EE06F01550E12651
:1014C0001650E222E7501C6E010E1D6E1C2A6BEFB7
:1014D0000AF0D8901D361C2E69EF0AF01D50FF0A45
:1014E0001B14DF6E120048C0D9FF49C0DAFFDECFFF
:1014F000F6FFDDCFF7FF0800F550250AD8A483EFEB
:101500000AF085EF0AF031EF0BF048C0D9FF49C06F
:10151000DAFFDE2A000EDD22000E0001EC6F000E65
:10152000EB6FEBC052F0ECC053F0ED69EE6948C0D0
:10153000D9FF49C0DAFFDECFF6FFDDCFF7FF0800A5
:10154000F550640AD8B4A7EF0AF0A9EF0AF0BBEF90
:101550000AF048C0D9FF49C0DAFFDECFF6FFDDCF81
:10156000F7FF0800F550690AD8A4B9EF0AF0BBEFFD
:101570000AF0FBEF0AF048C0D9FF49C0DAFFDE2AC3
:10158000000EDD224AC0D9FF4BC0DAFFDFCF4CF09E
:10159000020EDE26DFCF4DF0000EDD224CC0D9FF5B
:1015A0004DC0DAFFDECF60F0DDCF61F0000E61BF2D
:1015B000FF0E626F636F646F656F666F676F46C023
:1015C00022F047C023F060C024F061C025F062C063
:1015D00026F063C027F064C028F065C029F066C01B
:1015E0002AF067C02BF008EC07F022C046F023C0B9
:1015F00047F04CEF0BF048C0D9FF49C0DAFFDECF0F
:10160000F6FFDDCFF7FF0800F550250AD8A40BEF51
:101610000BF00DEF0BF024EF0BF048C0D9FF49C0E1
:10162000DAFFDE2A000EDD22000E086E250E076EA0
:1016300046C009F047C00AF0C3EC0CF0000E476E3C
:10164000010E466E4CEF0BF048C0D9FF49C0DAFFDF
:10165000DE2A000EDD22000E476E000E466E4CEFB5
:101660000BF048C0D9FF49C0DAFFDECFF6FFDDCF6F
:10167000F7FF0800F550076E086A46C009F047C03A
:101680000AF0C3EC0CF048C0D9FF49C0DAFFDE2AEB
:10169000000EDD221EEF0BF01200000E186E16BEBB
:1016A00056EF0BF054EF0BF068EF0BF0161E151E03
:1016B000141E131E121E111E101E0F6C000E10227F
:1016C000112212221322142215221622010E186E44
:1016D0000EBE6FEF0BF06DEF0BF081EF0BF00E1EF7
:1016E0000D1E0C1E0B1E0A1E091E081E076C000E86
:1016F000082209220A220B220C220D220E22010EA0
:10170000181A20EE19F0070EDE6AE806FDE20F5007
:101710001010111012101310141015101610D8B448
:1017200094EF0BF096EF0BF0E8EF0BF0010E176E55
:10173000A4EF0BF0D8900F36103611361236133650
:10174000143615361636172A16AEA9EF0BF0ABEF86
:101750000BF09AEF0BF0D89019361A361B361C3660
:101760001D361E361F3620360F50075C10500858A5
:101770001150095812500A5813500B5814500C5855
:1017800015500D5816500E58D8A0C9EF0BF0CBEFDE
:101790000BF0DCEF0BF00F50075E1050085A1150A1
:1017A000095A12500A5A13500B5A14500C5A155019
:1017B0000D5A16500E5A1980D8901632153214321E
:1017C00013321232113210320F32172EABEF0BF0F0
:1017D0001850D8B4EEEF0BF0F0EF0BF000EF0CF078
:1017E000201E1F1E1E1E1D1E1C1E1B1E1A1E196CD7
:1017F000000E1A221B221C221D221E221F22202222
:1018000019C007F01AC008F01BC009F01CC00AF08C
:101810001DC00BF01EC00CF01FC00DF020C00EF05C
:101820001200000E186E0EBE1AEF0CF018EF0CF03E
:101830002CEF0CF00E1E0D1E0C1E0B1E0A1E091E98
:10184000081E076C000E082209220A220B220C2215
:101850000D220E22010E186E16BE33EF0CF031EF82
:101860000CF043EF0CF0161E151E141E131E121E54
:10187000111E101E0F6C000E1022112212221322B4
:101880001422152216220F501010111012101310CE
:10189000141015101610D8B450EF0CF052EF0CF0D5
:1018A0009AEF0CF0010E176E60EF0CF0D8900F3627
:1018B0001036113612361336143615361636172AE8
:1018C00016AE65EF0CF067EF0CF056EF0CF00F5012
:1018D000075C105008581150095812500A581350FC
:1018E0000B5814500C5815500D5816500E58D8A0BF
:1018F0007CEF0CF07EEF0CF08EEF0CF00F50075EDB
:101900001050085A1150095A12500A5A13500B5AC3
:1019100014500C5A15500D5A16500E5AD8901632B3
:101920001532143213321232113210320F32172E96
:1019300067EF0CF01850D8B4A0EF0CF0A2EF0CF049
:10194000B2EF0CF00E1E0D1E0C1E0B1E0A1E091E01
:10195000081E076C000E082209220A220B220C2204
:101960000D220E2207C007F008C008F009C009F0D8
:101970000AC00AF00BC00BF00CC00CF00DC00DF04B
:101980000EC00EF0120009500A10D8B4CAEF0CF0C5
:10199000CCEF0CF0D5EF0CF009500A10D8A4D3EF1F
:1019A0000CF0D5EF0CF0DAEF0CF00750C3EC11F0AF
:1019B00027EF0DF020EE04F00950D9260A50DA2264
:1019C000DE50DE10D8B4E7EF0CF0E9EF0CF004EFD6
:1019D0000DF020EE04F00950D9260A50DA2210EE5C
:1019E00002F00950E1260A50E222DE50E65CE650A1
:1019F000800A0F6EDE50800A0F58D8B002EF0DF04B
:101A000004EF0DF027EF0DF020EE02F00950D9267B
:101A10000A50DA22DECF0BF0DDCF0CF009C0D9FF7F
:101A20000AC0DAFFDECF0DF0DDCF0EF00B500D2433
:101A3000D96E0C500E20DA6E07C0DFFF20EE02F0E8
:101A40000950D9260A50DA22DE2A000EDD221200C1
:101A5000000E126E10BE31EF0DF02FEF0DF037EFCC
:101A60000DF00F6C101ED8B0102A010E126E0EBEB3
:101A70003EEF0DF03CEF0DF044EF0DF00D6C0E1E3F
:101A8000D8B00E2A010E121A000E146E000E136E3C
:101A90000F501010D8B44FEF0DF051EF0DF079EF5B
:101AA0000DF0010E116E59EF0DF0D8900F36103673
:101AB000112A10AE5EEF0DF060EF0DF055EF0DF056
:101AC000D890133614360F500D5C10500E58D8A015
:101AD0006CEF0DF06EEF0DF073EF0DF00F500D5E2B
:101AE00010500E5A1380D89010320F32112E60EF22
:101AF0000DF01250D8B47FEF0DF081EF0DF085EFAF
:101B00000DF0136C141ED8B0142A13C00DF014C0BD
:101B10000EF0120052A08FEF0DF091EF0DF09BEF41
:101B20000DF019C010F01AC011F017C012F018C053
:101B300013F0AEEC0FF01CBEA0EF0DF0A2EF0DF015
:101B4000A8EF0DF01BC020F01CC021F0ACEF0DF091
:101B5000000E216E000E206E000E1F6E000E1E6E17
:101B6000BEEF0DF0000E086E200E076E17C009F0D4
:101B700018C00AF0C3EC0CF01E4A1F2A20501E5C4D
:101B80001F50800A1D6E2150800A1D58D8A0CBEF2F
:101B90000DF0CDEF0DF0B2EF0DF052B0D2EF0DF031
:101BA000D4EF0DF0DEEF0DF019C010F01AC011F0F7
:101BB00017C012F018C013F0AEEC0FF019C007F008
:101BC0001AC008F08AEC10F020500724176E21503C
:101BD0000820186E120020EE01F02050D926215066
:101BE000DA22010EDF6E20EE01F02250D9262350BA
:101BF000DA22010EDF6E21EF0EF020C0D9FF21C0E6
:101C0000DAFF050EDF2622C0D9FF23C0DAFF050E5A
:101C1000DF2620C015F021C016F089EC09F022C0A3
:101C200015F023C016F089EC09F0090E256E1E0E82
:101C3000246EE40EE82EFED7242EFCD7252EFAD7EC
:101C400000D020C0D9FF21C0DAFF320EDF602BEFB9
:101C50000EF02DEF0EF039EF0EF022C0D9FF23C0A9
:101C6000DAFF310EDF6437EF0EF039EF0EF0FDEFE3
:101C70000DF012006AC04EF06BC04FF0000E000174
:101C8000EA6F000EE96F58EF0EF068C046F069C0C9
:101C900047F04E0E486E000E496E6CC04AF06DC0A3
:101CA0004BF073EC0AF046500001E9274750EA2355
:101CB0004EC0F6FF4FC0F7FF0800F5500009D8A44A
:101CC00064EF0EF066EF0EF045EF0EF0E9C068F03D
:101CD000EAC069F01200720E00017A6F000E7B6F8D
:101CE0006EC07CF06FC07DF0000E7F6F000E7E6FC7
:101CF000000E816F000E806F7C0E686F000E696FA2
:101D000070C06AF071C06BF07A0E6C6F000E6D6F70
:101D10003AEC0EF000017E516E25D96E7F516F2195
:101D2000DA6E000EDF6E1200130E096E000E27EC45
:101D300011F03F0E0B6E550EE82EFED70B2EFCD782
:101D400000F0040E096E0C0E27EC11F0F1C009F042
:101D5000040E27EC11F00001F251096E050E27EC7C
:101D600011F0EFC009F0060E27EC11F00001F05160
:101D7000096E070E27EC11F01200130E036E000E11
:101D800047EC11F03F0E056E550EE82EFED7052EDE
:101D9000FCD700F0040E036E0C0E47EC11F0F1C0FE
:101DA00003F0040E47EC11F00001F251036E050E32
:101DB00047EC11F0EFC003F0060E47EC11F0000104
:101DC000F051036E070E47EC11F01200AAEC11F06F
:101DD000520E94EC11F0B60E94EC11F0A0EC11F050
:101DE000530E94EC11F0010EF2EC0FF00D6E0D504D
:101DF000106E116A000EF2EC0FF00D6E0D500F6EAA
:101E00000E6A10500E10106E11500F10116EA5ECCE
:101E100011F010C00BF011C00CF01200AAEC11F080
:101E2000520E94EC11F0B80E94EC11F0A0EC11F0FD
:101E3000530E94EC11F0010EF2EC0FF00D6E0D50FC
:101E4000106E116A000EF2EC0FF00D6E0D500F6E59
:101E50000E6A10500E10106E11500F10116EA5EC7E
:101E600011F010C00BF011C00CF01200AAEC11F030
:101E7000520E94EC11F0B40E94EC11F0A0EC11F0B1
:101E8000530E94EC11F0010EF2EC0FF00D6E0D50AC
:101E9000106E116A000EF2EC0FF00D6E0D500F6E09
:101EA0000E6A10500E10106E11500F10116EA5EC2E
:101EB00011F010C00BF011C00CF01200AAEC11F0E0
:101EC000520E94EC11F0BA0E94EC11F0A0EC11F05B
:101ED000530E94EC11F0010EF2EC0FF00D6E0D505C
:101EE000106E116A000EF2EC0FF00D6E0D500F6EB9
:101EF0000E6A10500E10106E11500F10116EA5ECDE
:101F000011F010C00BF011C00CF01200BD508F0B7F
:101F10004009BD6EE00EBE16BF50F00B0109BF6E4A
:101F200007C0BCFFBD8E85948598839E879C7D9459
:101F30007D987B9E7F9C000EA36E000EA06EA48EEB
:101F4000A18E0A0E0E01746F0B0E696FAFEC11F0CB
:101F5000B4EC11F089EC11F07C861200000E166EC4
:101F6000000E156EBFEF0FF014C007F0086A12C024
:101F700009F013C00AF0C3EC0CF0154A162A1550EC
:101F80001024D96E16501120DA6EDF50146E1450E2
:101F9000D8A4CDEF0FF0CFEF0FF0B4EF0FF0120099
:101FA000E6EC0EF00BC012F00CC013F00EEC0FF0CC
:101FB0000BC014F00CC015F05EEC0FF00BC016F067
:101FC0000CC017F036EC0FF00BC018F00CC019F075
:101FD00020EE12F000EE12F0070EDBCFEBFFE8066A
:101FE000FCE21200096EBAEC10F00E01DA87BAECCE
:101FF00010F0D5CE0AF0BAEC10F00950D8B403EFC7
:1020000010F007EF10F0086A082A08EF10F0086ACD
:10201000083A08460E01DA510818DF0B0818DA6F83
:10202000DA890A5012001ABE20EF10F01A5006E1A9
:102030001904D8B01EEF10F020EF10F02EEF10F0C2
:1020400019C01BF01AC01CF01B1E1C1E1B4A1C2AA8
:102050001BC019F01CC01AF032EF10F019C019F0B3
:102060001AC01AF01200A5EC10F0010E096E000E55
:1020700027EC11F03F0E0B6E550EE82EFED70B2EFF
:10208000FCD700F0030E096E000E27EC11F0D50E00
:10209000096E010E27EC11F087928198869E010E41
:1020A000F5EC10F0120062EF10F009C0D9FF0AC081
:1020B000DAFFDF500B6E0B50076E086A7EEC11F0F2
:1020C000094A0A2A09C0D9FF0AC0DAFFDF50D8A49A
:1020D0006CEF10F06EEF10F055EF10F0120001EE03
:1020E00000F05C0EEE6AE806FDE100EED5F01F0E92
:1020F000EE6AE806FDE100EE52F0070EEE6AE80631
:10210000FDE159905992000EF86E0E0EF76E000127
:1021100078EF08F007C009F008C00AF092EF10F05D
:10212000074A082A07C0D9FF08C0DAFFDF50D8A441
:102130009CEF10F09EEF10F090EF10F00950075C4C
:10214000076E0A500858086E12000E01D951F00BA4
:102150000809D96FD98B9F0ED66F848A848CA79B70
:10216000A79D1D0E1D6F1E0E1C6F1C0E6F6F1B0E8C
:10217000706F12000E01D8B5C0EF10F0C2EF10F072
:10218000BAEF10F0DACE07F01F0E0716D8A4CBEF87
:1021900010F0CDEF10F0BAEF10F012000E01D8B52C
:1021A000D4EF10F0D6EF10F0CEEF10F0DACE01F051
:1021B0001F0E0116D8A4DFEF10F0E1EF10F0CEEF04
:1021C00010F0120007500902F3CF0BF0F4CF0CF01F
:1021D00007500A02F3500C2608500902F3500C264F
:1021E0000BC007F00CC008F01200076E07B002D059
:1021F0007F9201D07F8207B002D07E9E01D07E8E7A
:1022000007B002D0799801D0798812000E0133A36B
:102210000CEF11F00EEF11F015EF11F0010E0001AF
:10222000F36F71EC11F00E01339359921100828219
:102230000E019A93090E0D01F16F0E0129831F8380
:1022400057EC11F0F28AF292F28CF28E12000A6EC2
:10225000AAEC11F0520E94EC11F00A50800994ECA3
:1022600011F0095094EC11F0A5EC11F01200120ECF
:102270000E01626F110E156F8382E997E895330E98
:10228000E56F000EE66FE789E88BE78F1200046EBA
:10229000BEEC11F0520E9AEC11F0045080099AEC49
:1022A00011F003509AEC11F0B9EC11F01200AAEC05
:1022B00011F0520E94EC11F0E60E94EC11F0A5EC36
:1022C00011F094EC0EF01200868C0E01B48D0F010B
:1022D0005899FC0E58172E0E5F6F60946088608EC0
:1022E0001200BEEC11F0520E9AEC11F0E60E9AECD0
:1022F00011F0B9EC11F0BDEC0EF012000E0137A593
:1023000084EF11F086EF11F07EEF11F007C0E4FECC
:1023100012008892849684988690889080927C9609
:102320007C987E9080901200086EBAEC10F008C085
:10233000D5FE1200026ECEEC10F002C0D5FE1200E7
:10234000BAEC10F00E01DA831200BAEC10F00E01B4
:10235000DA851200BAEC10F00E01DA8112008694D0
:1023600086967E947E961200849E88967C9E8096A9
:102370001200CEEC10F00E01DA851200CEEC10F057
:082380000E01DA8112001200C7
:020000040020DA
:10000000FF0FFF0FFF0FFF0FFF0FFF0FFF0FFF0F80
:020000040030CA
:0C000000AAFFFFFF9FFFFFFFFFFFFFFFB5
:00000001FF
