:0400000013EF00F00A
:0600080044826DEF0AF0D6
:100018004480E0CF04F004C0E0FF44901000FEEFFD
:100028000AF02BC007F02CC008F025C005F026C048
:1000380006F028EC09F005C00CF006C00DF00E6AB9
:100048000F6A000E65EC06F00CC031F00DC032F0FE
:100058000EC033F00FC034F02BC007F02CC008F0EE
:1000680027C005F028C006F028EC09F005C00CF000
:1000780006C00DF00E6A0F6A000E65EC06F00CC0A3
:1000880035F00DC036F00EC037F00FC038F02BC079
:1000980007F02CC008F029C005F02AC006F028ECAB
:1000A80009F005C00CF006C00DF00E6A0F6A000ECC
:1000B80065EC06F00CC039F00DC03AF00EC03BF00C
:1000C8000FC03CF0710E056E3D0E066E0A0E076EEF
:1000D8003F0E086E31C009F032C00AF033C00BF091
:1000E80034C00CF03FEC07F0D8B07DEF00F07FEFA4
:1000F80000F0C9EF00F035C005F036C006F037C093
:1001080007F038C008F0480E096EE10E0A6E7A0E44
:100118000B6E3E0E0C6E3FEC07F0D8B096EF00F079
:1001280098EF00F0C9EF00F039C005F03AC006F0CA
:100138003BC007F03CC008F0EC0E096E510E0A6E89
:10014800380E0B6E3E0E0C6E3FEC07F0D8B0AFEFDA
:1001580000F0B1EF00F0C9EF00F02DC01EF02EC086
:100168001FF02FC020F030C021F05A0E226E95ECFF
:1001780003F02DC01EF02EC01FF02FC020F030C09D
:1001880021F08EEC08F094EF03F031C005F032C096
:1001980006F033C007F034C008F0520E096EB80EEE
:1001A8000A6EDE0E0B6E3E0E0C6E3FEC07F0D8B0FA
:1001B800E0EF00F0E2EF00F02CEF01F0520E056ED8
:1001C800B80E066E9E0E076E3E0E086E35C009F01C
:1001D80036C00AF037C00BF038C00CF03FEC07F01F
:1001E800D8B0F9EF00F0FBEF00F02CEF01F0140E9F
:1001F800056EAE0E066E470E076E3E0E086E39C0CF
:1002080009F03AC00AF03BC00BF03CC00CF03FECE0
:1002180007F0D8B012EF01F014EF01F02CEF01F065
:100228002DC01EF02EC01FF02FC020F030C021F0CE
:100238005A0E226E88EC04F02DC01EF02EC01FF05E
:100248002FC020F030C021F08EEC08F094EF03F0BE
:1002580031C005F032C006F033C007F034C008F0F2
:10026800F60E096E280E0A6EDC0E0B6E3E0E0C6E34
:100278003FEC07F0D8B043EF01F045EF01F08FEF06
:1002880001F09A0E056E990E066E990E076E3E0ED7
:10029800086E35C009F036C00AF037C00BF038C018
:1002A8000CF03FEC07F0D8B05CEF01F05EEF01F026
:1002B8008FEF01F03D0E056E0A0E066E570E076EA3
:1002C8003E0E086E39C009F03AC00AF03BC00BF088
:1002D8003CC00CF03FEC07F0D8B075EF01F077EFB9
:1002E80001F08FEF01F02DC01EF02EC01FF02FC0BF
:1002F80020F030C021F0B40E226E95EC03F02DC032
:100308001EF02EC01FF02FC020F030C021F08EEC60
:1003180008F094EF03F0480E056EE10E066EFA0E33
:10032800076E3E0E086E31C009F032C00AF033C0C5
:100338000BF034C00CF03FEC07F0D8B0A6EF01F09A
:10034800A8EF01F0FCEF01F0850E056EEB0E066ECE
:10035800910E076E3E0E086E35C009F036C00AF0E1
:1003680037C00BF038C00CF03FEC07F0D8B0BFEF47
:1003780001F0C1EF01F0FCEF01F0EC0E056E510E3B
:10038800066E380E076E3E0E086E39C009F03AC088
:100398000AF03BC00BF03CC00CF03FEC07F0D8B0C3
:1003A800D8EF01F0DAEF01F0FCEF01F02DC01EF0FC
:1003B8002EC01FF02FC020F030C021F0DBEC08F079
:1003C8002DC01EF02EC01FF02FC020F030C021F02D
:1003D8005A0E226E95EC03F02DC01EF02EC01FF0B1
:1003E8002FC020F030C021F08EEC08F094EF03F01D
:1003F800480E056EE10E066EFA0E076E3E0E086E8A
:1004080031C009F032C00AF033C00BF034C00CF030
:100418003FEC07F0D8B013EF02F015EF02F069EFE8
:1004280002F035C005F036C006F037C007F038C016
:1004380008F0CD0E096ECC0E0A6E8C0E0B6E3E0EB9
:100448000C6E3FEC07F0D8B02CEF02F02EEF02F064
:1004580069EF02F0140E056EAE0E066E470E076EBB
:100468003E0E086E39C009F03AC00AF03BC00BF0E6
:100478003CC00CF03FEC07F0D8B045EF02F047EF76
:1004880002F069EF02F02DC01EF02EC01FF02FC041
:1004980020F030C021F0DBEC08F02DC01EF02EC09B
:1004A8001FF02FC020F030C021F05A0E226E88ECC9
:1004B80004F02DC01EF02EC01FF02FC020F030C059
:1004C80021F08EEC08F094EF03F0710E056E3D0EEE
:1004D800066E0A0E076E3F0E086E31C009F032C074
:1004E8000AF033C00BF034C00CF03FEC07F0D8B082
:1004F80080EF02F082EF02F0CCEF02F035C005F099
:1005080036C006F037C007F038C008F08F0E096E05
:10051800C20E0A6E750E0B6E3E0E0C6E3FEC07F0A7
:10052800D8B099EF02F09BEF02F0CCEF02F039C09F
:1005380005F03AC006F03BC007F03CC008F0EC0EEE
:10054800096E510E0A6E380E0B6E3E0E0C6E3FECA5
:1005580007F0D8B0B2EF02F0B4EF02F0CCEF02F03F
:100568002DC01EF02EC01FF02FC020F030C021F08B
:10057800870E226E95EC03F02DC01EF02EC01FF0E2
:100588002FC020F030C021F08EEC08F094EF03F07B
:1005980031C005F032C006F033C007F034C008F0AF
:1005A800AE0E096E470E0A6EE10E0B6E3E0E0C6E15
:1005B8003FEC07F0D8B0E3EF02F0E5EF02F02FEFE1
:1005C80003F0F60E056E280E066E9C0E076E3E0EA4
:1005D800086E35C009F036C00AF037C00BF038C0D5
:1005E8000CF03FEC07F0D8B0FCEF02F0FEEF02F0A1
:1005F8002FEF03F03D0E056E0A0E066E570E076EBE
:100608003E0E086E39C009F03AC00AF03BC00BF044
:100618003CC00CF03FEC07F0D8B015EF03F017EF33
:1006280003F02FEF03F02DC01EF02EC01FF02FC0D7
:1006380020F030C021F0870E226E88EC04F02DC027
:100648001EF02EC01FF02FC020F030C021F08EEC1D
:1006580008F094EF03F031C005F032C006F033C063
:1006680007F034C008F01F0E096E850E0A6EEB0EF7
:100678000B6E3E0E0C6E3FEC07F0D8B046EF03F061
:1006880048EF03F07CEF03F03D0E056E0A0E066E90
:10069800970E076E3E0E086E35C009F036C00AF098
:1006A80037C00BF038C00CF03FEC07F0D8B05FEF64
:1006B80003F061EF03F07CEF03F03D0E056E0A0EC8
:1006C800066E570E076E3E0E086E39C009F03AC026
:1006D8000AF03BC00BF03CC00CF03FEC07F0D8B080
:1006E80078EF03F07AEF03F07CEF03F077EF01F097
:1006F800010E416E2DC01EF02EC01FF02FC020F03D
:1007080030C021F0B40E226E95EC03F02DC01EF01F
:100718002EC01FF02FC020F030C021F08EEC08F062
:1007280012004150D8A49BEF03F09DEF03F013EFA4
:1007380004F020EE01F01E50D9261F50DA22010ED7
:10074800DF6E20EE01F02050D9262150DA22000E6B
:10075800DF6EF8EF03F080A0B4EF03F0B8EF03F01A
:10076800236A232AB9EF03F0236A80502318FE0B6B
:100778002318806E1EC0D9FF1FC0DAFF320EDF605B
:10078800C8EF03F0CAEF03F0CFEF03F01EC0D9FFA4
:100798001FC0DAFFDF2A20C0D9FF21C0DAFF320EDE
:1007A800DF60D9EF03F0DBEF03F0E0EF03F020C0E8
:1007B800D9FF21C0DAFFDF2A1EC013F01FC014F0D2
:1007C8007BEC05F020C013F021C014F07BEC05F0A1
:1007D800090E246E1E0E236EE40EE82EFED7232E7D
:1007E800FCD7242EFAD700D01EC0D9FF1FC0DAFFCD
:1007F800310EDF6402EF04F004EF04F0AFEF03F012
:1008080020C0D9FF21C0DAFF310EDF640EEF04F0FB
:1008180010EF04F0AFEF03F0809087EF04F020EEC4
:1008280001F01E50D9261F50DA22000EDF6E20EE8E
:1008380001F02050D9262150DA22010EDF6E6EEF2A
:1008480004F07EA02AEF04F02EEF04F0236A232A96
:100858002FEF04F0236A7E502318FE0B23187E6EB8
:100868001EC0D9FF1FC0DAFF320EDF603EEF04F072
:1008780040EF04F045EF04F01EC0D9FF1FC0DAFFB7
:10088800DF2A20C0D9FF21C0DAFF320EDF604FEF28
:1008980004F051EF04F056EF04F020C0D9FF21C056
:1008A800DAFFDF2A1EC013F01FC014F07BEC05F03E
:1008B80020C013F021C014F07BEC05F0090E246E63
:1008C8001E0E236EE40EE82EFED7232EFCD7242E10
:1008D800FAD700D01EC0D9FF1FC0DAFF310EDF647F
:1008E80078EF04F07AEF04F025EF04F020C0D9FF88
:1008F80021C0DAFF310EDF6484EF04F086EF04F0E4
:1009080025EF04F07E9012004150D8A48EEF04F039
:1009180090EF04F006EF05F020EE01F01E50D92606
:100928001F50DA22000EDF6E20EE01F02050D9268B
:100938002150DA22010EDF6EEBEF04F07EA0A7EF64
:1009480004F0ABEF04F0236A232AACEF04F0236A27
:100958007E502318FE0B23187E6E1EC0D9FF1FC0C1
:10096800DAFF320EDF60BBEF04F0BDEF04F0C2EF38
:1009780004F01EC0D9FF1FC0DAFFDF2A20C0D9FF4C
:1009880021C0DAFF320EDF60CCEF04F0CEEF04F0C6
:10099800D3EF04F020C0D9FF21C0DAFFDF2A1EC040
:1009A80013F01FC014F07BEC05F020C013F021C039
:1009B80014F07BEC05F0090E246E1E0E236EE40E77
:1009C800E82EFED7232EFCD7242EFAD700D01EC03F
:1009D800D9FF1FC0DAFF310EDF64F5EF04F0F7EF3F
:1009E80004F0A2EF04F020C0D9FF21C0DAFF310ED5
:1009F800DF6401EF05F003EF05F0A2EF04F07E904D
:100A08007AEF05F020EE01F01E50D9261F50DA22A9
:100A1800010EDF6E20EE01F02050D9262150DA2297
:100A2800000EDF6E61EF05F080A01DEF05F021EFED
:100A380005F0236A232A22EF05F0236A8050231841
:100A4800FE0B2318806E1EC0D9FF1FC0DAFF320EBE
:100A5800DF6031EF05F033EF05F038EF05F01EC029
:100A6800D9FF1FC0DAFFDF2A20C0D9FF21C0DAFF73
:100A7800320EDF6042EF05F044EF05F049EF05F074
:100A880020C0D9FF21C0DAFFDF2A1EC013F01FC023
:100A980014F07BEC05F020C013F021C014F07BECBF
:100AA80005F0090E246E1E0E236EE40EE82EFED706
:100AB800232EFCD7242EFAD700D01EC0D9FF1FC082
:100AC800DAFF310EDF646BEF05F06DEF05F018EF1C
:100AD80005F020C0D9FF21C0DAFF310EDF6477EFBF
:100AE80005F079EF05F018EF05F08090120020EE80
:100AF80001F01350D9261450DA22DF50D8B487EF0A
:100B080005F089EF05F0BAEF05F013C0D9FF14C05E
:100B1800DAFFDF50156E1550056E066A20EE07F0F5
:100B28001350D9261450DA22DECF07F0DDCF08F0B3
:100B3800EBEC0AF005C00BF006C00CF0000E0E6ED0
:100B4800640E0D6E2CEC08F020EE07F01350D92639
:100B58001450DA22DECF16F0DDCF17F00B50165CFA
:100B68001C6E0C5017581D6EDDEF05F013C0D9FF31
:100B780014C0DAFFDF50156E1550056E066A20EEB8
:100B880007F01350D9261450DA22DECF07F0DDCF54
:100B980008F0EBEC0AF005C00BF006C00CF0000EF4
:100BA8000E6E640E0D6E2CEC08F00BC01CF00CC021
:100BB8001DF020EE02F01350D9261450DA22DECFB1
:100BC80015F0DDCF16F015C0D9FF16C0DAFF1CC02E
:100BD800DFFF20EE01F01350D9261450DA22DF503F
:100BE800D8B4F9EF05F0FBEF05F030EF06F020EE92
:100BF80004F01350D9261450DA22DECF15F0DDCFD9
:100C080016F015C0D9FF16C0DAFF10EE04F0135025
:100C1800E1261450E222E6CF17F0E5CF18F017C00E
:100C2800E1FF18C0E2FFE750196E10EE06F013500E
:100C3800E1261450E222E7501A6E010E1B6E1A2AA2
:100C480028EF06F0D8901B361A2E26EF06F01B5018
:100C58001910DF6E64EF06F020EE04F01350D92669
:100C68001450DA22DECF15F0DDCF16F015C0D9FF0B
:100C780016C0DAFF10EE04F01350E1261450E222F9
:100C8800E6CF17F0E5CF18F017C0E1FF18C0E2FF74
:100C9800E750196E10EE06F01350E1261450E222C8
:100CA800E7501A6E010E1B6E1A2A5DEF06F0D890F7
:100CB8001B361A2E5BEF06F01B50FF0A1914DF6E65
:100CC8001200146E1450D8B46CEF06F06EEF06F0F4
:100CD80090EF06F00FBE75EF06F073EF06F090EF99
:100CE80006F00CC010F00DC011F00EC012F00FC0CD
:100CF80013F0101E111E121E131E102A000E1122B0
:100D08001222132210C016F011C017F012C018F0EA
:100D180013C019F098EF06F00CC016F00DC017F0CC
:100D28000EC018F00FC019F00C500D100E100F1057
:100D3800D8A4A1EF06F0A3EF06F0ADEF06F0000E81
:100D48000C6E000E0D6E000E0E6E000E0F6E3EEF56
:100D580007F0960E156EB7EF06F0152AD8901932DF
:100D6800183217321632000E1614106E000E1714B1
:100D7800116E000E1814126EFE0E1914136E105018
:100D8800111012101310D8A4CCEF06F0CEEF06F015
:100D9800B1EF06F0DCEF06F0152A010E1626000E5C
:100DA800172218221922D8901932183217321632FF
:100DB800000E1614106E000E1714116E000E181483
:100DC800126EFF0E1914136E10501110121013101A
:100DD800D8A4F1EF06F0F3EF06F0D0EF06F0FBEF42
:100DE80006F01506D890163617361836193618BE76
:100DF80000EF07F002EF07F00AEF07F0020E1560A8
:100E080008EF07F00AEF07F0F5EF06F015B00FEF5F
:100E180007F011EF07F012EF07F0189ED89015327F
:100E280015C010F0116A126A136A10C013F0126A22
:100E3800116A106A10501612115017121250181217
:100E4800135019121450D8B42CEF07F02EEF07F0F6
:100E580036EF07F00FBE35EF07F033EF07F036EF48
:100E680007F0198E16C00CF017C00DF018C00EF060
:100E780019C00FF01200000E05140D6E000E0614B6
:100E88000E6E800E07140F6E7F0E0814106E0D5034
:100E98000E100F101010D8A454EF07F056EF07F0FB
:100EA8005EEF07F0000E056E000E066E000E076E70
:100EB800000E086E000E09140D6E000E0A140E6E58
:100EC800800E0B140F6E7F0E0C14106E0D500E104A
:100ED8000F101010D8A473EF07F075EF07F07DEF2F
:100EE80007F0000E096E000E0A6E000E0B6E000E63
:100EF8000C6E08AE82EF07F084EF07F08DEF07F075
:100F0800056C061ED8B0062A071ED8B0072A800E20
:100F180008560CAE92EF07F094EF07F09DEF07F03C
:100F2800096C0A1ED8B00A2A0B1ED8B00B2A800EEC
:100F38000C56000E051A000E061A000E071A800E2F
:100F4800081A000E091A000E0A1A000E0B1A800E53
:100F58000C1A0950055C0A5006580B5007580C50DB
:100F68000858D8B0BAEF07F0BCEF07F0BFEF07F0AA
:100F7800D890C0EF07F0D8801200000E436E000E24
:100F8800426E000E416E40EC0BF08EEC0AF0630EE0
:100F980002EC0AF030EC0BF0000E0001BC6F010E01
:100FA800BD6FA30EBE6F0F0EBF6F7D0EC06F0F0E0D
:100FB800C16F040EC26F000EC46F630EC36F000EC4
:100FC800C56F010EC66FA00EC76F0F0EC86F7F0EDC
:100FD800C96F0F0ECA6F060ECB6F000ECD6F630E72
:100FE800CC6F8EA4FAEF07F0FCEF07F003EF08F0E0
:100FF8008EB601EF08F003EF08F0F5EF07F020EEEA
:10100800B4F000EE10F0070EDBCFEBFFE806FCE2D1
:101018002AEC0AF020EEB4F0070EEBCFDBFFE8066F
:10102800FCE220EEB4F000EE25F0070EDBCFEBFF7C
:10103800E806FCE2BC0E2D6E000E2E6EC50E2F6E5D
:10104800000E306E15EC00F0F5EF07F013EF00F02E
:10105800000E106E0EBE35EF08F033EF08F03BEFD0
:1010680008F00D6C0E1ED8B00E2A010E106E0CBEC4
:1010780042EF08F040EF08F048EF08F00B6C0C1E48
:10108800D8B00C2A010E101A000E126E000E116E46
:101098000D500E10D8B453EF08F055EF08F07DEF5F
:1010A80008F0010E0F6E5DEF08F0D8900D360E3681
:1010B8000F2A0EAE62EF08F064EF08F059EF08F05F
:1010C800D890113612360D500B5C0E500C58D8A023
:1010D80070EF08F072EF08F077EF08F00D500B5E34
:1010E8000E500C5A1180D8900E320D320F2E64EF2C
:1010F80008F01050D8B483EF08F085EF08F089EFB6
:1011080008F0116C121ED8B0122A11C00BF012C0D0
:101118000CF012007C88C1EF08F01EC0D9FF1FC078
:10112800DAFFDF50226E22041EC0D9FF1FC0DAFF8B
:10113800DF6E20C0D9FF21C0DAFFDF50226E220403
:1011480020C0D9FF21C0DAFFDF6E1EC013F01FC018
:1011580014F07BEC05F020C013F021C014F07BECF8
:1011680005F0090E236E1E0E226EE40EE82EFED741
:10117800222EFCD7232EFAD700D01EC0D9FF1FC0BD
:10118800DAFFDF50D8B4CBEF08F0CDEF08F0D9EF95
:1011980008F020C0D9FF21C0DAFFDF50D8A4D7EF6C
:1011A80008F0D9EF08F091EF08F07C98120020EED3
:1011B80001F01E50D9261F50DA22000EDF6E20EEF5
:1011C80001F02050D9262150DA22000EDF6E0FEFF1
:1011D80009F01EC0D9FF1FC0DAFFDF2A20C0D9FFDF
:1011E80021C0DAFFDF2A1EC013F01FC014F07BEC09
:1011F80005F020C013F021C014F07BEC05F0090EB7
:10120800236E1E0E226EE40EE82EFED7222EFCD789
:10121800232EFAD700D01EC0D9FF1FC0DAFF640EF4
:10122800DF6019EF09F01BEF09F027EF09F020C084
:10123800D9FF21C0DAFF630EDF6425EF09F027EF3D
:1012480009F0EDEF08F01200000E0B6E000E0A6EAA
:1012580007500810D8B433EF09F035EF09F05DEF07
:1012680009F0010E096E3DEF09F0D89007360836EF
:10127800092A08AE42EF09F044EF09F039EF09F006
:10128800D8900A360B360750055C08500658D8A087
:1012980050EF09F052EF09F057EF09F00750055EDB
:1012A8000850065A0A80D89008320732092E44EFAF
:1012B80009F00AC005F00BC006F012007FEC0BF035
:1012C800520E63EC0BF0B60E63EC0BF075EC0BF002
:1012D800530E63EC0BF0010E4CEC0AF00B6E0B5046
:1012E8000E6E0F6A000E4CEC0AF00B6E0B500D6E72
:1012F8000C6A0E500C100E6E0F500D100F6E7AEC1B
:101308000BF00EC009F00FC00AF012007FEC0BF0D2
:10131800520E63EC0BF0B80E63EC0BF075EC0BF0AF
:10132800530E63EC0BF0010E4CEC0AF00B6E0B50F5
:101338000E6E0F6A000E4CEC0AF00B6E0B500D6E21
:101348000C6A0E500C100E6E0F500D100F6E7AECCA
:101358000BF00EC009F00FC00AF012007FEC0BF082
:10136800520E63EC0BF0B40E63EC0BF075EC0BF063
:10137800530E63EC0BF0010E4CEC0AF00B6E0B50A5
:101388000E6E0F6A000E4CEC0AF00B6E0B500D6ED1
:101398000C6A0E500C100E6E0F500D100F6E7AEC7A
:1013A8000BF00EC009F00FC00AF012007FEC0BF032
:1013B800520E63EC0BF0BA0E63EC0BF075EC0BF00D
:1013C800530E63EC0BF0010E4CEC0AF00B6E0B5055
:1013D8000E6E0F6A000E4CEC0AF00B6E0B500D6E81
:1013E8000C6A0E500C100E6E0F500D100F6E7AEC2A
:1013F8000BF00EC009F00FC00AF01200056EBD50C8
:101408008F0B4009BD6EE00EBE16BF50F00B0109F0
:10141800BF6E05C0BCFFBD8E85948598839E879C52
:101428007D947D987B9E7F9C000EA36E000EA06E1F
:10143800A48EA18E0A0E0E01746F0B0E696F69ECF3
:101448000BF084EC0BF04DEC0BF0120062EC09F0A1
:1014580009C010F00AC011F08AEC09F009C012F0B6
:101468000AC013F0DAEC09F009C014F00AC015F04C
:10147800B2EC09F009C016F00AC017F020EE10F01F
:1014880000EE10F0070EDBCFEBFFE806FCE21200DF
:10149800076EC3EC0AF00E01DA87C3EC0AF0D5CE6A
:1014A80008F0C3EC0AF00750D8B45DEF0AF061EF1A
:1014B8000AF0066A062A62EF0AF0066A063A064643
:1014C8000E01DA510618DF0B0618DA6FDA890850B0
:1014D80012000E0133A373EF0AF075EF0AF08CEFD8
:1014E8000AF0010E436E7CAE7CEF0AF080EF0AF042
:1014F800036A032A81EF0AF0036A033203327C503D
:1015080003187F0B03187C6E58EC0BF00E01339315
:1015180044921100AEEC0AF0010E076E000E20ECAA
:101528000BF03F0E096E550EE82EFED7092EFCD79C
:1015380000F0030E076E000E20EC0BF0D50E076EC0
:10154800010E20EC0BF087928198869E000E0FEC1E
:101558000BF012000E01D951F00B0809D96FD98B85
:101568009F0ED66F848A848CA79BA79D1D0E1D6F26
:101578001E0E1C6F1C0E6F6F1B0E706F12000E017B
:10158800D8B5C9EF0AF0CBEF0AF0C3EF0AF0DACE0C
:1015980005F01F0E0516D8A4D4EF0AF0D6EF0AF00E
:1015A800C3EF0AF012000E01D8B5DDEF0AF0DFEF45
:1015B8000AF0D7EF0AF0DACE01F01F0E0116D8A410
:1015C800E8EF0AF0EAEF0AF0D7EF0AF01200055048
:1015D8000702F3CF09F0F4CF0AF005500802F350E0
:1015E8000A2606500702F3500A2609C005F00AC069
:1015F80006F0120000EE60F0540EEE6AE806FDE117
:1016080000EE3DF0070EEE6AE806FDE144904492D4
:101618000001C1EF07F0056E05B002D07F9201D03E
:101628007F8205B002D07E9E01D07E8E05B002D0AA
:10163800799801D079881200086E7FEC0BF0520E71
:1016480063EC0BF00850800963EC0BF0075063EC77
:101658000BF07AEC0BF01200120E0E01626F110EF5
:10166800156F8382E997E895330EE56F000EE66FF4
:10167800E789E88BE78F1200868C0E01B48D0F0185
:101688005899FC0E58172E0E5F6F60946088608E14
:1016980012008892849684988690889080927C968E
:1016A8007C987E90809012008EEC0BF0520E6FECBE
:1016B8000BF0E60E6FEC0BF089EC0BF01200066EE7
:1016C800C3EC0AF006C0D5FE1200868486860E0199
:1016D800B495B4971200026ED7EC0AF002C0D5FE9A
:1016E8001200C3EC0AF00E01DA831200C3EC0AF010
:1016F8000E01DA851200C3EC0AF00E01DA8112003D
:10170800849E88967C9E80961200D7EC0AF00E0183
:0E171800DA851200D7EC0AF00E01DA81120019
:020000040020DA
:10000000FF0FFF0FFF0FFF0FFF0FFF0FFF0FFF0F80
:020000040030CA
:0C000000AAFFFFFF9FFFFFFFFFFFFFFFB5
:00000001FF
