:040000002CEF00F0F1
:0600080057827FEF21F09A
:100018005780D8CF06F0E8CF07F0E0CF08F00E0100
:1000280033AB19EF00F01BEF00F024EF00F00001F4
:10003800DB4BDC2B3C0ED46EAF0ED36E0E01339B24
:1000480008C0E0FF07C0E8FF06C0D8FF57901000BF
:04005800F3EF20F0B2
:100E000000524742433A2025692025692025692060
:100E100025692020202020524742435F72656C3AAA
:100E200020252E336620252E336620252E3366207E
:100E300020202020436F6C6F75723A2025730A0DB5
:100E400000524742433A2025692025692025692020
:100E5000256920202020205468726573686F6C64B7
:100E60003A2025692025692025690A0D006C6967EB
:100E7000687420626C756500756E6B6E6F776E00BE
:100E80006F72616E67650079656C6C6F770077686B
:100E900069746500677265656E0070696E6B0072DB
:100EA000656400000E01299382C014F083C015F020
:100EB00071EC1FF082C06DF083C06EF08A0E0001ED
:100EC0006F6F000E706FD7EC19F0710E176E3D0E3C
:100ED000186E0A0E196E3F0E1A6E8AC01BF08BC078
:100EE0001CF08CC01DF08DC01EF0F2EC1BF0D8B0D1
:100EF0007CEF07F07EEF07F0FAEF07F08EC017F0F7
:100F00008FC018F090C019F091C01AF0480E1B6EF7
:100F1000E10E1C6E7A0E1D6E3E0E1E6EF2EC1BF084
:100F2000D8B095EF07F097EF07F0FAEF07F092C00F
:100F300017F093C018F094C019F095C01AF0EC0E99
:100F40001B6E510E1C6E380E1D6E3E0E1E6EF2ECA8
:100F50001BF0D8B0AEEF07F0B0EF07F0FAEF07F0F4
:100F600082C016F083C017F0030E186E47EC1BF01A
:100F700082C06DF083C06EF08A0E00016F6F000EAC
:100F8000706FD7EC19F08EC017F08FC018F090C0BA
:100F900019F091C01AF0A40E1B6E700E1C6E3D0E5F
:100FA0001D6E3E0E1E6EF2EC1BF0D8B0DAEF07F0AD
:100FB000DCEF07F0EBEF07F084C07DF085C07EF03A
:100FC00086C07FF087C080F0010E0001816F7DEC4C
:100FD00010F037EF0AF084C07DF085C07EF086C047
:100FE0007FF087C080F0060E0001816F7DEC10F06D
:100FF00037EF0AF08AC017F08BC018F08CC019F0D8
:101000008DC01AF0AE0E1B6E470E1C6EE10E1D6EEB
:101010003E0E1E6EF2EC1BF0D8B011EF08F013EF8D
:1010200008F0CAEF08F09A0E176E990E186E990E16
:10103000196E3E0E1A6E8EC01BF08FC01CF090C051
:101040001DF091C01EF0F2EC1BF0D8B02AEF08F0B2
:101050002CEF08F0CAEF08F0140E176EAE0E186EE3
:10106000470E196E3E0E1A6E92C01BF093C01CF014
:1010700094C01DF095C01EF0F2EC1BF0D8B043EF09
:1010800008F045EF08F0CAEF08F082C016F083C000
:1010900017F0010E186E47EC1BF082C06DF083C094
:1010A0006EF08A0E00016F6F000E706FD7EC19F0B2
:1010B00092C017F093C018F094C019F095C01AF0C0
:1010C000000E1B6E000E1C6E000E1D6E3E0E1E6E80
:1010D000F2EC1BF0D8B06FEF08F071EF08F080EF82
:1010E00008F084C07DF085C07EF086C07FF087C0A8
:1010F00080F0020E0001816F7DEC10F037EF0AF0F6
:1011000082C016F083C017F0020E186E47EC1BF079
:1011100082C06DF083C06EF08A0E00016F6F000E0A
:10112000706FD7EC19F08AC017F08BC018F08CC024
:1011300019F08DC01AF01F0E1B6E850E1C6EEB0E83
:101140001D6E3D0E1E6EF2EC1BF0D8B0AAEF08F03B
:10115000ACEF08F0BBEF08F084C07DF085C07EF0F6
:1011600086C07FF087C080F0030E0001816F7DECA8
:1011700010F037EF0AF084C07DF085C07EF086C0A5
:101180007FF087C080F0070E0001816F7DEC10F0CA
:1011900037EF0AF0480E176EE10E186EFA0E196E50
:1011A0003E0E1A6E8AC01BF08BC01CF08CC01DF066
:1011B0008DC01EF0F2EC1BF0D8B0E1EF08F0E3EFC9
:1011C00008F024EF09F0850E176EEB0E186E910EE5
:1011D000196E3E0E1A6E8EC01BF08FC01CF090C0B0
:1011E0001DF091C01EF0F2EC1BF0D8B0FAEF08F041
:1011F000FCEF08F024EF09F0EC0E176E510E186E9C
:10120000380E196E3E0E1A6E92C01BF093C01CF081
:1012100094C01DF095C01EF0F2EC1BF0D8B013EF97
:1012200009F015EF09F024EF09F084C07DF085C0C6
:101230007EF086C07FF087C080F0040E0001816FD1
:101240007DEC10F037EF0AF0480E176EE10E186EC5
:10125000FA0E196E3E0E1A6E8AC01BF08BC01CF07F
:101260008CC01DF08DC01EF0F2EC1BF0D8B03BEF2F
:1012700009F03DEF09F07EEF09F08EC017F08FC046
:1012800018F090C019F091C01AF0CD0E1B6ECC0E64
:101290001C6E8C0E1D6E3E0E1E6EF2EC1BF0D8B056
:1012A00054EF09F056EF09F07EEF09F0140E176EB7
:1012B000AE0E186E470E196E3E0E1A6E92C01BF0DF
:1012C00093C01CF094C01DF095C01EF0F2EC1BF012
:1012D000D8B06DEF09F06FEF09F07EEF09F084C030
:1012E0007DF085C07EF086C07FF087C080F0050E5F
:1012F0000001816F7DEC10F037EF0AF08AC017F023
:101300008BC018F08CC019F08DC01AF0D70E1B6E70
:10131000A30E1C6EF00E1D6E3E0E1E6EF2EC1BF048
:10132000D8B095EF09F097EF09F0D0EF09F03D0E36
:10133000176E0A0E186E970E196E3E0E1A6E8EC03C
:101340001BF08FC01CF090C01DF091C01EF0F2EC9D
:101350001BF0D8B0AEEF09F0B0EF09F0D0EF09F014
:101360003D0E176E0A0E186E570E196E3E0E1A6E4F
:1013700092C01BF093C01CF094C01DF095C01EF0ED
:10138000F2EC1BF0D8B0C7EF09F0C9EF09F0D0EFCD
:1013900009F0000E0001DE6F010EDD6F37EF0AF07D
:1013A000520E0001896F2B0E886F000EE82EFED7BB
:1013B000882FFCD7892FFAD700F084C022F085C08F
:1013C00023F086C024F087C025F0B6EC1EF0D00EC6
:1013D0000001886FC90EE82EFED7882FFCD700D0F9
:1013E00084C022F085C023F086C024F087C025F099
:1013F000FDEC1EF082C014F083C015F071EC1FF0FC
:10140000000120EE06F08251D9268351DA22555090
:10141000DE5C5650DE58D8A010EF0AF012EF0AF04A
:1014200023EF0AF020EE06F08251D9268351DA220A
:10143000DE50535CDE505458D8B021EF0AF023EF51
:101440000AF035EF0AF0030EDE6129EF0AF02BEF08
:101450000AF030EF0AF0DE2B0E01338337EF0AF08B
:101460008086010EDD6F37EF0AF0000EDE6F0E0191
:10147000298312003350800B3C6E335033243E6E70
:1014800032AE45EF0AF047EF0AF048EF0AF03E802F
:101490003E50D8B44EEF0AF050EF0AF065EF0AF074
:1014A0003E28D8A456EF0AF058EF0AF060EF0AF091
:1014B000000E306E000E316E000E326E000E336E76
:1014C000328E000E336E6DEF0AF0000E306E000E9D
:1014D000316E000E326E000E336E3750800B3D6E53
:1014E0003C503D18D8B477EF0AF079EF0AF07AEF64
:1014F0000AF03C8C375037243D6E36AE82EF0AF04E
:1015000084EF0AF085EF0AF03D803D50D8B48BEFB0
:101510000AF08DEF0AF0A2EF0AF03D28D8A493EF6D
:101520000AF095EF0AF09DEF0AF0000E346E000EFF
:10153000356E000E366E000E376E368E000E376E2C
:10154000AAEF0AF0000E346E000E356E000E366EF5
:10155000000E376E3E503D5CD8B0B1EF0AF0B3EFED
:101560000AF0DAEF0AF03CACB8EF0AF0BAEF0AF092
:10157000BCEF0AF0800E3C1A3EC03FF03DC03EF08A
:101580003FC03DF030C03FF034C030F03FC034F0D9
:1015900031C03FF035C031F03FC035F032C03FF0D0
:1015A00036C032F03FC036F033C03FF037C033F0C2
:1015B0003FC037F0000E3F6E3E503DC038F0396AF4
:1015C000385E000E395A39BEEFEF0AF0395009E1A2
:1015D0001A0E385CD8A0EFEF0AF0F1EF0AF028EF0E
:1015E0000BF03050311032103310D8A4FAEF0AF05B
:1015F000FDEF0AF0010EFEEF0AF0000E3F6E000E46
:10160000306E000E316E000E326E000E336E3DC035
:101610003EF031EF0BF03FA010EF0BF012EF0BF0AC
:1016200018EF0BF0D8903F3001093F6E1AEF0BF026
:10163000D8903F3230A01FEF0BF021EF0BF022EFDC
:101640000BF03F8E333433323232313230323E2A75
:101650003D503E5CD8A02FEF0BF031EF0BF00BEFBD
:101660000BF03CBC36EF0BF038EF0BF078EF0BF0E3
:101670003E50D8A43EEF0BF040EF0BF04AEF0BF0DA
:10168000000E306E000E316E000E326E000E336EA4
:1016900099EF0CF03450302635503122365032223A
:1016A0003750332233A057EF0BF059EF0BF005EF13
:1016B0000CF03FA05EEF0BF060EF0BF066EF0BF06D
:1016C000D8903F3001093F6E68EF0BF0D8903F3261
:1016D00030A06DEF0BF06FEF0BF070EF0BF03F8E63
:1016E000333433323232313230323E2A05EF0CF0AD
:1016F0003450305C35503158365032583350800AAF
:10170000386E3750800A3858D8B089EF0BF08BEF1D
:101710000BF0B6EF0BF03050345C386E315035586A
:10172000396E325036583A6E335037583B6EFF0E92
:101730003824306EFF0E3920316EFF0E3A20326EA3
:10174000FF0E3B20336E800E3C1A3F6C3F50D8A4F6
:10175000ACEF0BF0AEEF0BF0BEEF0BF0010E30264E
:10176000000E312232223322BEEF0BF03450305EB5
:101770003550315A3650325A3750335A3050311072
:1017800032103310D8A4C7EF0BF0C9EF0BF0FEEF07
:101790000BF03F50D8A4CFEF0BF0D1EF0BF0FEEFE2
:1017A0000BF0000E306E000E316E000E326E000E29
:1017B000336E99EF0CF0D8903036313632363336FE
:1017C0003FAEE5EF0BF0E7EF0BF0E8EF0BF030800A
:1017D0003FA0EDEF0BF0EFEF0BF0F3EF0BF0D88045
:1017E0003F36F5EF0BF0D8903F363E50D8B4FBEFC4
:1017F0000BF0FDEF0BF0FEEF0BF03E0632AE03EF09
:101800000CF005EF0CF0DBEF0BF0000E3D6E3FAE81
:101810000CEF0CF00EEF0CF026EF0CF03FC038F0A0
:101820007F0E3816D8B417EF0CF019EF0CF01DEF3F
:101830000CF0010E3D6E26EF0CF030A022EF0CF004
:1018400024EF0CF026EF0CF019EF0CF03D50D8B45B
:101850002CEF0CF02EEF0CF059EF0CF0010E3026AF
:10186000000E31223222332233A039EF0CF03BEF4D
:101870000CF059EF0CF030C038F031C039F032C004
:101880003AF033C03BF03B343B323A3239323832F3
:1018900038C030F039C031F03AC032F03BC033F0DC
:1018A0003E28D8B456EF0CF058EF0CF059EF0CF07E
:1018B0003E2A3E28D8B45FEF0CF061EF0CF069EFE0
:1018C0000CF03E50D8A467EF0CF069EF0CF07BEF02
:1018D0000CF0000E306E000E316E000E326E000EF7
:1018E000336E3E50D8A477EF0CF079EF0CF07BEF1D
:1018F0000CF0000E3C6E3EA080EF0CF082EF0CF07E
:1019000085EF0CF0328E86EF0CF0329ED8903E3090
:10191000336E3CAE8EEF0CF090EF0CF091EF0CF0CC
:10192000338E30C030F031C031F032C032F033C0CD
:1019300033F012001A50800B236E1A501A24296EAD
:1019400019AEA5EF0CF0A7EF0CF0A8EF0CF0298072
:101950002950D8B4AEEF0CF0B0EF0CF0C3EF0CF0A0
:101960002928D8A4B6EF0CF0B8EF0CF0C0EF0CF0BB
:10197000000E176E000E186E000E196E000E1A6E15
:10198000198ECBEF0CF0000E176E000E186E000EC5
:10199000196E000E1A6E1E50800B231A1E501E2444
:1019A000286E1DAED6EF0CF0D8EF0CF0D9EF0CF08E
:1019B00028802850D8B4DFEF0CF0E1EF0CF0F4EF02
:1019C0000CF02828D8A4E7EF0CF0E9EF0CF0F1EFC9
:1019D0000CF0000E1B6E000E1C6E000E1D6E000E35
:1019E0001E6E1D8EFCEF0CF0000E1B6E000E1C6EAA
:1019F000000E1D6E000E1E6E2850D8B402EF0DF0C2
:101A000004EF0DF00CEF0DF02950D8A40AEF0DF003
:101A10000CEF0DF016EF0DF0000E176E000E186EA5
:101A2000000E196E000E1A6EAEEF0EF01D5017026A
:101A3000F3CF2EF0F4CF2FF02E50246E256A266AB5
:101A4000276A2F502A6E2B6A2C6A2D6A1C501802A6
:101A5000F3CF2EF0F4CF2FF02E502426000E2522A7
:101A6000262227222F502A26000E2B222C222D221E
:101A70001B501902F3CF2EF0F4CF2FF02E50242656
:101A8000000E2522262227222F502A26000E2B2246
:101A90002C222D2226C027F025C026F024C025F0B8
:101AA000246A1B501802F3CF2EF0F4CF2FF02E50E3
:101AB00024262F502522000E2622000E27221C50FD
:101AC0001702F3CF2EF0F4CF2FF02E5024262F50F4
:101AD0002522000E2622000E272226C027F025C030
:101AE00026F024C025F0246A1B501702F3CF2EF0F5
:101AF000F4CF2FF02E5024262F502522000E262220
:101B0000000E27221D501802F3CF2EF0F4CF2FF035
:101B10002E502A262F502B22000E2C22000E2D2272
:101B20001C501902F3CF2EF0F4CF2FF02E502A269E
:101B30002F502B22000E2C22000E2D221D50190298
:101B4000F3CF2EF0F4CF2FF02E501F6E2F50206EBB
:101B5000216A226A21C022F020C021F01FC020F09B
:101B60001F6A1F502A2620502B2221502C2222503F
:101B70002D2224C01FF025C020F026C021F027C050
:101B800022F0190EC9EF0DF0D89022322132203206
:101B90001F32E82EC4EF0DF01F502A2620502B22B2
:101BA00021502C2222502D2226C027F025C026F0BD
:101BB00024C025F0246A285029C01FF0206A1F265F
:101BC000000E2022820E1F242E6EFF0E20202F6E6C
:101BD000FFEF0DF0D8902A362B362C362D3627AE57
:101BE000F4EF0DF0F6EF0DF0F7EF0DF02A80D8903E
:101BF00024362536263627362E06D8A02F062CAEBC
:101C000004EF0EF006EF0EF0EAEF0DF0000E286E76
:101C100027AE0DEF0EF00FEF0EF033EF0EF0FF0ECC
:101C200024141F6EFF0E2514206EFF0E2614216E45
:101C30007F0E2714226E1F50201021102210D8B4BE
:101C400024EF0EF026EF0EF02AEF0EF0010E286EB4
:101C500033EF0EF02AA02FEF0EF031EF0EF033EF3E
:101C60000EF026EF0EF02850D8B439EF0EF03BEF0F
:101C70000EF05FEF0EF0010E2A26000E2B222C2212
:101C80002D222DA046EF0EF048EF0EF05FEF0EF084
:101C90002AC01FF02BC020F02CC021F02DC022F054
:101CA00022342232213220321F321FC02AF020C0BB
:101CB0002BF021C02CF022C02DF02E4A2F2A2FBE4F
:101CC0006AEF0EF02F5008E12E28D8A06AEF0EF030
:101CD0006CEF0EF076EF0EF0000E2A6E000E2B6EFB
:101CE000800E2C6E7F0E2D6EA4EF0EF02FBE83EFB4
:101CF0000EF02F5006E12E04D8B081EF0EF083EFE6
:101D00000EF08FEF0EF0000E2A6E000E2B6E000EFE
:101D10002C6E000E2D6E000E236EA4EF0EF02EC062
:101D200029F0FF0E2A16FF0E2B167F0E2C16000E22
:101D30002D1629A09EEF0EF0A0EF0EF0A1EF0EF0F1
:101D40002C8ED89029302D6E23502D122AC017F0DA
:101D50002BC018F02CC019F02DC01AF012004350FF
:101D6000800B0001646F435043246B6F42AEBBEFA6
:101D70000EF0BDEF0EF0BEEF0EF06B816B51D8B4DC
:101D8000C4EF0EF0C6EF0EF0DBEF0EF06B29D8A417
:101D9000CCEF0EF0CEEF0EF0D6EF0EF0000E406E50
:101DA000000E416E000E426E000E436E428E000E1B
:101DB000436EE3EF0EF0000E406E000E416E000E1B
:101DC000426E000E436E4750800B641B4750472401
:101DD0006C6F46AEEEEF0EF0F0EF0EF0F1EF0EF09E
:101DE0006C816C51D8B4F7EF0EF0F9EF0EF00EEFF6
:101DF0000FF06C29D8A4FFEF0EF001EF0FF009EF00
:101E00000FF0000E446E000E456E000E466E000E82
:101E1000476E468E000E476E16EF0FF0000E446EB2
:101E2000000E456E000E466E000E476E4450451083
:101E300046104710D8A41FEF0FF021EF0FF039EF35
:101E40000FF0000E406E000E416E000E426E000E4E
:101E5000436E800E42127F0E43126451431240C003
:101E600040F041C041F042C042F043C043F07CEF3B
:101E700010F06B51D8A43FEF0FF041EF0FF04BEF94
:101E80000FF0000E406E000E416E000E426E000E0E
:101E9000436E7CEF10F06C516BC048F0496A485EAD
:101EA000000E495A7F0E4824656F000E4920666F68
:101EB00040C060F041C061F042C062F043C063F0D6
:101EC000000E406E000E416E000E426E000E436E1C
:101ED000000E676F000E686F000E696F000E6A6F6C
:101EE000000E6C6FACEF0FF06C51D8B47AEF0FF0BE
:101EF0007CEF0FF093EF0FF0D890603761376237C7
:101F00006337D89040364136423643366AAF8BEF5E
:101F10000FF08DEF0FF08EEF0FF04080D890673705
:101F2000683769376A374450605D4550615946509B
:101F3000625947506359D8A0A0EF0FF0A2EF0FF0FD
:101F4000ABEF0FF06A8D4450605F4550615B4650C7
:101F5000625B4750635B6C2B190E6C65B2EF0FF040
:101F6000B4EF0FF074EF0FF0605161116211631163
:101F7000D8B4BDEF0FF0BFEF0FF0D7EF0FF06781D0
:101F8000D7EF0FF0D89040364136423643366AAF2D
:101F9000CCEF0FF0CEEF0FF0CFEF0FF04080D890E6
:101FA0006737683769376A376507D8A0660742AE72
:101FB000DCEF0FF0DEEF0FF0C2EF0FF0000E6C6FF2
:101FC0006AAFE5EF0FF0E7EF0FF00BEF10F0FF0E49
:101FD0006715486EFF0E6815496EFF0E69154A6E4B
:101FE0007F0E6A154B6E485049104A104B10D8B4FA
:101FF000FCEF0FF0FEEF0FF002EF10F0010E6C6F30
:102000000BEF10F040A007EF10F009EF10F00BEF0E
:1020100010F0FEEF0FF06C51D8B411EF10F013EF89
:1020200010F037EF10F0010E4026000E4122422240
:10203000432243A01EEF10F020EF10F037EF10F016
:1020400040C048F041C049F042C04AF043C04BF0A4
:102050004B344B324A324932483248C040F049C0D2
:1020600041F04AC042F04BC043F0654B662B66BF5F
:1020700042EF10F0665108E16529D8A042EF10F058
:1020800044EF10F04FEF10F0000E666F6569000E20
:10209000406E000E416E000E426E000E436E66BF33
:1020A0005CEF10F0665106E16505D8B05AEF10F00C
:1020B0005CEF10F06AEF10F0000E666F000E656FB7
:1020C000000E406E000E416E000E426E000E436E1A
:1020D000000E646F65C06BF06BA171EF10F073EFD1
:1020E00010F076EF10F0428E77EF10F0429ED8900D
:1020F0006B31436E2DEF0FF012000001DD51D8A4BB
:1021000084EF10F086EF10F098EF10F0000EDE6F05
:1021100081514D6E4E6AE151020DB30EF324D96E1A
:10212000000EF420DA6E4DC0DEFF4EC0DDFFE12B65
:102130008105D8A49EEF10F0A0EF10F0C5EF10F0CD
:102140007DC028F07EC029F07FC02AF080C02BF02F
:1021500042EC1FF07DC06DF07EC06EF07FC06FF06E
:1021600080C070F0000E0001726F5A0E716F0DEC9E
:1021700016F07DC022F07EC023F07FC024F080C026
:1021800025F0FDEC1EF013EF12F0020E8119D8A419
:10219000CCEF10F0CEEF10F0F3EF10F07DC028F090
:1021A0007EC029F07FC02AF080C02BF042EC1FF0E7
:1021B0007DC06DF07EC06EF07FC06FF080C070F0AB
:1021C000000E0001726F5A0E716F10EC17F07DC097
:1021D00022F07EC023F07FC024F080C025F0FDEC0B
:1021E0001EF013EF12F0030E8119D8A4FAEF10F0CD
:1021F000FCEF10F021EF11F07DC028F07EC029F037
:102200007FC02AF080C02BF042EC1FF07DC06DF043
:102210007EC06EF07FC06FF080C070F0000E0001D5
:10222000726FB40E716F0DEC16F07DC022F07EC09F
:1022300023F07FC024F080C025F0FDEC1EF013EFEA
:1022400012F0040E8119D8A428EF11F02AEF11F032
:1022500071EF11F07DC022F07EC023F07FC024F02A
:1022600080C025F06FEC1EF0720E4E6EA30E4D6E08
:102270009B0EE82EFED74D2EFCD74E2EFAD700F03F
:102280007DC022F07EC023F07FC024F080C025F006
:10229000FDEC1EF0090E4E6E1E0E4D6EE40EE82E85
:1022A000FED74D2EFCD74E2EFAD700D07DC06DF054
:1022B0007EC06EF07FC06FF080C070F0000E000135
:1022C000726F5A0E716F0DEC16F07DC022F07EC059
:1022D00023F07FC024F080C025F0FDEC1EF013EF4A
:1022E00012F0050E8119D8A478EF11F07AEF11F0F1
:1022F000B7EF11F07DC022F07EC023F07FC024F044
:1023000080C025F06FEC1EF0720E4E6EA30E4D6E67
:102310009B0EE82EFED74D2EFCD74E2EFAD700F09E
:102320007DC022F07EC023F07FC024F080C025F065
:10233000FDEC1EF0090E4E6E1E0E4D6EE40EE82EE4
:10234000FED74D2EFCD74E2EFAD700D07DC06DF0B3
:102350007EC06EF07FC06FF080C070F0000E000194
:10236000726F5A0E716F10EC17F065EF11F0060ED8
:102370008119D8A4BEEF11F0C0EF11F0E5EF11F014
:102380007DC028F07EC029F07FC02AF080C02BF0ED
:1023900042EC1FF07DC06DF07EC06EF07FC06FF02C
:1023A00080C070F0000E0001726F870E716F0DEC2F
:1023B00016F07DC022F07EC023F07FC024F080C0E4
:1023C00025F0FDEC1EF013EF12F0070E8119D8A4D2
:1023D000ECEF11F0EEEF11F013EF12F07DC028F0EA
:1023E0007EC029F07FC02AF080C02BF042EC1FF0A5
:1023F0007DC06DF07EC06EF07FC06FF080C070F069
:10240000000E0001726F870E716F10EC17F07DC027
:1024100022F07EC023F07FC024F080C025F0FDECC8
:102420001EF013EF12F01200000E0001816F8EA457
:102430001CEF12F01EEF12F06FEF13F08EB623EFC9
:1024400012F025EF12F017EF12F06FEF13F07C8609
:10245000090E4E6E1E0E4D6EE40EE82EFED74D2E6A
:10246000FCD74E2EFAD700D07DC06DF07EC06EF046
:102470007FC06FF080C070F0010E0001726F680EB7
:10248000716F0DEC16F07DC022F07EC023F07FC08E
:1024900024F080C025F0FDEC1EF08EA452EF12F067
:1024A00054EF12F05BEF12F08EB659EF12F05BEFC3
:1024B00012F04DEF12F07C96520E4E6E2B0E4D6EBA
:1024C000000EE82EFED74D2EFCD74E2EFAD700D0A8
:1024D000010E95EC1AF0520E4E6E2B0E4D6E000E44
:1024E000E82EFED74D2EFCD74E2EFAD700D07C8694
:1024F000090E4E6E1E0E4D6EE40EE82EFED74D2ECA
:10250000FCD74E2EFAD700D07DC06DF07EC06EF0A5
:102510007FC06FF080C070F0010E0001726F680E16
:10252000716F10EC17F07DC022F07EC023F07FC0E9
:1025300024F080C025F0FDEC1EF08EA4A2EF12F076
:10254000A4EF12F0ABEF12F08EB6A9EF12F0ABEFE2
:1025500012F09DEF12F07C96520E4E6E2B0E4D6EC9
:10256000000EE82EFED74D2EFCD74E2EFAD700D007
:10257000020E95EC1AF0520E4E6E2B0E4D6E000EA2
:10258000E82EFED74D2EFCD74E2EFAD700D07C86F3
:10259000090E4E6E1E0E4D6EE40EE82EFED74D2E29
:1025A000FCD74E2EFAD700D07DC06DF07EC06EF005
:1025B0007FC06FF080C070F0000E0001726F5A0E85
:1025C000716F0DEC16F07DC022F07EC023F07FC04D
:1025D00024F080C025F0FDEC1EF0520E4E6E2B0E46
:1025E0004D6E000EE82EFED74D2EFCD74E2EFAD79C
:1025F00000D07DC06DF07EC06EF07FC06FF080C0F7
:1026000070F0000E0001726F5A0E716F10EC17F02F
:102610007DC022F07EC023F07FC024F080C025F072
:10262000FDEC1EF07C96520E4E6E2B0E4D6E000E83
:10263000E82EFED74D2EFCD74E2EFAD700D080863E
:102640007C8E8EA426EF13F028EF13F02FEF13F0FB
:102650008EB62DEF13F02FEF13F021EF13F08EB4A1
:1026600034EF13F036EF13F043EF13F08EA63BEF89
:1026700013F03DEF13F043EF13F07C9E010E0001C9
:10268000816F55EF13F08EB648EF13F04AEF13F059
:1026900055EF13F08EA44FEF13F051EF13F055EFF9
:1026A00013F08096000E0001816F110E4E6E3C0EED
:1026B0004D6ECB0EE82EFED74D2EFCD74E2EFAD700
:1026C00000F080967C9E520E4E6E2B0E4D6E000ECC
:1026D000E82EFED74D2EFCD74E2EFAD700D00001A3
:1026E0008151D8B476EF13F078EF13F027EF12F0A2
:1026F00012000001E151020DB30EF324D96E000E59
:10270000F420DA6EDE04DE10D8A489EF13F08BEF2C
:1027100013F099EF13F082C07DF083C07EF084C087
:102720007FF085C080F0020E816F7DEC10F0C5EF68
:1027300014F0E151020DB30EF324D96E000EF42013
:10274000DA6E020EDE18DE10D8A4A9EF13F0ABEF9C
:1027500013F0B9EF13F082C07DF083C07EF084C027
:102760007FF085C080F0010E816F7DEC10F0C5EF29
:1027700014F0E151020DB30EF324D96E000EF420D3
:10278000DA6E030EDE18DE10D8A4C9EF13F0CBEF1B
:1027900013F0D9EF13F082C07DF083C07EF084C0C7
:1027A0007FF085C080F0030E816F7DEC10F0C5EFE7
:1027B00014F0E151020DB30EF324D96E000EF42093
:1027C000DA6E040EDE18DE10D8A4E9EF13F0EBEF9A
:1027D00013F034EF14F082C022F083C023F084C0E1
:1027E00024F085C025F0B6EC1EF0CB0E0001876FFB
:1027F000EC0E866F840EE82EFED7862FFCD7872F2F
:10280000FAD700F082C022F083C023F084C024F005
:1028100085C025F0FDEC1EF0090E0001876F1E0E2D
:10282000866FE40EE82EFED7862FFCD7872FFAD7C7
:1028300000F082C06DF083C06EF084C06FF085C080
:1028400070F0000E0001726F5A0E716F10EC17F0ED
:1028500082C022F083C023F084C024F085C025F01C
:10286000FDEC1EF0C5EF14F0E151020DB30EF324A0
:10287000D96E000EF420DA6E050EDE18DE10D8A434
:1028800044EF14F046EF14F085EF14F082C022F00C
:1028900083C023F084C024F085C025F0B6EC1EF080
:1028A000CB0E0001876FEC0E866F840EE82EFED7EC
:1028B000862FFCD7872FFAD700F082C022F083C082
:1028C00023F084C024F085C025F0FDEC1EF0090E35
:1028D0000001876F1E0E866FE40EE82EFED7862F4E
:1028E000FCD7872FFAD700F082C06DF083C06EF05E
:1028F00084C06FF085C070F0000E0001726F5A0E38
:10290000716F0DEC16F028EF14F0E151020DB30ECB
:10291000F324D96E000EF420DA6E060EDE18DE10F7
:10292000D8A495EF14F097EF14F0A5EF14F082C03F
:102930007DF083C07EF084C07FF085C080F0070EFC
:10294000816F7DEC10F0C5EF14F0E151020DB30E74
:10295000F324D96E000EF420DA6E070EDE18DE10B6
:10296000D8A4B5EF14F0B7EF14F0C5EF14F082C09F
:102970007DF083C07EF084C07FF085C080F0060EBD
:10298000816F7DEC10F0C5EF14F01200000E000115
:10299000986F000EDC6F000EDB6F000EE16F000E13
:1029A000E06F010E526E680E516E010E506E680E91
:1029B0004F6E000E566E000E556E000E546E000ED9
:1029C000536E000EDF6F000EDE6F000EDD6F000E27
:1029D000A16F010EA26FA30EA36F0F0EA46F7D0E49
:1029E000A56F0F0EA66F040EA76F000EA96F630EE2
:1029F000A86F000EAA6F010EAB6FA00EAC6F0F0E8A
:102A0000AD6F7F0EAE6F0F0EAF6F060EB06F000E84
:102A1000B26F630EB16FDDEC21F0D7EC20F0630EE6
:102A200040EC20F0B0EC21F0F0EC1CF0A10E000125
:102A30007D6F000E7E6FAA0E7F6F000E806F14EC0C
:102A400012F0CDEC1DF08EA428EF15F02AEF15F052
:102A500031EF15F08EB62FEF15F031EF15F023EFB3
:102A600015F07C86010E6EEC21F0520E0001976F7E
:102A70002B0E966F000EE82EFED7962FFCD7972FC1
:102A8000FAD700F05CEC21F090EC21F0F0EC1CF0B7
:102A900000019851D8A44FEF15F051EF15F05FEFFA
:102AA00015F0DF05D8A457EF15F059EF15F05FEFDB
:102AB00015F0000EDF6F010E986F46EF15F098517C
:102AC000D8B465EF15F067EF15F0DEEF15F0DF0510
:102AD000D8A46DEF15F06FEF15F0DEEF15F0A10E35
:102AE000226E000E236EAA0E246E000E256EFDECE3
:102AF0001EF07C8E8086A10E226E000E236EAA0E22
:102B0000246E000E256E6FEC1EF0090E0001976F0B
:102B10001E0E966FE40EE82EFED7962FFCD7972F49
:102B2000FAD700F0A10E226E000E236EAA0E246EBC
:102B3000000E256EFDEC1EF07C9E8096520E00016C
:102B4000976F2B0E966F000EE82EFED7962FFCD7B0
:102B5000972FFAD700F0990E0001826F000E836F55
:102B6000A10E846F000E856FAA0E866F000E876F10
:102B700052EC07F0520E0001976F2B0E966F000E6D
:102B8000E82EFED7962FFCD7972FFAD700F0990E94
:102B9000146E000E156E71EC1FF06A0E00019F2579
:102BA000556EFF0EA021566E640E9F25536E000ECB
:102BB000A021546E000EDF6F46EF15F0DD05D8A49E
:102BC000E4EF15F0E6EF15F0F5EF15F0A10E886FC4
:102BD000000E896FAA0E8A6F000E8B6F74EC1CF0CA
:102BE000020E0001DD6F46EF15F0DD51D8A4FBEFBA
:102BF00015F0FDEF15F009EF16F0A10E226E000E94
:102C0000236EAA0E246E000E256EB6EC1EF046EF63
:102C100015F046EF15F02CEF00F0230E346EDB0EAE
:102C2000356E7B0E366E420E376E6F0E1B6EF00EDB
:102C30001C6E010E1D6E400E1E6E71C009F072C03A
:102C40000AF00B6A0C6A000EFDEC18F009C017F0D0
:102C50000AC018F00BC019F00CC01AF09AEC0CF076
:102C600017C030F018C031F019C032F01AC033F07C
:102C70003AEC0AF030C077F031C078F032C079F029
:102C800033C07AF0000E1B6E000E1C6EB40E1D6E6B
:102C9000430E1E6E77C017F078C018F079C019F097
:102CA0007AC01AF09AEC0CF017C040F018C041F04E
:102CB00019C042F01AC043F04FC009F050C00AF0EA
:102CC000000E0ABEFF0E0B6E0C6E010EFDEC18F02E
:102CD00009C044F00AC045F00BC046F00CC047F0F4
:102CE000AFEC0EF040C073F041C074F042C075F01C
:102CF00043C076F0000120EE01F06D51D9266E51EF
:102D0000DA22010EDF6E20EE01F06F51D9267051EC
:102D1000DA22000EDF6E8080C2EF16F06DC0D9FFA0
:102D20006EC0DAFF460EDF6098EF16F09AEF16F0ED
:102D3000A0EF16F06DC0D9FF6EC0DAFF0A0EDF26D5
:102D40006FC0D9FF70C0DAFF460EDF60AAEF16F041
:102D5000ACEF16F0B2EF16F06FC0D9FF70C0DAFF1B
:102D60000A0EDF266DC017F06EC018F013EC18F0D5
:102D70006FC017F070C018F013EC18F0A00E00D060
:102D8000E82EFDD76DC0D9FF6EC0DAFF450EDF64B7
:102D9000CCEF16F0CEEF16F08EEF16F06FC0D9FF25
:102DA00070C0DAFF450EDF64D8EF16F0DAEF16F0E8
:102DB0008EEF16F0000E00017C6F000E7B6FECEFC3
:102DC00016F0150E4C6EC60EE82EFED74C2EFCD714
:102DD00000D000017B4B7C2B7BC009F07CC00AF04B
:102DE0000B6A0C6A000EFDEC18F009C017F00AC05F
:102DF00018F00BC019F00CC01AF073C01BF074C0AF
:102E00001CF075C01DF076C01EF0F2EC1BF0D8A0CF
:102E10000CEF17F00EEF17F0E1EF16F080901200B4
:102E20004A0E346E0C0E356EFC0E366E410E376E49
:102E30007D0E1B6E3F0E1C6E150E1D6E400E1E6E1F
:102E400071C009F072C00AF00B6A0C6A000EFDEC4A
:102E500018F009C017F00AC018F00BC019F00CC028
:102E60001AF09AEC0CF017C030F018C031F019C00D
:102E700032F01AC033F03AEC0AF030C077F031C0CB
:102E800078F032C079F033C07AF0000E1B6E000E7D
:102E90001C6EB40E1D6E430E1E6E77C017F078C008
:102EA00018F079C019F07AC01AF09AEC0CF017C03B
:102EB00040F018C041F019C042F01AC043F051C0B0
:102EC00009F052C00AF0000E0ABEFF0E0B6E0C6E27
:102ED000010EFDEC18F009C044F00AC045F00BC02B
:102EE00046F00CC047F0AFEC0EF040C073F041C0AC
:102EF00074F042C075F043C076F0000120EE01F09E
:102F00006D51D9266E51DA22000EDF6E20EE01F0EF
:102F10006F51D9267051DA22010EDF6E7E80C5EF27
:102F200017F06DC0D9FF6EC0DAFF460EDF609BEF71
:102F300017F09DEF17F0A3EF17F06DC0D9FF6EC02B
:102F4000DAFF0A0EDF266FC0D9FF70C0DAFF460E27
:102F5000DF60ADEF17F0AFEF17F0B5EF17F06FC010
:102F6000D9FF70C0DAFF0A0EDF266DC017F06EC001
:102F700018F013EC18F06FC017F070C018F013ECD5
:102F800018F0A00E00D0E82EFDD76DC0D9FF6EC09E
:102F9000DAFF450EDF64CFEF17F0D1EF17F091EFB6
:102FA00017F06FC0D9FF70C0DAFF450EDF64DBEFAA
:102FB00017F0DDEF17F091EF17F0000E00017C6FB6
:102FC000000E7B6FEFEF17F0150E4C6EC60EE82E5D
:102FD000FED74C2EFCD700D000017B4B7C2B7BC056
:102FE00009F07CC00AF00B6A0C6A000EFDEC18F0C8
:102FF00009C017F00AC018F00BC019F00CC01AF085
:1030000073C01BF074C01CF075C01DF076C01EF0BC
:10301000F2EC1BF0D8A00FEF18F011EF18F0E4EF6E
:1030200017F07E90120020EE01F01750D9261850AC
:10303000DA22DF50D8B41FEF18F021EF18F052EF6A
:1030400018F017C0D9FF18C0DAFFDF50196E1950F9
:10305000096E0A6A20EE07F01750D9261850DA22B6
:10306000DECF0BF0DDCF0CF049EC21F009C00FF002
:103070000AC010F0000E126E640E116E6BEC1DF0A3
:1030800020EE07F01750D9261850DA22DECF1AF0BA
:10309000DDCF1BF00F501A5C206E10501B58216EB4
:1030A00075EF18F017C0D9FF18C0DAFFDF50196E9E
:1030B0001950096E0A6A20EE07F01750D9261850E9
:1030C000DA22DECF0BF0DDCF0CF049EC21F009C0A5
:1030D0000FF00AC010F0000E126E640E116E6BEC51
:1030E0001DF00FC020F010C021F020EE02F01750AC
:1030F000D9261850DA22DECF19F0DDCF1AF019C028
:10310000D9FF1AC0DAFF20C0DFFF20EE01F0175010
:10311000D9261850DA22DF50D8B491EF18F093EF87
:1031200018F0C8EF18F020EE04F01750D926185008
:10313000DA22DECF19F0DDCF1AF019C0D9FF1AC09C
:10314000DAFF10EE04F01750E1261850E222E6CF25
:103150001BF0E5CF1CF01BC0E1FF1CC0E2FFE750F5
:103160001D6E10EE06F01750E1261850E222E750CF
:103170001E6E010E1F6E1E2AC0EF18F0D8901F366B
:103180001E2EBEEF18F01F501D10DF6EFCEF18F062
:1031900020EE04F01750D9261850DA22DECF19F0AD
:1031A000DDCF1AF019C0D9FF1AC0DAFF10EE04F013
:1031B0001750E1261850E222E6CF1BF0E5CF1CF0B5
:1031C0001BC0E1FF1CC0E2FFE7501D6E10EE06F0D1
:1031D0001750E1261850E222E7501E6E010E1F6EB6
:1031E0001E2AF5EF18F0D8901F361E2EF3EF18F0B8
:1031F0001F50FF0A1D14DF6E1200116E1150D8B45B
:1032000004EF19F006EF19F028EF19F00CBE0DEFDE
:1032100019F00BEF19F028EF19F009C00DF00AC0F2
:103220000EF00BC00FF00CC010F00D1E0E1E0F1E86
:10323000101E0D2A000E0E220F2210220DC013F0B8
:103240000EC014F00FC015F010C016F030EF19F0DA
:1032500009C013F00AC014F00BC015F00CC016F032
:1032600009500A100B100C10D8A439EF19F03BEFDD
:1032700019F045EF19F0000E096E000E0A6E000EEF
:103280000B6E000E0C6ED6EF19F0960E126E4FEF0D
:1032900019F0122AD8901632153214321332000E59
:1032A00013140D6E000E14140E6E000E15140F6E16
:1032B000FE0E1614106E0D500E100F101010D8A424
:1032C00064EF19F066EF19F049EF19F074EF19F097
:1032D000122A010E1326000E142215221622D8904F
:1032E0001632153214321332000E13140D6E000E06
:1032F00014140E6E000E15140F6EFF0E1614106EC1
:103300000D500E100F101010D8A489EF19F08BEF8C
:1033100019F068EF19F093EF19F01206D8901336F0
:1033200014361536163615BE98EF19F09AEF19F0C7
:10333000A2EF19F0020E1260A0EF19F0A2EF19F03F
:103340008DEF19F012B0A7EF19F0A9EF19F0AAEF5D
:1033500019F0159ED890123212C00DF00E6A0F6A45
:10336000106A0DC010F00F6A0E6A0D6A0D5013122C
:103370000E5014120F501512105016121150D8B4CE
:10338000C4EF19F0C6EF19F0CEEF19F00CBECDEF77
:1033900019F0CBEF19F0CEEF19F0168E13C009F02B
:1033A00014C00AF015C00BF016C00CF012006DC06E
:1033B000D9FF6EC0DAFFDECF71F0DDCF72F0000111
:1033C00020EE02F06D51D9266E51DA22DECF73F075
:1033D000DDCF74F020EE04F06D51D9266E51DA2263
:1033E000DECF75F0DDCF76F020EE06F06D51D926F8
:1033F0006E51DA22DECF77F0DDCF78F071C009F0C0
:1034000072C00AF00B6A0C6A000EFDEC18F009C0DD
:1034100040F00AC041F00BC042F00CC043F077C04E
:1034200009F078C00AF00B6A0C6A000EFDEC18F087
:1034300009C044F00AC045F00BC046F00CC047F08C
:10344000AFEC0EF06FC0D9FF70C0DAFF40C0DEFFF6
:1034500041C0DEFF42C0DEFF43C0DEFF73C009F0A3
:1034600074C00AF00B6A0C6A000EFDEC18F009C07B
:1034700040F00AC041F00BC042F00CC043F077C0EE
:1034800009F078C00AF00B6A0C6A000EFDEC18F027
:1034900009C044F00AC045F00BC046F00CC047F02C
:1034A000AFEC0EF0000120EE04F06F51D926705100
:1034B000DA2240C0DEFF41C0DEFF42C0DEFF43C073
:1034C000DEFF75C009F076C00AF00B6A0C6A000EC8
:1034D000FDEC18F009C040F00AC041F00BC042F00A
:1034E0000CC043F077C009F078C00AF00B6A0C6A90
:1034F000000EFDEC18F009C044F00AC045F00BC006
:1035000046F00CC047F0AFEC0EF0000120EE08F0E2
:103510006F51D9267051DA2240C0DEFF41C0DEFF74
:1035200042C0DEFF43C0DEFF12000B6E000E0C6EC9
:103530000B04D8A49EEF1AF0A0EF1AF0F0EF1AF0E7
:103540008EB4A5EF1AF0A7EF1AF0C2EF1AF08EA60C
:10355000ACEF1AF0AEEF1AF0C2EF1AF07C8EFB0E51
:103560004F26FF0E5022410E0A6EF00E096E330EEA
:10357000E82EFED7092EFCD70A2EFAD700F07C9E43
:10358000E2EF1AF08EB6C7EF1AF0C9EF1AF0E2EFC9
:103590001AF08EA4CEEF1AF0D0EF1AF0E2EF1AF084
:1035A0008086050E4F26000E5022410E0A6EF00E48
:1035B000096E330EE82EFED7092EFCD70A2EFAD755
:1035C00000F08096110E0A6E3C0E096ECB0EE82EAE
:1035D000FED7092EFCD70A2EFAD700F03DEF1BF0DC
:1035E000020E0B18D8A4F7EF1AF0F9EF1AF03DEF1E
:1035F0001BF08EB6FEEF1AF000EF1BF01BEF1BF076
:103600008EA405EF1BF007EF1BF01BEF1BF080866D
:10361000FB0E5126FF0E5222410E0A6EF00E096E6D
:10362000330EE82EFED7092EFCD70A2EFAD700F06B
:103630008096E2EF1AF08EB420EF1BF022EF1BF021
:10364000E2EF1AF08EA627EF1BF029EF1BF0E2EF56
:103650001AF07C8E050E5126000E5222410E0A6E83
:10366000F00E096E330EE82EFED7092EFCD70A2E77
:10367000FAD700F07C9EE2EF1AF00C2A090E0C64D7
:1036800044EF1BF046EF1BF098EF1AF01200000E0B
:103690006EEC21F0090E1A6E1E0E196EE40EE82E65
:1036A000FED7192EFCD71A2EFAD700D01804D8A4AA
:1036B0005CEF1BF05EEF1BF08CEF1BF07F82520E75
:1036C0001A6E2B0E196E000EE82EFED7192EFCD79F
:1036D0001A2EFAD700D016C014F017C015F071ECEE
:1036E0001FF0520E1A6E2B0E196E000EE82EFED72A
:1036F000192EFCD71A2EFAD700D07F92020E1A6E1E
:10370000A00E196E920EE82EFED7192EFCD71A2E97
:10371000FAD700D0E2EF1BF0020E1818D8A493EFEE
:103720001BF095EF1BF0B7EF1BF07988520E1A6E65
:103730002B0E196E000EE82EFED7192EFCD71A2E6E
:10374000FAD700D016C014F017C015F071EC1FF0B6
:10375000520E1A6E2B0E196E000EE82EFED7192E81
:10376000FCD71A2EFAD700D079987EEF1BF0030E03
:103770001818D8A4BEEF1BF0C0EF1BF0E2EF1BF04F
:103780007E8E520E1A6E2B0E196E000EE82EFED78C
:10379000192EFCD71A2EFAD700D016C014F017C075
:1037A00015F071EC1FF0520E1A6E2B0E196E000EF2
:1037B000E82EFED7192EFCD71A2EFAD700D07E9EFF
:1037C0007EEF1BF0010E6EEC21F0090E1A6E1E0E3C
:1037D000196EE40EE82EFED7192EFCD71A2EFAD752
:1037E00000D01200000E17141F6E000E1814206E69
:1037F000800E1914216E7F0E1A14226E1F50201095
:1038000021102210D8A407EF1CF009EF1CF011EFD3
:103810001CF0000E176E000E186E000E196E000ED2
:103820001A6E000E1B141F6E000E1C14206E800EEC
:103830001D14216E7F0E1E14226E1F5020102110A9
:103840002210D8A426EF1CF028EF1CF030EF1CF05B
:10385000000E1B6E000E1C6E000E1D6E000E1E6E06
:103860001AAE35EF1CF037EF1CF040EF1CF0176C70
:10387000181ED8B0182A191ED8B0192A800E1A5648
:103880001EAE45EF1CF047EF1CF050EF1CF01B6C18
:103890001C1ED8B01C2A1D1ED8B01D2A800E1E5614
:1038A000000E171A000E181A000E191A800E1A1A96
:1038B000000E1B1A000E1C1A000E1D1A800E1E1A76
:1038C0001B50175C1C5018581D5019581E501A5880
:1038D000D8B06DEF1CF06FEF1CF072EF1CF0D890B9
:1038E00073EF1CF0D8801200F28EE1C08EF0000E53
:1038F00000018F6FB8EF1CF088C022F089C023F060
:103900008AC024F08BC025F06FEC1EF0000E000181
:10391000906F090E00018D6F1E0E8C6FE40EE82E65
:10392000FED78C2FFCD78D2FFAD700F00001902BFB
:10393000050E90659EEF1CF0A0EF1CF089EF1CF0C7
:1039400088C022F089C023F08AC024F08BC025F003
:10395000FDEC1EF088C082F089C083F08AC084F03C
:103960008BC085F079EC13F00001E007E1078F2BA5
:103970008F518E5DD8B0BFEF1CF0C1EF1CF07CEF13
:103980001CF088C022F089C023F08AC024F08BC0CC
:1039900025F06FEC1EF0000E0001906F090E000183
:1039A0008D6F1E0E8C6FE40EE82EFED78C2FFCD789
:1039B0008D2FFAD700F00001902B050E9065E3EFF4
:1039C0001CF0E5EF1CF0CEEF1CF088C022F089C09F
:1039D00023F08AC024F08BC025F0FDEC1EF012000D
:1039E000F7EC21F00C6E320E0C60F9EF1CF0FBEFDF
:1039F0001CF06AEF1DF07CAE00EF1DF004EF1DF02F
:103A00000B6A0B2A05EF1DF00B6A0B320B327C5050
:103A10000B187F0B0B187C6E80A611EF1DF015EFB5
:103A20001DF00B6A0B2A16EF1DF00B6A0B460B46B6
:103A30000B4680500B18F70B0B18806E7CA623EFFB
:103A40001DF027EF1DF00B6A0B2A28EF1DF00B6A03
:103A50000B460B460B467C500B18F70B0B187C6E75
:103A60007CA835EF1DF039EF1DF00B6A0B2A3AEFF9
:103A70001DF00B6A0B3A7C500B18EF0B0B187C6E89
:103A80007EA045EF1DF049EF1DF00B6A0B2A4AEFAF
:103A90001DF00B6A7E500B18FE0B0B187E6E80A07B
:103AA00054EF1DF058EF1DF00B6A0B2A59EF1DF073
:103AB0000B6A80500B18FE0B0B18806E20EC1EF06A
:103AC000680E0B6EE40EE82EFED70B2EFCD700D04E
:103AD000FBEF1CF01200000E146E12BE74EF1DF00E
:103AE00072EF1DF07AEF1DF0116C121ED8B0122A81
:103AF000010E146E10BE81EF1DF07FEF1DF087EFF9
:103B00001DF00F6C101ED8B0102A010E141A000EF2
:103B1000166E000E156E11501210D8B492EF1DF0F3
:103B200094EF1DF0BCEF1DF0010E136E9CEF1DF025
:103B3000D89011361236132A12AEA1EF1DF0A3EF62
:103B40001DF098EF1DF0D8901536163611500F5C09
:103B500012501058D8A0AFEF1DF0B1EF1DF0B6EF26
:103B60001DF011500F5E1250105A1580D89012326D
:103B70001132132EA3EF1DF01450D8B4C2EF1DF074
:103B8000C4EF1DF0C8EF1DF0156C161ED8B0162A34
:103B900015C00FF016C010F012008EA4D2EF1DF069
:103BA000D4EF1DF0DBEF1DF08EB6D9EF1DF0DBEF8B
:103BB0001DF0CDEF1DF08EB4E0EF1DF0E2EF1DF033
:103BC000E3EF1DF07C8E8EB6E8EF1DF0EAEF1DF0FE
:103BD000EBEF1DF080867C86010E6EEC21F0520E1C
:103BE000176E2B0E166E000EE82EFED7162EFCD783
:103BF000172EFAD700D0180E146E000E156E71EC49
:103C00001FF0520E176E2B0E166E000EE82EFED70A
:103C1000162EFCD7172EFAD700D07C96000E6EEC2D
:103C200021F07C9E80966A0E1E24556EFF0E1F208A
:103C3000566E640E1E24536E000E1F20546E12002A
:103C40007F82020E0A6EA00E096E920EE82EFED73B
:103C5000092EFCD70A2EFAD700D07F92020E0A6EE8
:103C6000A00E096E920EE82EFED7092EFCD70A2E62
:103C7000FAD700D07988020E0A6EA00E096E920E55
:103C8000E82EFED7092EFCD70A2EFAD700D0799855
:103C9000020E0A6EA00E096E920EE82EFED7092EB5
:103CA000FCD70A2EFAD700D07E8E020E0A6EA00E26
:103CB000096E920EE82EFED7092EFCD70A2EFAD7EF
:103CC00000D07E9E020E0A6EA00E096E920EE82EA5
:103CD000FED7092EFCD70A2EFAD700D0120020EE0C
:103CE00001F02250D9262350DA22000EDF6E20EE9A
:103CF00001F02450D9262550DA22000EDF6E9DEF08
:103D00001EF022C0D9FF23C0DAFF0A0EDF2624C02E
:103D1000D9FF25C0DAFF0A0EDF2622C017F023C024
:103D200018F013EC18F024C017F025C018F013ECAD
:103D300018F0A00E00D0E82EFDD722C0D9FF23C076
:103D4000DAFF320EDF60A7EF1EF0A9EF1EF0B5EF2D
:103D50001EF024C0D9FF25C0DAFF310EDF64B3EFB7
:103D60001EF0B5EF1EF081EF1EF0120020EE01F004
:103D70002250D9262350DA22010EDF6E20EE01F008
:103D80002450D9262550DA22010EDF6EE4EF1EF012
:103D900022C0D9FF23C0DAFF0A0EDF2624C0D9FFD4
:103DA00025C0DAFF0A0EDF2622C017F023C018F064
:103DB00013EC18F024C017F025C018F013EC18F01D
:103DC000A00E00D0E82EFDD722C0D9FF23C0DAFF15
:103DD000140EDF60EEEF1EF0F0EF1EF0FCEF1EF0B1
:103DE00024C0D9FF25C0DAFF130EDF64FAEF1EF0FE
:103DF000FCEF1EF0C8EF1EF012007C881CEF1FF0D5
:103E000022C0D9FF23C0DAFF0A0EDF5E24C0D9FF2B
:103E100025C0DAFF0A0EDF5E22C017F023C018F0BB
:103E200013EC18F024C017F025C018F013EC18F0AC
:103E3000A00E00D0E82EFDD722C0D9FF23C0DAFFA4
:103E4000DF50D8B426EF1FF028EF1FF034EF1FF03B
:103E500024C0D9FF25C0DAFFDF50D8A432EF1FF00D
:103E600034EF1FF000EF1FF0290E276E960E266E1E
:103E70007F0EE82EFED7262EFCD7272EFAD700F08D
:103E80007C9812007C9628C022F029C023F02AC01A
:103E900024F02BC025F06FEC1EF01D0E2D6E690E68
:103EA0002C6EA50EE82EFED72C2EFCD72D2EFAD781
:103EB00000F028C022F029C023F02AC024F02BC033
:103EC00025F0FDEC1EF0520E2D6E2B0E2C6E000E0A
:103ED000E82EFED72C2EFCD72D2EFAD700D07C96BC
:103EE0001200A0EC1FF014C0D9FF15C0DAFF0DC0FE
:103EF000DEFF0EC0DDFFC8EC1FF020EE02F0145014
:103F0000D9261550DA220DC0DEFF0EC0DDFF18ECF9
:103F100020F020EE04F01450D9261550DA220DC0FE
:103F2000DEFF0EC0DDFFF0EC1FF020EE06F01450B7
:103F3000D9261550DA220DC0DEFF0EC0DDFF1200BB
:103F40002CEC22F0520E15EC22F0B60E15EC22F0FD
:103F500031EC22F0530E15EC22F0010EB6EC20F0FD
:103F60000F6E0F50126E136A000EB6EC20F00F6E3B
:103F70000F50116E106A12501010126E1350111063
:103F8000136E27EC22F012C00DF013C00EF01200D9
:103F90002CEC22F0520E15EC22F0B80E15EC22F0AB
:103FA00031EC22F0530E15EC22F0010EB6EC20F0AD
:103FB0000F6E0F50126E136A000EB6EC20F00F6EEB
:103FC0000F50116E106A12501010126E1350111013
:103FD000136E27EC22F012C00DF013C00EF0120089
:103FE0002CEC22F0520E15EC22F0B40E15EC22F05F
:103FF00031EC22F0530E15EC22F0010EB6EC20F05D
:104000000F6E0F50126E136A000EB6EC20F00F6E9A
:104010000F50116E106A12501010126E13501110C2
:10402000136E27EC22F012C00DF013C00EF0120038
:104030002CEC22F0520E15EC22F0BA0E15EC22F008
:1040400031EC22F0530E15EC22F0010EB6EC20F00C
:104050000F6E0F50126E136A000EB6EC20F00F6E4A
:104060000F50116E106A12501010126E1350111072
:10407000136E27EC22F012C00DF013C00EF01200E8
:10408000096EBD508F0B4009BD6EE00EBE16BF50CD
:10409000F00B0109BF6E09C0BCFFBD8E85948598E9
:1040A000839E879C7D947D987B9E7F9C000EA36E53
:1040B000000EA06EA48EA18E0A0E0E01746F0B0E60
:1040C000696F1BEC22F036EC22F003EC22F01200B8
:1040D000130E0B6E000EA0EC21F03F0E0D6E550E70
:1040E000E82EFED70D2EFCD700F0040E0B6E0C0E42
:1040F000A0EC21F055C00BF0040EA0EC21F05650BE
:104100000B6E050EA0EC21F053C00BF0060EA0ECD8
:1041100021F054500B6E070EA0EC21F01200130E8C
:10412000036E000EC0EC21F03F0E056E550EE82E1A
:10413000FED7052EFCD700F0040E036E0C0EC0EC6B
:1041400021F055C003F0040EC0EC21F05650036E70
:10415000050EC0EC21F053C003F0060EC0EC21F0B8
:104160005450036E070EC0EC21F012000B6E21ECD0
:1041700021F00E01DA8721EC21F0D5CE0CF021ECF4
:1041800021F00B50D8B4C7EF20F0CBEF20F00A6A33
:104190000A2ACCEF20F00A6A0A3A0A460E01DA51DE
:1041A0000A18DF0B0A18DA6FDA890C5012000CECCF
:1041B00021F0010E0B6E000EA0EC21F03F0E0D6EF3
:1041C000550EE82EFED70D2EFCD700F0030E0B6E19
:1041D000000EA0EC21F0D50E0B6E010EA0EC21F02C
:1041E0000EEC22F0120001EE00F0280EEE6AE80656
:1041F000FDE100EEB3F02F0EEE6AE806FDE1566A2F
:10420000556A546A536A57905792000EF86E0E0E14
:10421000F76E0001C6EF14F00E01D951F00B08093A
:10422000D96FD98B9F0ED66F848A848CA79BA79D4C
:104230001D0E1D6F1E0E1C6F1C0E6F6F1B0E706F00
:1042400012000E01D8B527EF21F029EF21F021EF60
:1042500021F0DACE09F01F0E0916D8A432EF21F0B2
:1042600034EF21F021EF21F012000E01D8B53BEF21
:1042700021F03DEF21F035EF21F0DACE01F01F0EF5
:104280000116D8A446EF21F048EF21F035EF21F0D8
:10429000120009500B02F3CF0DF0F4CF0EF00950CD
:1042A0000C02F3500E260A500B02F3500E260DC0DE
:1042B00009F00EC00AF0120082820E019A93090ED4
:1042C0000D01F16F0E012983298B1F831F9BD0ECF9
:1042D00021F0F292F28AF28CF28E1200096E09B08D
:1042E00002D07F9201D07F8209B002D0799801D0AC
:1042F000798809B002D07E9E01D07E8E12000E0118
:1043000033A385EF21F087EF21F08EEF21F0010E2E
:104310000001DF6FEAEC21F00E0133935792110098
:10432000D6501F0B4009D66ED688D650F00B050923
:10433000D66ED5883C0ED46EAF0ED36ED58E1200DD
:104340000C6E2CEC22F0520E15EC22F00C50800971
:1043500015EC22F00B5015EC22F027EC22F01200A5
:10436000120E0E01626F110E156F8382E997E895A8
:10437000330EE56F000EE66FE789E88BE78F1200DA
:10438000046E40EC22F0520E21EC22F00450800921
:1043900021EC22F0035021EC22F03BEC22F0120041
:1043A0002CEC22F0520E15EC22F0E60E15EC22F069
:1043B00027EC22F068EC20F01200868C0E01B48D00
:1043C0000F015899FC0E58172E0E5F6F609460888D
:1043D000608E120040EC22F0520E21EC22F0E60E2C
:1043E00021EC22F03BEC22F08FEC20F012006080F8
:1043F00060B0FDEF21F0FFEF21F0F8EF21F064CF86
:1044000009F00950120088928496849886908890CA
:1044100080927C967C987E90809012008792819802
:10442000869E000E6EEC21F012000A6E21EC21F047
:104430000AC0D5FE1200868486860E01B495B49714
:104440001200026E35EC21F002C0D5FE120021EC04
:1044500021F00E01DA85120021EC21F00E01DA8143
:10446000120021EC21F00E01DA831200849E88965E
:104470007C9E8096120035EC21F00E01DA85120048
:0A44800035EC21F00E01DA81120084
:020000040020DA
:10000000FF0FFF0FFF0FFF0FFF0FFF0FFF0FFF0F80
:020000040030CA
:0C000000AAFFFFFF9FFFFFFFFFFFFFFFB5
:00000001FF
