:0400000030EF00F0ED
:0600080056827EEF2FF08E
:100018005680D8CF07F0E8CF08F0E0CF09F00E01FE
:1000280033AB19EF00F01BEF00F028EF00F0010EE2
:100038000101E56F010E0001F46F0B0ED46EDB0EAB
:10004800D36E0E01339B299B09C0E0FF08C0E8FF6F
:0C00580007C0D8FF569010002EEF2DF0CE
:100E000000524742433A2025692025692025692060
:100E100025692020202020524742435F72656C3AAA
:100E200020252E336620252E336620252E3366207E
:100E300020202020436F6C6F75723A2025730A0DB5
:100E400000524742433A2025692025692025692020
:100E5000256920202020205468726573686F6C64B7
:100E60003A2025692025692025690A0D006C6967EB
:100E7000687420626C756500756E6B6E6F776E00BE
:100E80006F72616E67650079656C6C6F770077686B
:100E900069746500677265656E0070696E6B004904
:100EA0004E46004E414E00696E66006E616E0072E5
:070EB0006564006C660000A0
:100EB800000E0001876F000E866F62C098F063C055
:100EC80099F064C09AF065C09BF09BBF70EF07F083
:100ED8006EEF07F086EF07F0000E876F010E866F42
:100EE80098C00AF099C00BF09AC00CF09BC00DF0A6
:100EF80019EC30F00AC098F00BC099F00CC09AF0C9
:100F08000DC09BF0000E00019F6F000E9E6FD9C1AF
:100F18008AF0DAC18BF086518711D8A496EF07F0D2
:100F280098EF07F09FEF07F04FA49DEF07F09FEFB2
:100F380007F0B9EF07F086518711D8A4A6EF07F09C
:100F4800A8EF07F0AEEF07F0000E6D6F2B0E6C6F79
:100F5800B2EF07F0000E6D6F2D0E6C6F6CC000F2D3
:100F68009E4B9F2B8A07D8A08B0798C00AF099C080
:100F78000BF09AC00CF09BC00DF067EC28F00A0447
:100F88000B10D8A4CAEF07F0CCEF07F023EF08F056
:100F9800BF0E0001676FFF0E686F6651696F6A6B5D
:100FA8006751692768516A236A510AE11A0E695D17
:100FB800D8A0E1EF07F0E4EF07F0010EE5EF07F046
:100FC800000E6E6F6F6B6E516F11D8B4EEEF07F0B5
:100FD800F0EF07F0FEEF07F0000E9E250A6E020EF6
:100FE8009F210B6E9F0E0C6E0E0E0D6ED0EC2CF02A
:100FF8000AEF08F0000E9E250A6E020E9F210B6E66
:10100800A70E0C6E0E0E0D6ED0EC2CF00001FD0E2E
:101018008A27FF0E8B2360C01AF061C01BF0000EF8
:101028001C6E020E1D6E8AC01EF08BC01FF088EC6D
:101038002AF01AC060F01BC061F088EF0DF098C06C
:101048000AF099C00BF09AC00CF09BC00DF067EC49
:1010580028F00A500B10D8A434EF08F036EF08F047
:1010680076EF08F0BF0E0001676FFF0E686F6651DC
:10107800696F6A6B6751692768516A236A510AE187
:101088001A0E695DD8A04BEF08F04EEF08F0010E7C
:101098004FEF08F0000E706F716B70517111D8B47A
:1010A80058EF08F05AEF08F068EF08F0000E9E2598
:1010B8000A6E020E9F210B6EA30E0C6E0E0E0D6EA5
:1010C800D0EC2CF00AEF08F0000E9E250A6E020EF6
:1010D8009F210B6EAB0E0C6E0E0E0D6ED0EC2CF02D
:1010E8000AEF08F0000E0001A06F000EA16F800E3D
:1010F800A26F3F0EA36F000E9D6F000E9C6F98C0ED
:101108000AF099C00BF09AC00CF09BC00DF0000ECD
:101118000E6E000E0F6E000E106E000E116E41EC7A
:101128002BF0D8B09AEF08F09CEF08F01FEF09F009
:10113800BBEF08F0A0C018F0A1C019F0A2C01AF0C7
:10114800A3C01BF0000E1C6E000E1D6E200E1E6E3E
:10115800410E1F6EAAEC16F018C0A0F019C0A1F03D
:101168001AC0A2F01BC0A3F000019C4B9D2B98C095
:1011780031F099C032F09AC033F09BC034F0000EC1
:101188001C6E000E1D6E200E1E6E410E1F6EA0C03E
:1011980018F0A1C019F0A2C01AF0A3C01BF0AAEC65
:1011A80016F018C035F019C036F01AC037F01BC059
:1011B80038F0E5EC27F0D8B0E4EF08F0E6EF08F0F7
:1011C8009EEF08F006EF09F0A0C018F0A1C019F0D2
:1011D800A2C01AF0A3C01BF0000E1C6E000E1D6EFC
:1011E800200E1E6E410E1F6EBFEC18F018C0A0F046
:1011F80019C0A1F01AC0A2F01BC0A3F000019C07FF
:10120800D8A09D0798C031F099C032F09AC033F049
:101218009BC034F0A0C035F0A1C036F0A2C037F0B2
:10122800A3C038F0E5EC27F0D8A01DEF09F01FEFB8
:1012380009F0E8EF08F066C010F0116AA0EC2CF095
:10124800105000018D6F8DC08CF0670E8D19D8A4D9
:1012580030EF09F032EF09F058EF09F04D504E1019
:10126800D8A439EF09F03BEF09F03FEF09F0000E81
:101278004E6E010E4D6E4EBE4CEF09F04E5006E11B
:101288004D04D8B04AEF09F04CEF09F052EF09F0DD
:10129800000E896F060E886F61EF09F04DC088F067
:1012A8004EC089F061EF09F04EBE5DEF09F05FEFC7
:1012B80009F04CEF09F052EF09F0670E8D19D8A428
:1012C80068EF09F06AEF09F099EF09F09DAF78EF40
:1012D80009F0FC0E9C5DFF0E9D59D8A076EF09F031
:1012E80078EF09F097EF09F0FF0E676FFF0E686F50
:1012F80088C069F089C06AF06751692768516A2314
:101308009C51695D6A51800A6B6F9D51800A6B59C7
:10131800D8A091EF09F093EF09F097EF09F0660E66
:101328008C6F99EF09F0650E8C6F88C07EF089C0CC
:101338007FF0670E8D19D8A4A4EF09F0A6EF09F085
:10134800B6EF09F0660E8C19D8A4ADEF09F0AFEF2F
:1013580009F0B8EF09F09DBFB6EF09F0B4EF09F056
:10136800B8EF09F07E4B7F2B660E8C19D8A4BFEF1F
:1013780009F0C1EF09F0E1EF09F09DBFC8EF09F0EE
:10138800C6EF09F0D4EF09F0000EA06F000EA16FB0
:10139800800EA26F3F0EA36F000E9D6F000E9C6F14
:1013A800670E8D19D8B4DBEF09F0DDEF09F0E1EF36
:1013B80009F09C517E279D517F23000E976F000EE8
:1013C800966F98C08EF099C08FF09AC090F09BC02D
:1013D80091F0A0C080F0A1C081F0A2C082F0A3C0AB
:1013E80083F072EF0AF08EC018F08FC019F090C029
:1013F8001AF091C01BF0A0C01CF0A1C01DF0A2C043
:101408001EF0A3C01FF0BFEC18F018C031F019C0CF
:1014180032F01AC033F01BC034F0FBEC1BF031C0C3
:1014280092F032C093F033C094F034C095F092C07B
:101438000AF093C00BF094C00CF095C00DF062EC6C
:1014480027F00AC084F00BC085F08EC041F08FC031
:1014580042F090C043F091C044F0A0C01CF0A1C07D
:101468001DF0A2C01EF0A3C01FF092C018F093C0D8
:1014780019F094C01AF095C01BF0AAEC16F018C029
:1014880045F019C046F01AC047F01BC048F039ECC7
:101498002FF041C08EF042C08FF043C090F044C09E
:1014A80091F0A0C018F0A1C019F0A2C01AF0A3C012
:1014B8001BF0000E1C6E000E1D6E200E1E6E410EDF
:1014C8001F6EBFEC18F018C0A0F019C0A1F01AC028
:1014D800A2F01BC0A3F00001964B972B7E51965D9E
:1014E8009751800A676F7F51800A6759D8A07FEFAC
:1014F8000AF081EF0AF0F7EF09F0A0C018F0A1C0D8
:1015080019F0A2C01AF0A3C01BF0000E1C6E000E4A
:101518001D6EA00E1E6E400E1F6EAAEC16F018C0AF
:1015280092F019C093F01AC094F01BC095F08EC0C9
:1015380031F08FC032F090C033F091C034F092C0D7
:1015480035F093C036F094C037F095C038F0E5EC2C
:1015580027F0D8B0B2EF0AF0B4EF0AF0BFEF0AF004
:10156800000E0001926F000E936F000E946F000E34
:10157800956FE8EF0AF08EC00AF08FC00BF090C0AC
:101588000CF091C00DF092C00EF093C00FF094C013
:1015980010F095C011F041EC2BF0D8A0D6EF0AF06E
:1015A800D8EF0AF0E8EF0AF0000184B1DEEF0AF0A4
:1015B800E0EF0AF0E8EF0AF0000E926F000E936F6A
:1015C800000E946F000E956F98C031F099C032F0FC
:1015D8009AC033F09BC034F092C035F093C036F017
:1015E80094C037F095C038F04AEC14F031C08EF052
:1015F80032C08FF033C090F034C091F08EC031F01B
:101608008FC032F090C033F091C034F0000E1C6EE1
:10161800000E1D6E200E1E6E410E1F6E80C018F04B
:1016280081C019F082C01AF083C01BF0AAEC16F032
:1016380018C035F019C036F01AC037F01BC038F0A2
:10164800E5EC27F0D8A02BEF0BF02DEF0BF056EFC1
:101658000BF000019C4B9D2B80C018F081C019F045
:1016680082C01AF083C01BF0000E1C6E000E1D6EA7
:10167800200E1E6E410E1F6EAAEC16F018C080F0E8
:1016880019C081F01AC082F01BC083F0660E0001F9
:101698008C19D8A452EF0BF054EF0BF056EF0BF067
:1016A8007E4B7F2B80C0A0F081C0A1F082C0A2F049
:1016B80083C0A3F0650E00018C19D8B466EF0BF057
:1016C80068EF0BF06EEF0BF09CC07CF09DC07DF0D6
:1016D80072EF0BF0000E7D6F000E7C6F000E7B6FBB
:1016E800000E7A6F000E796F000E786F000E976FFC
:1016F800000E966F6EEF0CF08EC018F08FC019F0C8
:1017080090C01AF091C01BF0A0C01CF0A1C01DF041
:10171800A2C01EF0A3C01FF0BFEC18F018C031F033
:1017280019C032F01AC033F01BC034F0FBEC1BF0C8
:1017380031C092F032C093F033C094F034C095F0C9
:1017480092C00AF093C00BF094C00CF095C00DF055
:1017580062EC27F00AC084F00BC085F04FB8B7EFF1
:101768000BF0B9EF0BF0D7EF0BF0000184518511A6
:10177800D8A4C1EF0BF0C3EF0BF0D7EF0BF0670E57
:101788008D19D8A4CAEF0BF0CCEF0BF0D7EF0BF004
:101798007DBFD3EF0BF0D1EF0BF0D7EF0BF0784B09
:1017A800792B22EF0CF000017A517B11D8A4DFEFDE
:1017B8000BF0E1EF0BF00BEF0CF07DBFE8EF0BF057
:1017C800E6EF0BF00BEF0CF0000E9E25D96E020E23
:1017D8009F21DA6E2E0EDF6E9E4B9F2B8A07D8A0B4
:1017E8008B07000E7B6F010E7A6F0BEF0CF0000E6B
:1017F8009E25D96E020E9F21DA6E300EDF6E9E4B4B
:101808009F2B8A07D8A08B077807D8A0790778512B
:101818007911D8A412EF0CF014EF0CF0FBEF0BF0D9
:10182800000E9E25D96E020E9F21DA6E8451300F6C
:10183800DF6E9E4B9F2B8A07D8A08B078EC041F086
:101848008FC042F090C043F091C044F0A0C01CF09B
:10185800A1C01DF0A2C01EF0A3C01FF092C018F0D6
:1018680093C019F094C01AF095C01BF0AAEC16F0BA
:1018780018C045F019C046F01AC047F01BC048F020
:1018880039EC2FF041C08EF042C08FF043C090F089
:1018980044C091F0A0C018F0A1C019F0A2C01AF07D
:1018A800A3C01BF0000E1C6E000E1D6E200E1E6ED7
:1018B800410E1F6EBFEC18F018C0A0F019C0A1F0BF
:1018C8001AC0A2F01BC0A3F000017C07D8A07D07B6
:1018D800964B972B7E51965D9751800A676F7F5183
:1018E800800A6759D8B07BEF0CF07DEF0CF08BEFD6
:1018F8000CF09FBF89EF0CF09F5109E14B0E9E5DE4
:10190800D8A089EF0CF08BEF0CF080EF0BF07A5138
:101918007B11D8A492EF0CF094EF0CF0A5EF0CF02B
:101928004FA899EF0CF09BEF0CF0A5EF0CF0000E10
:101938009E25D96E020E9F21DA6E2E0EDF6E9E4B0B
:101948009F2B000E9E25D96E020E9F21DA6E000E87
:10195800DF6E650E8C19D8A4B4EF0CF0B6EF0CF05E
:101968000FEF08F0000E976F4F0E966F000E96253A
:10197800D96E020E9721DA6E000EDF6E000E876FA9
:10198800000E866F9DBFCDEF0CF0CBEF0CF0D5EFBE
:101998000CF0000E876F010E866F9C6D9D1FD8B0EE
:1019A8009D2B000E896F020E886F06EF0DF09607CB
:1019B800D8A09707000E9625D96E020E9721DA6EE9
:1019C8009CC00AF09DC00BF0000E0D6E0A0E0C6E46
:1019D800E9EC2AF00A50300FDF6E9CC010F09DC071
:1019E80011F0000E136E0A0E126E26EC2AF010C0CB
:1019F8009CF011C09DF000018807D8A089078A07CC
:101A0800D8A08B079C519D11D8A40DEF0DF00FEFB6
:101A18000DF0DBEF0CF089BF1CEF0DF0895106E1EA
:101A28008805D8B01AEF0DF01CEF0DF0DBEF0CF0C5
:101A38009607D8A0970786518711D8A426EF0DF0EE
:101A480028EF0DF02EEF0DF0000E736F2B0E726F56
:101A580032EF0DF0000E736F2D0E726F000E96258B
:101A6800D96E020E9721DA6E72C0DFFF8A07D8A0FE
:101A78008B079607D8A09707BF0E676FFF0E686F92
:101A88006651696F6A6B6751692768516A236A51A1
:101A98000AE11A0E695DD8A054EF0DF057EF0DF06A
:101AA800010E58EF0DF0000E766F776B76517711B7
:101AB800D8A461EF0DF063EF0DF069EF0DF0000EA3
:101AC800756F650E746F6DEF0DF0000E756F450E36
:101AD800746F000E9625D96E020E9721DA6E74C0C7
:101AE800DFFF8A07D8A08B07000E9E250A6E020E1C
:101AF8009F210B6E000E96250C6E020E97210D6E1F
:101B0800D0EC2CF00FEF08F012000E01299370C0F2
:101B180015F071C016F0FFEC2CF070C031F071C0F8
:101B280032F0760E336E000E346EDBEC22F0710E5E
:101B3800316E3D0E326E0A0E336E3F0E346E76C035
:101B480035F077C036F078C037F079C038F0E5EC7A
:101B580027F0D8B0B2EF0DF0B4EF0DF04AEF0EF069
:101B68007AC031F07BC032F07CC033F07DC034F0F5
:101B7800480E356EE10E366E7A0E376E3E0E386EB2
:101B8800E5EC27F0D8B0CBEF0DF0CDEF0DF04AEF34
:101B98000EF07EC031F07FC032F080C033F081C0DB
:101BA80034F0EC0E356E510E366E380E376E3E0E32
:101BB800386EE5EC27F0D8B0E4EF0DF0E6EF0DF065
:101BC8004AEF0EF070C017F071C018F0030E196ECE
:101BD80048EC24F070C031F071C032F0760E336EEC
:101BE800000E346EDBEC22F07EC031F07FC032F0A4
:101BF80080C033F081C034F0290E356E5C0E366E2D
:101C08000F0E376E3F0E386EE5EC27F0D8B00FEFA9
:101C18000EF011EF0EF02FEF0EF072C06AF073C0E5
:101C28006BF074C06CF075C06DF0000E00016F6F42
:101C3800870E6E6F9BEC2EF072C023F073C024F0F9
:101C480074C025F075C026F024EC2CF0000E0101BC
:101C5800E36F51EF11F072C06AF073C06BF074C09B
:101C68006CF075C06DF0000E00016F6F5A0E6E6F4C
:101C78009BEC2EF072C023F073C024F074C025F0E2
:101C880075C026F024EC2CF02AEF0EF076C031F067
:101C980077C032F078C033F079C034F0AE0E356ECC
:101CA800470E366EE10E376E3E0E386EE5EC27F0C5
:101CB800D8B061EF0EF063EF0EF05CEF0FF09A0E04
:101CC800316E990E326E990E336E3E0E346E7AC0B6
:101CD80035F07BC036F07CC037F07DC038F0E5ECDD
:101CE80027F0D8B07AEF0EF07CEF0EF05CEF0FF033
:101CF800140E316EAE0E326E470E336E3E0E346EDB
:101D08007EC035F07FC036F080C037F081C038F033
:101D1800E5EC27F0D8B093EF0EF095EF0EF05CEFFE
:101D28000FF070C017F071C018F0030E196E48EC70
:101D380024F070C031F071C032F0760E336E000EB0
:101D4800346EDBEC22F076C031F077C032F078C028
:101D580033F079C034F0660E356E660E366E260E98
:101D6800376E3F0E386EE5EC27F0D8B0BEEF0EF0B8
:101D7800C0EF0EF0F4EF0EF01F0E316E850E326ECE
:101D88002B0E336E3F0E346E7EC035F07FC036F0BA
:101D980080C037F081C038F0E5EC27F0D8B0D7EF35
:101DA8000EF0D9EF0EF0F4EF0EF072C06AF073C0C7
:101DB8006BF074C06CF075C06DF0000E00016F6FB1
:101DC800B40E6E6F9BEC2EF072C023F073C024F03B
:101DD80074C025F075C026F024EC2CF02AEF0EF024
:101DE80076C031F077C032F078C033F079C034F083
:101DF800EC0E356E510E366EB80E376E3D0E386EDF
:101E0800E5EC27F0D8B00BEF0FF00DEF0FF041EF36
:101E18000FF0520E316EB80E326E1E0E336E3F0E3C
:101E2800346E7EC035F07FC036F080C037F081C098
:101E380038F0E5EC27F0D8B024EF0FF026EF0FF0DC
:101E480041EF0FF072C06AF073C06BF074C06CF0B1
:101E580075C06DF0000E00016F6F5A0E6E6FC3EC07
:101E68002EF072C023F073C024F074C025F075C042
:101E780026F024EC2CF02AEF0EF072C06AF073C042
:101E88006BF074C06CF075C06DF0000E00016F6FE0
:101E9800870E6E6FC3EC2EF072C023F073C024F06F
:101EA80074C025F075C026F024EC2CF02AEF0EF053
:101EB800480E316EE10E326EFA0E336E3E0E346EFF
:101EC80076C035F077C036F078C037F079C038F092
:101ED800E5EC27F0D8B073EF0FF075EF0FF0E2EFF5
:101EE8000FF0850E316EEB0E326E910E336E3E0E94
:101EF800346E7AC035F07BC036F07CC037F07DC0D8
:101F080038F0E5EC27F0D8B08CEF0FF08EEF0FF03B
:101F1800E2EF0FF0EC0E316E510E326E380E336E6A
:101F28003E0E346E7EC035F07FC036F080C037F08C
:101F380081C038F0E5EC27F0D8B0A5EF0FF0A7EF97
:101F48000FF0E2EF0FF072C023F073C024F074C0FA
:101F580025F075C026F096EC2BF072C023F073C004
:101F680024F074C025F075C026F024EC2CF0090E7E
:101F7800496E1E0E486EE40EE82EFED7482EFCD79A
:101F8800492EFAD700D072C06AF073C06BF074C0E3
:101F98006CF075C06DF0000E00016F6F5A0E6E6F19
:101FA8009BEC2EF072C023F073C024F074C025F0AF
:101FB80075C026F024EC2CF02AEF0EF0480E316E96
:101FC800E10E326EFA0E336E3E0E346E76C035F088
:101FD80077C036F078C037F079C038F0E5EC27F0F4
:101FE800D8B0F9EF0FF0FBEF0FF05EEF10F07AC00A
:101FF80031F07BC032F07CC033F07DC034F0CD0EC0
:10200800356ECC0E366E8C0E376E3E0E386EE5ECA5
:1020180027F0D8B012EF10F014EF10F05EEF10F0C8
:10202800140E316EAE0E326E470E336E3E0E346EA7
:102038007EC035F07FC036F080C037F081C038F000
:10204800E5EC27F0D8B02BEF10F02DEF10F05EEF95
:1020580010F072C023F073C024F074C025F075C06E
:1020680026F096EC2BF072C023F073C024F074C0F5
:1020780025F075C026F024EC2CF0090E496E1E0ED2
:10208800486EE40EE82EFED7482EFCD7492EFAD724
:1020980000D072C06AF073C06BF074C06CF075C089
:1020A8006DF0000E00016F6F5A0E6E6FC3EC2EF0CC
:1020B800D6EF0FF076C031F077C032F078C033F049
:1020C80079C034F01F0E356E850E366EEB0E376E06
:1020D8003E0E386EE5EC27F0D8B075EF10F077EFCC
:1020E80010F0CAEF10F03D0E316E0A0E326E970EE8
:1020F800336E3E0E346E7AC035F07BC036F07CC04D
:1021080037F07DC038F0E5EC27F0D8B08EEF10F04E
:1021180090EF10F0CAEF10F03D0E316E0A0E326EDD
:10212800570E336E3E0E346E7EC035F07FC036F0EB
:1021380080C037F081C038F0E5EC27F0D8B0A7EFC1
:1021480010F0A9EF10F0CAEF10F072C06AF073C077
:102158006BF074C06CF075C06DF0000E00016F6F0D
:10216800B40E6E6F9BEC2EF072C023F073C024F097
:1021780074C025F075C026F024EC2CF0000E010187
:10218800E36F010E0001F46F51EF11F0520E496E2A
:102198002B0E486E000EE82EFED7482EFCD7492E8F
:1021A800FAD700D072C023F073C024F074C025F0B1
:1021B80075C026F0DDEC2BF0D00E486ECA0EE82E66
:1021C800FED7482EFCD772C023F073C024F074C029
:1021D80025F075C026F024EC2CF070C015F071C005
:1021E80016F0FFEC2CF0000120EE06F07051D92615
:1021F8007151DA225150DE5C5250DE58D8A007EFF8
:1022080011F009EF11F01AEF11F020EE06F07051FD
:10221800D9267151DA22DE50545CDE505558D8B0B8
:1022280018EF11F01AEF11F02AEF0EF0030E01016A
:10223800E36121EF11F023EF11F029EF11F00E0106
:1022480033830101E32B51EF11F0808672C06AF0ED
:1022580073C06BF074C06CF075C06DF0000E0001B7
:102268006F6FB40E6E6F9BEC2EF072C023F073C0CC
:1022780024F074C025F075C026F024EC2CF0000181
:10228800F451D8B44AEF11F04DEF11F0010E4EEFB2
:1022980011F0000EF46F2AEF0EF00E0129831200E0
:1022A800A6C0D9FFA7C0DAFFDECFF6FFDDCFF7FF64
:1022B800000EF86E0800F550250AD8A466EF11F054
:1022C80068EF11F02CEF14F0A6C0D9FFA7C0DAFF11
:1022D800DE2A000EDD22000E0101DA6F000ED96F32
:1022E800D9C14FF0DAC150F04D684E68A6C0D9FF89
:1022F800A7C0DAFFDECFF6FFDDCFF7FF000EF86EDE
:102308000800F5502E0AD8A48CEF11F08EEF11F0CA
:1023180010EF12F0000E4E6E000E4D6EA6C0D9FFE3
:10232800A7C0DAFFDE2A000EDD22A6C0D9FFA7C0AB
:10233800DAFFDECFF6FFDDCFF7FF000EF86E0800FC
:10234800F5502A0AD8A4ABEF11F0ADEF11F0CAEF9F
:1023580011F0A6C0D9FFA7C0DAFFDE2A000EDD22E1
:10236800A8C0D9FFA9C0DAFFDFCF49F0020EDE26E8
:10237800DFCF4AF0000EDD2249C0D9FF4AC0DAFF9C
:10238800DECF4DF0DDCF4EF010EF12F0A6C0D9FF32
:10239800A7C0DAFFDECF11F0DDCF12F0B5EC1FF0E9
:1023A80011C04DF012C04EF0E1EF11F0A6C0D9FFF8
:1023B800A7C0DAFFDE2A000EDD22D00E496EFF0E1E
:1023C8004A6EA6C0D9FFA7C0DAFFDECFF6FFDDCF81
:1023D800F7FF000EF86E0800F5504B6E4C6A495036
:1023E8004B264A504C224C500AE10A0E4B5CD8A0AE
:1023F80000EF12F003EF12F0010E04EF12F0000EDE
:102408000001B46FB56BB451B511D8A40EEF12F03A
:1024180010EF12F0DAEF11F0A6C0D9FFA7C0DAFF6B
:10242800DECFF6FFDDCFF7FF000EF86E0800F5509F
:10243800106E116AA0EC2CF010500001BC6FBC515A
:10244800D8B429EF12F02BEF12F069EF12F0A6C002
:10245800D9FFA7C0DAFFDECF49F0DDCF4AF0010E81
:102468004926000E4A2249C0F6FF4AC0F7FF000E6F
:10247800F86E0800F550106E116AA0EC2CF01050A0
:102488000001BD6FBD51D8B44CEF12F04EEF12F001
:1024980069EF12F0A6C0D9FFA7C0DAFFDECF49F076
:1024A800DDCF4AF0020E4926000E4A2249C0F6FF47
:1024B8004AC0F7FF000EF86E0800F550106E116A5A
:1024C800A0EC2CF010500001BE6FA6C0D9FFA7C029
:1024D800DAFFDECFF6FFDDCFF7FF000EF86E08005B
:1024E800F550640AD8B47BEF12F07DEF12F091EF4B
:1024F80012F0A6C0D9FFA7C0DAFFDECFF6FFDDCF06
:10250800F7FF000EF86E0800F550690AD8A48FEF9F
:1025180012F091EF12F0D1EF12F0A6C0D9FFA7C0C8
:10252800DAFFDE2A000EDD22A8C0D9FFA9C0DAFF33
:10253800DFCF49F0020EDE26DFCF4AF0000EDD22A3
:1025480049C0D9FF4AC0DAFFDECFAAF0DDCFABF031
:10255800000EABBFFF0EAC6FAD6FAE6FAF6FB06F5D
:10256800B16FA4C025F0A5C026F0AAC027F0ABC063
:1025780028F0ACC029F0ADC02AF0AEC02BF0AFC037
:102588002CF0B0C02DF0B1C02EF08CEC1AF025C0A4
:10259800A4F026C0A5F049EF14F0660EBC19D8A423
:1025A800D8EF12F0DAEF12F01CEF13F0A6C0D9FF43
:1025B800A7C0DAFFDECFF6FFDDCFF7FF000EF86E1B
:1025C8000800F5CFBFF0A6C0D9FFA7C0DAFFDE2A02
:1025D800000EDD22A8C0D9FFA9C0DAFFDFCF49F07D
:1025E800040EDE26DFCF4AF0000EDD2249C0D9FFF7
:1025F8004AC0DAFFDECFB8F0DECFB9F0DECFBAF0EE
:10260800DECFBBF0A4C060F0A5C061F0B8C062F036
:10261800B9C063F0BAC064F0BBC065F0BFC066F073
:102628005CEC07F060C0A4F061C0A5F049EF14F0BD
:10263800BC0E0A6E000E0B6EB30E0C6E0E0E0D6EF7
:10264800000E0F6E020E0E6EE6EC28F00A500B100C
:10265800D8A431EF13F033EF13F0B3EF13F0A6C0A3
:10266800D9FFA7C0DAFFDECF49F0DDCF4AF0010E6F
:102678004926000E4A2249C0F6FF4AC0F7FF000E5D
:10268800F86E0800F5CFBFF0BF0E496EFF0E4A6E18
:10269800A6C0D9FFA7C0DAFFDECFF6FFDDCFF7FF70
:1026A800000EF86E0800F5504B6E4C6A49504B26E8
:1026B8004A504C224C500AE11A0E4B5CD8A067EFE6
:1026C80013F06AEF13F0010E6BEF13F0000E000128
:1026D800B66FB76BB651B711D8B475EF13F077EF83
:1026E80013F091EF13F0A8C0D9FFA9C0DAFFDFCF2C
:1026F80049F0040EDE26DFCF4AF0000EDD2249C085
:10270800D9FF4AC0DAFFDECFB8F0DECFB9F0DECFAE
:10271800BAF0DECFBBF0A9EF13F0A8C0D9FFA9C06B
:10272800DAFFDFCF49F0040EDE26DFCF4AF0000ED5
:10273800DD2249C0D9FF4AC0DAFFDECFB8F0DECFCC
:10274800B9F0DECFBAF0DECFBBF0020EA6C0D9FFDB
:10275800A7C0DAFFDE26000EDD2206EF13F0A6C0C2
:10276800D9FFA7C0DAFFDECFF6FFDDCFF7FF000EF7
:10277800F86E0800F550730AD8A4C5EF13F0C7EF38
:1027880013F0F2EF13F0A6C0D9FFA7C0DAFFDE2AD4
:10279800000EDD22A8C0D9FFA9C0DAFFDFCF49F0BB
:1027A800020EDE26DFCF4AF0000EDD2249C0D9FF37
:1027B8004AC0DAFFDECFB2F0DDCFB3F0A4C013F029
:1027C800A5C014F0B2C015F0B3C016F087EC20F025
:1027D80013C0A4F014C0A5F049EF14F0A6C0D9FFA7
:1027E800A7C0DAFFDECFF6FFDDCFF7FF000EF86EE9
:1027F8000800F550250AD8A404EF14F006EF14F0E9
:102808001EEF14F0A6C0D9FFA7C0DAFFDE2A000E1B
:10281800DD22000E0B6E250E0A6EA4C00CF0A5C0BA
:102828000DF0C1EC29F0000E0001A56F010EA46F98
:1028380049EF14F0A6C0D9FFA7C0DAFFDE2A000EC0
:10284800DD22000E0001A56F000EA46F49EF14F001
:10285800A6C0D9FFA7C0DAFFDECFF6FFDDCFF7FFAE
:10286800000EF86E0800F5500A6E0B6AA4C00CF052
:10287800A5C00DF0C1EC29F0A6C0D9FFA7C0DAFFAA
:10288800DE2A000EDD2217EF14F012003450800B00
:102898003D6E345034243F6E33AE55EF14F057EF8D
:1028A80014F058EF14F03F803F50D8B45EEF14F0A6
:1028B80060EF14F075EF14F03F28D8A466EF14F019
:1028C80068EF14F070EF14F0000E316E000E326EE7
:1028D800000E336E000E346E338E000E346E7DEFB4
:1028E80014F0000E316E000E326E000E336E000EC4
:1028F800346E3850800B3E6E3D503E18D8B487EF8A
:1029080014F089EF14F08AEF14F03D8C3850382415
:102918003E6E37AE92EF14F094EF14F095EF14F08A
:102928003E803E50D8B49BEF14F09DEF14F0B2EF08
:1029380014F03E28D8A4A3EF14F0A5EF14F0ADEFDF
:1029480014F0000E356E000E366E000E376E000E57
:10295800386E378E000E386EBAEF14F0000E356EF2
:10296800000E366E000E376E000E386E3F503E5C1D
:10297800D8B0C1EF14F0C3EF14F0EAEF14F03DAC97
:10298800C8EF14F0CAEF14F0CCEF14F0800E3D1A23
:102998003FC040F03EC03FF040C03EF031C040F084
:1029A80035C031F040C035F032C040F036C032F0AA
:1029B80040C036F033C040F037C033F040C037F085
:1029C80034C040F038C034F040C038F0000E406EDB
:1029D8003F503EC039F03A6A395E000E3A5A3ABE64
:1029E800FFEF14F03A5009E11A0E395CD8A0FFEF56
:1029F80014F001EF15F038EF15F0315032103310A4
:102A08003410D8A40AEF15F00DEF15F0010E0EEFF3
:102A180015F0000E406E000E316E000E326E000E84
:102A2800336E000E346E3EC03FF041EF15F040A00B
:102A380020EF15F022EF15F028EF15F0D890403070
:102A48000109406E2AEF15F0D890403231A02FEFDF
:102A580015F031EF15F032EF15F0408E3434343282
:102A68003332323231323F2A3E503F5CD8A03FEFFA
:102A780015F041EF15F01BEF15F03DBC46EF15F0D2
:102A880048EF15F088EF15F03F50D8A44EEF15F039
:102A980050EF15F05AEF15F0000E316E000E326E41
:102AA800000E336E000E346EA9EF16F03550312645
:102AB80036503222375033223850342234A067EF50
:102AC80015F069EF15F015EF16F040A06EEF15F050
:102AD80070EF15F076EF15F0D89040300109406E90
:102AE80078EF15F0D890403231A07DEF15F07FEFE8
:102AF80015F080EF15F0408E3434343233323232F0
:102B080031323F2A15EF16F03550315C36503258C5
:102B1800375033583450800A396E3850800A395843
:102B2800D8B099EF15F09BEF15F0C6EF15F03150BE
:102B3800355C396E325036583A6E335037583B6EE2
:102B4800345038583C6EFF0E3924316EFF0E3A204F
:102B5800326EFF0E3B20336EFF0E3C20346E800E2B
:102B68003D1A406C4050D8A4BCEF15F0BEEF15F0EC
:102B7800CEEF15F0010E3126000E32223322342218
:102B8800CEEF15F03550315E3650325A3750335A41
:102B98003850345A3150321033103410D8A4D7EF8B
:102BA80015F0D9EF15F00EEF16F04050D8A4DFEF6E
:102BB80015F0E1EF15F00EEF16F0000E316E000E75
:102BC800326E000E336E000E346EA9EF16F0D890F8
:102BD800313632363336343640AEF5EF15F0F7EF8E
:102BE80015F0F8EF15F0318040A0FDEF15F0FFEF7C
:102BF80015F003EF16F0D880403605EF16F0D890A0
:102C080040363F50D8B40BEF16F00DEF16F00EEF2C
:102C180016F03F0633AE13EF16F015EF16F0EBEF94
:102C280015F0000E3E6E40AE1CEF16F01EEF16F0CB
:102C380036EF16F040C039F07F0E3916D8B427EFBA
:102C480016F029EF16F02DEF16F0010E3E6E36EF56
:102C580016F031A032EF16F034EF16F036EF16F01A
:102C680029EF16F03E50D8B43CEF16F03EEF16F0C0
:102C780069EF16F0010E3126000E3222332234227B
:102C880034A049EF16F04BEF16F069EF16F031C09B
:102C980039F032C03AF033C03BF034C03CF03C3439
:102CA8003C323B323A32393239C031F03AC032F034
:102CB8003BC033F03CC034F03F28D8B466EF16F080
:102CC80068EF16F069EF16F03F2A3F28D8B46FEF87
:102CD80016F071EF16F079EF16F03F50D8A477EFA1
:102CE80016F079EF16F08BEF16F0000E316E000E2D
:102CF800326E000E336E000E346E3F50D8A487EF4C
:102D080016F089EF16F08BEF16F0000E3D6E3FA01F
:102D180090EF16F092EF16F095EF16F0338E96EFCF
:102D280016F0339ED8903F30346E3DAE9EEF16F0CD
:102D3800A0EF16F0A1EF16F0348E31C031F032C09A
:102D480032F033C033F034C034F012001B50800B23
:102D5800246E1B501B242A6E1AAEB5EF16F0B7EF7F
:102D680016F0B8EF16F02A802A50D8B4BEEF16F045
:102D7800C0EF16F0D3EF16F02A28D8A4C6EF16F045
:102D8800C8EF16F0D0EF16F0000E186E000E196E90
:102D9800000E1A6E000E1B6E1A8EDBEF16F0000E78
:102DA800186E000E196E000E1A6E000E1B6E1F5064
:102DB800800B241A1F501F24256E1EAEE6EF16F056
:102DC800E8EF16F0E9EF16F025802550D8B4EFEFBC
:102DD80016F0F1EF16F004EF17F02528D8A4F7EF56
:102DE80016F0F9EF16F001EF17F0000E1C6E000E4A
:102DF8001D6E000E1E6E000E1F6E1E8E0CEF17F05D
:102E0800000E1C6E000E1D6E000E1E6E000E1F6E54
:102E18002550D8B412EF17F014EF17F01CEF17F085
:102E28002A50D8A41AEF17F01CEF17F026EF17F066
:102E3800000E186E000E196E000E1A6E000E1B6E34
:102E4800BEEF18F01E501802F3CF2FF0F4CF30F079
:102E58002F50266E276A286A296A30502B6E2C6AF2
:102E68002D6A2E6A1D501902F3CF2FF0F4CF30F0DF
:102E78002F502626000E27222822292230502B26C2
:102E8800000E2C222D222E221C501A02F3CF2FF0D6
:102E9800F4CF30F02F502626000E27222822292290
:102EA80030502B26000E2C222D222E2228C029F04D
:102EB80027C028F026C027F0266A1C501902F3CF35
:102EC8002FF0F4CF30F02F50262630502722000E56
:102ED8002822000E29221D501802F3CF2FF0F4CF1C
:102EE80030F02F50262630502722000E2822000EC0
:102EF800292228C029F027C028F026C027F0266AF2
:102F08001C501802F3CF2FF0F4CF30F02F502626A4
:102F180030502722000E2822000E29221E501902A6
:102F2800F3CF2FF0F4CF30F02F502B2630502C2237
:102F3800000E2D22000E2E221D501A02F3CF2FF064
:102F4800F4CF30F02F502B2630502C22000E2D229B
:102F5800000E2E221E501A02F3CF2FF0F4CF30F0BD
:102F68002F50206E3050216E226A236A22C023F02F
:102F780021C022F020C021F0206A20502B262150A9
:102F88002C2222502D2223502E2226C020F027C08A
:102F980021F028C022F029C023F0190ED9EF17F02C
:102FA800D8902332223221322032E82ED4EF17F083
:102FB80020502B2621502C2222502D2223502E2205
:102FC80028C029F027C028F026C027F0266A2550F7
:102FD8002AC020F0216A2026000E2122820E2024F9
:102FE8002F6EFF0E2120306E0FEF18F0D8902B3681
:102FF8002C362D362E3629AE04EF18F006EF18F0D1
:1030080007EF18F02B80D890263627362836293631
:103018002F06D8A030062DAE14EF18F016EF18F0D2
:10302800FAEF17F0000E256E29AE1DEF18F01FEF0E
:1030380018F043EF18F0FF0E2614206EFF0E271429
:10304800216EFF0E2814226E7F0E2914236E205045
:10305800211022102310D8B434EF18F036EF18F0EE
:103068003AEF18F0010E256E43EF18F02BA03FEF52
:1030780018F041EF18F043EF18F036EF18F025502C
:10308800D8B449EF18F04BEF18F06FEF18F0010EB5
:103098002B26000E2C222D222E222EA056EF18F0C1
:1030A80058EF18F06FEF18F02BC020F02CC021F06B
:1030B8002DC022F02EC023F02334233222322132B5
:1030C800203220C02BF021C02CF022C02DF023C0CC
:1030D8002EF02F4A302A30BE7AEF18F0305008E12F
:1030E8002F28D8A07AEF18F07CEF18F086EF18F0A8
:1030F800000E2B6E000E2C6E800E2D6E7F0E2E6E27
:10310800B4EF18F030BE93EF18F0305006E12F04FA
:10311800D8B091EF18F093EF18F09FEF18F0000E69
:103128002B6E000E2C6E000E2D6E000E2E6E000EF5
:10313800246EB4EF18F02FC02AF0FF0E2B16FF0EE6
:103148002C167F0E2D16000E2E162AA0AEEF18F0A4
:10315800B0EF18F0B1EF18F02D8ED8902A302E6EFF
:1031680024502E122BC018F02CC019F02DC01AF0C4
:103178002EC01BF012001B50800B286E1B501B2406
:103188002F6E1AAECAEF18F0CCEF18F0CDEF18F08A
:103198002F802F50D8B4D3EF18F0D5EF18F0EAEFFE
:1031A80018F02F28D8A4DBEF18F0DDEF18F0E5EFC2
:1031B80018F0000E186E000E196E000E1A6E000E32
:1031C8001B6E1A8E000E1B6EF2EF18F0000E186EB2
:1031D800000E196E000E1A6E000E1B6E1F50800B2B
:1031E800281A1F501F24306E1EAEFDEF18F0FFEF97
:1031F80018F000EF19F030803050D8B406EF19F00D
:1032080008EF19F01DEF19F03028D8A40EEF19F0C7
:1032180010EF19F018EF19F0000E1C6E000E1D6E5D
:10322800000E1E6E000E1F6E1E8E000E1F6E25EF06
:1032380019F0000E1C6E000E1D6E000E1E6E000EA4
:103248001F6E1C501D101E101F10D8A42EEF19F051
:1032580030EF19F048EF19F0000E186E000E196ED5
:10326800000E1A6E000E1B6E800E1A127F0E1B12B5
:1032780028501B1218C018F019C019F01AC01AF0FB
:103288001BC01BF08BEF1AF02F50D8A44EEF19F08B
:1032980050EF19F05AEF19F0000E186E000E196E63
:1032A800000E1A6E000E1B6E8BEF1AF030502FC0F6
:1032B80020F0216A205E000E215A7F0E2024296EFC
:1032C800000E21202A6E18C024F019C025F01AC05B
:1032D80026F01BC027F0000E186E000E196E000EA7
:1032E8001A6E000E1B6E000E2B6E000E2C6E000E5A
:1032F8002D6E000E2E6E000E306EBBEF19F03050A2
:10330800D8B489EF19F08BEF19F0A2EF19F0D89023
:103318002436253626362736D890183619361A36E2
:103328001B362EAE9AEF19F09CEF19F09DEF19F0AD
:103338001880D8902B362C362D362E361C50245C0F
:103348001D5025581E5026581F502758D8A0AFEF9B
:1033580019F0B1EF19F0BAEF19F02E8C1C50245E59
:103368001D50255A1E50265A1F50275A302A190E0A
:103378003064C1EF19F0C3EF19F083EF19F024504E
:10338800251026102710D8B4CCEF19F0CEEF19F07D
:10339800E6EF19F02B80E6EF19F0D89018361936B9
:1033A8001A361B362EAEDBEF19F0DDEF19F0DEEF23
:1033B80019F01880D8902B362C362D362E36290643
:1033C800D8A02A061AAEEBEF19F0EDEF19F0D1EFFD
:1033D80019F0000E306E2EAEF4EF19F0F6EF19F07A
:1033E8001AEF1AF0FF0E2B14206EFF0E2C14216E0C
:1033F800FF0E2D14226E7F0E2E14236E20502110E6
:1034080022102310D8B40BEF1AF00DEF1AF011EFB9
:103418001AF0010E306E1AEF1AF018A016EF1AF013
:1034280018EF1AF01AEF1AF00DEF1AF03050D8B45E
:1034380020EF1AF022EF1AF046EF1AF0010E1826C4
:10344800000E19221A221B221BA02DEF1AF02FEFB3
:103458001AF046EF1AF018C020F019C021F01AC06F
:1034680022F01BC023F023342332223221322032AF
:1034780020C018F021C019F022C01AF023C01BF098
:10348800294A2A2A2ABE51EF1AF02A5008E1292887
:10349800D8A051EF1AF053EF1AF05EEF1AF0000EB1
:1034A8002A6E2968000E186E000E196E000E1A6E2C
:1034B800000E1B6E2ABE6BEF1AF02A5006E1290493
:1034C800D8B069EF1AF06BEF1AF079EF1AF0000E26
:1034D8002A6E000E296E000E186E000E196E000E70
:1034E8001A6E000E1B6E000E286E29C02FF02FA03A
:1034F80080EF1AF082EF1AF085EF1AF01A8E86EF35
:103508001AF01A9ED8902F301B6E3CEF19F012005B
:1035180027C03FF028C040F029C041F02AC042F03F
:103528002BC043F02CC044F02DC045F02EC046F00F
:1035380046BEA1EF1AF0A4EF1AF0010EA5EF1AF09B
:10354800000E3D6E3E6A3D503E10D8B4AEEF1AF004
:10355800B0EF1AF0C0EF1AF0461E451E441E431E77
:10356800421E411E401E3F6C000E40224122422254
:1035780043224422452246224EBEC5EF1AF0C7EF29
:103588001AF0C8EF1AF04F924EBED5EF1AF04E500F
:1035980006E14D04D8B0D3EF1AF0D5EF1AF0DBEFFF
:1035A8001AF0000E3A6E010E396EDFEF1AF04DC0B8
:1035B80039F04EC03AF0D9C13BF0DAC13CF03D5089
:1035C8003E10D8A4EAEF1AF0ECEF1AF0F3EF1AF075
:1035D8004FA4F1EF1AF0F3EF1AF0F6EF1AF03B06EA
:1035E800D8A03C06000E486E4F0E476E000E020132
:1035F8004F6F7BEF1BF04706D8A04806000E472404
:10360800D96E020E4820DA6E3FC00AF040C00BF0B7
:1036180041C00CF042C00DF043C00EF044C00FF0A2
:1036280045C010F046C011F00A0E126E000E136E5F
:10363800000E146E000E156E000E166E000E176E3C
:10364800000E186E000E196E96EC23F00AC02FF0CB
:103658000BC030F00CC031F00DC032F00EC033F0AA
:103668000FC034F010C035F011C036F02FC01CF078
:1036780031C01DF0C1EC2FF01C50300FDF6E390641
:10368800D8A03A063B06D8A03C063FC00AF040C086
:103698000BF041C00CF042C00DF043C00EF044C026
:1036A8000FF045C010F046C011F00A0E126E000E61
:1036B800136E000E146E000E156E000E166E000EC0
:1036C800176E000E186E000E196E54EC21F00AC029
:1036D8003FF00BC040F00CC041F00DC042F00EC0EE
:1036E80043F00FC044F010C045F011C046F048BE8A
:1036F80086EF1BF0485008E14704D8A086EF1BF07E
:1037080088EF1BF0B8EF1BF03F50401041104210FB
:103718004310441045104610D8A495EF1BF097EFBE
:103728001BF0FFEF1AF03ABEA4EF1BF03A5006E187
:103738003904D8B0A2EF1BF0A4EF1BF0FFEF1AF08A
:103748003CBEAFEF1BF03C5008E13B04D8A0AFEF04
:103758001BF0B1EF1BF0B8EF1BF04FB2B6EF1BF048
:10376800B8EF1BF0FFEF1AF03D503E10D8A4BFEFA2
:103778001BF0C1EF1BF0C8EF1BF04FA4C6EF1BF006
:10378800C8EF1BF0E6EF1BF04706D8A048063D50EF
:103798003E10D8A4D2EF1BF0D4EF1BF0DAEF1BF0E9
:1037A800000E386E2B0E376EDEEF1BF0000E386EF3
:1037B8002D0E376E000E4724D96E020E4820DA6EA1
:1037C80037C0DFFF25C01AF026C01BF0000E4724C3
:1037D8001C6E020E48201D6E3BC01EF03CC01FF040
:1037E80088EC2AF01AC025F01BC026F01200CFC1C1
:1037F80041F0D0C142F0D1C143F0D2C144F031C050
:1038080041F032C042F033C043F034C044F0810E7E
:10381800356EFF0E366E41C037F042C038F043C0F7
:1038280039F044C03AF0180E1FEF1CF0D8903A3225
:10383800393238323732E82E1AEF1CF03750352437
:103848003F6E000E3620406E40BE34EF1CF04050F4
:1038580009E1170E3F5CD8A034EF1CF036EF1CF0DE
:1038680040EF1CF031C031F032C032F033C033F0D9
:1038780034C034F003EF1DF040BE45EF1CF047EFB5
:103888001CF0B7EF1CF03FC035F0FF0E366EFF0E90
:10389800376E7F0E386E000E396E356656EF1CF0A7
:1038A8005EEF1CF039343932383237323632352E41
:1038B80051EF1CF036C03BF037C03CF038C03DF04B
:1038C80039C03EF03B504114356E3C504214366EC0
:1038D8003D504314376E3E504414386E3550361000
:1038E80037103810D8A47BEF1CF07DEF1CF07FEF69
:1038F8001CF036EF1CF041C035F042C036F043C032
:1039080037F044C038F0200E8FEF1CF0D8903832D2
:10391800373236323532E82E8AEF1CF03550361001
:1039280037103810D8B49BEF1CF09DEF1CF0A5EFB2
:103938001CF03B5041263C5042223D5043223E5011
:1039480044223B1C356E3C1C366E3D1C376E3E1CBB
:10395800386E355041163650421637504316385097
:103968004416FBEF1CF041C035F042C036F043C0AE
:1039780037F044C038F0200EC7EF1CF0D89038322A
:10398800373236323532E82EC2EF1CF03550361059
:1039980037103810D8A4D3EF1CF0D5EF1CF0DFEFA8
:1039A8001CF0000E416E000E426E000E436E000EBB
:1039B800446EFBEF1CF0D8904134356E4234366EBD
:1039C8004334376E4434386E35503610371038105B
:1039D800D8B4F1EF1CF0F3EF1CF0FBEF1CF0000E75
:1039E800416E000E426E800E436EBF0E446E41C0A3
:1039F80031F042C032F043C033F044C034F012001A
:103A0800000E356E000E366E070E376EC30E386E1A
:103A1800000E1C6E000E1D6E480E1E6E410E1F6EAF
:103A280045C00AF046C00BF00C6A0D6A000EDBECCC
:103A38001EF00AC018F00BC019F00CC01AF00DC027
:103A48001BF0AAEC16F018C031F019C032F01AC0F9
:103A580033F01BC034F04AEC14F031C064F032C0CB
:103A680065F033C066F034C067F064C031F065C0FB
:103A780032F066C033F067C034F0E1C10AF0E2C149
:103A88000BF00C6A0D6A000EDBEC1EF00AC035F074
:103A98000BC036F00CC037F00DC038F04AEC14F00B
:103AA80031C060F032C061F033C062F034C063F0FE
:103AB80020EE01F04150D9264250DA22000EDF6E86
:103AC80020EE01F04350D9264450DA22010EDF6E71
:103AD8007E80A3EF1DF041C0D9FF42C0DAFF280E57
:103AE800DF6079EF1DF07BEF1DF081EF1DF041C025
:103AF800D9FF42C0DAFF0A0EDF2643C0D9FF44C00F
:103B0800DAFF280EDF608BEF1DF08DEF1DF093EFCD
:103B18001DF043C0D9FF44C0DAFF0A0EDF2641C0BA
:103B280018F042C019F0F1EC1DF043C018F044C081
:103B380019F0F1EC1DF0A00E00D0E82EFDD741C021
:103B4800D9FF42C0DAFF270EDF64ADEF1DF0AFEFFB
:103B58001DF06FEF1DF043C0D9FF44C0DAFF270EF8
:103B6800DF64B9EF1DF0BBEF1DF06FEF1DF0000E25
:103B78000001696F000E686FCDEF1DF0150E476EDE
:103B8800C60EE82EFED7472EFCD700D00001684BA2
:103B9800692B68C00AF069C00BF00C6A0D6A000E48
:103BA800DBEC1EF00AC031F00BC032F00CC033F071
:103BB8000DC034F060C035F061C036F062C037F037
:103BC80063C038F0E5EC27F0D8A0EDEF1DF0EFEF7B
:103BD8001DF0C2EF1DF07E90120020EE01F018508B
:103BE800D9261950DA22DF50D8B4FDEF1DF0FFEFC7
:103BF8001DF030EF1EF018C0D9FF19C0DAFFDF50F2
:103C08001A6E1A500A6E0B6A20EE07F01850D92661
:103C18001950DA22DECF0CF0DDCF0DF0A6EC30F033
:103C28000AC010F00BC011F0000E136E640E126E75
:103C380026EC2AF020EE07F01850D9261950DA227F
:103C4800DECF1BF0DDCF1CF010501B5C216E115035
:103C58001C58226E53EF1EF018C0D9FF19C0DAFFA6
:103C6800DF501A6E1A500A6E0B6A20EE07F01850D1
:103C7800D9261950DA22DECF0CF0DDCF0DF0A6ECF4
:103C880030F00AC010F00BC011F0000E136E640E75
:103C9800126E26EC2AF010C021F011C022F020EE9E
:103CA80002F01850D9261950DA22DECF1AF0DDCFEB
:103CB8001BF01AC0D9FF1BC0DAFF21C0DFFF20EEBE
:103CC80001F01850D9261950DA22DF50D8B46FEF16
:103CD8001EF071EF1EF0A6EF1EF020EE04F0185053
:103CE800D9261950DA22DECF1AF0DDCF1BF01AC020
:103CF800D9FF1BC0DAFF10EE04F01850E126195066
:103D0800E222E6CF1CF0E5CF1DF01CC0E1FF1DC08C
:103D1800E2FFE7501E6E10EE06F01850E12619502B
:103D2800E222E7501F6E010E206E1F2A9EEF1EF042
:103D3800D89020361F2E9CEF1EF020501E10DF6EEC
:103D4800DAEF1EF020EE04F01850D9261950DA22C6
:103D5800DECF1AF0DDCF1BF01AC0D9FF1BC0DAFF87
:103D680010EE04F01850E1261950E222E6CF1CF0BC
:103D7800E5CF1DF01CC0E1FF1DC0E2FFE7501E6E3D
:103D880010EE06F01850E1261950E222E7501F6E97
:103D9800010E206E1F2AD3EF1EF0D89020361F2E5A
:103DA800D1EF1EF02050FF0A1E14DF6E1200126EB3
:103DB8001250D8B4E2EF1EF0E4EF1EF006EF1FF049
:103DC8000DBEEBEF1EF0E9EF1EF006EF1FF00AC084
:103DD8000EF00BC00FF00CC010F00DC011F00E1E4D
:103DE8000F1E101E111E0E2A000E0F221022112265
:103DF8000EC014F00FC015F010C016F011C017F067
:103E08000EEF1FF00AC014F00BC015F00CC016F02E
:103E18000DC017F00A500B100C100D10D8A417EF96
:103E28001FF019EF1FF023EF1FF0000E0A6E000EAF
:103E38000B6E000E0C6E000E0D6EB4EF1FF0960E9A
:103E4800136E2DEF1FF0132AD89017321632153241
:103E58001432000E14140E6E000E15140F6E000EA0
:103E68001614106EFE0E1714116E0E500F1010104F
:103E78001110D8A442EF1FF044EF1FF027EF1FF0F6
:103E880052EF1FF0132A010E1426000E15221622D7
:103E98001722D8901732163215321432000E141425
:103EA8000E6E000E15140F6E000E1614106EFF0E17
:103EB8001714116E0E500F1010101110D8A467EFC0
:103EC8001FF069EF1FF046EF1FF071EF1FF01306A8
:103ED800D890143615361636173616BE76EF1FF0FC
:103EE80078EF1FF080EF1FF0020E13607EEF1FF0D7
:103EF80080EF1FF06BEF1FF013B085EF1FF087EF17
:103F08001FF088EF1FF0169ED890133213C00EF0E2
:103F18000F6A106A116A0EC011F0106A0F6A0E6AF1
:103F28000E5014120F50151210501612115017126D
:103F38001250D8B4A2EF1FF0A4EF1FF0ACEF1FF09F
:103F48000DBEABEF1FF0A9EF1FF0ACEF1FF0178EFF
:103F580014C00AF015C00BF016C00CF017C00DF015
:103F68001200000E1F6E000E1E6E000E186E000E60
:103F7800176EC1EF1FF0114A122A010E1D6E11C0F3
:103F8800F6FF12C0F7FF000EF86E0800F550200A81
:103F9800D8B4D1EF1FF0D3EF1FF0F2EF1FF0F70EF8
:103FA800136EFF0E146E11C0F6FF12C0F7FF000E5D
:103FB800F86E0800F550156E166A13501526145041
:103FC8001622165009E1050E155CD8A0EEEF1FF079
:103FD800F0EF1FF0F2EF1FF0000E1D6E1DC019F07C
:103FE8001A6A19501A10D8A4FCEF1FF0FEEF1FF040
:103FF800BFEF1FF008EF20F0000E186E010E176ECD
:10400800114A122A41EF20F011C0F6FF12C0F7FF43
:10401800000EF86E0800F550136E146A1450000A6A
:10402800D8B419EF20F041EF20F013502B0AD8B480
:1040380004EF20F0060AD8B400EF20F041EF20F09A
:104048001EC00AF01FC00BF0000E0D6E0A0E0C6E9B
:10405800A6EC30F011C0F6FF12C0F7FF000EF86EA4
:104068000800F5500A5E000E0B5A300E0A241E6E28
:10407800000E0B201F6E04EF20F0D00E136EFF0E03
:10408800146E11C0F6FF12C0F7FF000EF86E08009C
:10409800F550156E166A1350152614501622165030
:1040A8000AE10A0E155CD8A05CEF20F05FEF20F063
:1040B800010E60EF20F0000E1B6E1C6A1B501C10D6
:1040C800D8A469EF20F06BEF20F024EF20F0175010
:1040D8001810D8A472EF20F074EF20F082EF20F0CF
:1040E8001EC013F01FC014F0131E141E134A142A06
:1040F80013C011F014C012F086EF20F01EC011F0AA
:104108001FC012F0120021EEE7F010EE18F0060EB4
:10411800DBCFE3FFE806FCE215C023F016C024F06D
:1041280023502410D8A49BEF20F09DEF20F0A1EF9E
:1041380020F0180E236E000E246E23C00AF024C04F
:104148000BF0ABEC2DF00AC027F00BC028F04DC0E7
:1041580025F04EC026F026BEB4EF20F0B6EF20F0D2
:10416800CBEF20F02750255C2650800A176E285088
:10417800800A1758D8A0C3EF20F0C5EF20F0C7EF8A
:1041880020F0CBEF20F025C027F026C028F027C06C
:1041980025F028C026F0D9C121F0DAC122F04FB0AD
:1041A800D8EF20F0DAEF20F0F7EF20F0E8EF20F07A
:1041B800000E0B6E200E0A6E13C00CF014C00DF02A
:1041C800C1EC29F0274A282A2150275C2850800A68
:1041D800176E2250800A1758D8A0F5EF20F0F7EF95
:1041E80020F0DCEF20F0000E206E000E1F6E1CEF9A
:1041F80021F023C0F6FF24C0F7FF000EF86E0D0E65
:10420800F76403D00800F55005D0F6CFE1FFF7CFEB
:10421800E2FFE750176E17500A6E0B6A13C00CF0D6
:1042280014C00DF0C1EC29F0234A242A1F4A202A81
:1042380025501F5C2050800A176E2650800A175898
:10424800D8A029EF21F02BEF21F0FDEF20F04FA0AF
:1042580030EF21F032EF21F04FEF21F040EF21F065
:10426800000E0B6E200E0A6E13C00CF014C00DF079
:10427800C1EC29F0274A282A2150275C2850800AB7
:10428800176E2250800A1758D8A04DEF21F04FEF33
:1042980021F034EF21F027C013F028C014F01200E9
:1042A800000E1B6E19BE5DEF21F05BEF21F06FEF82
:1042B80021F0191E181E171E161E151E141E131E79
:1042C800126C000E1322142215221622172218220D
:1042D8001922010E1B6E11BE76EF21F074EF21F04A
:1042E80088EF21F0111E101E0F1E0E1E0D1E0C1E33
:1042F8000B1E0A6C000E0B220C220D220E220F221E
:1043080010221122010E1B1A20EE1CF0070EDE6A85
:10431800E806FDE2125013101410151016101710AD
:1043280018101910D8B49BEF21F09DEF21F0EFEF92
:1043380021F0010E1A6EABEF21F0D8901236133629
:104348001436153616361736183619361A2A19AE8F
:10435800B0EF21F0B2EF21F0A1EF21F0D8901C3698
:104368001D361E361F362036213622362336125089
:104378000A5C13500B5814500C5815500D58165011
:104388000E5817500F581850105819501158D8A0D7
:10439800D0EF21F0D2EF21F0E3EF21F012500A5EC6
:1043A80013500B5A14500C5A15500D5A16500E5AD9
:1043B80017500F5A1850105A1950115A1C80D8907B
:1043C80019321832173216321532143213321232A9
:1043D8001A2EB2EF21F01B50D8B4F5EF21F0F7EF09
:1043E80021F007EF22F0231E221E211E201E1F1E71
:1043F8001E1E1D1E1C6C000E1D221E221F222022A6
:104408002122222223221CC00AF01DC00BF01EC04C
:104418000CF01FC00DF020C00EF021C00FF022C01C
:1044280010F023C011F01200000E526E000E516EF3
:104438007F0E556E5468000E0101E26F000EE16FA9
:10444800000EE06F000EDF6F000EE56F000EE46FE8
:10445800000EE36F000E0001F46F000E0201586FAA
:10446800010E596FA30E5A6F0F0E5B6F7D0E5C6FB6
:104478000F0E5D6F040E5E6F000E606F630E5F6F50
:10448800000E616F010E626FA00E636F0F0E646FF6
:104498007F0E656F0F0E666F060E676F000E696FF1
:1044A800630E686F29EC31F0E1EC2FF0630E73ECCA
:1044B8002EF0FCEC30F0ECEC30F099EC25F0580ED6
:1044C800486E020E496E610E4A6E020E4B6EF3EC98
:1044D80024F08EA472EF22F074EF22F07BEF22F02A
:1044E8008EB679EF22F07BEF22F06DEF22F07C861A
:1044F800010ECBEC30F0520E0001F36F2B0EF26F71
:10450800000EE82EFED7F22FFCD7F32FFAD700F0D3
:10451800B9EC30F0580E236E020E246E610E256E33
:10452800020E266EDDEC2BF00101E405D8A49FEF06
:1045380022F0A1EF22F08EEF22F0580E236E020E29
:10454800246E610E256E020E266E24EC2CF0520E9F
:104558000001F36F2B0EF26F000EE82EFED7F22F3C
:10456800FCD7F32FFAD700F0500E0001706F020E3F
:10457800716F580E726F020E736F610E746F020EB8
:10458800756F89EC0DF0520E0001F36F2B0EF26F70
:10459800000EE82EFED7F22FFCD7F32FFAD700F043
:1045A800000E0101E46F8EEF22F030EF00F031C011
:1045B800D9FF32C0DAFFDECF35F0DDCF36F020EE9E
:1045C80002F03150D9263250DA22DECF37F0DDCF73
:1045D80038F020EE04F03150D9263250DA22DECFFE
:1045E80039F0DDCF3AF020EE06F03150D9263250BE
:1045F800DA22DECF3BF0DDCF3CF035C00AF036C022
:104608000BF00C6A0D6A000EDBEC1EF00AC018F005
:104618000BC019F00CC01AF00DC01BF03BC00AF01B
:104628003CC00BF00C6A0D6A000EDBEC1EF00AC0F1
:104638001CF00BC01DF00CC01EF00DC01FF0BFEC2D
:1046480018F033C0D9FF34C0DAFF18C0DEFF19C034
:10465800DEFF1AC0DEFF1BC0DEFF37C00AF038C01D
:104668000BF00C6A0D6A000EDBEC1EF00AC018F0A5
:104678000BC019F00CC01AF00DC01BF03BC00AF0BB
:104688003CC00BF00C6A0D6A000EDBEC1EF00AC091
:104698001CF00BC01DF00CC01EF00DC01FF0BFECCD
:1046A80018F020EE04F03350D9263450DA2218C01E
:1046B800DEFF19C0DEFF1AC0DEFF1BC0DEFF39C0F7
:1046C8000AF03AC00BF00C6A0D6A000EDBEC1EF023
:1046D8000AC018F00BC019F00CC01AF00DC01BF07E
:1046E8003BC00AF03CC00BF00C6A0D6A000EDBEC14
:1046F8001EF00AC01CF00BC01DF00CC01EF00DC04F
:104708001FF0BFEC18F020EE08F03350D9263450D3
:10471800DA2218C0DEFF19C0DEFF1AC0DEFF1BC098
:10472800DEFF1200000E1B6E11BE9FEF23F09DEFFF
:1047380023F0B1EF23F0111E101E0F1E0E1E0D1ECA
:104748000C1E0B1E0A6C000E0B220C220D220E22D0
:104758000F2210221122010E1B6E19BEB8EF23F092
:10476800B6EF23F0C8EF23F0191E181E171E161EE9
:10477800151E141E131E126C000E1322142215226D
:10478800162217221822192212501310141015106D
:104798001610171018101910D8B4D5EF23F0D7EF4A
:1047A80023F01FEF24F0010E1A6EE5EF23F0D890E6
:1047B8001236133614361536163617361836193695
:1047C8001A2A19AEEAEF23F0ECEF23F0DBEF23F01F
:1047D80012500A5C13500B5814500C5815500D58B1
:1047E80016500E5817500F58185010581950115885
:1047F800D8A001EF24F003EF24F013EF24F01250B7
:104808000A5E13500B5A14500C5A15500D5A165074
:104818000E5A17500F5A1850105A1950115AD8904A
:104828001932183217321632153214321332123244
:104838001A2EECEF23F01B50D8B425EF24F027EF05
:1048480024F037EF24F0111E101E0F1E0E1E0D1E31
:104858000C1E0B1E0A6C000E0B220C220D220E22BF
:104868000F22102211220AC00AF00BC00BF00CC054
:104878000CF00DC00DF00EC00EF00FC00FF010C000
:1048880010F011C011F01200000ECBEC30F0090E40
:104898001B6E1E0E1A6EE40EE82EFED71A2EFCD7DB
:1048A8001B2EFAD700D01904D8A45DEF24F05FEFCF
:1048B80024F08DEF24F07F82520E1B6E2B0E1A6EA1
:1048C800000EE82EFED71A2EFCD71B2EFAD700D0E2
:1048D80017C015F018C016F0FFEC2CF0520E1B6E26
:1048E8002B0E1A6E000EE82EFED71A2EFCD71B2EA2
:1048F800FAD700D07F92020E1B6EA00E1A6E920E8F
:10490800E82EFED71A2EFCD71B2EFAD700D0E3EFDD
:1049180024F0020E1918D8A494EF24F096EF24F08E
:10492800B8EF24F07988520E1B6E2B0E1A6E000E0B
:10493800E82EFED71A2EFCD71B2EFAD700D017C0A8
:1049480015F018C016F0FFEC2CF0520E1B6E2B0E53
:104958001A6E000EE82EFED71A2EFCD71B2EFAD799
:1049680000D079987FEF24F0030E1918D8A4BFEF70
:1049780024F0C1EF24F0E3EF24F07E8E520E1B6E7C
:104988002B0E1A6E000EE82EFED71A2EFCD71B2E01
:10499800FAD700D017C015F018C016F0FFEC2CF0AD
:1049A800520E1B6E2B0E1A6E000EE82EFED71A2E14
:1049B800FCD71B2EFAD700D07E9E7FEF24F0010E85
:1049C800CBEC30F0090E1B6E1E0E1A6EE40EE82EAC
:1049D800FED71A2EFCD71B2EFAD700D012008EA4B1
:1049E800F8EF24F0FAEF24F001EF25F08EB6FFEF90
:1049F80024F001EF25F0F3EF24F07C86110E00017E
:104A0800716F3C0E706FCB0EE82EFED7702FFCD75F
:104A1800712FFAD748C06AF049C06BF04AC06CF0F1
:104A28004BC06DF0010E00016F6F680E6E6FC3EC26
:104A38002EF0520E0001716F2B0E706F000EE82ED3
:104A4800FED7702FFCD7712FFAD700F048C023F09B
:104A580049C024F04AC025F04BC026F024EC2CF0C5
:104A68008EA439EF25F03BEF25F042EF25F08EB606
:104A780040EF25F042EF25F034EF25F0010E35EC3C
:104A880026F07C96520E0001716F2B0E706F000E8F
:104A9800E82EFED7702FFCD7712FFAD700F07C864E
:104AA800110E0001716F3C0E706FCB0EE82EFED711
:104AB800702FFCD7712FFAD748C06AF049C06BF045
:104AC8004AC06CF04BC06DF0010E00016F6F680EAC
:104AD8006E6F9BEC2EF0520E0001716F2B0E706FF3
:104AE800000EE82EFED7702FFCD7712FFAD700F0F2
:104AF80048C023F049C024F04AC025F04BC026F036
:104B080024EC2CF08EA48BEF25F08DEF25F094EF9C
:104B180025F08EB692EF25F094EF25F086EF25F07C
:104B2800020E35EC26F07C9612008EB49EEF25F02E
:104B3800A0EF25F099EF25F07C86010ECBEC30F044
:104B48007C8E520E0001F16F2B0EF06F000EE82ED6
:104B5800FED7F02FFCD7F12FFAD700F06F0E156EA5
:104B6800010E166EFFEC2CF0520E0001F16F2B0EA9
:104B7800F06F000EE82EFED7F02FFCD7F12FFAD7F2
:104B880000F07C9E000E01016E6F8EB4CEEF25F012
:104B9800D0EF25F0C9EF25F07C8E770E156E010E4B
:104BA800166EFFEC2CF0010175517D5D76517E5932
:104BB800D8B0E1EF25F0E3EF25F0F4EF25F07D51D3
:104BC800515C7E515258D8B0ECEF25F0EEEF25F04D
:104BD800F4EF25F07DC151F07EC152F00EEF26F0C2
:104BE8007D51755D7E517659D8B0FDEF25F0FFEF08
:104BF80025F00EEF26F054507D5D55507E59D8B003
:104C080008EF26F00AEF26F00EEF26F07DC154F0EB
:104C18007EC155F0110E0001F16F3C0EF06FCB0E06
:104C2800E82EFED7F02FFCD7F12FFAD76F0E000130
:104C3800EA6F010EEB6F770EEC6F010EED6F57EC1C
:104C480029F07C9E01016E2B070E6E652EEF26F073
:104C580030EF26F0C9EF25F07C96000ECBEC30F053
:104C680012000D6E520E0B6E2B0E0A6E000EE82E01
:104C7800FED70A2EFCD70B2EFAD700D0000E0C6EEA
:104C88008EB449EF26F04BEF26F07FEF26F08EA684
:104C980050EF26F052EF26F07FEF26F07C8E0D04C1
:104CA800D8A459EF26F05BEF26F062EF26F0050E48
:104CB8000101DF27000EE02370EF26F0020E0D1829
:104CC800D8A469EF26F06BEF26F070EF26F0050EFA
:104CD8000101E127000EE223410E0B6EF00E0A6E71
:104CE800330EE82EFED70A2EFCD70B2EFAD700F08B
:104CF8007C9EB8EF26F08EB684EF26F086EF26F07D
:104D0800B8EF26F08EA48BEF26F08DEF26F0B8EFE3
:104D180026F080860D04D8A494EF26F096EF26F0AE
:104D28009DEF26F0050E0101DF5F000EE05BABEFA3
:104D380026F0020E0D18D8A4A4EF26F0A6EF26F050
:104D4800ABEF26F0050E0101E15F000EE25B410EBC
:104D58000B6EF00E0A6E330EE82EFED70A2EFCD725
:104D68000B2EFAD700F08096110E0B6E3C0E0A6ED1
:104D7800CB0EE82EFED70A2EFCD70B2EFAD700F062
:104D88000C2A090E0C64CBEF26F0CDEF26F044EF89
:104D980026F0120027C029F028C02AF0D89029361A
:104DA8002A36D89029362A36D89029362A3601014B
:104DB800DF512926E0512A22B40E29242B6E000E39
:104DC8002A202C6E20EE01F02350D9262450DA2216
:104DD800010EDF6E20EE01F02550D9262650DA228A
:104DE800000EDF6E80802DEF27F023C0D9FF24C08E
:104DF800DAFF280EDF6003EF27F005EF27F00BEF4F
:104E080027F023C0D9FF24C0DAFF0A0EDF2625C009
:104E1800D9FF26C0DAFF280EDF6015EF27F017EF5D
:104E280027F01DEF27F025C0D9FF26C0DAFF0A0EAC
:104E3800DF2623C018F024C019F0F1EC1DF025C0BE
:104E480018F026C019F0F1EC1DF0A00E00D0E82EE5
:104E5800FDD723C0D9FF24C0DAFF270EDF6437EF60
:104E680027F039EF27F0F9EF26F025C0D9FF26C043
:104E7800DAFF270EDF6443EF27F045EF27F0F9EF5D
:104E880026F0000E2E6E000E2D6E55EF27F0150E33
:104E9800296EC60EE82EFED7292EFCD700D02D4A43
:104EA8002E2A2B502D5C2C502E58D8A05EEF27F0C0
:104EB80060EF27F04BEF27F0809012000C340D3490
:104EC800136E1350D8A46BEF27F06DEF27F077EF30
:104ED80027F0000E0A6E000E0B6E000E0C6E000E10
:104EE8000D6EE4EF27F00AC00EF00BC00FF00CC0F7
:104EF80010F00DC011F0200E87EF27F0D890113276
:104F080010320F320E32E82E82EF27F00E50126E5A
:104F18000C8EFF0E0A16FF0E0B16FF0E0C16000E57
:104F28000D16960E135E13BE9EEF27F09CEF27F02A
:104F3800B4EF27F01350800A970FD8B0A6EF27F0E8
:104F4800A8EF27F0AAEF27F06DEF27F0D8900D32E1
:104F58000C320B320A32133EAAEF27F0CCEF27F0BF
:104F68001F0E1364BAEF27F0BCEF27F0C4EF27F049
:104F78006DEF27F0D8900A360B360C360D3613062F
:104F88001350D8A4CAEF27F0CCEF27F0BEEF27F0D4
:104F98001250D8B4D2EF27F0D4EF27F0DCEF27F087
:104FA8000D1E0C1E0B1E0A6C000E0B220C220D226D
:104FB8000AC00AF00BC00BF00CC00CF00DC00DF0CD
:104FC8001200000E3114396E000E32143A6E800E43
:104FD80033143B6E7F0E34143C6E39503A103B103C
:104FE8003C10D8A4FAEF27F0FCEF27F004EF28F0E4
:104FF800000E316E000E326E000E336E000E346EEF
:10500800000E3514396E000E36143A6E800E3714C1
:105018003B6E7F0E38143C6E39503A103B103C10F2
:10502800D8A419EF28F01BEF28F023EF28F0000E82
:10503800356E000E366E000E376E000E386E34AECA
:1050480028EF28F02AEF28F033EF28F0316C321ED1
:10505800D8B0322A331ED8B0332A800E345638AE30
:1050680038EF28F03AEF28F043EF28F0356C361E79
:10507800D8B0362A371ED8B0372A800E3856000ED8
:10508800311A000E321A000E331A800E341A000E2E
:10509800351A000E361A000E371A800E381A355097
:1050A800315C365032583750335838503458D8B0AD
:1050B80060EF28F062EF28F065EF28F0D89066EFEF
:1050C80028F0D8801200D3C114F0D4C115F0D5C18E
:1050D80016F0D6C117F00AC014F00BC015F00CC0BA
:1050E80016F00DC017F014C00EF015C00FF016C062
:1050F80010F017C011F0180E87EF28F0D890113271
:1051080010320F320E32E82E82EF28F00E50126E57
:10511800136A12501310D8A494EF28F096EF28F0D1
:10512800B6EF28F0D89014340E6E15340F6E16347E
:10513800106E1734116E0E500F1010101110D8A4E5
:10514800A8EF28F0AAEF28F0B0EF28F0000E0B6EB9
:10515800020E0A6EE5EF28F0000E0B6E030E0A6EC3
:10516800E5EF28F012281310D8A4BDEF28F0BFEF00
:1051780028F0E1EF28F014C00EF015C00FF016C0AB
:1051880010F017C011F0090ED8900E360F361036F1
:105198001136E82EC8EF28F00E500F10101011101D
:1051A800D8B4D9EF28F0DCEF28F0010EDDEF28F0B5
:1051B800000E0A6E0B6AE5EF28F0000E0B6E040E67
:1051C8000A6E12000AC011F00BC012F00CC013F0E6
:1051D8000DC014F00E06D8A00F060E2806E10F2801
:1051E800D8A4F9EF28F0FBEF28F008EF29F0000E1B
:1051F8000B6E000E0A6E56EF29F0114A122A134A56
:10520800142A0E06D8A00F0611C0D9FF12C0DAFF63
:10521800DF50D8B412EF29F014EF29F043EF29F04A
:1052280013C0F6FF14C0F7FF000EF86E0800F55023
:105238000009D8B422EF29F024EF29F043EF29F030
:105248000E500F10D8B42BEF29F02DEF29F043EFB3
:1052580029F011C0D9FF12C0DAFFDF50106E13C059
:10526800F6FF14C0F7FF000EF86E0800F55010188E
:10527800D8B441EF29F043EF29F001EF29F011C02C
:10528800D9FF12C0DAFFDF50106E13C0F6FF14C04A
:10529800F7FF000EF86E0800F550105C0A6E0B6AF6
:1052A800D8A00B061200000120EE06F0EA51D9261C
:1052B800EB51DA22DECF64F1DDCF65F1ECC0D9FF26
:1052C800EDC0DAFFDECF66F1DDCF67F120EE02F048
:1052D800EC51D926ED51DA22DECF68F1DDCF69F144
:1052E80020EE04F0EC51D926ED51DA22DECF6AF136
:1052F800DDCF6BF120EE06F0EC51D926ED51DA2224
:10530800DECF6CF1DDCF6DF1000EC86F010EC96FF5
:10531800410ECA6F0E0ECB6F66C1CCF067C1CDF0DF
:1053280068C1CEF069C1CFF06AC1D0F06BC1D1F0CD
:105338006CC1D2F06DC1D3F051C0D4F052C0D5F0D9
:1053480064C1D6F065C1D7F054C0D8F055C0D9F0C3
:1053580059EC2DF0000E0B6E010E0C6E51EC30F076
:10536800290E0001EF6F960EEE6F7F0EE82EFED726
:10537800EE2FFCD7EF2FFAD712000C500D10D8B42F
:10538800C8EF29F0CAEF29F0D3EF29F00C500D101F
:10539800D8A4D1EF29F0D3EF29F0D8EF29F00A509B
:1053A800A1EC31F025EF2AF020EE04F00C50D926BC
:1053B8000D50DA22DE50DE10D8B4E5EF29F0E7EF21
:1053C80029F002EF2AF020EE04F00C50D9260D50F7
:1053D800DA2210EE02F00C50E1260D50E222DE50E7
:1053E800E65CE650800A126EDE50800A1258D8B089
:1053F80000EF2AF002EF2AF025EF2AF020EE02F063
:105408000C50D9260D50DA22DECF0EF0DDCF0FF08A
:105418000CC0D9FF0DC0DAFFDECF10F0DDCF11F0E0
:105428000E501024D96E0F501120DA6E0AC0DFFF1B
:1054380020EE02F00C50D9260D50DA22DE2A000E9A
:10544800DD221200000E156E13BE2FEF2AF02DEF8D
:105458002AF035EF2AF0126C131ED8B0132A010E69
:10546800156E11BE3CEF2AF03AEF2AF042EF2AF00F
:10547800106C111ED8B0112A010E151A000E176EE5
:10548800000E166E12501310D8B44DEF2AF04FEFDD
:105498002AF077EF2AF0010E146E57EF2AF0D89011
:1054A80012361336142A13AE5CEF2AF05EEF2AF098
:1054B80053EF2AF0D890163617361250105C135056
:1054C8001158D8A06AEF2AF06CEF2AF071EF2AF091
:1054D8001250105E1350115A1680D890133212329F
:1054E800142E5EEF2AF01550D8B47DEF2AF07FEF26
:1054F8002AF083EF2AF0166C171ED8B0172A16C0A8
:1055080010F017C011F012004FA08DEF2AF08FEFA6
:105518002AF099EF2AF01CC013F01DC014F01AC02D
:1055280015F01BC016F05CEC2FF01FBE9EEF2AF0A2
:10553800A0EF2AF0A6EF2AF01EC023F01FC024F027
:10554800AAEF2AF0000E246E000E236E000E226EC3
:10555800000E216EBCEF2AF0000E0B6E200E0A6EB4
:105568001AC00CF01BC00DF0C1EC29F0214A222A08
:105578002350215C2250800A206E2450800A205833
:10558800D8A0C9EF2AF0CBEF2AF0B0EF2AF04FB03D
:10559800D0EF2AF0D2EF2AF0DCEF2AF01CC013F08B
:1055A8001DC014F01AC015F01BC016F05CEC2FF0EB
:1055B8001CC00AF01DC00BF0ABEC2DF023500A24E0
:1055C8001A6E24500B201B6E1200000E0F6E0BBEBD
:1055D800F2EF2AF0F0EF2AF0F8EF2AF00A6C0B1E2F
:1055E800D8B00B2A010E0F6E0DBEFFEF2AF0FDEFAB
:1055F8002AF003EF2BF00C6C0D1ED8B00D2A0C50BE
:105608000D10D8B40AEF2BF00CEF2BF030EF2BF085
:10561800010E0E6E14EF2BF0D8900C360D360E2AB4
:105628000DAE19EF2BF01BEF2BF010EF2BF00C50F9
:105638000A5C0D500B58D8A024EF2BF026EF2BF066
:105648002AEF2BF00C500A5E0D500B5AD8900D32F1
:105658000C320E2E1BEF2BF00F50D8B436EF2BF078
:1056680038EF2BF03CEF2BF00A6C0B1ED8B00B2A4E
:105678000AC00AF00BC00BF01200000E0A14126EDA
:10568800000E0B14136E800E0C14146E7F0E0D1486
:10569800156E1250131014101510D8A456EF2BF0D5
:1056A80058EF2BF060EF2BF0000E0A6E000E0B6E19
:1056B800000E0C6E000E0D6E000E0E14126E000E13
:1056C8000F14136E800E1014146E7F0E1114156EC5
:1056D8001250131014101510D8A475EF2BF077EF93
:1056E8002BF07FEF2BF0000E0E6E000E0F6E000EEB
:1056F800106E000E116E0E500A180FE10F500B18A5
:105708000CE110500C1809E111500D18D8B48FEFA6
:105718002BF091EF2BF094EF2BF0D89095EF2BF026
:10572800D880120020EE01F02350D9262450DA2226
:10573800000EDF6E20EE01F02550D9262650DA2221
:10574800000EDF6EC4EF2BF023C0D9FF24C0DAFFB0
:105758000A0EDF2625C0D9FF26C0DAFF0A0EDF268B
:1057680023C018F024C019F0F1EC1DF025C018F082
:1057780026C019F0F1EC1DF0A00E00D0E82EFDD7E0
:1057880023C0D9FF24C0DAFF280EDF60CEEF2BF04C
:10579800D0EF2BF0DCEF2BF025C0D9FF26C0DAFFC5
:1057A800270EDF64DAEF2BF0DCEF2BF0A8EF2BF0FD
:1057B800120020EE01F02350D9262450DA22010EDF
:1057C800DF6E20EE01F02550D9262650DA22010E90
:1057D800DF6E0BEF2CF023C0D9FF24C0DAFF0A0ECE
:1057E800DF2625C0D9FF26C0DAFF0A0EDF2623C030
:1057F80018F024C019F0F1EC1DF025C018F026C0EF
:1058080019F0F1EC1DF0A00E00D0E82EFDD723C052
:10581800D9FF24C0DAFF140EDF6015EF2CF017EF64
:105828002CF023EF2CF025C0D9FF26C0DAFF130E89
:10583800DF6421EF2CF023EF2CF0EFEF2BF01200B8
:105848007C8843EF2CF023C0D9FF24C0DAFF0A0E6E
:10585800DF5E25C0D9FF26C0DAFF0A0EDF5E23C04F
:1058680018F024C019F0F1EC1DF025C018F026C07E
:1058780019F0F1EC1DF0A00E00D0E82EFDD723C0E2
:10588800D9FF24C0DAFFDF50D8B44DEF2CF04FEF2A
:105898002CF05BEF2CF025C0D9FF26C0DAFFDF50D3
:1058A800D8A459EF2CF05BEF2CF027EF2CF0290E41
:1058B800286E960E276E7F0EE82EFED7272EFCD771
:1058C800282EFAD700F07C981200C2C0C6F0C3C0D8
:1058D800C7F0000E0101D86F000ED76F8BEF2CF0C8
:1058E800C0C0A4F0C1C0A5F0C60E0001A66F000E8E
:1058F800A76FC4C0A8F0C5C0A9F054EC11F000010E
:10590800A4510101D7270001A5510101D823C6C020
:10591800F6FFC7C0F7FF000EF86E0800F550000943
:10592800D8A499EF2CF09BEF2CF074EF2CF0D7C192
:10593800C0F0D8C1C1F01200BF0E126EFF0E136E78
:1059480010C014F011C015F012501426135015226F
:1059580015500AE11A0E145CD8A0B5EF2CF0B8EF78
:105968002CF0010EB9EF2CF0000E166E176A1650C7
:105978001710D8B4C2EF2CF0C4EF2CF0CBEF2CF0FA
:10598800200E1010106E1150116ECFEF2CF010C0B9
:1059980010F011C011F012000CC010F00DC011F081
:1059A8000AC012F00BC013F010500E6E11500F6E9B
:1059B800104A112A0EC0F6FF0FC0F7FF000EF86E4E
:1059C80012C0D9FF13C0DAFF124A132A0D0EF7646A
:1059D80003D00800F55005D0F6CFE1FFF7CFE2FF7E
:1059E800E750DF6EDF50D8A4FCEF2CF0FEEF2CF070
:1059F800D8EF2CF01200D3EC2DF015C0D9FF16C04B
:105A0800DAFF0EC0DEFF0FC0DDFFFBEC2DF020EE4D
:105A180002F01550D9261650DA220EC0DEFF0FC04C
:105A2800DDFF4BEC2EF020EE04F01550D926165071
:105A3800DA220EC0DEFF0FC0DDFF23EC2EF020EED1
:105A480006F01550D9261650DA220EC0DEFF0FC018
:105A5800DDFF12003A0EF66E630EF76E000EF86E5A
:105A680001EEE7F010EE07F00900F5CFEEFFE55084
:105A7800E150FAE102EE00F0500EEE6AE806FDE1B0
:105A880001EE7FF0680EEE6AE806FDE10001F66BB4
:105A9800F56BF46B00EE4DF0070EEE6AE806FDE1DB
:105AA80056905692000118EF22F0CC0E0001E26FDA
:105AB800000EE36FC8C0E4F0C9C0E5F0000EE76F60
:105AC800000EE66F000EE96F000EE86FE40EC06F7F
:105AD800000EC16FCAC0C2F0CBC0C3F0E20EC46FE3
:105AE800000EC56F69EC2CF00001E651C825D96E8F
:105AF800E751C921DA6E000EDF6E1200010E106E3A
:105B0800200E0A180B10D8B48CEF2DF08EEF2DF064
:105B1800A7EF2DF0F70E0C6EFF0E0D6E0AC00EF0FB
:105B28000BC00FF00C500E260D500F220F5009E13C
:105B3800050E0E5CD8A0A3EF2DF0A5EF2DF0A7EF72
:105B48002DF0000E106E10C00AF00B6A12000AC089
:105B58000CF00BC00DF0B3EF2DF00A4A0B2A0AC067
:105B6800F6FF0BC0F7FF000EF86E0D0EF76403D0BA
:105B78000800F55005D0F6CFE1FFF7CFE2FFE75078
:105B88000009D8A4CAEF2DF0CCEF2DF0B1EF2DF01D
:105B98000C500A5C0A6E0D500B580B6E120084EC08
:105BA80031F0520E6DEC31F0B60E6DEC31F089EC3F
:105BB80031F0530E6DEC31F0010EA0EC2FF0106EA9
:105BC8001050136E146A000EA0EC2FF0106E1050D7
:105BD800126E116A13501110136E14501210146EB5
:105BE8007FEC31F013C00EF014C00FF0120084ECFB
:105BF80031F0520E6DEC31F0B80E6DEC31F089ECED
:105C080031F0530E6DEC31F0010EA0EC2FF0106E58
:105C18001050136E146A000EA0EC2FF0106E105086
:105C2800126E116A13501110136E14501210146E64
:105C38007FEC31F013C00EF014C00FF0120084ECAA
:105C480031F0520E6DEC31F0B40E6DEC31F089ECA0
:105C580031F0530E6DEC31F0010EA0EC2FF0106E08
:105C68001050136E146A000EA0EC2FF0106E105036
:105C7800126E116A13501110136E14501210146E14
:105C88007FEC31F013C00EF014C00FF0120084EC5A
:105C980031F0520E6DEC31F0BA0E6DEC31F089EC4A
:105CA80031F0530E6DEC31F0010EA0EC2FF0106EB8
:105CB8001050136E146A000EA0EC2FF0106E1050E6
:105CC800126E116A13501110136E14501210146EC4
:105CD8007FEC31F013C00EF014C00FF012000A6E02
:105CE800BD508F0B4009BD6EE00EBE16BF50F00BC5
:105CF8000109BF6E0AC0BCFFBD8E85948598839E3E
:105D0800879C7D947D987B9E7F9C000EA36E000EE1
:105D1800A06EA48EA18E0A0E0E01746F0B0E696F11
:105D280073EC31F08EEC31F05BEC31F012000001D5
:105D3800F451D8A4A2EF2EF0A4EF2EF0B4EF2EF079
:105D48006AC023F06BC024F06CC025F06DC026F04B
:105D58006EC027F06FC028F0CEEC26F0C2EF2EF010
:105D68006AC041F06BC042F06CC043F06DC044F0B3
:105D78006EC045F06FC046F004EC1DF01200000143
:105D8800F451D8A4CAEF2EF0CCEF2EF0DCEF2EF0B1
:105D98006AC041F06BC042F06CC043F06DC044F083
:105DA8006EC045F06FC046F004EC1DF0EAEF2EF02F
:105DB8006AC023F06BC024F06CC025F06DC026F0DB
:105DC8006EC027F06FC028F0CEEC26F01200130E3C
:105DD8000C6E000EDCEC30F03F0E0E6E550EE82E09
:105DE800FED70E2EFCD700F0040E0C6E0C0EDCEC69
:105DF80030F051C00CF0040EDCEC30F052500C6E58
:105E0800050EDCEC30F054C00CF0060EDCEC30F083
:105E180055500C6E070EDCEC30F01200130E036EBA
:105E2800000E0CEC31F03F0E056E550EE82EFED735
:105E3800052EFCD700F0040E036E0C0E0CEC31F0AE
:105E480051C003F0040E0CEC31F05250036E050EF5
:105E58000CEC31F054C003F0060E0CEC31F0555048
:105E6800036E070E0CEC31F01200000E451A000EFE
:105E7800461A000E471A800E481A41C031F042C037
:105E880032F043C033F044C034F045C035F046C06A
:105E980036F047C037F048C038F04AEC14F031C04B
:105EA80041F032C042F033C043F034C044F0120035
:105EB800000E196E000E186E6DEF2FF017C00AF065
:105EC8000B6A15C00CF016C00DF0C1EC29F0184A89
:105ED800192A18501324D96E19501420DA6EDF507D
:105EE800176E1750D8A47BEF2FF07DEF2FF062EFDD
:105EF8002FF012000E0133A384EF2FF086EF2FF05E
:105F08009EEF2FF0010E0101E46F7CAE8EEF2FF0B3
:105F180092EF2FF0066A062A93EF2FF0066A0632F0
:105F280006327C5006187F0B06187C6E36EC31F072
:105F38000E013393569211000C6E7EEC30F00E0178
:105F4800DA877EEC30F0D5CE0DF07EEC30F00C50D8
:105F5800D8B4B1EF2FF0B5EF2FF00B6A0B2AB6EFDC
:105F68002FF00B6A0B3A0B460E01DA510B18DF0BB8
:105F78000B18DA6FDA890D5012001DBECEEF2FF024
:105F88001D5006E11C04D8B0CCEF2FF0CEEF2FF057
:105F9800DCEF2FF01CC01EF01DC01FF01E1E1F1EC0
:105FA8001E4A1F2A1EC01CF01FC01DF0E0EF2FF074
:105FB8001CC01CF01DC01DF0120069EC30F0010E71
:105FC8000C6E000EDCEC30F03F0E0E6E550EE82E17
:105FD800FED70E2EFCD700F0030E0C6E000EDCEC84
:105FE80030F0D50E0C6E010EDCEC30F066EC31F0C2
:105FF8001200BF0E0C6EFF0E0D6E0AC00EF00BC025
:106008000FF00C500E260D500F220F500AE11A0EF9
:106018000E5CD8A012EF30F015EF30F0010E16EF3D
:1060280030F0000E0A6E0B6A12000A500B100C10AA
:106038000D10D8B422EF30F024EF30F02CEF30F010
:10604800000E0A1A000E0B1A000E0C1A800E0D1AFA
:106058000AC00AF00BC00BF00CC00CF00DC00DF01C
:106068001200D00E0C6EFF0E0D6E0AC00EF00BC0A3
:106078000FF00C500E260D500F220F500AE10A0E99
:106088000E5CD8A04AEF30F04DEF30F0010E4EEF25
:1060980030F0000E0A6E0B6A12005CEF30F00BC095
:1060A800D9FF0CC0DAFFDF5043EC31F00B4A0C2A61
:1060B8000BC0D9FF0CC0DAFFDF50D8A466EF30F070
:1060C80068EF30F053EF30F012000E01D951F00BA9
:1060D8000809D96FD98B9F0ED66F848A848CA79BA9
:1060E800A79D1D0E1D6F1E0E1C6F1C0E6F6F1B0EC5
:1060F800706F12000E01D8B584EF30F086EF30F0E3
:106108007EEF30F0DACE0AF01F0E0A16D8A48FEF11
:1061180030F091EF30F07EEF30F012000E01D8B57C
:1061280098EF30F09AEF30F092EF30F0DACE01F0DD
:106138001F0E0116D8A4A3EF30F0A5EF30F092EFB0
:1061480030F012000A500C02F3CF0EF0F4CF0FF02B
:106158000A500D02F3500F260B500C02F3500F2675
:106168000EC00AF00FC00BF0120082820E019A9343
:10617800090E0D01F16F0E012983298B1F831F9BC7
:106188001CEC31F0F292F28AF28CF28E12000A6E56
:106198000AB002D07F9201D07F820AB002D07998EB
:1061A80001D079880AB002D07E9E01D07E8E12007E
:1061B8000D6E84EC31F0520E6DEC31F00D5080090B
:1061C8006DEC31F00C506DEC31F07FEC31F01200D9
:1061D8004FEC31F00B6E640E0B60F5EF30F0F7EF1B
:1061E80030F0FAEF30F07C8EFBEF30F07C9E12003E
:1061F800120E0E01626F110E156F8382E997E895F2
:10620800330EE56F000EE66FE789E88BE78F120023
:10621800046E98EC31F0520E79EC31F0045080099C
:1062280079EC31F0035079EC31F093EC31F0120055
:1062380084EC31F0520E6DEC31F0E60E6DEC31F07D
:106248007FEC31F0EBEC2EF01200868C0E01B48D51
:106258000F015899FC0E58172E0E5F6F60946088D6
:10626800608E120098EC31F0520E79EC31F0E60EA7
:1062780079EC31F093EC31F012EC2FF012000A6E49
:106288000E0137A54AEF31F04CEF31F044EF31F011
:106298000AC0E4FE1200608060B055EF31F057EF9D
:1062A80031F050EF31F064CF0AF00A5012008892B2
:1062B800849684988690889080927C967C987E902C
:1062C8008090120087928198869E000ECBEC30F069
:1062D80012000B6E7EEC30F00BC0D5FE12008684E7
:1062E80086860E01B495B4971200026E92EC30F0D7
:1062F80002C0D5FE12007EEC30F00E01DA851200E5
:106308007EEC30F00E01DA8112007EEC30F00E01E6
:10631800DA831200849E88967C9E8096120092EC06
:1063280030F00E01DA85120092EC30F00E01DA81BD
:096338001200286E756C6C29003E
:02634200120047
:020000040020DA
:10000000FF0FFF0FFF0FFF0FFF0FFF0FFF0FFF0F80
:020000040030CA
:0C000000AAFFFFFF9FFFFFFFFFFFFFFFB5
:00000001FF
