:0400000013EF00F00A
:060008005D827CEF13F0A5
:100018005D80E0CF01F001C0E0FF5D90100022EFAD
:0200280013F0D3
:0F0E00000025692025692025692025690A000041
:100E10001DC004F01EC005F017C002F018C003F09A
:100E200006EC11F002C009F003C00AF00B6A0C6A6C
:100E3000000E47EC0BF009C023F00AC024F00BC0F1
:100E400025F00CC026F01DC004F01EC005F019C02E
:100E500002F01AC003F006EC11F002C009F003C062
:100E60000AF00B6A0C6A000E47EC0BF009C027F081
:100E70000AC028F00BC029F00CC02AF01DC004F0F5
:100E80001EC005F01BC002F01CC003F006EC11F000
:100E900002C009F003C00AF00B6A0C6A000E47ECAE
:100EA0000BF009C02BF00AC02CF00BC02DF00CC0C9
:100EB0002EF0210E026EB00E036EF20E046E3E0E88
:100EC000056E23C006F024C007F025C008F026C038
:100ED00009F0BCEC0FF0D8B070EF07F072EF07F03C
:100EE000A6EF07F027C002F028C003F029C004F0E5
:100EF0002AC005F0960E066E430E076E8B0E086E26
:100F00003E0E096EBCEC0FF0D8B089EF07F08BEF06
:100F100007F0A6EF07F02BC002F02CC003F02DC0A5
:100F200004F02EC005F0CB0E066EA10E076E450E26
:100F3000086E3E0E096EBCEC0FF0D8B0A2EF07F0C1
:100F4000A4EF07F0A6EF07F0C1EF09F023C002F00D
:100F500024C003F025C004F026C005F09E0E066EE6
:100F6000EF0E076EE70E086E3E0E096EBCEC0FF03A
:100F7000D8B0BDEF07F0BFEF07F0F3EF07F0730E47
:100F8000026E680E036E910E046E3E0E056E27C053
:100F900006F028C007F029C008F02AC009F0BCEC10
:100FA0000FF0D8B0D6EF07F0D8EF07F0F3EF07F067
:100FB000CB0E026EA10E036E450E046E3E0E056E44
:100FC0002BC006F02CC007F02DC008F02EC009F091
:100FD000BCEC0FF0D8B0EFEF07F0F1EF07F0F3EF54
:100FE00007F0C1EF09F023C002F024C003F025C0D0
:100FF00004F026C005F08B0E066E6C0E076EE70E31
:10100000086E3E0E096EBCEC0FF0D8B00AEF08F087
:101010000CEF08F040EF08F04E0E026E620E036E09
:10102000900E046E3E0E056E27C006F028C007F035
:1010300029C008F02AC009F0BCEC0FF0D8B023EFAB
:1010400008F025EF08F040EF08F0390E026EB40EFC
:10105000036E480E046E3E0E056E2BC006F02CC0CB
:1010600007F02DC008F02EC009F0BCEC0FF0D8B08E
:101070003CEF08F03EEF08F040EF08F0C1EF09F058
:1010800023C002F024C003F025C004F026C005F000
:101090008D0E066E970E076EEE0E086E3E0E096EF2
:1010A000BCEC0FF0D8B057EF08F059EF08F08DEF17
:1010B00008F03B0E026EDF0E036E8F0E046E3E0EC6
:1010C000056E27C006F028C007F029C008F02AC026
:1010D00009F0BCEC0FF0D8B070EF08F072EF08F038
:1010E0008DEF08F05C0E026E8F0E036E420E046EE2
:1010F0003E0E056E2BC006F02CC007F02DC008F088
:101100002EC009F0BCEC0FF0D8B089EF08F08BEFDF
:1011100008F08DEF08F0C1EF09F023C002F024C001
:1011200003F025C004F026C005F0210E066EB00EB7
:10113000076EF20E086E3E0E096EBCEC0FF0D8B0D2
:10114000A4EF08F0A6EF08F0DAEF08F0960E026EB2
:10115000430E036E8B0E046E3E0E056E27C006F026
:1011600028C007F029C008F02AC009F0BCEC0FF035
:10117000D8B0BDEF08F0BFEF08F0DAEF08F0370E97
:10118000026E890E036E410E046E3E0E056E2BC07C
:1011900006F02CC007F02DC008F02EC009F0BCEC02
:1011A0000FF0D8B0D6EF08F0D8EF08F0DAEF08F07B
:1011B000C1EF09F023C002F024C003F025C004F001
:1011C00026C005F08D0E066E970E076EEE0E086EA9
:1011D0003E0E096EBCEC0FF0D8B0F1EF08F0F3EF63
:1011E00008F027EF09F0F20E026ED20E036E8D0E9C
:1011F000046E3E0E056E27C006F028C007F029C019
:1012000008F02AC009F0BCEC0FF0D8B00AEF09F0E2
:101210000CEF09F027EF09F0F00E026EA70E036E37
:10122000460E046E3E0E056E2BC006F02CC007F075
:101230002DC008F02EC009F0BCEC0FF0D8B023EFA1
:1012400009F025EF09F027EF09F0C1EF09F023C0FD
:1012500002F024C003F025C004F026C005F09E0E65
:10126000066EEF0E076EE70E086E3E0E096EBCECC2
:101270000FF0D8B03EEF09F040EF09F074EF09F03D
:10128000730E026E680E036E910E046E3E0E056EB6
:1012900027C006F028C007F029C008F02AC009F0CE
:1012A000BCEC0FF0D8B057EF09F059EF09F074EF2C
:1012B00009F05E0E026EBA0E036E490E046E3E0E0B
:1012C000056E2BC006F02CC007F02DC008F02EC014
:1012D00009F0BCEC0FF0D8B070EF09F072EF09F034
:1012E00074EF09F0C1EF09F023C002F024C003F04D
:1012F00025C004F026C005F00C0E066E020E076E27
:10130000EB0E086E3E0E096EBCEC0FF0D8B08BEF02
:1013100009F08DEF09F0C1EF09F0600E026EE50EE5
:10132000036E900E046E3E0E056E27C006F028C0B8
:1013300007F029C008F02AC009F0BCEC0FF0D8B0C3
:10134000A4EF09F0A6EF09F0C1EF09F0390E026E23
:10135000B40E036E480E046E3E0E056E2BC006F0F2
:101360002CC007F02DC008F02EC009F0BCEC0FF027
:10137000D8B0BDEF09F0BFEF09F0C1EF09F0C1EF40
:1013800009F0000E1F6E000E206E000E216E000E82
:10139000226E1FC002F020C003F021C004F022C062
:1013A00005F039EC0FF0025012001FC037F020C0DA
:1013B00038F021C039F022C03AF023C03BF024C0FD
:1013C0003CF025C03DF026C03EF03EBEEAEF09F0FD
:1013D000EDEF09F0010EEEEF09F0000E356E366A02
:1013E00035503610D8B4F7EF09F0F9EF09F009EFEE
:1013F0000AF03E1E3D1E3C1E3B1E3A1E391E381E84
:10140000376C000E382239223A223B223C223D2200
:101410003E220001DBBF0FEF0AF011EF0AF012EFDE
:101420000AF0DC93DBBF1FEF0AF0DB5106E1DA05BF
:10143000D8B01DEF0AF01FEF0AF025EF0AF0000EFA
:10144000326E010E316E29EF0AF0DAC031F0DBC0E6
:1014500032F0D8C033F0D9C034F035503610D8A4AB
:1014600034EF0AF036EF0AF03DEF0AF0DCA53BEF6F
:101470000AF03DEF0AF040EF0AF03306D8A0340638
:10148000000E406E1F0E3F6E000E01015B6FC5EF38
:101490000AF03F06D8A040063C0E3F24D96E010E4C
:1014A0004020DA6E37C002F038C003F039C004F0D3
:1014B0003AC005F03BC006F03CC007F03DC008F064
:1014C0003EC009F00A0E0A6E000E0B6E000E0C6E86
:1014D000000E0D6E000E0E6E000E0F6E000E106EE2
:1014E000000E116E87EC0EF002C027F003C028F04A
:1014F00004C029F005C02AF006C02BF007C02CF06C
:1015000008C02DF009C02EF027C014F029C015F036
:10151000C7EC12F01450300FDF6E3106D8A032063F
:101520003306D8A0340637C002F038C003F039C003
:1015300004F03AC005F03BC006F03CC007F03DC0E7
:1015400008F03EC009F00A0E0A6E000E0B6E000E87
:101550000C6E000E0D6E000E0E6E000E0F6E000E65
:10156000106E000E116EC3EC0DF002C037F003C018
:1015700038F004C039F005C03AF006C03BF007C0AF
:101580003CF008C03DF009C03EF040BED0EF0AF08C
:10159000405008E13F04D8A0D0EF0AF0D2EF0AF0A3
:1015A00003EF0BF03750381039103A103B103C1055
:1015B0003D103E10D8A4DFEF0AF0E1EF0AF049EF4A
:1015C0000AF032BEEEEF0AF0325006E13104D8B034
:1015D000ECEF0AF0EEEF0AF049EF0AF034BEF9EF53
:1015E0000AF0345008E13304D8A0F9EF0AF0FBEF19
:1015F0000AF003EF0BF00001DCB301EF0BF003EF97
:101600000BF049EF0AF035503610D8A40AEF0BF072
:101610000CEF0BF014EF0BF00001DCA512EF0BF058
:1016200014EF0BF032EF0BF03F06D8A04006355018
:101630003610D8A41EEF0BF020EF0BF026EF0BF0C6
:10164000000E306E2B0E2F6E2AEF0BF0000E306E58
:101650002D0E2F6E3C0E3F24D96E010E4020DA6E07
:101660002FC0DFFF1DC012F01EC013F03C0E3F2440
:10167000146E010E4020156E33C016F034C017F002
:10168000A3EC10F012C01DF013C01EF01200116E7A
:101690001150D8B44EEF0BF050EF0BF072EF0BF08F
:1016A0000CBE57EF0BF055EF0BF072EF0BF009C0CB
:1016B0000DF00AC00EF00BC00FF00CC010F00D1EA4
:1016C0000E1E0F1E101E0D2A000E0E220F221022BB
:1016D0000DC013F00EC014F00FC015F010C016F0BE
:1016E0007AEF0BF009C013F00AC014F00BC015F02C
:1016F0000CC016F009500A100B100C10D8A483EF80
:101700000BF085EF0BF08FEF0BF0000E096E000E63
:101710000A6E000E0B6E000E0C6E20EF0CF0960E93
:10172000126E99EF0BF0122AD8901632153214323D
:101730001332000E13140D6E000E14140E6E000EF4
:1017400015140F6EFE0E1614106E0D500E100F10A5
:101750001010D8A4AEEF0BF0B0EF0BF093EF0BF03E
:10176000BEEF0BF0122A010E1326000E14221522D2
:101770001622D8901632153214321332000E13147A
:101780000D6E000E14140E6E000E15140F6EFF0E6B
:101790001614106E0D500E100F101010D8A4D3EFA9
:1017A0000BF0D5EF0BF0B2EF0BF0DDEF0BF0120604
:1017B000D890133614361536163615BEE2EF0BF0F8
:1017C000E4EF0BF0ECEF0BF0020E1260EAEF0BF01F
:1017D000ECEF0BF0D7EF0BF012B0F1EF0BF0F3EFF3
:1017E0000BF0F4EF0BF0159ED890123212C00DF0F2
:1017F0000E6A0F6A106A0DC010F00F6A0E6A0D6A49
:101800000D5013120E5014120F50151210501612C4
:101810001150D8B40EEF0CF010EF0CF018EF0CF0E4
:101820000CBE17EF0CF015EF0CF018EF0CF0168E45
:1018300013C009F014C00AF015C00BF016C00CF06C
:10184000120043C0D9FF44C0DAFFDECFF6FFDDCF80
:10185000F7FF0800F550250AD8A431EF0CF033EF5C
:101860000CF0DFEF0CF043C0D9FF44C0DAFFDE2AF2
:10187000000EDD22000E0001D96F000ED86FD8C017
:10188000DCF0D9C0DDF0DA69DB6943C0D9FF44C0C0
:10189000DAFFDECFF6FFDDCFF7FF0800F550640A70
:1018A000D8B455EF0CF057EF0CF069EF0CF043C0D3
:1018B000D9FF44C0DAFFDECFF6FFDDCFF7FF080027
:1018C000F550690AD8A467EF0CF069EF0CF0A9EFA6
:1018D0000CF043C0D9FF44C0DAFFDE2A000EDD223F
:1018E00045C0D9FF46C0DAFFDFCF47F0020EDE2643
:1018F000DFCF48F0000EDD2247C0D9FF48C0DAFF35
:10190000DECF49F0DDCF4AF0000E4ABEFF0E4B6E2F
:101910004C6E4D6E4E6E4F6E506E41C01DF042C00B
:101920001EF049C01FF04AC020F04BC021F04CC04F
:1019300022F04DC023F04EC024F04FC025F050C01F
:1019400026F0D5EC09F01DC041F01EC042F0FAEFC0
:101950000CF043C0D9FF44C0DAFFDECFF6FFDDCF85
:10196000F7FF0800F550250AD8A4B9EF0CF0BBEF3B
:101970000CF0D2EF0CF043C0D9FF44C0DAFFDE2AEE
:10198000000EDD22000E036E250E026E41C004F033
:1019900042C005F03EEC10F0000E426E010E416EAA
:1019A000FAEF0CF043C0D9FF44C0DAFFDE2A000E84
:1019B000DD22000E426E000E416EFAEF0CF043C0C5
:1019C000D9FF44C0DAFFDECFF6FFDDCFF7FF080016
:1019D000F550026E036A41C004F042C005F03EECCF
:1019E00010F043C0D9FF44C0DAFFDE2A000EDD222A
:1019F000CCEF0CF01200000E0001E36F000EE56F5B
:101A0000000E5C6ED0EC13F0E7EC12F0630E3AECD3
:101A100012F0B0EC13F0C0EC13F0000E0001B06F48
:101A2000010EB16FA30EB26F0F0EB36F7D0EB46FC8
:101A30000F0EB56F040EB66F000EB86F630EB76F62
:101A4000000EB96F010EBA6FA00EBB6F0F0EBC6F08
:101A50007F0EBD6F0F0EBE6F060EBF6F000EC16F03
:101A6000630EC06F7C9E80967C86010E8FEC13F017
:101A7000520E0001756F2B0E746F000EE82EFED70C
:101A8000742FFCD7752FFAD700F020EEA0F000EEEF
:101A90000DF0070EDBCFEBFFE806FCE284EC12F062
:101AA00020EEA0F0070EEBCFDBFFE806FCE2090E0C
:101AB0000001756F1E0E746FE40EE82EFED7742FB2
:101AC000FCD7752FFAD700F0F4EC13F020EEA8F055
:101AD00000EE0DF0070EDBCFEBFFE806FCE284EC36
:101AE00012F020EEA8F0070EEBCFDBFFE806FCE2D9
:101AF000AEC09EF0AFC09FF0760E0001606F000E8A
:101B0000616F010E626F0E0E636FE0C064F0E1C0A2
:101B100065F0DEC066F0DFC067F0A6C068F0A7C061
:101B200069F09EC06AF09FC06BF071EC11F0760E08
:101B3000036E000E046E3BEC13F0190E0001756F7E
:101B40005A0E746FB10EE82EFED7742FFCD7752F86
:101B5000FAD700D020EEA8F000EE17F0070EDBCF8A
:101B6000EBFFE806FCE208EC07F00001746F744735
:101B70007447744780507419F70B7419806E66EFC0
:101B80000DF013EF00F0000E136E11BECCEF0DF050
:101B9000CAEF0DF0DEEF0DF0111E101E0F1E0E1E0F
:101BA0000D1E0C1E0B1E0A6C000E0B220C220D22A9
:101BB0000E220F2210221122010E136E09BEE5EF34
:101BC0000DF0E3EF0DF0F7EF0DF0091E081E071EF4
:101BD000061E051E041E031E026C000E03220422B4
:101BE00005220622072208220922010E131A20EEDE
:101BF00014F0070EDE6AE806FDE20A500B100C1026
:101C00000D100E100F1010101110D8B40AEF0EF0B6
:101C10000CEF0EF05EEF0EF0010E126E1AEF0EF0EA
:101C2000D8900A360B360C360D360E360F36103677
:101C30001136122A11AE1FEF0EF021EF0EF010EF49
:101C40000EF0D89014361536163617361836193663
:101C50001A361B360A50025C0B5003580C500458BD
:101C60000D5005580E5006580F5007581050085880
:101C700011500958D8A03FEF0EF041EF0EF052EF8F
:101C80000EF00A50025E0B50035A0C50045A0D50CD
:101C9000055A0E50065A0F50075A1050085A115044
:101CA000095A1480D890113210320F320E320D3290
:101CB0000C320B320A32122E21EF0EF01350D8B430
:101CC00064EF0EF066EF0EF076EF0EF01B1E1A1E9C
:101CD000191E181E171E161E151E146C000E152236
:101CE00016221722182219221A221B2214C002F0CF
:101CF00015C003F016C004F017C005F018C006F0B8
:101D000019C007F01AC008F01BC009F01200000E3D
:101D1000136E09BE90EF0EF08EEF0EF0A2EF0EF0F4
:101D2000091E081E071E061E051E041E031E026C49
:101D3000000E03220422052206220722082209227D
:101D4000010E136E11BEA9EF0EF0A7EF0EF0B9EF62
:101D50000EF0111E101E0F1E0E1E0D1E0C1E0B1E51
:101D60000A6C000E0B220C220D220E220F221022D2
:101D700011220A500B100C100D100E100F10101025
:101D80001110D8B4C6EF0EF0C8EF0EF010EF0FF040
:101D9000010E126ED6EF0EF0D8900A360B360C36C6
:101DA0000D360E360F3610361136122A11AEDBEF15
:101DB0000EF0DDEF0EF0CCEF0EF00A50025C0B508F
:101DC00003580C5004580D5005580E5006580F502B
:101DD00007581050085811500958D8A0F2EF0EF0CB
:101DE000F4EF0EF004EF0FF00A50025E0B50035AAE
:101DF0000C50045A0D50055A0E50065A0F50075AEF
:101E00001050085A1150095AD890113210320F321E
:101E10000E320D320C320B320A32122EDDEF0EF082
:101E20001350D8B416EF0FF018EF0FF028EF0FF0A3
:101E3000091E081E071E061E051E041E031E026C38
:101E4000000E03220422052206220722082209226C
:101E500002C002F003C003F004C004F005C005F0A6
:101E600006C006F007C007F008C008F009C009F076
:101E70001200043405340B6E0B50D8A442EF0FF05F
:101E800044EF0FF04EEF0FF0000E026E000E036EE7
:101E9000000E046E000E056EBBEF0FF002C006F0E0
:101EA00003C007F004C008F005C009F0200E5EEF83
:101EB0000FF0D8900932083207320632E82E59EF77
:101EC0000FF006500A6E048EFF0E0216FF0E031668
:101ED000FF0E0416000E0516960E0B5E0BBE75EF78
:101EE0000FF073EF0FF08BEF0FF00B50800A970F8E
:101EF000D8B07DEF0FF07FEF0FF081EF0FF044EFE0
:101F00000FF0D89005320432033202320B3E81EFDB
:101F10000FF0A3EF0FF01F0E0B6491EF0FF093EF94
:101F20000FF09BEF0FF044EF0FF0D890023603361E
:101F3000043605360B060B50D8A4A1EF0FF0A3EF23
:101F40000FF095EF0FF00A50D8B4A9EF0FF0ABEFF8
:101F50000FF0B3EF0FF0051E041E031E026C000EFF
:101F600003220422052202C002F003C003F004C0D1
:101F700004F005C005F01200000E02140A6E000EF7
:101F800003140B6E800E04140C6E7F0E05140D6E80
:101F90000A500B100C100D10D8A4D1EF0FF0D3EF96
:101FA0000FF0DBEF0FF0000E026E000E036E000E5E
:101FB000046E000E056E000E06140A6E000E071465
:101FC0000B6E800E08140C6E7F0E09140D6E0A50F5
:101FD0000B100C100D10D8A4F0EF0FF0F2EF0FF073
:101FE000FAEF0FF0000E066E000E076E000E086E80
:101FF000000E096E05AEFFEF0FF001EF10F00AEFD3
:1020000010F0026C031ED8B0032A041ED8B0042AB4
:10201000800E055609AE0FEF10F011EF10F01AEF19
:1020200010F0066C071ED8B0072A081ED8B0082A80
:10203000800E0956000E021A000E031A000E041A32
:10204000800E051A000E061A000E071A000E081A56
:10205000800E091A0650025C0750035808500458B5
:1020600009500558D8B037EF10F039EF10F03CEFB9
:1020700010F0D8903DEF10F0D880120004500510F9
:10208000D8B445EF10F047EF10F050EF10F00450C7
:102090000510D8A44EEF10F050EF10F055EF10F0EF
:1020A00002501BEC14F0A2EF10F020EE04F00450EC
:1020B000D9260550DA22DE50DE10D8B462EF10F0D7
:1020C00064EF10F07FEF10F020EE04F00450D926FA
:1020D0000550DA2210EE02F00450E1260550E2220B
:1020E000DE50E65CE650800A0A6EDE50800A0A582E
:1020F000D8B07DEF10F07FEF10F0A2EF10F020EEDF
:1021000002F00450D9260550DA22DECF06F0DDCFEA
:1021100007F004C0D9FF05C0DAFFDECF08F0DDCF3D
:1021200009F006500824D96E07500920DA6E02C063
:10213000DFFF20EE02F00450D9260550DA22DE2A15
:10214000000EDD2212000001DCA1A9EF10F0ABEFC0
:1021500010F0B5EF10F014C00BF015C00CF012C069
:102160000DF013C00EF062EC12F017BEBAEF10F0D3
:10217000BCEF10F0C2EF10F016C01BF017C01CF03F
:10218000C6EF10F0000E1C6E000E1B6E000E1A6ED5
:10219000000E196ED8EF10F0000E036E200E026EC6
:1021A00012C004F013C005F03EEC10F0194A1A2AD0
:1021B0001B50195C1A50800A186E1C50800A18585F
:1021C000D8A0E5EF10F0E7EF10F0CCEF10F0000131
:1021D000DCB1EDEF10F0EFEF10F0F9EF10F014C0FC
:1021E0000BF015C00CF012C00DF013C00EF062EC35
:1021F00012F014C002F015C003F007EC13F01B50EE
:102200000224126E1C500320136E1200000E076E83
:10221000000E066E04500510D8B411EF11F013EF44
:1022200011F03BEF11F0010E086E1BEF11F0D8908A
:1022300004360536082A05AE20EF11F022EF11F022
:1022400017EF11F0D890063607360450025C05509F
:102250000358D8A02EEF11F030EF11F035EF11F048
:102260000450025E0550035A0680D89005320432AD
:10227000082E22EF11F006C002F007C003F0120092
:1022800053C057F054C058F0000E0001D76F000E35
:10229000D66F5EEF11F051C041F052C042F0570EC0
:1022A000436E000E446E55C045F056C046F021EC1A
:1022B0000CF041500001D6274250D72357C0F6FFFB
:1022C00058C0F7FF0800F5500009D8A46AEF11F0D4
:1022D0006CEF11F04BEF11F0D6C051F0D7C052F0B7
:1022E0001200640E00016C6F000E6D6F60C06EF026
:1022F00061C06FF0000E716F000E706F000E736F93
:10230000000E726F6E0E516E000E526E62C053F070
:1023100063C054F06C0E556E000E566E40EC11F01A
:10232000000170516025D96E71516121DA6E000E85
:10233000DF6E120011EC14F0520EFBEC13F0B60E2F
:10234000FBEC13F007EC14F0530EFBEC13F0010E52
:10235000A6EC12F0086E08500B6E0C6A000EA6EC8C
:1023600012F0086E08500A6E096A0B5009100B6EC5
:102370000C500A100C6E0CEC14F00BC006F00CC0E4
:1023800007F0120011EC14F0520EFBEC13F0B80E33
:10239000FBEC13F007EC14F0530EFBEC13F0010E02
:1023A000A6EC12F0086E08500B6E0C6A000EA6EC3C
:1023B00012F0086E08500A6E096A0B5009100B6E75
:1023C0000C500A100C6E0CEC14F00BC006F00CC094
:1023D00007F0120011EC14F0520EFBEC13F0B40EE7
:1023E000FBEC13F007EC14F0530EFBEC13F0010EB2
:1023F000A6EC12F0086E08500B6E0C6A000EA6ECEC
:1024000012F0086E08500A6E096A0B5009100B6E24
:102410000C500A100C6E0CEC14F00BC006F00CC043
:1024200007F0120011EC14F0520EFBEC13F0BA0E90
:10243000FBEC13F007EC14F0530EFBEC13F0010E61
:10244000A6EC12F0086E08500B6E0C6A000EA6EC9B
:1024500012F0086E08500A6E096A0B5009100B6ED4
:102460000C500A100C6E0CEC14F00BC006F00CC0F3
:1024700007F01200026EBD508F0B4009BD6EE00EDA
:10248000BE16BF50F00B0109BF6E02C0BCFFBD8E6F
:1024900085948598839E879C7D947D987B9E7F9C68
:1024A000000EA36E000EA06EA48EA18E0A0E0E0169
:1024B000746F0B0E696F01EC14F016EC14F0E9EC7C
:1024C00013F01200000E116E000E106E73EF12F07A
:1024D0000FC002F0036A0DC004F00EC005F03EEC20
:1024E00010F0104A112A10500B24D96E11500C20F4
:1024F000DA6EDF500F6E0F50D8A481EF12F083EF29
:1025000012F068EF12F012009AEC11F006C00DF014
:1025100007C00EF0C2EC11F006C00FF007C010F0BB
:1025200012EC12F006C011F007C012F0EAEC11F044
:1025300006C013F007C014F020EE0DF000EE0DF011
:10254000070EDBCFEBFFE806FCE21200046E68EC3E
:1025500013F00E01DA8768EC13F0D5CE05F068ECC5
:1025600013F00450D8B4B7EF12F0BBEF12F0036AC7
:10257000032ABCEF12F0036A033A03460E01DA5154
:102580000318DF0B0318DA6FDA890550120015BE45
:10259000D4EF12F0155006E11404D8B0D2EF12F0C7
:1025A000D4EF12F0E2EF12F014C016F015C017F0DD
:1025B000161E171E164A172A16C014F017C015F05B
:1025C000E6EF12F014C014F015C015F0120053EC31
:1025D00013F0010E046E000EA0EC13F03F0E066E19
:1025E000550EE82EFED7062EFCD700F0030E046E23
:1025F000000EA0EC13F0D50E046E010EA0EC13F04B
:1026000087928198869E000E8FEC13F0120002C014
:1026100004F003C005F00FEF13F0024A032A02C0D2
:10262000D9FF03C0DAFFDF50D8A419EF13F01BEF76
:1026300013F00DEF13F00450025C026E05500358C6
:10264000036E120001EE00F05C0EEE6AE806FDE19A
:1026500000EEC2F0240EEE6AE806FDE15C6A5B6AF9
:102660005A6A596A5D905D92000EF86E0E0EF76E12
:102670000001FBEF0CF046EF13F003C0D9FF04C0DC
:10268000DAFFDF50DDEC13F0034A042A03C0D9FF60
:1026900004C0DAFFDF50D8A450EF13F052EF13F06C
:1026A0003DEF13F012000E01D951F00B0809D96F5C
:1026B000D98B9F0ED66F848A848CA79BA79D1D0EF5
:1026C0001D6F1E0E1C6F1C0E6F6F1B0E706F1200A5
:1026D0000E01D8B56EEF13F070EF13F068EF13F042
:1026E000DACE02F01F0E0216D8A479EF13F07BEFBA
:1026F00013F068EF13F012000E0133AB82EF13F00A
:1027000084EF13F08DEF13F0010E0001E26FFD0E68
:10271000D46E8F0ED36E0E01339B5D921100026E4C
:1027200002B002D07F9201D07F8202B002D07E9EA2
:1027300001D07E8E02B002D0799801D07988120043
:10274000056E11EC14F0520EFBEC13F005508009ED
:10275000FBEC13F00450FBEC13F00CEC14F0120043
:10276000120E0E01626F110E156F8382E997E895C4
:10277000330EE56F000EE66FE789E88BE78F1200F6
:10278000D6501F0B4009D66ED688D650F00B0809DC
:10279000D66ED588FD0ED46E8F0ED36ED58E1200F8
:1027A000868C0E01B48D0F015899FC0E58172E0E11
:1027B0005F6F60946088608E1200026E0E0137A514
:1027C000E4EF13F0E6EF13F0DEEF13F002C0E4FEE7
:1027D00012008892849684988690889080927C9645
:1027E0007C987E90809012000E01298B1F83F28AC4
:1027F000F28CF28E1200036E68EC13F003C0D5FE6B
:102800001200868486860E01B495B497120068EC97
:1028100013F00E01DA83120068EC13F00E01DA8572
:10282000120068EC13F00E01DA811200849E889683
:082830007C9E8096120012004C
:020000040020DA
:10000000FF0FFF0FFF0FFF0FFF0FFF0FFF0FFF0F80
:020000040030CA
:0C000000AAFFFFFF9FFFFFFFFFFFFFFFB5
:00000001FF
