:040000002EEF00F0EF
:060008005682AEEF1BF072
:100018005680D8CF07F0E8CF08F0E0CF09F00E01FE
:1000280033AB19EF00F01BEF00F026EF00F0010EE4
:100038000001B56F010EB46F0B0ED46EDB0ED36EDC
:100048000E01339B09C0E0FF08C0E8FF07C0D8FFD6
:08005800569010005DEF1CF052
:100E000000524742433A2025692025692025692060
:100E100025692020202020524742435F72656C3AAA
:100E200020252E336620252E336620252E3366207E
:100E300020202020436F6C6F75723A2025730A0DB5
:100E400000524742433A2025692025692025692020
:100E5000256920202020205468726573686F6C64B7
:100E60003A2025692025692025690A0D006C6967EB
:100E7000687420626C756500756E6B6E6F776E00BE
:100E80006F72616E67650079656C6C6F770077686B
:100E900069746500677265656E0070696E6B0072DB
:100EA000656400000E01299383C015F084C016F01C
:100EB000EAEC19F083C06DF084C06EF08B0E000177
:100EC0006F6F000E706F77EC16F0710E186E3D0E9E
:100ED000196E0A0E1A6E3F0E1B6E8BC01CF08CC072
:100EE0001DF08DC01EF08EC01FF0E0EC17F0D8B0E2
:100EF0007CEF07F07EEF07F029EF08F08FC018F0C5
:100F000090C019F091C01AF092C01BF0480E1C6EF0
:100F1000E10E1D6E7A0E1E6E3E0E1F6EE0EC17F097
:100F2000D8B095EF07F097EF07F029EF08F093C0DE
:100F300018F094C019F095C01AF096C01BF0EC0E92
:100F40001C6E510E1D6E380E1E6E3E0E1F6EE0ECB6
:100F500017F0D8B0AEEF07F0B0EF07F029EF08F0C8
:100F600083C017F084C018F0030E196E35EC17F02B
:100F700083C06DF084C06EF08B0E00016F6F000EA9
:100F8000706F77EC16F08FC018F090C019F091C018
:100F90001AF092C01BF0A40E1C6E700E1D6E3D0E5A
:100FA0001E6E3E0E1F6EE0EC17F0D8B0DAEF07F0C1
:100FB000DCEF07F004EF08F085C029F086C02AF0C6
:100FC00087C02BF088C02CF019EC1AF085C07DF09A
:100FD00086C07EF087C07FF088C080F0000E0001E0
:100FE000826F5A0E816F48EC1AF085C023F086C0DC
:100FF00024F087C025F088C026F0A5EC19F0000E7B
:101000000001B66F54EF0BF085C029F086C02AF0BE
:1010100087C02BF088C02CF019EC1AF085C07DF049
:1010200086C07EF087C07FF088C080F0000E00018F
:10103000826F870E816F48EC1AF085C023F086C05E
:1010400024F087C025F088C026F0A5EC19F0FFEF4A
:1010500007F08BC018F08CC019F08DC01AF08EC04C
:101060001BF0AE0E1C6E470E1D6EE10E1E6E3E0E88
:101070001F6EE0EC17F0D8B040EF08F042EF08F038
:101080003BEF09F09A0E186E990E196E990E1A6EB2
:101090003E0E1B6E8FC01CF090C01DF091C01EF064
:1010A00092C01FF0E0EC17F0D8B059EF08F05BEFFA
:1010B00008F03BEF09F0140E186EAE0E196E470ED5
:1010C0001A6E3E0E1B6E93C01CF094C01DF095C0AE
:1010D0001EF096C01FF0E0EC17F0D8B072EF08F0E9
:1010E00074EF08F03BEF09F083C017F084C018F0EC
:1010F000010E196E35EC17F083C06DF084C06EF0F0
:101100008B0E00016F6F000E706F77EC16F093C0BE
:1011100018F094C019F095C01AF096C01BF0000E9C
:101120001C6E000E1D6E000E1E6E3E0E1F6EE0EC5D
:1011300017F0D8B09EEF08F0A0EF08F0C5EF08F068
:1011400085C029F086C02AF087C02BF088C02CF01B
:1011500019EC1AF085C07DF086C07EF087C07FF064
:1011600088C080F0000E0001826F5A0E816F70EC13
:101170001AF085C023F086C024F087C025F088C00F
:1011800026F0A5EC19F0FFEF07F083C017F084C03C
:1011900018F0020E196E35EC17F083C06DF084C0A4
:1011A0006EF08B0E00016F6F000E706F77EC16F013
:1011B0008BC018F08CC019F08DC01AF08EC01BF0D7
:1011C0001F0E1C6E850E1D6EEB0E1E6E3D0E1F6EED
:1011D000E0EC17F0D8B0EFEF08F0F1EF08F016EF01
:1011E00009F085C029F086C02AF087C02BF088C09E
:1011F0002CF019EC1AF085C07DF086C07EF087C017
:101200007FF088C080F0000E0001826FB40E816F05
:1012100048EC1AF085C023F086C024F087C025F082
:1012200088C026F0A5EC19F0FFEF07F085C029F083
:1012300086C02AF087C02BF088C02CF019EC1AF079
:1012400085C07DF086C07EF087C07FF088C080F0CA
:10125000000E0001826F870E816F70EC1AF085C05E
:1012600023F086C024F087C025F088C026F0A5ECC6
:1012700019F0FFEF07F0480E186EE10E196EFA0E26
:101280001A6E3E0E1B6E8BC01CF08CC01DF08DC004
:101290001EF08EC01FF0E0EC17F0D8B052EF09F04E
:1012A00054EF09F0CEEF09F0850E186EEB0E196EB3
:1012B000910E1A6E3E0E1B6E8FC01CF090C01DF07A
:1012C00091C01EF092C01FF0E0EC17F0D8B06BEFA9
:1012D00009F06DEF09F0CEEF09F0EC0E186E510E2B
:1012E000196E380E1A6E3E0E1B6E93C01CF094C021
:1012F0001DF095C01EF096C01FF0E0EC17F0D8B0BE
:1013000084EF09F086EF09F0CEEF09F085C023F0F5
:1013100086C024F087C025F088C026F05EEC19F066
:10132000720E00018A6FA30E896F9B0EE82EFED706
:10133000892FFCD78A2FFAD785C023F086C024F0E6
:1013400087C025F088C026F0A5EC19F0090E000131
:101350008A6F1E0E896FE40EE82EFED7892FFCD708
:101360008A2FFAD700F085C07DF086C07EF087C056
:101370007FF088C080F0000E0001826F5A0E816FEE
:1013800048EC1AF085C023F086C024F087C025F011
:1013900088C026F0A5EC19F0FFEF07F0480E186E94
:1013A000E10E196EFA0E1A6E3E0E1B6E8BC01CF00B
:1013B0008CC01DF08DC01EF08EC01FF0E0EC17F049
:1013C000D8B0E5EF09F0E7EF09F057EF0AF08FC06A
:1013D00018F090C019F091C01AF092C01BF0CD0E19
:1013E0001C6ECC0E1D6E8C0E1E6E3E0E1F6EE0EC43
:1013F00017F0D8B0FEEF09F000EF0AF057EF0AF04F
:10140000140E186EAE0E196E470E1A6E3E0E1B6E3F
:1014100093C01CF094C01DF095C01EF096C01FF044
:10142000E0EC17F0D8B017EF0AF019EF0AF057EF19
:101430000AF085C023F086C024F087C025F088C05C
:1014400026F05EEC19F0720E00018A6FA30E896F10
:101450009B0EE82EFED7892FFCD78A2FFAD785C09E
:1014600023F086C024F087C025F088C026F0A5ECC4
:1014700019F0090E00018A6F1E0E896FE40EE82E26
:10148000FED7892FFCD78A2FFAD700F085C07DF0D0
:1014900086C07EF087C07FF088C080F0000E00011B
:1014A000826F5A0E816F70EC1AF0C2EF09F08BC098
:1014B00018F08CC019F08DC01AF08EC01BF0D70E3A
:1014C0001C6EA30E1D6EF00E1E6E3E0E1F6EE0EC27
:1014D00017F0D8B06EEF0AF070EF0AF0CCEF0AF018
:1014E0003D0E186E0A0E196E970E1A6E3E0E1B6E8A
:1014F0008FC01CF090C01DF091C01EF092C01FF074
:10150000E0EC17F0D8B087EF0AF089EF0AF0CCEFE3
:101510000AF03D0E186E0A0E196E570E1A6E3E0E28
:101520001B6E93C01CF094C01DF095C01EF096C0B9
:101530001FF0E0EC17F0D8B0A0EF0AF0A2EF0AF02D
:10154000CCEF0AF085C029F086C02AF087C02BF0C6
:1015500088C02CF019EC1AF085C07DF086C07EF0B2
:1015600087C07FF088C080F0000E0001826FB40E4B
:10157000816F48EC1AF085C023F086C024F087C044
:1015800025F088C026F0A5EC19F0000E0001B66F1A
:10159000010EB56F54EF0BF0520E00018A6F2B0E47
:1015A000896F000EE82EFED7892FFCD78A2FFAD735
:1015B00000F085C023F086C024F087C025F088C0E5
:1015C00026F017EC19F0D00E0001896FC90EE82E35
:1015D000FED7892FFCD700D085C023F086C024F029
:1015E00087C025F088C026F0A5EC19F083C015F05F
:1015F00084C016F0EAEC19F0000120EE06F08351E9
:10160000D9268451DA225450DE5C5550DE58D8A0D9
:101610000CEF0BF00EEF0BF01FEF0BF020EE06F0CF
:101620008351D9268451DA22DE50525CDE50535861
:10163000D8B01DEF0BF01FEF0BF0FFEF07F0030E1C
:10164000B66125EF0BF027EF0BF02DEF0BF00E013D
:1016500033830001B62B54EF0BF0808685C07DF0FC
:1016600086C07EF087C07FF088C080F0000E826F59
:10167000B40E816F48EC1AF085C023F086C024F0C8
:1016800087C025F088C026F0A5EC19F00001B551FF
:10169000D8B44DEF0BF050EF0BF0010E51EF0BF003
:1016A000000EB56FFFEF07F00E01298312003450D2
:1016B000800B3D6E345034243F6E33AE62EF0BF03E
:1016C00064EF0BF065EF0BF03F803F50D8B46BEF49
:1016D0000BF06DEF0BF082EF0BF03F28D8A473EF07
:1016E0000BF075EF0BF07DEF0BF0000E316E000E7E
:1016F000326E000E336E000E346E338E000E346E7A
:101700008AEF0BF0000E316E000E326E000E336E5B
:10171000000E346E3850800B3E6E3D503E18D8B4EB
:1017200094EF0BF096EF0BF097EF0BF03D8C3850E9
:1017300038243E6E37AE9FEF0BF0A1EF0BF0A2EF17
:101740000BF03E803E50D8B4A8EF0BF0AAEF0BF0A0
:10175000BFEF0BF03E28D8A4B0EF0BF0B2EF0BF0C8
:10176000BAEF0BF0000E356E000E366E000E376EBF
:10177000000E386E378E000E386EC7EF0BF0000E7D
:10178000356E000E366E000E376E000E386E3F500E
:101790003E5CD8B0CEEF0BF0D0EF0BF0F7EF0BF0D4
:1017A0003DACD5EF0BF0D7EF0BF0D9EF0BF0800E7F
:1017B0003D1A3FC040F03EC03FF040C03EF031C057
:1017C00040F035C031F040C035F032C040F036C096
:1017D00032F040C036F033C040F037C033F040C084
:1017E00037F034C040F038C034F040C038F0000E5C
:1017F000406E3F503EC039F03A6A395E000E3A5AA8
:101800003ABE0CEF0CF03A5009E11A0E395CD8A040
:101810000CEF0CF00EEF0CF045EF0CF031503210E5
:1018200033103410D8A417EF0CF01AEF0CF0010E9F
:101830001BEF0CF0000E406E000E316E000E326E8B
:10184000000E336E000E346E3EC03FF04EEF0CF0D3
:1018500040A02DEF0CF02FEF0CF035EF0CF0D890EE
:1018600040300109406E37EF0CF0D890403231A083
:101870003CEF0CF03EEF0CF03FEF0CF0408E3434B8
:1018800034323332323231323F2A3E503F5CD8A0BC
:101890004CEF0CF04EEF0CF028EF0CF03DBC53EF8A
:1018A0000CF055EF0CF095EF0CF03F50D8A45BEF27
:1018B0000CF05DEF0CF067EF0CF0000E316E000ED7
:1018C000326E000E336E000E346EB6EF0DF03550F2
:1018D000312636503222375033223850342234A049
:1018E00074EF0CF076EF0CF022EF0DF040A07BEFE0
:1018F0000CF07DEF0CF083EF0CF0D8904030010934
:10190000406E85EF0CF0D890403231A08AEF0CF099
:101910008CEF0CF08DEF0CF0408E343434323332D7
:10192000323231323F2A22EF0DF03550315C3650E1
:101930003258375033583450800A396E3850800A44
:101940003958D8B0A6EF0CF0A8EF0CF0D3EF0CF09C
:101950003150355C396E325036583A6E3350375804
:101960003B6E345038583C6EFF0E3924316EFF0EFA
:101970003A20326EFF0E3B20336EFF0E3C20346E59
:10198000800E3D1A406C4050D8A4C9EF0CF0CBEF4C
:101990000CF0DBEF0CF0010E3126000E3222332268
:1019A0003422DBEF0CF03550315E3650325A37506E
:1019B000335A3850345A3150321033103410D8A4BE
:1019C000E4EF0CF0E6EF0CF01BEF0DF04050D8A464
:1019D000ECEF0CF0EEEF0CF01BEF0DF0000E316EA3
:1019E000000E326E000E336E000E346EB6EF0DF048
:1019F000D890313632363336343640AE02EF0DF001
:101A000004EF0DF005EF0DF0318040A00AEF0DF06E
:101A10000CEF0DF010EF0DF0D880403612EF0DF006
:101A2000D89040363F50D8B418EF0DF01AEF0DF0B3
:101A30001BEF0DF03F0633AE20EF0DF022EF0DF05F
:101A4000F8EF0CF0000E3E6E40AE29EF0DF02BEFDC
:101A50000DF043EF0DF040C039F07F0E3916D8B4C9
:101A600034EF0DF036EF0DF03AEF0DF0010E3E6E53
:101A700043EF0DF031A03FEF0DF041EF0DF043EFDC
:101A80000DF036EF0DF03E50D8B449EF0DF04BEFAE
:101A90000DF076EF0DF0010E3126000E32223322CA
:101AA000342234A056EF0DF058EF0DF076EF0DF024
:101AB00031C039F032C03AF033C03BF034C03CF0B2
:101AC0003C343C323B323A32393239C031F03AC0E0
:101AD00032F03BC033F03CC034F03F28D8B473EF51
:101AE0000DF075EF0DF076EF0DF03F2A3F28D8B4DA
:101AF0007CEF0DF07EEF0DF086EF0DF03F50D8A497
:101B000084EF0DF086EF0DF098EF0DF0000E316EC2
:101B1000000E326E000E336E000E346E3F50D8A4AD
:101B200094EF0DF096EF0DF098EF0DF0000E3D6E76
:101B30003FA09DEF0DF09FEF0DF0A2EF0DF0338E63
:101B4000A3EF0DF0339ED8903F30346E3DAEABEF37
:101B50000DF0ADEF0DF0AEEF0DF0348E31C031F081
:101B600032C032F033C033F034C034F012001B50B6
:101B7000800B246E1B501B242A6E1AAEC2EF0DF090
:101B8000C4EF0DF0C5EF0DF02A802A50D8B4CBEF8A
:101B90000DF0CDEF0DF0E0EF0DF02A28D8A4D3EF33
:101BA0000DF0D5EF0DF0DDEF0DF0000E186E000E0C
:101BB000196E000E1A6E000E1B6E1A8EE8EF0DF0F5
:101BC000000E186E000E196E000E1A6E000E1B6EBF
:101BD0001F50800B241A1F501F24296E1EAEF3EFD6
:101BE0000DF0F5EF0DF0F6EF0DF029802950D8B487
:101BF000FCEF0DF0FEEF0DF011EF0EF02928D8A448
:101C000004EF0EF006EF0EF00EEF0EF0000E1C6E5D
:101C1000000E1D6E000E1E6E000E1F6E1E8E19EF42
:101C20000EF0000E1C6E000E1D6E000E1E6E000EDD
:101C30001F6E2950D8B41FEF0EF021EF0EF029EFE0
:101C40000EF02A50D8A427EF0EF029EF0EF033EF54
:101C50000EF0000E186E000E196E000E1A6E000EB9
:101C60001B6ECBEF0FF01E501802F3CF2FF0F4CF06
:101C700030F02F50256E266A276A286A30502B6E66
:101C80002C6A2D6A2E6A1D501902F3CF2FF0F4CF63
:101C900030F02F502526000E2622272228223050F1
:101CA0002B26000E2C222D222E221C501A02F3CF9E
:101CB0002FF0F4CF30F02F502526000E26222722B9
:101CC000282230502B26000E2C222D222E2227C017
:101CD00028F026C027F025C026F0256A1C501902DE
:101CE000F3CF2FF0F4CF30F02F502526305026229E
:101CF000000E2722000E28221D501802F3CF2FF0CD
:101D0000F4CF30F02F50252630502622000E272207
:101D1000000E282227C028F026C027F025C026F074
:101D2000256A1C501802F3CF2FF0F4CF30F02F505B
:101D3000252630502622000E2722000E28221E5073
:101D40001902F3CF2FF0F4CF30F02F502B26305064
:101D50002C22000E2D22000E2E221D501A02F3CF2F
:101D60002FF0F4CF30F02F502B2630502C22000EC5
:101D70002D22000E2E221E501A02F3CF2FF0F4CF88
:101D800030F02F50206E3050216E226A236A22C01C
:101D900023F021C022F020C021F0206A20502B2601
:101DA00021502C2222502D2223502E2225C020F0FB
:101DB00026C021F027C022F028C023F0190EE6EF3C
:101DC0000EF0D8902332223221322032E82EE1EF79
:101DD0000EF020502B2621502C2222502D22235051
:101DE0002E2227C028F026C027F025C026F0256A1D
:101DF00029502AC020F0216A2026000E2122820EBE
:101E000020242F6EFF0E2120306E1CEF0FF0D89093
:101E10002B362C362D362E3628AE11EF0FF013EF61
:101E20000FF014EF0FF02B80D8902536263627368A
:101E300028362F06D8A030062DAE21EF0FF023EF65
:101E40000FF007EF0FF0000E296E28AE2AEF0FF00B
:101E50002CEF0FF050EF0FF0FF0E2514206EFF0E49
:101E60002614216EFF0E2714226E7F0E2814236E77
:101E70002050211022102310D8B441EF0FF043EF6F
:101E80000FF047EF0FF0010E296E50EF0FF02BA06F
:101E90004CEF0FF04EEF0FF050EF0FF043EF0FF05D
:101EA0002950D8B456EF0FF058EF0FF07CEF0FF039
:101EB000010E2B26000E2C222D222E222EA063EFA7
:101EC0000FF065EF0FF07CEF0FF02BC020F02CC06F
:101ED00021F02DC022F02EC023F0233423322232F1
:101EE0002132203220C02BF021C02CF022C02DF056
:101EF00023C02EF02F4A302A30BE87EF0FF030502B
:101F000008E12F28D8A087EF0FF089EF0FF093EFAB
:101F10000FF0000E2B6E000E2C6E800E2D6E7F0EBD
:101F20002E6EC1EF0FF030BEA0EF0FF0305006E183
:101F30002F04D8B09EEF0FF0A0EF0FF0ACEF0FF032
:101F4000000E2B6E000E2C6E000E2D6E000E2E6EEF
:101F5000000E246EC1EF0FF02FC02AF0FF0E2B16DB
:101F6000FF0E2C167F0E2D16000E2E162AA0BBEF8C
:101F70000FF0BDEF0FF0BEEF0FF02D8ED8902A308E
:101F80002E6E24502E122BC018F02CC019F02DC02C
:101F90001AF02EC01BF012004450800B0001646F39
:101FA000445044246B6F43AED8EF0FF0DAEF0FF0DC
:101FB000DBEF0FF06B816B51D8B4E1EF0FF0E3EF83
:101FC0000FF0F8EF0FF06B29D8A4E9EF0FF0EBEF6B
:101FD0000FF0F3EF0FF0000E416E000E426E000E98
:101FE000436E000E446E438E000E446E00EF10F000
:101FF000000E416E000E426E000E436E000E446EE7
:102000004850800B641B485048246C6F47AE0BEF60
:1020100010F00DEF10F00EEF10F06C816C51D8B491
:1020200014EF10F016EF10F02BEF10F06C29D8A47D
:102030001CEF10F01EEF10F026EF10F0000E456EB2
:10204000000E466E000E476E000E486E478E000E64
:10205000486E33EF10F0000E456E000E466E000E17
:10206000476E000E486E4550461047104810D8A4E1
:102070003CEF10F03EEF10F056EF10F0000E416E06
:10208000000E426E000E436E000E446E800E431230
:102090007F0E44126451441241C041F042C042F0EC
:1020A00043C043F044C044F099EF11F06B51D8A401
:1020B0005CEF10F05EEF10F068EF10F0000E416E74
:1020C000000E426E000E436E000E446E99EF11F04A
:1020D0006C516BC049F04A6A495E000E4A5A7F0E45
:1020E0004924656F000E4A20666F41C060F042C00F
:1020F00061F043C062F044C063F0000E416E000E18
:10210000426E000E436E000E446E000E676F000EAE
:10211000686F000E696F000E6A6F000E6C6FC9EF7A
:1021200010F06C51D8B497EF10F099EF10F0B0EFB9
:1021300010F0D8906037613762376337D8904136F6
:102140004236433644366AAFA8EF10F0AAEF10F0DB
:10215000ABEF10F04180D8906737683769376A373E
:102160004550605D46506159475062594850635927
:10217000D8A0BDEF10F0BFEF10F0C8EF10F06A8DDF
:102180004550605F4650615B4750625B4850635BFF
:102190006C2B190E6C65CFEF10F0D1EF10F091EFB2
:1021A00010F06051611162116311D8B4DAEF10F0D0
:1021B000DCEF10F0F4EF10F06781F4EF10F0D8903E
:1021C00041364236433644366AAFE9EF10F0EBEF62
:1021D00010F0ECEF10F04180D8906737683769371E
:1021E0006A376507D8A0660743AEF9EF10F0FBEF3A
:1021F00010F0DFEF10F0000E6C6F6AAF02EF11F01D
:1022000004EF11F028EF11F0FF0E6715496EFF0E75
:1022100068154A6EFF0E69154B6E7F0E6A154C6E7F
:1022200049504A104B104C10D8B419EF11F01BEF65
:1022300011F01FEF11F0010E6C6F28EF11F041A0AB
:1022400024EF11F026EF11F028EF11F01BEF11F041
:102250006C51D8B42EEF11F030EF11F054EF11F0B3
:10226000010E4126000E42224322442244A03BEFAD
:1022700011F03DEF11F054EF11F041C049F042C0B0
:102280004AF043C04BF044C04CF04C344C324B321B
:102290004A32493249C041F04AC042F04BC043F093
:1022A0004CC044F0654B662B66BF5FEF11F0665182
:1022B00008E16529D8A05FEF11F061EF11F06CEF34
:1022C00011F0000E666F6569000E416E000E426EE1
:1022D000000E436E000E446E66BF79EF11F066513A
:1022E00006E16505D8B077EF11F079EF11F087EFCF
:1022F00011F0000E666F000E656F000E416E000E4D
:10230000426E000E436E000E446E000E646F65C098
:102310006BF06BA18EEF11F090EF11F093EF11F0D5
:10232000438E94EF11F0439ED8906B31446E4AEF88
:1023300010F01200000E0001996F010E516E680E30
:10234000506E010E4F6E680E4E6E000E556E000EF2
:10235000546E000E536E000E526E000EB76F000EDC
:10236000B66F000EB56F000EB46F000EA26F010EB7
:10237000A36FA30EA46F0F0EA56F7D0EA66F0F0E99
:10238000A76F040EA86F000EAA6F630EA96F000E50
:10239000AB6F010EAC6FA00EAD6F0F0EAE6F7F0E68
:1023A000AF6F0F0EB06F060EB16F000EB36F630EFE
:1023B000B26FEFEC1CF0F1EC1BF0630E38EC1BF08D
:1023C00092EC1CF0C2EC1CF0B2EC1CF0C4EC18F067
:1023D0008EA4EDEF11F0EFEF11F0F6EF11F08EB6E5
:1023E000F4EF11F0F6EF11F0E8EF11F07C86010E3A
:1023F00081EC1CF0520E0001986F2B0E976F000EAF
:10240000E82EFED7972FFCD7982FFAD700F06FEC65
:102410001CF000019951D8A410EF12F012EF12F045
:1024200020EF12F0B705D8A418EF12F01AEF12F04F
:1024300020EF12F0000EB76F010E996F09EF12F046
:102440009905D8A426EF12F028EF12F09FEF12F0B2
:10245000B705D8A42EEF12F030EF12F09FEF12F074
:10246000A20E236E000E246EAB0E256E000E266E9D
:10247000A5EC19F07E808080A20E236E000E246EE3
:10248000AB0E256E000E266E5EEC19F0090E0001F3
:10249000986F1E0E976FE40EE82EFED7972FFCD78D
:1024A000982FFAD700F0A20E236E000E246EAB0E0A
:1024B000256E000E266EA5EC19F07E908090520ECF
:1024C0000001986F2B0E976F000EE82EFED7972F06
:1024D000FCD7982FFAD700F09A0E0001836F000EF8
:1024E000846FA20E856F000E866FAB0E876F000E95
:1024F000886F52EC07F0520E0001986F2B0E976F09
:10250000000EE82EFED7972FFCD7982FFAD700F0B1
:102510009A0E156E000E166EEAEC19F0640E0001AC
:10252000A025526E000EA121536E6A0EA025546E96
:10253000FF0EA121556E000EB76F09EF12F0A20E2B
:10254000236E000E246EAB0E256E000E266E17EC69
:1025500019F009EF12F02EEF00F0230E356EDB0EAE
:10256000366E7B0E376E420E386E6F0E1C6EF00E9E
:102570001D6E010E1E6E400E1F6E71C00AF072C0FD
:102580000BF00C6A0D6A000E9DEC15F00AC018F0F5
:102590000BC019F00CC01AF00DC01BF0B7EC0DF019
:1025A00018C031F019C032F01AC033F01BC034F03B
:1025B00057EC0BF031C077F032C078F033C079F0CF
:1025C00034C07AF0000E1C6E000E1D6EB40E1E6E2E
:1025D000430E1F6E77C018F078C019F079C01AF05A
:1025E0007AC01BF0B7EC0DF018C041F019C042F0F2
:1025F0001AC043F01BC044F04EC00AF04FC00BF0AD
:10260000000E0BBEFF0E0C6E0D6E010E9DEC15F054
:102610000AC045F00BC046F00CC047F00DC048F0B2
:10262000CCEC0FF041C073F042C074F043C075F0C1
:1026300044C076F0000120EE01F06D51D9266E51B4
:10264000DA22010EDF6E20EE01F06F51D9267051B3
:10265000DA22000EDF6E808062EF13F06DC0D9FFCA
:102660006EC0DAFF460EDF6038EF13F03AEF13F07A
:1026700040EF13F06DC0D9FF6EC0DAFF0A0EDF26FF
:102680006FC0D9FF70C0DAFF460EDF604AEF13F06B
:102690004CEF13F052EF13F06FC0D9FF70C0DAFFA8
:1026A0000A0EDF266DC018F06EC019F0B3EC14F0FE
:1026B0006FC018F070C019F0B3EC14F0A00E00D089
:1026C000E82EFDD76DC0D9FF6EC0DAFF450EDF647E
:1026D0006CEF13F06EEF13F02EEF13F06FC0D9FF15
:1026E00070C0DAFF450EDF6478EF13F07AEF13F075
:1026F0002EEF13F0000E00017C6F000E7B6F8CEF4D
:1027000013F0150E4D6EC60EE82EFED74D2EFCD7DB
:1027100000D000017B4B7C2B7BC00AF07CC00BF00F
:102720000C6A0D6A000E9DEC15F00AC018F00BC083
:1027300019F00CC01AF00DC01BF073C01CF074C06F
:102740001DF075C01EF076C01FF0E0EC17F0D8A0A9
:10275000ACEF13F0AEEF13F081EF13F080901200A6
:102760004A0E356E0C0E366EFC0E376E410E386E0C
:102770007D0E1C6E3F0E1D6E150E1E6E400E1F6EE2
:1027800071C00AF072C00BF00C6A0D6A000E9DEC6D
:1027900015F00AC018F00BC019F00CC01AF00DC0EB
:1027A0001BF0B7EC0DF018C031F019C032F01AC0B0
:1027B00033F01BC034F057EC0BF031C077F032C06F
:1027C00078F033C079F034C07AF0000E1C6E000E41
:1027D0001D6EB40E1E6E430E1F6E77C018F078C0CB
:1027E00019F079C01AF07AC01BF0B7EC0DF018C0E0
:1027F00041F019C042F01AC043F01BC044F050C071
:102800000AF051C00BF0000E0BBEFF0E0C6E0D6EE9
:10281000010E9DEC15F00AC045F00BC046F00CC04F
:1028200047F00DC048F0CCEC0FF041C073F042C04F
:1028300074F043C075F044C076F0000120EE01F062
:102840006D51D9266E51DA22000EDF6E20EE01F0B6
:102850006F51D9267051DA22010EDF6E7E8065EF4E
:1028600014F06DC0D9FF6EC0DAFF460EDF603BEF9B
:1028700014F03DEF14F043EF14F06DC0D9FF6EC0BB
:10288000DAFF0A0EDF266FC0D9FF70C0DAFF460EEE
:10289000DF604DEF14F04FEF14F055EF14F06FC000
:1028A000D9FF70C0DAFF0A0EDF266DC018F06EC0C7
:1028B00019F0B3EC14F06FC018F070C019F0B3EC5D
:1028C00014F0A00E00D0E82EFDD76DC0D9FF6EC069
:1028D000DAFF450EDF646FEF14F071EF14F031EFA3
:1028E00014F06FC0D9FF70C0DAFF450EDF647BEFD4
:1028F00014F07DEF14F031EF14F0000E00017C6F46
:10290000000E7B6F8FEF14F0150E4D6EC60EE82E85
:10291000FED74D2EFCD700D000017B4B7C2B7BC01B
:102920000AF07CC00BF00C6A0D6A000E9DEC15F0ED
:102930000AC018F00BC019F00CC01AF00DC01BF043
:1029400073C01CF074C01DF075C01EF076C01FF07F
:10295000E0EC17F0D8A0AFEF14F0B1EF14F084EF73
:1029600014F07E90120020EE01F01850D926195074
:10297000DA22DF50D8B4BFEF14F0C1EF14F0F2EF59
:1029800014F018C0D9FF19C0DAFFDF501A6E1A50C0
:102990000A6E0B6A20EE07F01850D9261950DA2279
:1029A000DECF0CF0DDCF0DF04AEC1CF00AC010F0C9
:1029B0000BC011F0000E136E640E126E62EC18F074
:1029C00020EE07F01850D9261950DA22DECF1BF07E
:1029D000DDCF1CF010501B5C216E11501C58226E74
:1029E00015EF15F018C0D9FF19C0DAFFDF501A6EC5
:1029F0001A500A6E0B6A20EE07F01850D9261950AB
:102A0000DA22DECF0CF0DDCF0DF04AEC1CF00AC06C
:102A100010F00BC011F0000E136E640E126E62EC1B
:102A200018F010C021F011C022F020EE02F0185072
:102A3000D9261950DA22DECF1AF0DDCF1BF01AC0EA
:102A4000D9FF1BC0DAFF21C0DFFF20EE01F01850D4
:102A5000D9261950DA22DF50D8B431EF15F033EF10
:102A600015F068EF15F020EE04F01850D926195033
:102A7000DA22DECF1AF0DDCF1BF01AC0D9FF1BC05F
:102A8000DAFF10EE04F01850E1261950E222E6CFEA
:102A90001CF0E5CF1DF01CC0E1FF1DC0E2FFE750B8
:102AA0001E6E10EE06F01850E1261950E222E75093
:102AB0001F6E010E206E1F2A60EF15F0D890203691
:102AC0001F2E5EEF15F020501E10DF6E9CEF15F0EC
:102AD00020EE04F01850D9261950DA22DECF1AF071
:102AE000DDCF1BF01AC0D9FF1BC0DAFF10EE04F0D7
:102AF0001850E1261950E222E6CF1CF0E5CF1DF078
:102B00001CC0E1FF1DC0E2FFE7501E6E10EE06F094
:102B10001850E1261950E222E7501F6E010E206E78
:102B20001F2A95EF15F0D89020361F2E93EF15F041
:102B30002050FF0A1E14DF6E1200126E1250D8B41D
:102B4000A4EF15F0A6EF15F0C8EF15F00DBEADEF30
:102B500015F0ABEF15F0C8EF15F00AC00EF00BC082
:102B60000FF00CC010F00DC011F00E1E0F1E101E45
:102B7000111E0E2A000E0F22102211220EC014F078
:102B80000FC015F010C016F011C017F0D0EF15F0FF
:102B90000AC014F00BC015F00CC016F00DC017F0F1
:102BA0000A500B100C100D10D8A4D9EF15F0DBEF64
:102BB00015F0E5EF15F0000E0A6E000E0B6E000E1C
:102BC0000C6E000E0D6E76EF16F0960E136EEFEF94
:102BD00015F0132AD8901732163215321432000E1F
:102BE00014140E6E000E15140F6E000E1614106ED7
:102BF000FE0E1714116E0E500F1010101110D8A4E5
:102C000004EF16F006EF16F0E9EF15F014EF16F0EA
:102C1000132A010E1426000E152216221722D89010
:102C20001732163215321432000E14140E6E000EC6
:102C300015140F6E000E1614106EFF0E1714116E81
:102C40000E500F1010101110D8A429EF16F02BEF12
:102C500016F008EF16F033EF16F01306D89014367E
:102C600015361636173616BE38EF16F03AEF16F050
:102C700042EF16F0020E136040EF16F042EF16F02E
:102C80002DEF16F013B047EF16F049EF16F04AEFAC
:102C900016F0169ED890133213C00EF00F6A106A09
:102CA000116A0EC011F0106A0F6A0E6A0E501412EB
:102CB0000F50151210501612115017121250D8B48E
:102CC00064EF16F066EF16F06EEF16F00DBE6DEFC6
:102CD00016F06BEF16F06EEF16F0178E14C00AF0B8
:102CE00015C00BF016C00CF017C00DF012006DC02F
:102CF000D9FF6EC0DAFFDECF71F0DDCF72F00001D8
:102D000020EE02F06D51D9266E51DA22DECF73F03B
:102D1000DDCF74F020EE04F06D51D9266E51DA2229
:102D2000DECF75F0DDCF76F020EE06F06D51D926BE
:102D30006E51DA22DECF77F0DDCF78F071C00AF085
:102D400072C00BF00C6A0D6A000E9DEC15F00AC003
:102D500041F00BC042F00CC043F00DC044F077C00E
:102D60000AF078C00BF00C6A0D6A000E9DEC15F0AD
:102D70000AC045F00BC046F00CC047F00DC048F04B
:102D8000CCEC0FF06FC0D9FF70C0DAFF41C0DEFF9E
:102D900042C0DEFF43C0DEFF44C0DEFF73C00AF066
:102DA00074C00BF00C6A0D6A000E9DEC15F00AC0A1
:102DB00041F00BC042F00CC043F00DC044F077C0AE
:102DC0000AF078C00BF00C6A0D6A000E9DEC15F04D
:102DD0000AC045F00BC046F00CC047F00DC048F0EB
:102DE000CCEC0FF0000120EE04F06F51D9267051A9
:102DF000DA2241C0DEFF42C0DEFF43C0DEFF44C036
:102E0000DEFF75C00AF076C00BF00C6A0D6A000E8A
:102E10009DEC15F00AC041F00BC042F00CC043F02D
:102E20000DC044F077C00AF078C00BF00C6A0D6A50
:102E3000000E9DEC15F00AC045F00BC046F00CC02A
:102E400047F00DC048F0CCEC0FF0000120EE08F088
:102E50006F51D9267051DA2241C0DEFF42C0DEFF39
:102E600043C0DEFF44C0DEFF1200000E81EC1CF008
:102E7000090E1B6E1E0E1A6EE40EE82EFED71A2ED9
:102E8000FCD71B2EFAD700D01904D8A44AEF17F0AC
:102E90004CEF17F07AEF17F07F82520E1B6E2B0E5D
:102EA0001A6E000EE82EFED71A2EFCD71B2EFAD76C
:102EB00000D017C015F018C016F0EAEC19F0520E49
:102EC0001B6E2B0E1A6E000EE82EFED71A2EFCD7A4
:102ED0001B2EFAD700D07F92020E1B6EA00E1A6E28
:102EE000920EE82EFED71A2EFCD71B2EFAD700D052
:102EF000D0EF17F0020E1918D8A481EF17F083EF66
:102F000017F0A5EF17F07988520E1B6E2B0E1A6E74
:102F1000000EE82EFED71A2EFCD71B2EFAD700D0B3
:102F200017C015F018C016F0EAEC19F0520E1B6E1F
:102F30002B0E1A6E000EE82EFED71A2EFCD71B2E73
:102F4000FAD700D079986CEF17F0030E1918D8A4AF
:102F5000ACEF17F0AEEF17F0D0EF17F07E8E520EF9
:102F60001B6E2B0E1A6E000EE82EFED71A2EFCD703
:102F70001B2EFAD700D017C015F018C016F0EAECD7
:102F800019F0520E1B6E2B0E1A6E000EE82EFED795
:102F90001A2EFCD71B2EFAD700D07E9E6CEF17F0AE
:102FA000010E81EC1CF0090E1B6E1E0E1A6EE40E53
:102FB000E82EFED71A2EFCD71B2EFAD700D012000F
:102FC000000E1814206E000E1914216E800E1A14B3
:102FD000226E7F0E1B14236E20502110221023100E
:102FE000D8A4F5EF17F0F7EF17F0FFEF17F0000E8A
:102FF000186E000E196E000E1A6E000E1B6E000E7B
:103000001C14206E000E1D14216E800E1E14226EE4
:103010007F0E1F14236E2050211022102310D8A4DD
:1030200014EF18F016EF18F01EEF18F0000E1C6EDB
:10303000000E1D6E000E1E6E000E1F6E1BAE23EFE7
:1030400018F025EF18F02EEF18F0186C191ED8B0F4
:10305000192A1A1ED8B01A2A800E1B561FAE33EF3B
:1030600018F035EF18F03EEF18F01C6C1D1ED8B0AC
:103070001D2A1E1ED8B01E2A800E1F56000E181ABA
:10308000000E191A000E1A1A800E1B1A000E1C1AB6
:10309000000E1D1A000E1E1A800E1F1A1C50185CFE
:1030A0001D5019581E501A581F501B58D8B05BEFAE
:1030B00018F05DEF18F060EF18F0D89061EF18F09D
:1030C000D8801200000E156E13BE6BEF18F069EF7A
:1030D00018F071EF18F0126C131ED8B0132A010EFD
:1030E000156E11BE78EF18F076EF18F07EEF18F03D
:1030F000106C111ED8B0112A010E151A000E176E91
:10310000000E166E12501310D8B489EF18F08BEF22
:1031100018F0B3EF18F0010E146E93EF18F0D8907A
:1031200012361336142A13AE98EF18F09AEF18F0EF
:103130008FEF18F0D890163617361250105C1350D7
:103140001158D8A0A6EF18F0A8EF18F0ADEF18F0BE
:103150001250105E1350115A1680D890133212324A
:10316000142E9AEF18F01550D8B4B9EF18F0BBEF41
:1031700018F0BFEF18F0166C171ED8B0172A16C03B
:1031800010F017C011F012008EA4C9EF18F0CBEFA9
:1031900018F0D2EF18F08EB6D0EF18F0D2EF18F08A
:1031A000C4EF18F08EB4D7EF18F0D9EF18F0DAEFBB
:1031B00018F07C8E8EB6DFEF18F0E1EF18F0E2EF3A
:1031C00018F080867C86010E81EC1CF0520E186E81
:1031D0002B0E176E000EE82EFED7172EFCD7182EDA
:1031E000FAD700D0190E156E000E166EEAEC19F023
:1031F000520E186E2B0E176E000EE82EFED7172EED
:10320000FCD7182EFAD700D07C96000E81EC1CF06B
:103210007C9E80966A0E1F24546EFF0E2020556EF1
:10322000640E1F24526E000E2020536E120020EEFA
:1032300001F02350D9262450DA22010EDF6E20EE51
:1032400001F02550D9262650DA22010EDF6E45EF17
:1032500019F023C0D9FF24C0DAFF0A0EDF2625C0EB
:10326000D9FF26C0DAFF0A0EDF2623C018F024C0DB
:1032700019F0B3EC14F025C018F026C019F0B3EC27
:1032800014F0A00E00D0E82EFDD723C0D9FF24C033
:10329000DAFF140EDF604FEF19F051EF19F05DEF18
:1032A00019F025C0D9FF26C0DAFF130EDF645BEFEB
:1032B00019F05DEF19F029EF19F0120020EE01F07E
:1032C0002350D9262450DA22000EDF6E20EE01F0C2
:1032D0002550D9262650DA22000EDF6E8CEF19F029
:1032E00023C0D9FF24C0DAFF0A0EDF2625C0D9FF8C
:1032F00026C0DAFF0A0EDF2623C018F024C019F01A
:10330000B3EC14F025C018F026C019F0B3EC14F09B
:10331000A00E00D0E82EFDD723C0D9FF24C0DAFFCD
:10332000320EDF6096EF19F098EF19F0A4EF19F064
:1033300025C0D9FF26C0DAFF310EDF64A2EF19F0F5
:10334000A4EF19F070EF19F012007C88C4EF19F0A7
:1033500023C0D9FF24C0DAFF0A0EDF5E25C0D9FFE3
:1033600026C0DAFF0A0EDF5E23C018F024C019F071
:10337000B3EC14F025C018F026C019F0B3EC14F02B
:10338000A00E00D0E82EFDD723C0D9FF24C0DAFF5D
:10339000DF50D8B4CEEF19F0D0EF19F0DCEF19F010
:1033A00025C0D9FF26C0DAFFDF50D8A4DAEF19F024
:1033B000DCEF19F0A8EF19F0290E286E960E276E93
:1033C0007F0EE82EFED7272EFCD7282EFAD700F046
:1033D0007C98120098EC1AF015C0D9FF16C0DAFFDD
:1033E0000EC0DEFF0FC0DDFFC0EC1AF020EE02F0D1
:1033F0001550D9261650DA220EC0DEFF0FC0DDFFB1
:1034000010EC1BF020EE04F01550D9261650DA22ED
:103410000EC0DEFF0FC0DDFFE8EC1AF020EE06F074
:103420001550D9261650DA220EC0DEFF0FC0DDFF80
:1034300012007C9629C023F02AC024F02BC025F06E
:103440002CC026F05EEC19F01D0E2E6E690E2D6E4E
:10345000A50EE82EFED72D2EFCD72E2EFAD700F083
:1034600029C023F02AC024F02BC025F02CC026F060
:10347000A5EC19F0520E2E6E2B0E2D6E000EE82EBE
:10348000FED72D2EFCD72E2EFAD700D07C96120018
:103490000001B551D8A44FEF1AF051EF1AF061EFC7
:1034A0001AF07DC06DF07EC06EF07FC06FF080C0FE
:1034B00070F081C071F082C072F0ADEC12F06FEF6D
:1034C0001AF07DC06DF07EC06EF07FC06FF080C0DE
:1034D00070F081C071F082C072F0B0EC13F0120095
:1034E0000001B551D8A477EF1AF079EF1AF089EFFF
:1034F0001AF07DC06DF07EC06EF07FC06FF080C0AE
:1035000070F081C071F082C072F0B0EC13F097EFF0
:103510001AF07DC06DF07EC06EF07FC06FF080C08D
:1035200070F081C071F082C072F0ADEC12F0120048
:103530003EEC1DF0520E27EC1DF0B60E27EC1DF0F0
:1035400043EC1DF0530E27EC1DF0010ED0EC1BF0E8
:10355000106E1050136E146A000ED0EC1BF0106E3B
:103560001050126E116A13501110136E1450121075
:10357000146E39EC1DF013C00EF014C00FF01200E1
:103580003EEC1DF0520E27EC1DF0B80E27EC1DF09E
:1035900043EC1DF0530E27EC1DF0010ED0EC1BF098
:1035A000106E1050136E146A000ED0EC1BF0106EEB
:1035B0001050126E116A13501110136E1450121025
:1035C000146E39EC1DF013C00EF014C00FF0120091
:1035D0003EEC1DF0520E27EC1DF0B40E27EC1DF052
:1035E00043EC1DF0530E27EC1DF0010ED0EC1BF048
:1035F000106E1050136E146A000ED0EC1BF0106E9B
:103600001050126E116A13501110136E14501210D4
:10361000146E39EC1DF013C00EF014C00FF0120040
:103620003EEC1DF0520E27EC1DF0BA0E27EC1DF0FB
:1036300043EC1DF0530E27EC1DF0010ED0EC1BF0F7
:10364000106E1050136E146A000ED0EC1BF0106E4A
:103650001050126E116A13501110136E1450121084
:10366000146E39EC1DF013C00EF014C00FF01200F0
:103670000A6EBD508F0B4009BD6EE00EBE16BF50E6
:10368000F00B0109BF6E0AC0BCFFBD8E8594859802
:10369000839E879C7D947D987B9E7F9C000EA36E6D
:1036A000000EA06EA48EA18E0A0E0E01746F0B0E7A
:1036B000696F2DEC1DF048EC1DF015EC1DF01200AB
:1036C000130E0C6E000EA2EC1CF03F0E0E6E550E8B
:1036D000E82EFED70E2EFCD700F0040E0C6E0C0E5A
:1036E000A2EC1CF054C00CF0040EA2EC1CF05550DF
:1036F0000C6E050EA2EC1CF052C00CF0060EA2ECF3
:103700001CF053500C6E070EA2EC1CF01200130EAE
:10371000036E000ED2EC1CF03F0E056E550EE82E27
:10372000FED7052EFCD700F0040E036E0C0ED2EC73
:103730001CF054C003F0040ED2EC1CF05550036E84
:10374000050ED2EC1CF052C003F0060ED2EC1CF0B9
:103750005350036E070ED2EC1CF012000E0133A37F
:10376000B4EF1BF0B6EF1BF0CEEF1BF0010E000123
:10377000B76F7CAEBEEF1BF0C2EF1BF0066A062AE5
:10378000C3EF1BF0066A063206327C5006187F0B28
:1037900006187C6EFCEC1CF00E013393569211005F
:1037A0000C6E22EC1CF00E01DA8722EC1CF0D5CE58
:1037B0000DF022EC1CF00C50D8B4E1EF1BF0E5EF5B
:1037C0001BF00B6A0B2AE6EF1BF00B6A0B3A0B4659
:1037D0000E01DA510B18DF0B0B18DA6FDA890D5076
:1037E00012000DEC1CF0010E0C6E000EA2EC1CF091
:1037F0003F0E0E6E550EE82EFED70E2EFCD700F0B3
:10380000030E0C6E000EA2EC1CF0D50E0C6E010E19
:10381000A2EC1CF020EC1DF012000E01D951F00BAF
:103820000809D96FD98B9F0ED66F848A848CA79B89
:10383000A79D1D0E1D6F1E0E1C6F1C0E6F6F1B0EA5
:10384000706F12000E01D8B528EF1CF02AEF1CF0A3
:1038500022EF1CF0DACE0AF01F0E0A16D8A433EFBE
:103860001CF035EF1CF022EF1CF012000E01D8B551
:103870003CEF1CF03EEF1CF036EF1CF0DACE01F00E
:103880001F0E0116D8A447EF1CF049EF1CF036EFCD
:103890001CF012000A500C02F3CF0EF0F4CF0FF020
:1038A0000A500D02F3500F260B500C02F3500F2656
:1038B0000EC00AF00FC00BF012000001B76BB66B20
:1038C000B56BB46B556A546A536A526A56905692F5
:1038D000000EF86E0E0EF76E00019AEF11F0828264
:1038E0000E019A93090E0D01F16F0E012983298BA8
:1038F0001F831F9BE2EC1CF0F292F28AF28CF28E94
:1039000012000A6E0AB002D07F9201D07F820AB004
:1039100002D0799801D079880AB002D07E9E01D079
:103920007E8E1200D6501F0B4009D66ED688D65018
:10393000F00B0809D66ED5880B0ED46EDB0ED36E55
:10394000D58E12000D6E3EEC1DF0520E27EC1DF0D0
:103950000D50800927EC1DF00C5027EC1DF039ECC0
:103960001DF0120009EC1DF00B6E640E0B60BBEF36
:103970001CF0BDEF1CF0C0EF1CF07C8EC1EF1CF002
:103980007C9E1200120E0E01626F110E156F838263
:10399000E997E895330EE56F000EE66FE789E88B4F
:1039A000E78F1200046E52EC1DF0520E33EC1DF046
:1039B0000450800933EC1DF0035033EC1DF04DEC46
:1039C0001DF012003EEC1DF0520E27EC1DF0E60E2D
:1039D00027EC1DF039EC1DF060EC1BF01200868C1A
:1039E0000E01B48D0F015899FC0E58172E0E5F6F03
:1039F00060946088608E120052EC1DF0520E33EC21
:103A00001DF0E60E33EC1DF04DEC1DF087EC1BF0C5
:103A10001200608060B00FEF1DF011EF1DF00AEF93
:103A20001DF064CF0AF00A501200889284968498A0
:103A30008690889080927C967C987E9080901200F0
:103A400087928198869E000E81EC1CF012000B6E0E
:103A500022EC1CF00BC0D5FE1200868486860E0177
:103A6000B495B4971200026E36EC1CF002C0D5FE7D
:103A7000120022EC1CF00E01DA85120022EC1CF080
:103A80000E01DA81120022EC1CF00E01DA83120022
:103A9000849E88967C9E8096120036EC1CF00E0167
:0E3AA000DA85120036EC1CF00E01DA811200FD
:020000040020DA
:10000000FF0FFF0FFF0FFF0FFF0FFF0FFF0FFF0F80
:020000040030CA
:0C000000AAFFFFFF9FFFFFFFFFFFFFFFB5
:00000001FF
