:0400000013EF00F00A
:060008005D8292EF0EF094
:100018005D80E0CF01F001C0E0FF5D901000F2EFDD
:020028000DF0D9
:0F0E00000025692025692025692025690A000041
:100E10001FC037F020C038F021C039F022C03AF0AE
:100E200023C03BF024C03CF025C03DF026C03EF07E
:100E30003EBE1DEF07F020EF07F0010E21EF07F097
:100E4000000E356E366A35503610D8B42AEF07F0EA
:100E50002CEF07F03CEF07F03E1E3D1E3C1E3B1EF4
:100E60003A1E391E381E376C000E382239223A22BB
:100E70003B223C223D223E220001CFBF42EF07F041
:100E800044EF07F045EF07F0D093CFBF52EF07F0E4
:100E9000CF5106E1CE05D8B050EF07F052EF07F082
:100EA00058EF07F0000E326E010E316E5CEF07F066
:100EB000CEC031F0CFC032F0CCC033F0CDC034F072
:100EC00035503610D8A467EF07F069EF07F070EFE0
:100ED00007F0D0A56EEF07F070EF07F073EF07F0A3
:100EE0003306D8A03406000E406E1F0E3F6E000E73
:100EF000F36FF7EF07F03F06D8A04006D40E3F246B
:100F0000D96E000E4020DA6E37C002F038C003F010
:100F100039C004F03AC005F03BC006F03CC007F011
:100F20003DC008F03EC009F00A0E0A6E000E0B6EBE
:100F3000000E0C6E000E0D6E000E0E6E000E0F6E8B
:100F4000000E106E000E116E17EC0AF002C027F0B2
:100F500003C028F004C029F005C02AF006C02BF019
:100F600007C02CF008C02DF009C02EF027C014F0E7
:100F700029C015F05DEC0DF01450300FDF6E310616
:100F8000D8A032063306D8A0340637C002F038C0E5
:100F900003F039C004F03AC005F03BC006F03CC095
:100FA00007F03DC008F03EC009F00A0E0A6E000EC0
:100FB0000B6E000E0C6E000E0D6E000E0E6E000E0F
:100FC0000F6E000E106E000E116E53EC09F002C091
:100FD00037F003C038F004C039F005C03AF006C05D
:100FE0003BF007C03CF008C03DF009C03EF040BEF9
:100FF00002EF08F0405008E13F04D8A002EF08F0EB
:1010000004EF08F035EF08F03750381039103A1077
:101010003B103C103D103E10D8A411EF08F013EF28
:1010200008F07BEF07F032BE20EF08F0325006E107
:101030003104D8B01EEF08F020EF08F07BEF07F086
:1010400034BE2BEF08F0345008E13304D8A02BEF66
:1010500008F02DEF08F035EF08F00001D0B333EFC2
:1010600008F035EF08F07BEF07F035503610D8A4C4
:101070003CEF08F03EEF08F046EF08F00001D0A585
:1010800044EF08F046EF08F064EF08F03F06D8A000
:10109000400635503610D8A450EF08F052EF08F053
:1010A00058EF08F0000E306E2B0E2F6E5CEF08F03C
:1010B000000E306E2D0E2F6ED40E3F24D96E000E12
:1010C0004020DA6E2FC0DFFF1DC012F01EC013F0EB
:1010D000D40E3F24146E000E4020156E33C016F05F
:1010E00034C017F09BEC0BF012C01DF013C01EF0C3
:1010F000120043C0D9FF44C0DAFFDECFF6FFDDCFD8
:10110000F7FF0800F550250AD8A489EF08F08BEF07
:1011100008F037EF09F043C0D9FF44C0DAFFDE2AF8
:10112000000EDD22000E0001CD6F000ECC6FCCC092
:10113000D0F0CDC0D1F0CE69CF6943C0D9FF44C053
:10114000DAFFDECFF6FFDDCFF7FF0800F550640AC7
:10115000D8B4ADEF08F0AFEF08F0C1EF08F043C02E
:10116000D9FF44C0DAFFDECFF6FFDDCFF7FF08007E
:10117000F550690AD8A4BFEF08F0C1EF08F001EFFD
:1011800009F043C0D9FF44C0DAFFDE2A000EDD2299
:1011900045C0D9FF46C0DAFFDFCF47F0020EDE269A
:1011A000DFCF48F0000EDD2247C0D9FF48C0DAFF8C
:1011B000DECF49F0DDCF4AF0000E4ABEFF0E4B6E87
:1011C0004C6E4D6E4E6E4F6E506E41C01DF042C063
:1011D0001EF049C01FF04AC020F04BC021F04CC0A7
:1011E00022F04DC023F04EC024F04FC025F050C077
:1011F00026F008EC07F01DC041F01EC042F052EF8F
:1012000009F043C0D9FF44C0DAFFDECFF6FFDDCFDF
:10121000F7FF0800F550250AD8A411EF09F013EFE5
:1012200009F02AEF09F043C0D9FF44C0DAFFDE2AF3
:10123000000EDD22000E036E250E026E41C004F08A
:1012400042C005F036EC0BF0000E426E010E416E0E
:1012500052EF09F043C0D9FF44C0DAFFDE2A000E86
:10126000DD22000E426E000E416E52EF09F043C0C7
:10127000D9FF44C0DAFFDECFF6FFDDCFF7FF08006D
:10128000F550026E036A41C004F042C005F036EC2E
:101290000BF043C0D9FF44C0DAFFDE2A000EDD2286
:1012A00024EF09F01200000E136E11BE5CEF09F07E
:1012B0005AEF09F06EEF09F0111E101E0F1E0E1EE0
:1012C0000D1E0C1E0B1E0A6C000E0B220C220D2292
:1012D0000E220F2210221122010E136E09BE75EF8D
:1012E00009F073EF09F087EF09F0091E081E071EC9
:1012F000061E051E041E031E026C000E032204229D
:1013000005220622072208220922010E131A20EEC6
:1013100014F0070EDE6AE806FDE20A500B100C100E
:101320000D100E100F1010101110D8B49AEF09F014
:101330009CEF09F0EEEF09F0010E126EAAEF09F032
:10134000D8900A360B360C360D360E360F36103660
:101350001136122A11AEAFEF09F0B1EF09F0A0EF8C
:1013600009F0D89014361536163617361836193651
:101370001A361B360A50025C0B5003580C500458A6
:101380000D5005580E5006580F5007581050085869
:1013900011500958D8A0CFEF09F0D1EF09F0E2EFD2
:1013A00009F00A50025E0B50035A0C50045A0D50BB
:1013B000055A0E50065A0F50075A1050085A11502D
:1013C000095A1480D890113210320F320E320D3279
:1013D0000C320B320A32122EB1EF09F01350D8B48E
:1013E000F4EF09F0F6EF09F006EF0AF01B1E1A1EE3
:1013F000191E181E171E161E151E146C000E15221F
:1014000016221722182219221A221B2214C002F0B7
:1014100015C003F016C004F017C005F018C006F0A0
:1014200019C007F01AC008F01BC009F01200000E26
:10143000136E09BE20EF0AF01EEF0AF032EF0AF039
:10144000091E081E071E061E051E041E031E026C32
:10145000000E032204220522062207220822092266
:10146000010E136E11BE39EF0AF037EF0AF049EFA3
:101470000AF0111E101E0F1E0E1E0D1E0C1E0B1E3E
:101480000A6C000E0B220C220D220E220F221022BB
:1014900011220A500B100C100D100E100F1010100E
:1014A0001110D8B456EF0AF058EF0AF0A0EF0AF086
:1014B000010E126E66EF0AF0D8900A360B360C3623
:1014C0000D360E360F3610361136122A11AE6BEF6E
:1014D0000AF06DEF0AF05CEF0AF00A50025C0B5064
:1014E00003580C5004580D5005580E5006580F5014
:1014F00007581050085811500958D8A082EF0AF028
:1015000084EF0AF094EF0AF00A50025E0B50035A7F
:101510000C50045A0D50055A0E50065A0F50075AD7
:101520001050085A1150095AD890113210320F3207
:101530000E320D320C320B320A32122E6DEF0AF0DF
:101540001350D8B4A6EF0AF0A8EF0AF0B8EF0AF0EB
:10155000091E081E071E061E051E041E031E026C21
:10156000000E032204220522062207220822092255
:1015700002C002F003C003F004C004F005C005F08F
:1015800006C006F007C007F008C008F009C009F05F
:10159000120065EC0EF07DEC0DF09DEC0DF055ECBD
:1015A0000EF020EE9EF000EE0DF0070EDBCFEBFF0D
:1015B000E806FCE21AEC0DF020EE9EF0070EEBCFF1
:1015C000DBFFE806FCE220EEAEF000EE0DF0070EC9
:1015D000DBCFEBFFE806FCE21AEC0DF020EEAEF0FC
:1015E000070EEBCFDBFFE806FCE2AEC0A6F0AFC013
:1015F000A7F0B0C0A8F0B1C0A9F0B2C0AAF0B3C0C3
:10160000ABF0B4C0ACF0B5C0ADF0760E0001606FC9
:10161000000E616F010E626F0E0E636FA6C064F064
:10162000A7C065F0A8C066F0A9C067F0AAC068F0BE
:10163000ABC069F0ACC06AF0ADC06BF02FEC0CF041
:10164000760E046E000E056EBBEC0DF0290E000147
:10165000756F960E746F7F0EE82EFED7742FFCD731
:10166000752FFAD7E3EF0AF013EF00F004500510DE
:10167000D8B43DEF0BF03FEF0BF048EF0BF0045008
:101680000510D8A446EF0BF048EF0BF04DEF0BF030
:10169000025094EC0EF09AEF0BF020EE04F00450A0
:1016A000D9260550DA22DE50DE10D8B45AEF0BF0FE
:1016B0005CEF0BF077EF0BF020EE04F00450D9262E
:1016C0000550DA2210EE02F00450E1260550E22225
:1016D000DE50E65CE650800A0A6EDE50800A0A5848
:1016E000D8B075EF0BF077EF0BF09AEF0BF020EE20
:1016F00002F00450D9260550DA22DECF06F0DDCF05
:1017000007F004C0D9FF05C0DAFFDECF08F0DDCF57
:1017100009F006500824D96E07500920DA6E02C07D
:10172000DFFF20EE02F00450D9260550DA22DE2A2F
:10173000000EDD2212000001D0A1A1EF0BF0A3EFFB
:101740000BF0ADEF0BF014C00BF015C00CF012C095
:101750000DF013C00EF0F8EC0CF017BEB2EF0BF06A
:10176000B4EF0BF0BAEF0BF016C01BF017C01CF073
:10177000BEEF0BF0000E1C6E000E1B6E000E1A6EFC
:10178000000E196ED0EF0BF0000E036E200E026EED
:1017900012C004F013C005F036EC0BF0194A1A2AF7
:1017A0001B50195C1A50800A186E1C50800A185879
:1017B000D8A0DDEF0BF0DFEF0BF0C4EF0BF0000172
:1017C000D0B1E5EF0BF0E7EF0BF0F1EF0BF014C049
:1017D0000BF015C00CF012C00DF013C00EF0F8ECB9
:1017E0000CF014C002F015C003F0D7EC0DF01B5044
:1017F0000224126E1C500320136E120053C057F0C7
:1018000054C058F0000E0001CB6F000ECA6F1CEFE1
:101810000CF051C041F052C042F0570E436E000E22
:10182000446E55C045F056C046F079EC08F0415082
:101830000001CA274250CB2357C0F6FF58C0F7FF1C
:101840000800F5500009D8A428EF0CF02AEF0CF09E
:1018500009EF0CF0CAC051F0CBC052F01200640E78
:1018600000016C6F000E6D6F60C06EF061C06FF0B4
:10187000000E716F000E706F000E736F000E726FAE
:101880006E0E516E000E526E62C053F063C054F083
:101890006C0E556E000E566EFEEC0BF00001705192
:1018A0006025D96E71516121DA6E000EDF6E120073
:1018B0008DEC0EF0520E7DEC0EF0B60E7DEC0EF0BF
:1018C00083EC0EF0530E7DEC0EF0010E3CEC0DF0AF
:1018D000086E08500B6E0C6A000E3CEC0DF0086EA2
:1018E00008500A6E096A0B5009100B6E0C500A1052
:1018F0000C6E88EC0EF00BC006F00CC007F0120066
:101900008DEC0EF0520E7DEC0EF0B80E7DEC0EF06C
:1019100083EC0EF0530E7DEC0EF0010E3CEC0DF05E
:10192000086E08500B6E0C6A000E3CEC0DF0086E51
:1019300008500A6E096A0B5009100B6E0C500A1001
:101940000C6E88EC0EF00BC006F00CC007F0120015
:101950008DEC0EF0520E7DEC0EF0B40E7DEC0EF020
:1019600083EC0EF0530E7DEC0EF0010E3CEC0DF00E
:10197000086E08500B6E0C6A000E3CEC0DF0086E01
:1019800008500A6E096A0B5009100B6E0C500A10B1
:101990000C6E88EC0EF00BC006F00CC007F01200C5
:1019A0008DEC0EF0520E7DEC0EF0BA0E7DEC0EF0CA
:1019B00083EC0EF0530E7DEC0EF0010E3CEC0DF0BE
:1019C000086E08500B6E0C6A000E3CEC0DF0086EB1
:1019D00008500A6E096A0B5009100B6E0C500A1061
:1019E0000C6E88EC0EF00BC006F00CC007F0120075
:1019F000000E116E000E106E09EF0DF00FC002F018
:101A0000036A0DC004F00EC005F036EC0BF0104A6E
:101A1000112A10500B24D96E11500C20DA6EDF50B1
:101A20000F6E0F50D8A417EF0DF019EF0DF0FEEF69
:101A30000CF0120058EC0CF006C00DF007C00EF0D0
:101A400080EC0CF006C00FF007C010F0D0EC0CF0EA
:101A500006C011F007C012F0A8EC0CF006C013F09D
:101A600007C014F020EE0DF000EE0DF0070EDBCFF6
:101A7000EBFFE806FCE21200046E20EC0EF00E0113
:101A8000DA8720EC0EF0D5CE05F020EC0EF00450F5
:101A9000D8B44DEF0DF051EF0DF0036A032A52EF69
:101AA0000DF0036A033A03460E01DA510318DF0B07
:101AB0000318DA6FDA890550120015BE6AEF0DF0CF
:101AC000155006E11404D8B068EF0DF06AEF0DF080
:101AD00078EF0DF014C016F015C017F0161E171E83
:101AE000164A172A16C014F017C015F07CEF0DF037
:101AF00014C014F015C015F012000BEC0EF0010E1E
:101B0000046E000E45EC0EF03F0E066E550EE82EEC
:101B1000FED7062EFCD700F0030E046E000E45EC37
:101B20000EF0D50E046E010E45EC0EF087928198F2
:101B3000869E010E34EC0EF0120082820E019A9302
:101B4000140E046E040E45EC0EF0050E046E050E28
:101B500045EC0EF06C0E046E060E45EC0EF0070E12
:101B6000046E070E45EC0EF00E0129831F83F28AE6
:101B7000F28CF28E1200CAEF0DF004C0D9FF05C03E
:101B8000DAFFDF50066E0650026E036A72EC0EF04A
:101B9000044A052A04C0D9FF05C0DAFFDF50D8A4E3
:101BA000D4EF0DF0D6EF0DF0BDEF0DF0120002C036
:101BB00004F003C005F0DFEF0DF0024A032A02C073
:101BC000D9FF03C0DAFFDF50D8A4E9EF0DF0EBEF47
:101BD0000DF0DDEF0DF00450025C026E055003586D
:101BE000036E120001EE00F03C0EEE6AE806FDE125
:101BF00000EEB6F03E0EEE6AE806FDE15C6A5B6A56
:101C00005A6A596A5D905D92000EF86E0E0EF76E7C
:101C10000001C9EF0AF00E01D951F00B0809D96F84
:101C2000D98B9F0ED66F848A848CA79BA79D1D0E8F
:101C30001D6F1E0E1C6F1C0E6F6F1B0E706F12003F
:101C40000E01D8B526EF0EF028EF0EF020EF0EF0C3
:101C5000DACE02F01F0E0216D8A431EF0EF033EFE9
:101C60000EF020EF0EF01200026E02B002D07F9252
:101C700001D07F8202B002D07E9E01D07E8E02B063
:101C800002D0799801D079881200056E8DEC0EF0A3
:101C9000520E7DEC0EF0055080097DEC0EF00450E4
:101CA0007DEC0EF088EC0EF01200120E0E01626F49
:101CB000110E156F8382E997E895330EE56F000EDC
:101CC000E66FE789E88BE78F1200868C0E01B48DF2
:101CD0000F015899FC0E58172E0E5F6F60946088A4
:101CE000608E12000E0137A578EF0EF07AEF0EF03D
:101CF00072EF0EF002C0E4FE1200036E20EC0EF054
:101D000003C0D5FE120020EC0EF00E01DA831200A3
:101D100020EC0EF00E01DA85120020EC0EF00E0120
:0A1D2000DA8112005D92110012003A
:020000040020DA
:10000000FF0FFF0FFF0FFF0FFF0FFF0FFF0FFF0F80
:020000040030CA
:0C000000AAFFFFFF9FFFFFFFFFFFFFFFB5
:00000001FF
