:0400000030EF00F0ED
:060008005682A1EF2FF06B
:100018005680D8CF07F0E8CF08F0E0CF09F00E01FE
:1000280033AB19EF00F01BEF00F028EF00F0010EE2
:1000380001012A6F010E0001F46F0B0ED46EDB0E66
:10004800D36E0E01339B299B09C0E0FF08C0E8FF6F
:0C00580007C0D8FF5690100051EF2DF0AB
:100E000000524742433A2025692025692025692060
:100E100025692020202020524742435F72656C3AAA
:100E200020252E336620252E336620252E3366207E
:100E300020202020436F6C6F75723A2025730A0DB5
:100E400000524742433A2025692025692025692020
:100E5000256920202020205468726573686F6C64B7
:100E60003A2025692025692025690A0D006C6967EB
:100E7000687420626C756500756E6B6E6F776E00BE
:100E80006F72616E67650079656C6C6F770077686B
:100E900069746500677265656E0070696E6B004904
:100EA0004E46004E414E00696E66006E616E0072E5
:070EB0006564006C660000A0
:100EB800000E0001876F000E866F62C098F063C055
:100EC80099F064C09AF065C09BF09BBF70EF07F083
:100ED8006EEF07F086EF07F0000E876F010E866F42
:100EE80098C00AF099C00BF09AC00CF09BC00DF0A6
:100EF8003CEC30F00AC098F00BC099F00CC09AF0A6
:100F08000DC09BF0000E00019F6F000E9E6F1EC16A
:100F18008AF01FC18BF086518711D8A496EF07F08D
:100F280098EF07F09FEF07F04FA49DEF07F09FEFB2
:100F380007F0B9EF07F086518711D8A4A6EF07F09C
:100F4800A8EF07F0AEEF07F0000E6D6F2B0E6C6F79
:100F5800B2EF07F0000E6D6F2D0E6C6F6CC02CF1A8
:100F68009E4B9F2B8A07D8A08B0798C00AF099C080
:100F78000BF09AC00CF09BC00DF096EC28F00A0418
:100F88000B10D8A4CAEF07F0CCEF07F023EF08F056
:100F9800BF0E0001676FFF0E686F6651696F6A6B5D
:100FA8006751692768516A236A510AE11A0E695D17
:100FB800D8A0E1EF07F0E4EF07F0010EE5EF07F046
:100FC800000E6E6F6F6B6E516F11D8B4EEEF07F0B5
:100FD800F0EF07F0FEEF07F02C0E9E250A6E010ECB
:100FE8009F210B6E9F0E0C6E0E0E0D6EF3EC2CF007
:100FF8000AEF08F02C0E9E250A6E010E9F210B6E3B
:10100800A70E0C6E0E0E0D6EF3EC2CF00001FD0E0B
:101018008A27FF0E8B2360C01AF061C01BF02C0ECC
:101028001C6E010E1D6E8AC01EF08BC01FF0B7EC3F
:101038002AF01AC060F01BC061F088EF0DF098C06C
:101048000AF099C00BF09AC00CF09BC00DF096EC1A
:1010580028F00A500B10D8A434EF08F036EF08F047
:1010680076EF08F0BF0E0001676FFF0E686F6651DC
:10107800696F6A6B6751692768516A236A510AE187
:101088001A0E695DD8A04BEF08F04EEF08F0010E7C
:101098004FEF08F0000E706F716B70517111D8B47A
:1010A80058EF08F05AEF08F068EF08F02C0E9E256C
:1010B8000A6E010E9F210B6EA30E0C6E0E0E0D6EA6
:1010C800F3EC2CF00AEF08F02C0E9E250A6E010EA8
:1010D8009F210B6EAB0E0C6E0E0E0D6EF3EC2CF00A
:1010E8000AEF08F0000E0001A06F000EA16F800E3D
:1010F800A26F3F0EA36F000E9D6F000E9C6F98C0ED
:101108000AF099C00BF09AC00CF09BC00DF0000ECD
:101118000E6E000E0F6E000E106E000E116E70EC4B
:101128002BF0D8B09AEF08F09CEF08F01FEF09F009
:10113800BBEF08F0A0C018F0A1C019F0A2C01AF0C7
:10114800A3C01BF0000E1C6E000E1D6E200E1E6E3E
:10115800410E1F6EAAEC16F018C0A0F019C0A1F03D
:101168001AC0A2F01BC0A3F000019C4B9D2B98C095
:1011780031F099C032F09AC033F09BC034F0000EC1
:101188001C6E000E1D6E200E1E6E410E1F6EA0C03E
:1011980018F0A1C019F0A2C01AF0A3C01BF0AAEC65
:1011A80016F018C035F019C036F01AC037F01BC059
:1011B80038F014EC28F0D8B0E4EF08F0E6EF08F0C7
:1011C8009EEF08F006EF09F0A0C018F0A1C019F0D2
:1011D800A2C01AF0A3C01BF0000E1C6E000E1D6EFC
:1011E800200E1E6E410E1F6EBFEC18F018C0A0F046
:1011F80019C0A1F01AC0A2F01BC0A3F000019C07FF
:10120800D8A09D0798C031F099C032F09AC033F049
:101218009BC034F0A0C035F0A1C036F0A2C037F0B2
:10122800A3C038F014EC28F0D8A01DEF09F01FEF88
:1012380009F0E8EF08F066C010F0116AC3EC2CF072
:10124800105000018D6F8DC08CF0670E8D19D8A4D9
:1012580030EF09F032EF09F058EF09F04D504E1019
:10126800D8A439EF09F03BEF09F03FEF09F0000E81
:101278004E6E010E4D6E4EBE4CEF09F04E5006E11B
:101288004D04D8B04AEF09F04CEF09F052EF09F0DD
:10129800000E896F060E886F61EF09F04DC088F067
:1012A8004EC089F061EF09F04EBE5DEF09F05FEFC7
:1012B80009F04CEF09F052EF09F0670E8D19D8A428
:1012C80068EF09F06AEF09F099EF09F09DAF78EF40
:1012D80009F0FC0E9C5DFF0E9D59D8A076EF09F031
:1012E80078EF09F097EF09F0FF0E676FFF0E686F50
:1012F80088C069F089C06AF06751692768516A2314
:101308009C51695D6A51800A6B6F9D51800A6B59C7
:10131800D8A091EF09F093EF09F097EF09F0660E66
:101328008C6F99EF09F0650E8C6F88C07EF089C0CC
:101338007FF0670E8D19D8A4A4EF09F0A6EF09F085
:10134800B6EF09F0660E8C19D8A4ADEF09F0AFEF2F
:1013580009F0B8EF09F09DBFB6EF09F0B4EF09F056
:10136800B8EF09F07E4B7F2B660E8C19D8A4BFEF1F
:1013780009F0C1EF09F0E1EF09F09DBFC8EF09F0EE
:10138800C6EF09F0D4EF09F0000EA06F000EA16FB0
:10139800800EA26F3F0EA36F000E9D6F000E9C6F14
:1013A800670E8D19D8B4DBEF09F0DDEF09F0E1EF36
:1013B80009F09C517E279D517F23000E976F000EE8
:1013C800966F98C08EF099C08FF09AC090F09BC02D
:1013D80091F0A0C080F0A1C081F0A2C082F0A3C0AB
:1013E80083F072EF0AF08EC018F08FC019F090C029
:1013F8001AF091C01BF0A0C01CF0A1C01DF0A2C043
:101408001EF0A3C01FF0BFEC18F018C031F019C0CF
:1014180032F01AC033F01BC034F0FBEC1BF031C0C3
:1014280092F032C093F033C094F034C095F092C07B
:101438000AF093C00BF094C00CF095C00DF091EC3D
:1014480027F00AC084F00BC085F08EC041F08FC031
:1014580042F090C043F091C044F0A0C01CF0A1C07D
:101468001DF0A2C01EF0A3C01FF092C018F093C0D8
:1014780019F094C01AF095C01BF0AAEC16F018C029
:1014880045F019C046F01AC047F01BC048F05CECA4
:101498002FF041C08EF042C08FF043C090F044C09E
:1014A80091F0A0C018F0A1C019F0A2C01AF0A3C012
:1014B8001BF0000E1C6E000E1D6E200E1E6E410EDF
:1014C8001F6EBFEC18F018C0A0F019C0A1F01AC028
:1014D800A2F01BC0A3F00001964B972B7E51965D9E
:1014E8009751800A676F7F51800A6759D8A07FEFAC
:1014F8000AF081EF0AF0F7EF09F0A0C018F0A1C0D8
:1015080019F0A2C01AF0A3C01BF0000E1C6E000E4A
:101518001D6EA00E1E6E400E1F6EAAEC16F018C0AF
:1015280092F019C093F01AC094F01BC095F08EC0C9
:1015380031F08FC032F090C033F091C034F092C0D7
:1015480035F093C036F094C037F095C038F014ECFD
:1015580028F0D8B0B2EF0AF0B4EF0AF0BFEF0AF003
:10156800000E0001926F000E936F000E946F000E34
:10157800956FE8EF0AF08EC00AF08FC00BF090C0AC
:101588000CF091C00DF092C00EF093C00FF094C013
:1015980010F095C011F070EC2BF0D8A0D6EF0AF03F
:1015A800D8EF0AF0E8EF0AF0000184B1DEEF0AF0A4
:1015B800E0EF0AF0E8EF0AF0000E926F000E936F6A
:1015C800000E946F000E956F98C031F099C032F0FC
:1015D8009AC033F09BC034F092C035F093C036F017
:1015E80094C037F095C038F04AEC14F031C08EF052
:1015F80032C08FF033C090F034C091F08EC031F01B
:101608008FC032F090C033F091C034F0000E1C6EE1
:10161800000E1D6E200E1E6E410E1F6E80C018F04B
:1016280081C019F082C01AF083C01BF0AAEC16F032
:1016380018C035F019C036F01AC037F01BC038F0A2
:1016480014EC28F0D8A02BEF0BF02DEF0BF056EF91
:101658000BF000019C4B9D2B80C018F081C019F045
:1016680082C01AF083C01BF0000E1C6E000E1D6EA7
:10167800200E1E6E410E1F6EAAEC16F018C080F0E8
:1016880019C081F01AC082F01BC083F0660E0001F9
:101698008C19D8A452EF0BF054EF0BF056EF0BF067
:1016A8007E4B7F2B80C0A0F081C0A1F082C0A2F049
:1016B80083C0A3F0650E00018C19D8B466EF0BF057
:1016C80068EF0BF06EEF0BF09CC07CF09DC07DF0D6
:1016D80072EF0BF0000E7D6F000E7C6F000E7B6FBB
:1016E800000E7A6F000E796F000E786F000E976FFC
:1016F800000E966F6EEF0CF08EC018F08FC019F0C8
:1017080090C01AF091C01BF0A0C01CF0A1C01DF041
:10171800A2C01EF0A3C01FF0BFEC18F018C031F033
:1017280019C032F01AC033F01BC034F0FBEC1BF0C8
:1017380031C092F032C093F033C094F034C095F0C9
:1017480092C00AF093C00BF094C00CF095C00DF055
:1017580091EC27F00AC084F00BC085F04FB8B7EFC2
:101768000BF0B9EF0BF0D7EF0BF0000184518511A6
:10177800D8A4C1EF0BF0C3EF0BF0D7EF0BF0670E57
:101788008D19D8A4CAEF0BF0CCEF0BF0D7EF0BF004
:101798007DBFD3EF0BF0D1EF0BF0D7EF0BF0784B09
:1017A800792B22EF0CF000017A517B11D8A4DFEFDE
:1017B8000BF0E1EF0BF00BEF0CF07DBFE8EF0BF057
:1017C800E6EF0BF00BEF0CF02C0E9E25D96E010EF8
:1017D8009F21DA6E2E0EDF6E9E4B9F2B8A07D8A0B4
:1017E8008B07000E7B6F010E7A6F0BEF0CF02C0E3F
:1017F8009E25D96E010E9F21DA6E300EDF6E9E4B4C
:101808009F2B8A07D8A08B077807D8A0790778512B
:101818007911D8A412EF0CF014EF0CF0FBEF0BF0D9
:101828002C0E9E25D96E010E9F21DA6E8451300F41
:10183800DF6E9E4B9F2B8A07D8A08B078EC041F086
:101848008FC042F090C043F091C044F0A0C01CF09B
:10185800A1C01DF0A2C01EF0A3C01FF092C018F0D6
:1018680093C019F094C01AF095C01BF0AAEC16F0BA
:1018780018C045F019C046F01AC047F01BC048F020
:101888005CEC2FF041C08EF042C08FF043C090F066
:1018980044C091F0A0C018F0A1C019F0A2C01AF07D
:1018A800A3C01BF0000E1C6E000E1D6E200E1E6ED7
:1018B800410E1F6EBFEC18F018C0A0F019C0A1F0BF
:1018C8001AC0A2F01BC0A3F000017C07D8A07D07B6
:1018D800964B972B7E51965D9751800A676F7F5183
:1018E800800A6759D8B07BEF0CF07DEF0CF08BEFD6
:1018F8000CF09FBF89EF0CF09F5109E14B0E9E5DE4
:10190800D8A089EF0CF08BEF0CF080EF0BF07A5138
:101918007B11D8A492EF0CF094EF0CF0A5EF0CF02B
:101928004FA899EF0CF09BEF0CF0A5EF0CF02C0EE4
:101938009E25D96E010E9F21DA6E2E0EDF6E9E4B0C
:101948009F2B2C0E9E25D96E010E9F21DA6E000E5C
:10195800DF6E650E8C19D8A4B4EF0CF0B6EF0CF05E
:101968000FEF08F0000E976F4F0E966F2C0E96250E
:10197800D96E010E9721DA6E000EDF6E000E876FAA
:10198800000E866F9DBFCDEF0CF0CBEF0CF0D5EFBE
:101998000CF0000E876F010E866F9C6D9D1FD8B0EE
:1019A8009D2B000E896F020E886F06EF0DF09607CB
:1019B800D8A097072C0E9625D96E010E9721DA6EBE
:1019C8009CC00AF09DC00BF0000E0D6E0A0E0C6E46
:1019D80018EC2BF00A50300FDF6E9CC010F09DC041
:1019E80011F0000E136E0A0E126E55EC2AF010C09C
:1019F8009CF011C09DF000018807D8A089078A07CC
:101A0800D8A08B079C519D11D8A40DEF0DF00FEFB6
:101A18000DF0DBEF0CF089BF1CEF0DF0895106E1EA
:101A28008805D8B01AEF0DF01CEF0DF0DBEF0CF0C5
:101A38009607D8A0970786518711D8A426EF0DF0EE
:101A480028EF0DF02EEF0DF0000E736F2B0E726F56
:101A580032EF0DF0000E736F2D0E726F2C0E96255F
:101A6800D96E010E9721DA6E72C0DFFF8A07D8A0FF
:101A78008B079607D8A09707BF0E676FFF0E686F92
:101A88006651696F6A6B6751692768516A236A51A1
:101A98000AE11A0E695DD8A054EF0DF057EF0DF06A
:101AA800010E58EF0DF0000E766F776B76517711B7
:101AB800D8A461EF0DF063EF0DF069EF0DF0000EA3
:101AC800756F650E746F6DEF0DF0000E756F450E36
:101AD800746F2C0E9625D96E010E9721DA6E74C09C
:101AE800DFFF8A07D8A08B072C0E9E250A6E010EF1
:101AF8009F210B6E2C0E96250C6E010E97210D6EF4
:101B0800F3EC2CF00FEF08F012000E01299370C0CF
:101B180015F071C016F022EC2DF070C031F071C0D4
:101B280032F0760E336E000E346EF3EC22F0710E46
:101B3800316E3D0E326E0A0E336E3F0E346E76C035
:101B480035F077C036F078C037F079C038F014EC4B
:101B580028F0D8B0B2EF0DF0B4EF0DF04AEF0EF068
:101B68007AC031F07BC032F07CC033F07DC034F0F5
:101B7800480E356EE10E366E7A0E376E3E0E386EB2
:101B880014EC28F0D8B0CBEF0DF0CDEF0DF04AEF04
:101B98000EF07EC031F07FC032F080C033F081C0DB
:101BA80034F0EC0E356E510E366E380E376E3E0E32
:101BB800386E14EC28F0D8B0E4EF0DF0E6EF0DF035
:101BC8004AEF0EF070C017F071C018F0030E196ECE
:101BD80060EC24F070C031F071C032F0760E336ED4
:101BE800000E346EF3EC22F07EC031F07FC032F08C
:101BF80080C033F081C034F0290E356E5C0E366E2D
:101C08000F0E376E3F0E386E14EC28F0D8B00FEF79
:101C18000EF011EF0EF02FEF0EF072C06AF073C0E5
:101C28006BF074C06CF075C06DF0000E00016F6F42
:101C3800870E6E6FBEEC2EF072C023F073C024F0D6
:101C480074C025F075C026F053EC2CF0000E01018D
:101C5800286F51EF11F072C06AF073C06BF074C056
:101C68006CF075C06DF0000E00016F6F5A0E6E6F4C
:101C7800BEEC2EF072C023F073C024F074C025F0BF
:101C880075C026F053EC2CF02AEF0EF076C031F038
:101C980077C032F078C033F079C034F0AE0E356ECC
:101CA800470E366EE10E376E3E0E386E14EC28F095
:101CB800D8B061EF0EF063EF0EF05CEF0FF09A0E04
:101CC800316E990E326E990E336E3E0E346E7AC0B6
:101CD80035F07BC036F07CC037F07DC038F014ECAE
:101CE80028F0D8B07AEF0EF07CEF0EF05CEF0FF032
:101CF800140E316EAE0E326E470E336E3E0E346EDB
:101D08007EC035F07FC036F080C037F081C038F033
:101D180014EC28F0D8B093EF0EF095EF0EF05CEFCE
:101D28000FF070C017F071C018F0030E196E60EC58
:101D380024F070C031F071C032F0760E336E000EB0
:101D4800346EF3EC22F076C031F077C032F078C010
:101D580033F079C034F0660E356E660E366E260E98
:101D6800376E3F0E386E14EC28F0D8B0BEEF0EF088
:101D7800C0EF0EF0F4EF0EF01F0E316E850E326ECE
:101D88002B0E336E3F0E346E7EC035F07FC036F0BA
:101D980080C037F081C038F014EC28F0D8B0D7EF05
:101DA8000EF0D9EF0EF0F4EF0EF072C06AF073C0C7
:101DB8006BF074C06CF075C06DF0000E00016F6FB1
:101DC800B40E6E6FBEEC2EF072C023F073C024F018
:101DD80074C025F075C026F053EC2CF02AEF0EF0F5
:101DE80076C031F077C032F078C033F079C034F083
:101DF800EC0E356E510E366EB80E376E3D0E386EDF
:101E080014EC28F0D8B00BEF0FF00DEF0FF041EF06
:101E18000FF0520E316EB80E326E1E0E336E3F0E3C
:101E2800346E7EC035F07FC036F080C037F081C098
:101E380038F014EC28F0D8B024EF0FF026EF0FF0AC
:101E480041EF0FF072C06AF073C06BF074C06CF0B1
:101E580075C06DF0000E00016F6F5A0E6E6FE6ECE4
:101E68002EF072C023F073C024F074C025F075C042
:101E780026F053EC2CF02AEF0EF072C06AF073C013
:101E88006BF074C06CF075C06DF0000E00016F6FE0
:101E9800870E6E6FE6EC2EF072C023F073C024F04C
:101EA80074C025F075C026F053EC2CF02AEF0EF024
:101EB800480E316EE10E326EFA0E336E3E0E346EFF
:101EC80076C035F077C036F078C037F079C038F092
:101ED80014EC28F0D8B073EF0FF075EF0FF0E2EFC5
:101EE8000FF0850E316EEB0E326E910E336E3E0E94
:101EF800346E7AC035F07BC036F07CC037F07DC0D8
:101F080038F014EC28F0D8B08CEF0FF08EEF0FF00B
:101F1800E2EF0FF0EC0E316E510E326E380E336E6A
:101F28003E0E346E7EC035F07FC036F080C037F08C
:101F380081C038F014EC28F0D8B0A5EF0FF0A7EF67
:101F48000FF0E2EF0FF072C023F073C024F074C0FA
:101F580025F075C026F0C5EC2BF072C023F073C0D5
:101F680024F074C025F075C026F053EC2CF0090E4F
:101F7800496E1E0E486EE40EE82EFED7482EFCD79A
:101F8800492EFAD700D072C06AF073C06BF074C0E3
:101F98006CF075C06DF0000E00016F6F5A0E6E6F19
:101FA800BEEC2EF072C023F073C024F074C025F08C
:101FB80075C026F053EC2CF02AEF0EF0480E316E67
:101FC800E10E326EFA0E336E3E0E346E76C035F088
:101FD80077C036F078C037F079C038F014EC28F0C4
:101FE800D8B0F9EF0FF0FBEF0FF05EEF10F07AC00A
:101FF80031F07BC032F07CC033F07DC034F0CD0EC0
:10200800356ECC0E366E8C0E376E3E0E386E14EC76
:1020180028F0D8B012EF10F014EF10F05EEF10F0C7
:10202800140E316EAE0E326E470E336E3E0E346EA7
:102038007EC035F07FC036F080C037F081C038F000
:1020480014EC28F0D8B02BEF10F02DEF10F05EEF65
:1020580010F072C023F073C024F074C025F075C06E
:1020680026F0C5EC2BF072C023F073C024F074C0C6
:1020780025F075C026F053EC2CF0090E496E1E0EA3
:10208800486EE40EE82EFED7482EFCD7492EFAD724
:1020980000D072C06AF073C06BF074C06CF075C089
:1020A8006DF0000E00016F6F5A0E6E6FE6EC2EF0A9
:1020B800D6EF0FF076C031F077C032F078C033F049
:1020C80079C034F01F0E356E850E366EEB0E376E06
:1020D8003E0E386E14EC28F0D8B075EF10F077EF9C
:1020E80010F0CAEF10F03D0E316E0A0E326E970EE8
:1020F800336E3E0E346E7AC035F07BC036F07CC04D
:1021080037F07DC038F014EC28F0D8B08EEF10F01E
:1021180090EF10F0CAEF10F03D0E316E0A0E326EDD
:10212800570E336E3E0E346E7EC035F07FC036F0EB
:1021380080C037F081C038F014EC28F0D8B0A7EF91
:1021480010F0A9EF10F0CAEF10F072C06AF073C077
:102158006BF074C06CF075C06DF0000E00016F6F0D
:10216800B40E6E6FBEEC2EF072C023F073C024F074
:1021780074C025F075C026F053EC2CF0000E010158
:10218800286F010E0001F46F51EF11F0520E496EE5
:102198002B0E486E000EE82EFED7482EFCD7492E8F
:1021A800FAD700D072C023F073C024F074C025F0B1
:1021B80075C026F00CEC2CF0D00E486ECA0EE82E36
:1021C800FED7482EFCD772C023F073C024F074C029
:1021D80025F075C026F053EC2CF070C015F071C0D6
:1021E80016F022EC2DF0000120EE06F07051D926F1
:1021F8007151DA225150DE5C5250DE58D8A007EFF8
:1022080011F009EF11F01AEF11F020EE06F07051FD
:10221800D9267151DA22DE50545CDE505558D8B0B8
:1022280018EF11F01AEF11F02AEF0EF0030E01016A
:10223800286121EF11F023EF11F029EF11F00E01C1
:1022480033830101282B51EF11F0808672C06AF0A8
:1022580073C06BF074C06CF075C06DF0000E0001B7
:102268006F6FB40E6E6FBEEC2EF072C023F073C0A9
:1022780024F074C025F075C026F053EC2CF0000152
:10228800F451D8B44AEF11F04DEF11F0010E4EEFB2
:1022980011F0000EF46F2AEF0EF00E0129831200E0
:1022A800A6C0D9FFA7C0DAFFDECFF6FFDDCFF7FF64
:1022B800000EF86E0800F550250AD8A466EF11F054
:1022C80068EF11F02CEF14F0A6C0D9FFA7C0DAFF11
:1022D800DE2A000EDD22000E01011F6F000E1E6FA8
:1022E8001EC14FF01FC150F04D684E68A6C0D9FFFF
:1022F800A7C0DAFFDECFF6FFDDCFF7FF000EF86EDE
:102308000800F5502E0AD8A48CEF11F08EEF11F0CA
:1023180010EF12F0000E4E6E000E4D6EA6C0D9FFE3
:10232800A7C0DAFFDE2A000EDD22A6C0D9FFA7C0AB
:10233800DAFFDECFF6FFDDCFF7FF000EF86E0800FC
:10234800F5502A0AD8A4ABEF11F0ADEF11F0CAEF9F
:1023580011F0A6C0D9FFA7C0DAFFDE2A000EDD22E1
:10236800A8C0D9FFA9C0DAFFDFCF49F0020EDE26E8
:10237800DFCF4AF0000EDD2249C0D9FF4AC0DAFF9C
:10238800DECF4DF0DDCF4EF010EF12F0A6C0D9FF32
:10239800A7C0DAFFDECF11F0DDCF12F0C3EC1FF0DB
:1023A80011C04DF012C04EF0E1EF11F0A6C0D9FFF8
:1023B800A7C0DAFFDE2A000EDD22D00E496EFF0E1E
:1023C8004A6EA6C0D9FFA7C0DAFFDECFF6FFDDCF81
:1023D800F7FF000EF86E0800F5504B6E4C6A495036
:1023E8004B264A504C224C500AE10A0E4B5CD8A0AE
:1023F80000EF12F003EF12F0010E04EF12F0000EDE
:102408000001B46FB56BB451B511D8A40EEF12F03A
:1024180010EF12F0DAEF11F0A6C0D9FFA7C0DAFF6B
:10242800DECFF6FFDDCFF7FF000EF86E0800F5509F
:10243800106E116AC3EC2CF010500001BC6FBC5137
:10244800D8B429EF12F02BEF12F069EF12F0A6C002
:10245800D9FFA7C0DAFFDECF49F0DDCF4AF0010E81
:102468004926000E4A2249C0F6FF4AC0F7FF000E6F
:10247800F86E0800F550106E116AC3EC2CF010507D
:102488000001BD6FBD51D8B44CEF12F04EEF12F001
:1024980069EF12F0A6C0D9FFA7C0DAFFDECF49F076
:1024A800DDCF4AF0020E4926000E4A2249C0F6FF47
:1024B8004AC0F7FF000EF86E0800F550106E116A5A
:1024C800C3EC2CF010500001BE6FA6C0D9FFA7C006
:1024D800DAFFDECFF6FFDDCFF7FF000EF86E08005B
:1024E800F550640AD8B47BEF12F07DEF12F091EF4B
:1024F80012F0A6C0D9FFA7C0DAFFDECFF6FFDDCF06
:10250800F7FF000EF86E0800F550690AD8A48FEF9F
:1025180012F091EF12F0D1EF12F0A6C0D9FFA7C0C8
:10252800DAFFDE2A000EDD22A8C0D9FFA9C0DAFF33
:10253800DFCF49F0020EDE26DFCF4AF0000EDD22A3
:1025480049C0D9FF4AC0DAFFDECFAAF0DDCFABF031
:10255800000EABBFFF0EAC6FAD6FAE6FAF6FB06F5D
:10256800B16FA4C025F0A5C026F0AAC027F0ABC063
:1025780028F0ACC029F0ADC02AF0AEC02BF0AFC037
:102588002CF0B0C02DF0B1C02EF08CEC1AF025C0A4
:10259800A4F026C0A5F049EF14F0660EBC19D8A423
:1025A800D8EF12F0DAEF12F01CEF13F0A6C0D9FF43
:1025B800A7C0DAFFDECFF6FFDDCFF7FF000EF86E1B
:1025C8000800F5CFBFF0A6C0D9FFA7C0DAFFDE2A02
:1025D800000EDD22A8C0D9FFA9C0DAFFDFCF49F07D
:1025E800040EDE26DFCF4AF0000EDD2249C0D9FFF7
:1025F8004AC0DAFFDECFB8F0DECFB9F0DECFBAF0EE
:10260800DECFBBF0A4C060F0A5C061F0B8C062F036
:10261800B9C063F0BAC064F0BBC065F0BFC066F073
:102628005CEC07F060C0A4F061C0A5F049EF14F0BD
:10263800BC0E0A6E000E0B6EB30E0C6E0E0E0D6EF7
:10264800000E0F6E020E0E6E15EC29F00A500B10DC
:10265800D8A431EF13F033EF13F0B3EF13F0A6C0A3
:10266800D9FFA7C0DAFFDECF49F0DDCF4AF0010E6F
:102678004926000E4A2249C0F6FF4AC0F7FF000E5D
:10268800F86E0800F5CFBFF0BF0E496EFF0E4A6E18
:10269800A6C0D9FFA7C0DAFFDECFF6FFDDCFF7FF70
:1026A800000EF86E0800F5504B6E4C6A49504B26E8
:1026B8004A504C224C500AE11A0E4B5CD8A067EFE6
:1026C80013F06AEF13F0010E6BEF13F0000E000128
:1026D800B66FB76BB651B711D8B475EF13F077EF83
:1026E80013F091EF13F0A8C0D9FFA9C0DAFFDFCF2C
:1026F80049F0040EDE26DFCF4AF0000EDD2249C085
:10270800D9FF4AC0DAFFDECFB8F0DECFB9F0DECFAE
:10271800BAF0DECFBBF0A9EF13F0A8C0D9FFA9C06B
:10272800DAFFDFCF49F0040EDE26DFCF4AF0000ED5
:10273800DD2249C0D9FF4AC0DAFFDECFB8F0DECFCC
:10274800B9F0DECFBAF0DECFBBF0020EA6C0D9FFDB
:10275800A7C0DAFFDE26000EDD2206EF13F0A6C0C2
:10276800D9FFA7C0DAFFDECFF6FFDDCFF7FF000EF7
:10277800F86E0800F550730AD8A4C5EF13F0C7EF38
:1027880013F0F2EF13F0A6C0D9FFA7C0DAFFDE2AD4
:10279800000EDD22A8C0D9FFA9C0DAFFDFCF49F0BB
:1027A800020EDE26DFCF4AF0000EDD2249C0D9FF37
:1027B8004AC0DAFFDECFB2F0DDCFB3F0A4C013F029
:1027C800A5C014F0B2C015F0B3C016F062EC21F049
:1027D80013C0A4F014C0A5F049EF14F0A6C0D9FFA7
:1027E800A7C0DAFFDECFF6FFDDCFF7FF000EF86EE9
:1027F8000800F550250AD8A404EF14F006EF14F0E9
:102808001EEF14F0A6C0D9FFA7C0DAFFDE2A000E1B
:10281800DD22000E0B6E250E0A6EA4C00CF0A5C0BA
:102828000DF0F0EC29F0000E0001A56F010EA46F69
:1028380049EF14F0A6C0D9FFA7C0DAFFDE2A000EC0
:10284800DD22000E0001A56F000EA46F49EF14F001
:10285800A6C0D9FFA7C0DAFFDECFF6FFDDCFF7FFAE
:10286800000EF86E0800F5500A6E0B6AA4C00CF052
:10287800A5C00DF0F0EC29F0A6C0D9FFA7C0DAFF7B
:10288800DE2A000EDD2217EF14F012003450800B00
:102898003D6E345034243F6E33AE55EF14F057EF8D
:1028A80014F058EF14F03F803F50D8B45EEF14F0A6
:1028B80060EF14F075EF14F03F28D8A466EF14F019
:1028C80068EF14F070EF14F0000E316E000E326EE7
:1028D800000E336E000E346E338E000E346E7DEFB4
:1028E80014F0000E316E000E326E000E336E000EC4
:1028F800346E3850800B3E6E3D503E18D8B487EF8A
:1029080014F089EF14F08AEF14F03D8C3850382415
:102918003E6E37AE92EF14F094EF14F095EF14F08A
:102928003E803E50D8B49BEF14F09DEF14F0B2EF08
:1029380014F03E28D8A4A3EF14F0A5EF14F0ADEFDF
:1029480014F0000E356E000E366E000E376E000E57
:10295800386E378E000E386EBAEF14F0000E356EF2
:10296800000E366E000E376E000E386E3F503E5C1D
:10297800D8B0C1EF14F0C3EF14F0EAEF14F03DAC97
:10298800C8EF14F0CAEF14F0CCEF14F0800E3D1A23
:102998003FC040F03EC03FF040C03EF031C040F084
:1029A80035C031F040C035F032C040F036C032F0AA
:1029B80040C036F033C040F037C033F040C037F085
:1029C80034C040F038C034F040C038F0000E406EDB
:1029D8003F503EC039F03A6A395E000E3A5A3ABE64
:1029E800FFEF14F03A5009E11A0E395CD8A0FFEF56
:1029F80014F001EF15F038EF15F0315032103310A4
:102A08003410D8A40AEF15F00DEF15F0010E0EEFF3
:102A180015F0000E406E000E316E000E326E000E84
:102A2800336E000E346E3EC03FF041EF15F040A00B
:102A380020EF15F022EF15F028EF15F0D890403070
:102A48000109406E2AEF15F0D890403231A02FEFDF
:102A580015F031EF15F032EF15F0408E3434343282
:102A68003332323231323F2A3E503F5CD8A03FEFFA
:102A780015F041EF15F01BEF15F03DBC46EF15F0D2
:102A880048EF15F088EF15F03F50D8A44EEF15F039
:102A980050EF15F05AEF15F0000E316E000E326E41
:102AA800000E336E000E346EA9EF16F03550312645
:102AB80036503222375033223850342234A067EF50
:102AC80015F069EF15F015EF16F040A06EEF15F050
:102AD80070EF15F076EF15F0D89040300109406E90
:102AE80078EF15F0D890403231A07DEF15F07FEFE8
:102AF80015F080EF15F0408E3434343233323232F0
:102B080031323F2A15EF16F03550315C36503258C5
:102B1800375033583450800A396E3850800A395843
:102B2800D8B099EF15F09BEF15F0C6EF15F03150BE
:102B3800355C396E325036583A6E335037583B6EE2
:102B4800345038583C6EFF0E3924316EFF0E3A204F
:102B5800326EFF0E3B20336EFF0E3C20346E800E2B
:102B68003D1A406C4050D8A4BCEF15F0BEEF15F0EC
:102B7800CEEF15F0010E3126000E32223322342218
:102B8800CEEF15F03550315E3650325A3750335A41
:102B98003850345A3150321033103410D8A4D7EF8B
:102BA80015F0D9EF15F00EEF16F04050D8A4DFEF6E
:102BB80015F0E1EF15F00EEF16F0000E316E000E75
:102BC800326E000E336E000E346EA9EF16F0D890F8
:102BD800313632363336343640AEF5EF15F0F7EF8E
:102BE80015F0F8EF15F0318040A0FDEF15F0FFEF7C
:102BF80015F003EF16F0D880403605EF16F0D890A0
:102C080040363F50D8B40BEF16F00DEF16F00EEF2C
:102C180016F03F0633AE13EF16F015EF16F0EBEF94
:102C280015F0000E3E6E40AE1CEF16F01EEF16F0CB
:102C380036EF16F040C039F07F0E3916D8B427EFBA
:102C480016F029EF16F02DEF16F0010E3E6E36EF56
:102C580016F031A032EF16F034EF16F036EF16F01A
:102C680029EF16F03E50D8B43CEF16F03EEF16F0C0
:102C780069EF16F0010E3126000E3222332234227B
:102C880034A049EF16F04BEF16F069EF16F031C09B
:102C980039F032C03AF033C03BF034C03CF03C3439
:102CA8003C323B323A32393239C031F03AC032F034
:102CB8003BC033F03CC034F03F28D8B466EF16F080
:102CC80068EF16F069EF16F03F2A3F28D8B46FEF87
:102CD80016F071EF16F079EF16F03F50D8A477EFA1
:102CE80016F079EF16F08BEF16F0000E316E000E2D
:102CF800326E000E336E000E346E3F50D8A487EF4C
:102D080016F089EF16F08BEF16F0000E3D6E3FA01F
:102D180090EF16F092EF16F095EF16F0338E96EFCF
:102D280016F0339ED8903F30346E3DAE9EEF16F0CD
:102D3800A0EF16F0A1EF16F0348E31C031F032C09A
:102D480032F033C033F034C034F012001B50800B23
:102D5800246E1B501B242A6E1AAEB5EF16F0B7EF7F
:102D680016F0B8EF16F02A802A50D8B4BEEF16F045
:102D7800C0EF16F0D3EF16F02A28D8A4C6EF16F045
:102D8800C8EF16F0D0EF16F0000E186E000E196E90
:102D9800000E1A6E000E1B6E1A8EDBEF16F0000E78
:102DA800186E000E196E000E1A6E000E1B6E1F5064
:102DB800800B241A1F501F24256E1EAEE6EF16F056
:102DC800E8EF16F0E9EF16F025802550D8B4EFEFBC
:102DD80016F0F1EF16F004EF17F02528D8A4F7EF56
:102DE80016F0F9EF16F001EF17F0000E1C6E000E4A
:102DF8001D6E000E1E6E000E1F6E1E8E0CEF17F05D
:102E0800000E1C6E000E1D6E000E1E6E000E1F6E54
:102E18002550D8B412EF17F014EF17F01CEF17F085
:102E28002A50D8A41AEF17F01CEF17F026EF17F066
:102E3800000E186E000E196E000E1A6E000E1B6E34
:102E4800BEEF18F01E501802F3CF2FF0F4CF30F079
:102E58002F50266E276A286A296A30502B6E2C6AF2
:102E68002D6A2E6A1D501902F3CF2FF0F4CF30F0DF
:102E78002F502626000E27222822292230502B26C2
:102E8800000E2C222D222E221C501A02F3CF2FF0D6
:102E9800F4CF30F02F502626000E27222822292290
:102EA80030502B26000E2C222D222E2228C029F04D
:102EB80027C028F026C027F0266A1C501902F3CF35
:102EC8002FF0F4CF30F02F50262630502722000E56
:102ED8002822000E29221D501802F3CF2FF0F4CF1C
:102EE80030F02F50262630502722000E2822000EC0
:102EF800292228C029F027C028F026C027F0266AF2
:102F08001C501802F3CF2FF0F4CF30F02F502626A4
:102F180030502722000E2822000E29221E501902A6
:102F2800F3CF2FF0F4CF30F02F502B2630502C2237
:102F3800000E2D22000E2E221D501A02F3CF2FF064
:102F4800F4CF30F02F502B2630502C22000E2D229B
:102F5800000E2E221E501A02F3CF2FF0F4CF30F0BD
:102F68002F50206E3050216E226A236A22C023F02F
:102F780021C022F020C021F0206A20502B262150A9
:102F88002C2222502D2223502E2226C020F027C08A
:102F980021F028C022F029C023F0190ED9EF17F02C
:102FA800D8902332223221322032E82ED4EF17F083
:102FB80020502B2621502C2222502D2223502E2205
:102FC80028C029F027C028F026C027F0266A2550F7
:102FD8002AC020F0216A2026000E2122820E2024F9
:102FE8002F6EFF0E2120306E0FEF18F0D8902B3681
:102FF8002C362D362E3629AE04EF18F006EF18F0D1
:1030080007EF18F02B80D890263627362836293631
:103018002F06D8A030062DAE14EF18F016EF18F0D2
:10302800FAEF17F0000E256E29AE1DEF18F01FEF0E
:1030380018F043EF18F0FF0E2614206EFF0E271429
:10304800216EFF0E2814226E7F0E2914236E205045
:10305800211022102310D8B434EF18F036EF18F0EE
:103068003AEF18F0010E256E43EF18F02BA03FEF52
:1030780018F041EF18F043EF18F036EF18F025502C
:10308800D8B449EF18F04BEF18F06FEF18F0010EB5
:103098002B26000E2C222D222E222EA056EF18F0C1
:1030A80058EF18F06FEF18F02BC020F02CC021F06B
:1030B8002DC022F02EC023F02334233222322132B5
:1030C800203220C02BF021C02CF022C02DF023C0CC
:1030D8002EF02F4A302A30BE7AEF18F0305008E12F
:1030E8002F28D8A07AEF18F07CEF18F086EF18F0A8
:1030F800000E2B6E000E2C6E800E2D6E7F0E2E6E27
:10310800B4EF18F030BE93EF18F0305006E12F04FA
:10311800D8B091EF18F093EF18F09FEF18F0000E69
:103128002B6E000E2C6E000E2D6E000E2E6E000EF5
:10313800246EB4EF18F02FC02AF0FF0E2B16FF0EE6
:103148002C167F0E2D16000E2E162AA0AEEF18F0A4
:10315800B0EF18F0B1EF18F02D8ED8902A302E6EFF
:1031680024502E122BC018F02CC019F02DC01AF0C4
:103178002EC01BF012001B50800B286E1B501B2406
:103188002F6E1AAECAEF18F0CCEF18F0CDEF18F08A
:103198002F802F50D8B4D3EF18F0D5EF18F0EAEFFE
:1031A80018F02F28D8A4DBEF18F0DDEF18F0E5EFC2
:1031B80018F0000E186E000E196E000E1A6E000E32
:1031C8001B6E1A8E000E1B6EF2EF18F0000E186EB2
:1031D800000E196E000E1A6E000E1B6E1F50800B2B
:1031E800281A1F501F24306E1EAEFDEF18F0FFEF97
:1031F80018F000EF19F030803050D8B406EF19F00D
:1032080008EF19F01DEF19F03028D8A40EEF19F0C7
:1032180010EF19F018EF19F0000E1C6E000E1D6E5D
:10322800000E1E6E000E1F6E1E8E000E1F6E25EF06
:1032380019F0000E1C6E000E1D6E000E1E6E000EA4
:103248001F6E1C501D101E101F10D8A42EEF19F051
:1032580030EF19F048EF19F0000E186E000E196ED5
:10326800000E1A6E000E1B6E800E1A127F0E1B12B5
:1032780028501B1218C018F019C019F01AC01AF0FB
:103288001BC01BF08BEF1AF02F50D8A44EEF19F08B
:1032980050EF19F05AEF19F0000E186E000E196E63
:1032A800000E1A6E000E1B6E8BEF1AF030502FC0F6
:1032B80020F0216A205E000E215A7F0E2024296EFC
:1032C800000E21202A6E18C024F019C025F01AC05B
:1032D80026F01BC027F0000E186E000E196E000EA7
:1032E8001A6E000E1B6E000E2B6E000E2C6E000E5A
:1032F8002D6E000E2E6E000E306EBBEF19F03050A2
:10330800D8B489EF19F08BEF19F0A2EF19F0D89023
:103318002436253626362736D890183619361A36E2
:103328001B362EAE9AEF19F09CEF19F09DEF19F0AD
:103338001880D8902B362C362D362E361C50245C0F
:103348001D5025581E5026581F502758D8A0AFEF9B
:1033580019F0B1EF19F0BAEF19F02E8C1C50245E59
:103368001D50255A1E50265A1F50275A302A190E0A
:103378003064C1EF19F0C3EF19F083EF19F024504E
:10338800251026102710D8B4CCEF19F0CEEF19F07D
:10339800E6EF19F02B80E6EF19F0D89018361936B9
:1033A8001A361B362EAEDBEF19F0DDEF19F0DEEF23
:1033B80019F01880D8902B362C362D362E36290643
:1033C800D8A02A061AAEEBEF19F0EDEF19F0D1EFFD
:1033D80019F0000E306E2EAEF4EF19F0F6EF19F07A
:1033E8001AEF1AF0FF0E2B14206EFF0E2C14216E0C
:1033F800FF0E2D14226E7F0E2E14236E20502110E6
:1034080022102310D8B40BEF1AF00DEF1AF011EFB9
:103418001AF0010E306E1AEF1AF018A016EF1AF013
:1034280018EF1AF01AEF1AF00DEF1AF03050D8B45E
:1034380020EF1AF022EF1AF046EF1AF0010E1826C4
:10344800000E19221A221B221BA02DEF1AF02FEFB3
:103458001AF046EF1AF018C020F019C021F01AC06F
:1034680022F01BC023F023342332223221322032AF
:1034780020C018F021C019F022C01AF023C01BF098
:10348800294A2A2A2ABE51EF1AF02A5008E1292887
:10349800D8A051EF1AF053EF1AF05EEF1AF0000EB1
:1034A8002A6E2968000E186E000E196E000E1A6E2C
:1034B800000E1B6E2ABE6BEF1AF02A5006E1290493
:1034C800D8B069EF1AF06BEF1AF079EF1AF0000E26
:1034D8002A6E000E296E000E186E000E196E000E70
:1034E8001A6E000E1B6E000E286E29C02FF02FA03A
:1034F80080EF1AF082EF1AF085EF1AF01A8E86EF35
:103508001AF01A9ED8902F301B6E3CEF19F012005B
:1035180027C03FF028C040F029C041F02AC042F03F
:103528002BC043F02CC044F02DC045F02EC046F00F
:1035380046BEA1EF1AF0A4EF1AF0010EA5EF1AF09B
:10354800000E3D6E3E6A3D503E10D8B4AEEF1AF004
:10355800B0EF1AF0C0EF1AF0461E451E441E431E77
:10356800421E411E401E3F6C000E40224122422254
:1035780043224422452246224EBEC5EF1AF0C7EF29
:103588001AF0C8EF1AF04F924EBED5EF1AF04E500F
:1035980006E14D04D8B0D3EF1AF0D5EF1AF0DBEFFF
:1035A8001AF0000E3A6E010E396EDFEF1AF04DC0B8
:1035B80039F04EC03AF01EC13BF01FC13CF03D50FF
:1035C8003E10D8A4EAEF1AF0ECEF1AF0F3EF1AF075
:1035D8004FA4F1EF1AF0F3EF1AF0F6EF1AF03B06EA
:1035E800D8A03C06000E486E4F0E476E000E010133
:1035F8007B6F7BEF1BF04706D8A048062C0E4724AC
:10360800D96E010E4820DA6E3FC00AF040C00BF0B8
:1036180041C00CF042C00DF043C00EF044C00FF0A2
:1036280045C010F046C011F00A0E126E000E136E5F
:10363800000E146E000E156E000E166E000E176E3C
:10364800000E186E000E196EAEEC23F00AC02FF0B3
:103658000BC030F00CC031F00DC032F00EC033F0AA
:103668000FC034F010C035F011C036F02FC01CF078
:1036780031C01DF0E4EC2FF01C50300FDF6E39061E
:10368800D8A03A063B06D8A03C063FC00AF040C086
:103698000BF041C00CF042C00DF043C00EF044C026
:1036A8000FF045C010F046C011F00A0E126E000E61
:1036B800136E000E146E000E156E000E166E000EC0
:1036C800176E000E186E000E196E2FEC22F00AC04D
:1036D8003FF00BC040F00CC041F00DC042F00EC0EE
:1036E80043F00FC044F010C045F011C046F048BE8A
:1036F80086EF1BF0485008E14704D8A086EF1BF07E
:1037080088EF1BF0B8EF1BF03F50401041104210FB
:103718004310441045104610D8A495EF1BF097EFBE
:103728001BF0FFEF1AF03ABEA4EF1BF03A5006E187
:103738003904D8B0A2EF1BF0A4EF1BF0FFEF1AF08A
:103748003CBEAFEF1BF03C5008E13B04D8A0AFEF04
:103758001BF0B1EF1BF0B8EF1BF04FB2B6EF1BF048
:10376800B8EF1BF0FFEF1AF03D503E10D8A4BFEFA2
:103778001BF0C1EF1BF0C8EF1BF04FA4C6EF1BF006
:10378800C8EF1BF0E6EF1BF04706D8A048063D50EF
:103798003E10D8A4D2EF1BF0D4EF1BF0DAEF1BF0E9
:1037A800000E386E2B0E376EDEEF1BF0000E386EF3
:1037B8002D0E376E2C0E4724D96E010E4820DA6E76
:1037C80037C0DFFF25C01AF026C01BF02C0E472497
:1037D8001C6E010E48201D6E3BC01EF03CC01FF041
:1037E800B7EC2AF01AC025F01BC026F0120014C14D
:1037F80041F015C142F016C143F017C144F031C081
:1038080041F032C042F033C043F034C044F0810E7E
:10381800356EFF0E366E41C037F042C038F043C0F7
:1038280039F044C03AF0180E1FEF1CF0D8903A3225
:10383800393238323732E82E1AEF1CF03750352437
:103848003F6E000E3620406E40BE34EF1CF04050F4
:1038580009E1170E3F5CD8A034EF1CF036EF1CF0DE
:1038680040EF1CF031C031F032C032F033C033F0D9
:1038780034C034F003EF1DF040BE45EF1CF047EFB5
:103888001CF0B7EF1CF03FC035F0FF0E366EFF0E90
:10389800376E7F0E386E000E396E356656EF1CF0A7
:1038A8005EEF1CF039343932383237323632352E41
:1038B80051EF1CF036C03BF037C03CF038C03DF04B
:1038C80039C03EF03B504114356E3C504214366EC0
:1038D8003D504314376E3E504414386E3550361000
:1038E80037103810D8A47BEF1CF07DEF1CF07FEF69
:1038F8001CF036EF1CF041C035F042C036F043C032
:1039080037F044C038F0200E8FEF1CF0D8903832D2
:10391800373236323532E82E8AEF1CF03550361001
:1039280037103810D8B49BEF1CF09DEF1CF0A5EFB2
:103938001CF03B5041263C5042223D5043223E5011
:1039480044223B1C356E3C1C366E3D1C376E3E1CBB
:10395800386E355041163650421637504316385097
:103968004416FBEF1CF041C035F042C036F043C0AE
:1039780037F044C038F0200EC7EF1CF0D89038322A
:10398800373236323532E82EC2EF1CF03550361059
:1039980037103810D8A4D3EF1CF0D5EF1CF0DFEFA8
:1039A8001CF0000E416E000E426E000E436E000EBB
:1039B800446EFBEF1CF0D8904134356E4234366EBD
:1039C8004334376E4434386E35503610371038105B
:1039D800D8B4F1EF1CF0F3EF1CF0FBEF1CF0000E75
:1039E800416E000E426E800E436EBF0E446E41C0A3
:1039F80031F042C032F043C033F044C034F012001A
:103A0800000E356E000E366E070E376EC30E386E1A
:103A1800000E1C6E000E1D6E480E1E6E410E1F6EAF
:103A280045C00AF046C00BF00C6A0D6A000EE9ECBE
:103A38001EF00AC018F00BC019F00CC01AF00DC027
:103A48001BF0AAEC16F018C031F019C032F01AC0F9
:103A580033F01BC034F04AEC14F031C064F032C0CB
:103A680065F033C066F034C067F064C031F065C0FB
:103A780032F066C033F067C034F026C10AF027C1BF
:103A88000BF00C6A0D6A000EE9EC1EF00AC035F066
:103A98000BC036F00CC037F00DC038F04AEC14F00B
:103AA80031C060F032C061F033C062F034C063F0FE
:103AB80020EE01F04150D9264250DA22000EDF6E86
:103AC80020EE01F04350D9264450DA22010EDF6E71
:103AD800B1EF1DF07EA073EF1DF077EF1DF0476A80
:103AE800472A78EF1DF0476A7E504718FE0B4718A3
:103AF8007E6E41C0D9FF42C0DAFF280EDF6087EF33
:103B08001DF089EF1DF08FEF1DF041C0D9FF42C0B5
:103B1800DAFF0A0EDF2643C0D9FF44C0DAFF280EB9
:103B2800DF6099EF1DF09BEF1DF0A1EF1DF043C082
:103B3800D9FF44C0DAFF0A0EDF2641C018F042C0A0
:103B480019F0FFEC1DF043C018F044C019F0FFEC69
:103B58001DF0A00E00D0E82EFDD741C0D9FF42C00D
:103B6800DAFF270EDF64BBEF1DF0BDEF1DF06EEF2F
:103B78001DF043C0D9FF44C0DAFF270EDF64C7EF4A
:103B88001DF0C9EF1DF06EEF1DF0000E0001696F0A
:103B9800000E686FDBEF1DF0150E476EC60EE82E9F
:103BA800FED7472EFCD700D00001684B692B68C0B0
:103BB8000AF069C00BF00C6A0D6A000EE9EC1EF001
:103BC8000AC031F00BC032F00CC033F00DC034F035
:103BD80060C035F061C036F062C037F063C038F0BD
:103BE80014EC28F0D8A0FBEF1DF0FDEF1DF0D0EF8E
:103BF8001DF07E90120020EE01F01850D9261950C1
:103C0800DA22DF50D8B40BEF1EF00DEF1EF03EEFB6
:103C18001EF018C0D9FF19C0DAFFDF501A6E1A500B
:103C28000A6E0B6A20EE07F01850D9261950DA22CE
:103C3800DECF0CF0DDCF0DF0C9EC30F00AC010F08B
:103C48000BC011F0000E136E640E126E55EC2AF0C4
:103C580020EE07F01850D9261950DA22DECF1BF0D3
:103C6800DDCF1CF010501B5C216E11501C58226EC9
:103C780061EF1EF018C0D9FF19C0DAFFDF501A6EC5
:103C88001A500A6E0B6A20EE07F01850D926195000
:103C9800DA22DECF0CF0DDCF0DF0C9EC30F00AC02F
:103CA80010F00BC011F0000E136E640E126E55EC7E
:103CB8002AF010C021F011C022F020EE02F01850B6
:103CC800D9261950DA22DECF1AF0DDCF1BF01AC040
:103CD800D9FF1BC0DAFF21C0DFFF20EE01F018502A
:103CE800D9261950DA22DF50D8B47DEF1EF07FEFC5
:103CF8001EF0B4EF1EF020EE04F01850D92619502B
:103D0800DA22DECF1AF0DDCF1BF01AC0D9FF1BC0B4
:103D1800DAFF10EE04F01850E1261950E222E6CF3F
:103D28001CF0E5CF1DF01CC0E1FF1DC0E2FFE7500D
:103D38001E6E10EE06F01850E1261950E222E750E8
:103D48001F6E010E206E1F2AACEF1EF0D890203691
:103D58001F2EAAEF1EF020501E10DF6EE8EF1EF097
:103D680020EE04F01850D9261950DA22DECF1AF0C6
:103D7800DDCF1BF01AC0D9FF1BC0DAFF10EE04F02C
:103D88001850E1261950E222E6CF1CF0E5CF1DF0CD
:103D98001CC0E1FF1DC0E2FFE7501E6E10EE06F0EA
:103DA8001850E1261950E222E7501F6E010E206ECE
:103DB8001F2AE1EF1EF0D89020361F2EDFEF1EF0ED
:103DC8002050FF0A1E14DF6E1200126E1250D8B473
:103DD800F0EF1EF0F2EF1EF014EF1FF00DBEF9EF3A
:103DE8001EF0F7EF1EF014EF1FF00AC00EF00BC024
:103DF8000FF00CC010F00DC011F00E1E0F1E101E9B
:103E0800111E0E2A000E0F22102211220EC014F0CD
:103E18000FC015F010C016F011C017F01CEF1FF0FE
:103E28000AC014F00BC015F00CC016F00DC017F046
:103E38000A500B100C100D10D8A425EF1FF027EF17
:103E48001FF031EF1FF0000E0A6E000E0B6E000E11
:103E58000C6E000E0D6EC2EF1FF0960E136E3BEF48
:103E68001FF0132AD8901732163215321432000E6A
:103E780014140E6E000E15140F6E000E1614106E2C
:103E8800FE0E1714116E0E500F1010101110D8A43A
:103E980050EF1FF052EF1FF035EF1FF060EF1FF0EB
:103EA800132A010E1426000E152216221722D89066
:103EB8001732163215321432000E14140E6E000E1C
:103EC80015140F6E000E1614106EFF0E1714116ED7
:103ED8000E500F1010101110D8A475EF1FF077EFC7
:103EE8001FF054EF1FF07FEF1FF01306D890143621
:103EF80015361636173616BE84EF1FF086EF1FF0FC
:103F08008EEF1FF0020E13608CEF1FF08EEF1FF084
:103F180079EF1FF013B093EF1FF095EF1FF096EFB6
:103F28001FF0169ED890133213C00EF00F6A106A55
:103F3800116A0EC011F0106A0F6A0E6A0E50141240
:103F48000F50151210501612115017121250D8B4E3
:103F5800B0EF1FF0B2EF1FF0BAEF1FF00DBEB9EFD0
:103F68001FF0B7EF1FF0BAEF1FF0178E14C00AF05A
:103F780015C00BF016C00CF017C00DF01200000EA3
:103F88001F6E000E1E6E000E186E000E176ECFEF1D
:103F98001FF0114A122A010E1D6E11C0F6FF12C041
:103FA800F7FF000EF86E0800F550200AD8B4DFEFCE
:103FB8001FF0E1EF1FF000EF20F0F70E136EFF0E79
:103FC800146E11C0F6FF12C0F7FF000EF86E08005D
:103FD800F550156E166A13501526145016221650F1
:103FE80009E1050E155CD8A0FCEF1FF0FEEF1FF0ED
:103FF80000EF20F0000E1D6E1DC019F01A6A19504E
:104008001A10D8A40AEF20F00CEF20F0CDEF1FF023
:1040180016EF20F0000E186E010E176E114A122AC4
:104028004FEF20F011C0F6FF12C0F7FF000EF86E38
:104038000800F550136E146A1450000AD8B427EF1C
:1040480020F04FEF20F013502B0AD8B412EF20F0D5
:10405800060AD8B40EEF20F04FEF20F01EC00AF089
:104068001FC00BF0000E0D6E0A0E0C6EC9EC30F07E
:1040780011C0F6FF12C0F7FF000EF86E0800F550E9
:104088000A5E000E0B5A300E0A241E6E000E0B201C
:104098001F6E12EF20F0D00E136EFF0E146E11C0BB
:1040A800F6FF12C0F7FF000EF86E0800F550156E07
:1040B800166A135015261450162216500AE10A0ED5
:1040C800155CD8A06AEF20F06DEF20F0010E6EEFBE
:1040D80020F0000E1B6E1C6A1B501C10D8A477EF32
:1040E80020F079EF20F032EF20F017501810D8A404
:1040F80080EF20F082EF20F090EF20F01EC013F048
:104108001FC014F0131E141E134A142A13C011F0F2
:1041180014C012F094EF20F01EC011F01FC012F06E
:104128001200000E526E000E516E7F0E556E5468CE
:10413800000E0101276F000E266F000E256F000E7E
:10414800246F000E2A6F000E296F000E286F000ED4
:104158000001F46F000E0101C76F010EC86FA30EB6
:10416800C96F0F0ECA6F7D0ECB6F0F0ECC6F040E8A
:10417800CD6F000ECF6F630ECE6F000ED06F010EA5
:10418800D16FA00ED26F0F0ED36F7F0ED46F0F0EAC
:10419800D56F060ED66F000ED86F630ED76F4CEC36
:1041A80031F004EC30F0630E96EC2EF01FEC31F099
:1041B8000FEC31F05BEC26F0C70E486E010E496E2D
:1041C800D00E4A6E010E4B6EB5EC25F08EA4EFEFC3
:1041D80020F0F1EF20F0F8EF20F08EB6F6EF20F0A7
:1041E800F8EF20F0EAEF20F07C86010EEEEC30F0DC
:1041F800520E0001F36F2B0EF26F000EE82EFED761
:10420800F22FFCD7F32FFAD700F0DCEC30F0C70E12
:10421800236E010E246ED00E256E010E266E0CEC58
:104228002CF001012905D8A41CEF21F01EEF21F084
:1042380015EF21F0C70E236E010E246ED00E256EE9
:10424800010E266E53EC2CF0520E0001F36F2B0E6C
:10425800F26F000EE82EFED7F22FFCD7F32FFAD715
:1042680000F0BF0E0001706F010E716FC70E726F04
:10427800010E736FD00E746F010E756F89EC0DF01F
:10428800520E0001F36F2B0EF26F000EE82EFED7D0
:10429800F22FFCD7F32FFAD700F0C70E236E010ECA
:1042A800246ED00E256E010E266E0CEC2CF0000E3E
:1042B8000101296F15EF21F030EF00F021EED9F060
:1042C80010EE18F0060EDBCFE3FFE806FCE215C09F
:1042D80023F016C024F023502410D8A476EF21F040
:1042E80078EF21F07CEF21F0180E236E000E246E7B
:1042F80023C00AF024C00BF0CEEC2DF00AC027F042
:104308000BC028F04DC025F04EC026F026BE8FEF1A
:1043180021F091EF21F0A6EF21F02750255C2650DF
:10432800800A176E2850800A1758D8A09EEF21F0EF
:10433800A0EF21F0A2EF21F0A6EF21F025C027F091
:1043480026C028F027C025F028C026F01EC121F07D
:104358001FC122F04FB0B3EF21F0B5EF21F0D2EF3B
:1043680021F0C3EF21F0000E0B6E200E0A6E13C071
:104378000CF014C00DF0F0EC29F0274A282A21503F
:10438800275C2850800A176E2250800A1758D8A038
:10439800D0EF21F0D2EF21F0B7EF21F0000E206E20
:1043A800000E1F6EF7EF21F023C0F6FF24C0F7FFC1
:1043B800000EF86E0D0EF76403D00800F55005D016
:1043C800F6CFE1FFF7CFE2FFE750176E17500A6EFE
:1043D8000B6A13C00CF014C00DF0F0EC29F0234A5E
:1043E800242A1F4A202A25501F5C2050800A176E55
:1043F8002650800A1758D8A004EF22F006EF22F0C2
:10440800D8EF21F04FA00BEF22F00DEF22F02AEFAA
:1044180022F01BEF22F0000E0B6E200E0A6E13C066
:104428000CF014C00DF0F0EC29F0274A282A21508E
:10443800275C2850800A176E2250800A1758D8A087
:1044480028EF22F02AEF22F00FEF22F027C013F016
:1044580028C014F01200000E1B6E19BE38EF22F0AF
:1044680036EF22F04AEF22F0191E181E171E161EEC
:10447800151E141E131E126C000E13221422152270
:104488001622172218221922010E1B6E11BE51EF97
:1044980022F04FEF22F063EF22F0111E101E0F1EC4
:1044A8000E1E0D1E0C1E0B1E0A6C000E0B220C227B
:1044B8000D220E220F2210221122010E1B1A20EEAD
:1044C8001CF0070EDE6AE806FDE212501310141005
:1044D80015101610171018101910D8B476EF22F00E
:1044E80078EF22F0CAEF22F0010E1A6E86EF22F062
:1044F800D89012361336143615361636173618363F
:1045080019361A2A19AE8BEF22F08DEF22F07CEFC4
:1045180022F0D8901C361D361E361F36203621361E
:104528002236233612500A5C13500B5814500C587C
:1045380015500D5816500E5817500F58185010583F
:1045480019501158D8A0ABEF22F0ADEF22F0BEEF12
:1045580022F012500A5E13500B5A14500C5A155080
:104568000D5A16500E5A17500F5A1850105A195003
:10457800115A1C80D8901932183217321632153257
:104588001432133212321A2E8DEF22F01B50D8B487
:10459800D0EF22F0D2EF22F0E2EF22F0231E221E0B
:1045A800211E201E1F1E1E1E1D1E1C6C000E1D22FD
:1045B8001E221F2220222122222223221CC00AF08E
:1045C8001DC00BF01EC00CF01FC00DF020C00EF077
:1045D80021C00FF022C010F023C011F0120031C02A
:1045E800D9FF32C0DAFFDECF35F0DDCF36F020EE6E
:1045F80002F03150D9263250DA22DECF37F0DDCF43
:1046080038F020EE04F03150D9263250DA22DECFCD
:1046180039F0DDCF3AF020EE06F03150D92632508D
:10462800DA22DECF3BF0DDCF3CF035C00AF036C0F1
:104638000BF00C6A0D6A000EE9EC1EF00AC018F0C7
:104648000BC019F00CC01AF00DC01BF03BC00AF0EB
:104658003CC00BF00C6A0D6A000EE9EC1EF00AC0B3
:104668001CF00BC01DF00CC01EF00DC01FF0BFECFD
:1046780018F033C0D9FF34C0DAFF18C0DEFF19C004
:10468800DEFF1AC0DEFF1BC0DEFF37C00AF038C0ED
:104698000BF00C6A0D6A000EE9EC1EF00AC018F067
:1046A8000BC019F00CC01AF00DC01BF03BC00AF08B
:1046B8003CC00BF00C6A0D6A000EE9EC1EF00AC053
:1046C8001CF00BC01DF00CC01EF00DC01FF0BFEC9D
:1046D80018F020EE04F03350D9263450DA2218C0EE
:1046E800DEFF19C0DEFF1AC0DEFF1BC0DEFF39C0C7
:1046F8000AF03AC00BF00C6A0D6A000EE9EC1EF0E5
:104708000AC018F00BC019F00CC01AF00DC01BF04D
:104718003BC00AF03CC00BF00C6A0D6A000EE9ECD5
:104728001EF00AC01CF00BC01DF00CC01EF00DC01E
:104738001FF0BFEC18F020EE08F03350D9263450A3
:10474800DA2218C0DEFF19C0DEFF1AC0DEFF1BC068
:10475800DEFF1200000E1B6E11BEB7EF23F0B5EF9F
:1047680023F0C9EF23F0111E101E0F1E0E1E0D1E82
:104778000C1E0B1E0A6C000E0B220C220D220E22A0
:104788000F2210221122010E1B6E19BED0EF23F04A
:10479800CEEF23F0E0EF23F0191E181E171E161E89
:1047A800151E141E131E126C000E1322142215223D
:1047B800162217221822192212501310141015103D
:1047C8001610171018101910D8B4EDEF23F0EFEFEA
:1047D80023F037EF24F0010E1A6EFDEF23F0D89086
:1047E8001236133614361536163617361836193665
:1047F8001A2A19AE02EF24F004EF24F0F3EF23F0A5
:1048080012500A5C13500B5814500C5815500D5880
:1048180016500E5817500F58185010581950115854
:10482800D8A019EF24F01BEF24F02BEF24F012503E
:104838000A5E13500B5A14500C5A15500D5A165044
:104848000E5A17500F5A1850105A1950115AD8901A
:104858001932183217321632153214321332123214
:104868001A2E04EF24F01B50D8B43DEF24F03FEF8C
:1048780024F04FEF24F0111E101E0F1E0E1E0D1EE9
:104888000C1E0B1E0A6C000E0B220C220D220E228F
:104898000F22102211220AC00AF00BC00BF00CC024
:1048A8000CF00DC00DF00EC00EF00FC00FF010C0D0
:1048B80010F011C011F01200000EEEEC30F0090EED
:1048C8001B6E1E0E1A6EE40EE82EFED71A2EFCD7AB
:1048D8001B2EFAD700D01904D8A475EF24F077EF6F
:1048E80024F0A5EF24F07F82520E1B6E2B0E1A6E59
:1048F800000EE82EFED71A2EFCD71B2EFAD700D0B2
:1049080017C015F018C016F022EC2DF0520E1B6ED1
:104918002B0E1A6E000EE82EFED71A2EFCD71B2E71
:10492800FAD700D07F92020E1B6EA00E1A6E920E5E
:10493800E82EFED71A2EFCD71B2EFAD700D0FBEF95
:1049480024F0020E1918D8A4ACEF24F0AEEF24F02E
:10495800D0EF24F07988520E1B6E2B0E1A6E000EC3
:10496800E82EFED71A2EFCD71B2EFAD700D017C078
:1049780015F018C016F022EC2DF0520E1B6E2B0EFF
:104988001A6E000EE82EFED71A2EFCD71B2EFAD769
:1049980000D0799897EF24F0030E1918D8A4D7EF10
:1049A80024F0D9EF24F0FBEF24F07E8E520E1B6E1C
:1049B8002B0E1A6E000EE82EFED71A2EFCD71B2ED1
:1049C800FAD700D017C015F018C016F022EC2DF059
:1049D800520E1B6E2B0E1A6E000EE82EFED71A2EE4
:1049E800FCD71B2EFAD700D07E9E97EF24F0010E3D
:1049F800EEEC30F0090E1B6E1E0E1A6EE40EE82E59
:104A0800FED71A2EFCD71B2EFAD700D0120027C0CB
:104A180029F028C02AF0D89029362A36D890293685
:104A28002A36D89029362A360101245129262551BB
:104A38002A22B40E29242B6E000E2A202C6E20EE7A
:104A480001F02350D9262450DA22010EDF6E20EE21
:104A580001F02550D9262650DA22000EDF6E78EFB5
:104A680025F080A03AEF25F03EEF25F0296A292AA3
:104A78003FEF25F0296A80502918FE0B2918806E0F
:104A880023C0D9FF24C0DAFF280EDF604EEF25F0DF
:104A980050EF25F056EF25F023C0D9FF24C0DAFFE8
:104AA8000A0EDF2625C0D9FF26C0DAFF280EDF60F0
:104AB80060EF25F062EF25F068EF25F025C0D9FFFB
:104AC80026C0DAFF0A0EDF2623C018F024C019F02A
:104AD800FFEC1DF025C018F026C019F0FFEC1DF002
:104AE800A00E00D0E82EFDD723C0D9FF24C0DAFFDE
:104AF800270EDF6482EF25F084EF25F035EF25F0EF
:104B080025C0D9FF26C0DAFF270EDF648EEF25F017
:104B180090EF25F035EF25F0000E2E6E000E2D6E6D
:104B2800A0EF25F0150E296EC60EE82EFED7292E09
:104B3800FCD700D02D4A2E2A2B502D5C2C502E58F5
:104B4800D8A0A9EF25F0ABEF25F096EF25F0150ECC
:104B5800296EC60EE82EFED7292EFCD700D08090ED
:104B680012008EA4BAEF25F0BCEF25F0C3EF25F0B4
:104B78008EB6C1EF25F0C3EF25F0B5EF25F07C86A2
:104B8800110E0001716F3C0E706FCB0EE82EFED730
:104B9800702FFCD7712FFAD748C06AF049C06BF064
:104BA8004AC06CF04BC06DF0010E00016F6F680ECB
:104BB8006E6FE6EC2EF0520E0001716F2B0E706FC7
:104BC800000EE82EFED7702FFCD7712FFAD700F011
:104BD80048C023F049C024F04AC025F04BC026F055
:104BE80053EC2CF08EA4FBEF25F0FDEF25F004EF3D
:104BF80026F08EB602EF26F004EF26F0F6EF25F049
:104C0800010EF8EC26F07C96520E0001716F2B0E07
:104C1800706F000EE82EFED7702FFCD7712FFAD7D1
:104C280000F07C86110E0001716F3C0E706FCB0E88
:104C3800E82EFED7702FFCD7712FFAD748C06AF03C
:104C480049C06BF04AC06CF04BC06DF0010E00011A
:104C58006F6F680E6E6FBEEC2EF0520E0001716F12
:104C68002B0E706F000EE82EFED7702FFCD7712F19
:104C7800FAD700F048C023F049C024F04AC025F014
:104C88004BC026F053EC2CF08EA44DEF26F04FEFDE
:104C980026F056EF26F08EB654EF26F056EF26F0A3
:104CA80048EF26F0020EF8EC26F07C9612008EB43F
:104CB80060EF26F062EF26F05BEF26F07C86010EAF
:104CC800EEEC30F07C8E520E0001F16F2B0EF06F7F
:104CD800000EE82EFED7F02FFCD7F12FFAD700F000
:104CE800AF0E156E010E166E22EC2DF0520E00015D
:104CF800F16F2B0EF06F000EE82EFED7F02FFCD7C9
:104D0800F12FFAD700F07C9E000E0101AE6F8EB431
:104D180090EF26F092EF26F08BEF26F07C8EB70E00
:104D2800156E010E166E22EC2DF00101B551BD5D18
:104D3800B651BE59D8B0A3EF26F0A5EF26F0B6EFCE
:104D480026F0BD51515CBE515258D8B0AEEF26F096
:104D5800B0EF26F0B6EF26F0BDC151F0BEC152F05B
:104D6800D0EF26F0BD51B55DBE51B659D8B0BFEFF2
:104D780026F0C1EF26F0D0EF26F05450BD5D555017
:104D8800BE59D8B0CAEF26F0CCEF26F0D0EF26F007
:104D9800BDC154F0BEC155F0AF0E0001EA6F010E5F
:104DA800EB6FB70EEC6F010EED6F86EC29F0520E2B
:104DB8000001F16F2B0EF06F000EE82EFED7F02FDA
:104DC800FCD7F12FFAD700F07C9E0101AE2B070E1D
:104DD800AE65F1EF26F0F3EF26F08BEF26F07C9628
:104DE800000EEEEC30F012000D6E520E0B6E2B0E14
:104DF8000A6E000EE82EFED70A2EFCD70B2EFAD725
:104E080000D0000E0C6E8EB40CEF27F00EEF27F0DA
:104E180042EF27F08EA613EF27F015EF27F042EFA9
:104E280027F07C8E0D04D8A41CEF27F01EEF27F086
:104E380025EF27F0050E01012427000E252333EF67
:104E480027F0020E0D18D8A42CEF27F02EEF27F02C
:104E580033EF27F0050E01012627000E2723410E08
:104E68000B6EF00E0A6E330EE82EFED70A2EFCD714
:104E78000B2EFAD700F07C9E7BEF27F08EB647EF1B
:104E880027F049EF27F07BEF27F08EA44EEF27F0AD
:104E980050EF27F07BEF27F080860D04D8A457EF5A
:104EA80027F059EF27F060EF27F0050E0101245F86
:104EB800000E255B6EEF27F0020E0D18D8A467EFE1
:104EC80027F069EF27F06EEF27F0050E0101265F46
:104ED800000E275B410E0B6EF00E0A6E330EE82EA5
:104EE800FED70A2EFCD70B2EFAD700F08096110EAB
:104EF8000B6E3C0E0A6ECB0EE82EFED70A2EFCD7A0
:104F08000B2EFAD700F00C2A090E0C648EEF27F04E
:104F180090EF27F007EF27F012000C340D34136ED2
:104F28001350D8A49AEF27F09CEF27F0A6EF27F0AC
:104F3800000E0A6E000E0B6E000E0C6E000E0D6E4B
:104F480013EF28F00AC00EF00BC00FF00CC010F0E1
:104F58000DC011F0200EB6EF27F0D89011321032A4
:104F68000F320E32E82EB1EF27F00E50126E0C8E73
:104F7800FF0E0A16FF0E0B16FF0E0C16000E0D166E
:104F8800960E135E13BECDEF27F0CBEF27F0E3EFBD
:104F980027F01350800A970FD8B0D5EF27F0D7EF36
:104FA80027F0D9EF27F09CEF27F0D8900D320C327C
:104FB8000B320A32133ED9EF27F0FBEF27F01F0E12
:104FC8001364E9EF27F0EBEF27F0F3EF27F09CEFFE
:104FD80027F0D8900A360B360C360D3613061350C8
:104FE800D8A4F9EF27F0FBEF27F0EDEF27F01250E8
:104FF800D8B401EF28F003EF28F00BEF28F00D1ECE
:105008000C1E0B1E0A6C000E0B220C220D220AC06D
:105018000AF00BC00BF00CC00CF00DC00DF0120024
:10502800000E3114396E000E32143A6E800E3314AD
:105038003B6E7F0E34143C6E39503A103B103C10D6
:10504800D8A429EF28F02BEF28F033EF28F0000E32
:10505800316E000E326E000E336E000E346E000E8E
:105068003514396E000E36143A6E800E37143B6EC6
:105078007F0E38143C6E39503A103B103C10D8A4BF
:1050880048EF28F04AEF28F052EF28F0000E356E6E
:10509800000E366E000E376E000E386E34AE57EFC7
:1050A80028F059EF28F062EF28F0316C321ED8B0A2
:1050B800322A331ED8B0332A800E345638AE67EF02
:1050C80028F069EF28F072EF28F0356C361ED8B05A
:1050D800362A371ED8B0372A800E3856000E311AB5
:1050E800000E321A000E331A800E341A000E351ACA
:1050F800000E361A000E371A800E381A3550315CF9
:10510800365032583750335838503458D8B08FEF5B
:1051180028F091EF28F094EF28F0D89095EF28F038
:10512800D880120018C114F019C115F01AC116F070
:105138001BC117F00AC014F00BC015F00CC016F014
:105148000DC017F014C00EF015C00FF016C010F007
:1051580017C011F0180EB6EF28F0D890113210329F
:105168000F320E32E82EB1EF28F00E50126E136A8D
:1051780012501310D8A4C3EF28F0C5EF28F0E5EFBC
:1051880028F0D89014340E6E15340F6E1634106E45
:105198001734116E0E500F1010101110D8A4D7EF3D
:1051A80028F0D9EF28F0DFEF28F0000E0B6E020E82
:1051B8000A6E14EF29F0000E0B6E030E0A6E14EF40
:1051C80029F012281310D8A4ECEF28F0EEEF28F0FD
:1051D80010EF29F014C00EF015C00FF016C010F033
:1051E80017C011F0090ED8900E360F36103611364A
:1051F800E82EF7EF28F00E500F1010101110D8B449
:1052080008EF29F00BEF29F0010E0CEF29F0000E42
:105218000A6E0B6A14EF29F0000E0B6E040E0A6E6C
:1052280012000AC011F00BC012F00CC013F00DC030
:1052380014F00E06D8A00F060E2806E10F28D8A4F1
:1052480028EF29F02AEF29F037EF29F0000E0B6E2E
:10525800000E0A6E85EF29F0114A122A134A142A01
:105268000E06D8A00F0611C0D9FF12C0DAFFDF5012
:10527800D8B441EF29F043EF29F072EF29F013C0B9
:10528800F6FF14C0F7FF000EF86E0800F55000098D
:10529800D8B451EF29F053EF29F072EF29F00E50EE
:1052A8000F10D8B45AEF29F05CEF29F072EF29F00B
:1052B80011C0D9FF12C0DAFFDF50106E13C0F6FF1D
:1052C80014C0F7FF000EF86E0800F5501018D8B497
:1052D80070EF29F072EF29F030EF29F011C0D9FFF3
:1052E80012C0DAFFDF50106E13C0F6FF14C0F7FFCC
:1052F800000EF86E0800F550105C0A6E0B6AD8A014
:105308000B061200000120EE06F0EA51D926EB51F7
:10531800DA22DECFA4F1DDCFA5F1ECC0D9FFEDC0D4
:10532800DAFFDECFA6F1DDCFA7F120EE02F0EC51D7
:10533800D926ED51DA22DECFA8F1DDCFA9F120EE92
:1053480004F0EC51D926ED51DA22DECFAAF1DDCFF7
:10535800ABF120EE06F0EC51D926ED51DA22DECF82
:10536800ACF1DDCFADF17C0EC86F010EC96F410EF7
:10537800CA6F0E0ECB6FA6C1CCF0A7C1CDF0A8C1E5
:10538800CEF0A9C1CFF0AAC1D0F0ABC1D1F0ACC169
:10539800D2F0ADC1D3F051C0D4F052C0D5F0A4C101
:1053A800D6F0A5C1D7F054C0D8F055C0D9F07CECE0
:1053B8002DF07C0E0B6E010E0C6E74EC30F0290E85
:1053C8000001EF6F960EEE6F7F0EE82EFED7EE2FE0
:1053D800FCD7EF2FFAD712000C500D10D8B4F7EF06
:1053E80029F0F9EF29F002EF2AF00C500D10D8A49B
:1053F80000EF2AF002EF2AF007EF2AF00A50C4EC77
:1054080031F054EF2AF020EE04F00C50D9260D505C
:10541800DA22DE50DE10D8B414EF2AF016EF2AF0A4
:1054280031EF2AF020EE04F00C50D9260D50DA2284
:1054380010EE02F00C50E1260D50E222DE50E65C40
:10544800E650800A126EDE50800A1258D8B02FEF4C
:105458002AF031EF2AF054EF2AF020EE02F00C5037
:10546800D9260D50DA22DECF0EF0DDCF0FF00CC0BA
:10547800D9FF0DC0DAFFDECF10F0DDCF11F00E50EE
:105488001024D96E0F501120DA6E0AC0DFFF20EE0B
:1054980002F00C50D9260D50DA22DE2A000EDD2249
:1054A8001200000E156E13BE5EEF2AF05CEF2AF0B4
:1054B80064EF2AF0126C131ED8B0132A010E156E71
:1054C80011BE6BEF2AF069EF2AF071EF2AF0106C29
:1054D800111ED8B0112A010E151A000E176E000EF3
:1054E800166E12501310D8B47CEF2AF07EEF2AF013
:1054F800A6EF2AF0010E146E86EF2AF0D890123625
:105508001336142A13AE8BEF2AF08DEF2AF082EFB0
:105518002AF0D890163617361250105C13501158CE
:10552800D8A099EF2AF09BEF2AF0A0EF2AF01250AA
:10553800105E1350115A1680D89013321232142E5E
:105548008DEF2AF01550D8B4ACEF2AF0AEEF2AF060
:10555800B2EF2AF0166C171ED8B0172A16C010F032
:1055680017C011F012004FA0BCEF2AF0BEEF2AF0CE
:10557800C8EF2AF01CC013F01DC014F01AC015F0B3
:105588001BC016F07FEC2FF01FBECDEF2AF0CFEF37
:105598002AF0D5EF2AF01EC023F01FC024F0D9EF5F
:1055A8002AF0000E246E000E236E000E226E000EEE
:1055B800216EEBEF2AF0000E0B6E200E0A6E1AC059
:1055C8000CF01BC00DF0F0EC29F0214A222A2350E0
:1055D800215C2250800A206E2450800A2058D8A0CE
:1055E800F8EF2AF0FAEF2AF0DFEF2AF04FB0FFEFDA
:1055F8002AF001EF2BF00BEF2BF01CC013F01DC0AD
:1056080014F01AC015F01BC016F07FEC2FF01CC068
:105618000AF01DC00BF0CEEC2DF023500A241A6EB0
:1056280024500B201B6E1200000E0F6E0BBE21EFD4
:105638002BF01FEF2BF027EF2BF00A6C0B1ED8B0C6
:105648000B2A010E0F6E0DBE2EEF2BF02CEF2BF058
:1056580032EF2BF00C6C0D1ED8B00D2A0C500D102B
:10566800D8B439EF2BF03BEF2BF05FEF2BF0010EA6
:105678000E6E43EF2BF0D8900C360D360E2A0DAE79
:1056880048EF2BF04AEF2BF03FEF2BF00C500A5C61
:105698000D500B58D8A053EF2BF055EF2BF059EFC6
:1056A8002BF00C500A5E0D500B5AD8900D320C326C
:1056B8000E2E4AEF2BF00F50D8B465EF2BF067EFA2
:1056C8002BF06BEF2BF00A6C0B1ED8B00B2A0AC01C
:1056D8000AF00BC00BF01200000E0A14126E000E36
:1056E8000B14136E800E0C14146E7F0E0D14156EB1
:1056F8001250131014101510D8A485EF2BF087EF53
:105708002BF08FEF2BF0000E0A6E000E0B6E000EC2
:105718000C6E000E0D6E000E0E14126E000E0F149D
:10572800136E800E1014146E7F0E1114156E125025
:10573800131014101510D8A4A4EF2BF0A6EF2BF01B
:10574800AEEF2BF0000E0E6E000E0F6E000E106EF8
:10575800000E116E0E500A180FE10F500B180CE1D5
:1057680010500C1809E111500D18D8B4BEEF2BF0E9
:10577800C0EF2BF0C3EF2BF0D890C4EF2BF0D880FC
:10578800120020EE01F02350D9262450DA22000E10
:10579800DF6E20EE01F02550D9262650DA22000EC1
:1057A800DF6EF3EF2BF023C0D9FF24C0DAFF0A0E17
:1057B800DF2625C0D9FF26C0DAFF0A0EDF2623C060
:1057C80018F024C019F0FFEC1DF025C018F026C011
:1057D80019F0FFEC1DF0A00E00D0E82EFDD723C075
:1057E800D9FF24C0DAFF280EDF60FDEF2BF0FFEFB2
:1057F8002BF00BEF2CF025C0D9FF26C0DAFF270EBF
:10580800DF6409EF2CF00BEF2CF0D7EF2BF0120030
:1058180020EE01F02350D9262450DA22010EDF6E43
:1058280020EE01F02550D9262650DA22010EDF6E2F
:105838003AEF2CF023C0D9FF24C0DAFF0A0EDF2686
:1058480025C0D9FF26C0DAFF0A0EDF2623C018F0CC
:1058580024C019F0FFEC1DF025C018F026C019F07F
:10586800FFEC1DF0A00E00D0E82EFDD723C0D9FF15
:1058780024C0DAFF140EDF6044EF2CF046EF2CF062
:1058880052EF2CF025C0D9FF26C0DAFF130EDF64D3
:1058980050EF2CF052EF2CF01EEF2CF012007C8809
:1058A80072EF2CF023C0D9FF24C0DAFF0A0EDF5EA6
:1058B80025C0D9FF26C0DAFF0A0EDF5E23C018F024
:1058C80024C019F0FFEC1DF025C018F026C019F00F
:1058D800FFEC1DF0A00E00D0E82EFDD723C0D9FFA5
:1058E80024C0DAFFDF50D8B47CEF2CF07EEF2CF028
:1058F8008AEF2CF025C0D9FF26C0DAFFDF50D8A4E4
:1059080088EF2CF08AEF2CF056EF2CF07C981200E0
:10591800C2C0C6F0C3C0C7F0000E01011D6F000E63
:105928001C6FAEEF2CF0C0C0A4F0C1C0A5F0C60E2D
:105938000001A66F000EA76FC4C0A8F0C5C0A9F0EB
:1059480054EC11F00001A45101011C270001A551DC
:1059580001011D23C6C0F6FFC7C0F7FF000EF86E91
:105968000800F5500009D8A4BCEF2CF0BEEF2CF0CD
:1059780097EF2CF01CC1C0F01DC1C1F01200BF0E82
:10598800126EFF0E136E10C014F011C015F01250F5
:1059980014261350152215500AE11A0E145CD8A0CB
:1059A800D8EF2CF0DBEF2CF0010EDCEF2CF0000E22
:1059B800166E176A16501710D8B4E5EF2CF0E7EFFB
:1059C8002CF0EEEF2CF0200E1010106E1150116E0E
:1059D800F2EF2CF010C010F011C011F012000CC042
:1059E80010F00DC011F00AC012F00BC013F01050E7
:1059F8000E6E11500F6E104A112A0EC0F6FF0FC01E
:105A0800F7FF000EF86E12C0D9FF13C0DAFF124A72
:105A1800132A0D0EF76403D00800F55005D0F6CF11
:105A2800E1FFF7CFE2FFE750DF6EDF50D8A41FEFAA
:105A38002DF021EF2DF0FBEF2CF01200F6EC2DF0FD
:105A480015C0D9FF16C0DAFF0EC0DEFF0FC0DDFF9C
:105A58001EEC2EF020EE02F01550D9261650DA2250
:105A68000EC0DEFF0FC0DDFF6EEC2EF020EE04F05E
:105A78001550D9261650DA220EC0DEFF0FC0DDFF02
:105A880046EC2EF020EE06F01550D9261650DA22F4
:105A98000EC0DEFF0FC0DDFF1200800EF66E630E33
:105AA800F76E000EF86E01EED9F010EE07F009005F
:105AB800F5CFEEFFE550E150FAE102EE00F03C0EC2
:105AC800EE6AE806FDE101EE00F07C0EEE6AE806FB
:105AD800FDE10001F66BF56BF46B00EE4DF0070E7F
:105AE800EE6AE806FDE156905692000195EF20F027
:105AF800CC0E0001E26F000EE36FC8C0E4F0C9C02D
:105B0800E5F0000EE76F000EE66F000EE96F000E7D
:105B1800E86FE40EC06F000EC16FCAC0C2F0CBC000
:105B2800C3F0E20EC46F000EC56F8CEC2CF00001C0
:105B3800E651C825D96EE751C921DA6E000EDF6E2D
:105B48001200010E106E200E0A180B10D8B4AFEF19
:105B58002DF0B1EF2DF0CAEF2DF0F70E0C6EFF0E01
:105B68000D6E0AC00EF00BC00FF00C500E260D5033
:105B78000F220F5009E1050E0E5CD8A0C6EF2DF0DC
:105B8800C8EF2DF0CAEF2DF0000E106E10C00AF00D
:105B98000B6A12000AC00CF00BC00DF0D6EF2DF006
:105BA8000A4A0B2A0AC0F6FF0BC0F7FF000EF86E70
:105BB8000D0EF76403D00800F55005D0F6CFE1FFCD
:105BC800F7CFE2FFE7500009D8A4EDEF2DF0EFEF93
:105BD8002DF0D4EF2DF00C500A5C0A6E0D500B58C6
:105BE8000B6E1200A7EC31F0520E90EC31F0B60EAD
:105BF80090EC31F0ACEC31F0530E90EC31F0010E3A
:105C0800C3EC2FF0106E1050136E146A000EC3EC24
:105C18002FF0106E1050126E116A13501110136E7F
:105C280014501210146EA2EC31F013C00EF014C010
:105C38000FF01200A7EC31F0520E90EC31F0B80ED4
:105C480090EC31F0ACEC31F0530E90EC31F0010EE9
:105C5800C3EC2FF0106E1050136E146A000EC3ECD4
:105C68002FF0106E1050126E116A13501110136E2F
:105C780014501210146EA2EC31F013C00EF014C0C0
:105C88000FF01200A7EC31F0520E90EC31F0B40E88
:105C980090EC31F0ACEC31F0530E90EC31F0010E99
:105CA800C3EC2FF0106E1050136E146A000EC3EC84
:105CB8002FF0106E1050126E116A13501110136EDF
:105CC80014501210146EA2EC31F013C00EF014C070
:105CD8000FF01200A7EC31F0520E90EC31F0BA0E32
:105CE80090EC31F0ACEC31F0530E90EC31F0010E49
:105CF800C3EC2FF0106E1050136E146A000EC3EC34
:105D08002FF0106E1050126E116A13501110136E8E
:105D180014501210146EA2EC31F013C00EF014C01F
:105D28000FF012000A6EBD508F0B4009BD6EE00ED9
:105D3800BE16BF50F00B0109BF6E0AC0BCFFBD8E76
:105D480085948598839E879C7D947D987B9E7F9C77
:105D5800000EA36E000EA06EA48EA18E0A0E0E0178
:105D6800746F0B0E696F96EC31F0B1EC31F07EEC8C
:105D780031F012000001F451D8A4C5EF2EF0C7EF9E
:105D88002EF0D7EF2EF06AC023F06BC024F06CC061
:105D980025F06DC026F06EC027F06FC028F00BEC20
:105DA80025F0E5EF2EF06AC041F06BC042F06CC000
:105DB80043F06DC044F06EC045F06FC046F004EC8F
:105DC8001DF012000001F451D8A4EDEF2EF0EFEF12
:105DD8002EF0FFEF2EF06AC041F06BC042F06CC0AD
:105DE80043F06DC044F06EC045F06FC046F004EC5F
:105DF8001DF00DEF2FF06AC023F06BC024F06CC0CB
:105E080025F06DC026F06EC027F06FC028F00BECAF
:105E180025F01200130E0C6E000EFFEC30F03F0E52
:105E28000E6E550EE82EFED70E2EFCD700F0040E8F
:105E38000C6E0C0EFFEC30F051C00CF0040EFFECB1
:105E480030F052500C6E050EFFEC30F054C00CF0E0
:105E5800060EFFEC30F055500C6E070EFFEC30F0DC
:105E68001200130E036E000E2FEC31F03F0E056E7C
:105E7800550EE82EFED7052EFCD700F0040E036E53
:105E88000C0E2FEC31F051C003F0040E2FEC31F062
:105E98005250036E050E2FEC31F054C003F0060E7D
:105EA8002FEC31F05550036E070E2FEC31F0120035
:105EB800000E451A000E461A000E471A800E481AA0
:105EC80041C031F042C032F043C033F044C034F036
:105ED80045C035F046C036F047C037F048C038F006
:105EE8004AEC14F031C041F032C042F033C043F004
:105EF80034C044F01200000E196E000E186E90EFB8
:105F08002FF017C00AF00B6A15C00CF016C00DF080
:105F1800F0EC29F0184A192A18501324D96E195090
:105F28001420DA6EDF50176E1750D8A49EEF2FF0AA
:105F3800A0EF2FF085EF2FF012000E0133A3A7EF8B
:105F48002FF0A9EF2FF0C1EF2FF0010E0101296FFB
:105F58007CAEB1EF2FF0B5EF2FF0066A062AB6EF48
:105F68002FF0066A063206327C5006187F0B061898
:105F78007C6E59EC31F00E013393569211000C6E81
:105F8800A1EC30F00E01DA87A1EC30F0D5CE0DF09F
:105F9800A1EC30F00C50D8B4D4EF2FF0D8EF2FF09C
:105FA8000B6A0B2AD9EF2FF00B6A0B3A0B460E013E
:105FB800DA510B18DF0B0B18DA6FDA890D50120063
:105FC8001DBEF1EF2FF01D5006E11C04D8B0EFEF15
:105FD8002FF0F1EF2FF0FFEF2FF01CC01EF01DC0C7
:105FE8001FF01E1E1F1E1E4A1F2A1EC01CF01FC0A7
:105FF8001DF003EF30F01CC01CF01DC01DF0120096
:106008008CEC30F0010E0C6E000EFFEC30F03F0E01
:106018000E6E550EE82EFED70E2EFCD700F0030E9E
:106028000C6E000EFFEC30F0D50E0C6E010EFFEC7E
:1060380030F089EC31F01200BF0E0C6EFF0E0D6EC1
:106048000AC00EF00BC00FF00C500E260D500F2298
:106058000F500AE11A0E0E5CD8A035EF30F038EF79
:1060680030F0010E39EF30F0000E0A6E0B6A1200A4
:106078000A500B100C100D10D8B445EF30F047EF54
:1060880030F04FEF30F0000E0A1A000E0B1A000E17
:106098000C1A800E0D1A0AC00AF00BC00BF00CC0C7
:1060A8000CF00DC00DF01200D00E0C6EFF0E0D6E30
:1060B8000AC00EF00BC00FF00C500E260D500F2228
:1060C8000F500AE10A0E0E5CD8A06DEF30F070EFA9
:1060D80030F0010E71EF30F0000E0A6E0B6A1200FC
:1060E8007FEF30F00BC0D9FF0CC0DAFFDF5066EC51
:1060F80031F00B4A0C2A0BC0D9FF0CC0DAFFDF5075
:10610800D8A489EF30F08BEF30F076EF30F0120042
:106118000E01D951F00B0809D96FD98B9F0ED66F94
:10612800848A848CA79BA79D1D0E1D6F1E0E1C6F55
:106138001C0E6F6F1B0E706F12000E01D8B5A7EF03
:1061480030F0A9EF30F0A1EF30F0DACE0AF01F0EF0
:106158000A16D8A4B2EF30F0B4EF30F0A1EF30F067
:1061680012000E01D8B5BBEF30F0BDEF30F0B5EF3F
:1061780030F0DACE01F01F0E0116D8A4C6EF30F0C9
:10618800C8EF30F0B5EF30F012000A500C02F3CF30
:106198000EF0F4CF0FF00A500D02F3500F260B50FB
:1061A8000C02F3500F260EC00AF00FC00BF01200BD
:1061B80082820E019A93090E0D01F16F0E01298357
:1061C800298B1F831F9B3FEC31F0F292F28AF28CED
:1061D800F28E12000A6E0AB002D07F9201D07F823E
:1061E8000AB002D0799801D079880AB002D07E9E90
:1061F80001D07E8E12000D6EA7EC31F0520E90EC9D
:1062080031F00D50800990EC31F00C5090EC31F0E9
:10621800A2EC31F0120072EC31F00B6EC80E0B607C
:1062280018EF31F01AEF31F01DEF31F07C8E1EEFD0
:1062380031F07C9E1200120E0E01626F110E156F66
:106248008382E997E895330EE56F000EE66FE789DC
:10625800E88BE78F1200046EBBEC31F0520E9CEC19
:1062680031F0045080099CEC31F003509CEC31F083
:10627800B6EC31F01200A7EC31F0520E90EC31F090
:10628800E60E90EC31F0A2EC31F00EEC2FF012009B
:10629800868C0E01B48D0F015899FC0E58172E0EDE
:1062A8005F6F60946088608E1200BBEC31F0520E14
:1062B8009CEC31F0E60E9CEC31F0B6EC31F035ECAC
:1062C8002FF012000A6E0E0137A56DEF31F06FEF57
:1062D80031F067EF31F00AC0E4FE1200608060B070
:1062E80078EF31F07AEF31F073EF31F064CF0AF0E4
:1062F8000A5012008892849684988690889080929A
:106308007C967C987E908090120087928198869ED9
:10631800000EEEEC30F012000B6EA1EC30F00BC06A
:10632800D5FE1200868486860E01B495B4971200B5
:10633800026EB5EC30F002C0D5FE1200A1EC30F0D0
:106348000E01DA851200A1EC30F00E01DA8112009C
:10635800A1EC30F00E01DA831200849E88967C9EB0
:1063680080961200B5EC30F00E01DA851200B5EC1B
:0F63780030F00E01DA811200286E756C6C29006E
:02638800120001
:020000040020DA
:10000000FF0FFF0FFF0FFF0FFF0FFF0FFF0FFF0F80
:020000040030CA
:0C000000AAFFFFFF9FFFFFFFFFFFFFFFB5
:00000001FF
