:0400000023EF00F0FA
:100008005D820E0133A30BEF00F00DEF00F021EF3E
:1000180000F080A612EF00F016EF00F0016A012A46
:1000280017EF00F0016A01460146014680500118A9
:10003800F70B0118806E0E0133935D921100E2EF09
:020048000DF0B9
:0F0E00000025692025692025692025690A000041
:100E10001FC037F020C038F021C039F022C03AF0AE
:100E200023C03BF024C03CF025C03DF026C03EF07E
:100E30003EBE1DEF07F020EF07F0010E21EF07F097
:100E4000000E356E366A35503610D8B42AEF07F0EA
:100E50002CEF07F03CEF07F03E1E3D1E3C1E3B1EF4
:100E60003A1E391E381E376C000E382239223A22BB
:100E70003B223C223D223E220001C7BF42EF07F049
:100E800044EF07F045EF07F0C893C7BF52EF07F0F4
:100E9000C75106E1C605D8B050EF07F052EF07F092
:100EA00058EF07F0000E326E010E316E5CEF07F066
:100EB000C6C031F0C7C032F0C4C033F0C5C034F092
:100EC00035503610D8A467EF07F069EF07F070EFE0
:100ED00007F0C8A56EEF07F070EF07F073EF07F0AB
:100EE0003306D8A03406000E406E1F0E3F6E000E73
:100EF000E96FF7EF07F03F06D8A04006CA0E3F247F
:100F0000D96E000E4020DA6E37C002F038C003F010
:100F100039C004F03AC005F03BC006F03CC007F011
:100F20003DC008F03EC009F00A0E0A6E000E0B6EBE
:100F3000000E0C6E000E0D6E000E0E6E000E0F6E8B
:100F4000000E106E000E116E17EC0AF002C027F0B2
:100F500003C028F004C029F005C02AF006C02BF019
:100F600007C02CF008C02DF009C02EF027C014F0E7
:100F700029C015F054EC0DF01450300FDF6E31061F
:100F8000D8A032063306D8A0340637C002F038C0E5
:100F900003F039C004F03AC005F03BC006F03CC095
:100FA00007F03DC008F03EC009F00A0E0A6E000EC0
:100FB0000B6E000E0C6E000E0D6E000E0E6E000E0F
:100FC0000F6E000E106E000E116E53EC09F002C091
:100FD00037F003C038F004C039F005C03AF006C05D
:100FE0003BF007C03CF008C03DF009C03EF040BEF9
:100FF00002EF08F0405008E13F04D8A002EF08F0EB
:1010000004EF08F035EF08F03750381039103A1077
:101010003B103C103D103E10D8A411EF08F013EF28
:1010200008F07BEF07F032BE20EF08F0325006E107
:101030003104D8B01EEF08F020EF08F07BEF07F086
:1010400034BE2BEF08F0345008E13304D8A02BEF66
:1010500008F02DEF08F035EF08F00001C8B333EFCA
:1010600008F035EF08F07BEF07F035503610D8A4C4
:101070003CEF08F03EEF08F046EF08F00001C8A58D
:1010800044EF08F046EF08F064EF08F03F06D8A000
:10109000400635503610D8A450EF08F052EF08F053
:1010A00058EF08F0000E306E2B0E2F6E5CEF08F03C
:1010B000000E306E2D0E2F6ECA0E3F24D96E000E1C
:1010C0004020DA6E2FC0DFFF1DC012F01EC013F0EB
:1010D000CA0E3F24146E000E4020156E33C016F069
:1010E00034C017F092EC0BF012C01DF013C01EF0CC
:1010F000120043C0D9FF44C0DAFFDECFF6FFDDCFD8
:10110000F7FF0800F550250AD8A489EF08F08BEF07
:1011100008F037EF09F043C0D9FF44C0DAFFDE2AF8
:10112000000EDD22000E0001C56F000EC46FC4C0AA
:10113000C8F0C5C0C9F0C669C76943C0D9FF44C07B
:10114000DAFFDECFF6FFDDCFF7FF0800F550640AC7
:10115000D8B4ADEF08F0AFEF08F0C1EF08F043C02E
:10116000D9FF44C0DAFFDECFF6FFDDCFF7FF08007E
:10117000F550690AD8A4BFEF08F0C1EF08F001EFFD
:1011800009F043C0D9FF44C0DAFFDE2A000EDD2299
:1011900045C0D9FF46C0DAFFDFCF47F0020EDE269A
:1011A000DFCF48F0000EDD2247C0D9FF48C0DAFF8C
:1011B000DECF49F0DDCF4AF0000E4ABEFF0E4B6E87
:1011C0004C6E4D6E4E6E4F6E506E41C01DF042C063
:1011D0001EF049C01FF04AC020F04BC021F04CC0A7
:1011E00022F04DC023F04EC024F04FC025F050C077
:1011F00026F008EC07F01DC041F01EC042F052EF8F
:1012000009F043C0D9FF44C0DAFFDECFF6FFDDCFDF
:10121000F7FF0800F550250AD8A411EF09F013EFE5
:1012200009F02AEF09F043C0D9FF44C0DAFFDE2AF3
:10123000000EDD22000E036E250E026E41C004F08A
:1012400042C005F0C9EC0AF0000E426E010E416E7C
:1012500052EF09F043C0D9FF44C0DAFFDE2A000E86
:10126000DD22000E426E000E416E52EF09F043C0C7
:10127000D9FF44C0DAFFDECFF6FFDDCFF7FF08006D
:10128000F550026E036A41C004F042C005F0C9EC9B
:101290000AF043C0D9FF44C0DAFFDE2A000EDD2287
:1012A00024EF09F01200000E136E11BE5CEF09F07E
:1012B0005AEF09F06EEF09F0111E101E0F1E0E1EE0
:1012C0000D1E0C1E0B1E0A6C000E0B220C220D2292
:1012D0000E220F2210221122010E136E09BE75EF8D
:1012E00009F073EF09F087EF09F0091E081E071EC9
:1012F000061E051E041E031E026C000E032204229D
:1013000005220622072208220922010E131A20EEC6
:1013100014F0070EDE6AE806FDE20A500B100C100E
:101320000D100E100F1010101110D8B49AEF09F014
:101330009CEF09F0EEEF09F0010E126EAAEF09F032
:10134000D8900A360B360C360D360E360F36103660
:101350001136122A11AEAFEF09F0B1EF09F0A0EF8C
:1013600009F0D89014361536163617361836193651
:101370001A361B360A50025C0B5003580C500458A6
:101380000D5005580E5006580F5007581050085869
:1013900011500958D8A0CFEF09F0D1EF09F0E2EFD2
:1013A00009F00A50025E0B50035A0C50045A0D50BB
:1013B000055A0E50065A0F50075A1050085A11502D
:1013C000095A1480D890113210320F320E320D3279
:1013D0000C320B320A32122EB1EF09F01350D8B48E
:1013E000F4EF09F0F6EF09F006EF0AF01B1E1A1EE3
:1013F000191E181E171E161E151E146C000E15221F
:1014000016221722182219221A221B2214C002F0B7
:1014100015C003F016C004F017C005F018C006F0A0
:1014200019C007F01AC008F01BC009F01200000E26
:10143000136E09BE20EF0AF01EEF0AF032EF0AF039
:10144000091E081E071E061E051E041E031E026C32
:10145000000E032204220522062207220822092266
:10146000010E136E11BE39EF0AF037EF0AF049EFA3
:101470000AF0111E101E0F1E0E1E0D1E0C1E0B1E3E
:101480000A6C000E0B220C220D220E220F221022BB
:1014900011220A500B100C100D100E100F1010100E
:1014A0001110D8B456EF0AF058EF0AF0A0EF0AF086
:1014B000010E126E66EF0AF0D8900A360B360C3623
:1014C0000D360E360F3610361136122A11AE6BEF6E
:1014D0000AF06DEF0AF05CEF0AF00A50025C0B5064
:1014E00003580C5004580D5005580E5006580F5014
:1014F00007581050085811500958D8A082EF0AF028
:1015000084EF0AF094EF0AF00A50025E0B50035A7F
:101510000C50045A0D50055A0E50065A0F50075AD7
:101520001050085A1150095AD890113210320F3207
:101530000E320D320C320B320A32122E6DEF0AF0DF
:101540001350D8B4A6EF0AF0A8EF0AF0B8EF0AF0EB
:10155000091E081E071E061E051E041E031E026C21
:10156000000E032204220522062207220822092255
:1015700002C002F003C003F004C004F005C005F08F
:1015800006C006F007C007F008C008F009C009F05F
:10159000120004500510D8B4D0EF0AF0D2EF0AF0D0
:1015A000DBEF0AF004500510D8A4D9EF0AF0DBEF06
:1015B0000AF0E0EF0AF002507CEC0EF02DEF0BF099
:1015C00020EE04F00450D9260550DA22DE50DE1059
:1015D000D8B4EDEF0AF0EFEF0AF00AEF0BF020EECF
:1015E00004F00450D9260550DA2210EE02F004501F
:1015F000E1260550E222DE50E65CE650800A0A6EE3
:10160000DE50800A0A58D8B008EF0BF00AEF0BF052
:101610002DEF0BF020EE02F00450D9260550DA220F
:10162000DECF06F0DDCF07F004C0D9FF05C0DAFF3A
:10163000DECF08F0DDCF09F006500824D96E075040
:101640000920DA6E02C0DFFF20EE02F00450D92636
:101650000550DA22DE2A000EDD221200FBEC0DF02E
:10166000C8EC0DF060EC0EF035EC0EF074EC0DF003
:1016700088968096010E24EC0EF084967C8620EEEF
:10168000A6F000EE0DF0070EDBCFEBFFE806FCE264
:1016900011EC0DF020EEA6F0070EEBCFDBFFE80615
:1016A000FCE2A6C09EF0A7C09FF0A8C0A0F0A9C011
:1016B000A1F0AAC0A2F0ABC0A3F0ACC0A4F0ADC032
:1016C000A5F0760E0001606F000E616F010E626F73
:1016D0000E0E636F9EC064F09FC065F0A0C066F000
:1016E000A1C067F0A2C068F0A3C069F0A4C06AF00E
:1016F000A5C06BF026EC0CF0760E046E000E056EA5
:1017000091EC0DF0290E0001756F960E746F7F0E2F
:10171000E82EFED7742FFCD7752FFAD73FEF0BF0CA
:1017200023EF00F00001C8A198EF0BF09AEF0BF047
:10173000A4EF0BF014C00BF015C00CF012C00DF0AC
:1017400013C00EF0EFEC0CF017BEA9EF0BF0ABEFEF
:101750000BF0B1EF0BF016C01BF017C01CF0B5EF8B
:101760000BF0000E1C6E000E1B6E000E1A6E000EAB
:10177000196EC7EF0BF0000E036E200E026E12C042
:1017800004F013C005F0C9EC0AF0194A1A2A1B50DC
:10179000195C1A50800A186E1C50800A1858D8A07C
:1017A000D4EF0BF0D6EF0BF0BBEF0BF00001C8B19C
:1017B000DCEF0BF0DEEF0BF0E8EF0BF014C00BF0FA
:1017C00015C00CF012C00DF013C00EF0EFEC0CF0D1
:1017D00014C002F015C003F0ADEC0DF01B50022454
:1017E000126E1C500320136E120053C057F054C0E9
:1017F00058F0000E0001C36F000EC26F13EF0CF023
:1018000051C041F052C042F0570E436E000E446E7C
:1018100055C045F056C046F079EC08F04150000143
:10182000C2274250C32357C0F6FF58C0F7FF080035
:10183000F5500009D8A41FEF0CF021EF0CF000EFD9
:101840000CF0C2C051F0C3C052F01200640E00018F
:101850006C6F000E6D6F60C06EF061C06FF0000EB7
:10186000716F000E706F000E736F000E726F6E0E50
:10187000516E000E526E62C053F063C054F06C0E95
:10188000556E000E566EF5EC0BF0000170516025A0
:10189000D96E71516121DA6E000EDF6E120077ECA5
:1018A0000EF0520E67EC0EF0B60E67EC0EF06DEC1B
:1018B0000EF0530E67EC0EF0010E33EC0DF0086ED7
:1018C00008500B6E0C6A000E33EC0DF0086E0850D9
:1018D0000A6E096A0B5009100B6E0C500A100C6E40
:1018E00072EC0EF00BC006F00CC007F0120077ECA3
:1018F0000EF0520E67EC0EF0B80E67EC0EF06DECC9
:101900000EF0530E67EC0EF0010E33EC0DF0086E86
:1019100008500B6E0C6A000E33EC0DF0086E085088
:101920000A6E096A0B5009100B6E0C500A100C6EEF
:1019300072EC0EF00BC006F00CC007F0120077EC52
:101940000EF0520E67EC0EF0B40E67EC0EF06DEC7C
:101950000EF0530E67EC0EF0010E33EC0DF0086E36
:1019600008500B6E0C6A000E33EC0DF0086E085038
:101970000A6E096A0B5009100B6E0C500A100C6E9F
:1019800072EC0EF00BC006F00CC007F0120077EC02
:101990000EF0520E67EC0EF0BA0E67EC0EF06DEC26
:1019A0000EF0530E67EC0EF0010E33EC0DF0086EE6
:1019B00008500B6E0C6A000E33EC0DF0086E0850E8
:1019C0000A6E096A0B5009100B6E0C500A100C6E4F
:1019D00072EC0EF00BC006F00CC007F01200000E07
:1019E000116E000E106E00EF0DF00FC002F0036AD2
:1019F0000DC004F00EC005F0C9EC0AF0104A112A1F
:101A000010500B24D96E11500C20DA6EDF500F6E7F
:101A10000F50D8A40EEF0DF010EF0DF0F5EF0CF015
:101A200012004FEC0CF006C00DF007C00EF077EC82
:101A30000CF006C00FF007C010F0C7EC0CF006C0A9
:101A400011F007C012F09FEC0CF006C013F007C0B5
:101A500014F020EE0DF000EE0DF0070EDBCFEBFFE3
:101A6000E806FCE21200046E10EC0EF00E01DA87BC
:101A700010EC0EF0D5CE05F010EC0EF00450D8B4FA
:101A800044EF0DF048EF0DF0036A032A49EF0DF023
:101A9000036A033A03460E01DA510318DF0B0318F9
:101AA000DA6FDA890550120015BE61EF0DF015509E
:101AB00006E11404D8B05FEF0DF061EF0DF06FEFA9
:101AC0000DF014C016F015C017F0161E171E164A9A
:101AD000172A16C014F017C015F073EF0DF014C0DC
:101AE00014F015C015F0120082820E019A9329831A
:101AF0001F83140E046E040E45EC0EF0050E046EEA
:101B0000050E45EC0EF06C0E046E060E45EC0EF064
:101B1000070E046E070E45EC0EF0F28AF28CF28E80
:101B20001200A0EF0DF004C0D9FF05C0DAFFDF50AE
:101B3000066E0650026E036A55EC0EF0044A052A42
:101B400004C0D9FF05C0DAFFDF50D8A4AAEF0DF01A
:101B5000ACEF0DF093EF0DF0120002C004F003C0E3
:101B600005F0B5EF0DF0024A032A02C0D9FF03C009
:101B7000DAFFDF50D8A4BFEF0DF0C1EF0DF0B3EFE7
:101B80000DF00450025C026E05500358036E120003
:101B9000FBEC0DF0010E046E000E45EC0EF03F0E56
:101BA000066E550EE82EFED7062EFCD700F0030E6B
:101BB000046E000E45EC0EF0D50E046E010E45ECE1
:101BC0000EF0120001EE00F03C0EEE6AE806FDE1B8
:101BD00000EEAEF03C0EEE6AE806FDE15C6A5B6A80
:101BE0005A6A596A5D905D92000EF86E0E0EF76E9D
:101BF00000012EEF0BF00E01D951F00B0809D96F3F
:101C0000D98B9F0ED66F848A848CA79BA79D1D0EAF
:101C10001D6F1E0E1C6F1C0E6F6F1B0E706F12005F
:101C20000E01D8B516EF0EF018EF0EF010EF0EF013
:101C3000DACE02F01F0E0216D8A421EF0EF023EF29
:101C40000EF010EF0EF01200026E02B002D07F9282
:101C500001D07F8202B002D0799801D0798802B099
:101C600002D07E9E01D07E8E1200120E0E01626F97
:101C7000110E156F8382E997E895330EE56F000E1C
:101C8000E66FE789E88BE78F1200056E77EC0EF0C0
:101C9000520E67EC0EF00550800967EC0EF0045010
:101CA00067EC0EF072EC0EF012000E0137A55BEF40
:101CB0000EF05DEF0EF055EF0EF002C0E4FE1200E4
:101CC00087928198869E7F9279987E9E1200036EFD
:101CD00010EC0EF003C0D5FE120010EC0EF00E0159
:101CE000DA83120010EC0EF00E01DA85120010EC0F
:0A1CF0000EF00E01DA81120012005E
:020000040020DA
:10000000FF0FFF0FFF0FFF0FFF0FFF0FFF0FFF0F80
:020000040030CA
:0C000000AAFFFFFF9FFFFFFFFFFFFFFFB5
:00000001FF
