:040000002EEF00F0EF
:060008005682CFEF1DF04F
:100018005680D8CF07F0E8CF08F0E0CF09F00E01FE
:1000280033AB19EF00F01BEF00F026EF00F0010EE4
:100038000001A86F010EA76F0B0ED46EDB0ED36EF6
:100048000E01339B09C0E0FF08C0E8FF07C0D8FFD6
:080058005690100043EF1EF06A
:100E000000524742433A2025692025692025692060
:100E100025692020202020524742435F72656C3AAA
:100E200020252E336620252E336620252E3366207E
:100E300020202020436F6C6F75723A2025730A0DB5
:100E400000524742433A2025692025692025692020
:100E5000256920202020205468726573686F6C64B7
:100E60003A2025692025692025690A0D006C6967EB
:100E7000687420626C756500756E6B6E6F776E00BE
:100E80006F72616E67650079656C6C6F770077686B
:100E900069746500677265656E0070696E6B0072DB
:100EA000656400000E01299376C015F077C016F036
:100EB0000BEC1CF076C03EF077C03FF07E0E406E2B
:100EC000000E416E78EC18F0710E256E3D0E266E08
:100ED0000A0E276E3F0E286E7EC029F07FC02AF0D2
:100EE00080C02BF081C02CF0DEEC19F0D8B07BEF85
:100EF00007F07DEF07F027EF08F082C025F083C0F0
:100F000026F084C027F085C028F0480E296EE10E37
:100F10002A6E7A0E2B6E3E0E2C6EDEEC19F0D8B0D7
:100F200094EF07F096EF07F027EF08F086C025F062
:100F300087C026F088C027F089C028F0EC0E296E03
:100F4000510E2A6E380E2B6E3E0E2C6EDEEC19F012
:100F5000D8B0ADEF07F0AFEF07F027EF08F076C09D
:100F600017F077C018F0030E196E33EC19F076C045
:100F70003EF077C03FF07E0E406E000E416E78EC82
:100F800018F082C025F083C026F084C027F085C009
:100F900028F0A40E296E700E2A6E3D0E2B6E3E0EAA
:100FA0002C6EDEEC19F0D8B0D8EF07F0DAEF07F0CE
:100FB00002EF08F078C029F079C02AF07AC02BF04F
:100FC0007BC02CF03AEC1CF078C070F079C071F066
:100FD0007AC072F07BC073F0000E0001756F5A0E7C
:100FE000746F31EC1DF078C023F079C024F07AC022
:100FF00025F07BC026F050EC1BF0000E0001A96F1D
:1010000050EF0BF078C029F079C02AF07AC02BF0AD
:101010007BC02CF03AEC1CF078C070F079C071F015
:101020007AC072F07BC073F0000E0001756F870EFE
:10103000746F31EC1DF078C023F079C024F07AC0D1
:1010400025F07BC026F050EC1BF0FDEF07F07EC0D2
:1010500025F07FC026F080C027F081C028F0AE0EBA
:10106000296E470E2A6EE10E2B6E3E0E2C6EDEECC4
:1010700019F0D8B03EEF08F040EF08F037EF09F074
:101080009A0E256E990E266E990E276E3E0E286ECC
:1010900082C029F083C02AF084C02BF085C02CF0D8
:1010A000DEEC19F0D8B057EF08F059EF08F037EF41
:1010B00009F0140E256EAE0E266E470E276E3E0EFC
:1010C000286E86C029F087C02AF088C02BF089C01E
:1010D0002CF0DEEC19F0D8B070EF08F072EF08F0E9
:1010E00037EF09F076C017F077C018F0010E196ECF
:1010F00033EC19F076C03EF077C03FF07E0E406EC4
:10110000000E416E78EC18F086C025F087C026F0FE
:1011100088C027F089C028F0000E296E000E2A6EC4
:10112000000E2B6E3E0E2C6EDEEC19F0D8B09BEF4D
:1011300008F09DEF08F0C2EF08F078C029F079C000
:101140002AF07AC02BF07BC02CF03AEC1CF078C06F
:1011500070F079C071F07AC072F07BC073F0000E4D
:101160000001756F5A0E746F59EC1DF078C023F0B2
:1011700079C024F07AC025F07BC026F050EC1BF03B
:10118000FDEF07F076C017F077C018F0020E196E69
:1011900033EC19F076C03EF077C03FF07E0E406E23
:1011A000000E416E78EC18F07EC025F07FC026F06E
:1011B00080C027F081C028F01F0E296E850E2A6E90
:1011C000EB0E2B6E3D0E2C6EDEEC19F0D8B0EBEF73
:1011D00008F0EDEF08F012EF09F078C029F079C0BF
:1011E0002AF07AC02BF07BC02CF03AEC1CF078C0CF
:1011F00070F079C071F07AC072F07BC073F0000EAD
:101200000001756FB40E746F31EC1DF078C023F0DF
:1012100079C024F07AC025F07BC026F050EC1BF09A
:10122000FDEF07F078C029F079C02AF07AC02BF0E2
:101230007BC02CF03AEC1CF078C070F079C071F0F3
:101240007AC072F07BC073F0000E0001756F870EDC
:10125000746F59EC1DF078C023F079C024F07AC087
:1012600025F07BC026F050EC1BF0FDEF07F0480E98
:10127000256EE10E266EFA0E276E3E0E286E7EC09B
:1012800029F07FC02AF080C02BF081C02CF0DEEC6A
:1012900019F0D8B04EEF09F050EF09F0CAEF09F09D
:1012A000850E256EEB0E266E910E276E3E0E286E75
:1012B00082C029F083C02AF084C02BF085C02CF0B6
:1012C000DEEC19F0D8B067EF09F069EF09F0CAEF6A
:1012D00009F0EC0E256E510E266E380E276E3E0E6E
:1012E000286E86C029F087C02AF088C02BF089C0FC
:1012F0002CF0DEEC19F0D8B080EF09F082EF09F0A5
:10130000CAEF09F078C023F079C024F07AC025F044
:101310007BC026F009EC1BF0720E00017D6FA30E5E
:101320007C6F9B0EE82EFED77C2FFCD77D2FFAD743
:1013300078C023F079C024F07AC025F07BC026F075
:1013400050EC1BF0090E00017D6F1E0E7C6FE40E49
:10135000E82EFED77C2FFCD77D2FFAD700F078C07F
:1013600070F079C071F07AC072F07BC073F0000E3B
:101370000001756F5A0E746F31EC1DF078C023F0C8
:1013800079C024F07AC025F07BC026F050EC1BF029
:10139000FDEF07F0480E256EE10E266EFA0E276E61
:1013A0003E0E286E7EC029F07FC02AF080C02BF050
:1013B00081C02CF0DEEC19F0D8B0E1EF09F0E3EFDA
:1013C00009F053EF0AF082C025F083C026F084C0F4
:1013D00027F085C028F0CD0E296ECC0E2A6E8C0E1B
:1013E0002B6E3E0E2C6EDEEC19F0D8B0FAEF09F041
:1013F000FCEF09F053EF0AF0140E256EAE0E266EC8
:10140000470E276E3E0E286E86C029F087C02AF050
:1014100088C02BF089C02CF0DEEC19F0D8B013EFA7
:101420000AF015EF0AF053EF0AF078C023F079C004
:1014300024F07AC025F07BC026F009EC1BF0720E78
:1014400000017D6FA30E7C6F9B0EE82EFED77C2FD4
:10145000FCD77D2FFAD778C023F079C024F07AC06A
:1014600025F07BC026F050EC1BF0090E00017D6FCB
:101470001E0E7C6FE40EE82EFED77C2FFCD77D2F4E
:10148000FAD700F078C070F079C071F07AC072F0CD
:101490007BC073F0000E0001756F5A0E746F59EC2B
:1014A0001DF0BEEF09F07EC025F07FC026F080C0A1
:1014B00027F081C028F0D70E296EA30E2A6EF00EF9
:1014C0002B6E3E0E2C6EDEEC19F0D8B06AEF0AF0EF
:1014D0006CEF0AF0C8EF0AF03D0E256E0A0E266E7C
:1014E000970E276E3E0E286E82C029F083C02AF028
:1014F00084C02BF085C02CF0DEEC19F0D8B083EF5F
:101500000AF085EF0AF0C8EF0AF03D0E256E0A0ECC
:10151000266E570E276E3E0E286E86C029F087C0B5
:101520002AF088C02BF089C02CF0DEEC19F0D8B07E
:101530009CEF0AF09EEF0AF0C8EF0AF078C029F09D
:1015400079C02AF07AC02BF07BC02CF03AEC1CF06A
:1015500078C070F079C071F07AC072F07BC073F01F
:10156000000E0001756FB40E746F31EC1DF078C081
:1015700023F079C024F07AC025F07BC026F050EC2F
:101580001BF0000E0001A96F010EA86F50EF0BF0C9
:10159000520E00017D6F2B0E7C6F000EE82EFED7E1
:1015A0007C2FFCD77D2FFAD700F078C023F079C0CC
:1015B00024F07AC025F07BC026F0C2EC1AF0D00EE1
:1015C00000017C6FC90EE82EFED77C2FFCD700D01F
:1015D00078C023F079C024F07AC025F07BC026F0D3
:1015E00050EC1BF076C015F077C016F00BEC1CF039
:1015F000000120EE06F07651D9267751DA225250BA
:10160000DE5C5350DE58D8A008EF0BF00AEF0BF069
:101610001BEF0BF020EE06F07651D9267751DA2237
:10162000DE50505CDE505158D8B019EF0BF01BEF74
:101630000BF0FDEF07F0030EA96121EF0BF023EF94
:101640000BF029EF0BF00E0133830001A92B50EFB3
:101650000BF0808678C070F079C071F07AC072F0BB
:101660007BC073F0000E756FB40E746F31EC1DF01B
:1016700078C023F079C024F07AC025F07BC026F032
:1016800050EC1BF00001A851D8B449EF0BF04CEF1F
:101690000BF0010E4DEF0BF0000EA86FFDEF07F001
:1016A0000E01298312004150800B4A6E41504124A3
:1016B0004C6E40AE5EEF0BF060EF0BF061EF0BF0A5
:1016C0004C804C50D8B467EF0BF069EF0BF07EEF15
:1016D0000BF04C28D8A46FEF0BF071EF0BF079EF03
:1016E0000BF0000E3E6E000E3F6E000E406E000EC0
:1016F000416E408E000E416E86EF0BF0000E3E6E86
:10170000000E3F6E000E406E000E416E4550800B85
:101710004B6E4A504B18D8B490EF0BF092EF0BF091
:1017200093EF0BF04A8C455045244B6E44AE9BEF33
:101730000BF09DEF0BF09EEF0BF04B804B50D8B4AD
:10174000A4EF0BF0A6EF0BF0BBEF0BF04B28D8A4E7
:10175000ACEF0BF0AEEF0BF0B6EF0BF0000E426EFD
:10176000000E436E000E446E000E456E448E000E59
:10177000456EC3EF0BF0000E426E000E436E000E7E
:10178000446E000E456E4C504B5CD8B0CAEF0BF067
:10179000CCEF0BF0F3EF0BF04AACD1EF0BF0D3EF43
:1017A0000BF0D5EF0BF0800E4A1A4CC04DF04BC039
:1017B0004CF04DC04BF03EC04DF042C03EF04DC02D
:1017C00042F03FC04DF043C03FF04DC043F040C039
:1017D0004DF044C040F04DC044F041C04DF045C014
:1017E00041F04DC045F0000E4D6E4C504BC046F0E0
:1017F000476A465E000E475A47BE08EF0CF0475056
:1018000009E11A0E465CD8A008EF0CF00AEF0CF0C4
:1018100041EF0CF03E503F1040104110D8A413EFA0
:101820000CF016EF0CF0010E17EF0CF0000E4D6EE1
:10183000000E3E6E000E3F6E000E406E000E416EBA
:101840004BC04CF04AEF0CF04DA029EF0CF02BEF01
:101850000CF031EF0CF0D8904D3001094D6E33EFA4
:101860000CF0D8904D323EA038EF0CF03AEF0CF06F
:101870003BEF0CF04D8E4134413240323F323E322C
:101880004C2A4B504C5CD8A048EF0CF04AEF0CF0BF
:1018900024EF0CF04ABC4FEF0CF051EF0CF091EF3D
:1018A0000CF04C50D8A457EF0CF059EF0CF063EF4C
:1018B0000CF0000E3E6E000E3F6E000E406E000EED
:1018C000416EB2EF0DF042503E2643503F2244504D
:1018D00040224550412241A070EF0CF072EF0CF015
:1018E0001EEF0DF04DA077EF0CF079EF0CF07FEFCD
:1018F0000CF0D8904D3001094D6E81EF0CF0D8906E
:101900004D323EA086EF0CF088EF0CF089EF0CF022
:101910004D8E4134413240323F323E324C2A1EEF2E
:101920000DF042503E5C43503F58445040584150A7
:10193000800A466E4550800A4658D8B0A2EF0CF097
:10194000A4EF0CF0CFEF0CF03E50425C466E3F50DF
:101950004358476E40504458486E41504558496E70
:10196000FF0E46243E6EFF0E47203F6EFF0E4820BE
:10197000406EFF0E4920416E800E4A1A4D6C4D504C
:10198000D8A4C5EF0CF0C7EF0CF0D7EF0CF0010EA8
:101990003E26000E3F2240224122D7EF0CF042505B
:1019A0003E5E43503F5A4450405A4550415A3E5083
:1019B0003F1040104110D8A4E0EF0CF0E2EF0CF023
:1019C00017EF0DF04D50D8A4E8EF0CF0EAEF0CF053
:1019D00017EF0DF0000E3E6E000E3F6E000E406ED3
:1019E000000E416EB2EF0DF0D8903E363F364036D5
:1019F00041364DAEFEEF0CF000EF0DF001EF0DF0B3
:101A00003E804DA006EF0DF008EF0DF00CEF0DF04D
:101A1000D8804D360EEF0DF0D8904D364C50D8B4DE
:101A200014EF0DF016EF0DF017EF0DF04C0640AE71
:101A30001CEF0DF01EEF0DF0F4EF0CF0000E4B6EEE
:101A40004DAE25EF0DF027EF0DF03FEF0DF04DC03F
:101A500046F07F0E4616D8B430EF0DF032EF0DF0A1
:101A600036EF0DF0010E4B6E3FEF0DF03EA03BEF59
:101A70000DF03DEF0DF03FEF0DF032EF0DF04B505C
:101A8000D8B445EF0DF047EF0DF072EF0DF0010EF9
:101A90003E26000E3F224022412241A052EF0DF08F
:101AA00054EF0DF072EF0DF03EC046F03FC047F02E
:101AB00040C048F041C049F04934493248324732C9
:101AC000463246C03EF047C03FF048C040F049C0F3
:101AD00041F04C28D8B46FEF0DF071EF0DF072EFBC
:101AE0000DF04C2A4C28D8B478EF0DF07AEF0DF0B9
:101AF00082EF0DF04C50D8A480EF0DF082EF0DF086
:101B000094EF0DF0000E3E6E000E3F6E000E406E24
:101B1000000E416E4C50D8A490EF0DF092EF0DF0F6
:101B200094EF0DF0000E4A6E4CA099EF0DF09BEF74
:101B30000DF09EEF0DF0408E9FEF0DF0409ED8907F
:101B40004C30416E4AAEA7EF0DF0A9EF0DF0AAEFB1
:101B50000DF0418E3EC03EF03FC03FF040C040F02F
:101B600041C041F012002850800B316E28502824CB
:101B7000376E27AEBEEF0DF0C0EF0DF0C1EF0DF0E8
:101B800037803750D8B4C7EF0DF0C9EF0DF0DCEF58
:101B90000DF03728D8A4CFEF0DF0D1EF0DF0D9EF2D
:101BA0000DF0000E256E000E266E000E276E000E44
:101BB000286E278EE4EF0DF0000E256E000E266EC7
:101BC000000E276E000E286E2C50800B311A2C5000
:101BD0002C24366E2BAEEFEF0DF0F1EF0DF0F2EF9F
:101BE0000DF036803650D8B4F8EF0DF0FAEF0DF066
:101BF0000DEF0EF03628D8A400EF0EF002EF0EF035
:101C00000AEF0EF0000E296E000E2A6E000E2B6EEB
:101C1000000E2C6E2B8E15EF0EF0000E296E000EAE
:101C20002A6E000E2B6E000E2C6E3650D8B41BEFB1
:101C30000EF01DEF0EF025EF0EF03750D8A423EF75
:101C40000EF025EF0EF02FEF0EF0000E256E000EB9
:101C5000266E000E276E000E286EC7EF0FF02B5079
:101C60002502F3CF3CF0F4CF3DF03C50326E336AA6
:101C7000346A356A3D50386E396A3A6A3B6A2A508E
:101C80002602F3CF3CF0F4CF3DF03C503226000E5C
:101C90003322342235223D503826000E39223A2292
:101CA0003B2229502702F3CF3CF0F4CF3DF03C50CB
:101CB0003226000E3322342235223D503826000EC3
:101CC00039223A223B2234C035F033C034F032C0DE
:101CD00033F0326A29502602F3CF3CF0F4CF3DF0C6
:101CE0003C5032263D503322000E3422000E352265
:101CF0002A502502F3CF3CF0F4CF3DF03C50322681
:101D00003D503322000E3422000E352234C035F00F
:101D100033C034F032C033F0326A29502502F3CF99
:101D20003CF0F4CF3DF03C5032263D503322000EC3
:101D30003422000E35222B502602F3CF3CF0F4CF94
:101D40003DF03C5038263D503922000E3A22000E1C
:101D50003B222A502702F3CF3CF0F4CF3DF03C5019
:101D600038263D503922000E3A22000E3B222B50DD
:101D70002702F3CF3CF0F4CF3DF03C502D6E3D50A8
:101D80002E6E2F6A306A2FC030F02EC02FF02DC07B
:101D90002EF02D6A2D5038262E5039222F503A22FF
:101DA00030503B2232C02DF033C02EF034C02FF023
:101DB00035C030F0190EE2EF0EF0D89030322F32ED
:101DC0002E322D32E82EDDEF0EF02D5038262E501B
:101DD00039222F503A2230503B2234C035F033C0E4
:101DE00034F032C033F0326A365037C02DF02E6AEC
:101DF0002D26000E2E22820E2D243C6EFF0E2E204C
:101E00003D6E18EF0FF0D890383639363A363B36FB
:101E100035AE0DEF0FF00FEF0FF010EF0FF0388031
:101E2000D89032363336343635363C06D8A03D06A7
:101E30003AAE1DEF0FF01FEF0FF003EF0FF0000EA3
:101E4000366E35AE26EF0FF028EF0FF04CEF0FF0A7
:101E5000FF0E32142D6EFF0E33142E6EFF0E34144F
:101E60002F6E7F0E3514306E2D502E102F10301027
:101E7000D8B43DEF0FF03FEF0FF043EF0FF0010E3E
:101E8000366E4CEF0FF038A048EF0FF04AEF0FF02E
:101E90004CEF0FF03FEF0FF03650D8B452EF0FF089
:101EA00054EF0FF078EF0FF0010E3826000E3922B4
:101EB0003A223B223BA05FEF0FF061EF0FF078EF8B
:101EC0000FF038C02DF039C02EF03AC02FF03BC0D3
:101ED00030F0303430322F322E322D322DC038F0E7
:101EE0002EC039F02FC03AF030C03BF03C4A3D2ABA
:101EF0003DBE83EF0FF03D5008E13C28D8A083EFB2
:101F00000FF085EF0FF08FEF0FF0000E386E000E20
:101F1000396E800E3A6E7F0E3B6EBDEF0FF03DBE08
:101F20009CEF0FF03D5006E13C04D8B09AEF0FF063
:101F30009CEF0FF0A8EF0FF0000E386E000E396E18
:101F4000000E3A6E000E3B6E000E316EBDEF0FF0CC
:101F50003CC037F0FF0E3816FF0E39167F0E3A16CA
:101F6000000E3B1637A0B7EF0FF0B9EF0FF0BAEF46
:101F70000FF03A8ED89037303B6E31503B1238C05C
:101F800025F039C026F03AC027F03BC028F01200F7
:101F90002850800B356E285028243C6E27AED3EF96
:101FA0000FF0D5EF0FF0D6EF0FF03C803C50D8B4D7
:101FB000DCEF0FF0DEEF0FF0F3EF0FF03C28D8A4CA
:101FC000E4EF0FF0E6EF0FF0EEEF0FF0000E256EEE
:101FD000000E266E000E276E000E286E278E000E55
:101FE000286EFBEF0FF0000E256E000E266E000E21
:101FF000276E000E286E2C50800B351A2C502C2486
:102000003D6E2BAE06EF10F008EF10F009EF10F068
:102010003D803D50D8B40FEF10F011EF10F026EFD7
:1020200010F03D28D8A417EF10F019EF10F021EFB1
:1020300010F0000E296E000E2A6E000E2B6E000EA0
:102040002C6E2B8E000E2C6E2EEF10F0000E296ED3
:10205000000E2A6E000E2B6E000E2C6E29502A10D8
:102060002B102C10D8A437EF10F039EF10F051EFEF
:1020700010F0000E256E000E266E000E276E000E6C
:10208000286E800E27127F0E28123550281225C088
:1020900025F026C026F027C027F028C028F094EFAE
:1020A00011F03C50D8A457EF10F059EF10F063EF47
:1020B00010F0000E256E000E266E000E276E000E2C
:1020C000286E94EF11F03D503CC02DF02E6A2D5E2D
:1020D000000E2E5A7F0E2D24366E000E2E20376EE7
:1020E00025C031F026C032F027C033F028C034F0CC
:1020F000000E256E000E266E000E276E000E286E56
:10210000000E386E000E396E000E3A6E000E3B6EF9
:10211000000E3D6EC4EF10F03D50D8B492EF10F0B9
:1021200094EF10F0ABEF10F0D890313632363336F2
:102130003436D89025362636273628363BAEA3EFE0
:1021400010F0A5EF10F0A6EF10F02580D8903836EB
:1021500039363A363B362950315C2A5032582B50AA
:1021600033582C503458D8A0B8EF10F0BAEF10F014
:10217000C3EF10F03B8C2950315E2A50325A2B505D
:10218000335A2C50345A3D2A190E3D64CAEF10F0D0
:10219000CCEF10F08CEF10F03150321033103410BF
:1021A000D8B4D5EF10F0D7EF10F0EFEF10F0388083
:1021B000EFEF10F0D89025362636273628363BAE7E
:1021C000E4EF10F0E6EF10F0E7EF10F02580D89084
:1021D000383639363A363B363606D8A0370627AE7B
:1021E000F4EF10F0F6EF10F0DAEF10F0000E3D6EA5
:1021F0003BAEFDEF10F0FFEF10F023EF11F0FF0EFC
:1022000038142D6EFF0E39142E6EFF0E3A142F6EF9
:102210007F0E3B14306E2D502E102F103010D8B47E
:1022200014EF11F016EF11F01AEF11F0010E3D6EE0
:1022300023EF11F025A01FEF11F021EF11F023EF94
:1022400011F016EF11F03D50D8B429EF11F02BEF3B
:1022500011F04FEF11F0010E2526000E2622272245
:10226000282228A036EF11F038EF11F04FEF11F0CF
:1022700025C02DF026C02EF027C02FF028C030F04A
:10228000303430322F322E322D322DC025F02EC078
:1022900026F02FC027F030C028F0364A372A37BE44
:1022A0005AEF11F0375008E13628D8A05AEF11F054
:1022B0005CEF11F067EF11F0000E376E3668000E1C
:1022C000256E000E266E000E276E000E286E37BE9D
:1022D00074EF11F0375006E13604D8B072EF11F008
:1022E00074EF11F082EF11F0000E376E000E366EB3
:1022F000000E256E000E266E000E276E000E286E54
:10230000000E356E36C03CF03CA089EF11F08BEF2B
:1023100011F08EEF11F0278E8FEF11F0279ED890DD
:102320003C30286E45EF10F01200000E4F6ED1EFDA
:1023300012F08EA49EEF11F0A0EF11F0A7EF11F0B4
:102340008EB6A5EF11F0A7EF11F099EF11F07C8692
:10235000090E00017B6F1E0E7A6FE40EE82EFED789
:102360007A2FFCD77B2FFAD700F076C070F077C0B9
:1023700071F078C072F079C073F0010E0001756FD2
:10238000680E746F59EC1DF076C023F077C024F00E
:1023900078C025F079C026F050EC1BF08EA4D3EF66
:1023A00011F0D5EF11F0DCEF11F08EB6DAEF11F08D
:1023B000DCEF11F0CEEF11F0010EBAEC17F07C96C5
:1023C000520E00017B6F2B0E7A6F000EE82EFED7A7
:1023D0007A2FFCD77B2FFAD700F07C86090E0001FC
:1023E0007B6F1E0E7A6FE40EE82EFED77A2FFCD795
:1023F0007B2FFAD700F076C070F077C071F078C00C
:1024000072F079C073F0010E0001756F680E746F81
:1024100031EC1DF076C023F077C024F078C025F0B1
:1024200079C026F050EC1BF08EA419EF12F01BEFD0
:1024300012F022EF12F08EB620EF12F022EF12F01F
:1024400014EF12F0020EBAEC17F07C96520E000157
:102450007B6F2B0E7A6F000EE82EFED77A2FFCD7FB
:102460007B2FFAD700F07C86090E00017B6F1E0ED1
:102470007A6FE40EE82EFED77A2FFCD77B2FFAD79F
:1024800000F076C070F077C071F078C072F079C05B
:1024900073F0000E0001756F5A0E746F59EC1DF049
:1024A00076C023F077C024F078C025F079C026F0FC
:1024B00050EC1BF0520E00017B6F2B0E7A6F000E5A
:1024C000E82EFED77A2FFCD77B2FFAD700F076C004
:1024D00070F077C071F078C072F079C073F0000EC0
:1024E0000001756F5A0E746F31EC1DF076C023F049
:1024F00077C024F078C025F079C026F050EC1BF0AE
:10250000520E00017B6F2B0E7A6F000EE82EFED765
:102510007A2FFCD77B2FFAD700F07C9680867C8EB2
:102520008EA695EF12F097EF12F09EEF12F08EB498
:102530009CEF12F09EEF12F090EF12F08EB4A3EF2A
:1025400012F0A5EF12F0B1EF12F08EA6AAEF12F082
:10255000ACEF12F0B1EF12F08096010E4F6EC2EFA9
:1025600012F08EB6B6EF12F0B8EF12F0C2EF12F022
:102570008EA4BDEF12F0BFEF12F0C2EF12F07C9EFE
:10258000000E4F6E80967C9E520E00017B6F2B0ECC
:102590007A6F000EE82EFED77A2FFCD77B2FFAD762
:1025A00000F04F50D8B4D7EF12F0D9EF12F099EFF6
:1025B00011F01200000E00018C6F000E556E000E1F
:1025C000546E000E536E000E526E000E516E000ED1
:1025D000506E000EAA6F000EA96F000EA86F000EBD
:1025E000A76F000E956F010E966FA30E976F0F0EDB
:1025F000986F7D0E996F0F0E9A6F040E9B6F000EF1
:102600009D6F630E9C6F000E9E6F010E9F6FA00E5C
:10261000A06F0F0EA16F7F0EA26F0F0EA36F060E9D
:10262000A46F000EA66F630EA56F12EC1FF012ECE4
:102630001EF0630E09EC1DF0B5EC1EF0E5EC1EF08B
:10264000D5EC1EF0950E0001766F000E776F9E0E92
:10265000786F000E796F95EC11F095EC1BF08EA45D
:1026600034EF13F036EF13F03DEF13F08EB63BEF7F
:1026700013F03DEF13F02FEF13F07C86010EA4EC66
:102680001EF0520E00018B6F2B0E8A6F000EE82E8B
:10269000FED78A2FFCD78B2FFAD700F092EC1EF0D2
:1026A00000018C51D8A457EF13F059EF13F067EFE6
:1026B00013F0AA05D8A45FEF13F061EF13F067EFF2
:1026C00013F0000EAA6F010E8C6F50EF13F08C0503
:1026D000D8A46DEF13F06FEF13F0E6EF13F0AA0537
:1026E000D8A475EF13F077EF13F0E6EF13F0950E23
:1026F000236E000E246E9E0E256E000E266E50EC8C
:102700001BF07E808080950E236E000E246E9E0E40
:10271000256E000E266E09EC1BF0090E00018B6F72
:102720001E0E8A6FE40EE82EFED78A2FFCD78B2F61
:10273000FAD700F0950E236E000E246E9E0E256EC5
:10274000000E266E50EC1BF07E908090520E000121
:102750008B6F2B0E8A6F000EE82EFED78A2FFCD7C8
:102760008B2FFAD700F08D0E0001766F000E776F79
:10277000950E786F000E796F9E0E7A6F000E7B6F4C
:1027800052EC07F0520E00018B6F2B0E8A6F000E79
:10279000E82EFED78A2FFCD78B2FFAD700F08D0EAC
:1027A000156E000E166E0BEC1CF0640E00019325E6
:1027B000506E000E9421516E6A0E9325526EFF0EDC
:1027C0009421536E000EAA6F50EF13F0950E236EF6
:1027D000000E246E9E0E256E000E266EC2EC1AF0C0
:1027E00050EF13F02EEF00F0230E426EDB0E436E1F
:1027F0007B0E446E420E456E6F0E296EF00E2A6EF1
:10280000010E2B6E400E2C6E64C017F065C018F0E0
:10281000196A1A6A000EE0EC16F017C025F018C00D
:1028200026F019C027F01AC028F0B3EC0DF025C02F
:102830003EF026C03FF027C040F028C041F053ECE6
:102840000BF03EC06AF03FC06BF040C06CF041C07E
:102850006DF06AC03EF06BC03FF06CC040F06DC0E0
:1028600041F0000E136E5A0E126E64C00CF065C07B
:102870000DF054C00AF00B6A7FEC1EF00AC010F095
:102880000BC011F0D1EC1BF010C017F011C018F004
:10289000196A1A6A000EE0EC16F017C042F018C070
:1028A00043F019C044F01AC045F053EC0BF03EC0A1
:1028B00066F03FC067F040C068F041C069F00001B9
:1028C00020EE01F06051D9266151DA22010EDF6E4F
:1028D00020EE01F06251D9266351DA22000EDF6E3C
:1028E0008080A7EF14F060C0D9FF61C0DAFF460E08
:1028F000DF607DEF14F07FEF14F085EF14F060C01F
:10290000D9FF61C0DAFF0A0EDF2662C0D9FF63C0BB
:10291000DAFF460EDF608FEF14F091EF14F097EFBF
:1029200014F062C0D9FF63C0DAFF0A0EDF2660C070
:1029300018F061C019F0F6EC15F062C018F063C031
:1029400019F0F6EC15F0A00E00D0E82EFDD760C00F
:10295000D9FF61C0DAFF450EDF64B1EF14F0B3EFC9
:1029600014F073EF14F062C0D9FF63C0DAFF450EB4
:10297000DF64BDEF14F0BFEF14F073EF14F0000E3E
:1029800000016F6F000E6E6FD1EF14F0150E4E6EDA
:10299000C60EE82EFED74E2EFCD700D000016E4B9F
:1029A0006F2B6EC017F06FC018F0196A1A6A000E0C
:1029B000E0EC16F017C025F018C026F019C027F07B
:1029C0001AC028F066C029F067C02AF068C02BF052
:1029D00069C02CF0DEEC19F0D8A0F1EF14F0F3EFA1
:1029E00014F0C6EF14F0809012004A0E426E0C0EE6
:1029F000436EFC0E446E410E456E7D0E296E3F0EF9
:102A00002A6E150E2B6E400E2C6E64C017F065C03A
:102A100018F0196A1A6A000EE0EC16F017C025F0DB
:102A200018C026F019C027F01AC028F0B3EC0DF03A
:102A300025C03EF026C03FF027C040F028C041F03E
:102A400053EC0BF03EC06AF03FC06BF040C06CF03E
:102A500041C06DF06AC03EF06BC03FF06CC040F00A
:102A60006DC041F0000E136E5A0E126E64C00CF071
:102A700065C00DF055C00AF00B6A7FEC1EF00AC06D
:102A800010F00BC011F0D1EC1BF010C017F011C00A
:102A900018F0196A1A6A000EE0EC16F017C042F03E
:102AA00018C043F019C044F01AC045F053EC0BF0C5
:102AB0003EC066F03FC067F040C068F041C069F0BA
:102AC000000120EE01F06051D9266151DA22000E9A
:102AD000DF6E20EE01F06251D9266351DA22010E39
:102AE000DF6E7E80A8EF15F060C0D9FF61C0DAFF0D
:102AF000460EDF607EEF15F080EF15F086EF15F0E3
:102B000060C0D9FF61C0DAFF0A0EDF2662C0D9FFBC
:102B100063C0DAFF460EDF6090EF15F092EF15F01C
:102B200098EF15F062C0D9FF63C0DAFF0A0EDF2606
:102B300060C018F061C019F0F6EC15F062C018F032
:102B400063C019F0F6EC15F0A00E00D0E82EFDD70A
:102B500060C0D9FF61C0DAFF450EDF64B2EF15F047
:102B6000B4EF15F074EF15F062C0D9FF63C0DAFF5F
:102B7000450EDF64BEEF15F0C0EF15F074EF15F0F1
:102B8000000E00016F6F000E6E6FD2EF15F0150E84
:102B90004E6EC60EE82EFED74E2EFCD700D000019A
:102BA0006E4B6F2B6EC017F06FC018F0196A1A6A5F
:102BB000000EE0EC16F017C025F018C026F019C082
:102BC00027F01AC028F066C029F067C02AF068C054
:102BD0002BF069C02CF0DEEC19F0D8A0F2EF15F064
:102BE000F4EF15F0C7EF15F07E90120020EE01F023
:102BF0001850D9261950DA22DF50D8B402EF16F057
:102C000004EF16F035EF16F018C0D9FF19C0DAFF3F
:102C1000DF501A6E1A500A6E0B6A20EE07F0185039
:102C2000D9261950DA22DECF0CF0DDCF0DF07FEC83
:102C30001EF00AC010F00BC011F0000E136E640EEF
:102C4000126E60EC1AF020EE07F01850D9261950D9
:102C5000DA22DECF1BF0DDCF1CF010501B5C216EA2
:102C600011501C58226E58EF16F018C0D9FF19C029
:102C7000DAFFDF501A6E1A500A6E0B6A20EE07F068
:102C80001850D9261950DA22DECF0CF0DDCF0DF026
:102C90007FEC1EF00AC010F00BC011F0000E136E96
:102CA000640E126E60EC1AF010C021F011C022F018
:102CB00020EE02F01850D9261950DA22DECF1AF091
:102CC000DDCF1BF01AC0D9FF1BC0DAFF21C0DFFF28
:102CD00020EE01F01850D9261950DA22DF50D8B46E
:102CE00074EF16F076EF16F0ABEF16F020EE04F06E
:102CF0001850D9261950DA22DECF1AF0DDCF1BF09A
:102D00001AC0D9FF1BC0DAFF10EE04F01850E126FC
:102D10001950E222E6CF1CF0E5CF1DF01CC0E1FF08
:102D20001DC0E2FFE7501E6E10EE06F01850E126BF
:102D30001950E222E7501F6E010E206E1F2AA3EFEA
:102D400016F0D89020361F2EA1EF16F020501E103E
:102D5000DF6EDFEF16F020EE04F01850D926195080
:102D6000DA22DECF1AF0DDCF1BF01AC0D9FF1BC06C
:102D7000DAFF10EE04F01850E1261950E222E6CFF7
:102D80001CF0E5CF1DF01CC0E1FF1DC0E2FFE750C5
:102D90001E6E10EE06F01850E1261950E222E750A0
:102DA0001F6E010E206E1F2AD8EF16F0D890203625
:102DB0001F2ED6EF16F02050FF0A1E14DF6E1200F1
:102DC0001F6E1F50D8B4E7EF16F0E9EF16F00BEFC7
:102DD00017F01ABEF0EF16F0EEEF16F00BEF17F04B
:102DE00017C01BF018C01CF019C01DF01AC01EF04F
:102DF0001B1E1C1E1D1E1E1E1B2A000E1C221D2219
:102E00001E221BC021F01CC022F01DC023F01EC0DA
:102E100024F013EF17F017C021F018C022F019C0EA
:102E200023F01AC024F01750181019101A10D8A443
:102E30001CEF17F01EEF17F028EF17F0000E176EBB
:102E4000000E186E000E196E000E1A6EB9EF17F014
:102E5000960E206E32EF17F0202AD89024322332BB
:102E600022322132000E21141B6E000E22141C6E21
:102E7000000E23141D6EFE0E24141E6E1B501C101B
:102E80001D101E10D8A447EF17F049EF17F02CEFD4
:102E900017F057EF17F0202A010E2126000E2222EC
:102EA00023222422D8902432233222322132000ECF
:102EB00021141B6E000E22141C6E000E23141D6EB6
:102EC000FF0E24141E6E1B501C101D101E10D8A4C3
:102ED0006CEF17F06EEF17F04BEF17F076EF17F07F
:102EE0002006D890213622362336243623BE7BEFA7
:102EF00017F07DEF17F085EF17F0020E206083EFDB
:102F000017F085EF17F070EF17F020B08AEF17F089
:102F10008CEF17F08DEF17F0239ED890203220C051
:102F20001BF01C6A1D6A1E6A1BC01EF01D6A1C6A0B
:102F30001B6A1B5021121C5022121D5023121E50BE
:102F400024121F50D8B4A7EF17F0A9EF17F0B1EF74
:102F500017F01ABEB0EF17F0AEEF17F0B1EF17F0A1
:102F6000248E21C017F022C018F023C019F024C00D
:102F70001AF012000C6E520E0B6E2B0E0A6E000E23
:102F8000E82EFED70A2EFCD70B2EFAD700D0000E63
:102F90000D6E020E0C18D8A4D0EF17F0D2EF17F078
:102FA0001EEF18F07C888EB4D8EF17F0DAEF17F028
:102FB000F2EF17F08EA6DFEF17F0E1EF17F0F2EF68
:102FC00017F07C8E542A410E0B6EF00E0A6E330EF3
:102FD000E82EFED70A2EFCD70B2EFAD700F07C9EE7
:102FE0000FEF18F08EB6F7EF17F0F9EF17F00FEFBD
:102FF00018F08EA4FEEF17F000EF18F00FEF18F0A6
:1030000080865406410E0B6EF00E0A6E330EE82ECB
:10301000FED70A2EFCD70B2EFAD700F08096290E89
:103020000B6E960E0A6E7F0EE82EFED70A2EFCD788
:103030000B2EFAD700F07C986EEF18F00C04D8A491
:1030400024EF18F026EF18F06EEF18F08EB42BEF87
:1030500018F02DEF18F045EF18F08EA632EF18F0AB
:1030600034EF18F045EF18F07C8E5506410E0B6ECC
:10307000F00E0A6E330EE82EFED70A2EFCD70B2E6A
:10308000FAD700F07C9E62EF18F08EB64AEF18F087
:103090004CEF18F062EF18F08EA451EF18F053EFD8
:1030A00018F062EF18F08086552A410E0B6EF00E74
:1030B0000A6E330EE82EFED70A2EFCD70B2EFAD757
:1030C00000F08096290E0B6E960E0A6E7F0EE82E8B
:1030D000FED70A2EFCD70B2EFAD700F00D2A090EC8
:1030E0000D6475EF18F077EF18F0C9EF17F01200C4
:1030F0003EC0D9FF3FC0DAFFDECF42F0DDCF43F064
:1031000020EE02F03E50D9263F50DA22DECF44F0C6
:10311000DDCF45F020EE04F03E50D9263F50DA22B4
:10312000DECF46F0DDCF47F020EE06F03E50D92648
:103130003F50DA22DECF48F0DDCF49F042C017F031
:1031400043C018F0196A1A6A000EE0EC16F017C0B6
:1031500025F018C026F019C027F01AC028F048C082
:1031600017F049C018F0196A1A6A000EE0EC16F060
:1031700017C029F018C02AF019C02BF01AC02CF083
:10318000C8EC0FF040C0D9FF41C0DAFF25C0DEFF18
:1031900026C0DEFF27C0DEFF28C0DEFF44C017F0D8
:1031A00045C018F0196A1A6A000EE0EC16F017C054
:1031B00025F018C026F019C027F01AC028F048C022
:1031C00017F049C018F0196A1A6A000EE0EC16F000
:1031D00017C029F018C02AF019C02BF01AC02CF023
:1031E000C8EC0FF020EE04F04050D9264150DA220E
:1031F00025C0DEFF26C0DEFF27C0DEFF28C0DEFFC1
:1032000046C017F047C018F0196A1A6A000EE0ECC1
:1032100016F017C025F018C026F019C027F01AC004
:1032200028F048C017F049C018F0196A1A6A000E51
:10323000E0EC16F017C029F018C02AF019C02BF0E6
:103240001AC02CF0C8EC0FF020EE08F04050D92640
:103250004150DA2225C0DEFF26C0DEFF27C0DEFF98
:1032600028C0DEFF1200000EA4EC1EF0090E1B6E3B
:103270001E0E1A6EE40EE82EFED71A2EFCD71B2E59
:10328000FAD700D01904D8A448EF19F04AEF19F082
:1032900078EF19F07F82520E1B6E2B0E1A6E000E05
:1032A000E82EFED71A2EFCD71B2EFAD700D017C057
:1032B00015F018C016F00BEC1CF0520E1B6E2B0E06
:1032C0001A6E000EE82EFED71A2EFCD71B2EFAD748
:1032D00000D07F92020E1B6EA00E1A6E920EE82E88
:1032E000FED71A2EFCD71B2EFAD700D0CEEF19F03E
:1032F000020E1918D8A47FEF19F081EF19F0A3EF8F
:1033000019F07988520E1B6E2B0E1A6E000EE82EE5
:10331000FED71A2EFCD71B2EFAD700D017C015F0F7
:1033200018C016F00BEC1CF0520E1B6E2B0E1A6E12
:10333000000EE82EFED71A2EFCD71B2EFAD700D08F
:1033400079986AEF19F0030E1918D8A4AAEF19F0AA
:10335000ACEF19F0CEEF19F07E8E520E1B6E2B0ED5
:103360001A6E000EE82EFED71A2EFCD71B2EFAD7A7
:1033700000D017C015F018C016F00BEC1CF0520E60
:103380001B6E2B0E1A6E000EE82EFED71A2EFCD7DF
:103390001B2EFAD700D07E9E6AEF19F0010EA4EC26
:1033A0001EF0090E1B6E1E0E1A6EE40EE82EFED7DE
:1033B0001A2EFCD71B2EFAD700D01200000E2514AF
:1033C0002D6E000E26142E6E800E27142F6E7F0E8B
:1033D0002814306E2D502E102F103010D8A4F3EF7B
:1033E00019F0F5EF19F0FDEF19F0000E256E000E43
:1033F000266E000E276E000E286E000E29142D6E0C
:10340000000E2A142E6E800E2B142F6E7F0E2C149D
:10341000306E2D502E102F103010D8A412EF1AF04D
:1034200014EF1AF01CEF1AF0000E296E000E2A6E2F
:10343000000E2B6E000E2C6E28AE21EF1AF023EF3B
:103440001AF02CEF1AF0256C261ED8B0262A271E5B
:10345000D8B0272A800E28562CAE31EF1AF033EF61
:103460001AF03CEF1AF0296C2A1ED8B02A2A2B1E1B
:10347000D8B02B2A800E2C56000E251A000E261AC4
:10348000000E271A800E281A000E291A000E2A1A7A
:10349000000E2B1A800E2C1A2950255C2A50265813
:1034A0002B5027582C502858D8B059EF1AF05BEF02
:1034B0001AF05EEF1AF0D8905FEF1AF0D880120081
:1034C000000E156E13BE69EF1AF067EF1AF06FEF7A
:1034D0001AF0126C131ED8B0132A010E156E11BE0D
:1034E00076EF1AF074EF1AF07CEF1AF0106C111EE0
:1034F000D8B0112A010E151A000E176E000E166EA6
:1035000012501310D8B487EF1AF089EF1AF0B1EF08
:103510001AF0010E146E91EF1AF0D890123613368D
:10352000142A13AE96EF1AF098EF1AF08DEF1AF0F6
:10353000D890163617361250105C13501158D8A078
:10354000A4EF1AF0A6EF1AF0ABEF1AF01250105ECB
:103550001350115A1680D89013321232142E98EF4D
:103560001AF01550D8B4B7EF1AF0B9EF1AF0BDEF52
:103570001AF0166C171ED8B0172A16C010F017C014
:1035800011F0120020EE01F02350D9262450DA2247
:10359000010EDF6E20EE01F02550D9262650DA22EA
:1035A000010EDF6EF0EF1AF023C0D9FF24C0DAFF5E
:1035B0000A0EDF2625C0D9FF26C0DAFF0A0EDF2655
:1035C00023C018F024C019F0F6EC15F025C018F04F
:1035D00026C019F0F6EC15F0A00E00D0E82EFDD7AD
:1035E00023C0D9FF24C0DAFF140EDF60FAEF1AF00F
:1035F000FCEF1AF008EF1BF025C0D9FF26C0DAFF58
:10360000130EDF6406EF1BF008EF1BF0D4EF1AF087
:10361000120020EE01F02350D9262450DA22000EA9
:10362000DF6E20EE01F02550D9262650DA22000E5A
:10363000DF6E37EF1BF023C0D9FF24C0DAFF0A0E7C
:10364000DF2625C0D9FF26C0DAFF0A0EDF2623C0F9
:1036500018F024C019F0F6EC15F025C018F026C0BB
:1036600019F0F6EC15F0A00E00D0E82EFDD723C01F
:10367000D9FF24C0DAFF320EDF6041EF1BF043EFC9
:103680001BF04FEF1BF025C0D9FF26C0DAFF310E2B
:10369000DF644DEF1BF04FEF1BF01BEF1BF0120030
:1036A0007C886FEF1BF023C0D9FF24C0DAFF0A0E1D
:1036B000DF5E25C0D9FF26C0DAFF0A0EDF5E23C019
:1036C00018F024C019F0F6EC15F025C018F026C04B
:1036D00019F0F6EC15F0A00E00D0E82EFDD723C0AF
:1036E000D9FF24C0DAFFDF50D8B479EF1BF07BEFAD
:1036F0001BF087EF1BF025C0D9FF26C0DAFFDF5093
:10370000D8A485EF1BF087EF1BF053EF1BF0290EB9
:10371000286E960E276E7F0EE82EFED7272EFCD73A
:10372000282EFAD700F07C9812008EB49AEF1BF086
:103730009CEF1BF095EF1BF07C86010EA4EC1EF0B5
:103740007C8E520E186E2B0E176E000EE82EFED7D2
:10375000172EFCD7182EFAD700D0190E156E000EB2
:10376000166E0BEC1CF0520E186E2B0E176E000E20
:10377000E82EFED7172EFCD7182EFAD700D07C9E45
:103780006A0E1F24526EFF0E2020536E640E1F24FB
:10379000506E000E2020516E7C96000EA4EC1EF0A0
:1037A0001200000E156E000E146E12501310D8B4D5
:1037B000DCEF1BF0DEEF1BF006EF1CF0010E166EC7
:1037C000E6EF1BF0D89012361336162A13AEEBEF45
:1037D0001BF0EDEF1BF0E2EF1BF0D890143615361E
:1037E0001250105C13501158D8A0F9EF1BF0FBEFEA
:1037F0001BF000EF1CF01250105E1350115A148091
:10380000D89013321232162EEDEF1BF014C010F0C8
:1038100015C011F0120069EC1CF015C0D9FF16C0DC
:10382000DAFF0EC0DEFF0FC0DDFF91EC1CF020EED2
:1038300002F01550D9261650DA220EC0DEFF0FC056
:10384000DDFFE1EC1CF020EE04F01550D9261650F7
:10385000DA220EC0DEFF0FC0DDFFB9EC1CF020EE57
:1038600006F01550D9261650DA220EC0DEFF0FC022
:10387000DDFF12007C9629C023F02AC024F02BC063
:1038800025F02CC026F009EC1BF01D0E2E6E690EE3
:103890002D6EA50EE82EFED72D2EFCD72E2EFAD794
:1038A00000F029C023F02AC024F02BC025F02CC042
:1038B00026F050EC1BF0520E2E6E2B0E2D6E000ECD
:1038C000E82EFED72D2EFCD72E2EFAD700D07C96D0
:1038D000120061EC1FF0520E4AEC1FF0B60E4AECDB
:1038E0001FF066EC1FF0530E4AEC1FF0010EF1ECD6
:1038F0001DF0106E1050136E146A000EF1EC1DF0E6
:10390000106E1050126E116A13501110136E145075
:103910001210146E5CEC1FF013C00EF014C00FF008
:10392000120061EC1FF0520E4AEC1FF0B80E4AEC88
:103930001FF066EC1FF0530E4AEC1FF0010EF1EC85
:103940001DF0106E1050136E146A000EF1EC1DF095
:10395000106E1050126E116A13501110136E145025
:103960001210146E5CEC1FF013C00EF014C00FF0B8
:10397000120061EC1FF0520E4AEC1FF0B40E4AEC3C
:103980001FF066EC1FF0530E4AEC1FF0010EF1EC35
:103990001DF0106E1050136E146A000EF1EC1DF045
:1039A000106E1050126E116A13501110136E1450D5
:1039B0001210146E5CEC1FF013C00EF014C00FF068
:1039C000120061EC1FF0520E4AEC1FF0BA0E4AECE6
:1039D0001FF066EC1FF0530E4AEC1FF0010EF1ECE5
:1039E0001DF0106E1050136E146A000EF1EC1DF0F5
:1039F000106E1050126E116A13501110136E145085
:103A00001210146E5CEC1FF013C00EF014C00FF017
:103A100012000A6EBD508F0B4009BD6EE00EBE163F
:103A2000BF50F00B0109BF6E0AC0BCFFBD8E85946C
:103A30008598839E879C7D947D987B9E7F9C000EBD
:103A4000A36E000EA06EA48EA18E0A0E0E01746FDE
:103A50000B0E696F50EC1FF06BEC1FF038EC1FF091
:103A600012000001A851D8A438EF1DF03AEF1DF064
:103A70004AEF1DF070C060F071C061F072C062F07A
:103A800073C063F074C064F075C065F0F4EC13F0BB
:103A900058EF1DF070C060F071C061F072C062F04C
:103AA00073C063F074C064F075C065F0F5EC14F099
:103AB00012000001A851D8A460EF1DF062EF1DF0C4
:103AC00072EF1DF070C060F071C061F072C062F002
:103AD00073C063F074C064F075C065F0F5EC14F069
:103AE00080EF1DF070C060F071C061F072C062F0D4
:103AF00073C063F074C064F075C065F0F4EC13F04B
:103B00001200130E0C6E000EC5EC1EF03F0E0E6E72
:103B1000550EE82EFED70E2EFCD700F0040E0C6ECC
:103B20000C0EC5EC1EF052C00CF0040EC5EC1EF0DD
:103B300053500C6E050EC5EC1EF050C00CF0060E76
:103B4000C5EC1EF051500C6E070EC5EC1EF01200B5
:103B5000130E036E000EF5EC1EF03F0E056E550EB3
:103B6000E82EFED7052EFCD700F0040E036E0C0ED7
:103B7000F5EC1EF052C003F0040EF5EC1EF05350AD
:103B8000036E050EF5EC1EF050C003F0060EF5ECCA
:103B90001EF05150036E070EF5EC1EF012000E01E0
:103BA00033A3D5EF1DF0D7EF1DF0EFEF1DF0010EA1
:103BB0000001AA6F7CAEDFEF1DF0E3EF1DF0066A97
:103BC000062AE4EF1DF0066A063206327C5006181B
:103BD0007F0B06187C6E1FEC1FF00E01339356927C
:103BE00011000C6E57EC1EF00E01DA8757EC1EF038
:103BF000D5CE0DF057EC1EF00C50D8B402EF1EF0ED
:103C000006EF1EF00B6A0B2A07EF1EF00B6A0B3A49
:103C10000B460E01DA510B18DF0B0B18DA6FDA893D
:103C20000D5012002EEC1EF0010E0C6E000EC5ECB5
:103C30001EF03F0E0E6E550EE82EFED70E2EFCD750
:103C400000F0030E0C6E000EC5EC1EF0D50E0C6ECF
:103C5000010EC5EC1EF043EC1FF012000E01D9510D
:103C6000F00B0809D96FD98B9F0ED66F848A848C8C
:103C7000A79BA79D1D0E1D6F1E0E1C6F1C0E6F6F48
:103C80001B0E706F12000001AA6BA96BA86BA76BCB
:103C9000556A546A536A526A516A506A56905692EB
:103CA000000EF86E0E0EF76E0001DAEF12F00E0144
:103CB000D8B55DEF1EF05FEF1EF057EF1EF0DACEC5
:103CC0000AF01F0E0A16D8A468EF1EF06AEF1EF065
:103CD00057EF1EF012000E01D8B571EF1EF073EF12
:103CE0001EF06BEF1EF0DACE01F01F0E0116D8A405
:103CF0007CEF1EF07EEF1EF06BEF1EF012000A50FC
:103D00000C02F3CF0EF0F4CF0FF00A500D02F35077
:103D10000F260B500C02F3500F260EC00AF00FC0F6
:103D20000BF0120082820E019A93090E0D01F16FC1
:103D30000E012983298B1F831F9B05EC1FF0F29234
:103D4000F28AF28CF28E12000A6E0AB002D07F92D2
:103D500001D07F820AB002D0799801D079880AB068
:103D600002D07E9E01D07E8E1200D6501F0B4009DD
:103D7000D66ED688D650F00B0809D66ED5880B0EB5
:103D8000D46EDB0ED36ED58E12000D6E61EC1FF07B
:103D9000520E4AEC1FF00D5080094AEC1FF00C50F7
:103DA0004AEC1FF05CEC1FF012002CEC1FF00B6EC5
:103DB000640E0B60DEEF1EF0E0EF1EF0E3EF1EF08E
:103DC0007C8EE4EF1EF07C9E1200120E0E01626FDC
:103DD000110E156F8382E997E895330EE56F000E9B
:103DE000E66FE789E88BE78F1200046E75EC1FF031
:103DF000520E56EC1FF00450800956EC1FF0035091
:103E000056EC1FF070EC1FF0120061EC1FF0520E28
:103E10004AEC1FF0E60E4AEC1FF05CEC1FF081EC60
:103E20001DF01200868C0E01B48D0F015899FC0E06
:103E300058172E0E5F6F60946088608E120075ECCC
:103E40001FF0520E56EC1FF0E60E56EC1FF070EC11
:103E50001FF0A8EC1DF01200608060B032EF1FF080
:103E600034EF1FF02DEF1FF064CF0AF00A5012005C
:103E70008892849684988690889080927C967C988C
:103E80007E908090120087928198869E000EA4EC0E
:103E90001EF012000B6E57EC1EF00BC0D5FE120088
:103EA000868486860E01B495B4971200026E6BEC80
:103EB0001EF002C0D5FE120057EC1EF00E01DA858E
:103EC000120057EC1EF00E01DA81120057EC1EF0C2
:103ED0000E01DA831200849E88967C9E80961200E2
:103EE0006BEC1EF00E01DA8512006BEC1EF00E0179
:043EF000DA81120061
:020000040020DA
:10000000FF0FFF0FFF0FFF0FFF0FFF0FFF0FFF0F80
:020000040030CA
:0C000000AAFFFFFF9FFFFFFFFFFFFFFFB5
:00000001FF
