:0400000080EF28F075
:100E000000524742433A2025692025692025692060
:100E100025692020202020524742435F72656C3AAA
:100E200020252E336620252E336620252E3366207E
:100E300020202020436F6C6F75723A2025730A0DB5
:100E4000006C6967687420626C756500756E6B6E06
:100E50006F776E006F72616E67650079656C6C6F9D
:100E60007700776869746500677265656E00706900
:100E70006E6B00494E46004E414E00696E66006E34
:0B0E8000616E00726564006C6600008B
:100E8C00000E00017B6F000E7A6F3EC08CF03FC0ED
:100E9C008DF040C08EF041C08FF08FBF5AEF07F03D
:100EAC0058EF07F070EF07F0000E7B6F010E7A6FB2
:100EBC008CC001F08DC002F08EC003F08FC004F026
:100ECC0063EC29F001C08CF002C08DF003C08EF0F1
:100EDC0004C08FF0000E0001936F000E926FECC0F7
:100EEC007EF0EDC07FF07A517B11D8A480EF07F033
:100EFC0082EF07F089EF07F0F0A587EF07F089EF95
:100F0C0007F0A3EF07F07A517B11D8A490EF07F00C
:100F1C0092EF07F098EF07F0000E616F2B0E606FE9
:100F2C009CEF07F0000E616F2D0E606F60C098F1A2
:100F3C00924B932B7E07D8A07F078CC001F08DC0FD
:100F4C0002F08EC003F08FC004F04EEC23F00104CD
:100F5C000210D8A4B4EF07F0B6EF07F00DEF08F0CD
:100F6C00BF0E436EFF0E446E4250456E466A4350B0
:100F7C0045264450462246500AE11A0E455CD8A03C
:100F8C00CAEF07F0CDEF07F0010ECEEF07F0000E21
:100F9C000001626F636B62516311D8B4D8EF07F034
:100FAC00DAEF07F0E8EF07F0980E9225016E010ECC
:100FBC009321026E730E036E0E0E046EE0EC26F09F
:100FCC00F4EF07F0980E9225016E010E9321026E3C
:100FDC007B0E036E0E0E046EE0EC26F00001FD0E8F
:100FEC007E27FF0E7F233CC011F03DC012F0980EFF
:100FFC00136E010E146E7EC015F07FC016F00BEC54
:10100C0025F011C03CF012C03DF071EF0DF08CC01A
:10101C0001F08DC002F08EC003F08FC004F04EECD6
:10102C0023F001500210D8A41EEF08F020EF08F0B6
:10103C0060EF08F0BF0E436EFF0E446E4250456EDB
:10104C00466A435045264450462246500AE11A0E41
:10105C00455CD8A034EF08F037EF08F0010E38EFFC
:10106C0008F0000E0001646F656B64516511D8B413
:10107C0042EF08F044EF08F052EF08F0980E92257A
:10108C00016E010E9321026E770E036E0E0E046E2E
:10109C00E0EC26F0F4EF07F0980E9225016E010EAD
:1010AC009321026E7F0E036E0E0E046EE0EC26F0A2
:1010BC00F4EF07F0000E0001946F000E956F800E98
:1010CC00966F3F0E976F000E916F000E906F8CC055
:1010DC0001F08DC002F08EC003F08FC004F0000E42
:1010EC00056E000E066E000E076E000E086E28ECE4
:1010FC0026F0D8B084EF08F086EF08F009EF09F07D
:10110C00A5EF08F094C001F095C002F096C003F072
:10111C0097C004F0000E056E000E066E200E076ED2
:10112C00410E086EFBEC17F001C094F002C095F074
:10113C0003C096F004C097F00001904B912B8CC02B
:10114C001AF08DC01BF08EC01CF08FC01DF0000E6D
:10115C00056E000E066E200E076E410E086E94C0D2
:10116C0001F095C002F096C003F097C004F0FBECC0
:10117C0017F001C01EF002C01FF003C020F004C025
:10118C0021F0CCEC22F0D8B0CEEF08F0D0EF08F084
:10119C0088EF08F0F0EF08F094C00FF095C010F055
:1011AC0096C011F097C012F0000E136E000E146E64
:1011BC00200E156E410E166E10EC1AF00FC094F046
:1011CC0010C095F011C096F012C097F00001900776
:1011DC00D8A091078CC01AF08DC01BF08EC01CF0EB
:1011EC008FC01DF094C01EF095C01FF096C020F06B
:1011FC0097C021F0CCEC22F0D8A007EF09F009EF52
:10120C0009F0D2EF08F042C007F0086AB0EC26F003
:10121C0007500001816F81C080F0670E8119D8A43E
:10122C001AEF09F01CEF09F042EF09F0EE51EF1143
:10123C00D8A423EF09F025EF09F029EF09F0000EEF
:10124C00EF6F010EEE6FEFBF36EF09F0EF5106E1D5
:10125C00EE05D8B034EF09F036EF09F03CEF09F0A9
:10126C00000E7D6F060E7C6F4BEF09F0EEC07CF02C
:10127C00EFC07DF04BEF09F0EFBF47EF09F049EFFE
:10128C0009F036EF09F03CEF09F0670E8119D8A48C
:10129C0052EF09F054EF09F083EF09F091AF62EFD0
:1012AC0009F0FC0E905DFF0E9159D8A060EF09F08B
:1012BC0062EF09F081EF09F0FF0E436EFF0E446EF2
:1012CC007CC045F07DC046F0435045264450462234
:1012DC009051455C4650800A476E9151800A4758A0
:1012EC00D8A07BEF09F07DEF09F081EF09F0660ED5
:1012FC00806F83EF09F0650E806F7CC072F07DC04B
:10130C0073F0670E8119D8A48EEF09F090EF09F0F5
:10131C00A0EF09F0660E8019D8A497EF09F099EFA9
:10132C0009F0A2EF09F091BFA0EF09F09EEF09F0D0
:10133C00A2EF09F0724B732B660E8019D8A4A9EF9B
:10134C0009F0ABEF09F0CBEF09F091BFB2EF09F068
:10135C00B0EF09F0BEEF09F0000E946F000E956F20
:10136C00800E966F3F0E976F000E916F000E906F70
:10137C00670E8119D8B4C5EF09F0C7EF09F0CBEFB0
:10138C0009F09051722791517323000E8B6F000E50
:10139C008A6F8CC082F08DC083F08EC084F08FC0B9
:1013AC0085F094C074F095C075F096C076F097C037
:1013BC0077F05CEF0AF082C00FF083C010F084C0AD
:1013CC0011F085C012F094C013F095C014F096C0C3
:1013DC0015F097C016F010EC1AF00FC028F010C0E2
:1013EC0029F011C02AF012C02BF04FEC1DF028C0D0
:1013FC0086F029C087F02AC088F02BC089F086C0FF
:10140C0001F087C002F088C003F089C004F049ECF9
:10141C0022F001C078F002C079F082C01AF083C0CB
:10142C001BF084C01CF085C01DF094C005F095C065
:10143C0006F096C007F097C008F086C001F087C090
:10144C0002F088C003F089C004F0FBEC17F001C077
:10145C001EF002C01FF003C020F004C021F0A5EC68
:10146C0028F01AC082F01BC083F01CC084F01DC091
:10147C0085F094C00FF095C010F096C011F097C095
:10148C0012F0000E136E000E146E200E156E410E2F
:10149C00166E10EC1AF00FC094F010C095F011C03D
:1014AC0096F012C097F000018A4B8B2B72518A5D1B
:1014BC008B51800A436E7351800A4358D8A069EF50
:1014CC000AF06BEF0AF0E1EF09F094C001F095C05F
:1014DC0002F096C003F097C004F0000E056E000EEB
:1014EC00066EA00E076E400E086EFBEC17F001C0E6
:1014FC0086F002C087F003C088F004C089F082C077
:10150C001AF083C01BF084C01CF085C01DF086C08F
:10151C001EF087C01FF088C020F089C021F0CCECF1
:10152C0022F0D8B09CEF0AF09EEF0AF0A9EF0AF077
:10153C00000E0001866F000E876F000E886F000E84
:10154C00896FD2EF0AF082C001F083C002F084C030
:10155C0003F085C004F086C005F087C006F088C093
:10156C0007F089C008F028EC26F0D8A0C0EF0AF0EC
:10157C00C2EF0AF0D2EF0AF0000178B1C8EF0AF01E
:10158C00CAEF0AF0D2EF0AF0000E866F000E876FDA
:10159C00000E886F000E896F8CC001F08DC002F0B8
:1015AC008EC003F08FC004F086C005F087C006F033
:1015BC0088C007F089C008F09BEC15F001C082F0E0
:1015CC0002C083F003C084F004C085F082C01AF01E
:1015DC0083C01BF084C01CF085C01DF0000E056E8E
:1015EC00000E066E200E076E410E086E74C001F0E0
:1015FC0075C002F076C003F077C004F0FBEC17F076
:10160C0001C01EF002C01FF003C020F004C021F086
:10161C00CCEC22F0D8A015EF0BF017EF0BF040EF4D
:10162C000BF00001904B912B74C001F075C002F0CF
:10163C0076C003F077C004F0000E056E000E066E47
:10164C00200E076E410E086EFBEC17F001C074F013
:10165C0002C075F003C076F004C077F0660E00018E
:10166C008019D8A43CEF0BF03EEF0BF040EF0BF0E1
:10167C00724B732B74C094F075C095F076C096F0D5
:10168C0077C097F0650E00018019D8B450EF0BF0BD
:10169C0052EF0BF058EF0BF090C070F091C071F05E
:1016AC005CEF0BF0000E716F000E706F000E6F6F21
:1016BC00000E6E6F000E6D6F000E6C6F000E8B6F58
:1016CC00000E8A6F57EF0CF082C00FF083C010F041
:1016DC0084C011F085C012F094C013F095C014F0C2
:1016EC0096C015F097C016F010EC1AF00FC028F049
:1016FC0010C029F011C02AF012C02BF04FEC1DF0D5
:10170C0028C086F029C087F02AC088F02BC089F049
:10171C0086C001F087C002F088C003F089C004F0D5
:10172C0049EC22F001C078F002C079F00001F0B968
:10173C00A2EF0BF0A4EF0BF0C1EF0BF07851791185
:10174C00D8A4ABEF0BF0ADEF0BF0C1EF0BF0670EC5
:10175C008119D8A4B4EF0BF0B6EF0BF0C1EF0BF07E
:10176C0071BFBDEF0BF0BBEF0BF0C1EF0BF06C4B8F
:10177C006D2B0BEF0CF06E516F11D8A4C8EF0BF062
:10178C00CAEF0BF0F4EF0BF071BFD1EF0BF0CFEF12
:10179C000BF0F4EF0BF0980E9225D96E010E9321FD
:1017AC00DA6E2E0EDF6E924B932B7E07D8A07F073E
:1017BC00000E6F6F010E6E6FF4EF0BF0980E92250A
:1017CC00D96E010E9321DA6E300EDF6E924B932B95
:1017DC007E07D8A07F076C07D8A06D076C516D11E0
:1017EC00D8A4FBEF0BF0FDEF0BF0E4EF0BF0980E31
:1017FC009225D96E010E9321DA6E7851300FDF6E7F
:10180C00924B932B7E07D8A07F0782C01AF083C01F
:10181C001BF084C01CF085C01DF094C005F095C071
:10182C0006F096C007F097C008F086C001F087C09C
:10183C0002F088C003F089C004F0FBEC17F001C083
:10184C001EF002C01FF003C020F004C021F0A5EC74
:10185C0028F01AC082F01BC083F01CC084F01DC09D
:10186C0085F094C00FF095C010F096C011F097C0A1
:10187C0012F0000E136E000E146E200E156E410E3B
:10188C00166E10EC1AF00FC094F010C095F011C049
:10189C0096F012C097F000017007D8A071078A4B20
:1018AC008B2B72518A5D8B51800A436E7351800A67
:1018BC004358D8B064EF0CF066EF0CF074EF0CF0FA
:1018CC0093BF72EF0CF0935109E14B0E925DD8A0CF
:1018DC0072EF0CF074EF0CF06AEF0BF06E516F11AD
:1018EC00D8A47BEF0CF07DEF0CF08EEF0CF0F0A990
:1018FC0082EF0CF084EF0CF08EEF0CF0980E92252A
:10190C00D96E010E9321DA6E2E0EDF6E924B932B55
:10191C00980E9225D96E010E9321DA6E000EDF6EB1
:10192C00650E8019D8A49DEF0CF09FEF0CF0F9EF29
:10193C0007F0000E8B6F4F0E8A6F980E8A25D96EAA
:10194C00010E8B21DA6E000EDF6E000E7B6F000E27
:10195C007A6F91BFB6EF0CF0B4EF0CF0BEEF0CF059
:10196C00000E7B6F010E7A6F906D911FD8B0912B8A
:10197C00000E7D6F020E7C6FEFEF0CF08A07D8A083
:10198C008B07980E8A25D96E010E8B21DA6E90C0CA
:10199C0001F091C002F0000E046E0A0E036ED0EC42
:1019AC0025F00150300FDF6E90C001F091C002F0B5
:1019BC00000E046E0A0E036E6EEC25F001C090F062
:1019CC0002C091F000017C07D8A07D077E07D8A04B
:1019DC007F0790519111D8A4F6EF0CF0F8EF0CF0B2
:1019EC00C4EF0CF07DBF05EF0DF07D5106E17C05D9
:1019FC00D8B003EF0DF005EF0DF0C4EF0CF08A0733
:101A0C00D8A08B077A517B11D8A40FEF0DF011EFF2
:101A1C000DF017EF0DF0000E676F2B0E666F1BEFBE
:101A2C000DF0000E676F2D0E666F980E8A25D96E1D
:101A3C00010E8B21DA6E66C0DFFF7E07D8A07F0710
:101A4C008A07D8A08B07BF0E436EFF0E446E425020
:101A5C00456E466A435045264450462246500AE19C
:101A6C001A0E455CD8A03DEF0DF040EF0DF0010EC5
:101A7C0041EF0DF0000E6A6F6B6B6A516B11D8A4BD
:101A8C004AEF0DF04CEF0DF052EF0DF0000E696FB8
:101A9C00650E686F56EF0DF0000E696F450E686F9E
:101AAC00980E8A25D96E010E8B21DA6E68C0DFFF85
:101ABC007E07D8A07F07980E9225016E010E932108
:101ACC00026E980E8A25036E010E8B21046EE0ECDB
:101ADC0026F0F9EF07F012008EB477EF0DF079EFE6
:101AEC000DF072EF0DF0F29E5AC00CF05BC00DF0D1
:101AFC000FEC27F05AC0D9FF5BC0DAFFDECF64F1E0
:101B0C00DDCF65F120EE02F05A50D9265B50DA2277
:101B1C00DECF66F1DDCF67F120EE04F05A50D92606
:101B2C005B50DA22DECF68F1DDCF69F120EE06F0F2
:101B3C005A50D9265B50DA22DECF6AF1DDCF6BF139
:101B4C0064C101F065C102F0000E02BEFF0E036E0F
:101B5C00046E010E58EC1EF001C00FF002C010F024
:101B6C0003C011F004C012F06AC101F06BC102F0A5
:101B7C00000E02BEFF0E036E046E010E58EC1EF03A
:101B8C0001C013F002C014F003C015F004C016F02D
:101B9C0010EC1AF00FC06CF110C06DF111C06EF1A9
:101BAC0012C06FF166C101F067C102F0000E02BEF7
:101BBC00FF0E036E046E010E58EC1EF001C00FF008
:101BCC0002C010F003C011F004C012F06AC101F0A1
:101BDC006BC102F0000E02BEFF0E036E046E010E0E
:101BEC0058EC1EF001C013F002C014F003C015F045
:101BFC0004C016F010EC1AF00FC070F110C071F1A7
:101C0C0011C072F112C073F168C101F069C102F028
:101C1C00000E02BEFF0E036E046E010E58EC1EF099
:101C2C0001C00FF002C010F003C011F004C012F09C
:101C3C006AC101F06BC102F0000E02BEFF0E036E12
:101C4C00046E010E58EC1EF001C013F002C014F02B
:101C5C0003C015F004C016F010EC1AF00FC074F1AC
:101C6C0010C075F111C076F112C077F1710E1A6EB9
:101C7C003D0E1B6E0A0E1C6E3F0E1D6E6CC11EF0CF
:101C8C006DC11FF06EC120F06FC121F0CCEC22F0C1
:101C9C00D8B053EF0EF055EF0EF0C0EF0EF070C150
:101CAC001AF071C11BF072C11CF073C11DF0480E0B
:101CBC001E6EE10E1F6E7A0E206E3E0E216ECCEC67
:101CCC0022F0D8B06CEF0EF06EEF0EF0C0EF0EF00D
:101CDC0074C11AF075C11BF076C11CF077C11DF0F0
:101CEC00EC0E1E6E510E1F6E380E206E3E0E216EC7
:101CFC00CCEC22F0D8B085EF0EF087EF0EF0C0EFF1
:101D0C000EF0000E0001AE6F010EAF6F010EB06F42
:101D1C000E0EB16F64C1B2F065C1B3F066C1B4F020
:101D2C0067C1B5F068C1B6F069C1B7F06AC1B8F067
:101D3C006BC1B9F06CC1BAF06DC1BBF06EC1BCF037
:101D4C006FC1BDF070C1BEF071C1BFF072C1C0F007
:101D5C0073C1C1F074C1C2F075C1C3F076C1C4F0D7
:101D6C0077C1C5F0830EC66F0E0EC76F3EEC27F021
:101D7C0093EF12F06CC11AF06DC11BF06EC11CF028
:101D8C006FC11DF0520E1E6EB80E1F6EDE0E206E51
:101D9C003E0E216ECCEC22F0D8B0D7EF0EF0D9EF7E
:101DAC000EF044EF0FF0520E1A6EB80E1B6E9E0E14
:101DBC001C6E3E0E1D6E70C11EF071C11FF072C103
:101DCC0020F073C121F0CCEC22F0D8B0F0EF0EF083
:101DDC00F2EF0EF044EF0FF0140E1A6EAE0E1B6EF7
:101DEC00470E1C6E3E0E1D6E74C11EF075C11FF0A9
:101DFC0076C120F077C121F0CCEC22F0D8B009EFFD
:101E0C000FF00BEF0FF044EF0FF0000E0001AE6F70
:101E1C00010EAF6F010EB06F0E0EB16F64C1B2F058
:101E2C0065C1B3F066C1B4F067C1B5F068C1B6F076
:101E3C0069C1B7F06AC1B8F06BC1B9F06CC1BAF046
:101E4C006DC1BBF06EC1BCF06FC1BDF070C1BEF016
:101E5C0071C1BFF072C1C0F073C1C1F074C1C2F0E6
:101E6C0075C1C3F076C1C4F077C1C5F0680EC66FFA
:101E7C000E0EC76F3EEC27F093EF12F06CC11AF008
:101E8C006DC11BF06EC11CF06FC11DF0F60E1E6E05
:101E9C00280E1F6EDC0E206E3E0E216ECCEC22F056
:101EAC00D8B05BEF0FF05DEF0FF0C8EF0FF09A0EAC
:101EBC001A6E990E1B6E990E1C6E3E0E1D6E70C125
:101ECC001EF071C11FF072C120F073C121F0CCEC77
:101EDC0022F0D8B074EF0FF076EF0FF0C8EF0FF0E0
:101EEC003D0E1A6E0A0E1B6E570E1C6E3E0E1D6EAC
:101EFC0074C11EF075C11FF076C120F077C121F0BE
:101F0C00CCEC22F0D8B08DEF0FF08FEF0FF0C8EFC4
:101F1C000FF0000E0001AE6F010EAF6F010EB06F2F
:101F2C000E0EB16F64C1B2F065C1B3F066C1B4F00E
:101F3C0067C1B5F068C1B6F069C1B7F06AC1B8F055
:101F4C006BC1B9F06CC1BAF06DC1BBF06EC1BCF025
:101F5C006FC1BDF070C1BEF071C1BFF072C1C0F0F5
:101F6C0073C1C1F074C1C2F075C1C3F076C1C4F0C5
:101F7C0077C1C5F0470EC66F0E0EC76F3EEC27F04B
:101F8C0093EF12F0480E1A6EE10E1B6EFA0E1C6ED9
:101F9C003E0E1D6E6CC11EF06DC11FF06EC120F0A7
:101FAC006FC121F0CCEC22F0D8B0DFEF0FF0E1EFF5
:101FBC000FF04CEF10F0850E1A6EEB0E1B6E910E9F
:101FCC001C6E3E0E1D6E70C11EF071C11FF072C1F1
:101FDC0020F073C121F0CCEC22F0D8B0F8EF0FF068
:101FEC00FAEF0FF04CEF10F0EC0E1A6E510E1B6E58
:101FFC00380E1C6E3E0E1D6E74C11EF075C11FF0A6
:10200C0076C120F077C121F0CCEC22F0D8B011EFE2
:10201C0010F013EF10F04CEF10F0000E0001AE6F4B
:10202C00010EAF6F010EB06F0E0EB16F64C1B2F046
:10203C0065C1B3F066C1B4F067C1B5F068C1B6F064
:10204C0069C1B7F06AC1B8F06BC1B9F06CC1BAF034
:10205C006DC1BBF06EC1BCF06FC1BDF070C1BEF004
:10206C0071C1BFF072C1C0F073C1C1F074C1C2F0D4
:10207C0075C1C3F076C1C4F077C1C5F05B0EC66FF5
:10208C000E0EC76F3EEC27F093EF12F0480E1A6E4F
:10209C00E10E1B6EFA0E1C6E3E0E1D6E6CC11EF018
:1020AC006DC11FF06EC120F06FC121F0CCEC22F09D
:1020BC00D8B063EF10F065EF10F0D0EF10F070C1F6
:1020CC001AF071C11BF072C11CF073C11DF0CD0E62
:1020DC001E6ECC0E1F6E8C0E206E3E0E216ECCEC46
:1020EC0022F0D8B07CEF10F07EEF10F0D0EF10F0B3
:1020FC00140E1A6EAE0E1B6E470E1C6E3E0E1D6E2F
:10210C0074C11EF075C11FF076C120F077C121F0AB
:10211C00CCEC22F0D8B095EF10F097EF10F0D0EF98
:10212C0010F0000E0001AE6F010EAF6F010EB06F1C
:10213C000E0EB16F64C1B2F065C1B3F066C1B4F0FC
:10214C0067C1B5F068C1B6F069C1B7F06AC1B8F043
:10215C006BC1B9F06CC1BAF06DC1BBF06EC1BCF013
:10216C006FC1BDF070C1BEF071C1BFF072C1C0F0E3
:10217C0073C1C1F074C1C2F075C1C3F076C1C4F0B3
:10218C0077C1C5F06E0EC66F0E0EC76F3EEC27F012
:10219C0093EF12F0710E1A6E3D0E1B6E0A0E1C6E32
:1021AC003F0E1D6E6CC11EF06DC11FF06EC120F094
:1021BC006FC121F0CCEC22F0D8B0E7EF10F0E9EFD2
:1021CC0010F054EF11F070C11AF071C11BF072C114
:1021DC001CF073C11DF08F0E1E6EC20E1F6E750E9D
:1021EC00206E3E0E216ECCEC22F0D8B000EF11F038
:1021FC0002EF11F054EF11F074C11AF075C11BF01D
:10220C0076C11CF077C11DF0EC0E1E6E510E1F6EC8
:10221C00380E206E3E0E216ECCEC22F0D8B019EFA9
:10222C0011F01BEF11F054EF11F0000E0001AE6F26
:10223C00010EAF6F010EB06F0E0EB16F64C1B2F034
:10224C0065C1B3F066C1B4F067C1B5F068C1B6F052
:10225C0069C1B7F06AC1B8F06BC1B9F06CC1BAF022
:10226C006DC1BBF06EC1BCF06FC1BDF070C1BEF0F2
:10227C0071C1BFF072C1C0F073C1C1F074C1C2F0C2
:10228C0075C1C3F076C1C4F077C1C5F0540EC66FEA
:10229C000E0EC76F3EEC27F093EF12F06CC11AF0E4
:1022AC006DC11BF06EC11CF06FC11DF0AE0E1E6E29
:1022BC00470E1F6EE10E206E3E0E216ECCEC22F00E
:1022CC00D8B06BEF11F06DEF11F0D8EF11F0F60EF6
:1022DC001A6E280E1B6E9C0E1C6E3E0E1D6E70C16F
:1022EC001EF071C11FF072C120F073C121F0CCEC53
:1022FC0022F0D8B084EF11F086EF11F0D8EF11F086
:10230C003D0E1A6E0A0E1B6E570E1C6E3E0E1D6E87
:10231C0074C11EF075C11FF076C120F077C121F099
:10232C00CCEC22F0D8B09DEF11F09FEF11F0D8EF6C
:10233C0011F0000E0001AE6F010EAF6F010EB06F09
:10234C000E0EB16F64C1B2F065C1B3F066C1B4F0EA
:10235C0067C1B5F068C1B6F069C1B7F06AC1B8F031
:10236C006BC1B9F06CC1BAF06DC1BBF06EC1BCF001
:10237C006FC1BDF070C1BEF071C1BFF072C1C0F0D1
:10238C0073C1C1F074C1C2F075C1C3F076C1C4F0A1
:10239C0077C1C5F0410EC66F0E0EC76F3EEC27F02D
:1023AC0093EF12F06CC11AF06DC11BF06EC11CF0F2
:1023BC006FC11DF01F0E1E6E850E1F6EEB0E206E74
:1023CC003E0E216ECCEC22F0D8B0EFEF11F0F1EF15
:1023DC0011F05CEF12F03D0E1A6E0A0E1B6E970E8A
:1023EC001C6E3E0E1D6E70C11EF071C11FF072C1CD
:1023FC0020F073C121F0CCEC22F0D8B008EF12F031
:10240C000AEF12F05CEF12F03D0E1A6E0A0E1B6E04
:10241C00570E1C6E3E0E1D6E74C11EF075C11FF062
:10242C0076C120F077C121F0CCEC22F0D8B021EFAE
:10243C0012F023EF12F05CEF12F0000E0001AE6F01
:10244C00010EAF6F010EB06F0E0EB16F64C1B2F022
:10245C0065C1B3F066C1B4F067C1B5F068C1B6F040
:10246C0069C1B7F06AC1B8F06BC1B9F06CC1BAF010
:10247C006DC1BBF06EC1BCF06FC1BDF070C1BEF0E0
:10248C0071C1BFF072C1C0F073C1C1F074C1C2F0B0
:10249C0075C1C3F076C1C4F077C1C5F0620EC66FCA
:1024AC000E0EC76F3EEC27F093EF12F0000E0001FA
:1024BC00AE6F010EAF6F010EB06F0E0EB16F64C137
:1024CC00B2F065C1B3F066C1B4F067C1B5F068C1D4
:1024DC00B6F069C1B7F06AC1B8F06BC1B9F06CC1A4
:1024EC00BAF06DC1BBF06EC1BCF06FC1BDF070C174
:1024FC00BEF071C1BFF072C1C0F073C1C1F074C144
:10250C00C2F075C1C3F076C1C4F077C1C5F04C0EF2
:10251C00C66F0E0EC76F3EEC27F0000E026E010E5A
:10252C00036E9BEC29F0290E5D6E960E5C6E7F0E91
:10253C00E82EFED75C2EFCD75D2EFAD700F0F28E7B
:10254C0012004AC0D9FF4BC0DAFFDECFF6FFDDCF59
:10255C00F7FF000EF86E0800F550250AD8A4B9EF65
:10256C0012F0BBEF12F07DEF15F04AC0D9FF4BC053
:10257C00DAFFDE2A000EDD22000E0001ED6F000EE8
:10258C00EC6FECC0F0F0EDC0F1F0EE69EF694AC011
:10259C00D9FF4BC0DAFFDECFF6FFDDCFF7FF000E21
:1025AC00F86E0800F5502E0AD8A4DFEF12F0E1EF18
:1025BC0012F063EF13F0000EEF6F000EEE6F4AC0D7
:1025CC00D9FF4BC0DAFFDE2A000EDD224AC0D9FF4C
:1025DC004BC0DAFFDECFF6FFDDCFF7FF000EF86E53
:1025EC000800F5502A0AD8A4FEEF12F000EF13F001
:1025FC001DEF13F04AC0D9FF4BC0DAFFDE2A000EE4
:10260C00DD224CC0D9FF4DC0DAFFDFCF4EF0020EF9
:10261C00DE26DFCF4FF0000EDD224EC0D9FF4FC0BB
:10262C00DAFFDECFEEF0DDCFEFF063EF13F04AC050
:10263C00D9FF4BC0DAFFDECF08F0DDCF09F032EC6A
:10264C001FF008C0EEF009C0EFF034EF13F04AC0F1
:10265C00D9FF4BC0DAFFDE2A000EDD22D00E4E6E03
:10266C00FF0E4F6E4AC0D9FF4BC0DAFFDECFF6FF2C
:10267C00DDCFF7FF000EF86E0800F550506E516A72
:10268C004E5050264F50512251500AE10A0E505CC8
:10269C00D8A053EF13F056EF13F0010E57EF13F0D1
:1026AC00000E0001A26FA36BA251A311D8A461EF7D
:1026BC0013F063EF13F02DEF13F04AC0D9FF4BC0AA
:1026CC00DAFFDECFF6FFDDCFF7FF000EF86E080065
:1026DC00F550076E086AB0EC26F007500001AA6F9F
:1026EC00AA51D8B47CEF13F07EEF13F0BCEF13F0CB
:1026FC004AC0D9FF4BC0DAFFDECF4EF0DDCF4FF032
:10270C00010E4E26000E4F224EC0F6FF4FC0F7FFB3
:10271C00000EF86E0800F550076E086AB0EC26F053
:10272C0007500001AB6FAB51D8B49FEF13F0A1EF82
:10273C0013F0BCEF13F04AC0D9FF4BC0DAFFDECF69
:10274C004EF0DDCF4FF0020E4E26000E4F224EC043
:10275C00F6FF4FC0F7FF000EF86E0800F550076E3D
:10276C00086AB0EC26F007500001AC6F4AC0D9FFE4
:10277C004BC0DAFFDECFF6FFDDCFF7FF000EF86EB1
:10278C000800F550640AD8B4CEEF13F0D0EF13F074
:10279C00E4EF13F04AC0D9FF4BC0DAFFDECFF6FFEF
:1027AC00DDCFF7FF000EF86E0800F550690AD8A4CB
:1027BC00E2EF13F0E4EF13F024EF14F04AC0D9FF6A
:1027CC004BC0DAFFDE2A000EDD224CC0D9FF4DC013
:1027DC00DAFFDFCF4EF0020EDE26DFCF4FF0000E19
:1027EC00DD224EC0D9FF4FC0DAFFDECF98F0DDCF2F
:1027FC0099F0000E99BFFF0E9A6F9B6F9C6F9D6FA7
:10280C009E6F9F6F48C01CF049C01DF098C01EF011
:10281C0099C01FF09AC020F09BC021F09CC022F000
:10282C009DC023F09EC024F09FC025F0DDEC1BF072
:10283C001CC048F01DC049F09AEF15F0660EAA199D
:10284C00D8A42BEF14F02DEF14F06FEF14F04AC056
:10285C00D9FF4BC0DAFFDECFF6FFDDCFF7FF000E5E
:10286C00F86E0800F5CFADF04AC0D9FF4BC0DAFFC7
:10287C00DE2A000EDD224CC0D9FF4DC0DAFFDFCFBF
:10288C004EF0040EDE26DFCF4FF0000EDD224EC0E0
:10289C00D9FF4FC0DAFFDECFA6F0DECFA7F0DECF38
:1028AC00A8F0DECFA9F048C03CF049C03DF0A6C06E
:1028BC003EF0A7C03FF0A8C040F0A9C041F0ADC0A9
:1028CC0042F046EC07F03CC048F03DC049F09AEFAE
:1028DC0015F0AA0E016E000E026E870E036E0E0E20
:1028EC00046E000E066E020E056ECDEC23F0015048
:1028FC000210D8A484EF14F086EF14F006EF15F054
:10290C004AC0D9FF4BC0DAFFDECF4EF0DDCF4FF01F
:10291C00010E4E26000E4F224EC0F6FF4FC0F7FFA1
:10292C00000EF86E0800F5CFADF0BF0E4E6EFF0E28
:10293C004F6E4AC0D9FF4BC0DAFFDECFF6FFDDCFBA
:10294C00F7FF000EF86E0800F550506E516A4E50AD
:10295C0050264F50512251500AE11A0E505CD8A00B
:10296C00BAEF14F0BDEF14F0010EBEEF14F0000E30
:10297C000001A46FA56BA451A511D8B4C8EF14F035
:10298C00CAEF14F0E4EF14F04CC0D9FF4DC0DAFFDD
:10299C00DFCF4EF0040EDE26DFCF4FF0000EDD222F
:1029AC004EC0D9FF4FC0DAFFDECFA6F0DECFA7F0C6
:1029BC00DECFA8F0DECFA9F0FCEF14F04CC0D9FFAD
:1029CC004DC0DAFFDFCF4EF0040EDE26DFCF4FF026
:1029DC00000EDD224EC0D9FF4FC0DAFFDECFA6F0CD
:1029EC00DECFA7F0DECFA8F0DECFA9F0020E4AC0F2
:1029FC00D9FF4BC0DAFFDE26000EDD2259EF14F0B2
:102A0C004AC0D9FF4BC0DAFFDECFF6FFDDCFF7FFB0
:102A1C00000EF86E0800F550730AD8A418EF15F0E4
:102A2C001AEF15F045EF15F04AC0D9FF4BC0DAFF8D
:102A3C00DE2A000EDD224CC0D9FF4DC0DAFFDFCFFD
:102A4C004EF0020EDE26DFCF4FF0000EDD224EC020
:102A5C00D9FF4FC0DAFFDECFA0F0DDCFA1F048C028
:102A6C000AF049C00BF0A0C00CF0A1C00DF004ECB2
:102A7C0020F00AC048F00BC049F09AEF15F04AC09C
:102A8C00D9FF4BC0DAFFDECFF6FFDDCFF7FF000E2C
:102A9C00F86E0800F550250AD8A457EF15F059EF39
:102AAC0015F070EF15F04AC0D9FF4BC0DAFFDE2AE3
:102ABC00000EDD22000E026E250E016E48C003F0E2
:102ACC0049C004F0A6EC24F0000E496E010E486ECD
:102ADC009AEF15F04AC0D9FF4BC0DAFFDE2A000E80
:102AEC00DD22000E496E000E486E9AEF15F04AC0BA
:102AFC00D9FF4BC0DAFFDECFF6FFDDCFF7FF000EBC
:102B0C00F86E0800F550016E026A48C003F049C027
:102B1C0004F0A6EC24F04AC0D9FF4BC0DAFFDE2A41
:102B2C00000EDD226AEF15F012000450800B0D6EC2
:102B3C00045004240F6E03AEA6EF15F0A8EF15F0A9
:102B4C00A9EF15F00F800F50D8B4AFEF15F0B1EF1F
:102B5C0015F0C6EF15F00F28D8A4B7EF15F0B9EFA4
:102B6C0015F0C1EF15F0000E016E000E026E000E96
:102B7C00036E000E046E038E000E046ECEEF15F085
:102B8C00000E016E000E026E000E036E000E046E3F
:102B9C000850800B0E6E0D500E18D8B4D8EF15F0EF
:102BAC00DAEF15F0DBEF15F00D8C085008240E6EE3
:102BBC0007AEE3EF15F0E5EF15F0E6EF15F00E803C
:102BCC000E50D8B4ECEF15F0EEEF15F003EF16F055
:102BDC000E28D8A4F4EF15F0F6EF15F0FEEF15F073
:102BEC00000E056E000E066E000E076E000E086ECF
:102BFC00078E000E086E0BEF16F0000E056E000E21
:102C0C00066E000E076E000E086E0F500E5CD8B0EC
:102C1C0012EF16F014EF16F03BEF16F00DAC19EFA7
:102C2C0016F01BEF16F01DEF16F0800E0D1A0FC0EC
:102C3C0010F00EC00FF010C00EF001C010F005C067
:102C4C0001F010C005F002C010F006C002F010C078
:102C5C0006F003C010F007C003F010C007F004C06A
:102C6C0010F008C004F010C008F0000E106E0F50E9
:102C7C000EC009F00A6A095E000E0A5A0ABE50EF2D
:102C8C0016F00A5009E11A0E095CD8A050EF16F0A4
:102C9C0052EF16F089EF16F00150021003100410D9
:102CAC00D8A45BEF16F05EEF16F0010E5FEF16F096
:102CBC00000E106E000E016E000E026E000E036E02
:102CCC00000E046E0EC00FF092EF16F010A071EF14
:102CDC0016F073EF16F079EF16F0D890103001095A
:102CEC00106E7BEF16F0D890103201A080EF16F02A
:102CFC0082EF16F083EF16F0108E04340432033298
:102D0C00023201320F2A0E500F5CD8A090EF16F051
:102D1C0092EF16F06CEF16F00DBC97EF16F099EFE2
:102D2C0016F0D9EF16F00F50D8A49FEF16F0A1EFC4
:102D3C0016F0ABEF16F0000E016E000E026E000ED8
:102D4C00036E000E046EFAEF17F0055001260650C4
:102D5C000222075003220850042204A0B8EF16F0F8
:102D6C00BAEF16F066EF17F010A0BFEF16F0C1EF38
:102D7C0016F0C7EF16F0D89010300109106EC9EF9D
:102D8C0016F0D890103201A0CEEF16F0D0EF16F05E
:102D9C00D1EF16F0108E04340432033202320132B9
:102DAC000F2A66EF17F00550015C065002580750C9
:102DBC0003580450800A096E0850800A0958D8B08C
:102DCC00EAEF16F0ECEF16F017EF17F00150055C78
:102DDC00096E025006580A6E035007580B6E0450C9
:102DEC0008580C6EFF0E0924016EFF0E0A20026EAD
:102DFC00FF0E0B20036EFF0E0C20046E800E0D1ABE
:102E0C00106C1050D8A40DEF17F00FEF17F01FEF48
:102E1C0017F0010E0126000E0222032204221FEFDE
:102E2C0017F00550015E0650025A0750035A08501D
:102E3C00045A0150021003100410D8A428EF17F004
:102E4C002AEF17F05FEF17F01050D8A430EF17F0FF
:102E5C0032EF17F05FEF17F0000E016E000E026EEE
:102E6C00000E036E000E046EFAEF17F0D8900136C8
:102E7C0002360336043610AE46EF17F048EF17F063
:102E8C0049EF17F0018010A04EEF17F050EF17F03C
:102E9C0054EF17F0D880103656EF17F0D890103644
:102EAC000F50D8B45CEF17F05EEF17F05FEF17F030
:102EBC000F0603AE64EF17F066EF17F03CEF17F058
:102ECC00000E0E6E10AE6DEF17F06FEF17F087EF70
:102EDC0017F010C009F07F0E0916D8B478EF17F070
:102EEC007AEF17F07EEF17F0010E0E6E87EF17F0EA
:102EFC0001A083EF17F085EF17F087EF17F07AEF4B
:102F0C0017F00E50D8B48DEF17F08FEF17F0BAEF13
:102F1C0017F0010E0126000E02220322042204A047
:102F2C009AEF17F09CEF17F0BAEF17F001C009F009
:102F3C0002C00AF003C00BF004C00CF00C340C32CD
:102F4C000B320A32093209C001F00AC002F00BC080
:102F5C0003F00CC004F00F28D8B4B7EF17F0B9EF9A
:102F6C0017F0BAEF17F00F2A0F28D8B4C0EF17F0EC
:102F7C00C2EF17F0CAEF17F00F50D8A4C8EF17F034
:102F8C00CAEF17F0DCEF17F0000E016E000E026EA8
:102F9C00000E036E000E046E0F50D8A4D8EF17F07D
:102FAC00DAEF17F0DCEF17F0000E0D6E0FA0E1EF6B
:102FBC0017F0E3EF17F0E6EF17F0038EE7EF17F0DB
:102FCC00039ED8900F30046E0DAEEFEF17F0F1EFBB
:102FDC0017F0F2EF17F0048E01C001F002C002F0FE
:102FEC0003C003F004C004F012000450800B0D6EFB
:102FFC0004500424136E03AE06EF18F008EF18F01B
:10300C0009EF18F013801350D8B40FEF18F011EF2C
:10301C0018F024EF18F01328D8A417EF18F019EFB4
:10302C0018F021EF18F0000E016E000E026E000E6B
:10303C00036E000E046E038E2CEF18F0000E016E62
:10304C00000E026E000E036E000E046E0850800B14
:10305C000D1A08500824126E07AE37EF18F039EF2E
:10306C0018F03AEF18F012801250D8B440EF18F064
:10307C0042EF18F055EF18F01228D8A448EF18F0CA
:10308C004AEF18F052EF18F0000E056E000E066EA7
:10309C00000E076E000E086E078E5DEF18F0000E26
:1030AC00056E000E066E000E076E000E086E1250B6
:1030BC00D8B463EF18F065EF18F06DEF18F01350FB
:1030CC00D8A46BEF18F06DEF18F077EF18F0000E36
:1030DC00016E000E026E000E036E000E046E0FEFFA
:1030EC001AF007500102F3CF18F0F4CF19F0185072
:1030FC000E6E0F6A106A116A1950146E156A166AF0
:10310C00176A06500202F3CF18F0F4CF19F01850DA
:10311C000E26000E0F221022112219501426000E1A
:10312C0015221622172205500302F3CF18F0F4CF04
:10313C0019F018500E26000E0F22102211221950D1
:10314C001426000E15221622172210C011F00FC0E3
:10315C0010F00EC00FF00E6A05500202F3CF18F0FB
:10316C00F4CF19F018500E2619500F22000E102211
:10317C00000E112206500102F3CF18F0F4CF19F013
:10318C0018500E2619500F22000E1022000E11227C
:10319C0010C011F00FC010F00EC00FF00E6A0550E9
:1031AC000102F3CF18F0F4CF19F018500E26195075
:1031BC000F22000E1022000E112207500202F3CF34
:1031CC0018F0F4CF19F01850142619501522000ECF
:1031DC001622000E172206500302F3CF18F0F4CF7C
:1031EC0019F01850142619501522000E1622000E34
:1031FC00172207500302F3CF18F0F4CF19F0185030
:10320C00096E19500A6E0B6A0C6A0BC00CF00AC0DE
:10321C000BF009C00AF0096A095014260A5015224D
:10322C000B5016220C5017220EC009F00FC00AF0DA
:10323C0010C00BF011C00CF0190E2AEF19F0D89039
:10324C000C320B320A320932E82E25EF19F00950F4
:10325C0014260A5015220B5016220C50172210C09F
:10326C0011F00FC010F00EC00FF00E6A125013C008
:10327C0009F00A6A0926000E0A22820E0924186E29
:10328C00FF0E0A20196E60EF19F0D890143615361F
:10329C001636173611AE55EF19F057EF19F058EFE7
:1032AC0019F01480D8900E360F36103611361806D9
:1032BC00D8A0190616AE65EF19F067EF19F04BEFB1
:1032CC0019F0000E126E11AE6EEF19F070EF19F0CE
:1032DC0094EF19F0FF0E0E14096EFF0E0F140A6E08
:1032EC00FF0E10140B6E7F0E11140C6E09500A1089
:1032FC000B100C10D8B485EF19F087EF19F08BEF89
:10330C0019F0010E126E94EF19F014A090EF19F051
:10331C0092EF19F094EF19F087EF19F01250D8B41E
:10332C009AEF19F09CEF19F0C0EF19F0010E14266A
:10333C00000E15221622172217A0A7EF19F0A9EFDD
:10334C0019F0C0EF19F014C009F015C00AF016C03E
:10335C000BF017C00CF00C340C320B320A32093261
:10336C0009C014F00AC015F00BC016F00CC017F011
:10337C00184A192A19BECBEF19F0195008E1182870
:10338C00D8A0CBEF19F0CDEF19F0D7EF19F0000E54
:10339C00146E000E156E800E166E7F0E176E05EFF6
:1033AC001AF019BEE4EF19F0195006E11804D8B060
:1033BC00E2EF19F0E4EF19F0F0EF19F0000E146ED3
:1033CC00000E156E000E166E000E176E000E0D6EB2
:1033DC0005EF1AF018C013F0FF0E1416FF0E151699
:1033EC007F0E1616000E171613A0FFEF19F001EF43
:1033FC001AF002EF1AF0168ED8901330176E0D508B
:10340C00171214C001F015C002F016C003F017C05B
:10341C0004F012001250800B1F6E12501224266EF4
:10342C0011AE1BEF1AF01DEF1AF01EEF1AF02680EA
:10343C002650D8B424EF1AF026EF1AF03BEF1AF00E
:10344C002628D8A42CEF1AF02EEF1AF036EF1AF02B
:10345C00000E0F6E000E106E000E116E000E126E2E
:10346C00118E000E126E43EF1AF0000E0F6E000E4E
:10347C00106E000E116E000E126E1650800B1F1A7D
:10348C0016501624276E15AE4EEF1AF050EF1AF0A8
:10349C0051EF1AF027802750D8B457EF1AF059EF94
:1034AC001AF06EEF1AF02728D8A45FEF1AF061EF2C
:1034BC001AF069EF1AF0000E136E000E146E000E67
:1034CC00156E000E166E158E000E166E76EF1AF037
:1034DC00000E136E000E146E000E156E000E166E9E
:1034EC001350141015101610D8A47FEF1AF081EF9A
:1034FC001AF099EF1AF0000E0F6E000E106E000EFF
:10350C00116E000E126E800E11127F0E12121F50D1
:10351C0012120FC00FF010C010F011C011F012C039
:10352C0012F0DCEF1BF02650D8A49FEF1AF0A1EF9D
:10353C001AF0ABEF1AF0000E0F6E000E106E000EAC
:10354C00116E000E126EDCEF1BF0275026C017F028
:10355C00186A175E000E185A7F0E1724206E000E84
:10356C001820216E0FC01BF010C01CF011C01DF0F4
:10357C0012C01EF0000E0F6E000E106E000E116EBB
:10358C00000E126E000E226E000E236E000E246EC4
:10359C00000E256E000E276E0CEF1BF02750D8B4D2
:1035AC00DAEF1AF0DCEF1AF0F3EF1AF0D8901B36C2
:1035BC001C361D361E36D8900F3610361136123684
:1035CC0025AEEBEF1AF0EDEF1AF0EEEF1AF00F80DC
:1035DC00D890223623362436253613501B5C1450D3
:1035EC001C5815501D5816501E58D8A000EF1BF033
:1035FC0002EF1BF00BEF1BF0258C13501B5E1450CD
:10360C001C5A15501D5A16501E5A272A190E27647B
:10361C0012EF1BF014EF1BF0D4EF1AF01B501C1020
:10362C001D101E10D8B41DEF1BF01FEF1BF037EF51
:10363C001BF0228037EF1BF0D8900F361036113666
:10364C00123625AE2CEF1BF02EEF1BF02FEF1BF0DC
:10365C000F80D89022362336243625362006D8A063
:10366C00210611AE3CEF1BF03EEF1BF022EF1BF0DE
:10367C00000E276E25AE45EF1BF047EF1BF06BEFEE
:10368C001BF0FF0E2214176EFF0E2314186EFF0E84
:10369C002414196E7F0E25141A6E17501810191059
:1036AC001A10D8B45CEF1BF05EEF1BF062EF1BF04E
:1036BC00010E276E6BEF1BF00FA067EF1BF069EF8D
:1036CC001BF06BEF1BF05EEF1BF02750D8B471EFC3
:1036DC001BF073EF1BF097EF1BF0010E0F26000E83
:1036EC0010221122122212A07EEF1BF080EF1BF091
:1036FC0097EF1BF00FC017F010C018F011C019F0A5
:10370C0012C01AF01A341A3219321832173217C082
:10371C000FF018C010F019C011F01AC012F0204AA6
:10372C00212A21BEA2EF1BF0215008E12028D8A0AD
:10373C00A2EF1BF0A4EF1BF0AFEF1BF0000E216EFD
:10374C002068000E0F6E000E106E000E116E000E33
:10375C00126E21BEBCEF1BF0215006E12004D8B044
:10376C00BAEF1BF0BCEF1BF0CAEF1BF0000E216E82
:10377C00000E206E000E0F6E000E106E000E116EFD
:10378C00000E126E000E1F6E20C026F026A0D1EF88
:10379C001BF0D3EF1BF0D6EF1BF0118ED7EF1BF005
:1037AC00119ED8902630126E8DEF1AF012001EC0AA
:1037BC0036F01FC037F020C038F021C039F022C0DD
:1037CC003AF023C03BF024C03CF025C03DF03DBE98
:1037DC00F2EF1BF0F5EF1BF0010EF6EF1BF0000EF5
:1037EC00346E356A34503510D8B4FFEF1BF001EF4E
:1037FC001CF011EF1CF03D1E3C1E3B1E3A1E391EE8
:10380C00381E371E366C000E3722382239223A22E7
:10381C003B223C223D220001EFBF17EF1CF019EFB9
:10382C001CF01AEF1CF0F093EFBF27EF1CF0EF51D8
:10383C0006E1EE05D8B025EF1CF027EF1CF02DEFBC
:10384C001CF0000E316E010E306E31EF1CF0EEC02C
:10385C0030F0EFC031F0ECC032F0EDC033F034504A
:10386C003510D8A43CEF1CF03EEF1CF045EF1CF0DB
:10387C00F0A543EF1CF045EF1CF048EF1CF03206AE
:10388C00D8A03306000E3F6E4F0E3E6E000E0101A7
:10389C00E76FCDEF1CF03E06D8A03F06980E3E24F5
:1038AC00D96E010E3F20DA6E36C001F037C002F03F
:1038BC0038C003F039C004F03AC005F03BC006F044
:1038CC003CC007F03DC008F00A0E096E000E0A6EEF
:1038DC00000E0B6E000E0C6E000E0D6E000E0E6EBA
:1038EC00000E0F6E000E106E97EC21F001C026F04A
:1038FC0002C027F003C028F004C029F005C02AF04C
:10390C0006C02BF007C02CF008C02DF026C013F019
:10391C0028C014F00BEC29F01350300FDF6E30067A
:10392C00D8A031063206D8A0330636C001F037C015
:10393C0002F038C003F039C004F03AC005F03BC0C7
:10394C0006F03CC007F03DC008F00A0E096E000EF0
:10395C000A6E000E0B6E000E0C6E000E0D6E000E3D
:10396C000E6E000E0F6E000E106ED3EC20F001C028
:10397C0036F002C037F003C038F004C039F005C08F
:10398C003AF006C03BF007C03CF008C03DF03FBE2B
:10399C00D8EF1CF03F5008E13E04D8A0D8EF1CF043
:1039AC00DAEF1CF00BEF1DF03650371038103910D1
:1039BC003A103B103C103D10D8A4E7EF1CF0E9EF97
:1039CC001CF051EF1CF031BEF6EF1CF0315006E14B
:1039DC003004D8B0F4EF1CF0F6EF1CF051EF1CF0F3
:1039EC0033BE01EF1DF0335008E13204D8A001EFD3
:1039FC001DF003EF1DF00BEF1DF00001F0B309EF0C
:103A0C001DF00BEF1DF051EF1CF034503510D8A405
:103A1C0012EF1DF014EF1DF01CEF1DF00001F0A5CE
:103A2C001AEF1DF01CEF1DF03AEF1DF03E06D8A06A
:103A3C003F0634503510D8A426EF1DF028EF1DF0AA
:103A4C002EEF1DF0000E2F6E2B0E2E6E32EF1DF092
:103A5C00000E2F6E2D0E2E6E980E3E24D96E010E7A
:103A6C003F20DA6E2EC0DFFF1CC011F01DC012F01B
:103A7C00980E3E24136E010E3F20146E32C015F0CA
:103A8C0033C016F00BEC25F011C01CF012C01DF069
:103A9C0012008CC138F08DC139F08EC13AF08FC153
:103AAC003BF028C038F029C039F02AC03AF02BC0BE
:103ABC003BF0810E2C6EFF0E2D6E38C02EF039C0EF
:103ACC002FF03AC030F03BC031F0180E73EF1DF000
:103ADC00D890313230322F322E32E82E6EEF1DF06C
:103AEC002E502C24366E000E2D20376E37BE88EFEC
:103AFC001DF0375009E1170E365CD8A088EF1DF089
:103B0C008AEF1DF094EF1DF028C028F029C029F091
:103B1C002AC02AF02BC02BF057EF1EF037BE99EFBE
:103B2C001DF09BEF1DF00BEF1EF036C02CF0FF0EBE
:103B3C002D6EFF0E2E6E7F0E2F6E000E306E2C66CD
:103B4C00AAEF1DF0B2EF1DF0303430322F322E328E
:103B5C002D322C2EA5EF1DF02DC032F02EC033F0DF
:103B6C002FC034F030C035F0325038142C6E335036
:103B7C0039142D6E34503A142E6E35503B142F6E72
:103B8C002C502D102E102F10D8A4CFEF1DF0D1EFEC
:103B9C001DF0D3EF1DF08AEF1DF038C02CF039C0AA
:103BAC002DF03AC02EF03BC02FF0200EE3EF1DF0AD
:103BBC00D8902F322E322D322C32E82EDEEF1DF023
:103BCC002C502D102E102F10D8B4EFEF1DF0F1EF5C
:103BDC001DF0F9EF1DF03250382633503922345095
:103BEC003A2235503B22321C2C6E331C2D6E341C69
:103BFC002E6E351C2F6E2C5038162D5039162E501B
:103C0C003A162F503B164FEF1EF038C02CF039C02F
:103C1C002DF03AC02EF03BC02FF0200E1BEF1EF003
:103C2C00D8902F322E322D322C32E82E16EF1EF079
:103C3C002C502D102E102F10D8A427EF1EF029EF8A
:103C4C001EF033EF1EF0000E386E000E396E000EB3
:103C5C003A6E000E3B6E4FEF1EF0D89038342C6E3F
:103C6C0039342D6E3A342E6E3B342F6E2C502D1071
:103C7C002E102F10D8B445EF1EF047EF1EF04FEF6B
:103C8C001EF0000E386E000E396E800E3A6EBF0EAE
:103C9C003B6E38C028F039C029F03AC02AF03BC03E
:103CAC002BF01200096E0950D8B45FEF1EF061EFD3
:103CBC001EF083EF1EF004BE68EF1EF066EF1EF0E0
:103CCC0083EF1EF001C005F002C006F003C007F040
:103CDC0004C008F0051E061E071E081E052A000E4D
:103CEC0006220722082205C00BF006C00CF007C004
:103CFC000DF008C00EF08BEF1EF001C00BF002C0EF
:103D0C000CF003C00DF004C00EF0015002100310B3
:103D1C000410D8A494EF1EF096EF1EF0A0EF1EF046
:103D2C00000E016E000E026E000E036E000E046E8D
:103D3C0031EF1FF0960E0A6EAAEF1EF00A2AD890E9
:103D4C000E320D320C320B32000E0B14056E000EBF
:103D5C000C14066E000E0D14076EFE0E0E14086E7B
:103D6C000550061007100810D8A4BFEF1EF0C1EFC5
:103D7C001EF0A4EF1EF0CFEF1EF00A2A010E0B2648
:103D8C00000E0C220D220E22D8900E320D320C3267
:103D9C000B32000E0B14056E000E0C14066E000E8A
:103DAC000D14076EFF0E0E14086E0550061007104A
:103DBC000810D8A4E4EF1EF0E6EF1EF0C3EF1EF0DF
:103DCC00EEEF1EF00A06D8900B360C360D360E367A
:103DDC000DBEF3EF1EF0F5EF1EF0FDEF1EF0020E20
:103DEC000A60FBEF1EF0FDEF1EF0E8EF1EF00AB0CC
:103DFC0002EF1FF004EF1FF005EF1FF00D9ED8909F
:103E0C000A320AC005F0066A076A086A05C008F09B
:103E1C00076A066A056A05500B1206500C12075009
:103E2C000D1208500E120950D8B41FEF1FF021EFDD
:103E3C001FF029EF1FF004BE28EF1FF026EF1FF034
:103E4C0029EF1FF00E8E0BC001F00CC002F00DC05C
:103E5C0003F00EC004F01200000E166E000E156E6C
:103E6C00000E0F6E000E0E6E3EEF1FF0084A092A70
:103E7C00010E146E08C0F6FF09C0F7FF000EF86EB5
:103E8C000800F550200AD8B44EEF1FF050EF1FF089
:103E9C006FEF1FF0F70E0A6EFF0E0B6E08C0F6FFE9
:103EAC0009C0F7FF000EF86E0800F5500C6E0D6A95
:103EBC000A500C260B500D220D5009E1050E0C5C1E
:103ECC00D8A06BEF1FF06DEF1FF06FEF1FF0000E1F
:103EDC00146E14C010F0116A10501110D8A479EFA0
:103EEC001FF07BEF1FF03CEF1FF085EF1FF0000E73
:103EFC000F6E010E0E6E084A092ABEEF1FF008C0A5
:103F0C00F6FF09C0F7FF000EF86E0800F5500A6EB8
:103F1C000B6A0B50000AD8B496EF1FF0BEEF1FF0DF
:103F2C000A502B0AD8B481EF1FF0060AD8B47DEFE3
:103F3C001FF0BEEF1FF015C001F016C002F0000E0E
:103F4C00046E0A0E036EDCEC29F008C0F6FF09C003
:103F5C00F7FF000EF86E0800F550015E000E025AD5
:103F6C00300E0124156E000E0220166E81EF1FF02C
:103F7C00D00E0A6EFF0E0B6E08C0F6FF09C0F7FFDD
:103F8C00000EF86E0800F5500C6E0D6A0A500C26E7
:103F9C000B500D220D500AE10A0E0C5CD8A0D9EF83
:103FAC001FF0DCEF1FF0010EDDEF1FF0000E126EA4
:103FBC00136A12501310D8A4E6EF1FF0E8EF1FF0AD
:103FCC00A1EF1FF00E500F10D8A4EFEF1FF0F1EF80
:103FDC001FF0FFEF1FF015C00AF016C00BF00A1E01
:103FEC000B1E0A4A0B2A0AC008F00BC009F003EF9B
:103FFC0020F015C008F016C009F0120021EEE8F010
:10400C0010EE0FF0060EDBCFE3FFE806FCE20CC06F
:10401C001AF00DC01BF01A501B10D8A418EF20F08A
:10402C001AEF20F01EEF20F00F0E1A6E000E1B6E12
:10403C001AC001F01BC002F090EC27F001C01EF07A
:10404C0002C01FF0EEC01CF0EFC01DF01DBE31EF22
:10405C0020F033EF20F048EF20F01E501C5C1D5078
:10406C00800A0E6E1F50800A0E58D8A040EF20F028
:10407C0042EF20F044EF20F048EF20F01CC01EF07F
:10408C001DC01FF01EC01CF01FC01DF0ECC018F0AE
:10409C00EDC019F00001F0B156EF20F058EF20F010
:1040AC0075EF20F066EF20F0000E026E200E016E10
:1040BC000AC003F00BC004F0A6EC24F01E4A1F2A21
:1040CC0018501E5C1F50800A0E6E1950800A0E5834
:1040DC00D8A073EF20F075EF20F05AEF20F0000E0F
:1040EC00176E000E166E9AEF20F01AC0F6FF1BC06A
:1040FC00F7FF000EF86E0D0EF76403D00800F550B4
:10410C0005D0F6CFE9FFF7CFEAFFEF500E6E0E5059
:10411C00016E026A0AC003F00BC004F0A6EC24F096
:10412C001A4A1B2A164A172A1C50165C1750800A6A
:10413C000E6E1D50800A0E58D8A0A7EF20F0A9EFE4
:10414C0020F07BEF20F00001F0A1AFEF20F0B1EFF9
:10415C0020F0CEEF20F0BFEF20F0000E026E200E0C
:10416C00016E0AC003F00BC004F0A6EC24F01E4A4A
:10417C001F2A18501E5C1F50800A0E6E1950800AA0
:10418C000E58D8A0CCEF20F0CEEF20F0B3EF20F0FB
:10419C001EC00AF01FC00BF01200000E126E10BEF3
:1041AC00DCEF20F0DAEF20F0EEEF20F0101E0F1E07
:1041BC000E1E0D1E0C1E0B1E0A1E096C000E0A2272
:1041CC000B220C220D220E220F221022010E126E37
:1041DC0008BEF5EF20F0F3EF20F007EF21F0081EFA
:1041EC00071E061E051E041E031E021E016C000E79
:1041FC000222032204220522062207220822010E93
:10420C00121A20EE13F0070EDE6AE806FDE20950E2
:10421C000A100B100C100D100E100F101010D8B43B
:10422C001AEF21F01CEF21F06EEF21F0010E116E50
:10423C002AEF21F0D89009360A360B360C360D369B
:10424C000E360F361036112A10AE2FEF21F031EF4B
:10425C0021F020EF21F0D89013361436153616368F
:10426C001736183619361A360950015C0A5002589E
:10427C000B5003580C5004580D5005580E5006584E
:10428C000F50075810500858D8A04FEF21F051EF9D
:10429C0021F062EF21F00950015E0A50025A0B50D6
:1042AC00035A0C50045A0D50055A0E50065A0F5012
:1042BC00075A1050085A1380D89010320F320E3211
:1042CC000D320C320B320A320932112E31EF21F041
:1042DC001250D8B474EF21F076EF21F086EF21F074
:1042EC001A1E191E181E171E161E151E141E136CD0
:1042FC00000E1422152216221722182219221A2215
:10430C0013C001F014C002F015C003F016C004F085
:10431C0017C005F018C006F019C007F01AC008F055
:10432C001200000E126E08BEA0EF21F09EEF21F0DD
:10433C00B2EF21F0081E071E061E051E041E031EEA
:10434C00021E016C000E0222032204220522062208
:10435C0007220822010E126E10BEB9EF21F0B7EF42
:10436C0021F0C9EF21F0101E0F1E0E1E0D1E0C1E8B
:10437C000B1E0A1E096C000E0A220B220C220D22A7
:10438C000E220F22102209500A100B100C100D10C7
:10439C000E100F101010D8B4D6EF21F0D8EF21F07A
:1043AC0020EF22F0010E116EE6EF21F0D8900936C5
:1043BC000A360B360C360D360E360F361036112AE1
:1043CC0010AEEBEF21F0EDEF21F0DCEF21F0095016
:1043DC00015C0A5002580B5003580C5004580D50F5
:1043EC0005580E5006580F50075810500858D8A0B2
:1043FC0002EF22F004EF22F014EF22F00950015EDC
:10440C000A50025A0B50035A0C50045A0D50055ABC
:10441C000E50065A0F50075A1050085AD8901032A6
:10442C000F320E320D320C320B320A320932112E8F
:10443C00EDEF21F01250D8B426EF22F028EF22F045
:10444C0038EF22F0081E071E061E051E041E031E52
:10445C00021E016C000E02220322042205220622F7
:10446C000722082201C001F002C002F003C003F0D1
:10447C0004C004F005C005F006C006F007C007F044
:10448C0008C008F01200033404340A6E0A50D8A491
:10449C0052EF22F054EF22F05EEF22F0000E016E8C
:1044AC00000E026E000E036E000E046ECBEF22F0B7
:1044BC0001C005F002C006F003C007F004C008F00C
:1044CC00200E6EEF22F0D8900832073206320532F9
:1044DC00E82E69EF22F00550096E038EFF0E0116CF
:1044EC00FF0E0216FF0E0316000E0416960E0A5E41
:1044FC000ABE85EF22F083EF22F09BEF22F00A50E8
:10450C00800A970FD8B08DEF22F08FEF22F091EF49
:10451C0022F054EF22F0D8900432033202320132EE
:10452C000A3E91EF22F0B3EF22F01F0E0A64A1EFC6
:10453C0022F0A3EF22F0ABEF22F054EF22F0D89050
:10454C0001360236033604360A060A50D8A4B1EFF7
:10455C0022F0B3EF22F0A5EF22F00950D8B4B9EF56
:10456C0022F0BBEF22F0C3EF22F0041E031E021E4A
:10457C00016C000E02220322042201C001F002C0D1
:10458C0002F003C003F004C004F01200000E1A1471
:10459C00226E000E1B14236E800E1C14246E7F0ED4
:1045AC001D14256E2250231024102510D8A4E1EFE1
:1045BC0022F0E3EF22F0EBEF22F0000E1A6E000E69
:1045CC001B6E000E1C6E000E1D6E000E1E14226E55
:1045DC00000E1F14236E800E2014246E7F0E2114E7
:1045EC00256E2250231024102510D8A400EF23F0A0
:1045FC0002EF23F00AEF23F0000E1E6E000E1F6E6A
:10460C00000E206E000E216E1DAE0FEF23F011EF89
:10461C0023F01AEF23F01A6C1B1ED8B01B2A1C1E99
:10462C00D8B01C2A800E1D5621AE1FEF23F021EFAF
:10463C0023F02AEF23F01E6C1F1ED8B01F2A201E59
:10464C00D8B0202A800E2156000E1A1A000E1B1A02
:10465C00000E1C1A800E1D1A000E1E1A000E1F1AB8
:10466C00000E201A800E211A1E501A5C1F501B5867
:10467C0020501C5821501D58D8B047EF23F049EF5B
:10468C0023F04CEF23F0D8904DEF23F0D88012009C
:10469C0090C10BF091C10CF092C10DF093C10EF0D2
:1046AC0001C00BF002C00CF003C00DF004C00EF002
:1046BC000BC005F00CC006F00DC007F00EC008F0E2
:1046CC00180E6EEF23F0D8900832073206320532FE
:1046DC00E82E69EF23F00550096E0A6A09500A109A
:1046EC00D8A47BEF23F07DEF23F09DEF23F0D8903F
:1046FC000B34056E0C34066E0D34076E0E34086EDA
:10470C000550061007100810D8A48FEF23F091EF76
:10471C0023F097EF23F0000E026E020E016ECCEF29
:10472C0023F0000E026E030E016ECCEF23F009286D
:10473C000A10D8A4A4EF23F0A6EF23F0C8EF23F0BF
:10474C000BC005F00CC006F00DC007F00EC008F051
:10475C00090ED8900536063607360836E82EAFEF28
:10476C0023F00550061007100810D8B4C0EF23F042
:10477C00C3EF23F0010EC4EF23F0000E016E026AAA
:10478C00CCEF23F0000E026E040E016E120001C07D
:10479C0008F002C009F003C00AF004C00BF00506D3
:1047AC00D8A00606052806E10628D8A4E0EF23F0D9
:1047BC00E2EF23F0EFEF23F0000E026E000E016E1D
:1047CC003DEF24F0084A092A0A4A0B2A0506D8A00C
:1047DC00060608C0D9FF09C0DAFFDF50D8B4F9EFDC
:1047EC0023F0FBEF23F02AEF24F00AC0F6FF0BC0F6
:1047FC00F7FF000EF86E0800F5500009D8B409EF69
:10480C0024F00BEF24F02AEF24F005500610D8B456
:10481C0012EF24F014EF24F02AEF24F008C0D9FF93
:10482C0009C0DAFFDF50076E0AC0F6FF0BC0F7FFB6
:10483C00000EF86E0800F5500718D8B428EF24F0D5
:10484C002AEF24F0E8EF23F008C0D9FF09C0DAFF03
:10485C00DF50076E0AC0F6FF0BC0F7FF000EF86EB4
:10486C000800F550075C016E026AD8A0020612001F
:10487C00000E0001F36F000EF26FFB69FC69320E43
:10488C00FE6F320EFD6F000EF66F000EF56F000E10
:10489C00F46F000ED86F010ED96FA30EDA6F0F0EE6
:1048AC00DB6F7D0EDC6F0F0EDD6F040EDE6F000E06
:1048BC00E06F630EDF6F000EE16F010EE26FA00E72
:1048CC00E36F0F0EE46F7F0EE56F0F0EE66F060EB3
:1048DC00E76F000EE96F630EE86F30EC2AF02BECFB
:1048EC0029F0630E58EC28F020EC2AF010EC2AF09A
:1048FC008EA483EF24F085EF24F08CEF24F08EB699
:10490C008AEF24F08CEF24F07EEF24F07C86010EED
:10491C00EFEC29F0520E5F6E2B0E5E6E000EE82E41
:10492C00FED75E2EFCD75F2EFAD700D0D00E5A6E73
:10493C00000E5B6E72EC0DF09CEF24F000EF00F0BB
:10494C0003500410D8B4ADEF24F0AFEF24F0B8EF5F
:10495C0024F003500410D8A4B6EF24F0B8EF24F0E0
:10496C00BDEF24F001508BEC2AF00AEF25F020EE7D
:10497C0004F00350D9260450DA22DE50DE10D8B4ED
:10498C00CAEF24F0CCEF24F0E7EF24F020EE04F093
:10499C000350D9260450DA2210EE02F00350E1261F
:1049AC000450E222DE50E65CE650800A096EDE50CE
:1049BC00800A0958D8B0E5EF24F0E7EF24F00AEFAD
:1049CC0025F020EE02F00350D9260450DA22DECF77
:1049DC0005F0DDCF06F003C0D9FF04C0DAFFDECF4F
:1049EC0007F0DDCF08F005500724D96E06500820DB
:1049FC00DA6E01C0DFFF20EE02F00350D92604501E
:104A0C00DA22DE2A000EDD2212000001F0A111EFE5
:104A1C0025F013EF25F01DEF25F013C00AF014C09C
:104A2C000BF011C00CF012C00DF0C8EC28F016BE43
:104A3C0022EF25F024EF25F02AEF25F015C01AF00F
:104A4C0016C01BF02EEF25F0000E1B6E000E1A6E1A
:104A5C00000E196E000E186E40EF25F0000E026E5F
:104A6C00200E016E11C003F012C004F0A6EC24F06D
:104A7C00184A192A1A50185C1950800A176E1B50C4
:104A8C00800A1758D8A04DEF25F04FEF25F034EFE2
:104A9C0025F00001F0B155EF25F057EF25F061EF4F
:104AAC0025F013C00AF014C00BF011C00CF012C0AA
:104ABC000DF0C8EC28F013C001F014C002F090EC1B
:104ACC0027F01A500124116E1B500220126E120096
:104ADC00000E066E04BE77EF25F075EF25F07DEF26
:104AEC0025F0036C041ED8B0042A010E066E02BE1B
:104AFC0084EF25F082EF25F08AEF25F0016C021E81
:104B0C00D8B0022A010E061A000E086E000E076EAF
:104B1C0003500410D8B495EF25F097EF25F0BFEFB4
:104B2C0025F0010E056E9FEF25F0D8900336043664
:104B3C00052A04AEA4EF25F0A6EF25F09BEF25F097
:104B4C00D890073608360350015C04500258D8A0A0
:104B5C00B2EF25F0B4EF25F0B9EF25F00350015E6C
:104B6C000450025A0780D89004320332052EA6EF67
:104B7C0025F00650D8B4C5EF25F0C7EF25F0CBEFE4
:104B8C0025F0076C081ED8B0082A07C001F008C031
:104B9C0002F01200000E066E02BED9EF25F0D7EF20
:104BAC0025F0DFEF25F0016C021ED8B0022A010EB1
:104BBC00066E04BEE6EF25F0E4EF25F0EAEF25F0F3
:104BCC00036C041ED8B0042A03500410D8B4F1EFBF
:104BDC0025F0F3EF25F017EF26F0010E056EFBEF35
:104BEC0025F0D89003360436052A04AE00EF26F0E3
:104BFC0002EF26F0F7EF25F00350015C0450025849
:104C0C00D8A00BEF26F00DEF26F011EF26F0035095
:104C1C00015E0450025AD89004320332052E02EF82
:104C2C0026F00650D8B41DEF26F01FEF26F023EF28
:104C3C0026F0016C021ED8B0022A01C001F002C09D
:104C4C0002F01200000E0114096E000E02140A6E1E
:104C5C00800E03140B6E7F0E04140C6E09500A1098
:104C6C000B100C10D8A43DEF26F03FEF26F047EFC9
:104C7C0026F0000E016E000E026E000E036E000E8A
:104C8C00046E000E0514096E000E06140A6E800EDA
:104C9C0007140B6E7F0E08140C6E09500A100B10C3
:104CAC000C10D8A45CEF26F05EEF26F066EF26F031
:104CBC00000E056E000E066E000E076E000E086EDE
:104CCC00055001180FE1065002180CE107500318AB
:104CDC0009E108500418D8B476EF26F078EF26F0E6
:104CEC007BEF26F0D8907CEF26F0D880120054C0D1
:104CFC0058F055C059F0000E0001EB6F000EEA6F32
:104D0C009BEF26F052C048F053C049F0580E4A6E43
:104D1C00000E4B6E56C04CF057C04DF0A7EC12F085
:104D2C0048500001EA274950EB2358C0F6FF59C000
:104D3C00F7FF000EF86E0800F5500009D8A4A9EF93
:104D4C0026F0ABEF26F088EF26F0EAC052F0EBC06D
:104D5C0053F01200BF0E096EFF0E0A6E07C00BF067
:104D6C0008C00CF009500B260A500C220C500AE11A
:104D7C001A0E0B5CD8A0C5EF26F0C8EF26F0010E7A
:104D8C00C9EF26F0000E0D6E0E6A0D500E10D8B441
:104D9C00D2EF26F0D4EF26F0DBEF26F0200E071032
:104DAC00076E0850086EDFEF26F007C007F008C04A
:104DBC0008F0120003C007F004C008F001C009F0AD
:104DCC0002C00AF00750056E0850066E074A082A02
:104DDC0005C0F6FF06C0F7FF000EF86E09C0D9FF3C
:104DEC000AC0DAFF094A0A2A0D0EF76403D008003C
:104DFC00F55005D0F6CFE9FFF7CFEAFFEF50DF6EA5
:104E0C00DF50D8A40CEF27F00EEF27F0E8EF26F0D8
:104E1C001200B8EC27F00CC0D9FF0DC0DAFF05C0AA
:104E2C00DEFF06C0DDFFE0EC27F020EE02F00C50B8
:104E3C00D9260D50DA2205C0DEFF06C0DDFF30ECAE
:104E4C0028F020EE04F00C50D9260D50DA2205C0C3
:104E5C00DEFF06C0DDFF08EC28F020EE06F00C505B
:104E6C00D9260D50DA2205C0DEFF06C0DDFF120088
:104E7C00B20E0001C86F000EC96FAEC0CAF0AFC051
:104E8C00CBF0000ECD6F000ECC6F000ECF6F000E6E
:104E9C00CE6FCA0E526E000E536EB0C054F0B1C03D
:104EAC0055F0C80E566E000E576E7DEC26F00001C4
:104EBC00CC51AE25D96ECD51AF21DA6E000EDF6E1E
:104ECC001200010E076E200E01180210D8B471EFFB
:104EDC0027F073EF27F08CEF27F0F70E036EFF0E21
:104EEC00046E01C005F002C006F003500526045004
:104EFC000622065009E1050E055CD8A088EF27F0C4
:104F0C008AEF27F08CEF27F0000E076E07C001F038
:104F1C00026A120001C003F002C004F098EF27F0FF
:104F2C00014A022A01C0F6FF02C0F7FF000EF86E1C
:104F3C000D0EF76403D00800F55005D0F6CFE9FF4D
:104F4C00F7CFEAFFEF500009D8A4AFEF27F0B1EF8D
:104F5C0027F096EF27F00350015C016E04500258C5
:104F6C00026E120078EC2AF0520E67EC2AF0B60EA4
:104F7C0067EC2AF07DEC2AF0530E67EC2AF0010E58
:104F8C00EAEC28F0076E07500A6E0B6A000EEAEC8A
:104F9C0028F0076E0750096E086A0A5008100A6E4E
:104FAC000B5009100B6E73EC2AF00AC005F00BC005
:104FBC0006F0120078EC2AF0520E67EC2AF0B80ECC
:104FCC0067EC2AF07DEC2AF0530E67EC2AF0010E08
:104FDC00EAEC28F0076E07500A6E0B6A000EEAEC3A
:104FEC0028F0076E0750096E086A0A5008100A6EFE
:104FFC000B5009100B6E73EC2AF00AC005F00BC0B5
:10500C0006F0120078EC2AF0520E67EC2AF0B40E7F
:10501C0067EC2AF07DEC2AF0530E67EC2AF0010EB7
:10502C00EAEC28F0076E07500A6E0B6A000EEAECE9
:10503C0028F0076E0750096E086A0A5008100A6EAD
:10504C000B5009100B6E73EC2AF00AC005F00BC064
:10505C0006F0120078EC2AF0520E67EC2AF0BA0E29
:10506C0067EC2AF07DEC2AF0530E67EC2AF0010E67
:10507C00EAEC28F0076E07500A6E0B6A000EEAEC99
:10508C0028F0076E0750096E086A0A5008100A6E5D
:10509C000B5009100B6E73EC2AF00AC005F00BC014
:1050AC0006F01200016EBD508F0B4009BD6EE00E74
:1050BC00BE16BF50F00B0109BF6E01C0BCFFBD8E08
:1050CC0085948598839E879C7D947D987B9E7F9C00
:1050DC00000EA36E000EA06EA48EA18E0A0E0E0101
:1050EC00746F0B0E696F6DEC2AF082EC2AF055ECA4
:1050FC002AF012000E0EF66E550EF76E000EF86EBC
:10510C0001EEE8F010EE07F00900F5CFEEFFE550E8
:10511C00E150FAE102EE00F03C0EEE6AE806FDE129
:10512C0001EE78F0700EEE6AE806FDE100EEEAF0B2
:10513C00110EEE6AE806FDE100013EEF24F0000ED0
:10514C001E1A000E1F1A000E201A800E211A1AC0E9
:10515C0001F01BC002F01CC003F01DC004F01EC007
:10516C0005F01FC006F020C007F021C008F09BEC32
:10517C0015F001C01AF002C01BF003C01CF004C0F3
:10518C001DF01200000E106E000E0F6ED9EF28F0FD
:10519C000EC001F0026A0CC003F00DC004F0A6ECC6
:1051AC0024F00F4A102A0F500A24D96E10500B20ED
:1051BC00DA6EDF500E6E0E50D8A4E7EF28F0E9EF50
:1051CC0028F0CEEF28F01200036EC8EC29F00E0187
:1051DC00DA87C8EC29F0D5CE04F0C8EC29F00350DE
:1051EC00D8B4FBEF28F0FFEF28F0026A022A00EF98
:1051FC0029F0026A023A02460E01DA510218DF0B5C
:10520C000218DA6FDA890450120014BE18EF29F074
:10521C00145006E11304D8B016EF29F018EF29F05A
:10522C0026EF29F013C015F014C016F0151E161E2B
:10523C00154A162A15C013F016C014F02AEF29F0DF
:10524C0013C013F014C014F01200B3EC29F0010ECB
:10525C00036E000E00EC2AF03F0E056E550EE82E84
:10526C00FED7052EFCD700F0030E036E000E00ECEB
:10527C002AF0D50E036E010E00EC2AF060EC2AF039
:10528C001200BF0E036EFF0E046E01C005F002C0CB
:10529C0006F0035005260450062206500AE11A0EA9
:1052AC00055CD8A05CEF29F05FEF29F0010E60EFF0
:1052BC0029F0000E016E026A120001500210031058
:1052CC000410D8B46CEF29F06EEF29F076EF29F0CA
:1052DC00000E011A000E021A000E031A800E041A98
:1052EC0001C001F002C002F003C003F004C004F0DE
:1052FC001200D00E036EFF0E046E01C005F002C04A
:10530C0006F0035005260450062206500AE10A0E48
:10531C00055CD8A094EF29F097EF29F0010E98EFD7
:10532C0029F0000E016E026A1200A6EF29F002C0ED
:10533C00D9FF03C0DAFFDF503DEC2AF0024A032A02
:10534C0002C0D9FF03C0DAFFDF50D8A4B0EF29F0B8
:10535C00B2EF29F09DEF29F012000E01D951F00B9C
:10536C000809D96FD98B9F0ED66F848A848CA79B22
:10537C00A79D1D0E1D6F1E0E1C6F1C0E6F6F1B0E3E
:10538C00706F12000E01D8B5CEEF29F0D0EF29F0D6
:10539C00C8EF29F0DACE01F01F0E0116D8A4D9EF10
:1053AC0029F0DBEF29F0C8EF29F0120001500302BD
:1053BC00F3CF05F0F4CF06F001500402F3500626AB
:1053CC0002500302F350062605C001F006C002F09D
:1053DC001200016E01B002D07F9201D07F8201B029
:1053EC0002D0799801D0798801B002D07E9E01D08C
:1053FC007E8E1200046E78EC2AF0520E67EC2AF0C6
:10540C000450800967EC2AF0035067EC2AF073EC27
:10541C002AF0120049EC2AF0026EC80E026019EF55
:10542C002AF01BEF2AF01EEF2AF07C8E1FEF2AF0D9
:10543C007C9E1200120E0E01626F110E156F83828C
:10544C00E997E895330EE56F000EE66FE789E88B78
:10545C00E78F1200868C0E01B48D0F015899FC0E4B
:10546C0058172E0E5F6F60946088608E1200016E6C
:10547C000E0137A544EF2AF046EF2AF03EEF2AF052
:10548C0001C0E4FE1200608060B04FEF2AF051EFD3
:10549C002AF04AEF2AF064CF01F0015012008892F2
:1054AC00849684988690889080927C967C987E9046
:1054BC008090120087928198869E000EEFEC29F066
:1054CC001200026EC8EC29F002C0D5FE12008684D0
:1054DC0086860E01B495B4971200C8EC29F00E0123
:1054EC00DA851200C8EC29F00E01DA811200C8EC42
:1054FC0029F00E01DA831200849E88967C9E809699
:09550C001200286E756C6C290078
:02551600120081
:020000040020DA
:10000000FF0FFF0FFF0FFF0FFF0FFF0FFF0FFF0F80
:020000040030CA
:0C000000AAFFFFFF9FFFFFFFFFFFFFFFB5
:00000001FF
