:04000000D7EF28F01E
:100E000000524742433A2025692025692025692060
:100E100025692020202020524742435F72656C3AAA
:100E200020252E336620252E336620252E3366207E
:100E300020202020436F6C6F75723A2025730A0DB5
:100E400000494E46004E414E00696E66006E616E6E
:050E5000006C660000CB
:100E5600000E00017B6F000E7A6F30C08CF031C03F
:100E66008DF032C08EF033C08FF08FBF3FEF07F0AA
:100E76003DEF07F055EF07F0000E7B6F010E7A6F1E
:100E86008CC001F08DC002F08EC003F08FC004F05C
:100E9600F5EC2BF001C08CF002C08DF003C08EF093
:100EA60004C08FF0000E0001936F000E926FECC02D
:100EB6007EF0EDC07FF07A517B11D8A465EF07F084
:100EC60067EF07F06EEF07F0F0A56CEF07F06EEF37
:100ED60007F088EF07F07A517B11D8A475EF07F079
:100EE60077EF07F07DEF07F0000E616F2B0E606F56
:100EF60081EF07F0000E616F2D0E606F60C050F23B
:100F0600924B932B7E07D8A07F078CC001F08DC033
:100F160002F08EC003F08FC004F0CDEC23F0010484
:100F26000210D8A499EF07F09BEF07F0F2EF07F055
:100F3600BF0E356EFF0E366E3450376E386A35503A
:100F460037263650382238500AE11A0E375CD8A0B8
:100F5600AFEF07F0B2EF07F0010EB3EF07F0000EA8
:100F66000001626F636B62516311D8B4BDEF07F085
:100F7600BFEF07F0CDEF07F0500E9225016E020E7F
:100F86009321026E410E036E0E0E046E6FEC29F075
:100F9600D9EF07F0500E9225016E020E9321026ED4
:100FA600490E036E0E0E046E6FEC29F00001FD0E65
:100FB6007E27FF0E7F232EC011F02FC012F0500E99
:100FC600136E020E146E7EC015F07FC016F08CEC08
:100FD60026F011C02EF012C02FF056EF0DF08CC087
:100FE60001F08DC002F08EC003F08FC004F0CDEC8E
:100FF60023F001500210D8A403EF08F005EF08F023
:1010060045EF08F0BF0E356EFF0E366E3450376E64
:10101600386A355037263650382238500AE11A0ECB
:10102600375CD8A019EF08F01CEF08F0010E1DEF91
:1010360008F0000E0001646F656B64516511D8B449
:1010460027EF08F029EF08F037EF08F0500E922549
:10105600016E020E9321026E450E036E0E0E046E95
:101066006FEC29F0D9EF07F0500E9225016E020EB3
:101076009321026E4D0E036E0E0E046E6FEC29F078
:10108600D9EF07F0000E0001946F000E956F800EE9
:10109600966F3F0E976F000E916F000E906F8CC08B
:1010A60001F08DC002F08EC003F08FC004F0000E78
:1010B600056E000E066E000E076E000E086EA9EC99
:1010C60027F0D8B069EF08F06BEF08F0EEEF08F004
:1010D6008AEF08F094C001F095C002F096C003F0C4
:1010E60097C004F0000E056E000E066E200E076E09
:1010F600410E086E81EC16F001C094F002C095F026
:1011060003C096F004C097F00001904B912B8CC061
:101116001AF08DC01BF08EC01CF08FC01DF0000EA3
:10112600056E000E066E200E076E410E086E94C008
:1011360001F095C002F096C003F097C004F081EC70
:1011460016F001C01EF002C01FF003C020F004C05C
:1011560021F04BEC23F0D8B0B3EF08F0B5EF08F070
:101166006DEF08F0D5EF08F094C001F095C002F0DD
:1011760096C003F097C004F0000E056E000E066ED2
:10118600200E076E410E086E96EC18F001C094F022
:1011960002C095F003C096F004C097F000019007D6
:1011A600D8A091078CC01AF08DC01BF08EC01CF021
:1011B6008FC01DF094C01EF095C01FF096C020F0A1
:1011C60097C021F04BEC23F0D8A0ECEF08F0EEEF3F
:1011D60008F0B7EF08F034C007F0086A3FEC29F0D2
:1011E60007500001816F81C080F0670E8119D8A475
:1011F600FFEF08F001EF09F027EF09F0EE51EF11CC
:10120600D8A408EF09F00AEF09F00EEF09F0000E76
:10121600EF6F010EEE6FEFBF1BEF09F0EF5106E126
:10122600EE05D8B019EF09F01BEF09F021EF09F030
:10123600000E7D6F060E7C6F30EF09F0EEC07CF07D
:10124600EFC07DF030EF09F0EFBF2CEF09F02EEF85
:1012560009F01BEF09F021EF09F0670E8119D8A4F8
:1012660037EF09F039EF09F068EF09F091AF47EF72
:1012760009F0FC0E905DFF0E9159D8A045EF09F0DC
:1012860047EF09F066EF09F0FF0E356EFF0E366E7A
:101296007CC037F07DC038F03550372636503822BE
:1012A6009051375C3850800A396E9151800A39580E
:1012B600D8A060EF09F062EF09F066EF09F0660E5C
:1012C600806F68EF09F0650E806F7CC072F07DC09C
:1012D60073F0670E8119D8A473EF09F075EF09F062
:1012E60085EF09F0660E8019D8A47CEF09F07EEF31
:1012F60009F087EF09F091BF85EF09F083EF09F058
:1013060087EF09F0724B732B660E8019D8A48EEF07
:1013160009F090EF09F0B0EF09F091BF97EF09F0EF
:1013260095EF09F0A3EF09F0000E946F000E956F8C
:10133600800E966F3F0E976F000E916F000E906FA6
:10134600670E8119D8B4AAEF09F0ACEF09F0B0EF37
:1013560009F09051722791517323000E8B6F000E86
:101366008A6F8CC082F08DC083F08EC084F08FC0EF
:1013760085F094C074F095C075F096C076F097C06D
:1013860077F041EF0AF082C001F083C002F084C01A
:1013960003F085C004F094C005F095C006F096C031
:1013A60007F097C008F096EC18F001C01AF002C0DA
:1013B6001BF003C01CF004C01DF0F0EC1CF01AC0BA
:1013C60086F01BC087F01CC088F01DC089F086C05F
:1013D60001F087C002F088C003F089C004F0C8ECB1
:1013E60022F001C078F002C079F082C01AF083C002
:1013F6001BF084C01CF085C01DF094C005F095C09C
:1014060006F096C007F097C008F086C001F087C0C6
:1014160002F088C003F089C004F081EC16F001C028
:101426001EF002C01FF003C020F004C021F037EC0C
:101436002BF01AC082F01BC083F01CC084F01DC0C4
:1014460085F094C001F095C002F096C003F097C0F5
:1014560004F0000E056E000E066E200E076E410E9D
:10146600086E96EC18F001C094F002C095F003C027
:1014760096F004C097F000018A4B8B2B72518A5D5F
:101486008B51800A356E7351800A3558D8A04EEFBD
:101496000AF050EF0AF0C6EF09F094C001F095C0CB
:1014A60002F096C003F097C004F0000E056E000E21
:1014B600066EA00E076E400E086E81EC16F001C097
:1014C60086F002C087F003C088F004C089F082C0AD
:1014D6001AF083C01BF084C01CF085C01DF086C0C6
:1014E6001EF087C01FF088C020F089C021F04BECA9
:1014F60023F0D8B081EF0AF083EF0AF08EEF0AF0FE
:10150600000E0001866F000E876F000E886F000EBA
:10151600896FB7EF0AF082C001F083C002F084C081
:1015260003F085C004F086C005F087C006F088C0C9
:1015360007F089C008F0A9EC27F0D8A0A5EF0AF0BB
:10154600A7EF0AF0B7EF0AF0000178B1ADEF0AF0A5
:10155600AFEF0AF0B7EF0AF0000E866F000E876F46
:10156600000E886F000E896F8CC001F08DC002F0EE
:101576008EC003F08FC004F086C005F087C006F069
:1015860088C007F089C008F021EC14F001C082F091
:1015960002C083F003C084F004C085F082C01AF054
:1015A60083C01BF084C01CF085C01DF0000E056EC4
:1015B600000E066E200E076E410E086E74C001F016
:1015C60075C002F076C003F077C004F081EC16F027
:1015D60001C01EF002C01FF003C020F004C021F0BD
:1015E6004BEC23F0D8A0FAEF0AF0FCEF0AF025EF57
:1015F6000BF00001904B912B74C001F075C002F006
:1016060076C003F077C004F0000E056E000E066E7D
:10161600200E076E410E086E81EC16F001C074F0C4
:1016260002C075F003C076F004C077F0660E0001C4
:101636008019D8A421EF0BF023EF0BF025EF0BF068
:10164600724B732B74C094F075C095F076C096F00B
:1016560077C097F0650E00018019D8B435EF0BF00E
:1016660037EF0BF03DEF0BF090C070F091C071F0CA
:1016760041EF0BF0000E716F000E706F000E6F6F72
:10168600000E6E6F000E6D6F000E6C6F000E8B6F8E
:10169600000E8A6F3CEF0CF082C001F083C002F0AE
:1016A60084C003F085C004F094C005F095C006F030
:1016B60096C007F097C008F096EC18F001C01AF033
:1016C60002C01BF003C01CF004C01DF0F0EC1CF0BF
:1016D6001AC086F01BC087F01CC088F01DC089F0B8
:1016E60086C001F087C002F088C003F089C004F00C
:1016F600C8EC22F001C078F002C079F00001F0B920
:1017060087EF0BF089EF0BF0A6EF0BF0785179110C
:10171600D8A490EF0BF092EF0BF0A6EF0BF0670E4C
:101726008119D8A499EF0BF09BEF0BF0A6EF0BF005
:1017360071BFA2EF0BF0A0EF0BF0A6EF0BF06C4B16
:101746006D2BF0EF0BF06E516F11D8A4ADEF0BF0CF
:10175600AFEF0BF0D9EF0BF071BFB6EF0BF0B4EFB4
:101766000BF0D9EF0BF0500E9225D96E020E932195
:10177600DA6E2E0EDF6E924B932B7E07D8A07F0774
:10178600000E6F6F010E6E6FD9EF0BF0500E9225A3
:10179600D96E020E9321DA6E300EDF6E924B932BCA
:1017A6007E07D8A07F076C07D8A06D076C516D1116
:1017B600D8A4E0EF0BF0E2EF0BF0C9EF0BF0500E00
:1017C6009225D96E020E9321DA6E7851300FDF6EB4
:1017D600924B932B7E07D8A07F0782C01AF083C056
:1017E6001BF084C01CF085C01DF094C005F095C0A8
:1017F60006F096C007F097C008F086C001F087C0D3
:1018060002F088C003F089C004F081EC16F001C034
:101816001EF002C01FF003C020F004C021F037EC18
:101826002BF01AC082F01BC083F01CC084F01DC0D0
:1018360085F094C001F095C002F096C003F097C001
:1018460004F0000E056E000E066E200E076E410EA9
:10185600086E96EC18F001C094F002C095F003C033
:1018660096F004C097F000017007D8A071078A4B64
:101876008B2B72518A5D8B51800A356E7351800AAB
:101886003558D8B049EF0CF04BEF0CF059EF0CF08F
:1018960093BF57EF0CF0935109E14B0E925DD8A020
:1018A60057EF0CF059EF0CF04FEF0BF06E516F1134
:1018B600D8A460EF0CF062EF0CF073EF0CF0F0A917
:1018C60067EF0CF069EF0CF073EF0CF0500E9225F9
:1018D600D96E020E9321DA6E2E0EDF6E924B932B8B
:1018E600500E9225D96E020E9321DA6E000EDF6E2F
:1018F600650E8019D8A482EF0CF084EF0CF0DEEFB1
:1019060007F0000E8B6F4F0E8A6F500E8A25D96E28
:10191600020E8B21DA6E000EDF6E000E7B6F000E5C
:101926007A6F91BF9BEF0CF099EF0CF0A3EF0CF0E0
:10193600000E7B6F010E7A6F906D911FD8B0912BC0
:10194600000E7D6F020E7C6FD4EF0CF08A07D8A0D4
:101956008B07500E8A25D96E020E8B21DA6E90C047
:1019660001F091C002F0000E046E0A0E036E51ECF7
:1019760027F00150300FDF6E90C007F091C008F0DD
:10198600000E0A6E0A0E096EEFEC26F007C090F004
:1019960008C091F000017C07D8A07D077E07D8A07B
:1019A6007F0790519111D8A4DBEF0CF0DDEF0CF01E
:1019B600A9EF0CF07DBFEAEF0CF07D5106E17C0546
:1019C600D8B0E8EF0CF0EAEF0CF0A9EF0CF08A07BC
:1019D600D8A08B077A517B11D8A4F4EF0CF0F6EF60
:1019E6000CF0FCEF0CF0000E676F2B0E666F00EF2D
:1019F6000DF0000E676F2D0E666F500E8A25D96E9C
:101A0600020E8B21DA6E66C0DFFF7E07D8A07F0745
:101A16008A07D8A08B07BF0E356EFF0E366E345080
:101A2600376E386A355037263650382238500AE134
:101A36001A0E375CD8A022EF0DF025EF0DF0010E3F
:101A460026EF0DF0000E6A6F6B6B6A516B11D8A40E
:101A56002FEF0DF031EF0DF037EF0DF0000E696F3F
:101A6600650E686F3BEF0DF0000E696F450E686FEF
:101A7600500E8A25D96E020E8B21DA6E68C0DFFF02
:101A86007E07D8A07F07500E9225016E020E932185
:101A9600026E500E8A25036E020E8B21046E6FECC9
:101AA60029F0DEEF07F012008EB45CEF0DF05EEF6A
:101AB6000DF057EF0DF0F29ECAC00CF0CBC00DF042
:101AC6009EEC29F0CAC0D9FFCBC0DAFFDECFCCF03E
:101AD600DDCFCDF0CCC001F0CDC002F0036A046AC0
:101AE600000EE3EC1EF001C0A0F102C0A1F103C09C
:101AF600A2F104C0A3F1000120EE02F0CA51D926DA
:101B0600CB51DA22DECFCCF0DDCFCDF0CCC001F068
:101B1600CDC002F0036A046A000EE3EC1EF001C0B9
:101B2600A4F102C0A5F103C0A6F104C0A7F100010B
:101B360020EE04F0CA51D926CB51DA22DECFCCF002
:101B4600DDCFCDF0CCC001F0CDC002F0036A046A4F
:101B5600000EE3EC1EF001C0A8F102C0A9F103C01B
:101B6600AAF104C0ABF1000120EE06F0CA51D92655
:101B7600CB51DA22DECFCCF0DDCFCDF0CCC001F0F8
:101B8600CDC002F0036A046A000EE3EC1EF001C049
:101B9600ACF102C0ADF103C0AEF104C0AFF1A0C11B
:101BA60001F0A1C102F0A2C103F0A3C104F0ACC1CF
:101BB60005F0ADC106F0AEC107F0AFC108F096EC76
:101BC60018F001C0B0F102C0B1F103C0B2F104C017
:101BD600B3F1A4C101F0A5C102F0A6C103F0A7C1EB
:101BE60004F0ACC105F0ADC106F0AEC107F0AFC15F
:101BF60008F096EC18F001C0B4F102C0B5F103C0CC
:101C0600B6F104C0B7F1A8C101F0A9C102F0AAC19A
:101C160003F0ABC104F0ACC105F0ADC106F0AEC136
:101C260007F0AFC108F096EC18F001C0B8F102C099
:101C3600B9F103C0BAF104C0BBF1710E1A6E3D0EC4
:101C46001B6E0A0E1C6E3F0E1D6EB0C11EF0B1C19A
:101C56001FF0B2C120F0B3C121F04BEC23F0D8B095
:101C660037EF0EF039EF0EF075EF0EF0B4C11AF043
:101C7600B5C11BF0B6C11CF0B7C11DF0480E1E6EF3
:101C8600E10E1F6E7A0E206E3E0E216E4BEC23F097
:101C9600D8B050EF0EF052EF0EF075EF0EF0B8C15F
:101CA6001AF0B9C11BF0BAC11CF0BBC11DF0EC0E95
:101CB6001E6E510E1F6E380E206E3E0E216E4BECC0
:101CC60023F0D8B069EF0EF06BEF0EF075EF0EF063
:101CD600EFC19BF1F0C19CF1F1C19DF1F2C19EF102
:101CE600D8EF10F0B0C11AF0B1C11BF0B2C11CF0B0
:101CF600B3C11DF0520E1E6EB80E1F6EDE0E206EA4
:101D06003E0E216E4BEC23F0D8B08CEF0EF08EEF2A
:101D16000EF0CBEF0EF0520E1A6EB80E1B6E9E0E24
:101D26001C6E3E0E1D6EB4C11EF0B5C11FF0B6C1CD
:101D360020F0B7C121F04BEC23F0D8B0A5EF0EF0A0
:101D4600A7EF0EF0CBEF0EF0140E1A6EAE0E1B6E52
:101D5600470E1C6E3E0E1D6EB8C11EF0B9C11FF0B7
:101D6600BAC120F0BBC121F04BEC23F0D8B0BEEFD6
:101D76000EF0C0EF0EF0CBEF0EF021EEDFF011EE1D
:101D860085F0050EDBCFE3FFE806FCE2D8EF10F0A6
:101D9600B0C11AF0B1C11BF0B2C11CF0B3C11DF045
:101DA600F60E1E6E280E1F6EDC0E206E3E0E216E87
:101DB6004BEC23F0D8B0E2EF0EF0E4EF0EF021EF9B
:101DC6000FF09A0E1A6E990E1B6E990E1C6E3E0E31
:101DD6001D6EB4C11EF0B5C11FF0B6C120F0B7C16B
:101DE60021F04BEC23F0D8B0FBEF0EF0FDEF0EF038
:101DF60021EF0FF03D0E1A6E0A0E1B6E570E1C6E6B
:101E06003E0E1D6EB8C11EF0B9C11FF0BAC120F05A
:101E1600BBC121F04BEC23F0D8B014EF0FF016EF56
:101E26000FF021EF0FF021EEEAF011EE91F0040E23
:101E3600DBCFE3FFE806FCE2D8EF10F0480E1A6E9F
:101E4600E10E1B6EFA0E1C6E3E0E1D6EB0C11EF02C
:101E5600B1C11FF0B2C120F0B3C121F04BEC23F0A9
:101E6600D8B038EF0FF03AEF0FF077EF0FF0850E9E
:101E76001A6EEB0E1B6E910E1C6E3E0E1D6EB4C1DD
:101E86001EF0B5C11FF0B6C120F0B7C121F04BEC72
:101E960023F0D8B051EF0FF053EF0FF077EF0FF0BC
:101EA600EC0E1A6E510E1B6E380E1C6E3E0E1D6E1B
:101EB600B8C11EF0B9C11FF0BAC120F0BBC121F0F4
:101EC6004BEC23F0D8B06AEF0FF06CEF0FF077EF22
:101ED6000FF021EED2F011EE77F0060EDBCFE3FF26
:101EE600E806FCE2D8EF10F0480E1A6EE10E1B6E03
:101EF600FA0E1C6E3E0E1D6EB0C11EF0B1C11FF073
:101F0600B2C120F0B3C121F04BEC23F0D8B08EEF74
:101F16000FF090EF0FF0CDEF0FF0B4C11AF0B5C18E
:101F26001BF0B6C11CF0B7C11DF0CD0E1E6ECC0E57
:101F36001F6E8C0E206E3E0E216E4BEC23F0D8B039
:101F4600A7EF0FF0A9EF0FF0CDEF0FF0140E1A6EFA
:101F5600AE0E1B6E470E1C6E3E0E1D6EB8C11EF0F9
:101F6600B9C11FF0BAC120F0BBC121F04BEC23F080
:101F7600D8B0C0EF0FF0C2EF0FF0CDEF0FF021EEAB
:101F8600E5F011EE96F0040EDBCFE3FFE806FCE287
:101F9600D8EF10F0710E1A6E3D0E1B6E0A0E1C6EF7
:101FA6003F0E1D6EB0C11EF0B1C11FF0B2C120F0D0
:101FB600B3C121F04BEC23F0D8B0E4EF0FF0E6EF1D
:101FC6000FF023EF10F0B4C11AF0B5C11BF0B6C183
:101FD6001CF0B7C11DF08F0E1E6EC20E1F6E750E61
:101FE600206E3E0E216E4BEC23F0D8B0FDEF0FF0C5
:101FF600FFEF0FF023EF10F0B8C11AF0B9C11BF0D4
:10200600BAC11CF0BBC11DF0EC0E1E6E510E1F6E48
:10201600380E206E3E0E216E4BEC23F0D8B016EF34
:1020260010F018EF10F023EF10F021EECBF011EEC8
:102036007EF0060EDBCFE3FFE806FCE2D8EF10F0F9
:10204600B0C11AF0B1C11BF0B2C11CF0B3C11DF092
:10205600AE0E1E6E470E1F6EE10E206E3E0E216EF8
:102066004BEC23F0D8B03AEF10F03CEF10F079EFDC
:1020760010F0F60E1A6E280E1B6E9C0E1C6E3E0E8F
:102086001D6EB4C11EF0B5C11FF0B6C120F0B7C1B8
:1020960021F04BEC23F0D8B053EF10F055EF10F0D1
:1020A60079EF10F03D0E1A6E0A0E1B6E570E1C6E5F
:1020B6003E0E1D6EB8C11EF0B9C11FF0BAC120F0A8
:1020C600BBC121F04BEC23F0D8B06CEF10F06EEFF3
:1020D60010F079EF10F022EEA0F011EE64F00A0E87
:1020E600DBCFE3FFE806FCE2D8EF10F0B0C11AF050
:1020F600B1C11BF0B2C11CF0B3C11DF01F0E1E6EA4
:10210600850E1F6EEB0E206E3E0E216E4BEC23F0FD
:10211600D8B090EF10F092EF10F0CFEF10F03D0E28
:102126001A6E0A0E1B6E970E1C6E3E0E1D6EB4C105
:102136001EF0B5C11FF0B6C120F0B7C121F04BECBF
:1021460023F0D8B0A9EF10F0ABEF10F0CFEF10F0FE
:102156003D0E1A6E0A0E1B6E570E1C6E3E0E1D6E3F
:10216600B8C11EF0B9C11FF0BAC120F0BBC121F041
:102176004BEC23F0D8B0C2EF10F0C4EF10F0CFEF65
:1021860010F021EED9F011EE8BF0050EDBCFE3FF58
:10219600E806FCE2D8EF10F021EEBCF011EE6FF08D
:1021A600070EDBCFE3FFE806FCE2000E0001A06F9E
:1021B600010EA16F010EA26F0E0EA36FA0C1A4F0B7
:1021C600A1C1A5F0A2C1A6F0A3C1A7F0A4C1A8F021
:1021D600A5C1A9F0A6C1AAF0A7C1ABF0A8C1ACF0F1
:1021E600A9C1ADF0AAC1AEF0ABC1AFF0ACC1B0F0C1
:1021F600ADC1B1F0AEC1B2F0AFC1B3F0B0C1B4F091
:10220600B1C1B5F0B2C1B6F0B3C1B7F0B4C1B8F060
:10221600B5C1B9F0B6C1BAF0B7C1BBF0B8C1BCF030
:10222600B9C1BDF0BAC1BEF0BBC1BFF09FC1C0F01D
:10223600C16BCDEC29F0000E026E010E036E64EC4C
:102246002CF0290E0001CD6F960ECC6F7F0EE82E76
:10225600FED7CC2FFCD7CD2FFAD7F28E120042C074
:10226600D9FF43C0DAFFDECFF6FFDDCFF7FF000E62
:10227600F86E0800F550250AD8A444EF11F046EF91
:1022860011F003EF14F042C0D9FF43C0DAFFDE2A93
:10229600000EDD22000E0001ED6F000EEC6FECC0AB
:1022A600F0F0EDC0F1F0EE69EF6942C0D9FF43C02E
:1022B600DAFFDECFF6FFDDCFF7FF000EF86E08007F
:1022C600F5502E0AD8A46AEF11F06CEF11F0EDEF7D
:1022D60011F0000EEF6F000EEE6F42C0D9FF43C043
:1022E600DAFFDE2A000EDD2242C0D9FF43C0DAFF44
:1022F600DECFF6FFDDCFF7FF000EF86E0800F550D3
:102306002A0AD8A489EF11F08BEF11F0A8EF11F08B
:1023160042C0D9FF43C0DAFFDE2A000EDD2244C0E8
:10232600D9FF45C0DAFFDFCF46F0020EDE26DFCF4B
:1023360047F0000EDD2246C0D9FF47C0DAFFDECFE8
:10234600EEF0DDCFEFF0EDEF11F042C0D9FF43C064
:10235600DAFFDECF08F0DDCF09F0BDEC1FF008C0D4
:10236600EEF009C0EFF0BFEF11F042C0D9FF43C055
:10237600DAFFDE2A000EDD22D00E466EFF0E476E15
:1023860042C0D9FF43C0DAFFDECFF6FFDDCFF7FF4D
:10239600000EF86E0800F550486E496A4650482609
:1023A6004750492249500AE10A0E485CD8A0DEEFA0
:1023B60011F0E1EF11F0010EE2EF11F0000E546E94
:1023C600556A54505510D8A4EBEF11F0EDEF11F00B
:1023D600B8EF11F042C0D9FF43C0DAFFDECFF6FFF7
:1023E600DDCFF7FF000EF86E0800F550076E086A9D
:1023F6003FEC29F007505C6E5C50D8B405EF12F044
:1024060007EF12F043EF12F042C0D9FF43C0DAFFE4
:10241600DECF46F0DDCF47F0010E4626000E4722FE
:1024260046C0F6FF47C0F7FF000EF86E0800F550ED
:10243600076E086A3FEC29F007505D6E5D50D8B410
:1024460027EF12F029EF12F043EF12F042C0D9FF46
:1024560043C0DAFFDECF46F0DDCF47F0020E462658
:10246600000E472246C0F6FF47C0F7FF000EF86E83
:102476000800F550076E086A3FEC29F007505E6EBB
:1024860042C0D9FF43C0DAFFDECFF6FFDDCFF7FF4C
:10249600000EF86E0800F550640AD8B455EF12F035
:1024A60057EF12F06BEF12F042C0D9FF43C0DAFFCC
:1024B600DECFF6FFDDCFF7FF000EF86E0800F55011
:1024C600690AD8A469EF12F06BEF12F0ABEF12F0C5
:1024D60042C0D9FF43C0DAFFDE2A000EDD2244C027
:1024E600D9FF45C0DAFFDFCF46F0020EDE26DFCF8A
:1024F60047F0000EDD2246C0D9FF47C0DAFFDECF27
:102506004AF0DDCF4BF0000E4BBEFF0E4C6E4D6E0B
:102516004E6E4F6E506E516E40C01CF041C01DF0A5
:102526004AC01EF04BC01FF04CC020F04DC021F039
:102536004EC022F04FC023F050C024F051C025F009
:1025460063EC1AF01CC040F01DC041F020EF14F0FF
:10255600660E5C18D8A4B2EF12F0B4EF12F0F6EFE4
:1025660012F042C0D9FF43C0DAFFDECFF6FFDDCF5F
:10257600F7FF000EF86E0800F5CF5FF042C0D9FFF6
:1025860043C0DAFFDE2A000EDD2244C0D9FF45C073
:10259600DAFFDFCF46F0040EDE26DFCF47F0000E6F
:1025A600DD2246C0D9FF47C0DAFFDECF58F0DECFC6
:1025B60059F0DECF5AF0DECF5BF040C02EF041C0BE
:1025C6002FF058C030F059C031F05AC032F05BC01D
:1025D60033F05FC034F02BEC07F02EC040F02FC074
:1025E60041F020EF14F05C0E016E000E026E510EEB
:1025F600036E0E0E046E000E066E020E056EB6EC2F
:1026060025F001500210D8A40BEF13F00DEF13F0D4
:102616008CEF13F042C0D9FF43C0DAFFDECF46F09D
:10262600DDCF47F0010E4626000E472246C0F6FFD4
:1026360047C0F7FF000EF86E0800F5CF5FF0BF0E3B
:10264600466EFF0E476E42C0D9FF43C0DAFFDECFAB
:10265600F6FFDDCFF7FF000EF86E0800F550486E66
:10266600496A465048264750492249500AE11A0EFF
:10267600485CD8A041EF13F044EF13F0010E45EF8C
:1026860013F0000E566E576A56505710D8B44EEFD8
:1026960013F050EF13F06AEF13F044C0D9FF45C0B2
:1026A600DAFFDFCF46F0040EDE26DFCF47F0000E5E
:1026B600DD2246C0D9FF47C0DAFFDECF58F0DECFB5
:1026C60059F0DECF5AF0DECF5BF082EF13F044C054
:1026D600D9FF45C0DAFFDFCF46F0040EDE26DFCF96
:1026E60047F0000EDD2246C0D9FF47C0DAFFDECF35
:1026F60058F0DECF59F0DECF5AF0DECF5BF0020E97
:1027060042C0D9FF43C0DAFFDE26000EDD22E0EF2D
:1027160012F042C0D9FF43C0DAFFDECFF6FFDDCFAD
:10272600F7FF000EF86E0800F550730AD8A49EEF66
:1027360013F0A0EF13F0CBEF13F042C0D9FF43C064
:10274600DAFFDE2A000EDD2244C0D9FF45C0DAFFDB
:10275600DFCF46F0020EDE26DFCF47F0000EDD2289
:1027660046C0D9FF47C0DAFFDECF52F0DDCF53F0C7
:1027760040C00AF041C00BF052C00CF053C00DF03F
:1027860053EC21F00AC040F00BC041F020EF14F0EA
:1027960042C0D9FF43C0DAFFDECFF6FFDDCFF7FF39
:1027A600000EF86E0800F550250AD8A4DDEF13F0E8
:1027B600DFEF13F0F6EF13F042C0D9FF43C0DAFFA4
:1027C600DE2A000EDD22000E026E250E016E40C0CE
:1027D60003F041C004F027EC26F0000E416E010E16
:1027E600406E20EF14F042C0D9FF43C0DAFFDE2A64
:1027F600000EDD22000E416E000E406E20EF14F03A
:1028060042C0D9FF43C0DAFFDECFF6FFDDCFF7FFC8
:10281600000EF86E0800F550016E026A40C003F023
:1028260041C004F027EC26F042C0D9FF43C0DAFFCE
:10283600DE2A000EDD22F0EF13F012000450800BAA
:102846000D6E045004240F6E03AE2CEF14F02EEF21
:1028560014F02FEF14F00F800F50D8B435EF14F0AA
:1028660037EF14F04CEF14F00F28D8A43DEF14F016
:102876003FEF14F047EF14F0000E016E000E026EEB
:10288600000E036E000E046E038E000E046E54EFEF
:1028960014F0000E016E000E026E000E036E000EA6
:1028A600046E0850800B0E6E0D500E18D8B45EEFF5
:1028B60014F060EF14F061EF14F00D8C085008244A
:1028C6000E6E07AE69EF14F06BEF14F06CEF14F0B8
:1028D6000E800E50D8B472EF14F074EF14F089EF36
:1028E60014F00E28D8A47AEF14F07CEF14F084EFDD
:1028F60014F0000E056E000E066E000E076E000E3A
:10290600086E078E000E086E91EF14F0000E056E2D
:10291600000E066E000E076E000E086E0F500E5C5F
:10292600D8B098EF14F09AEF14F0C1EF14F00DAC94
:102936009FEF14F0A1EF14F0A3EF14F0800E0D1A20
:102946000FC010F00EC00FF010C00EF001C010F056
:1029560005C001F010C005F002C010F006C002F07C
:1029660010C006F003C010F007C003F010C007F057
:1029760004C010F008C004F010C008F0000E106E7D
:102986000F500EC009F00A6A095E000E0A5A0ABE06
:10299600D6EF14F00A5009E11A0E095CD8A0D6EF5A
:1029A60014F0D8EF14F00FEF15F0015002100310D9
:1029B6000410D8A4E1EF14F0E4EF14F0010EE5EFF3
:1029C60014F0000E106E000E016E000E026E000E68
:1029D600036E000E046E0EC00FF018EF15F010A077
:1029E600F7EF14F0F9EF14F0FFEF14F0D890103071
:1029F6000109106E01EF15F0D890103201A006EF14
:102A060015F008EF15F009EF15F0108E04340432B6
:102A16000332023201320F2A0E500F5CD8A016EF95
:102A260015F018EF15F0F2EF14F00DBC1DEF15F0D0
:102A36001FEF15F05FEF15F00F50D8A425EF15F036
:102A460027EF15F031EF15F0000E016E000E026E45
:102A5600000E036E000E046E80EF16F00550012680
:102A660006500222075003220850042204A03EEF1B
:102A760015F040EF15F0ECEF15F010A045EF15F04E
:102A860047EF15F04DEF15F0D89010300109106E94
:102A96004FEF15F0D890103201A054EF15F056EF15
:102AA60015F057EF15F0108E04340432033202325B
:102AB60001320F2AECEF15F00550015C0650025862
:102AC600075003580450800A096E0850800A0958B6
:102AD600D8B070EF15F072EF15F09DEF15F00150BC
:102AE600055C096E025006580A6E035007580B6EB5
:102AF600045008580C6EFF0E0924016EFF0E0A20C2
:102B0600026EFF0E0B20036EFF0E0C20046E800E6D
:102B16000D1A106C1050D8A493EF15F095EF15F020
:102B2600A5EF15F0010E0126000E02220322042253
:102B3600A5EF15F00550015E0650025A0750035ADC
:102B46000850045A0150021003100410D8A4AEEF26
:102B560015F0B0EF15F0E5EF15F01050D8A4B6EF6C
:102B660015F0B8EF15F0E5EF15F0000E016E000E4A
:102B7600026E000E036E000E046E80EF16F0D89003
:102B8600013602360336043610AECCEF15F0CEEF22
:102B960015F0CFEF15F0018010A0D4EF15F0D6EFA9
:102BA60015F0DAEF15F0D8801036DCEF15F0D89076
:102BB60010360F50D8B4E2EF15F0E4EF15F0E5EF5C
:102BC60015F00F0603AEEAEF15F0ECEF15F0C2EFC5
:102BD60015F0000E0E6E10AEF3EF15F0F5EF15F0D2
:102BE6000DEF16F010C009F07F0E0916D8B4FEEFEF
:102BF60015F000EF16F004EF16F0010E0E6E0DEF55
:102C060016F001A009EF16F00BEF16F00DEF16F017
:102C160000EF16F00E50D8B413EF16F015EF16F0BD
:102C260040EF16F0010E0126000E022203220422B6
:102C360004A020EF16F022EF16F040EF16F001C0C8
:102C460009F002C00AF003C00BF004C00CF00C340B
:102C56000C320B320A32093209C001F00AC002F006
:102C66000BC003F00CC004F00F28D8B43DEF16F0EB
:102C76003FEF16F040EF16F00F2A0F28D8B446EFB4
:102C860016F048EF16F050EF16F00F50D8A44EEF9E
:102C960016F050EF16F062EF16F0000E016E000E01
:102CA600026E000E036E000E046E0F50D8A45EEF87
:102CB60016F060EF16F062EF16F0000E0D6E0FA024
:102CC60067EF16F069EF16F06CEF16F0038E6DEFF6
:102CD60016F0039ED8900F30046E0DAE75EF16F009
:102CE60077EF16F078EF16F0048E01C001F002C0FF
:102CF60002F003C003F004C004F012000450800B7D
:102D06000D6E04500424136E03AE8CEF16F08EEF96
:102D160016F08FEF16F013801350D8B495EF16F017
:102D260097EF16F0AAEF16F01328D8A49DEF16F029
:102D36009FEF16F0A7EF16F0000E016E000E026E62
:102D4600000E036E000E046E038EB2EF16F0000E38
:102D5600016E000E026E000E036E000E046E085029
:102D6600800B0D1A08500824126E07AEBDEF16F040
:102D7600BFEF16F0C0EF16F012801250D8B4C6EFAF
:102D860016F0C8EF16F0DBEF16F01228D8A4CEEF37
:102D960016F0D0EF16F0D8EF16F0000E056E000E06
:102DA600066E000E076E000E086E078EE3EF16F035
:102DB600000E056E000E066E000E076E000E086E03
:102DC6001250D8B4E9EF16F0EBEF16F0F3EF16F069
:102DD6001350D8A4F1EF16F0F3EF16F0FDEF16F04E
:102DE600000E016E000E026E000E036E000E046EE3
:102DF60095EF18F007500102F3CF18F0F4CF19F051
:102E060018500E6E0F6A106A116A1950146E156A00
:102E1600166A176A06500202F3CF18F0F4CF19F0BB
:102E260018500E26000E0F221022112219501426B9
:102E3600000E15221622172205500302F3CF18F0B2
:102E4600F4CF19F018500E26000E0F221022112270
:102E560019501426000E15221622172210C011F042
:102E66000FC010F00EC00FF00E6A05500202F3CF2D
:102E760018F0F4CF19F018500E2619500F22000E34
:102E86001022000E112206500102F3CF18F0F4CFE3
:102E960019F018500E2619500F22000E1022000E9F
:102EA600112210C011F00FC010F00EC00FF00E6A04
:102EB60005500102F3CF18F0F4CF19F018500E2682
:102EC60019500F22000E1022000E11220750020286
:102ED600F3CF18F0F4CF19F0185014261950152214
:102EE600000E1622000E172206500302F3CF18F02A
:102EF600F4CF19F01850142619501522000E162278
:102F0600000E172207500302F3CF18F0F4CF19F082
:102F16001850096E19500A6E0B6A0C6A0BC00CF039
:102F26000AC00BF009C00AF0096A095014260A50B3
:102F360015220B5016220C5017220EC009F00FC096
:102F46000AF010C00BF011C00CF0190EB0EF17F01C
:102F5600D8900C320B320A320932E82EABEF17F05A
:102F6600095014260A5015220B5016220C5017220F
:102F760010C011F00FC010F00EC00FF00E6A125004
:102F860013C009F00A6A0926000E0A22820E0924D5
:102F9600186EFF0E0A20196EE6EF17F0D890143659
:102FA60015361636173611AEDBEF17F0DDEF17F0D4
:102FB600DEEF17F01480D8900E360F361036113625
:102FC6001806D8A0190616AEEBEF17F0EDEF17F0BE
:102FD600D1EF17F0000E126E11AEF4EF17F0F6EF08
:102FE60017F01AEF18F0FF0E0E14096EFF0E0F14ED
:102FF6000A6EFF0E10140B6E7F0E11140C6E095024
:103006000A100B100C10D8B40BEF18F00DEF18F0D7
:1030160011EF18F0010E126E1AEF18F014A016EF49
:1030260018F018EF18F01AEF18F00DEF18F012500C
:10303600D8B420EF18F022EF18F046EF18F0010E82
:103046001426000E15221622172217A02DEF18F0AF
:103056002FEF18F046EF18F014C009F015C00AF06B
:1030660016C00BF017C00CF00C340C320B320A32BF
:10307600093209C014F00AC015F00BC016F00CC0D6
:1030860017F0184A192A19BE51EF18F0195008E11D
:103096001828D8A051EF18F053EF18F05DEF18F08C
:1030A600000E146E000E156E800E166E7F0E176ED5
:1030B6008BEF18F019BE6AEF18F0195006E11804E4
:1030C600D8B068EF18F06AEF18F076EF18F0000E37
:1030D600146E000E156E000E166E000E176E000EA4
:1030E6000D6E8BEF18F018C013F0FF0E1416FF0EBE
:1030F60015167F0E1616000E171613A085EF18F07C
:1031060087EF18F088EF18F0168ED8901330176EE8
:103116000D50171214C001F015C002F016C003F0CE
:1031260017C004F012000450800B116E04500424E2
:10313600186E03AEA1EF18F0A3EF18F0A4EF18F085
:1031460018801850D8B4AAEF18F0ACEF18F0C1EFF9
:1031560018F01828D8A4B2EF18F0B4EF18F0BCEFA6
:1031660018F0000E016E000E026E000E036E000EC9
:10317600046E038E000E046EC9EF18F0000E016E89
:10318600000E026E000E036E000E046E0850800BD9
:10319600111A08500824196E07AED4EF18F0D6EFAE
:1031A60018F0D7EF18F019801950D8B4DDEF18F0E1
:1031B600DFEF18F0F4EF18F01928D8A4E5EF18F0AF
:1031C600E7EF18F0EFEF18F0000E056E000E066E32
:1031D600000E076E000E086E078E000E086EFCEFDE
:1031E60018F0000E056E000E066E000E076E000E3D
:1031F600086E0550061007100810D8A405EF19F040
:1032060007EF19F01FEF19F0000E016E000E026EA7
:10321600000E036E000E046E800E03127F0E041263
:103226001150041201C001F002C002F003C003F005
:1032360004C004F062EF1AF01850D8A425EF19F074
:1032460027EF19F031EF19F0000E016E000E026E35
:10325600000E036E000E046E62EF1AF0195018C0CD
:1032660009F00A6A095E000E0A5A7F0E0924126ED8
:10327600000E0A20136E01C00DF002C00EF003C04E
:103286000FF004C010F0000E016E000E026E000E6C
:10329600036E000E046E000E146E000E156E000E08
:1032A600166E000E176E000E196E92EF19F0195079
:1032B600D8B460EF19F062EF19F079EF19F0D890F1
:1032C6000D360E360F361036D890013602360336D6
:1032D600043617AE71EF19F073EF19F074EF19F0A9
:1032E6000180D890143615361636173605500D5C03
:1032F60006500E5807500F5808501058D8A086EFA1
:1033060019F088EF19F091EF19F0178C05500D5E42
:1033160006500E5A07500F5A0850105A192A190EFD
:10332600196498EF19F09AEF19F05AEF19F00D5049
:103336000E100F101010D8B4A3EF19F0A5EF19F066
:10334600BDEF19F01480BDEF19F0D89001360236A2
:103356000336043617AEB2EF19F0B4EF19F0B5EF35
:1033660019F00180D890143615361636173612061F
:10337600D8A0130603AEC2EF19F0C4EF19F0A8EFF8
:1033860019F0000E196E17AECBEF19F0CDEF19F04C
:10339600F1EF19F0FF0E1414096EFF0E15140A6EE4
:1033A600FF0E16140B6E7F0E17140C6E09500A10C2
:1033B6000B100C10D8B4E2EF19F0E4EF19F0E8EFB7
:1033C60019F0010E196EF1EF19F001A0EDEF19F0E9
:1033D600EFEF19F0F1EF19F0E4EF19F01950D8B446
:1033E600F7EF19F0F9EF19F01DEF1AF0010E0126AB
:1033F600000E02220322042204A004EF1AF006EFB4
:103406001AF01DEF1AF001C009F002C00AF003C05D
:103416000BF004C00CF00C340C320B320A320932B9
:1034260009C001F00AC002F00BC003F00CC004F0A2
:10343600124A132A13BE28EF1AF0135008E1122875
:10344600D8A028EF1AF02AEF1AF035EF1AF0000E7E
:10345600136E1268000E016E000E026E000E036EF1
:10346600000E046E13BE42EF1AF0135006E112046A
:10347600D8B040EF1AF042EF1AF050EF1AF0000EF3
:10348600136E000E126E000E016E000E026E000E1E
:10349600036E000E046E000E116E12C018F018A016
:1034A60057EF1AF059EF1AF05CEF1AF0038E5DEF42
:1034B6001AF0039ED8901830046E13EF19F012001C
:1034C6001EC036F01FC037F020C038F021C039F0DA
:1034D60022C03AF023C03BF024C03CF025C03DF0AA
:1034E6003DBE78EF1AF07BEF1AF0010E7CEF1AF072
:1034F600000E346E356A34503510D8B485EF1AF0A4
:1035060087EF1AF097EF1AF03D1E3C1E3B1E3A1E3F
:10351600391E381E371E366C000E372238223922E5
:103526003A223B223C223D220001EFBF9DEF1AF0DA
:103536009FEF1AF0A0EF1AF0F093EFBFADEF1AF07D
:10354600EF5106E1EE05D8B0ABEF1AF0ADEF1AF089
:10355600B3EF1AF0000E316E010E306EB7EF1AF0AF
:10356600EEC030F0EFC031F0ECC032F0EDC033F019
:1035760034503510D8A4C2EF1AF0C4EF1AF0CBEFCE
:103586001AF0F0A5C9EF1AF0CBEF1AF0CEEF1AF049
:103596003206D8A03306000E3F6E4F0E3E6E000E6A
:1035A60002019F6F53EF1BF03E06D8A03F06500E58
:1035B6003E24D96E020E3F20DA6E36C001F037C0C7
:1035C60002F038C003F039C004F03AC005F03BC041
:1035D60006F03CC007F03DC008F00A0E096E000E6A
:1035E6000A6E000E0B6E000E0C6E000E0D6E000EB7
:1035F6000E6E000E0F6E000E106E16EC22F001C05D
:1036060026F002C027F003C028F004C029F005C048
:103616002AF006C02BF007C02CF008C02DF026C0FB
:1036260013F028C014F09DEC2BF01350300FDF6E12
:103636003006D8A031063206D8A0330636C001F0CF
:1036460037C002F038C003F039C004F03AC005F0C4
:103656003BC006F03CC007F03DC008F00A0E096EFC
:10366600000E0A6E000E0B6E000E0C6E000E0D6E36
:10367600000E0E6E000E0F6E000E106E8FEC20F018
:1036860001C036F002C037F003C038F004C039F08C
:1036960005C03AF006C03BF007C03CF008C03DF05C
:1036A6003FBE5EEF1BF03F5008E13E04D8A05EEF40
:1036B6001BF060EF1BF091EF1BF0365037103810FF
:1036C60039103A103B103C103D10D8A46DEF1BF09A
:1036D6006FEF1BF0D7EF1AF031BE7CEF1BF03150C5
:1036E60006E13004D8B07AEF1BF07CEF1BF0D7EF81
:1036F6001AF033BE87EF1BF0335008E13204D8A02E
:1037060087EF1BF089EF1BF091EF1BF00001F0B380
:103716008FEF1BF091EF1BF0D7EF1AF034503510F6
:10372600D8A498EF1BF09AEF1BF0A2EF1BF0000154
:10373600F0A5A0EF1BF0A2EF1BF0C0EF1BF03E06BA
:10374600D8A03F0634503510D8A4ACEF1BF0AEEF2E
:103756001BF0B4EF1BF0000E2F6E2B0E2E6EB8EF83
:103766001BF0000E2F6E2D0E2E6E500E3E24D96EBF
:10377600020E3F20DA6E2EC0DFFF1CC011F01DC006
:1037860012F0500E3E24136E020E3F20146E32C00D
:1037960015F033C016F08CEC26F011C01CF012C0E8
:1037A6001DF01200F29E28C01AF029C01BF02AC094
:1037B6001CF02BC01DF04BEC28F028C01AF029C0D5
:1037C6001BF02AC01CF02BC01DF098EC28F0520EFE
:1037D6002D6E2B0E2C6E000EE82EFED72C2EFCD74F
:1037E6002D2EFAD700D028C01AF029C01BF02AC007
:1037F6001CF02BC01DF0FEEC27F028C01AF029C0E3
:103806001BF02AC01CF02BC01DF098EC28F0520EBD
:103816002D6E2B0E2C6E000EE82EFED72C2EFCD70E
:103826002D2EFAD700D028C022F029C023F02AC0B6
:1038360024F02BC025F0000E276E5A0E266EBFEC24
:103846002AF028C01AF029C01BF02AC01CF02BC091
:103856001DF098EC28F0520E2D6E2B0E2C6E000EDD
:10386600E82EFED72C2EFCD72D2EFAD700D028C056
:1038760022F029C023F02AC024F02BC025F0000E28
:10388600276E5A0E266EE7EC2AF028C01AF029C0D9
:103896001BF02AC01CF02BC01DF098EC28F0520E2D
:1038A6002D6E2B0E2C6E000EE82EFED72C2EFCD77E
:1038B6002D2EFAD700D028C022F029C023F02AC026
:1038C60024F02BC025F0000E276EB40E266EBFEC3A
:1038D6002AF028C01AF029C01BF02AC01CF02BC001
:1038E6001DF098EC28F0520E2D6E2B0E2C6E000E4D
:1038F600E82EFED72C2EFCD72D2EFAD700D028C0C6
:1039060022F029C023F02AC024F02BC025F0000E97
:10391600276EB40E266EE7EC2AF028C01AF029C0EE
:103926001BF02AC01CF02BC01DF098EC28F0520E9C
:103936002D6E2B0E2C6E000EE82EFED72C2EFCD7ED
:103946002D2EFAD700D028C022F029C023F02AC095
:1039560024F02BC025F0000E276E870E266EBFECD6
:103966002AF028C01AF029C01BF02AC01CF02BC070
:103976001DF098EC28F0520E2D6E2B0E2C6E000EBC
:10398600E82EFED72C2EFCD72D2EFAD700D028C035
:1039960022F029C023F02AC024F02BC025F0000E07
:1039A600276E870E266EE7EC2AF028C01AF029C08B
:1039B6001BF02AC01CF02BC01DF098EC28F0520E0C
:1039C6002D6E2B0E2C6E000EE82EFED72C2EFCD75D
:1039D6002D2EFAD700D0F28E1200F3C12AF0F4C1D0
:1039E6002BF0F5C12CF0F6C12DF01AC02AF01BC041
:1039F6002BF01CC02CF01DC02DF0810E1E6EFF0E8C
:103A06001F6E2AC020F02BC021F02CC022F02DC042
:103A160023F0180E14EF1DF0D890233222322132F3
:103A26002032E82E0FEF1DF020501E24286E000EC7
:103A36001F20296E29BE29EF1DF0295009E1170E16
:103A4600285CD8A029EF1DF02BEF1DF035EF1DF0F7
:103A56001AC01AF01BC01BF01CC01CF01DC01DF0C4
:103A6600F8EF1DF029BE3AEF1DF03CEF1DF0ACEF6C
:103A76001DF028C01EF0FF0E1F6EFF0E206E7F0E7B
:103A8600216E000E226E1E664BEF1DF053EF1DF0E9
:103A960022342232213220321F321E2E46EF1DF0F2
:103AA6001FC024F020C025F021C026F022C027F038
:103AB60024502A141E6E25502B141F6E26502C14CB
:103AC600206E27502D14216E1E501F10201021101D
:103AD600D8A470EF1DF072EF1DF074EF1DF02BEF00
:103AE6001DF02AC01EF02BC01FF02CC020F02DC0E8
:103AF60021F0200E84EF1DF0D890213220321F32A3
:103B06001E32E82E7FEF1DF01E501F1020102110D0
:103B1600D8B490EF1DF092EF1DF09AEF1DF02450EF
:103B26002A2625502B2226502C2227502D22241CB3
:103B36001E6E251C1F6E261C206E271C216E1E5015
:103B46002A161F502B1620502C1621502D16F0EF3A
:103B56001DF02AC01EF02BC01FF02CC020F02DC077
:103B660021F0200EBCEF1DF0D890213220321F32FA
:103B76001E32E82EB7EF1DF01E501F102010211028
:103B8600D8A4C8EF1DF0CAEF1DF0D4EF1DF0000E4B
:103B96002A6E000E2B6E000E2C6E000E2D6EF0EFB0
:103BA6001DF0D8902A341E6E2B341F6E2C34206ED6
:103BB6002D34216E1E501F1020102110D8B4E6EFB0
:103BC6001DF0E8EF1DF0F0EF1DF0000E2A6E000E5E
:103BD6002B6E800E2C6EBF0E2D6E2AC01AF02BC0D7
:103BE6001BF02CC01CF02DC01DF0120020EE01F0C1
:103BF6000F50D9261050DA22DF50D8B405EF1EF048
:103C060007EF1EF038EF1EF00FC0D9FF10C0DAFF25
:103C1600DF50116E1150016E026A20EE07F00F5050
:103C2600D9261050DA22DECF03F0DDCF04F0A5EC62
:103C36002CF001C007F002C008F0000E0A6E640EF8
:103C4600096EEFEC26F020EE07F00F50D926105043
:103C5600DA22DECF12F0DDCF13F00750125C186EB9
:103C660008501358196E5BEF1EF00FC0D9FF10C035
:103C7600DAFFDF50116E1150016E026A20EE07F076
:103C86000F50D9261050DA22DECF03F0DDCF04F034
:103C9600A5EC2CF001C007F002C008F0000E0A6E79
:103CA600640E096EEFEC26F007C018F008C019F094
:103CB60020EE02F00F50D9261050DA22DECF11F096
:103CC600DDCF12F011C0D9FF12C0DAFF18C0DFFF36
:103CD60020EE01F00F50D9261050DA22DF50D8B46A
:103CE60077EF1EF079EF1EF0AEEF1EF020EE04F037
:103CF6000F50D9261050DA22DECF11F0DDCF12F0A8
:103D060011C0D9FF12C0DAFF10EE04F00F50E12601
:103D16001050E222E6CF13F0E5CF14F013C0E1FF16
:103D260014C0E2FFE750156E10EE06F00F50E126C4
:103D36001050E222E750166E010E176E162AA6EFF5
:103D46001EF0D8901736162EA4EF1EF01750151039
:103D5600DF6EE2EF1EF020EE04F00F50D926105071
:103D6600DA22DECF11F0DDCF12F011C0D9FF12C07A
:103D7600DAFF10EE04F00F50E1261050E222E6CFF3
:103D860013F0E5CF14F013C0E1FF14C0E2FFE750D3
:103D9600156E10EE06F00F50E1261050E222E750A5
:103DA600166E010E176E162ADBEF1EF0D890173628
:103DB600162ED9EF1EF01750FF0A1514DF6E1200EB
:103DC600096E0950D8B4EAEF1EF0ECEF1EF00EEFC4
:103DD6001FF004BEF3EF1EF0F1EF1EF00EEF1FF022
:103DE60001C005F002C006F003C007F004C008F0E9
:103DF600051E061E071E081E052A000E062207229D
:103E0600082205C00BF006C00CF007C00DF008C074
:103E16000EF016EF1FF001C00BF002C00CF003C04D
:103E26000DF004C00EF00150021003100410D8A4C7
:103E36001FEF1FF021EF1FF02BEF1FF0000E016E9A
:103E4600000E026E000E036E000E046EBCEF1FF035
:103E5600960E0A6E35EF1FF00A2AD8900E320D32F2
:103E66000C320B32000E0B14056E000E0C14066E8F
:103E7600000E0D14076EFE0E0E14086E0550061089
:103E860007100810D8A44AEF1FF04CEF1FF02FEFD1
:103E96001FF05AEF1FF00A2A010E0B26000E0C2205
:103EA6000D220E22D8900E320D320C320B32000E3D
:103EB6000B14056E000E0C14066E000E0D14076E24
:103EC600FF0E0E14086E0550061007100810D8A431
:103ED6006FEF1FF071EF1FF04EEF1FF079EF1FF03D
:103EE6000A06D8900B360C360D360E360DBE7EEF12
:103EF6001FF080EF1FF088EF1FF0020E0A6086EFBA
:103F06001FF088EF1FF073EF1FF00AB08DEF1FF060
:103F16008FEF1FF090EF1FF00D9ED8900A320AC067
:103F260005F0066A076A086A05C008F0076A066AA5
:103F3600056A05500B1206500C1207500D12085058
:103F46000E120950D8B4AAEF1FF0ACEF1FF0B4EF71
:103F56001FF004BEB3EF1FF0B1EF1FF0B4EF1FF078
:103F66000E8E0BC001F00CC002F00DC003F00EC0A7
:103F760004F01200000E166E000E156E000E0F6E87
:103F8600000E0E6EC9EF1FF0084A092A010E146EC4
:103F960008C0F6FF09C0F7FF000EF86E0800F550DE
:103FA600200AD8B4D9EF1FF0DBEF1FF0FAEF1FF0AD
:103FB600F70E0A6EFF0E0B6E08C0F6FF09C0F7FF7C
:103FC600000EF86E0800F5500C6E0D6A0A500C26AD
:103FD6000B500D220D5009E1050E0C5CD8A0F6EF32
:103FE6001FF0F8EF1FF0FAEF1FF0000E146E14C06A
:103FF60010F0116A10501110D8A404EF20F006EF4B
:1040060020F0C7EF1FF010EF20F0000E0F6E010E2C
:104016000E6E084A092A49EF20F008C0F6FF09C0CB
:10402600F7FF000EF86E0800F5500A6E0B6A0B508B
:10403600000AD8B421EF20F049EF20F00A502B0AED
:10404600D8B40CEF20F0060AD8B408EF20F049EFF8
:1040560020F015C001F016C002F0000E046E0A0E24
:10406600036EA5EC2CF008C0F6FF09C0F7FF000EA2
:10407600F86E0800F550015E000E025A300E01245B
:10408600156E000E0220166E0CEF20F0D00E0A6E92
:10409600FF0E0B6E08C0F6FF09C0F7FF000EF86EA4
:1040A6000800F5500C6E0D6A0A500C260B500D22B6
:1040B6000D500AE10A0E0C5CD8A064EF20F067EF01
:1040C60020F0010E68EF20F0000E126E136A1250F7
:1040D6001310D8A471EF20F073EF20F02CEF20F02E
:1040E6000E500F10D8A47AEF20F07CEF20F08AEF64
:1040F60020F015C00AF016C00BF00A1E0B1E0A4A65
:104106000B2A0AC008F00BC009F08EEF20F015C08C
:1041160008F016C009F01200000E126E10BE98EFDD
:1041260020F096EF20F0AAEF20F0101E0F1E0E1EB4
:104136000D1E0C1E0B1E0A1E096C000E0A220B22F7
:104146000C220D220E220F221022010E126E08BE24
:10415600B1EF20F0AFEF20F0C3EF20F0081E071EEE
:10416600061E051E041E031E021E016C000E022200
:10417600032204220522062207220822010E121A11
:1041860020EE13F0070EDE6AE806FDE209500A107B
:104196000B100C100D100E100F101010D8B4D6EF17
:1041A60020F0D8EF20F02AEF21F0010E116EE6EF95
:1041B60020F0D89009360A360B360C360D360E36F8
:1041C6000F361036112A10AEEBEF20F0EDEF20F08F
:1041D600DCEF20F0D890133614361536163617361F
:1041E600183619361A360950015C0A5002580B5017
:1041F60003580C5004580D5005580E5006580F50D1
:10420600075810500858D8A00BEF21F00DEF21F0F9
:104216001EEF21F00950015E0A50025A0B50035A54
:104226000C50045A0D50055A0E50065A0F50075A94
:104236001050085A1380D89010320F320E320D32B9
:104246000C320B320A320932112EEDEF20F01250E9
:10425600D8B430EF21F032EF21F042EF21F01A1EF0
:10426600191E181E171E161E151E141E136C000E80
:104276001422152216221722182219221A2213C0D6
:1042860001F014C002F015C003F016C004F017C008
:1042960005F018C006F019C007F01AC008F01200A1
:1042A60021EEC4F010EE0FF0060EDBCFE3FFE806BA
:1042B600FCE20CC01AF00DC01BF01A501B10D8A45B
:1042C60067EF21F069EF21F06DEF21F00F0E1A6E06
:1042D600000E1B6E1AC001F01BC002F049EC2CF058
:1042E60001C01EF002C01FF0EEC01CF0EFC01DF0B2
:1042F6001DBE80EF21F082EF21F097EF21F01E50D6
:104306001C5C1D50800A0E6E1F50800A0E58D8A0E5
:104316008FEF21F091EF21F093EF21F097EF21F04D
:104326001CC01EF01DC01FF01EC01CF01FC01DF0DB
:10433600ECC018F0EDC019F00001F0B1A5EF21F0C6
:10434600A7EF21F0C4EF21F0B5EF21F0000E026EC9
:10435600200E016E0AC003F00BC004F027EC26F015
:104366001E4A1F2A18501E5C1F50800A0E6E1950D6
:10437600800A0E58D8A0C2EF21F0C4EF21F0A9EFB1
:1043860021F0000E176E000E166EDDEF21F01AC03A
:10439600D9FF1BC0DAFFDF500E6E0E50016E026AA7
:1043A6000AC003F00BC004F027EC26F01A4A1B2AB9
:1043B600164A172A1C50165C1750800A0E6E1D509E
:1043C600800A0E58D8A0EAEF21F0ECEF21F0CAEFF0
:1043D60021F00001F0A1F2EF21F0F4EF21F011EF4E
:1043E60022F002EF22F0000E026E200E016E0AC0CD
:1043F60003F00BC004F027EC26F01E4A1F2A1850C3
:104406001E5C1F50800A0E6E1950800A0E58D8A0E6
:104416000FEF22F011EF22F0F6EF21F01EC00AF0A6
:104426001FC00BF01200000E126E08BE1FEF22F026
:104436001DEF22F031EF22F0081E071E061E051E94
:10444600041E031E021E016C000E02220322042219
:104456000522062207220822010E126E10BE38EF30
:1044660022F036EF22F048EF22F0101E0F1E0E1E2D
:104476000D1E0C1E0B1E0A1E096C000E0A220B22B4
:104486000C220D220E220F22102209500A100B10A8
:104496000C100D100E100F101010D8B455EF22F09E
:1044A60057EF22F09FEF22F0010E116E65EF22F01A
:1044B600D89009360A360B360C360D360E360F36C0
:1044C6001036112A10AE6AEF22F06CEF22F05BEF85
:1044D60022F00950015C0A5002580B5003580C5048
:1044E60004580D5005580E5006580F5007581050D6
:1044F6000858D8A081EF22F083EF22F093EF22F044
:104506000950015E0A50025A0B50035A0C50045AC5
:104516000D50055A0E50065A0F50075A1050085A99
:10452600D89010320F320E320D320C320B320A3264
:104536000932112E6CEF22F01250D8B4A5EF22F0FA
:10454600A7EF22F0B7EF22F0081E071E061E051E73
:10455600041E031E021E016C000E02220322042208
:10456600052206220722082201C001F002C002F03D
:1045760003C003F004C004F005C005F006C006F051
:1045860007C007F008C008F01200033404340A6EAE
:104596000A50D8A4D1EF22F0D3EF22F0DDEF22F0BB
:1045A600000E016E000E026E000E036E000E046E0B
:1045B6004AEF23F001C005F002C006F003C007F081
:1045C60004C008F0200EEDEF22F0D8900832073232
:1045D60006320532E82EE8EF22F00550096E038E0A
:1045E600FF0E0116FF0E0216FF0E0316000E04162E
:1045F600960E0A5E0ABE04EF23F002EF23F01AEFCE
:1046060023F00A50800A970FD8B00CEF23F00EEF74
:1046160023F010EF23F0D3EF22F0D89004320332C8
:10462600023201320A3E10EF23F032EF23F01F0E62
:104636000A6420EF23F022EF23F02AEF23F0D3EFD2
:1046460022F0D89001360236033604360A060A509E
:10465600D8A430EF23F032EF23F024EF23F00950F3
:10466600D8B438EF23F03AEF23F042EF23F0041EDC
:10467600031E021E016C000E02220322042201C048
:1046860001F002C002F003C003F004C004F01200FF
:10469600000E1A14226E000E1B14236E800E1C14BC
:1046A600246E7F0E1D14256E225023102410251013
:1046B600D8A460EF23F062EF23F06AEF23F0000E38
:1046C6001A6E000E1B6E000E1C6E000E1D6E000E86
:1046D6001E14226E000E1F14236E800E2014246EEC
:1046E6007F0E2114256E2250231024102510D8A4E5
:1046F6007FEF23F081EF23F089EF23F0000E1E6E8B
:10470600000E1F6E000E206E000E216E1DAE8EEF87
:1047160023F090EF23F099EF23F01A6C1B1ED8B00C
:104726001B2A1C1ED8B01C2A800E1D5621AE9EEFD9
:1047360023F0A0EF23F0A9EF23F01E6C1F1ED8B0C4
:104746001F2A201ED8B0202A800E2156000E1A1AC3
:10475600000E1B1A000E1C1A800E1D1A000E1E1AC1
:10476600000E1F1A000E201A800E211A1E501A5C07
:104776001F501B5820501C5821501D58D8B0C6EF4A
:1047860023F0C8EF23F0CBEF23F0D890CCEF23F043
:10479600D8801200F7C10BF0F8C10CF0F9C10DF08A
:1047A600FAC10EF001C00BF002C00CF003C00DF010
:1047B60004C00EF00BC005F00CC006F00DC007F0EB
:1047C6000EC008F0180EEDEF23F0D890083207322D
:1047D60006320532E82EE8EF23F00550096E0A6A24
:1047E60009500A10D8A4FAEF23F0FCEF23F01CEFCF
:1047F60024F0D8900B34056E0C34066E0D34076E1B
:104806000E34086E0550061007100810D8A40EEFD7
:1048160024F010EF24F016EF24F0000E026E020EC4
:10482600016E4BEF24F0000E026E030E016E4BEF8D
:1048360024F009280A10D8A423EF24F025EF24F049
:1048460047EF24F00BC005F00CC006F00DC007F0D2
:104856000EC008F0090ED89005360636073608361B
:10486600E82E2EEF24F00550061007100810D8B4D5
:104876003FEF24F042EF24F0010E43EF24F0000E48
:10488600016E026A4BEF24F0000E026E040E016EFA
:10489600120020EE01F01A50D9261B50DA22010E22
:1048A600DF6E20EE01F01C50D9261D50DA22000ED4
:1048B600DF6EAAEF24F080A063EF24F067EF24F008
:1048C600206A202A68EF24F0206A80502018FE0B08
:1048D6002018806E1AC0D9FF1BC0DAFF0001FD51F7
:1048E600DE5CD8B079EF24F07BEF24F080EF24F083
:1048F6001AC0D9FF1BC0DAFFDF2A1CC0D9FF1DC0B2
:10490600DAFFFE51DE5CD8B08BEF24F08DEF24F099
:1049160092EF24F01CC0D9FF1DC0DAFFDF2A1AC0AF
:104926000FF01BC010F0F9EC1DF01CC00FF01DC0FD
:1049360010F0F9EC1DF0090E216E1E0E206EE40E2D
:10494600E82EFED7202EFCD7212EFAD700D01AC08B
:10495600D9FF1BC0DAFF0001FD51DE5CD8A0B6EF1F
:1049660024F0B8EF24F05EEF24F01CC0D9FF1DC080
:10497600DAFFFE51DE5CD8A0C3EF24F0C5EF24F0C9
:104986005EEF24F08090120020EE01F01A50D92636
:104996001B50DA22000EDF6E20EE01F01C50D926E5
:1049A6001D50DA22010EDF6E25EF25F07EA0DEEF28
:1049B60024F0E2EF24F0206A202AE3EF24F0206AB4
:1049C6007E502018FE0B20187E6E1AC0D9FF1BC021
:1049D600DAFF0001FE51DE5CD8B0F4EF24F0F6EF0A
:1049E60024F0FBEF24F01AC0D9FF1BC0DAFFDF2A40
:1049F6001CC0D9FF1DC0DAFFFD51DE5CD8B006EF42
:104A060025F008EF25F00DEF25F01CC0D9FF1DC0DD
:104A1600DAFFDF2A1AC00FF01BC010F0F9EC1DF008
:104A26001CC00FF01DC010F0F9EC1DF0090E216E30
:104A36001E0E206EE40EE82EFED7202EFCD7212E69
:104A4600FAD700D01AC0D9FF1BC0DAFF0001FE5109
:104A5600DE5CD8A031EF25F033EF25F0D9EF24F056
:104A66001CC0D9FF1DC0DAFFFD51DE5CD8A03EEFA9
:104A760025F040EF25F0D9EF24F07E901200000ECD
:104A86000001F36F000EF26FFB69FC69320EFE6FD8
:104A9600320EFD6F000EF66F000EF56F000EF46F0E
:104AA600000ED86F010ED96FA30EDA6F0F0EDB6FF3
:104AB6007D0EDC6F0F0EDD6F040EDE6F000EE06FF5
:104AC600630EDF6F000EE16F010EE26FA00EE36F63
:104AD6000F0EE46F7F0EE56F0F0EE66F060EE76FA3
:104AE600000EE96F630EE86FF9EC2CF0BDEC2BF0CD
:104AF600630E0FEC2BF0E9EC2CF0D9EC2CF08EA425
:104B060087EF25F089EF25F090EF25F08EB68EEF32
:104B160025F090EF25F082EF25F07C86010EB8ECAB
:104B26002CF0520E0001CF6F2B0ECE6F000EE82E2A
:104B3600FED7CE2FFCD7CF2FFAD700F0D00E00012C
:104B4600CA6F000ECB6F57EC0DF0D80E286E000E14
:104B5600296EE10E2A6E000E2B6ED5EC1BF0A1EF2E
:104B660025F000EF00F001C008F002C009F003C014
:104B76000AF004C00BF00506D8A00606052806E1D3
:104B86000628D8A4C9EF25F0CBEF25F0D8EF25F0FD
:104B9600000E026E000E016E26EF26F0084A092A64
:104BA6000A4A0B2A0506D8A0060608C0D9FF09C07E
:104BB600DAFFDF50D8B4E2EF25F0E4EF25F013EF8B
:104BC60026F00AC0F6FF0BC0F7FF000EF86E0800CD
:104BD600F5500009D8B4F2EF25F0F4EF25F013EF05
:104BE60026F005500610D8B4FBEF25F0FDEF25F0B2
:104BF60013EF26F008C0D9FF09C0DAFFDF50076EB1
:104C06000AC0F6FF0BC0F7FF000EF86E0800F5505D
:104C16000718D8B411EF26F013EF26F0D1EF25F0E0
:104C260008C0D9FF09C0DAFFDF50076E0AC0F6FFD9
:104C36000BC0F7FF000EF86E0800F550075C016E1A
:104C4600026AD8A00206120003500410D8B42EEF50
:104C560026F030EF26F039EF26F003500410D8A4E2
:104C660037EF26F039EF26F03EEF26F0015056ECEE
:104C76002DF08BEF26F020EE04F00350D9260450D9
:104C8600DA22DE50DE10D8B44BEF26F04DEF26F0D8
:104C960068EF26F020EE04F00350D9260450DA22FD
:104CA60010EE02F00350E1260450E222DE50E65CEC
:104CB600E650800A096EDE50800A0958D8B066EFC1
:104CC60026F068EF26F08BEF26F020EE02F0035078
:104CD600D9260450DA22DECF05F0DDCF06F003C078
:104CE600D9FF04C0DAFFDECF07F0DDCF08F00550AC
:104CF6000724D96E06500820DA6E01C0DFFF20EEC9
:104D060002F00350D9260450DA22DE2A000EDD22F4
:104D160012000001F0A192EF26F094EF26F09EEF2C
:104D260026F013C00AF014C00BF011C00CF012C02C
:104D36000DF05AEC2BF016BEA3EF26F0A5EF26F0E9
:104D4600ABEF26F015C01AF016C01BF0AFEF26F039
:104D5600000E1B6E000E1A6E000E196E000E186EF7
:104D6600C1EF26F0000E026E200E016E11C003F098
:104D760012C004F027EC26F0184A192A1A50185CBB
:104D86001950800A176E1B50800A1758D8A0CEEF0C
:104D960026F0D0EF26F0B5EF26F00001F0B1D6EF01
:104DA60026F0D8EF26F0E2EF26F013C00AF014C082
:104DB6000BF011C00CF012C00DF05AEC2BF013C022
:104DC60001F014C002F049EC2CF01A500124116EC7
:104DD6001B500220126E1200000E0C6E0ABEF8EF77
:104DE60026F0F6EF26F0FEEF26F0096C0A1ED8B084
:104DF6000A2A010E0C6E08BE05EF27F003EF27F016
:104E06000BEF27F0076C081ED8B0082A010E0C1A03
:104E1600000E0E6E000E0D6E09500A10D8B416EF75
:104E260027F018EF27F040EF27F0010E0B6E20EF6A
:104E360027F0D89009360A360B2A0AAE25EF27F056
:104E460027EF27F01CEF27F0D8900D360E360950C5
:104E5600075C0A500858D8A033EF27F035EF27F043
:104E66003AEF27F00950075E0A50085A0D80D8908D
:104E76000A3209320B2E27EF27F00C50D8B446EF32
:104E860027F048EF27F04CEF27F00D6C0E1ED8B038
:104E96000E2A0DC007F00EC008F01200000E066EB6
:104EA60002BE5AEF27F058EF27F060EF27F0016CAB
:104EB600021ED8B0022A010E066E04BE67EF27F066
:104EC60065EF27F06BEF27F0036C041ED8B0042AB9
:104ED60003500410D8B472EF27F074EF27F098EF60
:104EE60027F0010E056E7CEF27F0D89003360436C6
:104EF600052A04AE81EF27F083EF27F078EF27F03D
:104F06000350015C04500258D8A08CEF27F08EEFB6
:104F160027F092EF27F00350015E0450025AD89012
:104F260004320332052E83EF27F00650D8B49EEFE5
:104F360027F0A0EF27F0A4EF27F0016C021ED8B0EF
:104F4600022A01C001F002C002F01200000E011494
:104F5600096E000E02140A6E800E03140B6E7F0E8D
:104F660004140C6E09500A100B100C10D8A4BEEFD6
:104F760027F0C0EF27F0C8EF27F0000E016E000EF5
:104F8600026E000E036E000E046E000E0514096E0E
:104F9600000E06140A6E800E07140B6E7F0E0814A0
:104FA6000C6E09500A100B100C10D8A4DDEF27F078
:104FB600DFEF27F0E7EF27F0000E056E000E066E16
:104FC600000E076E000E086E055001180FE1065020
:104FD60002180CE10750031809E108500418D8B468
:104FE600F7EF27F0F9EF27F0FCEF27F0D890FDEF69
:104FF60027F0D880120020EE01F01A50D9261B5057
:10500600DA22000EDF6E20EE01F01C50D9261D506C
:10501600DA22000EDF6E32EF28F01AC0D9FF1BC06D
:10502600DAFFDF2A1CC0D9FF1DC0DAFFDF2A1AC04B
:105036000FF01BC010F0F9EC1DF01CC00FF01DC0E6
:1050460010F0F9EC1DF0090E1F6E1E0E1E6EE40E1A
:10505600E82EFED71E2EFCD71F2EFAD700D01AC078
:10506600D9FF1BC0DAFF640EDF603CEF28F03EEF8D
:1050760028F04AEF28F01CC0D9FF1DC0DAFF630EE6
:10508600DF6448EF28F04AEF28F010EF28F012000E
:1050960020EE01F01A50D9261B50DA22010EDF6EDF
:1050A60020EE01F01C50D9261D50DA22010EDF6ECB
:1050B6007FEF28F01AC0D9FF1BC0DAFFDF2A1CC019
:1050C600D9FF1DC0DAFFDF2A1AC00FF01BC010F08F
:1050D600F9EC1DF01CC00FF01DC010F0F9EC1DF02E
:1050E600090E1F6E1E0E1E6EE40EE82EFED71E2E35
:1050F600FCD71F2EFAD700D01AC0D9FF1BC0DAFF83
:10510600640EDF6089EF28F08BEF28F097EF28F028
:105116001CC0D9FF1DC0DAFF630EDF6495EF28F0CF
:1051260097EF28F05DEF28F012007C88BDEF28F09D
:105136001AC0D9FF1BC0DAFFDF061CC0D9FF1DC08D
:10514600DAFFDF061AC00FF01BC010F0F9EC1DF0F5
:105156001CC00FF01DC010F0F9EC1DF0090E1F6EFB
:105166001E0E1E6EE40EE82EFED71E2EFCD71F2E38
:10517600FAD700D01AC0D9FF1BC0DAFFDF50D8B467
:10518600C7EF28F0C9EF28F0D5EF28F01CC0D9FFEB
:105196001DC0DAFFDF50D8A4D3EF28F0D5EF28F0F2
:1051A6009BEF28F07C981200780EF66E5A0EF76E7A
:1051B600000EF86E02EEA0F010EE0BF00900F5CF2F
:1051C600EEFFE550E150FAE15A0EF66E580EF76E14
:1051D600000EF86E01EEBCF010EE37F00900F5CFC8
:1051E600EEFFE550E150FAE102EE00F0A00EEE6AA5
:1051F600E806FDE101EEF3F00C0EEE6AE806FDE1CD
:1052060000EEEAF0110EEE6AE806FDE1000142EF5B
:1052160025F09AC09EF09BC09FF0000E0001EB6F38
:10522600000EEA6F2AEF29F098C040F099C041F0CD
:105236009E0E426E000E436E9CC044F09DC045F02B
:1052460032EC11F040500001EA274150EB239EC09A
:10525600F6FF9FC0F7FF000EF86E0800F550000934
:10526600D8A438EF29F03AEF29F017EF29F0EAC071
:1052760098F0EBC099F01200BF0E096EFF0E0A6E91
:1052860007C00BF008C00CF009500B260A500C2280
:105296000C500AE11A0E0B5CD8A054EF29F057EF18
:1052A60029F0010E58EF29F0000E0D6E0E6A0D5012
:1052B6000E10D8B461EF29F063EF29F06AEF29F0F8
:1052C600200E0710076E0850086E6EEF29F007C013
:1052D60007F008C008F0120003C007F004C008F089
:1052E60001C009F002C00AF00750056E0850066EAC
:1052F600074A082A05C0F6FF06C0F7FF000EF86E3B
:1053060009C0D9FF0AC0DAFF094A0A2A0D0EF76456
:1053160003D00800F55005D0F6CFE9FFF7CFEAFF36
:10532600EF50DF6EDF50D8A49BEF29F09DEF29F0F8
:1053360077EF29F012001FEC2AF00CC0D9FF0DC040
:10534600DAFF05C0DEFF06C0DDFF47EC2AF020EEDF
:1053560002F00C50D9260D50DA2205C0DEFF06C039
:10536600DDFF97EC2AF020EE04F00C50D9260D5004
:10537600DA2205C0DEFF06C0DDFF6FEC2AF020EE64
:1053860006F00C50D9260D50DA2205C0DEFF06C005
:10539600DDFF1200A40E0001C26F000EC36FA0C095
:1053A600C4F0A1C0C5F0000EC76F000EC66F000E98
:1053B600C96F000EC86FC40E986F000E996FA2C019
:1053C6009AF0A3C09BF0C20E9C6F000E9D6F0CEC72
:1053D60029F00001C651A025D96EC751A121DA6E68
:1053E600000EDF6E1200010E076E200E011802106D
:1053F600D8B400EF2AF002EF2AF01BEF2AF0F70EDE
:10540600036EFF0E046E01C005F002C006F00350E5
:10541600052604500622065009E1050E055CD8A0B3
:1054260017EF2AF019EF2AF01BEF2AF0000E076E8D
:1054360007C001F0026A120047EC2DF0520E30EC64
:105446002DF0B60E30EC2DF04CEC2DF0530E30EC6A
:105456002DF0010E7CEC2BF0076E07500A6E0B6ADE
:10546600000E7CEC2BF0076E0750096E086A0A5096
:1054760008100A6E0B5009100B6E42EC2DF00AC094
:1054860005F00BC006F0120047EC2DF0520E30EC82
:105496002DF0B80E30EC2DF04CEC2DF0530E30EC18
:1054A6002DF0010E7CEC2BF0076E07500A6E0B6A8E
:1054B600000E7CEC2BF0076E0750096E086A0A5046
:1054C60008100A6E0B5009100B6E42EC2DF00AC044
:1054D60005F00BC006F0120047EC2DF0520E30EC32
:1054E6002DF0B40E30EC2DF04CEC2DF0530E30ECCC
:1054F6002DF0010E7CEC2BF0076E07500A6E0B6A3E
:10550600000E7CEC2BF0076E0750096E086A0A50F5
:1055160008100A6E0B5009100B6E42EC2DF00AC0F3
:1055260005F00BC006F0120047EC2DF0520E30ECE1
:105536002DF0BA0E30EC2DF04CEC2DF0530E30EC75
:105546002DF0010E7CEC2BF0076E07500A6E0B6AED
:10555600000E7CEC2BF0076E0750096E086A0A50A5
:1055660008100A6E0B5009100B6E42EC2DF00AC0A3
:1055760005F00BC006F012000001F451D8A4C6EFE6
:105586002AF0C8EF2AF0D8EF2AF022C01AF023C07A
:105596001BF024C01CF025C01DF026C01EF027C03D
:1055A6001FF04CEC24F0E6EF2AF022C01AF023C0DC
:1055B6001BF024C01CF025C01DF026C01EF027C01D
:1055C6001FF0C7EC24F012000001F451D8A4EEEF4E
:1055D6002AF0F0EF2AF000EF2BF022C01AF023C0D9
:1055E6001BF024C01CF025C01DF026C01EF027C0ED
:1055F6001FF0C7EC24F00EEF2BF022C01AF023C0E8
:105606001BF024C01CF025C01DF026C01EF027C0CC
:105616001FF04CEC24F01200016EBD508F0B4009B8
:10562600BD6EE00EBE16BF50F00B0109BF6E01C085
:10563600BCFFBD8E85948598839E879C7D947D98BE
:105646007B9E7F9C000EA36E000EA06EA48EA18E84
:105656000A0E0E01746F0B0E696F36EC2DF051ECCD
:105666002DF01EEC2DF01200000E1E1A000E1F1A51
:10567600000E201A800E211A1AC001F01BC002F07B
:105686001CC003F01DC004F01EC005F01FC006F0CC
:1056960020C007F021C008F021EC14F001C01AF078
:1056A60002C01BF003C01CF004C01DF01200000E67
:1056B600106E000E0F6E6BEF2BF00EC001F0026A3B
:1056C6000CC003F00DC004F027EC26F00F4A102A98
:1056D6000F500A24D96E10500B20DA6EDF500E6E72
:1056E6000E50D8A479EF2BF07BEF2BF060EF2BF068
:1056F6001200036E91EC2CF00E01DA8791EC2CF07F
:10570600D5CE04F091EC2CF00350D8B48DEF2BF0ED
:1057160091EF2BF0026A022A92EF2BF0026A023A0C
:1057260002460E01DA510218DF0B0218DA6FDA8927
:105736000450120014BEAAEF2BF0145006E1130415
:10574600D8B0A8EF2BF0AAEF2BF0B8EF2BF013C0D0
:1057560015F014C016F0151E161E154A162A15C089
:1057660013F016C014F0BCEF2BF013C013F014C0E6
:1057760014F012007CEC2CF0010E036E000EC9EC46
:105786002CF03F0E056E550EE82EFED7052EFCD7E3
:1057960000F0030E036E000EC9EC2CF0D50E036E5E
:1057A600010EC9EC2CF029EC2DF01200BF0E036E91
:1057B600FF0E046E01C005F002C006F00350052678
:1057C6000450062206500AE11A0E055CD8A0EEEF38
:1057D6002BF0F1EF2BF0010EF2EF2BF0000E016E25
:1057E600026A12000150021003100410D8B4FEEF32
:1057F6002BF000EF2CF008EF2CF0000E011A000E33
:10580600021A000E031A800E041A01C001F002C02B
:1058160002F003C003F004C004F01200D00E036EC1
:10582600FF0E046E01C005F002C006F00350052607
:105836000450062206500AE10A0E055CD8A026EF9F
:105846002CF029EF2CF0010E2AEF2CF0000E016E41
:10585600026A1200756E6B6E6F776E00286E756C3D
:105866006C29006F72616E67650079656C6C6F7785
:1058760000776869746500677265656E0070696EA9
:0B5886006B00626C75650072656400C9
:1058920001C003F002C004F051EF2CF0014A022AC9
:1058A20001C0D9FF02C0DAFFDF50D8A45BEF2CF0B1
:1058B2005DEF2CF04FEF2CF00350015C016E0450B1
:1058C2000258026E12006FEF2CF002C0D9FF03C023
:1058D200DAFFDF5006EC2DF0024A032A02C0D9FF9C
:1058E20003C0DAFFDF50D8A479EF2CF07BEF2CF065
:1058F20066EF2CF012000E01D951F00B0809D96F96
:10590200D98B9F0ED66F848A848CA79BA79D1D0E70
:105912001D6F1E0E1C6F1C0E6F6F1B0E706F120020
:105922000E01D8B597EF2CF099EF2CF091EF2CF0F7
:10593200DACE01F01F0E0116D8A4A2EF2CF0A4EFCC
:105942002CF091EF2CF0120001500302F3CF05F07E
:10595200F4CF06F001500402F3500626025003026F
:10596200F350062605C001F006C002F01200016ED7
:1059720001B002D07F9201D07F8201B002D079982B
:1059820001D0798801B002D07E9E01D07E8E1200B5
:10599200046E47EC2DF0520E30EC2DF004508009CD
:1059A20030EC2DF0035030EC2DF042EC2DF01200D3
:1059B20012EC2DF0026EC80E0260E2EF2CF0E4EF62
:1059C2002CF0E7EF2CF07C8EE8EF2CF07C9E12009E
:1059D200120E0E01626F110E156F8382E997E89520
:1059E200330EE56F000EE66FE789E88BE78F120052
:1059F200868C0E01B48D0F015899FC0E58172E0E8D
:105A02005F6F60946088608E1200016E0E0137A590
:105A12000DEF2DF00FEF2DF007EF2DF001C0E4FE9A
:105A22001200608060B018EF2DF01AEF2DF013EF26
:105A32002DF064CF01F00150120088928496849870
:105A42008690889080927C967C987E9080901200BE
:105A520087928198869E000EB8EC2CF01200026E9E
:105A620091EC2CF002C0D5FE1200868486860E01CF
:105A7200B495B49712006C6967687420626C75659E
:015A82000023
:105A840091EC2CF00E01DA85120091EC2CF00E0151
:105A9400DA81120091EC2CF00E01DA831200849E5C
:0A5AA40088967C9E80961200120086
:020000040020DA
:10000000FF0FFF0FFF0FFF0FFF0FFF0FFF0FFF0F80
:020000040030CA
:0C000000AAFFFFFF9FFFFFFFFFFFFFFFB5
:00000001FF
