:0400000013EF00F00A
:06000800578207EF2FF004
:100018005780E0CF07F007C0E0FF57901000B6EF19
:020028002CF0BA
:100E000000524742433A2025692025692025692060
:100E100025692020202020524742435F72656C3AAA
:100E200020252E336620252E336620252E3366207E
:100E300020202020436F6C6F75723A2025730A0DB5
:100E400000524742433A2025692025692025692020
:100E5000256920202020205468726573686F6C64B7
:100E60003A2025692025692025690A0D006C6967EB
:100E7000687420626C756500756E6B6E6F776E00BE
:100E80006F72616E67650079656C6C6F770077686B
:100E900069746500677265656E0070696E6B004904
:100EA0004E46004E414E00696E66006E616E0072E5
:070EB0006564006C660000A0
:100EB800000E0001806F000E7F6F49C091F04AC09C
:100EC80092F04BC093F04CC094F094BF70EF07F0D1
:100ED8006EEF07F086EF07F0000E806F010E7F6F50
:100EE80091C008F092C009F093C00AF094C00BF0CA
:100EF800A2EC2FF008C091F009C092F00AC093F05C
:100F08000BC094F0000E0001986F000E976F1EC181
:100F180083F01FC184F07F518011D8A496EF07F0A9
:100F280098EF07F09FEF07F050A49DEF07F09FEFB1
:100F380007F0B9EF07F07F518011D8A4A6EF07F0AA
:100F4800A8EF07F0AEEF07F0000E666F2B0E656F87
:100F5800B2EF07F0000E666F2D0E656F65C025F1C4
:100F6800974B982B8307D8A0840791C008F092C0AC
:100F780009F093C00AF094C00BF0ABEC27F008041A
:100F88000910D8A4CAEF07F0CCEF07F023EF08F058
:100F9800BF0E0001606FFF0E616F4D50626F636B93
:100FA800605162276151632363510AE11A0E625D41
:100FB800D8A0E1EF07F0E4EF07F0010EE5EF07F046
:100FC800000E676F686B67516811D8B4EEEF07F0D1
:100FD800F0EF07F0FEEF07F0250E9725086E010EDB
:100FE8009821096E9F0E0A6E0E0E0B6E58EC2CF0AF
:100FF8000AEF08F0250E9725086E010E9821096E54
:10100800A70E0A6E0E0E0B6E58EC2CF00001FD0EAA
:101018008327FF0E842347C018F048C019F0250E17
:101028001A6E010E1B6E83C01CF084C01DF0CCEC40
:1010380029F018C047F019C048F088EF0DF091C0AA
:1010480008F092C009F093C00AF094C00BF0ABEC22
:1010580027F008500910D8A434EF08F036EF08F04C
:1010680076EF08F0BF0E0001606FFF0E616F4D5004
:10107800626F636B605162276151632363510AE1B8
:101088001A0E625DD8A04BEF08F04EEF08F0010E83
:101098004FEF08F0000E696F6A6B69516A11D8B496
:1010A80058EF08F05AEF08F068EF08F0250E97257A
:1010B800086E010E9821096EA30E0A6E0E0E0B6EB5
:1010C80058EC2CF00AEF08F0250E9725086E010E53
:1010D8009821096EAB0E0A6E0E0E0B6E58EC2CF0B2
:1010E8000AEF08F0000E0001996F000E9A6F800E4B
:1010F8009B6F3F0E9C6F000E966F000E956F91C010
:1011080008F092C009F093C00AF094C00BF0000EEA
:101118000C6E000E0D6E000E0E6E000E0F6E85EC3E
:101128002AF0D8B09AEF08F09CEF08F01FEF09F00A
:10113800BBEF08F099C016F09AC017F09BC018F0E2
:101148009CC019F0000E1A6E000E1B6E200E1C6E4D
:10115800410E1D6EB4EC16F016C099F017C09AF047
:1011680018C09BF019C09CF00001954B962B91C0BC
:101178002FF092C030F093C031F094C032F0000EDE
:101188001A6E000E1B6E200E1C6E410E1D6E99C04D
:1011980016F09AC017F09BC018F09CC019F0B4EC78
:1011A80016F016C033F017C034F018C035F019C067
:1011B80036F029EC27F0D8B0E4EF08F0E6EF08F0B5
:1011C8009EEF08F006EF09F099C016F09AC017F0E4
:1011D8009BC018F09CC019F0000E1A6E000E1B6E12
:1011E800200E1C6E410E1D6EC9EC18F016C099F049
:1011F80017C09AF018C09BF019C09CF00001950721
:10120800D8A0960791C02FF092C030F093C031F06B
:1012180094C032F099C033F09AC034F09BC035F0D6
:101228009CC036F029EC27F0D8A01DEF09F01FEF7D
:1012380009F0E8EF08F04DC00EF00F6A28EC2CF02A
:101248000E500001866F86C085F0670E8619D8A4F7
:1012580030EF09F032EF09F058EF09F0EF51F011D3
:10126800D8A439EF09F03BEF09F03FEF09F0000E81
:10127800F06F010EEF6FF0BF4CEF09F0F05106E18F
:10128800EF05D8B04AEF09F04CEF09F052EF09F03A
:10129800000E826F060E816F61EF09F0EFC081F0DA
:1012A800F0C082F061EF09F0F0BF5DEF09F05FEF89
:1012B80009F04CEF09F052EF09F0670E8619D8A42F
:1012C80068EF09F06AEF09F099EF09F096AF78EF47
:1012D80009F0FC0E955DFF0E9659D8A076EF09F03F
:1012E80078EF09F097EF09F0FF0E606FFF0E616F5E
:1012F80081C062F082C063F060516227615163234C
:101308009551625D6351800A646F9651800A6459F1
:10131800D8A091EF09F093EF09F097EF09F0660E66
:10132800856F99EF09F0650E856F81C077F082C0EF
:1013380078F0670E8619D8A4A4EF09F0A6EF09F093
:10134800B6EF09F0660E8519D8A4ADEF09F0AFEF36
:1013580009F0B8EF09F096BFB6EF09F0B4EF09F05D
:10136800B8EF09F0774B782B660E8519D8A4BFEF34
:1013780009F0C1EF09F0E1EF09F096BFC8EF09F0F5
:10138800C6EF09F0D4EF09F0000E996F000E9A6FBE
:10139800800E9B6F3F0E9C6F000E966F000E956F30
:1013A800670E8619D8B4DBEF09F0DDEF09F0E1EF3D
:1013B80009F09551772796517823000E906F000E0B
:1013C8008F6F91C087F092C088F093C089F094C065
:1013D8008AF099C079F09AC07AF09BC07BF09CC0E3
:1013E8007CF072EF0AF087C016F088C017F089C049
:1013F80018F08AC019F099C01AF09AC01BF09BC067
:101408001CF09CC01DF0C9EC18F016C02FF017C0D6
:1014180030F018C031F019C032F006EC1CF02FC0C3
:101428008BF030C08CF031C08DF032C08EF08BC0A4
:1014380008F08CC009F08DC00AF08EC00BF0A6EC45
:1014480026F008C07DF009C07EF087C03FF088C054
:1014580040F089C041F08AC042F099C01AF09AC0A1
:101468001BF09BC01CF09CC01DF08BC016F08CC0FC
:1014780017F08DC018F08EC019F0B4EC16F016C035
:1014880043F017C044F018C045F019C046F0C2EC4C
:101498002EF03FC087F040C088F041C089F042C0BC
:1014A8008AF099C016F09AC017F09BC018F09CC03B
:1014B80019F0000E1A6E000E1B6E200E1C6E410EE7
:1014C8001D6EC9EC18F016C099F017C09AF018C034
:1014D8009BF019C09CF000018F4B902B77518F5DCA
:1014E8009051800A606F7851800A6059D8A07FEFC8
:1014F8000AF081EF0AF0F7EF09F099C016F09AC0E8
:1015080017F09BC018F09CC019F0000E1A6E000E60
:101518001B6EA00E1C6E400E1D6EB4EC16F016C0AD
:101528008BF017C08CF018C08DF019C08EF087C0F2
:101538002FF088C030F089C031F08AC032F08BC0FB
:1015480033F08CC034F08DC035F08EC036F029EC05
:1015580027F0D8B0B2EF0AF0B4EF0AF0BFEF0AF004
:10156800000E00018B6F000E8C6F000E8D6F000E49
:101578008E6FE8EF0AF087C008F088C009F089C0CC
:101588000AF08AC00BF08BC00CF08CC00DF08DC037
:101598000EF08EC00FF085EC2AF0D8A0D6EF0AF036
:1015A800D8EF0AF0E8EF0AF000017DB1DEEF0AF0AB
:1015B800E0EF0AF0E8EF0AF0000E8B6F000E8C6F78
:1015C800000E8D6F000E8E6F91C02FF092C030F01C
:1015D80093C031F094C032F08BC033F08CC034F03B
:1015E8008DC035F08EC036F054EC14F02FC087F063
:1015F80030C088F031C089F032C08AF087C02FF03F
:1016080088C030F089C031F08AC032F0000E1A6EFE
:10161800000E1B6E200E1C6E410E1D6E79C016F05A
:101628007AC017F07BC018F07CC019F0B4EC16F043
:1016380016C033F017C034F018C035F019C036F0B2
:1016480029EC27F0D8A02BEF0BF02DEF0BF056EF7D
:101658000BF00001954B962B79C016F07AC017F065
:101668007BC018F07CC019F0000E1A6E000E1B6EBD
:10167800200E1C6E410E1D6EB4EC16F016C079F0EB
:1016880017C07AF018C07BF019C07CF0660E000114
:101698008519D8A452EF0BF054EF0BF056EF0BF06E
:1016A800774B782B79C099F07AC09AF07BC09BF081
:1016B8007CC09CF0650E00018519D8B466EF0BF06C
:1016C80068EF0BF06EEF0BF095C075F096C076F0F2
:1016D80072EF0BF0000E766F000E756F000E746FD0
:1016E800000E736F000E726F000E716F000E906F18
:1016F800000E8F6F6EEF0CF087C016F088C017F0E1
:1017080089C018F08AC019F099C01AF09AC01BF065
:101718009BC01CF09CC01DF0C9EC18F016C02FF03F
:1017280017C030F018C031F019C032F006EC1CF0C8
:101738002FC08BF030C08CF031C08DF032C08EF0ED
:101748008BC008F08CC009F08DC00AF08EC00BF079
:10175800A6EC26F008C07DF009C07EF050B8B7EFBF
:101768000BF0B9EF0BF0D7EF0BF000017D517E11B4
:10177800D8A4C1EF0BF0C3EF0BF0D7EF0BF0670E57
:101788008619D8A4CAEF0BF0CCEF0BF0D7EF0BF00B
:1017980076BFD3EF0BF0D1EF0BF0D7EF0BF0714B17
:1017A800722B22EF0CF0000173517411D8A4DFEFF3
:1017B8000BF0E1EF0BF00BEF0CF076BFE8EF0BF05E
:1017C800E6EF0BF00BEF0CF0250E9725D96E010E06
:1017D8009821DA6E2E0EDF6E974B982B8307D8A0D0
:1017E8008407000E746F010E736F0BEF0CF0250E5B
:1017F8009725D96E010E9821DA6E300EDF6E974B61
:10180800982B8307D8A084077107D8A07207715155
:101818007211D8A412EF0CF014EF0CF0FBEF0BF0E0
:10182800250E9725D96E010E9821DA6E7D51300F5D
:10183800DF6E974B982B8307D8A0840787C03FF0AB
:1018480088C040F089C041F08AC042F099C01AF0BF
:101858009AC01BF09BC01CF09CC01DF08BC016F0FA
:101868008CC017F08DC018F08EC019F0B4EC16F0CB
:1018780016C043F017C044F018C045F019C046F030
:10188800C2EC2EF03FC087F040C088F041C089F01C
:1018980042C08AF099C016F09AC017F09BC018F0A1
:1018A8009CC019F0000E1A6E000E1B6E200E1C6EE6
:1018B800410E1D6EC9EC18F016C099F017C09AF0C9
:1018C80018C09BF019C09CF000017507D8A07607D6
:1018D8008F4B902B77518F5D9051800A606F7851B4
:1018E800800A6059D8B07BEF0CF07DEF0CF08BEFDD
:1018F8000CF098BF89EF0CF0985109E14B0E975DF9
:10190800D8A089EF0CF08BEF0CF080EF0BF073513F
:101918007411D8A492EF0CF094EF0CF0A5EF0CF032
:1019280050A899EF0CF09BEF0CF0A5EF0CF0250EEA
:101938009725D96E010E9821DA6E2E0EDF6E974B21
:10194800982B250E9725D96E010E9821DA6E000E78
:10195800DF6E650E8519D8A4B4EF0CF0B6EF0CF065
:101968000FEF08F0000E906F4F0E8F6F250E8F252A
:10197800D96E010E9021DA6E000EDF6E000E806FB8
:10198800000E7F6F96BFCDEF0CF0CBEF0CF0D5EFCC
:101998000CF0000E806F010E7F6F956D961FD8B00A
:1019A800962B000E826F020E816F06EF0DF08F07E7
:1019B800D8A09007250E8F25D96E010E9021DA6EDA
:1019C80095C008F096C009F0000E0B6E0A0E0A6E5C
:1019D8002DEC2AF00850300FDF6E95C00EF096C03F
:1019E8000FF0000E116E0A0E106E6AEC29F00EC090
:1019F80095F00FC096F000018107D8A082078307F1
:101A0800D8A0840795519611D8A40DEF0DF00FEFCB
:101A18000DF0DBEF0CF082BF1CEF0DF0825106E1F8
:101A28008105D8B01AEF0DF01CEF0DF0DBEF0CF0CC
:101A38008F07D8A090077F518011D8A426EF0DF00A
:101A480028EF0DF02EEF0DF0000E6C6F2B0E6B6F64
:101A580032EF0DF0000E6C6F2D0E6B6F250E8F257B
:101A6800D96E010E9021DA6E6BC0DFFF8307D8A014
:101A780084078F07D8A09007BF0E606FFF0E616FB5
:101A88004D50626F636B60516227615163236351EC
:101A98000AE11A0E625DD8A054EF0DF057EF0DF071
:101AA800010E58EF0DF0000E6F6F706B6F517011D3
:101AB800D8A461EF0DF063EF0DF069EF0DF0000EA3
:101AC8006E6F650E6D6F6DEF0DF0000E6E6F450E4B
:101AD8006D6F250E8F25D96E010E9021DA6E6DC0BF
:101AE800DFFF8307D8A08407250E9725086E010E0F
:101AF8009821096E250E8F250A6E010E90210B6E16
:101B080058EC2CF00FEF08F012000E01299366C074
:101B180013F067C014F087EC2CF066C02FF067C094
:101B280030F06C0E316E000E326E0CEC22F0710E3D
:101B38002F6E3D0E306E0A0E316E3F0E326E6CC047
:101B480033F06DC034F06EC035F06FC036F029EC5C
:101B580027F0D8B0B2EF0DF0B4EF0DF04AEF0EF069
:101B680070C02FF071C030F072C031F073C032F025
:101B7800480E336EE10E346E7A0E356E3E0E366EBA
:101B880029EC27F0D8B0CBEF0DF0CDEF0DF04AEFF0
:101B98000EF074C02FF075C030F076C031F077C009
:101BA80032F0EC0E336E510E346E380E356E3E0E3A
:101BB800366E29EC27F0D8B0E4EF0DF0E6EF0DF023
:101BC8004AEF0EF066C015F067C016F0030E176EE8
:101BD80079EC23F066C02FF067C030F06C0E316EE0
:101BE800000E326E0CEC22F074C02FF075C030F08D
:101BF80076C031F077C032F0290E336E5C0E346E49
:101C08000F0E356E3F0E366E29EC27F0D8B00FEF69
:101C18000EF011EF0EF02FEF0EF068C060F069C003
:101C280061F06AC062F06BC063F0000E0001656F7E
:101C3800870E646F24EC2EF068C021F069C022F092
:101C48006AC023F06BC024F0B8EC2BF0000E000142
:101C5800F26F5AEF11F068C060F069C061F06AC0B5
:101C680062F06BC063F0000E0001656F5A0E646F7E
:101C780024EC2EF068C021F069C022F06AC023F07D
:101C88006BC024F0B8EC2BF02AEF0EF06CC02FF0EC
:101C98006DC030F06EC031F06FC032F0AE0E336EF2
:101CA800470E346EE10E356E3E0E366E29EC27F087
:101CB800D8B061EF0EF063EF0EF05CEF0FF09A0E04
:101CC8002F6E990E306E990E316E3E0E326E70C0C8
:101CD80033F071C034F072C035F073C036F029ECBF
:101CE80027F0D8B07AEF0EF07CEF0EF05CEF0FF033
:101CF800140E2F6EAE0E306E470E316E3E0E326EE3
:101D080074C033F075C034F076C035F077C036F063
:101D180029EC27F0D8B093EF0EF095EF0EF05CEFBA
:101D28000FF066C015F067C016F0030E176E79EC59
:101D380023F066C02FF067C030F06C0E316E000ED5
:101D4800326E0CEC22F06CC02FF06DC030F06EC01B
:101D580031F06FC032F0660E336E660E346E260EAA
:101D6800356E3F0E366E29EC27F0D8B0BEEF0EF078
:101D7800C0EF0EF0F4EF0EF01F0E2F6E850E306ED2
:101D88002B0E316E3F0E326E74C033F075C034F0D6
:101D980076C035F077C036F029EC27F0D8B0D7EF09
:101DA8000EF0D9EF0EF0F4EF0EF068C060F069C0E5
:101DB80061F06AC062F06BC063F0000E0001656FED
:101DC800B40E646F24EC2EF068C021F069C022F0D4
:101DD8006AC023F06BC024F0B8EC2BF02AEF0EF0A9
:101DE8006CC02FF06DC030F06EC031F06FC032F0B3
:101DF800EC0E336E510E346EB80E356E3D0E366EE7
:101E080029EC27F0D8B00BEF0FF00DEF0FF041EFF2
:101E18000FF0520E2F6EB80E306E1E0E316E3F0E42
:101E2800326E74C033F075C034F076C035F077C0C8
:101E380036F029EC27F0D8B024EF0FF026EF0FF09A
:101E480041EF0FF068C060F069C061F06AC062F0ED
:101E58006BC063F0000E0001656F5A0E646F4CECA6
:101E68002EF068C021F069C022F06AC023F06BC070
:101E780024F0B8EC2BF02AEF0EF068C060F069C0CF
:101E880061F06AC062F06BC063F0000E0001656F1C
:101E9800870E646F4CEC2EF068C021F069C022F008
:101EA8006AC023F06BC024F0B8EC2BF02AEF0EF0D8
:101EB800480E2F6EE10E306EFA0E316E3E0E326E07
:101EC8006CC033F06DC034F06EC035F06FC036F0C2
:101ED80029EC27F0D8B073EF0FF075EF0FF0E2EFB1
:101EE8000FF0850E2F6EEB0E306E910E316E3E0E9A
:101EF800326E70C033F071C034F072C035F073C008
:101F080036F029EC27F0D8B08CEF0FF08EEF0FF0F9
:101F1800E2EF0FF0EC0E2F6E510E306E380E316E70
:101F28003E0E326E74C033F075C034F076C035F0B2
:101F380077C036F029EC27F0D8B0A5EF0FF0A7EF5F
:101F48000FF0E2EF0FF068C021F069C022F06AC01C
:101F580023F06BC024F02AEC2BF068C021F069C094
:101F680022F06AC023F06BC024F0B8EC2BF0090E05
:101F78004D6E1E0E4C6EE40EE82EFED74C2EFCD78E
:101F88004D2EFAD700D068C060F069C061F06AC011
:101F980062F06BC063F0000E0001656F5A0E646F4B
:101FA80024EC2EF068C021F069C022F06AC023F04A
:101FB8006BC024F0B8EC2BF02AEF0EF0480E2F6E11
:101FC800E10E306EFA0E316E3E0E326E6CC033F09A
:101FD8006DC034F06EC035F06FC036F029EC27F0D4
:101FE800D8B0F9EF0FF0FBEF0FF05EEF10F070C014
:101FF8002FF071C030F072C031F073C032F0CD0EE6
:10200800336ECC0E346E8C0E356E3E0E366E29EC69
:1020180027F0D8B012EF10F014EF10F05EEF10F0C8
:10202800140E2F6EAE0E306E470E316E3E0E326EAF
:1020380074C033F075C034F076C035F077C036F030
:1020480029EC27F0D8B02BEF10F02DEF10F05EEF51
:1020580010F068C021F069C022F06AC023F06BC09C
:1020680024F02AEC2BF068C021F069C022F06AC085
:1020780023F06BC024F0B8EC2BF0090E4D6E1E0E49
:102088004C6EE40EE82EFED74C2EFCD74D2EFAD718
:1020980000D068C060F069C061F06AC062F06BC0CF
:1020A80063F0000E0001656F5A0E646F4CEC2EF061
:1020B800D6EF0FF06CC02FF06DC030F06EC031F06D
:1020C8006FC032F01F0E336E850E346EEB0E356E18
:1020D8003E0E366E29EC27F0D8B075EF10F077EF8A
:1020E80010F0C9EF10F03D0E2F6E0A0E306E970EED
:1020F800316E3E0E326E70C033F071C034F072C073
:1021080035F073C036F029EC27F0D8B08EEF10F018
:1021180090EF10F0C9EF10F03D0E2F6E0A0E306EE2
:10212800570E316E3E0E326E74C033F075C034F007
:1021380076C035F077C036F029EC27F0D8B0A7EF95
:1021480010F0A9EF10F0C9EF10F068C060F069C096
:1021580061F06AC062F06BC063F0000E0001656F49
:10216800B40E646F24EC2EF068C021F069C022F030
:102178006AC023F06BC024F0B8EC2BF0000E00010D
:10218800F26F010EF16F5AEF11F0520E4D6E2B0ED9
:102198004C6E000EE82EFED74C2EFCD74D2EFAD7EB
:1021A80000D068C021F069C022F06AC023F06BC07B
:1021B80024F071EC2BF0D00E4C6ECA0EE82EFED730
:1021C8004C2EFCD768C021F069C022F06AC023F009
:1021D8006BC024F0B8EC2BF066C013F067C014F0A5
:1021E80087EC2CF0000120EE06F06651D9266751E5
:1021F800DA225250DE5C5350DE58D8A006EF11F0B8
:1022080008EF11F019EF11F020EE06F06651D9260B
:102218006751DA22DE50555CDE505658D8B017EFB9
:1022280011F019EF11F04EEF11F0030EF2611FEFEC
:1022380011F021EF11F027EF11F00E0133830001A7
:10224800F22B5AEF11F0808668C060F069C061F027
:102258006AC062F06BC063F0000E656FB40E646F05
:1022680024EC2EF068C021F069C022F06AC023F087
:102278006BC024F0B8EC2BF00001F151D8B447EF53
:1022880011F04AEF11F0010E4BEF11F0000EF16F53
:102298002AEF0EF068C021F069C022F06AC023F06E
:1022A8006BC024F071EC2BF02AEF0EF00E0129839D
:1022B80012009FC0D9FFA0C0DAFFDECFF6FFDDCF46
:1022C800F7FF000EF86E0800F550250AD8A46FEF46
:1022D80011F071EF11F036EF14F09FC0D9FFA0C0D4
:1022E800DAFFDE2A000EDD22000E01011F6F000E4C
:1022F8001E6F1EC150F01FC151F00001EF69F06957
:102308009FC0D9FFA0C0DAFFDECFF6FFDDCFF7FF11
:10231800000EF86E0800F5502E0AD8A496EF11F0BA
:1023280098EF11F01AEF12F0000EF06F000EEF6F39
:102338009FC0D9FFA0C0DAFFDE2A000EDD229FC0B1
:10234800D9FFA0C0DAFFDECFF6FFDDCFF7FF000E22
:10235800F86E0800F5502A0AD8A4B5EF11F0B7EFC7
:1023680011F0D4EF11F09FC0D9FFA0C0DAFFDE2A28
:10237800000EDD22A1C0D9FFA2C0DAFFDFCFA3F093
:10238800020EDE26DFCFA4F0000EDD22A3C0D9FFA7
:10239800A4C0DAFFDECFEFF0DDCFF0F01AEF12F0D5
:1023A8009FC0D9FFA0C0DAFFDECF0FF0DDCF10F05D
:1023B800A9EC1FF00FC0EFF010C0F0F0EBEF11F038
:1023C8009FC0D9FFA0C0DAFFDE2A000EDD22D00EA2
:1023D8000001A36FFF0EA46F9FC0D9FFA0C0DAFF52
:1023E800DECFF6FFDDCFF7FF000EF86E0800F550E0
:1023F800A56FA66BA351A527A451A623A6510AE150
:102408000A0EA55DD8A00BEF12F00EEF12F0010E28
:102418000FEF12F0000EB16FB26BB151B211D8A428
:1024280018EF12F01AEF12F0E4EF11F09FC0D9FF85
:10243800A0C0DAFFDECFF6FFDDCFF7FF000EF86EA3
:102448000800F5500E6E0F6A28EC2CF00E500001B3
:10245800B96FB951D8B433EF12F035EF12F073EF0A
:1024680012F09FC0D9FFA0C0DAFFDECFA3F0DDCF06
:10247800A4F0010EA327000EA423A3C0F6FFA4C056
:10248800F7FF000EF86E0800F5500E6E0F6A28EC84
:102498002CF00E500001BA6FBA51D8B456EF12F0B2
:1024A80058EF12F073EF12F09FC0D9FFA0C0DAFF07
:1024B800DECFA3F0DDCFA4F0020EA327000EA423E5
:1024C800A3C0F6FFA4C0F7FF000EF86E0800F55091
:1024D8000E6E0F6A28EC2CF00E500001BB6F9FC0E7
:1024E800D9FFA0C0DAFFDECFF6FFDDCFF7FF000E81
:1024F800F86E0800F550640AD8B485EF12F087EF3B
:1025080012F09BEF12F09FC0D9FFA0C0DAFFDECF18
:10251800F6FFDDCFF7FF000EF86E0800F550690AE8
:10252800D8A499EF12F09BEF12F0DBEF12F09FC0E6
:10253800D9FFA0C0DAFFDE2A000EDD22A1C0D9FF34
:10254800A2C0DAFFDFCFA3F0020EDE26DFCFA4F0B1
:10255800000EDD22A3C0D9FFA4C0DAFFDECFA7F0AA
:10256800DDCFA8F0000EA8BFFF0EA96FAA6FAB6F52
:10257800AC6FAD6FAE6F9DC023F09EC024F0A7C0B6
:1025880025F0A8C026F0A9C027F0AAC028F0ABC043
:1025980029F0ACC02AF0ADC02BF0AEC02CF096EC00
:1025A8001AF023C09DF024C09EF053EF14F0660E7D
:1025B800B919D8A4E2EF12F0E4EF12F026EF13F005
:1025C8009FC0D9FFA0C0DAFFDECFF6FFDDCFF7FF4F
:1025D800000EF86E0800F5CFBCF09FC0D9FFA0C070
:1025E800DAFFDE2A000EDD22A1C0D9FFA2C0DAFF81
:1025F800DFCFA3F0040EDE26DFCFA4F0000EDD222D
:10260800A3C0D9FFA4C0DAFFDECFB5F0DECFB6F0A5
:10261800DECFB7F0DECFB8F09DC047F09EC048F0DF
:10262800B5C049F0B6C04AF0B7C04BF0B8C04CF0DE
:10263800BCC04DF05CEC07F047C09DF048C09EF070
:1026480053EF14F0B90E086E000E096EB30E0A6E41
:102658000E0E0B6E000E0D6E020E0C6E2AEC28F09C
:1026680008500910D8A43BEF13F03DEF13F0BDEF6D
:1026780013F09FC0D9FFA0C0DAFFDECFA3F0DDCFF3
:10268800A4F0010E0001A327000EA423A3C0F6FFA7
:10269800A4C0F7FF000EF86E0800F5CFBCF0BF0E1F
:1026A800A36FFF0EA46F9FC0D9FFA0C0DAFFDECFD3
:1026B800F6FFDDCFF7FF000EF86E0800F550A56FA6
:1026C800A66BA351A527A451A623A6510AE11A0E69
:1026D800A55DD8A072EF13F075EF13F0010E76EF39
:1026E80013F0000EB36FB46BB351B411D8B47FEFCD
:1026F80013F081EF13F09BEF13F0A1C0D9FFA2C034
:10270800DAFFDFCFA3F0040EDE26DFCFA4F0000E41
:10271800DD22A3C0D9FFA4C0DAFFDECFB5F0DECF3B
:10272800B6F0DECFB7F0DECFB8F0B3EF13F0A1C04C
:10273800D9FFA2C0DAFFDFCFA3F0040EDE26DFCF79
:10274800A4F0000EDD22A3C0D9FFA4C0DAFFDECFBB
:10275800B5F0DECFB6F0DECFB7F0DECFB8F0020EC0
:102768009FC0D9FFA0C0DAFFDE26000EDD2210EFE1
:1027780013F09FC0D9FFA0C0DAFFDECFF6FFDDCF90
:10278800F7FF000EF86E0800F550730AD8A4CFEFD3
:1027980013F0D1EF13F0FCEF13F09FC0D9FFA0C0E6
:1027A800DAFFDE2A000EDD22A1C0D9FFA2C0DAFFBF
:1027B800DFCFA3F0020EDE26DFCFA4F0000EDD226D
:1027C800A3C0D9FFA4C0DAFFDECFAFF0DDCFB0F0F1
:1027D8009DC011F09EC012F0AFC013F0B0C014F04D
:1027E8007BEC20F011C09DF012C09EF053EF14F066
:1027F8009FC0D9FFA0C0DAFFDECFF6FFDDCFF7FF1D
:10280800000EF86E0800F550250AD8A40EEF14F053
:1028180010EF14F028EF14F09FC0D9FFA0C0DAFF22
:10282800DE2A000EDD22000E096E250E086E9DC000
:102838000AF09EC00BF005EC29F0000E00019E6F17
:10284800010E9D6F53EF14F09FC0D9FFA0C0DAFFAF
:10285800DE2A000EDD22000E00019E6F000E9D6F25
:1028680053EF14F09FC0D9FFA0C0DAFFDECFF6FF08
:10287800DDCFF7FF000EF86E0800F550086E096A04
:102888009DC00AF09EC00BF005EC29F09FC0D9FF4F
:10289800A0C0DAFFDE2A000EDD2221EF14F01200BC
:1028A8003250800B3B6E325032243D6E31AE5FEFBA
:1028B80014F061EF14F062EF14F03D803D50D8B48D
:1028C80068EF14F06AEF14F07FEF14F03D28D8A4F5
:1028D80070EF14F072EF14F07AEF14F0000E2F6E10
:1028E800000E306E000E316E000E326E318E000E0C
:1028F800326E87EF14F0000E2F6E000E306E000E51
:10290800316E000E326E3650800B3C6E3B503C18D8
:10291800D8B491EF14F093EF14F094EF14F03B8CCB
:10292800365036243C6E35AE9CEF14F09EEF14F012
:102938009FEF14F03C803C50D8B4A5EF14F0A7EFFB
:1029480014F0BCEF14F03C28D8A4ADEF14F0AFEFAE
:1029580014F0B7EF14F0000E336E000E346E000E54
:10296800356E000E366E358E000E366EC4EF14F0DE
:10297800000E336E000E346E000E356E000E366E8D
:102988003D503C5CD8B0CBEF14F0CDEF14F0F4EF31
:1029980014F03BACD2EF14F0D4EF14F0D6EF14F0EF
:1029A800800E3B1A3DC03EF03CC03DF03EC03CF0BE
:1029B8002FC03EF033C02FF03EC033F030C03EF0A1
:1029C80034C030F03EC034F031C03EF035C031F094
:1029D8003EC035F032C03EF036C032F03EC036F070
:1029E800000E3E6E3D503CC037F0386A375E000E30
:1029F800385A38BE09EF15F0385009E11A0E375C1D
:102A0800D8A009EF15F00BEF15F042EF15F02F5095
:102A1800301031103210D8A414EF15F017EF15F05C
:102A2800010E18EF15F0000E3E6E000E2F6E000E10
:102A3800306E000E316E000E326E3CC03DF04BEF32
:102A480015F03EA02AEF15F02CEF15F032EF15F037
:102A5800D8903E3001093E6E34EF15F0D8903E32E2
:102A68002FA039EF15F03BEF15F03CEF15F03E8E37
:102A780032343232313230322F323D2A3C503D5CD2
:102A8800D8A049EF15F04BEF15F025EF15F03BBC3A
:102A980050EF15F052EF15F092EF15F03D50D8A415
:102AA80058EF15F05AEF15F064EF15F0000E2F6E81
:102AB800000E306E000E316E000E326EB3EF16F05F
:102AC80033502F263450302235503122365032229E
:102AD80032A071EF15F073EF15F01FEF16F03EA05E
:102AE80078EF15F07AEF15F080EF15F0D8903E30BA
:102AF80001093E6E82EF15F0D8903E322FA087EF85
:102B080015F089EF15F08AEF15F03E8E3234323227
:102B1800313230322F323D2A1FEF16F033502F5CFE
:102B280034503058355031583250800A376E36504C
:102B3800800A3758D8B0A3EF15F0A5EF15F0D0EFFD
:102B480015F02F50335C376E30503458386E315092
:102B58003558396E325036583A6EFF0E37242F6E7C
:102B6800FF0E3820306EFF0E3920316EFF0E3A20EE
:102B7800326E800E3B1A3E6C3E50D8A4C6EF15F05C
:102B8800C8EF15F0D8EF15F0010E2F26000E3022F1
:102B980031223222D8EF15F033502F5E3450305A9C
:102BA8003550315A3650325A2F50301031103210B9
:102BB800D8A4E1EF15F0E3EF15F018EF16F03E504A
:102BC800D8A4E9EF15F0EBEF15F018EF16F0000EAA
:102BD8002F6E000E306E000E316E000E326EB3EFA7
:102BE80016F0D8902F363036313632363EAEFFEFFB
:102BF80015F001EF16F002EF16F02F803EA007EF58
:102C080016F009EF16F00DEF16F0D8803E360FEFEC
:102C180016F0D8903E363D50D8B415EF16F017EFA1
:102C280016F018EF16F03D0631AE1DEF16F01FEF47
:102C380016F0F5EF15F0000E3C6E3EAE26EF16F0DE
:102C480028EF16F040EF16F03EC037F07F0E37162B
:102C5800D8B431EF16F033EF16F037EF16F0010E57
:102C68003C6E40EF16F02FA03CEF16F03EEF16F04A
:102C780040EF16F033EF16F03C50D8B446EF16F09C
:102C880048EF16F073EF16F0010E2F26000E3022D3
:102C98003122322232A053EF16F055EF16F073EFBF
:102CA80016F02FC037F030C038F031C039F032C0DC
:102CB8003AF03A343A3239323832373237C02FF0B4
:102CC80038C030F039C031F03AC032F03D28D8B4BD
:102CD80070EF16F072EF16F073EF16F03D2A3D28EC
:102CE800D8B479EF16F07BEF16F083EF16F03D506D
:102CF800D8A481EF16F083EF16F095EF16F0000ECA
:102D08002F6E000E306E000E316E000E326E3D508A
:102D1800D8A491EF16F093EF16F095EF16F0000E89
:102D28003B6E3DA09AEF16F09CEF16F09FEF16F061
:102D3800318EA0EF16F0319ED8903D30326E3BAE0A
:102D4800A8EF16F0AAEF16F0ABEF16F0328E2FC0F0
:102D58002FF030C030F031C031F032C032F0120004
:102D68001950800B226E19501924286E18AEBFEF27
:102D780016F0C1EF16F0C2EF16F028802850D8B42C
:102D8800C8EF16F0CAEF16F0DDEF16F02828D8A421
:102D9800D0EF16F0D2EF16F0DAEF16F0000E166E3E
:102DA800000E176E000E186E000E196E188EE5EFE5
:102DB80016F0000E166E000E176E000E186E000E3E
:102DC800196E1D50800B221A1D501D24236E1CAE37
:102DD800F0EF16F0F2EF16F0F3EF16F02380235021
:102DE800D8B4F9EF16F0FBEF16F00EEF17F0232822
:102DF800D8A401EF17F003EF17F00BEF17F0000E50
:102E08001A6E000E1B6E000E1C6E000E1D6E1C8EC0
:102E180016EF17F0000E1A6E000E1B6E000E1C6ED9
:102E2800000E1D6E2350D8B41CEF17F01EEF17F0DC
:102E380026EF17F02850D8A424EF17F026EF17F044
:102E480030EF17F0000E166E000E176E000E186E9B
:102E5800000E196EC8EF18F01C501602F3CF2DF0B3
:102E6800F4CF2EF02D50246E256A266A276A2E503C
:102E7800296E2A6A2B6A2C6A1B501702F3CF2DF091
:102E8800F4CF2EF02D502426000E252226222722AC
:102E98002E502926000E2A222B222C221A501802E4
:102EA800F3CF2DF0F4CF2EF02D502426000E25223E
:102EB800262227222E502926000E2A222B222C22B7
:102EC80026C027F025C026F024C025F0246A1A5011
:102ED8001702F3CF2DF0F4CF2EF02D5024262E50CC
:102EE8002522000E2622000E27221B501602F3CFA1
:102EF8002DF0F4CF2EF02D5024262E502522000E32
:102F08002622000E272226C027F025C026F024C03E
:102F180025F0246A1A501602F3CF2DF0F4CF2EF0C4
:102F28002D5024262E502522000E2622000E272260
:102F38001C501702F3CF2DF0F4CF2EF02D50292678
:102F48002E502A22000E2B22000E2C221B50180273
:102F5800F3CF2DF0F4CF2EF02D5029262E502A2213
:102F6800000E2B22000E2C221C501802F3CF2DF03D
:102F7800F4CF2EF02D501E6E2E501F6E206A216A3F
:102F880020C021F01FC020F01EC01FF01E6A1E5076
:102F980029261F502A2220502B2221502C2224C0BF
:102FA8001EF025C01FF026C020F027C021F0190E02
:102FB800E3EF17F0D890213220321F321E32E82E6C
:102FC800DEEF17F01E5029261F502A2220502B22F0
:102FD80021502C2226C027F025C026F024C025F039
:102FE800246A235028C01EF01F6A1E26000E1F22C6
:102FF800820E1E242D6EFF0E1F202E6E19EF18F064
:10300800D89029362A362B362C3627AE0EEF18F0F4
:1030180010EF18F011EF18F02980D89024362536D3
:10302800263627362D06D8A02E062BAE1EEF18F012
:1030380020EF18F004EF18F0000E236E27AE27EFEC
:1030480018F029EF18F04DEF18F0FF0E24141E6E3B
:10305800FF0E25141F6EFF0E2614206E7F0E2714F8
:10306800216E1E501F1020102110D8B43EEF18F00A
:1030780040EF18F044EF18F0010E236E4DEF18F0F2
:1030880029A049EF18F04BEF18F04DEF18F040EF7A
:1030980018F02350D8B453EF18F055EF18F079EF23
:1030A80018F0010E2926000E2A222B222C222CA0F1
:1030B80060EF18F062EF18F079EF18F029C01EF0F1
:1030C8002AC01FF02BC020F02CC021F0213421325F
:1030D80020321F321E321EC029F01FC02AF020C025
:1030E8002BF021C02CF02D4A2E2A2EBE84EF18F08A
:1030F8002E5008E12D28D8A084EF18F086EF18F09C
:1031080090EF18F0000E296E000E2A6E800E2B6EBE
:103118007F0E2C6EBEEF18F02EBE9DEF18F02E50CD
:1031280006E12D04D8B09BEF18F09DEF18F0A9EF39
:1031380018F0000E296E000E2A6E000E2B6E000E7F
:103148002C6E000E226EBEEF18F02DC028F0FF0E78
:103158002916FF0E2A167F0E2B16000E2C1628A0F5
:10316800B8EF18F0BAEF18F0BBEF18F02B8ED89024
:1031780028302C6E22502C1229C016F02AC017F0C5
:103188002BC018F02CC019F012001950800B266EB5
:10319800195019242D6E18AED4EF18F0D6EF18F088
:1031A800D7EF18F02D802D50D8B4DDEF18F0DFEFF1
:1031B80018F0F4EF18F02D28D8A4E5EF18F0E7EF91
:1031C80018F0EFEF18F0000E166E000E176E000ED6
:1031D800186E000E196E188E000E196EFCEF18F09E
:1031E800000E166E000E176E000E186E000E196E89
:1031F8001D50800B261A1D501D242E6E1CAE07EF85
:1032080019F009EF19F00AEF19F02E802E50D8B4F2
:1032180010EF19F012EF19F027EF19F02E28D8A4A3
:1032280018EF19F01AEF19F022EF19F0000E1A6EC4
:10323800000E1B6E000E1C6E000E1D6E1C8E000E06
:103248001D6E2FEF19F0000E1A6E000E1B6E000E89
:103258001C6E000E1D6E1A501B101C101D10D8A4D9
:1032680038EF19F03AEF19F052EF19F0000E166E18
:10327800000E176E000E186E000E196E800E1812D2
:103288007F0E19122650191216C016F017C017F023
:1032980018C018F019C019F095EF1AF02D50D8A4DD
:1032A80058EF19F05AEF19F064EF19F0000E166E86
:1032B800000E176E000E186E000E196E95EF1AF0BC
:1032C8002E502DC01EF01F6A1E5E000E1F5A7F0E64
:1032D8001E24276E000E1F20286E16C022F017C06D
:1032E80023F018C024F019C025F0000E166E000E49
:1032F800176E000E186E000E196E000E296E000E65
:103308002A6E000E2B6E000E2C6E000E2E6EC5EF70
:1033180019F02E50D8B493EF19F095EF19F0ACEFDF
:1033280019F0D8902236233624362536D89016360A
:103338001736183619362CAEA4EF19F0A6EF19F087
:10334800A7EF19F01680D89029362A362B362C3656
:103358001A50225C1B5023581C5024581D502558C5
:10336800D8A0B9EF19F0BBEF19F0C4EF19F02C8C05
:103378001A50225E1B50235A1C50245A1D50255A9D
:103388002E2A190E2E64CBEF19F0CDEF19F08DEF20
:1033980019F02250231024102510D8B4D6EF19F0B4
:1033A800D8EF19F0F0EF19F02980F0EF19F0D89064
:1033B80016361736183619362CAEE5EF19F0E7EF42
:1033C80019F0E8EF19F01680D89029362A362B36EE
:1033D8002C362706D8A0280618AEF5EF19F0F7EF17
:1033E80019F0DBEF19F0000E2E6E2CAEFEEF19F07F
:1033F80000EF1AF024EF1AF0FF0E29141E6EFF0ECC
:103408002A141F6EFF0E2B14206E7F0E2C14216EB3
:103418001E501F1020102110D8B415EF1AF017EF06
:103428001AF01BEF1AF0010E2E6E24EF1AF016A0F8
:1034380020EF1AF022EF1AF024EF1AF017EF1AF023
:103448002E50D8B42AEF1AF02CEF1AF050EF1AF0D9
:10345800010E1626000E17221822192219A037EF7E
:103468001AF039EF1AF050EF1AF016C01EF017C014
:103478001FF018C020F019C021F021342132203269
:103488001F321E321EC016F01FC017F020C018F0E1
:1034980021C019F0274A282A28BE5BEF1AF02850C5
:1034A80008E12728D8A05BEF1AF05DEF1AF068EF63
:1034B8001AF0000E286E2768000E166E000E176EA2
:1034C800000E186E000E196E28BE75EF1AF02850FF
:1034D80006E12704D8B073EF1AF075EF1AF083EFFE
:1034E8001AF0000E286E000E276E000E166E000EE3
:1034F800176E000E186E000E196E000E266E27C08D
:103508002DF02DA08AEF1AF08CEF1AF08FEF1AF039
:10351800188E90EF1AF0189ED8902D30196E46EF3D
:1035280019F0120025C03DF026C03EF027C03FF03C
:1035380028C040F029C041F02AC042F02BC043F017
:103548002CC044F044BEABEF1AF0AEEF1AF0010EF7
:10355800AFEF1AF0000E3B6E3C6A3B503C10D8B4FB
:10356800B8EF1AF0BAEF1AF0CAEF1AF0441E431E69
:10357800421E411E401E3F1E3E1E3D6C000E3E2256
:103588003F22402241224222432244220001F0BF2E
:10359800D0EF1AF0D2EF1AF0D3EF1AF05092F0BF32
:1035A800E0EF1AF0F05106E1EF05D8B0DEEF1AF0BF
:1035B800E0EF1AF0E6EF1AF0000E386E010E376EE3
:1035C800EAEF1AF0EFC037F0F0C038F01EC139F05A
:1035D8001FC13AF03B503C10D8A4F5EF1AF0F7EFB2
:1035E8001AF0FEEF1AF050A4FCEF1AF0FEEF1AF0F2
:1035F80001EF1BF03906D8A03A06000E466E4F0EB2
:10360800456E000E0101746F86EF1BF04506D8A0C9
:103618004606250E4524D96E010E4620DA6E3DC0B9
:1036280008F03EC009F03FC00AF040C00BF041C0AE
:103638000CF042C00DF043C00EF044C00FF00A0E6B
:10364800106E000E116E000E126E000E136E000E3C
:10365800146E000E156E000E166E000E176EC7EC77
:1036680022F008C02DF009C02EF00AC02FF00BC0C0
:1036780030F00CC031F00DC032F00EC033F00FC086
:1036880034F02DC01AF02FC01BF04AEC2FF01A505E
:10369800300FDF6E3706D8A038063906D8A03A06AC
:1036A8003DC008F03EC009F03FC00AF040C00BF032
:1036B80041C00CF042C00DF043C00EF044C00FF002
:1036C8000A0E106E000E116E000E126E000E136EB2
:1036D800000E146E000E156E000E166E000E176E9C
:1036E80048EC21F008C03DF009C03EF00AC03FF0A8
:1036F8000BC040F00CC041F00DC042F00EC043F0CA
:103708000FC044F046BE91EF1BF0465008E1450457
:10371800D8A091EF1BF093EF1BF0C3EF1BF03D50C7
:103728003E103F1040104110421043104410D8A4DE
:10373800A0EF1BF0A2EF1BF00AEF1BF038BEAFEFB3
:103748001BF0385006E13704D8B0ADEF1BF0AFEFEF
:103758001BF00AEF1BF03ABEBAEF1BF03A5008E133
:103768003904D8A0BAEF1BF0BCEF1BF0C3EF1BF075
:1037780050B2C1EF1BF0C3EF1BF00AEF1BF03B5038
:103788003C10D8A4CAEF1BF0CCEF1BF0D3EF1BF012
:1037980050A4D1EF1BF0D3EF1BF0F1EF1BF045065F
:1037A800D8A046063B503C10D8A4DDEF1BF0DFEF55
:1037B8001BF0E5EF1BF0000E366E2B0E356EE9EFB1
:1037C8001BF0000E366E2D0E356E250E4524D96E73
:1037D800010E4620DA6E35C0DFFF23C018F024C082
:1037E80019F0250E45241A6E010E46201B6E39C0AD
:1037F8001CF03AC01DF0CCEC29F018C023F019C019
:1038080024F0120014C13FF015C140F016C141F078
:1038180017C142F02FC03FF030C040F031C041F036
:1038280032C042F0810E336EFF0E346E3FC035F069
:1038380040C036F041C037F042C038F0180E2AEFC9
:103848001CF0D8903832373236323532E82E25EF30
:103858001CF0355033243D6E000E34203E6E3EBEC3
:103868003FEF1CF03E5009E1170E3D5CD8A03FEF3A
:103878001CF041EF1CF04BEF1CF02FC02FF030C0B4
:1038880030F031C031F032C032F00EEF1DF03EBEE4
:1038980050EF1CF052EF1CF0C2EF1CF03DC033F0AB
:1038A800FF0E346EFF0E356E7F0E366E000E376ECD
:1038B800336661EF1CF069EF1CF03734373236326B
:1038C80035323432332E5CEF1CF034C039F035C059
:1038D8003AF036C03BF037C03CF039503F14336EF5
:1038E8003A504014346E3B504114356E3C504214EB
:1038F800366E3350341035103610D8A486EF1CF0CD
:1039080088EF1CF08AEF1CF041EF1CF03FC033F049
:1039180040C034F041C035F042C036F0200E9AEF76
:103928001CF0D8903632353234323332E82E95EFE7
:103938001CF03350341035103610D8B4A6EF1CF0F4
:10394800A8EF1CF0B0EF1CF039503F263A50402247
:103958003B5041223C504222391C336E3A1C346E93
:103968003B1C356E3C1C366E33503F1634504016A7
:10397800355041163650421606EF1DF03FC033F061
:1039880040C034F041C035F042C036F0200ED2EFCE
:103998001CF0D8903632353234323332E82ECDEF3F
:1039A8001CF03350341035103610D8A4DEEF1CF05C
:1039B800E0EF1CF0EAEF1CF0000E3F6E000E406EC8
:1039C800000E416E000E426E06EF1DF0D8903F3497
:1039D800336E4034346E4134356E4234366E335073
:1039E800341035103610D8B4FCEF1CF0FEEF1CF084
:1039F80006EF1DF0000E3F6E000E406E800E416E09
:103A0800BF0E426E3FC02FF040C030F041C031F0D1
:103A180042C032F0120020EE01F01650D92617509D
:103A2800DA22DF50D8B41BEF1DF01DEF1DF04EEF6A
:103A38001DF016C0D9FF17C0DAFFDF50186E1850F6
:103A4800086E096A20EE07F01650D9261750DA22B8
:103A5800DECF0AF0DDCF0BF02FEC30F008C00EF00F
:103A680009C00FF0000E116E640E106E6AEC29F09A
:103A780020EE07F01650D9261750DA22DECF19F0BB
:103A8800DDCF1AF00E50195C1F6E0F501A58206EB9
:103A980071EF1DF016C0D9FF17C0DAFFDF50186E9E
:103AA8001850086E096A20EE07F01650D9261750EC
:103AB800DA22DECF0AF0DDCF0BF02FEC30F008C0B1
:103AC8000EF009C00FF0000E116E640E106E6AEC55
:103AD80029F00EC01FF00FC020F020EE02F01650A3
:103AE800D9261750DA22DECF18F0DDCF19F018C02A
:103AF800D9FF19C0DAFF1FC0DFFF20EE01F0165012
:103B0800D9261750DA22DF50D8B48DEF1DF08FEF89
:103B18001DF0C4EF1DF020EE04F01650D926175002
:103B2800DA22DECF18F0DDCF19F018C0D9FF19C09E
:103B3800DAFF10EE04F01650E1261750E222E6CF25
:103B48001AF0E5CF1BF01AC0E1FF1BC0E2FFE750F7
:103B58001C6E10EE06F01650E1261750E222E750D0
:103B68001D6E010E1E6E1D2ABCEF1DF0D8901E366C
:103B78001D2EBAEF1DF01E501C10DF6EF8EF1DF061
:103B880020EE04F01650D9261750DA22DECF18F0AE
:103B9800DDCF19F018C0D9FF19C0DAFF10EE04F014
:103BA8001650E1261750E222E6CF1AF0E5CF1BF0B7
:103BB8001AC0E1FF1BC0E2FFE7501C6E10EE06F0D2
:103BC8001650E1261750E222E7501D6E010E1E6EB8
:103BD8001D2AF1EF1DF0D8901E361D2EEFEF1DF0B7
:103BE8001E50FF0A1C14DF6E1200106E1050D8B45D
:103BF80000EF1EF002EF1EF024EF1EF00BBE09EFDF
:103C08001EF007EF1EF024EF1EF008C00CF009C0EC
:103C18000DF00AC00EF00BC00FF00C1E0D1E0E1E8C
:103C28000F1E0C2A000E0D220E220F220CC012F0BD
:103C38000DC013F00EC014F00FC015F02CEF1EF0DD
:103C480008C012F009C013F00AC014F00BC015F038
:103C5800085009100A100B10D8A435EF1EF037EFE2
:103C68001EF041EF1EF0000E086E000E096E000EE9
:103C78000A6E000E0B6ED2EF1EF0960E116E4BEF11
:103C88001EF0112AD8901532143213321232000E57
:103C980012140C6E000E13140D6E000E14140E6E1A
:103CA800FE0E15140F6E0C500D100E100F10D8A428
:103CB80060EF1EF062EF1EF045EF1EF070EF1EF091
:103CC800112A010E1226000E132214221522D89052
:103CD8001532143213321232000E12140C6E000E0A
:103CE80013140D6E000E14140E6EFF0E15140F6EC5
:103CF8000C500D100E100F10D8A485EF1EF087EF92
:103D08001EF064EF1EF08FEF1EF01106D8901236E9
:103D180013361436153614BE94EF1EF096EF1EF0C7
:103D28009EEF1EF0020E11609CEF1EF09EEF1EF03B
:103D380089EF1EF011B0A3EF1EF0A5EF1EF0A6EF5D
:103D48001EF0149ED890113211C00CF00D6A0E6A44
:103D58000F6A0CC00FF00E6A0D6A0C6A0C50121232
:103D68000D5013120E5014120F5015121050D8B4D3
:103D7800C0EF1EF0C2EF1EF0CAEF1EF00BBEC9EF77
:103D88001EF0C7EF1EF0CAEF1EF0158E12C008F025
:103D980013C009F014C00AF015C00BF01200000E91
:103DA8001A6E000E1B6E480E1C6E410E1D6E43C02F
:103DB80008F044C009F00A6A0B6A000EF9EC1DF01D
:103DC80008C016F009C017F00AC018F00BC019F0A7
:103DD800B4EC16F016C02FF017C030F018C031F050
:103DE80019C032F0000E336E000E346E070E356EB9
:103DF800C30E366E54EC14F02FC046F030C047F0B6
:103E080031C048F032C049F020EE01F03F50D926C9
:103E18004050DA22000EDF6E20EE01F04150D92624
:103E28004250DA22010EDF6E5DEF1FF07EA01FEF19
:103E38001FF023EF1FF0456A452A24EF1FF0456A5B
:103E48007E504518FE0B45187E6E3FC0D9FF40C016
:103E5800DAFF280EDF6033EF1FF035EF1FF03BEF7E
:103E68001FF03FC0D9FF40C0DAFF0A0EDF2641C06D
:103E7800D9FF42C0DAFF280EDF6045EF1FF047EF99
:103E88001FF04DEF1FF041C0D9FF42C0DAFF0A0E04
:103E9800DF263FC016F040C017F00FEC1DF041C000
:103EA80016F042C017F00FEC1DF0A00E00D0E82E5F
:103EB800FDD73FC0D9FF40C0DAFF270EDF6467EFA8
:103EC8001FF069EF1FF01AEF1FF041C0D9FF42C081
:103ED800DAFF270EDF6473EF1FF075EF1FF01AEF9C
:103EE8001FF0000E4B6E000E4A6E85EF1FF0150E88
:103EF800456EC60EE82EFED7452EFCD700D04A4A9E
:103F08004B2A4AC008F04BC009F00A6A0B6A000E37
:103F1800F9EC1DF008C02FF009C030F00AC031F0EC
:103F28000BC032F046C033F047C034F048C035F01B
:103F380049C036F029EC27F0D8A0A5EF1FF0A7EF6D
:103F48001FF07BEF1FF07E901200000E1D6E000E1A
:103F58001C6E000E166E000E156EB5EF1FF00F4AA0
:103F6800102A010E1B6E0FC0F6FF10C0F7FF000EDF
:103F7800F86E0800F550200AD8B4C5EF1FF0C7EF57
:103F88001FF0E6EF1FF0F70E116EFF0E126E0FC056
:103F9800F6FF10C0F7FF000EF86E0800F550136E1C
:103FA800146A1150132612501422145009E1050EF8
:103FB800135CD8A0E2EF1FF0E4EF1FF0E6EF1FF06C
:103FC800000E1B6E1BC017F0186A17501810D8A4E3
:103FD800F0EF1FF0F2EF1FF0B3EF1FF0FCEF1FF050
:103FE800000E166E010E156E0F4A102A35EF20F0DE
:103FF8000FC0F6FF10C0F7FF000EF86E0800F5506E
:10400800116E126A1250000AD8B40DEF20F035EF85
:1040180020F011502B0AD8B4F8EF1FF0060AD8B4D4
:10402800F4EF1FF035EF20F01CC008F01DC009F0B8
:10403800000E0B6E0A0E0A6E2FEC30F00FC0F6FF62
:1040480010C0F7FF000EF86E0800F550085E000E6D
:10405800095A300E08241C6E000E09201D6EF8EF58
:104068001FF0D00E116EFF0E126E0FC0F6FF10C0BB
:10407800F7FF000EF86E0800F550136E146A115021
:1040880013261250142214500AE10A0E135CD8A009
:1040980050EF20F053EF20F0010E54EF20F0000E07
:1040A800196E1A6A19501A10D8A45DEF20F05FEF44
:1040B80020F018EF20F015501610D8A466EF20F065
:1040C80068EF20F076EF20F01CC011F01DC012F050
:1040D800111E121E114A122A11C00FF012C010F040
:1040E8007AEF20F01CC00FF01DC010F0120021EE76
:1040F800D2F010EE16F0060EDBCFE3FFE806FCE286
:1041080013C021F014C022F021502210D8A48FEF40
:1041180020F091EF20F095EF20F0160E216E000EA2
:10412800226E21C008F022C009F034EC2DF008C03E
:1041380025F009C026F0EFC023F0F0C024F024BE1B
:10414800A8EF20F0AAEF20F0BFEF20F02550235C65
:104158002450800A156E2650800A1558D8A0B7EF4B
:1041680020F0B9EF20F0BBEF20F0BFEF20F023C024
:1041780025F024C026F025C023F026C024F01EC157
:104188001FF01FC120F050B0CCEF20F0CEEF20F090
:10419800EBEF20F0DCEF20F0000E096E200E086E29
:1041A80011C00AF012C00BF005EC29F0254A262AA6
:1041B8001F50255C2650800A156E2050800A15581D
:1041C800D8A0E9EF20F0EBEF20F0D0EF20F0000EC0
:1041D8001E6E000E1D6E10EF21F021C0F6FF22C0EA
:1041E800F7FF000EF86E0D0EF76403D00800F550C7
:1041F80005D0F6CFE1FFF7CFE2FFE750156E155077
:10420800086E096A11C00AF012C00BF005EC29F01B
:10421800214A222A1D4A1E2A23501D5C1E50800A4C
:10422800156E2450800A1558D8A01DEF21F01FEFF5
:1042380021F0F1EF20F050A024EF21F026EF21F03B
:1042480043EF21F034EF21F0000E096E200E086EC6
:1042580011C00AF012C00BF005EC29F0254A262AF5
:104268001F50255C2650800A156E2050800A15586C
:10427800D8A041EF21F043EF21F028EF21F025C02D
:1042880011F026C012F01200000E196E17BE51EF81
:1042980021F04FEF21F063EF21F0171E161E151EB7
:1042A800141E131E121E111E106C000E1122122253
:1042B80013221422152216221722010E196E0FBE80
:1042C8006AEF21F068EF21F07CEF21F00F1E0E1E3F
:1042D8000D1E0C1E0B1E0A1E091E086C000E09225C
:1042E8000A220B220C220D220E220F22010E191A6D
:1042F80020EE1AF0070EDE6AE806FDE210501110F3
:10430800121013101410151016101710D8B48FEFC0
:1043180021F091EF21F0E3EF21F0010E186E9FEFED
:1043280021F0D89010361136123613361436153659
:1043380016361736182A17AEA4EF21F0A6EF21F08B
:1043480095EF21F0D8901A361B361C361D361E36CE
:104358001F36203621361050085C1150095812506B
:104368000A5813500B5814500C5815500D58165025
:104378000E5817500F58D8A0C4EF21F0C6EF21F0FF
:10438800D7EF21F01050085E1150095A12500A5AFE
:1043980013500B5A14500C5A15500D5A16500E5AE9
:1043A80017500F5A1A80D890173216321532143215
:1043B8001332123211321032182EA6EF21F0195092
:1043C800D8B4E9EF21F0EBEF21F0FBEF21F0211E4B
:1043D800201E1F1E1E1E1D1E1C1E1B1E1A6C000EDC
:1043E8001B221C221D221E221F22202221221AC02B
:1043F80008F01BC009F01CC00AF01DC00BF01EC05D
:104408000CF01FC00DF020C00EF021C00FF01200FC
:104418002FC0D9FF30C0DAFFDECF33F0DDCF34F064
:1044280020EE02F02F50D9263050DA22DECF35F0B8
:10443800DDCF36F020EE04F02F50D9263050DA22A6
:10444800DECF37F0DDCF38F020EE06F02F50D9263A
:104458003050DA22DECF39F0DDCF3AF033C008F041
:1044680034C009F00A6A0B6A000EF9EC1DF008C0A6
:1044780016F009C017F00AC018F00BC019F039C0BF
:1044880008F03AC009F00A6A0B6A000EF9EC1DF050
:1044980008C01AF009C01BF00AC01CF00BC01DF0C0
:1044A800C9EC18F031C0D9FF32C0DAFF16C0DEFF00
:1044B80017C0DEFF18C0DEFF19C0DEFF35C008F0E8
:1044C80036C009F00A6A0B6A000EF9EC1DF008C044
:1044D80016F009C017F00AC018F00BC019F039C05F
:1044E80008F03AC009F00A6A0B6A000EF9EC1DF0F0
:1044F80008C01AF009C01BF00AC01CF00BC01DF060
:10450800C9EC18F020EE04F03150D9263250DA22E6
:1045180016C0DEFF17C0DEFF18C0DEFF19C0DEFFC1
:1045280037C008F038C009F00A6A0B6A000EF9ECC7
:104538001DF008C016F009C017F00AC018F00BC02B
:1045480019F039C008F03AC009F00A6A0B6A000E7F
:10455800F9EC1DF008C01AF009C01BF00AC01CF0E5
:104568000BC01DF0C9EC18F020EE08F03150D92628
:104578003250DA2216C0DEFF17C0DEFF18C0DEFF99
:1045880019C0DEFF1200000E196E0FBED0EF22F028
:10459800CEEF22F0E2EF22F00F1E0E1E0D1E0C1EB3
:1045A8000B1E0A1E091E086C000E09220A220B2285
:1045B8000C220D220E220F22010E196E17BEE9EFF2
:1045C80022F0E7EF22F0F9EF22F0171E161E151E53
:1045D800141E131E121E111E106C000E1122122220
:1045E800132214221522162217221050111012100D
:1045F80013101410151016101710D8B406EF23F066
:1046080008EF23F050EF23F0010E186E16EF23F099
:10461800D89010361136123613361436153616362B
:104628001736182A17AE1BEF23F01DEF23F00CEFF7
:1046380023F01050085C1150095812500A581350B2
:104648000B5814500C5815500D5816500E5817503A
:104658000F58D8A032EF23F034EF23F044EF23F0C3
:104668001050085E1150095A12500A5A13500B5A2A
:1046780014500C5A15500D5A16500E5A17500F5AFE
:10468800D8901732163215321432133212321132D0
:104698001032182E1DEF23F01950D8B456EF23F01E
:1046A80058EF23F068EF23F00F1E0E1E0D1E0C1E90
:1046B8000B1E0A1E091E086C000E09220A220B2274
:1046C8000C220D220E220F2208C008F009C009F0A2
:1046D8000AC00AF00BC00BF00CC00CF00DC00DF0B6
:1046E8000EC00EF00FC00FF01200000E42EC30F0BA
:1046F800090E196E1E0E186EE40EE82EFED7182E3F
:10470800FCD7192EFAD700D01704D8A48EEF23F0BF
:1047180090EF23F0BEEF23F07F82520E196E2B0E1E
:10472800186E000EE82EFED7182EFCD7192EFAD7D1
:1047380000D015C013F016C014F087EC2CF0520E00
:10474800196E2B0E186E000EE82EFED7182EFCD709
:10475800192EFAD700D07F92020E196EA00E186E8D
:10476800920EE82EFED7182EFCD7192EFAD700D0B5
:1047780014EF24F0020E1718D8A4C5EF23F0C7EFE2
:1047880023F0E9EF23F07988520E196E2B0E186E7C
:10479800000EE82EFED7182EFCD7192EFAD700D017
:1047A80015C013F016C014F087EC2CF0520E196ED9
:1047B8002B0E186E000EE82EFED7182EFCD7192ED9
:1047C800FAD700D07998B0EF23F0030E1718D8A4C1
:1047D800F0EF23F0F2EF23F014EF24F07E8E520E68
:1047E800196E2B0E186E000EE82EFED7182EFCD769
:1047F800192EFAD700D015C013F016C014F087ECA4
:104808002CF0520E196E2B0E186E000EE82EFED7E5
:10481800182EFCD7192EFAD700D07E9EB0EF23F0C1
:10482800010E42EC30F0090E196E1E0E186EE40EE1
:10483800E82EFED7182EFCD7192EFAD700D0120072
:104848008EA429EF24F02BEF24F032EF24F08EB65B
:1048580030EF24F032EF24F024EF24F07C864CC0B3
:1048680060F04DC061F04EC062F04FC063F0010EC1
:104878000001656F680E646F4CEC2EF0520E00015B
:10488800676F2B0E666F000EE82EFED7662FFCD7DB
:10489800672FFAD700F04CC021F04DC022F04EC06F
:1048A80023F04FC024F0B8EC2BF08EA45EEF24F078
:1048B80060EF24F067EF24F08EB665EF24F067EF21
:1048C80024F059EF24F0520E0001676F2B0E666F2B
:1048D800000EE82EFED7662FFCD7672FFAD700F018
:1048E800DAEC2AF07C968EA47CEF24F07EEF24F09C
:1048F80085EF24F08EB683EF24F085EF24F077EF70
:1049080024F07C864CC060F04DC061F04EC062F06F
:104918004FC063F0010E0001656F680E646F24ECF0
:104928002EF0520E0001676F2B0E666F000EE82EF8
:10493800FED7662FFCD7672FFAD700F04CC021F0BE
:104948004DC022F04EC023F04FC024F0B8EC2BF03D
:104958008EA4B1EF24F0B3EF24F0BAEF24F08EB6B2
:10496800B8EF24F0BAEF24F0ACEF24F0520E0001B7
:10497800676F2B0E666F000EE82EFED7662FFCD7EA
:10498800672FFAD700F0DAEC2AF07C96120025C0DF
:1049980027F026C028F0D89027362836D890273612
:1049A8002836D89027362836B40E2724296E000ECC
:1049B80028202A6E20EE01F02150D9262250DA2232
:1049C800010EDF6E20EE01F02350D9262450DA22A2
:1049D800000EDF6E33EF25F080A0F5EF24F0F9EF3D
:1049E80024F0276A272AFAEF24F0276A805027182C
:1049F800FE0B2718806E21C0D9FF22C0DAFF280ECF
:104A0800DF6009EF25F00BEF25F011EF25F021C04D
:104A1800D9FF22C0DAFF0A0EDF2623C0D9FF24C03F
:104A2800DAFF280EDF601BEF25F01DEF25F023EFDE
:104A380025F023C0D9FF24C0DAFF0A0EDF2621C0E3
:104A480016F022C017F00FEC1DF023C016F024C09A
:104A580017F00FEC1DF0A00E00D0E82EFDD721C0F6
:104A6800D9FF22C0DAFF270EDF643DEF25F03FEFC4
:104A780025F0F0EF24F023C0D9FF24C0DAFF270E79
:104A8800DF6449EF25F04BEF25F0F0EF24F0000E3E
:104A98002C6E000E2B6E5BEF25F0150E276EC60EE2
:104AA800E82EFED7272EFCD700D02B4A2C2A2950D7
:104AB8002B5C2A502C58D8A064EF25F066EF25F01F
:104AC80051EF25F0150E276EC60EE82EFED7272EBD
:104AD800FCD700D0809012008EB475EF25F077EFE8
:104AE80025F070EF25F07C86010E42EC30F07C8ECC
:104AF800520E0001EC6F2B0EEB6F000EE82EFED766
:104B0800EB2FFCD7EC2FFAD700F0A80E136E010E8E
:104B1800146E87EC2CF0520E0001EC6F2B0EEB6F2D
:104B2800000EE82EFED7EB2FFCD7EC2FFAD700F0BB
:104B38007C9E000E0101A76F8EB4A5EF25F0A7EFAC
:104B480025F0A0EF25F07C8EB00E136E010E146ECA
:104B580087EC2CF00101AE51B65DAF51B759D8B012
:104B6800B8EF25F0BAEF25F0CBEF25F0B651525C3F
:104B7800B7515358D8B0C3EF25F0C5EF25F0CBEFA8
:104B880025F0B6C152F0B7C153F0E5EF25F0B651A4
:104B9800AE5DB751AF59D8B0D4EF25F0D6EF25F0B8
:104BA800E5EF25F05550B65D5650B759D8B0DFEF50
:104BB80025F0E1EF25F0E5EF25F0B6C155F0B7C1D6
:104BC80056F0A80E0001E56F010EE66FB00EE76F14
:104BD800010EE86F9BEC28F0090E0001EC6F1E0E29
:104BE800EB6FE40EE82EFED7EB2FFCD7EC2FFAD7AD
:104BF80000F07C9E0101A72B070EA76506EF26F0A3
:104C080008EF26F0A0EF25F07C96000E42EC30F07D
:104C18001200000E0101DA6F640ED96F000E536E98
:104C2800000E526E7F0E566E5568000E246F000EF1
:104C38000001F26F000EF16F000E0101C06F010E4E
:104C4800C16FA30EC26F0F0EC36F7D0EC46F0F0E20
:104C5800C56F040EC66F000EC86F630EC76F000ED7
:104C6800C96F010ECA6FA00ECB6F0F0ECC6F7F0EEF
:104C7800CD6F0F0ECE6F060ECF6F000ED16F630E85
:104C8800D06FB0EC30F06AEC2FF0630EFCEC2DF036
:104C980083EC30F073EC30F070EC25F0C00E4C6E05
:104CA800010E4D6EC90E4E6E010E4F6E24EC24F0AF
:104CB8008EA461EF26F063EF26F06AEF26F08EB639
:104CC80068EF26F06AEF26F05CEF26F07C86010E8E
:104CD80042EC30F0520E0001EE6F2B0EED6F000E1D
:104CE800E82EFED7ED2FFCD7EE2FFAD700F053ECC5
:104CF80030F0C00E216E010E226EC90E236E010E19
:104D0800246E71EC2BF001012405D8A48EEF26F057
:104D180090EF26F087EF26F0B80E0001666F010EBF
:104D2800676FC00E686F010E696FC90E6A6F010E5A
:104D38006B6F89EC0DF0000E0101246F87EF26F0F0
:104D480013EF00F00A340B34116E1150D8A4AFEFF2
:104D580026F0B1EF26F0BBEF26F0000E086E000E2D
:104D6800096E000E0A6E000E0B6E28EF27F008C0C1
:104D78000CF009C00DF00AC00EF00BC00FF0200EA9
:104D8800CBEF26F0D8900F320E320D320C32E82ECF
:104D9800C6EF26F00C50106E0A8EFF0E0816FF0E96
:104DA8000916FF0E0A16000E0B16960E115E11BE9E
:104DB800E2EF26F0E0EF26F0F8EF26F01150800A37
:104DC800970FD8B0EAEF26F0ECEF26F0EEEF26F0DA
:104DD800B1EF26F0D8900B320A3209320832113E70
:104DE800EEEF26F010EF27F01F0E1164FEEF26F00D
:104DF80000EF27F008EF27F0B1EF26F0D89008363B
:104E080009360A360B3611061150D8A40EEF27F0D2
:104E180010EF27F002EF27F01050D8B416EF27F064
:104E280018EF27F020EF27F00B1E0A1E091E086C4A
:104E3800000E09220A220B2208C008F009C009F056
:104E48000AC00AF00BC00BF01200000E2F14376EC8
:104E5800000E3014386E800E3114396E7F0E321405
:104E68003A6E3750381039103A10D8A43EEF27F070
:104E780040EF27F048EF27F0000E2F6E000E306E3F
:104E8800000E316E000E326E000E3314376E000EB7
:104E98003414386E800E3514396E7F0E36143A6E1F
:104EA8003750381039103A10D8A45DEF27F05FEF6B
:104EB80027F067EF27F0000E336E000E346E000EF9
:104EC800356E000E366E32AE6CEF27F06EEF27F0BF
:104ED80077EF27F02F6C301ED8B0302A311ED8B0AB
:104EE800312A800E325636AE7CEF27F07EEF27F05F
:104EF80087EF27F0336C341ED8B0342A351ED8B06B
:104F0800352A800E3656000E2F1A000E301A000E63
:104F1800311A800E321A000E331A000E341A000E9F
:104F2800351A800E361A33502F5C345030583550AD
:104F3800315836503258D8B0A4EF27F0A6EF27F0F2
:104F4800A9EF27F0D890AAEF27F0D880120018C14F
:104F580012F019C113F01AC114F01BC115F008C0E2
:104F680012F009C013F00AC014F00BC015F012C0FB
:104F78000CF013C00DF014C00EF015C00FF0180E91
:104F8800CBEF27F0D8900F320E320D320C32E82ECC
:104F9800C6EF27F00C50106E116A10501110D8A4EB
:104FA800D8EF27F0DAEF27F0FAEF27F0D89012348D
:104FB8000C6E13340D6E14340E6E15340F6E0C50C7
:104FC8000D100E100F10D8A4ECEF27F0EEEF27F01D
:104FD800F4EF27F0000E096E020E086E29EF28F094
:104FE800000E096E030E086E29EF28F01028111024
:104FF800D8A401EF28F003EF28F025EF28F012C01D
:105008000CF013C00DF014C00EF015C00FF0090E0F
:10501800D8900C360D360E360F36E82E0CEF28F0E9
:105028000C500D100E100F10D8B41DEF28F020EF03
:1050380028F0010E21EF28F0000E086E096A29EF0A
:1050480028F0000E096E040E086E120008C00FF05A
:1050580009C010F00AC011F00BC012F00C06D8A05D
:105068000D060C2806E10D28D8A43DEF28F03FEFE7
:1050780028F04CEF28F0000E096E000E086E9AEF2B
:1050880028F00F4A102A114A122A0C06D8A00D0639
:105098000FC0D9FF10C0DAFFDF50D8B456EF28F0A0
:1050A80058EF28F087EF28F011C0F6FF12C0F7FF7D
:1050B800000EF86E0800F5500009D8B466EF28F025
:1050C80068EF28F087EF28F00C500D10D8B46FEF78
:1050D80028F071EF28F087EF28F00FC0D9FF10C033
:1050E800DAFFDF500E6E11C0F6FF12C0F7FF000E98
:1050F800F86E0800F5500E18D8B485EF28F087EF41
:1051080028F045EF28F00FC0D9FF10C0DAFFDF50B4
:105118000E6E11C0F6FF12C0F7FF000EF86E080001
:10512800F5500E5C086E096AD8A009061200000145
:1051380020EE06F0E551D926E651DA22DECF9DF1C0
:10514800DDCF9EF1E7C0D9FFE8C0DAFFDECF9FF1DF
:10515800DDCFA0F120EE02F0E751D926E851DA229E
:10516800DECFA1F1DDCFA2F120EE04F0E751D92680
:10517800E851DA22DECFA3F1DDCFA4F120EE06F06C
:10518800E751D926E851DA22DECFA5F1DDCFA6F125
:10519800750EC36F010EC46F410EC56F0E0EC66F3C
:1051A8009FC1C7F0A0C1C8F0A1C1C9F0A2C1CAF08F
:1051B800A3C1CBF0A4C1CCF0A5C1CDF0A6C1CEF05F
:1051C80052C0CFF053C0D0F09DC1D1F09EC1D2F0F3
:1051D80055C0D3F056C0D4F0E2EC2CF0750E096E31
:1051E800010E0A6EDAEC2FF0290E0001EA6F960E16
:1051F800E96F7F0EE82EFED7E92FFCD7EA2FFAD702
:1052080012000A500B10D8B40CEF29F00EEF29F059
:1052180017EF29F00A500B10D8A415EF29F017EF53
:1052280029F01CEF29F0085028EC31F069EF29F03B
:1052380020EE04F00A50D9260B50DA22DE50DE1098
:10524800D8B429EF29F02BEF29F046EF29F020EE0A
:1052580004F00A50D9260B50DA2210EE02F00A5058
:10526800E1260B50E222DE50E65CE650800A106E22
:10527800DE50800A1058D8B044EF29F046EF29F0E4
:1052880069EF29F020EE02F00A50D9260B50DA22F5
:10529800DECF0CF0DDCF0DF00AC0D9FF0BC0DAFF6E
:1052A800DECF0EF0DDCF0FF00C500E24D96E0D506E
:1052B8000F20DA6E08C0DFFF20EE02F00A50D92670
:1052C8000B50DA22DE2A000EDD221200000E136EC9
:1052D80011BE73EF29F071EF29F079EF29F0106C06
:1052E800111ED8B0112A010E136E0FBE80EF29F0DF
:1052F8007EEF29F086EF29F00E6C0F1ED8B00F2A2A
:10530800010E131A000E156E000E146E10501110B7
:10531800D8B491EF29F093EF29F0BBEF29F0010EF3
:10532800126E9BEF29F0D89010361136122A11AE62
:10533800A0EF29F0A2EF29F097EF29F0D8901436C2
:10534800153610500E5C11500F58D8A0AEEF29F04A
:10535800B0EF29F0B5EF29F010500E5E11500F5A3A
:105368001480D89011321032122EA2EF29F0135067
:10537800D8B4C1EF29F0C3EF29F0C7EF29F0146CB6
:10538800151ED8B0152A14C00EF015C00FF0120063
:1053980050A0D1EF29F0D3EF29F0DDEF29F01AC0A2
:1053A80011F01BC012F018C013F019C014F0E5EC8E
:1053B8002EF01DBEE2EF29F0E4EF29F0EAEF29F024
:1053C8001CC021F01DC022F0EEEF29F0000E226E65
:1053D800000E216E000E206E000E1F6E00EF2AF0E8
:1053E800000E096E200E086E18C00AF019C00BF0E6
:1053F80005EC29F01F4A202A21501F5C2050800A02
:105408001E6E2250800A1E58D8A00DEF2AF00FEF0A
:105418002AF0F4EF29F050B014EF2AF016EF2AF032
:1054280020EF2AF01AC011F01BC012F018C013F0B8
:1054380019C014F0E5EC2EF01AC008F01BC009F0F2
:1054480034EC2DF021500824186E22500920196ED2
:105458001200000E0D6E09BE36EF2AF034EF2AF066
:105468003CEF2AF0086C091ED8B0092A010E0D6E0F
:105478000BBE43EF2AF041EF2AF047EF2AF00A6CFF
:105488000B1ED8B00B2A0A500B10D8B44EEF2AF0D6
:1054980050EF2AF074EF2AF0010E0C6E58EF2AF044
:1054A800D8900A360B360C2A0BAE5DEF2AF05FEF68
:1054B8002AF054EF2AF00A50085C0B500958D8A07B
:1054C80068EF2AF06AEF2AF06EEF2AF00A50085EB9
:1054D8000B50095AD8900B320A320C2E5FEF2AF083
:1054E8000D50D8B47AEF2AF07CEF2AF080EF2AF03A
:1054F800086C091ED8B0092A08C008F009C009F0CC
:105508001200000E0814106E000E0914116E800EA1
:105518000A14126E7F0E0B14136E10501110121015
:105528001310D8A49AEF2AF09CEF2AF0A4EF2AF0DF
:10553800000E086E000E096E000E0A6E000E0B6E4D
:10554800000E0C14106E000E0D14116E800E0E1449
:10555800126E7F0E0F14136E1050111012101310CC
:10556800D8A4B9EF2AF0BBEF2AF0C3EF2AF0000E57
:105578000C6E000E0D6E000E0E6E000E0F6E0C50AF
:1055880008180FE10D5009180CE10E500A1809E12E
:105598000F500B18D8B4D3EF2AF0D5EF2AF0D8EF74
:1055A8002AF0D890D9EF2AF0D8801200000E0A6E9F
:1055B8008EA4E1EF2AF0E3EF2AF004EF2BF07C8EC3
:1055C800050E0101D927000EDA23090E096E1E0EF9
:1055D800086EE40EE82EFED7082EFCD7092EFAD75F
:1055E80000D07C9E520E096E2B0E086E000EE82E1F
:1055F800FED7082EFCD7092EFAD700D020EF2BF0C3
:105608008EA609EF2BF00BEF2BF020EF2BF0808606
:10561800050E0101D95F000EDA5B090E096E1E0E38
:10562800086EE40EE82EFED7082EFCD7092EFAD70E
:1056380000D08096F6EF2AF00A2A090E0A6427EFAE
:105648002BF029EF2BF0DCEF2AF0120020EE01F00E
:105658002150D9262250DA22000EDF6E20EE01F00A
:105668002350D9262450DA22000EDF6E58EF2BF093
:1056780021C0D9FF22C0DAFF0A0EDF2623C0D9FFD6
:1056880024C0DAFF0A0EDF2621C016F022C017F068
:105698000FEC1DF023C016F024C017F00FEC1DF01E
:1056A800A00E00D0E82EFDD721C0D9FF22C0DAFF16
:1056B800280EDF6062EF2BF064EF2BF070EF2BF019
:1056C80023C0D9FF24C0DAFF270EDF646EEF2BF06A
:1056D80070EF2BF03CEF2BF0120020EE01F0215080
:1056E800D9262250DA22010EDF6E20EE01F0235077
:1056F800D9262450DA22010EDF6E9FEF2BF021C04D
:10570800D9FF22C0DAFF0A0EDF2623C0D9FF24C042
:10571800DAFF0A0EDF2621C016F022C017F00FECC0
:105728001DF023C016F024C017F00FEC1DF0A00EDA
:1057380000D0E82EFDD721C0D9FF22C0DAFF140E11
:10574800DF60A9EF2BF0ABEF2BF0B7EF2BF023C006
:10575800D9FF24C0DAFF130EDF64B5EF2BF0B7EFE3
:105768002BF083EF2BF012007C88D7EF2BF021C0B1
:10577800D9FF22C0DAFF0A0EDF5E23C0D9FF24C09A
:10578800DAFF0A0EDF5E21C016F022C017F00FEC18
:105798001DF023C016F024C017F00FEC1DF0A00E6A
:1057A80000D0E82EFDD721C0D9FF22C0DAFFDF5094
:1057B800D8B4E1EF2BF0E3EF2BF0EFEF2BF023C0A1
:1057C800D9FF24C0DAFFDF50D8A4EDEF2BF0EFEFBC
:1057D8002BF0BBEF2BF07C981200BFC04EF0C0C07E
:1057E8004FF0000E01011D6F000E1C6F13EF2CF01F
:1057F800BDC09DF0BEC09EF04E0E00019F6F000E12
:10580800A06FC1C0A1F0C2C0A2F05DEC11F0000110
:105818009D5101011C2700019E5101011D234EC00D
:10582800F6FF4FC0F7FF000EF86E0800F5500009AC
:10583800D8A421EF2CF023EF2CF0FCEF2BF01CC1A7
:10584800BDF01DC1BEF01200BF0E106EFF0E116E2E
:105858000EC012F00FC013F0105012261150132270
:1058680013500AE11A0E125CD8A03DEF2CF040EF5D
:105878002CF0010E41EF2CF0000E146E156A145036
:105888001510D8B44AEF2CF04CEF2CF053EF2CF055
:10589800200E0E100E6E0F500F6E57EF2CF00EC02C
:1058A8000EF00FC00FF012000AC00EF00BC00FF080
:1058B80008C010F009C011F00E500C6E0F500D6E9C
:1058C8000E4A0F2A0CC0F6FF0DC0F7FF000EF86E47
:1058D80010C0D9FF11C0DAFF104A112A0D0EF76463
:1058E80003D00800F55005D0F6CFE1FFF7CFE2FF6F
:1058F800E750DF6EDF50D8A484EF2CF086EF2CF051
:1059080060EF2CF012005CEC2DF013C0D9FF14C02E
:10591800DAFF0CC0DEFF0DC0DDFF84EC2DF020EEB9
:1059280002F01350D9261450DA220CC0DEFF0DC045
:10593800DDFFD4EC2DF020EE04F01350D9261450DE
:10594800DA220CC0DEFF0DC0DDFFACEC2DF020EE3E
:1059580006F01350D9261450DA220CC0DEFF0DC011
:10596800DDFF1200480EF66E620EF76E000EF86E3E
:1059780001EED2F010EE07F00900F5CFEEFFE5508A
:10598800E150FAE102EE00F03C0EEE6AE806FDE1B5
:1059980001EE00F0750EEE6AE806FDE100EEEFF0AC
:1059A800070EEE6AE806FDE1546A536A526A516AC4
:1059B800506A5790579200010DEF26F0C70E00016C
:1059C800DD6F000EDE6FC3C0DFF0C4C0E0F0000E74
:1059D800E26F000EE16F000EE46F000EE36FDF0E62
:1059E800BD6F000EBE6FC5C0BFF0C6C0C0F0DD0EF3
:1059F800C16F000EC26FF1EC2BF00001E151C3251D
:105A0800D96EE251C421DA6E000EDF6E1200010E6B
:105A18000E6E200E08180910D8B415EF2DF017EFE8
:105A28002DF030EF2DF0F70E0A6EFF0E0B6E08C04A
:105A38000CF009C00DF00A500C260B500D220D5029
:105A480009E1050E0C5CD8A02CEF2DF02EEF2DF0FF
:105A580030EF2DF0000E0E6E0EC008F0096A12002D
:105A680008C00AF009C00BF03CEF2DF0084A092ADB
:105A780008C0F6FF09C0F7FF000EF86E0D0EF764B8
:105A880003D00800F55005D0F6CFE1FFF7CFE2FFCD
:105A9800E7500009D8A453EF2DF055EF2DF03AEF59
:105AA8002DF00A50085C086E0B500958096E120058
:105AB8000BEC31F0520EF4EC30F0B60EF4EC30F0A2
:105AC80010EC31F0530EF4EC30F0010E29EC2FF00D
:105AD8000E6E0E50116E126A000E29EC2FF00E6E2B
:105AE8000E50106E0F6A11500F10116E12501010D8
:105AF800126E06EC31F011C00CF012C00DF012005D
:105B08000BEC31F0520EF4EC30F0B80EF4EC30F04F
:105B180010EC31F0530EF4EC30F0010E29EC2FF0BC
:105B28000E6E0E50116E126A000E29EC2FF00E6EDA
:105B38000E50106E0F6A11500F10116E1250101087
:105B4800126E06EC31F011C00CF012C00DF012000C
:105B58000BEC31F0520EF4EC30F0B40EF4EC30F003
:105B680010EC31F0530EF4EC30F0010E29EC2FF06C
:105B78000E6E0E50116E126A000E29EC2FF00E6E8A
:105B88000E50106E0F6A11500F10116E1250101037
:105B9800126E06EC31F011C00CF012C00DF01200BC
:105BA8000BEC31F0520EF4EC30F0BA0EF4EC30F0AD
:105BB80010EC31F0530EF4EC30F0010E29EC2FF01C
:105BC8000E6E0E50116E126A000E29EC2FF00E6E3A
:105BD8000E50106E0F6A11500F10116E12501010E7
:105BE800126E06EC31F011C00CF012C00DF012006C
:105BF800086EBD508F0B4009BD6EE00EBE16BF503B
:105C0800F00B0109BF6E08C0BCFFBD8E8594859856
:105C1800839E879C7D947D987B9E7F9C000EA36EBF
:105C2800000EA06EA48EA18E0A0E0E01746F0B0ECC
:105C3800696FFAEC30F015EC31F0E2EC30F012005C
:105C48000001F151D8A42BEF2EF02DEF2EF03DEFEF
:105C58002EF060C021F061C022F062C023F063C062
:105C680024F064C025F065C026F0CBEC24F04BEF9F
:105C78002EF060C03FF061C040F062C041F063C0E8
:105C880042F064C043F065C044F0D3EC1EF012004B
:105C98000001F151D8A453EF2EF055EF2EF065EF27
:105CA8002EF060C03FF061C040F062C041F063C0B8
:105CB80042F064C043F065C044F0D3EC1EF073EFCB
:105CC8002EF060C021F061C022F062C023F063C0F2
:105CD80024F064C025F065C026F0CBEC24F0120057
:105CE800130E0A6E000E63EC30F03F0E0C6E550E6C
:105CF800E82EFED70C2EFCD700F0040E0A6E0C0E10
:105D080063EC30F052C00AF0040E63EC30F05350EC
:105D18000A6E050E63EC30F055C00AF0060E63EC0F
:105D280030F056500A6E070E63EC30F01200130E76
:105D3800036E000E93EC30F03F0E056E550EE82E04
:105D4800FED7052EFCD700F0040E036E0C0E93EC64
:105D580030F052C003F0040E93EC30F05350036E51
:105D6800050E93EC30F055C003F0060E93EC30F0BE
:105D78005650036E070E93EC30F01200000E431AD3
:105D8800000E441A000E451A800E461A3FC02FF026
:105D980040C030F041C031F042C032F043C033F06F
:105DA80044C034F045C035F046C036F054EC14F029
:105DB8002FC03FF030C040F031C041F032C042F057
:105DC8001200000E176E000E166EF6EF2EF015C0BC
:105DD80008F0096A13C00AF014C00BF005EC29F0AA
:105DE800164A172A16501124D96E17501220DA6E47
:105DF800DF50156E1550D8A404EF2FF006EF2FF0E2
:105E0800EBEF2EF012000E0133A30DEF2FF00FEF82
:105E18002FF027EF2FF0010E0101246F7CAE17EF52
:105E28002FF01BEF2FF0066A062A1CEF2FF0066AE8
:105E3800063206327C5006187F0B06187C6EBDECC5
:105E480030F00E013393579211000A6E07EC30F0D0
:105E58000E01DA8707EC30F0D5CE0BF007EC30F006
:105E68000A50D8B43AEF2FF03EEF2FF0096A092A0A
:105E78003FEF2FF0096A093A09460E01DA5109186D
:105E8800DF0B0918DA6FDA890B5012001BBE57EFC7
:105E98002FF01B5006E11A04D8B055EF2FF057EF3A
:105EA8002FF065EF2FF01AC01CF01BC01DF01C1E50
:105EB8001D1E1C4A1D2A1CC01AF01DC01BF069EFCC
:105EC8002FF01AC01AF01BC01BF01200F2EC2FF0D2
:105ED800010E0A6E000E63EC30F03F0E0C6E550E8C
:105EE800E82EFED70C2EFCD700F0030E0A6E000E2B
:105EF80063EC30F0D50E0A6E010E63EC30F0EDEC79
:105F080030F01200BF0E0A6EFF0E0B6E08C00CF0C8
:105F180009C00DF00A500C260B500D220D500AE155
:105F28001A0E0C5CD8A09BEF2FF09EEF2FF0010EFD
:105F38009FEF2FF0000E086E096A12000850091032
:105F48000A100B10D8B4ABEF2FF0ADEF2FF0B5EF70
:105F58002FF0000E081A000E091A000E0A1A800EF9
:105F68000B1A08C008F009C009F00AC00AF00BC0F3
:105F78000BF01200D00E0A6EFF0E0B6E08C00CF06C
:105F880009C00DF00A500C260B500D220D500AE1E5
:105F98000A0E0C5CD8A0D3EF2FF0D6EF2FF0010E2D
:105FA800D7EF2FF0000E086E096A1200E5EF2FF008
:105FB80009C0D9FF0AC0DAFFDF50CAEC30F0094A3D
:105FC8000A2A09C0D9FF0AC0DAFFDF50D8A4EFEFC8
:105FD8002FF0F1EF2FF0DCEF2FF012000E01D95166
:105FE800F00B0809D96FD98B9F0ED66F848A848CE1
:105FF800A79BA79D1D0E1D6F1E0E1C6F1C0E6F6F9D
:106008001B0E706F12000E01D8B50DEF30F00FEFB8
:1060180030F007EF30F0DACE08F01F0E0816D8A4DB
:1060280018EF30F01AEF30F007EF30F012000E01E1
:10603800D8B521EF30F023EF30F01BEF30F0DACE97
:1060480001F01F0E0116D8A42CEF30F02EEF30F01F
:106058001BEF30F0120008500A02F3CF0CF0F4CF17
:106068000DF008500B02F3500D2609500A02F350A8
:106078000D260CC008F00DC009F01200086E08B01B
:1060880002D07F9201D07F8208B002D0799801D0E7
:10609800798808B002D07E9E01D07E8E120082825E
:1060A8000E019A93090E0D01F16F0E0129831F83CA
:1060B800A3EC30F0F28AF292F28CF28E12000B6EA0
:1060C8000BEC31F0520EF4EC30F00B508009F4EC8C
:1060D80030F00A50F4EC30F006EC31F01200D6EC57
:1060E80030F0096EC80E09607CEF30F07EEF30F0BA
:1060F80081EF30F07C8E82EF30F07C9E1200120E21
:106108000E01626F110E156F8382E997E895330EC1
:10611800E56F000EE66FE789E88BE78F1200046EE3
:106128001FEC31F0520E00EC31F00450800900EC05
:1061380031F0035000EC31F01AEC31F012000BECA6
:1061480031F0520EF4EC30F0E60EF4EC30F006ECE0
:1061580031F074EC2EF01200868C0E01B48D0F0114
:106168005899FC0E58172E0E5F6F60946088608EE9
:1061780012001FEC31F0520E00EC31F0E60E00EC8C
:1061880031F01AEC31F09BEC2EF01200086E0E0183
:1061980037A5D1EF30F0D3EF30F0CBEF30F008C0B7
:1061A800E4FE1200608060B0DCEF30F0DEEF30F02B
:1061B800D7EF30F064CF08F0085012008892849628
:1061C80084988690889080927C967C987E90809027
:1061D800120087928198869E000E42EC30F01200E1
:1061E800096E07EC30F009C0D5FE12008684868659
:1061F8000E01B495B4971200026E1BEC30F002C089
:10620800D5FE120007EC30F00E01DA85120007EC1B
:1062180030F00E01DA81120007EC30F00E01DA835B
:106228001200849E88967C9E809612001BEC30F0AB
:106238000E01DA8512001BEC30F00E01DA81120033
:07624800286E756C6C290043
:0262500012003A
:020000040020DA
:10000000FF0FFF0FFF0FFF0FFF0FFF0FFF0FFF0F80
:020000040030CA
:0C000000AAFFFFFF9FFFFFFFFFFFFFFFB5
:00000001FF
